:100000000C9489000C944B200C9472200C94491988
:100010000C9449190C9449190C946C0B0C943A23C8
:100020000C94B1000C94B1000C94B1000C94B1008C
:100030000C94B1000C94B1000C94B1000C94B1007C
:100040000C9499200C94B1000C944F1E0C94811EBA
:100050000C94B1000C94B1000C94B1000C94B1005C
:100060000C94B1000C94B10053165316531692160B
:100070007D168C165316531692167D160A466F750A
:100080006E64204D61746368696E6720436F6C6FA6
:100090007200005EBCE2613FDD83C29C7E20A3FD56
:1000A0001F41009D23BE46DB65F88C11AF32CA5755
:1000B000E9740000000800020100000304070000CA
:1000C000000000000000010204081020408001022E
:1000D000040810200102040810200404040404048D
:1000E00004040202020202020303030303030000EA
:1000F0000000230026002900000000002500280041
:100100002B0000000000240027002A005C06B11E1E
:100110006F0611241FBECFEFD8E0DEBFCDBF12E0C7
:10012000A0E0B1E0E0EFFAE402C005900D92A63144
:10013000B107D9F724E0A6E1B2E001C01D92A13ECB
:10014000B207E1F710E0C8E8D0E004C02197FE0153
:100150000E940624C638D107C9F70E94DE1E0C94FF
:100160006B250C9400006115710579F0FB0101907D
:100170000020E9F73197AF01461B570BDC01ED91E9
:10018000FC910280F381E02D099480E090E00895D5
:10019000EF92FF920F931F93CF93DF93CDB7DEB70C
:1001A00064970FB6F894DEBF0FBECDBF8EE493E028
:1001B0000E943A086AEF70E080E090E00E94082117
:1001C00041E0BE01635F7F4F8EE493E00E946908C7
:1001D00067E0CE010D960E94F0089C89891354C0F7
:1001E0008EE493E00E942E07BE01635F7F4F8EE492
:1001F00093E00E941B0841E064E48EE493E00E94D7
:10020000CB0768EE73E080E090E00E9408218EE466
:1002100093E00E942E07BE01635F7F4F8EE493E060
:100220000E941B0840E06EEB8EE493E00E94CB0737
:100230008E010F5F1F4F7E018AE0E80EF11C8EE4F5
:1002400093E00E94FF07F80181938F01EE15FF05EF
:10025000B1F769817A818D81807611F4687F07C05A
:10026000803211F46C7F03C0803409F46E7F072E56
:10027000000C880B990B0E94F11B20E030E040E855
:100280005DE30E94A11C04C060E070E080E89FEB89
:1002900064960FB6F894DEBF0FBECDBFDF91CF914D
:1002A0001F910F91FF90EF9008950F931F93CF939D
:1002B000DF93CBE1D3E0188219821A821B8287E395
:1002C00090E09D838C839F838E8380E590E0998767
:1002D0008887A5EDB2E01D921D921D921C92139786
:1002E00081E490E015969C938E93149717969C93B7
:1002F0008E9316978EE690E019969C938E9318979E
:10030000EFE8F2E0108211821282138281E390E022
:100310009583848382E390E0978386838AE590E0E7
:100320009187808740E050E060E07FE34A875B8709
:100330006C877D871F861E86198A188A1B8A1A8AEF
:100340000AE919E929E13EE31A960D931D932D93CD
:100350003C931D971F961C921E921E9751961C92BD
:100360001E92509753961C921E9252974287538723
:100370006487758717861686118A108A138A128AEF
:1003800040E050E060E87FE34C8B5D8B6E8B7F8BB1
:1003900089E390E0998F888F8AE390E09B8F8A8F22
:1003A00085E590E09D8F8C8F0AE919E929E93EE304
:1003B00054960D931D932D933C93579759961C92E9
:1003C0001E9258975B961C921E925A975D961C92AD
:1003D0001E925C9700E010E020E030E4048B158B67
:1003E000268B378B118E108E138E128E158E148ED7
:1003F00000E010E020E430E40E8F1F8F28A339A323
:100400001BA21AA21DA21CA21FA21EA25E964D93A1
:100410005D936D937C93919793961C921E92929705
:1004200095961C921E92949797961C921E92969760
:1004300040E050E060EA70E4468F578F60A371A3FC
:1004400013A212A215A214A217A216A240E050E015
:1004500060EC70E448A759A76AA77BA71DA61CA655
:100460001FA61EA619AA18AA40E050E060EC7FE380
:1004700098964D935D936D937C939B979D961C925C
:100480001E929C979F961C921E929E97D1961C92AC
:100490001E92D09740E050E060E271E440A751A77F
:1004A00062A773A715A614A617A616A611AA10AAC6
:1004B000D2960D931D932D933C93D597D7961C926E
:1004C0001E92D697D9961C921E92D897DB961C92B4
:1004D0001E92DA9700E010E020EA31E402AB13ABA1
:1004E00024AB35AB17AA16AA11AE10AE13AE12AEDE
:1004F000DC964D935D936D937C93DF97109216037A
:1005000010921503109218031092170310921A03F9
:100510001092190380E090E0A8E4B2E484AF95AFB4
:10052000A6AFB7AF1092D0021092CF021092D202B3
:100530001092D1021092D4021092D302DF91CF9187
:100540001F910F91089562E471E083E294E00E94AC
:100550003B1F60918602709187024AE050E083E27F
:1005600094E00E94112064E471E083E294E00E9430
:100570003B1F60918802709189024AE050E083E25B
:1005800094E00E94112064E471E083E294E00E9410
:100590003B1F60918A0270918B024AE050E083E237
:1005A00094E00E94112066E471E083E294E00E94EE
:1005B0003B1F4AE050E06091800283E294E00E9499
:1005C000B01F64E471E083E294E00E943B1F4AE0C4
:1005D00050E06091810283E294E00E94B01F64E4E5
:1005E00071E083E294E00E943B1F4AE050E060919A
:1005F0007F0283E294E00E94B01F2091800230E0ED
:100600008091860290918702AC01455051092417D0
:10061000350774F105968217930754F120918102F2
:1006200030E08091880290918902AC0145505109D7
:1006300024173507ECF0059682179307CCF020912C
:100640007F0230E080918A0290918B02AC0145508C
:1006500051092417350764F005968217930744F073
:100660006CE770E083E294E00E94171F81E0089538
:1006700080E008950F931F93CF93DF9380914D03F4
:10068000813009F448C040F0823009F06EC005EDB9
:1006900012E0C6E0D0E029C00BE113E0C4E0D0E0F6
:1006A0008AE0F801B896A2E8B2E001900D928A952E
:1006B000E1F70E94A302882349F08AE08C9FF001B1
:1006C0008D9FF00D1124E55EFC4F3EC021970A502E
:1006D0001109CF3F8FEFD80719F742C021970A5071
:1006E0001109CF3F8FEFD807D9F18AE0F801FC96C6
:1006F000A2E8B2E001900D928A95E1F70E94A30270
:10070000882361F38AE08C9FF0018D9FF00D112406
:10071000EB52FD4F19C00FE812E0C6E0D0E08AE0CE
:10072000F801FC96A2E8B2E001900D928A95E1F7FB
:100730000E94A302882369F08AE08C9FF0018D9FBC
:10074000F00D1124E157FD4F308121819281838189
:100750000BC021970A501109CF3F8FEFD807F9F648
:1007600030E020E090E88FEBAC01632F722F852FF3
:10077000942FDF91CF911F910F91089580E592E022
:100780000E944D1880E592E00E9457188823D1F30B
:100790006CE872E080E592E00E94831780918D0200
:1007A0008093810280918C028093800280918E02DE
:1007B00080937F0260E571E083E294E00E94481F2D
:1007C0004AE050E06091800283E294E00E94B71F0B
:1007D0004AE050E06091810283E294E00E94B71FFA
:1007E0004AE050E060917F0283E294E00E94B71FEC
:1007F0000895CF9380E592E00E944D1880E592E045
:100800000E9457188823D1F36CE872E080E592E0EB
:100810000E94831780918D028093810280918C02C7
:100820008093800280918E0280937F028AE0EBE2C7
:10083000F1E0A2E8B2E001900D928A95E1F70E9402
:10084000A302C82F64E571E083E294E00E943B1F9D
:100850006C2F70E04AE050E083E294E00E941820A0
:1008600068E072E083E294E00E943B1F8AE0E1E2EC
:10087000F1E0A2E8B2E001900D928A95E1F7C11192
:1008800003C00E94A302C82F64E671E083E294E0F3
:100890000E943B1F6C2F70E04AE050E083E294E03E
:1008A0000E94182068E072E083E294E00E943B1FFF
:1008B000CC2351F00E943A03C1E020E030E040E850
:1008C0005FEB0E94421B8111C0E08C2FCF910895F5
:1008D000CF93DF9300D000D000D0CDB7DEB74983EF
:1008E0005A836B837C838D839E8369817A818FE0B9
:1008F0000E94A7216B817C8180E10E94A7216D81EC
:100900007E8181E126960FB6F894DEBF0FBECDBF83
:10091000DF91CF910C94A7210E941211C4E612E03E
:1009200064E670E08091390290913A020E94060ECE
:10093000D82F813009F08CC04091090150910A01F3
:1009400060910B0170910C0180910D0190910E014D
:100950000E946804809106018136A1F468EE73E07C
:1009600080E090E00E94082110924D030E94BE0397
:10097000C69F9001C79F300D1124309343022093EE
:10098000420258C040911B0150911C0160911D0111
:1009900070911E0180911F01909120010E946804B6
:1009A000D0934D030E94F9038111FCCF40911501B2
:1009B00050911601609117017091180180911901F1
:1009C00090911A010E9468046AEF70E080E090E064
:1009D0000E9408210E94BE03C69F9001C79F300D50
:1009E0001124309341022093400240914A025091D9
:1009F0004B0260914C0270914D0280914E02909199
:100A00004F020E94680410934D030E94F903811164
:100A1000FCCF6AEF70E080E090E00E9408210E9425
:100A2000BE03C69F9001C79F300D112430933F0233
:100A300020933E0240914A0250914B0260914C0239
:100A400070914D0280914E0290914F020E94680475
:100A500081E090E00E946F1263CFCF93DF9300D0CC
:100A6000CDB7DEB70E9412119A8389834091150198
:100A70005091160160911701709118018091190130
:100A800090911A010E9468040E94080920E030E059
:100A900048EC52E40E94A11C0E94B91B60934602DC
:100AA0007093470280934802909349026AEF70E086
:100AB00080E090E00E94082140914A0250914B0250
:100AC00060914C0270914D0280914E0290914F02C4
:100AD0000E94680440911B0150911C0160911D010E
:100AE00070911E0180911F01909120010E94680465
:100AF0000E94C80020E030E048EC52E40E94A11CB3
:100B00000E94B91B9B01709345026093440280913F
:100B1000070190910801AC01425351092417350790
:100B200014F461E005C0C2968217930724F460E0D4
:100B300084E00E946B2264E670E080E090E00E9416
:100B4000082140914A0250914B0260914C027091F1
:100B50004D0280914E0290914F020E94680468E31A
:100B600071E0CE0101960E94371280CF61E08FE0E4
:100B70000E942F2261E080E10E942F2261E081E14A
:100B80000E942F2240914A0250914B0260914C02E8
:100B900070914D0280914E0290914F020C94680426
:100BA000EF92FF920F9340E052EC61E070E086E13B
:100BB00092E00E94471A61E08AE00E942F2261E0E1
:100BC00084E00E942F2226E040E052EC61E070E0D9
:100BD00083E294E00E94EA1D61E08AE00E946B22B9
:100BE00080E592E00E9458170E9455010E94B605C8
:100BF00040910F015091100160911101709112010B
:100C000080911301909114010E94680443E050E028
:100C100067E776E080E00E942B2080913902909176
:100C20003A02892B91F443E060E081E00E94640C79
:100C300090933A0280933902009739F020E040E027
:100C400050E060E070E00E948C0C87E3E82E82E0C8
:100C5000F82E02E020E030E040E850E06FE771E07D
:100C60008CE894E00E94890F95E3E92E92E0F92E3A
:100C700020E030E040E850E06BE871E08DE295E084
:100C80000E94890F68EE73E080E090E00E940821E6
:100C900040914A0250914B0260914C0270914D027A
:100CA00080914E0290914F020E9468040F91FF9034
:100CB000EF900C94DE10089566E08EE493E00E94BD
:100CC000460828E04DE06CE080E592E00E94E616E0
:100CD00020E043E062E086E192E00C941C1A86E199
:100CE00092E00E94C31980E592E00C94FA16CF932B
:100CF00086E192E00E94F218892B99F064E670E098
:100D000080E090E00E940821C0E086E192E00E942D
:100D1000F218892B39F086E192E00E946818C82FFA
:100D2000F4CFC0E080913D02882369F080913B02BE
:100D300090913C0201968A30910529F510923C026F
:100D400010923B0208C0CE36A9F0C03721F0C13660
:100D500009F082C01CC081E68093060181E0809387
:100D60003D0260E070E08091390290913A02CF91AB
:100D70000C94510DC0930601809137029091380276
:100D8000CF910C94951090933C0280933B026CE9B8
:100D900071E086E192E00E94481F40910F0150915E
:100DA00010016091110170911201809113019091D5
:100DB00014010E9468046EEA71E086E192E00E94EC
:100DC000B3006091460286E192E00E94891862EBCE
:100DD00071E086E192E00E94B3006091440286E1F6
:100DE00092E00E94891868EB71E086E192E00E942F
:100DF000B3006091420286E192E00E94891861ECA2
:100E000071E086E192E00E94B30060913E0286E1CB
:100E100092E00E9489186AEC71E086E192E00E94FB
:100E2000B3006091400286E192E00E94891868EC6C
:100E300070E080E090E00E94082140914A025091C9
:100E40004B0260914C0270914D0280914E02909144
:100E50004F02CF910C946804CF910895FF920F93A5
:100E60001F93CF93DF93FC01F080C181D281F8946E
:100E700089810F2D00958023898378941DE7115077
:100E800029F182E090E00E94442188818F21B9F30A
:100E9000F8948A8180238A8389818F298983789431
:100EA00080EE91E00E944421F8948981082309830F
:100EB00086E490E00E9444218881F82211E009F044
:100EC00010E078948AE991E00E944421812FDF911B
:100ED000CF911F910F91FF9008951F93CF93DF93B0
:100EE000FC011081C181D281812F809560FF12C0E9
:100EF000F8949A8189238A838981812B89838AE066
:100F000090E00E9444218A81182B1A83789487E309
:100F100090E011C0F8949A8189238A838981812B7A
:100F2000898381E490E00E9444218A81182B1A83EE
:100F3000789485E090E0DF91CF911F910C9444214B
:100F40000F931F93CF93DF93FC010081C181D28166
:100F5000F8948981802B89838A81102F10958123B1
:100F60008A8383E090E00E944421898118231983B9
:100F70008AE090E00E944421C881789485E390E063
:100F80000E944421C02381E009F480E0DF91CF91E9
:100F90001F910F910895DF92EF92FF920F931F938D
:100FA000CF93DF93EC01D62EE42E08E010E0FF246F
:100FB000F39461E08D2D8F2109F460E0CE010E9451
:100FC0006D07FF0C01501109A1F7E11010C0F89452
:100FD000E981FA8191818881809589238183E981E2
:100FE000FA81928188818095892382837894DF9128
:100FF000CF911F910F91FF90EF90DF900895EF92A6
:10100000FF920F931F93CF93DF937C0108E010E0D2
:10101000C0E0D1E0C7010E94A0078111CD2BDD0FF8
:1010200001501109B9F78C2FDF91CF911F910F91CA
:10103000FF90EF900895EF92FF920F931F93CF933D
:10104000DF938C017B0140E065E50E94CB07E7015F
:1010500088E0E80EF11C699140E0C8010E94CB07CE
:10106000CE15DF05C1F7DF91CF911F910F91FF9052
:10107000EF900895FC01138615861486DC011B96FB
:1010800033961E92AE17BF07E1F708951F93CF93D3
:10109000DF93EC01162F60E0812F0E942F22612F39
:1010A00070E0FB01EA53FF4FE491E883FB01E65255
:1010B000FF4FE491F0E0EE0FFF1FE251FF4F8591EB
:1010C00094919A838983CE01DF91CF911F910C94E3
:1010D0003A08BF92CF92DF92EF92FF920F931F9345
:1010E000CF93DF93EC016B01142F8D85811105C027
:1010F000CE010E942E07811105C01B861D861C860D
:1011000080E064C040E0112311F060EF01C06CEE9C
:10111000CE010E94CB0701E0E12CB12C11E0CE0101
:101120000E94A007F82ECE010E94A00791E0F912BC
:1011300003C08130B1F434C02E2D30E0F8121BC052
:101140008B85181738F4FE01E20FF31F838180238B
:1011500041F402C0181729F0F12C193058F41C87FB
:1011600009C0FE01EE0DF11D8381802B8383FF24D6
:10117000F39409C0B12EFE01E20FF31F9381802F7B
:101180008095892383836F2DCE010E946D071F5F99
:10119000000F11F4E39401E087E08E1508F0BFCF53
:1011A000113408F4AACFBB86B11002C081E08D874C
:1011B0008B81882309F4A1CFDE011396F6012B96CB
:1011C0008D918193CA17DB07D9F781E0DF91CF9129
:1011D0001F910F91FF90EF90DF90CF90BF900895F7
:1011E000DC0180E0615098F02D91982F9227E92F33
:1011F000EF70F0E0EE56FF4F249192959F70E92F2B
:10120000F0E0EE55FF4FE491822F8E27EBCF08954B
:101210008F929F92AF92BF92CF92DF92EF92FF9206
:10122000CF93DF938EE00E948A21EC0180903901F8
:1012300090903A01A0903B01B0903C012091350183
:10124000309136014091370150913801C501B40108
:101250000E94D51A9B01AC0160E070E080E490E44C
:101260000E94471B6B017C019B01AC01C501B401CD
:101270000E94A11C9B01AC0160E070E080EE90E454
:101280000E94D51A4B015C01BE01DD0F880B990B42
:101290000E94F11BA70196010E94A11C9B01AC01B9
:1012A000C501B4010E94D61ADF91CF91FF90EF9053
:1012B000DF90CF90BF90AF909F908F900895CF9385
:1012C000DF93EC010E940C11CE010E943A24EC0144
:1012D0000E94C811209711F40E94A516CE01DF913B
:1012E000CF910895CF93DF93009751F0EC010E94C6
:1012F0000C11CE010E94D224DF91CF910C94C81121
:10130000DF91CF910895FC010396928381832FEFA3
:101310003FEF34832383968385839087878310826E
:101320000895FC01118610860895CF93DF939C01E8
:10133000FB01DC011196CD91DC911297D383C2831E
:101340008C819D81958384838C819D81DC011396A2
:101350007C936E9312977D836C8331872087F9018C
:1013600080818F5F8083DF91CF9108950F931F93CA
:10137000CF93DF938C01FB01808191818F3F2FEF11
:10138000920721F4E801AF81B8850EC0D801139609
:1013900012962D913C911397E90148815981841748
:1013A000950710F0D901F4CF12968D919C91139767
:1013B00093838283EC01FD83EC83B583A48313962E
:1013C000FC93EE93129711870087F80180818F5F5D
:1013D0008083DF91CF911F910F910895CF93DF9379
:1013E000FC01A085B1858281938124813581EC0146
:1013F0003D832C83C481D5819B838A8311968D91F3
:101400009C911297E817F90721F41296DC93CE937A
:101410001197118610868C9181508C938C91DF915D
:10142000CF91089531E1FC013083319722E220838E
:101430003197A3E3A083319760833197708331970D
:101440001082319760E8608331971082319762E0B3
:101450006083319763E06083319764E06083319704
:1014600065E06083319766E06083319767E0608371
:10147000319768E06083319769E06083319760E17C
:10148000608331973083319732E13083319733E194
:101490003083319734E13083319735E130833197B0
:1014A00036E13083319737E13083319738E130834B
:1014B000319739E13083319730E23083319731E22F
:1014C000308331972083319723E220833197408303
:1014D00031975083319726E22083319727E220838A
:1014E000319728E22083319729E22083319720E346
:1014F0002083319721E3208386970895A89590EC67
:1015000088E10FB6F894A895809360000FBE909381
:101510006000A091C003B091C103CD91CDBFDD911A
:10152000DEBFFF91EF91DF91CF91BF91AF919F917E
:101530008F917F916F915F914F913F912F911F916B
:101540000F91FF90EF90DF90CF90BF90AF909F9062
:101550008F907F906F905F904F903F902F901F9053
:101560000F900FBE0F90089581E008950F920FB66F
:10157000F8940F921F9211242F923F924F925F92F4
:101580006F927F928F929F92AF92BF92CF92DF9293
:10159000EF92FF920F931F932F933F934F935F937D
:1015A0006F937F938F939F93AF93BF93CF93DF936B
:1015B000EF93FF93A091C003B091C1030DB60D92BC
:1015C0000EB60D920E948412A091C003B091C10387
:1015D000CD91CDBFDD91DEBFFF91EF91DF91CF9136
:1015E000BF91AF919F918F917F916F915F914F913B
:1015F0003F912F911F910F91FF90EF90DF90CF902F
:10160000BF90AF909F908F907F906F905F904F9022
:101610003F902F901F900F900FBE0F9008950F9244
:101620000FB6F8940F921F9211242F923F924F926F
:101630005F926F927F928F929F92AF92BF92CF9262
:10164000DF92EF92FF920F931F932F933F934F934D
:101650005F936F937F938F939F93AF93BF93CF933A
:10166000DF93EF93FF93A091C003B091C1030DB638
:101670000D920EB60D9213BE0E941C1181110E9494
:101680008412A091C003B091C103CD91CDBFDD9173
:10169000DEBFFF91EF91DF91CF91BF91AF919F910D
:1016A0008F917F916F915F914F913F912F911F91FA
:1016B0000F91FF90EF90DF90CF90BF90AF909F90F1
:1016C0008F907F906F905F904F903F902F901F90E2
:1016D0000F900FBE0F9008950E940F0B18950FB634
:1016E000F8940F92FC01928D0F900FBE81E0911142
:1016F00080E008950F931F93CF93DF93EC01042FA5
:101700001A8D4C8D41110BC088819981892BE9F587
:101710008C819D810E94FE131D821C8237C050E087
:10172000011115C08A819B810E945B252C8D8A81C5
:101730009B81820F911D9B838A832C813D8182171F
:10174000930718F1888199819B838A831EC08E81BB
:101750009F810E945B258C8D90E0919581959109E8
:101760002E813F81280F391F3F832E834881598165
:101770002417350730F42C813D81820F931F9F83FE
:101780008E83023011F41111115080E01F5F1A8F07
:10179000DF91CF911F910F910895FC01CB01448DF2
:1017A0004423A1F050E026813781240F351F378371
:1017B0002683648175812617370720F020813181C7
:1017C00037832683668177810C945B250895EF9299
:1017D000FF921F93CF93DF93EC010FB6F8940F9213
:1017E0001E8D7C0181E1E80EF11C11165CF48989E3
:1017F000882341F0C7010E940B1381110E948913B5
:101800001150F3CF8FEF8E8F0F900FBE0FB6F8945D
:101810000F921D8D7E0188E0E80EF11C11165CF41C
:101820008885882341F0C7010E940B1381110E9413
:1018300089131150F3CF8FEF8D8F0F900FBEDF9173
:10184000CF911F91FF90EF900895CF93DF93EC011C
:101850000FB6F8940F92488159818B8D7C8D9A0137
:10186000879F200D311D11243D832C831A8E5B83AD
:101870004A8390E00197789F9001799F300D112461
:10188000CA01820F931F9F838E838FEF8D8F8E8F60
:1018900061110CC08885882389F0CE0108960E94CA
:1018A0000B13882359F00E94B60A08C0CE0108968F
:1018B0000E948309CE0141960E9483090F900FBEBA
:1018C00081E0DF91CF9108950F931F93CF93DF9322
:1018D000082F162F662321F0869FC001112402C015
:1018E00080E090E04F960E945F09EC01009771F054
:1018F000111103C09983888303C04F96998388830D
:101900000B8F1C8F61E0CE010E94250CCE01DF9170
:10191000CF911F910F910895AF92BF92CF92DF9216
:10192000FF920F931F93CF93DF9300D000D01F92AD
:10193000CDB7DEB78C016B015D834C83F22E80E066
:10194000580198E0A90EB11C0FB6F8940F92F80157
:10195000228D938D291718F0F2E0FF1214C04F2D3D
:10196000B601C8010E947A0BF8019189992321F0F0
:10197000C80141960E940B1381110E94B60A0F9074
:101980000FBE81E050C02C813D81232B19F40F90B4
:101990000FBE48C0811104C0CE0101960E944B13B6
:1019A0000F900FBE0E940C110FB6F8940F92F80121
:1019B000858D8F3F09F4158EF801868D8F3F09F4D0
:1019C000168E0F900FBEBE016C5F7F4FCE01019649
:1019D0000E945613811121C00FB6F8940F92F8019E
:1019E000928D838D0F900FBE981311C06C817D81F5
:1019F000C5010E94E212C8010E94E70B0E94C811B3
:101A0000882311F081E0A0CF0E94B60AFBCFC80165
:101A10000E94E70B0E94C811F5CFC8010E94E70B96
:101A20000E94C81180E00F900F900F900F900F90C0
:101A3000DF91CF911F910F91FF90DF90CF90BF90DA
:101A4000AF900895EF92FF921F93CF93DF93EC0135
:101A50009A8D8B8D981710F02230E1F47A011E8D4B
:101A6000422FCE010E947A0B1F3F81F4898988237F
:101A700079F0CE0141960E940B13882349F0E114BE
:101A8000F10431F081E0F701808305C01F5F1E8FF4
:101A900081E001C080E0DF91CF911F91FF90EF9036
:101AA0000895CF93DF93FC01928D838D9817C0F436
:101AB000868D9F5F928F8F3F79F48189882371F0A3
:101AC000EB01CF0141960E940B13882339F0209738
:101AD00029F081E0888305C08F5F868F81E001C097
:101AE00080E0DF91CF910895AF92BF92CF92DF92C5
:101AF000FF920F931F93CF93DF9300D000D01F92DC
:101B0000CDB7DEB78C016B015D834C8380E058015B
:101B100091E1A90EB11C0FB6F8940F92F801F28C66
:101B2000FF20A9F0B601C8010E94CD0BFA94F8017C
:101B3000F28E8085882339F0C80108960E940B1325
:101B400081110E94B60A0F900FBE81E050C02C8117
:101B50003D81232B19F40F900FBE48C0811104C0A2
:101B6000CE0101960E944B130F900FBE0E940C11E4
:101B70000FB6F8940F92F801858D8F3F09F4158EFA
:101B8000F801868D8F3F09F4168E0F900FBEBE01AF
:101B90006C5F7F4FCE0101960E94561381111CC0CD
:101BA000C8010E946F0B882389F06C817D81C5017B
:101BB0000E94E212C8010E94E70B0E94C81188230C
:101BC00011F081E0A8CF0E94B60AFBCFC8010E94A5
:101BD000E70B0E94C811F5CFC8010E94E70B0E94D5
:101BE000C811C8010E946F0B882359F380E00F9041
:101BF0000F900F900F900F90DF91CF911F910F9149
:101C0000FF90DF90CF90BF90AF900895CF92DF927A
:101C1000FF920F931F93CF93DF9300D000D01F92BA
:101C2000CDB7DEB78C017D836C83F12C90E0680129
:101C300081E1C80ED11C0FB6F8940F92D8015A96C4
:101C40008C915A978823E9F081505A968C935A9731
:101C50008D919C91892B29F40E947F14F801958322
:101C60008483D80118968C91882339F0C80108968E
:101C70000E940B1381110E94B60A0F900FBE81E0E3
:101C80007AC02C813D81232B09F472C0911104C0CC
:101C9000CE0101960E944B130F900FBE0E940C11B3
:101CA0000FB6F8940F92F801858D8F3F09F4158EC9
:101CB000D8015E968C915E978F3F11F45E961C92D0
:101CC0000F900FBEBE016C5F7F4FCE0101960E9448
:101CD000561381112BC0C8010E946F0B882301F19C
:101CE000F80180819181892B51F40FB6F8940F92FD
:101CF000848195810E949B13F82E0F900FBE6C81FA
:101D00007D81C6010E94E212C8010E94E70B0E9479
:101D1000C811882311F091E08ECF0E94B60AFBCF44
:101D2000C8010E94E70B0E94C811F5CFC8010E94AC
:101D3000E70B0E94C811C8010E946F0B882359F35A
:101D4000FF20C1F00FB6F8940F92F8018189882323
:101D500039F00688F789E02D808164E0681B01C0B6
:101D600060E0D80114968D919C9115970E943814CB
:101D70000F900FBE80E00F900F900F900F900F907C
:101D8000DF91CF911F910F91FF90DF90CF90089539
:101D9000CF93DF93EC010FB6F8940F928D8D8F3FA8
:101DA00009F41D8E8E8D8F3F09F41E8E0F900FBE8D
:101DB0008A8D811104C0CE0141960E94F312CE019A
:101DC000DF91CF910C94E70BE0918803F0918903A8
:101DD0008081811103C08FEF9FEF0CC0E0918803D9
:101DE000F09189030580F681E02D0680F781E02DD2
:101DF000828193819093600380935F030895FF92A3
:101E00000F931F93CF93DF93EC01F62E009167039E
:101E1000109168038091C0039091C10302960E94C3
:101E2000EE09CF3F8FEFD80789F4FF2079F060915A
:101E3000C0037091C1036E5F7F4F8AE693E0DF912C
:101E4000CF911F910F91FF900C949509C00FD11F56
:101E5000E091C003F091C103D383C2836091C003BA
:101E60007091C103C017D10768F4809186039091E7
:101E700087036E5F7F4FDF91CF911F910F91FF908E
:101E80000C94B60980918803909189036E5F7F4F0F
:101E90000E94B60980915F0390916003C817D9072B
:101EA00020F4D0936003C0935F03DF91CF911F9123
:101EB0000F91FF90089580917303882309F10FB665
:101EC000F8940F92E0917903F0917A03C681D7815B
:101ED000CE0102960E94EE098091690381508093A1
:101EE0006903809173038150809373030F900FBE39
:101EF0008F89988D0E947209CE010E947209DBCFF2
:101F000080919C03823010F00E94B60A0E949C16B9
:101F1000D2CF5F926F927F928F929F92AF92BF9239
:101F2000CF92DF92EF92FF920F931F93CF93DF93A5
:101F30003C016B015A014901502ECA010E945F0900
:101F40008C01892B09F4E0C088E290E00E945F09CF
:101F5000EC01892BC9F0188F0F8BA50165EA70E0A1
:101F6000C8010E94642521E0A21AB1088F89988DCA
:101F7000A80EB91EC114D104C9F0BE01675E7F4F1F
:101F8000F601C601089607C0C8010E947209BCC0CC
:101F9000E817F90749F09F014191DB014D93BD011D
:101FA000D9012C912111F4CF18A201C0198E052D51
:101FB000043008F003E00E8B09A31AA26E01B2E010
:101FC000CB0ED11CC6010E949109CE010C960E9435
:101FD0009109D987C88784E090E0801B91099D878B
:101FE0008C87DB8BCA8B1BA21CA21DA21EA21FA268
:101FF000A401B301C5010E94120A99838883E114E8
:10200000F10419F0F701D183C0830FB6F8940F9251
:10201000809169038F5F809369038091C0039091E1
:10202000C103892BD1F5D093C103C093C003809124
:102030006903813009F041C08CE993E00E94830973
:1020400085EA93E00E9483098EEA93E00E94830967
:1020500087EB93E00E94830983E993E00E94830960
:102060008AE893E00E9483098DE793E00E94830948
:1020700084E793E00E9483098AE693E00E94830943
:1020800083E993E090938903809388038AE893E03F
:10209000909387038093860310C08091650381111C
:1020A0000CC0E091C003F091C10396898E89891715
:1020B00020F0D093C103C093C003809161038F5F70
:1020C000809361038E8990916603981710F4809332
:1020D0006603F9E08F9FC0011124B60184569C4F1E
:1020E0000E9495090F900FBE80916503882351F0DF
:1020F000E091C003F091C10396898E89981710F47E
:102100000E94B60A81E001C08FEFDF91CF911F914D
:102110000F91FF90EF90DF90CF90BF90AF909F9086
:102120008F907F906F905F9008950F931F93CF9340
:10213000DF932091C0033091C1038217930709F404
:1021400038C0009709F435C00FB6F8940F92FC011F
:10215000228533852A56334051F5FC01248935897F
:10216000F3E02D373F0719F1232B09F5EC018C0122
:102170000E5F1F4FC8010E94EE098E899091660381
:10218000981710F48093660329E0829FC001112400
:10219000B80184569C4F0E949509E091C003F091CC
:1021A000C1039E898689981710F00E94B60A0F9085
:1021B0000FBEDF91CF911F910F910895EF92FF9283
:1021C0000F938DE5E82E83E0F82E00E020E030E06C
:1021D00040EC50E063ED71E08BE59FE00E94890FD9
:1021E0008130B1F40E94E414813091F4F8942FEF1F
:1021F0003FEF3093600320935F0380936503109259
:102200006803109267030F91FF90EF900C947E0A81
:102210000F91FF90EF90089580915C038F5F809302
:102220005C0308950FB6F8940F9280916703909124
:1022300068030F900FBE0895CF92DF92EF92FF9246
:102240000F931F93CF93DF9380915C0381118CC018
:1022500000916703109168030F5F1F4F109368038D
:102260000093670301151105B9F4809188039091DB
:10227000890320918603309187033093890320934B
:1022800088039093870380938603809162038F5F16
:10229000809362030E94E40E80915F03909160033B
:1022A000C0E00817190708F44FC0D9E0E09188038F
:1022B000F09189038081811103C08FEF9FEF11C0DE
:1022C000E0918803F09189030580F681E02DE68096
:1022D000F780D70112968D919C91139708171907D3
:1022E00028F49093600380935F032EC06701B2E0EF
:1022F000CB0ED11CC6010E94EE09F7018489958995
:10230000892B21F0C7010C960E94EE09D701569641
:102310008C9190916603981710F480936603D89F70
:10232000C0011124B60184569C4F0E949509E0918A
:10233000C003F091C103D70156969C9186899817E6
:1023400008F4B4CFC1E0B2CFE091C003F091C10373
:10235000E689B9E0EB9FF0011124E456FC4F80813F
:10236000823040F0C1E006C0809164038F5F8093AB
:102370006403C0E0809163038111C1E08C2FDF9181
:10238000CF911F910F91FF90EF90DF90CF90089524
:10239000EF92FF920F931F93CF93DF930FB6F894B2
:1023A0000F9280915C03815080935C0380915C0369
:1023B000882311F080E052C0809169038823D1F313
:1023C000C0E0D0E089E0F82EEE24E39480917D0314
:1023D000882351F1E0918203F0918303C681D78174
:1023E000CE010C960E94EE098E010E5F1F4FC801B0
:1023F0000E94EE098E8990916603981710F48093DD
:102400006603F89EC0011124B80184569C4F0E94B7
:102410009509E091C003F091C1039E8986899817C0
:10242000A8F2E0926303D2CFCD2B11F00E94E40E0C
:10243000C0916403CC2351F0D1E00E941C118111A2
:10244000D0936303C150C9F7109264038091630372
:10245000882309F4AFCF0E94B60A81E00F900FBE27
:10246000DF91CF911F910F91FF90EF9008950F93FF
:102470001F93CF93DF938C01EB010E940C114091CD
:10248000670350916803F80120813181C9018C0FE5
:102490009D1F4217530720F48217930740F403C08F
:1024A0008217930730F021E04817590718F020E011
:1024B00001C021E0F80191838083222329F060E0AC
:1024C000841B950B0E94FF0E0E94C811811102C04F
:1024D0000E94B60ADF91CF911F910F910895CF937B
:1024E000DF93EC01892B19F40E94B60A0AC00E94FE
:1024F0000C1160E0CE010E94FF0E0E94C8118823DB
:1025000099F3DF91CF91089580915C03882321F0A6
:1025100081E080936303089510926303A091C00348
:10252000B091C103E091C003F091C1032D913C91A2
:102530008789908D8217930760F06091C003709136
:10254000C1038091C0039091C103675E7F4F0E94D9
:10255000B2168091660369E0482F50E0649F9001B5
:10256000659F300D1124F901E456FC4F90819111C3
:1025700002C08150F1CFA181B28112960D90BC9121
:10258000A02DB283A18321563C4FA217B30731F48B
:1025900012962D913C9113973283218399E0949F59
:1025A000F001959FF00D1124E456FC4F0180F2815B
:1025B000E02D268137813093C1032093C00380939F
:1025C00066030895CF93DF93EB016091C003709190
:1025D000C103645F7F4F0E94B60961E0CE01DF91C5
:1025E000CF910C94FF0E1F93CF93DF93EB01142F29
:1025F0006091C0037091C103645F7F4F0E94950991
:10260000112311F0CFEFDFEF612FCE01DF91CF91DA
:102610001F910C94FF0E0F931F93CF93DF93DC0158
:102620001596ED91FC911697C681D7818E01045FB6
:102630001F4FC8010E94EE0980915C03811114C0F4
:102640000A501109C8010E94EE098E899091660313
:10265000981710F480936603B9E08B9FC001112492
:10266000B80184569C4F03C0B8018DE793E00E94E7
:102670009509E091C003F091C1039E89868989176D
:1026800020F481E08093630301C080E0DF91CF916B
:102690001F910F91089520916203FC0120832091E6
:1026A000670330916803328321830895CF93DF93CA
:1026B0000FB6F8940F924091670350916803DB01C5
:1026C0002D913C912F3FBFEF3B07D9F0EC01E98101
:1026D000FA81A0916203B881BA1719F04E175F070B
:1026E00090F44E1B5F0BFB014217530738F4241B79
:1026F000350B318320830E944B1303C0118210825B
:1027000002C080E001C081E00F900FBEDF91CF9149
:10271000089581E080936303089580916503882381
:1027200031F080915C03882321F080E0089581E0FE
:10273000089582E008950F931F93CF93DF93FC01D8
:10274000892B09F455C08689A091C003B091C103BB
:1027500056969C91891708F041C02485358537FD30
:102760000CC0A091C003B091C10356969C9124E087
:1027700030E0291B31093587248729E0829FC00179
:10278000112484569C4F2285338528173907E9F494
:102790008F01EF012296CE010E94EE09E091C00365
:1027A000F091C1038689F801868B90916603981792
:1027B00010F480936603F9E08F9FC0011124BE01DD
:1027C00084569C4F0E94950907C0A091C003B09108
:1027D000C10356968C91868B81E00BC0A091C003FB
:1027E000B091C10381E021A156969C91291708F070
:1027F00080E0DF91CF911F910F9108950F931F9368
:10280000CF93DF93FC01892B11F480E02CC082A1CF
:10281000815082A3268991A12917B9F38111F5CF9F
:10282000EF018F010E5F1F4FC8010E94EE0989A1C1
:102830008E8B482F50E024E030E0241B350B3D8781
:102840002C8790916603981710F48093660329E013
:10285000249FC001259F900D1124B80184569C4FE0
:102860000E94950981E0DF91CF911F910F9108950A
:102870000F931F93CF93DF93FC01892BD9F191A183
:10288000961708F4962F86898917A1F122A1213085
:1028900089F5968B2485358537FD06C024E030E028
:1028A000291B31093587248729E0829FC001112423
:1028B00084569C4F2285338528173907D9F4EF01B8
:1028C0008F010E5F1F4FC8010E94EE098E89909103
:1028D0006603981710F48093660329E0829FC00175
:1028E0001124B80184569C4FDF91CF911F910F9115
:1028F0000C949509DF91CF911F910F9108958091CC
:10290000C0039091C103892B39F0E091C003F0918D
:10291000C10382A18F5F82A38091C0039091C10304
:1029200008950FB6F8940F928091C6039091C70353
:10293000892BE9F485ED93E00E9483098CEC93E008
:102940000E94830985ED93E09093CB038093CA03A3
:102950008CEC93E09093C9038093C80340E065E05A
:102960008AE00E94640C9093C7038093C6030F9083
:102970000FBE0895FC017383628391878087461799
:10298000570778F0421B530B8485958548175907E4
:10299000C8F4BF016E5F7F4F8091C8039091C90357
:1029A0000DC04217530718F46217730758F4BF019C
:1029B0006E5F7F4F8091CA039091CB030E94B6094E
:1029C00080E0089581E00895EF92FF920F930E94B6
:1029D00091148091C6039091C703892B81F084ECF8
:1029E000E82E83E0F82E03E020E030E045E550E0FB
:1029F00068ED71E084E995E10E94890F01C080E0F3
:102A00000F91FF90EF9008950F931F93CF93DF9353
:102A100000D000D01F92CDB7DEB7A091C603B09111
:102A2000C703109729F1F90169835B834A839D836A
:102A30008C836630A4F40E948D13E091C603F0915C
:102A4000C70320E0823011F4A80102C040E050E04A
:102A5000BE016F5F7F4FCF010E948C0C0AC020E047
:102A6000AF01BE016F5F7F4FCD010E94220D01C0FB
:102A700080E00F900F900F900F900F90DF91CF910B
:102A80001F910F910895EF92FF920F931F93CF9391
:102A9000DF93E091CA03F091CB038081882389F111
:102AA0000580F681E02DE080F180C681D7818E011E
:102AB0000E5F1F4FC8010E94EE09E889F989CE0117
:102AC00009958A8982FFE5CF8C859D858E0D9F1D96
:102AD000E816F90660F49B838A83D987C887B80112
:102AE0008091CA039091CB030E94B609D2CF00E037
:102AF00010E020E030E0A70160E0CE010E94041564
:102B0000C8CF8091C8039091C9039093CB03809361
:102B1000CA03F093C903E093C803DF91CF911F91DB
:102B20000F91FF90EF900895CF93DF9300D000D0E6
:102B30001F92CDB7DEB7E091CA03F091CB03D080EE
:102B4000DD2031F00580F681E02DE080F18002C0CB
:102B5000E12CF12C0E940C110E9412118C01809129
:102B6000C2039091C3030817190720F40E9443156C
:102B700081E001C080E01093C3030093C203811180
:102B800055C0DD20D9F10E151F0508F43EC00E9486
:102B9000C811E091CA03F091CB030580F681E02DC6
:102BA000C680D780C60102960E94EE09D6015296D1
:102BB0008C91529782FF17C01C966D917C911D9746
:102BC0006E0D7F1D9701A801C6010E94BA148823CB
:102BD00069F000E010E020E030E0A70160E0C6010D
:102BE0000E94041503C08E7FF601828BD601509699
:102BF000ED91FC915197C60109951EC0E091C80363
:102C0000F091C903808141E0811140E0B701601B70
:102C1000710B8091C6039091C7030E94C80E0E9459
:102C2000C811811109C00E94B60A06C00E94C811CD
:102C300003C0898187FF0EC040E050E0BE016F5F96
:102C40007F4F8091C6039091C7030E94740D81113C
:102C5000F0CF71CFEC80FD80F70182859385892BC1
:102C600021F0C70102960E94EE090E9412116C0128
:102C70008091C2039091C303C816D90610F40E9434
:102C80004315D092C303C092C203E9810E2E000CFB
:102C9000FF0BEA30F10580F6EC5CFF4FD70152964E
:102CA0008C910C9406248160F701828B2A813B81F0
:102CB00064857585620F731FA601C7010E94BA144F
:102CC000882309F4B9CFD7015096ED91FC91519723
:102CD000C7010995F701828982FFAECF4A815B81E6
:102CE00084859585480F591F00E010E020E030E012
:102CF00060E0C7010E9404159FCF8160F701828BBD
:102D00006A817B81758764876C0D7D1D9601A601A4
:102D1000C7010E94BA1490CF81FD04C0C7010E9470
:102D200072098ACF8E7FD70152968C9385CF0E94ED
:102D3000D0050E94DE1008950E945B068BE49DE1A1
:102D4000892B11F00C944B1D0895259A2D9A2FEF85
:102D500080E792E0215080409040E1F700C0000001
:102D60001D9AF5CF259A2D9A2FEF87EA91E62150EB
:102D700080409040E1F700C000001D9AF5CF0F930E
:102D80001F93FC018FEF80838183828383838483FD
:102D90008AE085831682DF011796739600E717E1B4
:102DA00020E030E048ED56ED60E070E00D931D93BB
:102DB0002D933D9318964D935D936D937C931B9744
:102DC000AE17BF0799F71F910F910895FF920F93C8
:102DD0001F93CF93DF93EC01F62E042F122F0E9446
:102DE000BF16FB820C831883DF91CF911F910F9147
:102DF000FF9008950895CF93DF93EC018B818F3F6F
:102E0000E9F09C819F3FD1F0613049F030F06230B1
:102E100041F0633099F461E009C060E007C061E00F
:102E200001C060E00E946B2261E003C00E946B223F
:102E300060E08C81DF91CF910C946B22DF91CF9178
:102E40000895CF93DF93EC0189818F3FE9F09A8158
:102E50009F3FD1F0613049F030F0623041F0633093
:102E600099F460E009C061E003C061E005C060E082
:102E70000E946B2261E003C00E946B2260E08A81A5
:102E8000DF91CF910C946B22DF91CF910895FC01DB
:102E900020812F3F29F091E06927822F0C946B222B
:102EA000662319F0FC01668101C063E00C942117D0
:102EB000CF93DF93EC0189818F3F19F061E00E948D
:102EC0002F228A818F3F19F061E00E942F228B818F
:102ED0008F3F19F061E00E942F228C818F3F19F003
:102EE00061E00E942F2288818F3F19F061E00E94EB
:102EF0002F2260E0CE010E9447176E81CE01DF9144
:102F0000CF910C942117DC01FB01309759F09B966F
:102F10008C919B9780839C968C919C9781839D96A6
:102F20008C91828308954F925F926F927F928F92DD
:102F30009F92AF92BF92DF92EF92FF920F931F93F7
:102F4000CF93DF938C01095F1F4FEC017C0183E17C
:102F5000E80EF11CDD24DA94F801D8018D909D90E3
:102F6000AD90BD908D01808D918DA28DB38D9C0112
:102F7000AD01281939094A095B09AFEFB0E00E9499
:102F80000C24F8014084518462847384A30192016B
:102F9000281939094A095B090E94E72357FF02C033
:102FA0001BA609C02F3F31054105510519F014F04A
:102FB000DBA601C02BA721960E151F0569F6DF9130
:102FC000CF911F910F91FF90EF90DF90BF90AF9046
:102FD0009F908F907F906F905F904F9008950F9388
:102FE0001F93CF93DF938C01C62F613049F018F007
:102FF0006230D9F04CC01092DE0361E00E944717A6
:10300000E091DE03F0E0E052FE4F6081C8010E94D3
:10301000FB16F801658170E088EE93E00E94B12311
:10302000CB010E949A22C2E032C00E941223882360
:1030300071F1E091DE0381E08E0F8093DE03F0E01A
:10304000E052FE4FC081D0E00E9415239B01AC01ED
:10305000CC0FDD1FCC0FDD1FC00FD11FF801A581E4
:10306000B0E00E940C246F8F78A389A39AA380916B
:10307000DE03833058F00E94232360E0C8010E94E1
:103080004717C8010E949317C0E001C0C1E08C2F10
:10309000DF91CF911F910F910895CF93DF93EC01B2
:1030A00060E00E94EF178EA7DF91CF910895CF9334
:1030B000DF93EC016EA50E94EF17982F8EA781E099
:1030C000911180E0DF91CF91089580E090E0089524
:1030D000209121043091220428173907B9F49091E6
:1030E000DF038091E003981789F0E091DF03F0E0BF
:1030F000EF51FC4F80812091DF0330E02F5F3F4F85
:103100002F7333272093DF0390E008958FEF9FEF15
:1031100008951F93CF93DF93DC015C968D919C9172
:103120005D97009739F421E030E013963C932E939D
:1031300012973BC05196ED91FC91529750962C916D
:103140005097322F30951FB75E964C915E97742F33
:10315000727041FD6095F8944081772311F0422B05
:1031600001C043234083EC012197F1F748E05081EF
:1031700060FF02C0522B01C053235083EC01219702
:10318000F1F76695415099F78081772319F08323F1
:10319000808302C0282B20831FBF5C968D919C9159
:1031A0005D970197F1F781E090E0DF91CF911F915A
:1031B0000895089520912104309122042817390799
:1031C00071F49091DF038091E003981741F0E09152
:1031D000DF03F0E0EF51FC4F808190E008958FEF26
:1031E0009FEF089520912104309122042817390778
:1031F00071F48091E0032091DF0390E0805C9F4FA9
:10320000821B910960E470E00E94B123089580E080
:1032100090E00895E0912104F0912204E817F90765
:1032200069F4A389B4899C918589809589238C93BD
:10323000109222041092210481E0089580E0089504
:10324000CF93DF93EC018A8D9B8D892BF1F08091D8
:10325000210490912204C817D907B9F0009711F002
:103260000E940A198E8D8E7F8E8F1092E00310922D
:10327000DF03D0932204C0932104EB89FC89908161
:103280008D89892B808381E001C080E0DF91CF911F
:1032900008951F920F920FB60F9211242F933F9310
:1032A0004F935F936F937F938F939F93AF93BF934E
:1032B000EF93FF93E0912104F0912204309709F4F9
:1032C00051C0968DA685B785858591FF04C09C91D8
:1032D000892329F447C09C91892309F043C0A3891D
:1032E000B4899C918589809589238C938689978957
:1032F0000197F1F7608D718DA685B785558538E00A
:1033000020E0CB010197F1F7822F90E0959587950A
:10331000282F4C91452309F02068315091F7868D74
:1033200081FD20958091E00390E001968F739927AD
:103330003091DF03381749F0A091E003B0E0AF51BE
:10334000BC4F2C938093E00303C0868D8160868FF1
:10335000828D938D0197F1F7A389B4899C9185891A
:10336000892B8C93FF91EF91BF91AF919F918F919A
:103370007F916F915F914F913F912F910F900FBE71
:103380000F901F90189527EE31E0FC0131832083C8
:103390000C940A191F93CF93DF93EC01162F6E8DB7
:1033A0006695617081E06827812F0E946B2261E041
:1033B000812F0E942F22812F90E0FC01EA53FF4FC2
:1033C000E491E88BFC01E652FF4FE491F0E0EE0F50
:1033D000FF1FE850FF4F859194919A8B898BDF9165
:1033E000CF911F9108951F93CF93DF93EC01162F78
:1033F00060E0812F0E942F228E8D81FD04C061E04C
:10340000812F0E946B221C87812F90E0FC01EA53E0
:10341000FF4FE491ED87FC01E652FF4FE491F0E0AD
:10342000EE0FFF1FE251FF4F859194919F878E878A
:10343000DF91CF911F9108951F93CF93DF93EC01FC
:10344000162F1B821A8288EE93E0A0E0B0E08C83F6
:103450009D83AE83BF8387EE91E0998388831F8A23
:103460001E8A198E188E1B8E1A8E1D8E1C8E8E8DA6
:103470008E7F20FB81F98E8F642FCE010E94CA19A6
:10348000612FCE01DF91CF911F910C94F319CF934F
:10349000DF93EC019A01AB011B8E1A8E198E188EE8
:1034A0001F8A1E8A60E079E08DE390E00E94E723A6
:1034B000F9012430310518F0C901039702C081E0F9
:1034C00090E09D8F8C8F6C85663108F069C0C901D2
:1034D000969587958431910510F0439702C081E05D
:1034E00090E09F8B8E8B369718F0C901059702C02C
:1034F00081E090E0998F888FC901880F991F280F6C
:10350000391F36952795369527952D30310518F0BA
:103510002C50310902C021E030E03B8F2A8F90917E
:103520006800683050F021E06E3008F420E081E05F
:1035300001C0880F2A95EAF701C084E0892B8093A7
:1035400068009C85983038F09E3040F0963148F005
:1035500020E030E008C02DE630E005C02BE630E08A
:1035600002C02CE630E03C8B2B8B983030F481E0AD
:1035700001C0880F9A95EAF70EC0292F30E09E30DF
:1035800018F42850310902C02E50310981E001C0E1
:10359000880F2A95EAF78D8B8C8D9D8D0197F1F719
:1035A000CE01DF91CF910C9420195058BB27AA2748
:1035B0000E94ED1A0C94671C0E94591C38F00E945E
:1035C000601C20F039F49F3F19F426F40C94561C2B
:1035D0000EF4E095E7FB0C94501CE92F0E94781C38
:1035E00058F3BA17620773078407950720F079F438
:1035F000A6F50C949A1C0EF4E0950B2EBA2FA02D74
:103600000B01B90190010C01CA01A0011124FF278F
:10361000591B99F0593F50F4503E68F11A16F0408A
:10362000A22F232F342F4427585FF3CF4695379589
:103630002795A795F0405395C9F77EF41F16BA0B4E
:10364000620B730B840BBAF09150A1F0FF0FBB1FFC
:10365000661F771F881FC2F70EC0BA0F621F731F45
:10366000841F48F4879577956795B795F7959E3FA2
:1036700008F0B0CF9395880F08F09927EE0F979533
:10368000879508950E942C1C08F481E008950E94FB
:103690005B1B0C94671C0E94601C58F00E94591C14
:1036A00040F029F45F3F29F00C94501C51110C9408
:1036B0009B1C0C94561C0E94781C68F39923B1F350
:1036C000552391F3951B550BBB27AA276217730748
:1036D000840738F09F5F5F4F220F331F441FAA1FDC
:1036E000A9F335D00E2E3AF0E0E832D09150504098
:1036F000E695001CCAF72BD0FE2F29D0660F771F46
:10370000881FBB1F261737074807AB07B0E809F02B
:10371000BB0B802DBF01FF2793585F4F3AF09E3FB0
:10372000510578F00C94501C0C949B1C5F3FE4F303
:10373000983ED4F3869577956795B795F7959F5FF3
:10374000C9F7880F911D9695879597F90895E1E03F
:10375000660F771F881FBB1F621773078407BA079E
:1037600020F0621B730B840BBA0BEE1F88F7E095F9
:1037700008950E94C01B6894B1110C949B1C08957D
:103780000E94801C88F09F5798F0B92F9927B75155
:10379000B0F0E1F0660F771F881F991F1AF0BA95F5
:1037A000C9F714C0B13091F00E949A1CB1E008959D
:1037B0000C949A1C672F782F8827B85F39F0B93F8F
:1037C000CCF3869577956795B395D9F73EF49095A8
:1037D0008095709561957F4F8F4F9F4F0895E89426
:1037E00009C097FB3EF490958095709561957F4F49
:1037F0008F4F9F4F9923A9F0F92F96E9BB279395F7
:10380000F695879577956795B795F111F8CFFAF406
:10381000BB0F11F460FF1BC06F5F7F4F8F4F9F4F37
:1038200016C0882311F096E911C0772321F09EE895
:10383000872F762F05C0662371F096E8862F70E0FB
:1038400060E02AF09A95660F771F881FDAF7880FD5
:103850009695879597F90895990F0008550FAA0B2B
:10386000E0E8FEEF16161706E807F907C0F0121693
:103870001306E407F50798F0621B730B840B950B96
:1038800039F40A2661F0232B242B252B21F40895EB
:103890000A2609F4A140A6958FEF811D811D089588
:1038A00097F99F6780E870E060E008959FEF80ECF3
:1038B000089500240A941616170618060906089596
:1038C00000240A9412161306140605060895092EFC
:1038D0000394000C11F4882352F0BB0F40F4BF2B6B
:1038E00011F460FF04C06F5F7F4F8F4F9F4F0895AB
:1038F00057FD9058440F551F59F05F3F71F04795A1
:10390000880F97FB991F61F09F3F79F08795089585
:10391000121613061406551FF2CF4695F1DF08C0A4
:10392000161617061806991FF1CF869571056105C1
:1039300008940895E894BB2766277727CB0197F969
:1039400008950E94B41C0C94671C0E94591C38F006
:103950000E94601C20F0952311F00C94501C0C94D4
:10396000561C11240C949B1C0E94781C70F3959F8C
:10397000C1F3950F50E0551F629FF001729FBB2766
:10398000F00DB11D639FAA27F00DB11DAA1F649F02
:103990006627B00DA11D661F829F2227B00DA11DB5
:1039A000621F739FB00DA11D621F839FA00D611D3B
:1039B000221F749F3327A00D611D231F849F600D5C
:1039C000211D822F762F6A2F11249F5750409AF085
:1039D000F1F088234AF0EE0FFF1FBB1F661F771F11
:1039E000881F91505040A9F79E3F510580F00C94DC
:1039F000501C0C949B1C5F3FE4F3983ED4F38695D7
:103A000077956795B795F795E7959F5FC1F7FE2B7B
:103A1000880F911D9695879597F90895FC01918DD2
:103A2000228D892F90E0805C9F4F821B91098F73BC
:103A300099270895FC01918D828D981731F0828D20
:103A4000E80FF11D858D90E008958FEF9FEF0895A9
:103A5000FC01918D828D981761F0828DDF01A80F96
:103A6000B11D5D968C91928D9F5F9F73928F90E0B8
:103A700008958FEF9FEF0895FC01538D448D252FFE
:103A800030E0842F90E0821B930B541710F0CF96F8
:103A900008950197089587EA9EE1892B49F080E017
:103AA00090E0892B29F00E94A71E81110C94000040
:103AB0000895FC01848DDF01A80FB11DA35ABF4FEB
:103AC0002C91848D90E001968F739927848FA6891D
:103AD000B7892C93A089B1898C91837080648C9371
:103AE000938D848D981306C00288F389E02D808120
:103AF0008F7D80830895EF92FF920F931F93CF9352
:103B0000DF93EC0181E0888F9B8D8C8D981305C02D
:103B1000E889F989808185FD26C0F62E0B8D10E09D
:103B20000F5F1F4F0F731127E02E8C8DE8120CC012
:103B30000FB607FCFACFE889F989808185FFF5CFB8
:103B4000CE010E94591DF1CF8B8DFE01E80FF11DB2
:103B5000E35AFF4FF0829FB7F8940B8FEA89FB89F5
:103B6000808180620AC09FB7F894EE89FF896083E4
:103B7000E889F98980818370806480839FBF81E0B8
:103B800090E0DF91CF911F910F91FF90EF900895FA
:103B9000CF93DF93EC01888D8823C9F0EA89FB89F4
:103BA000808185FD05C0A889B9898C9186FD0FC0EB
:103BB0000FB607FCF5CF808185FFF2CFA889B989C0
:103BC0008C9185FFEDCFCE010E94591DE7CFDF918B
:103BD000CF910895CF92DF92EF92FF921F93CF93F0
:103BE000DF93EC016A017B01122FE889F98982E0F9
:103BF00080834115514E61057105B1F060E079E0B7
:103C00008DE390E0A70196010E94C523DA01C90166
:103C10000197A109B109B695A795979587959C013C
:103C2000211580E13807A8F0E889F989108260E859
:103C300074E88EE190E0A70196010E94C523DA01A5
:103C4000C9010197A109B109B695A79597958795DF
:103C50009C01EC85FD853083EE85FF852083188EE1
:103C6000EC89FD891083EA89FB89808180618083EA
:103C7000EA89FB89808188608083EA89FB89808169
:103C800080688083EA89FB8980818F7D8083DF91D2
:103C9000CF911F91FF90EF90DF90CF9008951F92EA
:103CA0000F920FB60F9211242F938F939F93EF9340
:103CB000FF93E0913304F09134048081E091390462
:103CC000F0913A0482FD12C0908180913C048F5F94
:103CD0008F7320913D04821751F0E0913C04F0E095
:103CE000ED5DFB4F958F80933C0401C08081FF9177
:103CF000EF919F918F912F910F900FBE0F901F907A
:103D000018951F920F920FB60F9211242F933F9385
:103D10004F935F936F937F938F939F93AF93BF93D3
:103D2000EF93FF9383E294E00E94591DFF91EF917E
:103D3000BF91AF919F918F917F916F915F914F91C3
:103D40003F912F910F900FBE0F901F90189583E217
:103D500094E00E940E1D21E0892B09F420E0822FBF
:103D60000895E3E2F4E01382128288EE93E0A0E08B
:103D7000B0E084839583A683B78389EF91E0918334
:103D8000808385EC90E09587848784EC90E097872A
:103D9000868780EC90E0918B808B81EC90E0938B18
:103DA000828B82EC90E0958B848B86EC90E0978BF5
:103DB000868B118E128E138E148E08950E944F21C1
:103DC0000E9497160E94D005CBE4DDE10E945B06BD
:103DD0002097E1F30E944B1DF9CFCF92DF92EF9233
:103DE000FF920F931F93CF93DF936C017A018B01A6
:103DF000C0E0D0E0CE15DF0581F0D8016D918D01D6
:103E0000D601ED91FC910190F081E02DC60109955C
:103E1000892B11F02196EECF7E01C701DF91CF9162
:103E20001F910F91FF90EF90DF90CF900895EF9248
:103E3000FF920F931F93CF93DF938C017B01C0E020
:103E4000D0E0F701EC0FFD1F6491662361F0D8010B
:103E5000ED91FC910190F081E02DC8010995892B2D
:103E600011F02196EECFCE01DF91CF911F910F91EE
:103E7000FF90EF9008950C94B300DC01ED91FC915C
:103E80000190F081E02D099467E072E00C94B3009A
:103E90000F931F93CF93DF93EC010E94B3008C012B
:103EA000CE010E94441F800F911FDF91CF911F917F
:103EB0000F9108958F929F92AF92BF92EF92FF92CF
:103EC0000F931F93CF93DF93CDB7DEB7A1970FB6B4
:103ED000F894DEBF0FBECDBF7C01FA01CB0119A261
:103EE000223008F42AE08E010F5D1F4F822E912CA4
:103EF000A12CB12CBF01A50194010E94C523F90199
:103F0000CA01015011096A3010F4605D01C0695C9A
:103F1000D8016C93232B242B252B61F7B801C70103
:103F20000E94B300A1960FB6F894DEBF0FBECDBFBE
:103F3000DF91CF911F910F91FF90EF90BF90AF90C5
:103F40009F908F9008952115310541F4DC01ED918A
:103F5000FC910190F081E02D642F09940C945A1F7C
:103F60009A01462F50E060E070E00C94A31F0F937D
:103F70001F93CF93DF93EC010E94B01F8C01CE0101
:103F80000E94441F800F911FDF91CF911F910F91CD
:103F90000895CF92DF92EF92FF920F931F93CF93EA
:103FA000DF932115310581F4DC01ED91FC91019045
:103FB000F081E02D642FDF91CF911F910F91FF9041
:103FC000EF90DF90CF9009942A30310501F577FF0B
:103FD0001DC06A017B01EC016DE20E943D1F8C0156
:103FE00044275527BA014C195D096E097F092AE05B
:103FF000CE010E945A1F800F911FDF91CF911F9118
:104000000F91FF90EF90DF90CF9008952AE0DF911D
:10401000CF911F910F91FF90EF90DF90CF900C9474
:104020005A1F9A01AB01770F660B770B0C94C91FCF
:104030000F931F93CF93DF93EC010E9411208C010B
:10404000CE010E94441F800F911FDF91CF911F91DD
:104050000F91089508958230E8F4E82FF0E0EE0F14
:10406000FF1FE35CFE4F71836083813041F08091DC
:1040700069008C7F482B40936900E89A08958091ED
:104080006900837F440F551F440F551F482B4093F1
:104090006900E99A08951F920F920FB60F921124AA
:1040A0002F933F934F935F936F937F938F939F9340
:1040B000AF93BF93EF93FF93E0913D01F0913E01E9
:1040C0000995FF91EF91BF91AF919F918F917F9152
:1040D0006F915F914F913F912F910F900FBE0F9075
:1040E0001F9018951F920F920FB60F9211242F93C5
:1040F0003F934F935F936F937F938F939F93AF9370
:10410000BF93EF93FF93E0913F01F0914001099538
:10411000FF91EF91BF91AF919F918F917F916F919F
:104120005F914F913F912F910F900FBE0F901F9075
:1041300018951F920F920FB60F9211242F933F9351
:104140008F939F93AF93BF938091C1049091C204CA
:10415000A091C304B091C4043091C00423E0230FA4
:104160002D3720F40196A11DB11D05C026E8230FAF
:104170000296A11DB11D2093C0048093C1049093A9
:10418000C204A093C304B093C4048091C504909169
:10419000C604A091C704B091C8040196A11DB11D29
:1041A0008093C5049093C604A093C704B093C80439
:1041B000BF91AF919F918F913F912F910F900FBE23
:1041C0000F901F9018953FB7F8948091C504909177
:1041D000C604A091C704B091C80426B5A89B05C029
:1041E0002F3F19F00196A11DB11D3FBFBA2FA92F76
:1041F000982F8827820F911DA11DB11DBC01CD01F3
:1042000042E0660F771F881F991F4A95D1F70895DE
:104210008F929F92AF92BF92CF92DF92EF92FF92D6
:104220006B017C010E94E3204B015C01C114D104AD
:10423000E104F10401F10E94B0230E94E320DC01BB
:10424000CB0188199909AA09BB09883E9340A105A9
:10425000B10560F321E0C21AD108E108F10888EE47
:10426000880E83E0981EA11CB11CC114D104E10486
:10427000F10419F7DBCFFF90EF90DF90CF90BF9064
:10428000AF909F908F9008958230910538F0880FFD
:10429000991F880F991F05970197F1F70895789452
:1042A00084B5826084BD84B5816084BD85B582603B
:1042B00085BD85B5816085BDEEE6F0E080818160D9
:1042C0008083E1E8F0E010828081826080838081D9
:1042D00081608083E0E8F0E0808181608083E1EBB1
:1042E000F0E0808184608083E0EBF0E08081816099
:1042F0008083EAE7F0E0808184608083808182604F
:104300008083808181608083808180688083109237
:10431000C10008958E3008F08E502091410190E444
:10432000299F900111248770822B80937C008091BB
:104330007A00806480937A0080917A0086FDFCCFB9
:10434000809178002091790090E0922B08951F933E
:10435000CF93DF93182FEB0161E00E942F2220976B
:1043600011F460E004C0CF3FD10539F461E0812F42
:10437000DF91CF911F910C946B22E12FF0E0EE546E
:10438000FF4FE491E330F9F048F4E130B9F0E23066
:10439000A1F584B5806284BDC8BD34C0E730E9F0C2
:1043A000E83019F1E43049F5809180008062809313
:1043B0008000D0938B00C0938A0024C084B58068AD
:1043C00084BDC7BD1FC0809180008068809380003D
:1043D000D0938900C093880015C08091B000806898
:1043E0008093B000C093B3000DC08091B000806294
:1043F0008093B000C093B40005C0C038D1050CF064
:10440000B5CFAFCFDF91CF911F910895833081F069
:1044100028F4813099F08230A1F008958730A9F016
:104420008830B9F08430D1F4809180008F7D03C052
:10443000809180008F7780938000089584B58F7776
:1044400002C084B58F7D84BD08958091B0008F77C0
:1044500003C08091B0008F7D8093B0000895CF930A
:10446000DF9390E0FC01EA53FF4F2491FC01E652F8
:10447000FF4F8491882361F190E0880F991FFC0120
:10448000EE5FFE4FC591D491FC01E850FF4FA5911E
:10449000B491611109C09FB7F89488812095822357
:1044A0008883EC912E230BC0623061F49FB7F8949F
:1044B0008881322F309583238883EC912E2B2C9387
:1044C0009FBF06C08FB7F894E8812E2B28838FBF3B
:1044D000DF91CF9108951F93CF93DF93282F30E082
:1044E000F901EE54FF4F8491F901EA53FF4FD49143
:1044F000F901E652FF4FC491CC23C1F0162F811170
:104500000E940622EC2FF0E0EE0FFF1FE850FF4F55
:10451000A591B4919FB7F894111104C08C91D095D6
:10452000D82302C0EC91DE2BDC939FBFDF91CF91AB
:104530001F910895009709F474C01092CA04109254
:10454000C9041092D7041092D6041092D20410928B
:10455000D3041092D4041092D5041092CD0420916B
:1045600080002093DC04209181002093DB041092D2
:10457000810010928000109285001092840021E04A
:1045800026BB10926F002091B0002093DA04209196
:10459000B1002093D9041092B10022E02093B00022
:1045A0009C0127703327232B51F443E09695879580
:1045B0004A95E1F72CE72093B30027E018C09C014F
:1045C00023703327232B31F49695879596958795FD
:1045D00029EF05C080FD07C0969587952CE72093AD
:1045E000B30026E004C02CE72093B30025E020931D
:1045F000D80422E027BB1092B2009093CC048093A1
:10460000CB049FB7F89423BD8091D8048093B10068
:10461000209370008BE08150F1F787E08093810058
:104620009FBF08958091CD0408952FB7F8946091AD
:10463000CE047091CF048091D0049091D104109257
:10464000CD042FBF0895E1EBF0E0108210927000CE
:104650008091DA048093B0008091D9048083E1E8EE
:10466000F0E010828091DC04809380008091DB0474
:10467000808308951F920F920FB60F9211240F930B
:104680001F932F933F934F935F936F937F938F93DA
:104690009F93AF93BF932091840030918500B09B8E
:1046A0000BC081E086BB8091D6049091D70401961F
:1046B0009093D7048093D6048091C9049091CA0442
:1046C00001964091CB045091CC048417950798F142
:1046D0001092CA041092C9048091D6049091D70414
:1046E000A0E0B0E0DC0199278827820F931FA11D6D
:1046F000B11D4091D2045091D3046091D4047091C3
:10470000D5048C019D01041B150B260B370B009360
:10471000CE041093CF042093D0043093D10480931F
:10472000D2049093D304A093D404B093D50481E031
:104730008093CD0404C09093CA048093C904BF91B0
:10474000AF919F918F917F916F915F914F913F9129
:104750002F911F910F910F900FBE0F901F901895E2
:10476000089597FB072E16F4009407D077FD09D023
:104770000E94172407FC05D03EF4909581959F4F29
:104780000895709561957F4F0895A1E21A2EAA1B96
:10479000BB1BFD010DC0AA1FBB1FEE1FFF1FA217F1
:1047A000B307E407F50720F0A21BB30BE40BF50BEE
:1047B000661F771F881F991F1A9469F76095709577
:1047C000809590959B01AC01BD01CF010895052E08
:1047D00097FB1EF400940E94FE2357FD07D00E9411
:1047E000C52307FC03D04EF40C94FE23509540954E
:1047F000309521953F4F4F4F5F4F0895909580958D
:10480000709561957F4F8F4F9F4F0895EE0FFF1F5B
:104810000590F491E02D09940E942B24A59F900D02
:10482000B49F900DA49F800D911D11240895AA1B83
:10483000BB1B51E107C0AA1FBB1FA617B70710F08B
:10484000A61BB70B881F991F5A95A9F780959095BD
:10485000BC01CD010895A29FB001B39FC001A39FE9
:10486000700D811D1124911DB29F700D811D1124A9
:10487000911D08950F931F93CF93DF93823091057D
:1048800010F482E090E0E091DF04F091E00420E099
:1048900030E0A0E0B0E0309719F140815181028111
:1048A000138148175907C8F08417950769F41097C2
:1048B00031F012960C93129713961C9327C0009315
:1048C000DF041093E00422C02115310519F04217CE
:1048D000530718F49A01BD01EF01DF01F801DBCFA6
:1048E00021153105F9F0281B390B2430310580F4EE
:1048F0008A819B816115710521F0FB01938382837D
:1049000004C09093E0048093DF04FE01329644C01B
:10491000FE01E20FF31F81939193225031093983F5
:1049200028833AC02091DD043091DE04232B41F42A
:1049300020910201309103013093DE042093DD04C5
:1049400020910001309101012115310541F42DB76D
:104950003EB74091040150910501241B350BE091B5
:10496000DD04F091DE04E217F307A0F42E1B3F0BE9
:104970002817390778F0AC014E5F5F4F24173507D1
:1049800048F04E0F5F1F5093DE044093DD04819387
:10499000919302C0E0E0F0E0CF01DF91CF911F9151
:1049A0000F910895CF93DF93009709F481C0FC0124
:1049B000329713821282A091DF04B091E004109725
:1049C00081F420813181820F931F2091DD04309189
:1049D000DE042817390751F5F093DE04E093DD0477
:1049E00067C0ED0120E030E0CE17DF0740F44A81D8
:1049F0005B819E0141155105F1F0EA01F5CFD383AA
:104A0000C28340815181840F951FC817D90759F47B
:104A100088819981840F951F0296918380838A8172
:104A20009B81938382832115310529F4F093E0045F
:104A3000E093DF043DC0E901FB83EA83499159918A
:104A4000C40FD51FEC17FD0761F480819181840F9D
:104A5000951F0296E90199838883828193819B83C4
:104A60008A83E0E0F0E012968D919C911397009775
:104A700019F0FD01DC01F7CF8D919C9111979D01FB
:104A80002E5F3F4F820F931F2091DD043091DE0493
:104A90002817390769F4309729F41092E00410922E
:104AA000DF0402C013821282B093DE04A093DD04FF
:104AB000DF91CF910895FB01DC0102C001900D92BE
:104AC00041505040D8F70895DC0101C06D9341502A
:104AD0005040E0F7089510E0C8E8D0E004C0FE01BF
:104AE0000E9406242196C938D107C9F7F894FFCF50
:104AF0000000E1042000611900FF00FF00FF00003A
:104B0000000000FF000000FF000000FF00000000A8
:104B100000000000003C0041006E00000000001D8D
:104B2000001F003C00000026430000CA432A202A40
:104B30002001633A2000726561645F696E3A20006B
:104B40005247420020666F756E64456D70747942FD
:104B50006F78200020666F756E64456D70747942C1
:104B60006F784F7254657374537472697020004388
:104B70006F6C6F7253656E736F72005048616E6434
:104B800054656D706572617475726500696E7369E4
:104B900064652063617365207072696E740070686B
:104BA0003A0074656D703A00616D6D6F6E69613ABF
:104BB000006E6974726974653A006E69747261742A
:104BC000653A0049444C4500546D722053766300A9
:104BD000000102000000008918ED1E6518D918F2C6
:104BE000186818DA18000000007B1DED1E3C1DC877
:104BF0001D0E1D281D1A1D0D0A006E616E00696EC6
:064C000066006F766600FD
:00000001FF
