S01E00006C696C5F666973685F74616E6B735F61726475696E6F2E73726563EB
S11300000C9489000C9428200C944F200C942619ED
S11300100C9426190C9426190C94490B0C94172350
S11300200C94B1000C94B1000C94B1000C94B10088
S11300300C94B1000C94B1000C94B1000C94B10078
S11300400C9476200C94B1000C942C1E0C945E1E1F
S11300500C94B1000C94B1000C94B1000C94B10058
S11300600C94B1000C94B1003016301630166F1693
S11300705A166916301630166F165A160A466F75D8
S11300806E64204D61746368696E6720436F6C6FA2
S11300907200005EBCE2613FDD83C29C7E20A3FD52
S11300A01F41009D23BE46DB65F88C11AF32CA5751
S11300B0E9740000000800020100000304070000C6
S11300C0000000000000010204081020408001022A
S11300D00408102001020408102004040404040489
S11300E004040202020202020303030303030000E6
S11300F0000023002600290000000000250028003D
S11301002B0000000000240027002A0039068E1E60
S11301104C0611241FBECFEFD8E0DEBFCDBF12E0E6
S1130120A0E0B1E0EAEAFAE402C005900D92A6323A
S1130130B107D9F724E0A6E2B2E001C01D92A13FC5
S1130140B207E1F710E0C8E8D0E004C02197FE014F
S11301500E94E323C638D107C9F70E94BB1E0C9442
S113016048250C9400006115710579F0FB0101909C
S11301700020E9F73197AF01461B570BDC01ED91E5
S1130180FC910280F381E02D099480E090E00895D1
S1130190EF92FF920F931F93CF93DF93CDB7DEB708
S11301A064970FB6F894DEBF0FBECDBF8EE593E023
S11301B00E9417086AEF70E080E090E00E94E5205A
S11301C041E0BE01635F7F4F8EE593E00E944608E5
S11301D067E0CE010D960E94CD089C89891759F0DD
S11301E060E471E083E394E00E94251F60E070E026
S11301F080E89FEB43C08EE593E00E940B07BE01AD
S1130200635F7F4F8EE593E00E94F80741E064E46A
S11302108EE593E00E94A80768EE73E080E090E02A
S11302200E94E520BE01635F7F4F8EE593E00E944C
S1130230F80740E06EEB8EE593E00E94A8078E017C
S11302400F5F1F4F7E018AE0E80EF11C8EE593E0FC
S11302500E94DC07F80181938F01EE16FF06B1F7C7
S113026069817A81072E000C880B990B0E94CE1BA2
S113027020E030E040E85DE30E947E1C64960FB607
S1130280F894DEBF0FBECDBFDF91CF911F910F91C8
S1130290FF90EF9008950F931F93CF93DF93CBE2DA
S11302A0D3E0188219821A821B8287E390E09D832F
S11302B08C839F838E8380E590E099878887A5EE61
S11302C0B2E01D921D921D921C92139781E490E05E
S11302D015969C938E93149717969C938E931697CA
S11302E08EE690E019969C938E931897EFE9F2E0CE
S11302F0108211821282138281E390E095838483B9
S113030082E390E0978386838AE590E091878087F3
S113031040E050E060E07FE34A875B876C877D873D
S11303201F861E86198A188A1B8A1A8A0AE919E9FD
S113033029E13EE31A960D931D932D933C931D974B
S11303401F961C921E921E9751961C921E925097B5
S113035053961C921E9252974287538764877587DF
S113036017861686118A108A138A128A40E050E092
S113037060E87FE34C8B5D8B6E8B7F8B89E390E031
S1130380998F888F8AE390E09B8F8A8F85E590E030
S11303909D8F8C8F0AE919E929E93EE354960D9360
S11303A01D932D933C93579759961C921E925897E0
S11303B05B961C921E925A975D961C921E925C97B5
S11303C000E010E020E030E4048B158B268B378BA3
S11303D0118E108E138E128E158E148E00E010E086
S11303E020E430E40E8F1F8F28A339A31BA21AA286
S11303F01DA21CA21FA21EA25E964D935D936D9337
S11304007C93919793961C921E92929795961C9228
S11304101E92949797961C921E92969740E050E0F5
S113042060EA70E4468F578F60A371A313A212A2EF
S113043015A214A217A216A240E050E060EC70E4EA
S113044048A759A76AA77BA71DA61CA61FA61EA678
S113045019AA18AA40E050E060EC7FE398964D9307
S11304605D936D937C939B979D961C921E929C9793
S11304709F961C921E929E97D1961C921E92D09784
S113048040E050E060E271E440A751A762A773A77F
S113049015A614A617A616A611AA10AAD2960D93ED
S11304A01D932D933C93D597D7961C921E92D69765
S11304B0D9961C921E92D897DB961C921E92DA97BC
S11304C000E010E020EA31E402AB13AB24AB35AB1F
S11304D017AA16AA11AE10AE13AE12AEDC964D9347
S11304E05D936D937C93DF971092260310922503FE
S11304F0109228031092270310922A0310922903C2
S113050080E090E0A8E4B2E484AF95AFA6AFB7AFC3
S11305101092E0021092DF021092E2021092E102C5
S11305201092E4021092E302DF91CF911F910F9198
S1130530089562E571E083E394E00E94181F6091DE
S11305409602709197024AE050E083E394E00E949F
S1130550EE1F64E571E083E394E00E94181F60914C
S11305609802709199024AE050E083E394E00E947B
S1130570EE1F64E571E083E394E00E94181F60912C
S11305809A0270919B024AE050E083E394E00E9457
S1130590EE1F66E571E083E394E00E94181F4AE0D1
S11305A050E06091900283E394E00E948D1F64E523
S11305B071E083E394E00E94181F4AE050E06091E8
S11305C0910283E394E00E948D1F64E571E083E36C
S11305D094E00E94181F4AE050E060918F0283E388
S11305E094E00E948D1F2091900230E08091960249
S11305F090919702AC01455051092417350774F1C5
S113060005968217930754F12091910230E080916E
S1130610980290919902AC0145505109241735076D
S1130620ECF0059682179307CCF020918F0230E00E
S113063080919A0290919B02AC0145505109241774
S1130640350764F005968217930744F06CE770E071
S113065083E394E00E94F41E81E0089580E008950D
S11306600F931F93CF93DF9380915D03813009F43F
S113067048C040F0823009F06EC005EE12E0C6E0DA
S1130680D0E029C00BE213E0C4E0D0E08AE0F80136
S1130690B896A2E9B2E001900D928A95E1F70E9422
S11306A09902882349F08AE08C9FF0018D9FF00D18
S11306B01124E55DFC4F3EC021970A501109CF3F3C
S11306C08FEFD80719F742C021970A501109CF3F7D
S11306D08FEFD807D9F18AE0F801FC96A2E9B2E0DD
S11306E001900D928A95E1F70E949902882361F3A3
S11306F08AE08C9FF0018D9FF00D1124EB51FD4F8A
S113070019C00FE912E0C6E0D0E08AE0F801FC96D7
S1130710A2E9B2E001900D928A95E1F70E94990254
S1130720882369F08AE08C9FF0018D9FF00D1124DD
S1130730E156FD4F30812181928183810BC0219745
S11307400A501109CF3F8FEFD807F9F630E020E0C7
S113075090E88FEBAC01632F722F852F942FDF91DC
S1130760CF911F910F91089580E692E00E942A187C
S113077080E692E00E9434188823D1F36CE972E099
S113078080E692E00E94601780919D02809391021E
S113079080919C028093900280919E0280938F02AC
S11307A060E671E083E394E00E94251F4AE050E094
S11307B06091900283E394E00E94941F4AE050E029
S11307C06091910283E394E00E94941F4AE050E018
S11307D060918F0283E394E00E94941F0895CF9365
S11307E080E692E00E942A1880E692E00E94341883
S11307F08823D1F36CE972E080E692E00E946017EE
S113080080919D028093910280919C02809390023A
S113081080919E0280938F028AE0E9E2F1E0A2E9EE
S1130820B2E001900D928A95E1F70E949902C82FD7
S113083064E671E083E394E00E94181F6C2F70E07B
S11308404AE050E083E394E00E94F51F68E172E01F
S113085083E394E00E94181F8AE0EFE1F1E0A2E94B
S1130860B2E001900D928A95E1F7C11103C00E9494
S11308709902C82F64E771E083E394E00E94181F93
S11308806C2F70E04AE050E083E394E00E94F51F8F
S113089068E172E083E394E00E94181FCC2351F0D6
S11308A00E943003C1E020E030E040E85FEB0E94AA
S11308B01F1B8111C0E08C2FCF910895CF93DF933C
S11308C000D000D000D0CDB7DEB749835A836B8304
S11308D07C838D839E8369817A818FE00E94842149
S11308E06B817C8180E10E9484216D817E8181E124
S11308F026960FB6F894DEBF0FBECDBFDF91CF9121
S11309000C9484210E94EF10C4E612E064E670E0C7
S11309108091490290914A020E94E30DD82F8130C0
S113092009F08CC0409107015091080160910901C0
S113093070910A0180910B0190910C010E945E0458
S1130940809106018136A1F468EE73E080E090E0C6
S11309500E94E52010925D030E94B403C69F90019B
S1130960C79F300D1124309353022093520258C074
S11309704091190150911A0160911B0170911C0161
S113098080911D0190911E010E945E04D0935D032D
S11309900E94EF038111FCCF409113015091140187
S11309A060911501709116018091170190911801C1
S11309B00E945E046AEF70E080E090E00E94E5200F
S11309C00E94B403C69F9001C79F300D1124309339
S11309D051022093500240915A0250915B0260915F
S11309E05C0270915D0280915E0290915F020E94B0
S11309F05E0410935D030E94EF038111FCCF6AEF44
S1130A0070E080E090E00E94E5200E94B403C69F5D
S1130A109001C79F300D112430934F0220934E0252
S1130A2040915A0250915B0260915C0270915D02A8
S1130A3080915E0290915F020E945E0481E090E0EA
S1130A400E944C1263CFCF93DF9300D0CDB7DEB7B3
S1130A500E94EF109A8389834091130150911401ED
S1130A606091150170911601809117019091180100
S1130A700E945E040E94E50820E030E048EC52E465
S1130A800E947E1C0E94961B60935602709357022C
S1130A9080935802909359026AEF70E080E090E0EE
S1130AA00E94E52040915A0250915B0260915C02E1
S1130AB070915D0280915E0290915F020E945E04DB
S1130AC04091190150911A0160911B0170911C0110
S1130AD080911D0190911E010E945E040E94C80035
S1130AE020E030E048EC52E40E947E1C0E94961BF9
S1130AF0709355026093540264E670E080E090E0E5
S1130B000E94E52040915A0250915B0260915C0280
S1130B1070915D0280915E0290915F020E945E047A
S1130B2061E772E0CE0101960E94141295CF61E054
S1130B308FE00E940C2261E080E10E940C2261E0BF
S1130B4081E10E940C2240915A0250915B02609113
S1130B505C0270915D0280915E0290915F020C9440
S1130B605E04EF92FF920F9340E052EC61E070E07C
S1130B7086E292E00E94241A61E08AE00E940C223C
S1130B8026E040E052EC61E070E083E394E00E94F0
S1130B90C71D61E08AE00E94482280E692E00E943C
S1130BA035170E944B010E94970540910D01509109
S1130BB00E0160910F0170911001809111019091CB
S1130BC012010E945E0443E050E064E576E080E0B8
S1130BD00E9408208091490290914A02892B91F445
S1130BE043E060E081E00E94410C90934A028093CC
S1130BF04902009739F020E040E050E060E070E006
S1130C000E94690C87E4E82E82E0F82E02E020E0DE
S1130C1030E040E850E06FE871E082E894E00E9440
S1130C20660F95E4E92E92E0F92E20E030E040E8EA
S1130C3050E06BE971E083E295E00E94660F68EE94
S1130C4073E080E090E00E94E52040915A025091C8
S1130C505B0260915C0270915D0280915E029091F2
S1130C605F020E945E040F91FF90EF900C94BB1002
S1130C70089566E08EE593E00E94230828E04DE0A5
S1130C806CE080E692E00E94C31620E043E062E05C
S1130C9086E292E00C94F91986E292E00E94A0198F
S1130CA080E692E00C94D716CF9386E292E00E94FD
S1130CB0CF18892B99F064E670E080E090E00E9400
S1130CC0E520C0E086E292E00E94CF18892B39F03B
S1130CD086E292E00E944518C82FF4CFC0E08091CC
S1130CE04D02882369F080914B0290914C02019649
S1130CF08A30910529F510924C0210924B0208C0DB
S1130D00CE36A9F0C03721F0C13609F082C01CC02C
S1130D1081E68093060181E080934D0260E070E0FB
S1130D208091490290914A02CF910C942E0DC09368
S1130D3006018091470290914802CF910C94721061
S1130D4090934C0280934B026CEA71E086E292E04D
S1130D500E94251F40910D0150910E0160910F01D9
S1130D607091100180911101909112010E945E0412
S1130D706EEB71E086E292E00E94B300609156024D
S1130D8086E292E00E94661862EC71E086E292E0EC
S1130D900E94B3006091540286E292E00E946618B9
S1130DA068EC71E086E292E00E94B3006091520226
S1130DB086E292E00E94661861ED71E086E292E0BC
S1130DC00E94B30060914E0286E292E00E9466188F
S1130DD06AED71E086E292E00E94B30060915002F5
S1130DE086E292E00E94661868EC70E080E090E091
S1130DF00E94E52040915A0250915B0260915C028E
S1130E0070915D0280915E0290915F02CF910C948B
S1130E105E04CF910895FF920F931F93CF93DF93B6
S1130E20FC01F080C181D281F89489810F2D009555
S1130E308023898378941DE7115029F182E090E0A2
S1130E400E94212188818F21B9F3F8948A8180231B
S1130E508A8389818F298983789480EE91E00E9426
S1130E602121F89489810823098386E490E00E9473
S1130E7021218881F82211E009F010E078948AE9B0
S1130E8091E00E942121812FDF91CF911F910F9139
S1130E90FF9008951F93CF93DF93FC011081C181CC
S1130EA0D281812F809560FF12C0F8949A818923A2
S1130EB08A838981812B89838AE090E00E942121A1
S1130EC08A81182B1A83789487E390E011C0F894F0
S1130ED09A8189238A838981812B898381E490E0A3
S1130EE00E9421218A81182B1A83789485E090E04E
S1130EF0DF91CF911F910C9421210F931F93CF93D6
S1130F00DF93FC010081C181D281F8948981802B17
S1130F1089838A81102F109581238A8383E090E04E
S1130F200E9421218981182319838AE090E00E947C
S1130F302121C881789485E390E00E942121C02377
S1130F4081E009F480E0DF91CF911F910F91089522
S1130F50DF92EF92FF920F931F93CF93DF93EC01F5
S1130F60D62EE42E08E010E0FF24F39461E08D2DEA
S1130F708F2109F460E0CE010E944A07FF0C015062
S1130F801109A1F7E11010C0F894E981FA81918167
S1130F908881809589238183E981FA81928188817E
S1130FA08095892382837894DF91CF911F910F914B
S1130FB0FF90EF90DF900895EF92FF920F931F93AD
S1130FC0CF93DF937C0108E010E0C0E0D1E0C701DB
S1130FD00E947D078111CD2BDD0F01501109B9F756
S1130FE08C2FDF91CF911F910F91FF90EF90089577
S1130FF0EF92FF920F931F93CF93DF938C017B01AA
S113100040E065E50E94A807E70188E0E80EF11CCE
S1131010699140E0C8010E94A807CE15DF05C1F719
S1131020DF91CF911F910F91FF90EF900895FC01F4
S1131030138615861486DC011B9633961E92AE1712
S1131040BF07E1F708951F93CF93DF93EC01162FA9
S113105060E0812F0E940C22612F70E0FB01EA53B3
S1131060FF4FE491E883FB01E652FF4FE491F0E087
S1131070EE0FFF1FE251FF4F859194919A8389836C
S1131080CE01DF91CF911F910C941708BF92CF929C
S1131090DF92EF92FF920F931F93CF93DF93EC01B4
S11310A06B01142F8D85811105C0CE010E940B07A1
S11310B0811105C01B861D861C8680E064C040E04B
S11310C0112311F060EF01C06CEECE010E94A8075D
S11310D001E0E12CB12C11E0CE010E947D07F82E35
S11310E0CE010E947D0791E0F91203C08130B1F472
S11310F034C02E2D30E0F8121BC08B85181738F43D
S1131100FE01E20FF31F8381802341F402C018170C
S113111029F0F12C193058F41C8709C0FE01EE0D9A
S1131120F11D8381802B8383FF24F39409C0B12EA6
S1131130FE01E20FF31F9381802F8095892383831F
S11311406F2DCE010E944A071F5F000F11F4E39434
S113115001E087E08E1508F0BFCF113408F4AACF60
S1131160BB86B11002C081E08D878B81882309F48E
S1131170A1CFDE011396F6012B968D918193CA17A8
S1131180DB07D9F781E0DF91CF911F910F91FF9099
S1131190EF90DF90CF90BF900895DC0180E0615024
S11311A098F02D91982F9227E92FEF70F0E0EE56EA
S11311B0FF4F249192959F70E92FF0E0EE55FF4F79
S11311C0E491822F8E27EBCF08958F929F92AF9256
S11311D0BF92CF92DF92EF92FF92CF93DF938EE094
S11311E00E946721EC018090370190903801A09013
S11311F03901B0903A01209133013091340140918A
S1131200350150913601C501B4010E94B21A9B0107
S1131210AC0160E070E080E490E40E94241B6B0168
S11312207C019B01AC01C501B4010E947E1C9B01A1
S1131230AC0160E070E080EE90E40E94B21A4B01D1
S11312405C01BE01DD0F880B990B0E94CE1BA70128
S113125096010E947E1C9B01AC01C501B4010E9451
S1131260B31ADF91CF91FF90EF90DF90CF90BF90B2
S1131270AF909F908F900895CF93DF93EC010E94DD
S1131280E910CE010E941724EC010E94A5112097B9
S113129011F40E948216CE01DF91CF910895CF936D
S11312A0DF93009751F0EC010E94E910CE010E94F7
S11312B0AF24DF91CF910C94A511DF91CF910895C4
S11312C0FC010396928381832FEF3FEF34832383C2
S11312D0968385839087878310820895FC01118605
S11312E010860895CF93DF939C01FB01DC011196D6
S11312F0CD91DC911297D383C2838C819D81958398
S113130084838C819D81DC0113967C936E93129768
S11313107D836C8331872087F90180818F5F80838F
S1131320DF91CF9108950F931F93CF93DF938C0197
S1131330FB01808191818F3F2FEF920721F4E80117
S1131340AF81B8850EC0D801139612962D913C91A9
S11313501397E901488159818417950710F0D90141
S1131360F4CF12968D919C91139793838283EC0111
S1131370FD83EC83B583A4831396FC93EE931297B9
S113138011870087F80180818F5F8083DF91CF917F
S11313901F910F910895CF93DF93FC01A085B18530
S11313A08281938124813581EC013D832C83C48126
S11313B0D5819B838A8311968D919C911297E8170E
S11313C0F90721F41296DC93CE93119711861086B7
S11313D08C9181508C938C91DF91CF91089531E160
S11313E0FC013083319722E220833197A3E3A08369
S11313F0319760833197708331971082319760E819
S1131400608331971082319762E06083319763E0A3
S11314106083319764E06083319765E0608331973E
S113142066E06083319767E06083319768E06083AA
S1131430319769E06083319760E16083319730834D
S1131440319732E13083319733E13083319734E19E
S11314503083319735E13083319736E130833197EA
S113146037E13083319738E13083319739E1308384
S1131470319730E23083319731E2308331972083E2
S1131480319723E2208331974083319750833197FA
S113149026E22083319727E22083319728E22083B4
S11314A0319729E22083319720E32083319721E388
S11314B0208386970895A89590EC88E10FB6F89458
S11314C0A895809360000FBE90936000A091D00314
S11314D0B091D103CD91CDBFDD91DEBFFF91EF91EE
S11314E0DF91CF91BF91AF919F918F917F916F9138
S11314F05F914F913F912F911F910F91FF90EF902A
S1131500DF90CF90BF90AF909F908F907F906F901F
S11315105F904F903F902F901F900F900FBE0F90B1
S1131520089581E008950F920FB6F8940F921F92D8
S113153011242F923F924F925F926F927F928F92DB
S11315409F92AF92BF92CF92DF92EF92FF920F934E
S11315501F932F933F934F935F936F937F938F9337
S11315609F93AF93BF93CF93DF93EF93FF93A09198
S1131570D003B091D1030DB60D920EB60D920E9418
S11315806112A091D003B091D103CD91CDBFDD9173
S1131590DEBFFF91EF91DF91CF91BF91AF919F910A
S11315A08F917F916F915F914F913F912F911F91F7
S11315B00F91FF90EF90DF90CF90BF90AF909F90EE
S11315C08F907F906F905F904F903F902F901F90DF
S11315D00F900FBE0F9008950F920FB6F8940F92CC
S11315E01F9211242F923F924F925F926F927F929B
S11315F08F929F92AF92BF92CF92DF92EF92FF921F
S11316000F931F932F933F934F935F936F937F9306
S11316108F939F93AF93BF93CF93DF93EF93FF93F6
S1131620A091D003B091D1030DB60D920EB60D92D8
S113163013BE0E94F91081110E946112A091D0037F
S1131640B091D103CD91CDBFDD91DEBFFF91EF917C
S1131650DF91CF91BF91AF919F918F917F916F91C6
S11316605F914F913F912F911F910F91FF90EF90B8
S1131670DF90CF90BF90AF909F908F907F906F90AE
S11316805F904F903F902F901F900F900FBE0F9040
S113169008950E94EC0A18950FB6F8940F92FC0175
S11316A0928D0F900FBE81E0911180E008950F9309
S11316B01F93CF93DF93EC01042F1A8D4C8D4111AE
S11316C00BC088819981892BE9F58C819D810E94C9
S11316D0DB131D821C8237C050E0011115C08A81C2
S11316E09B810E9438252C8D8A819B81820F911DBC
S11316F09B838A832C813D818217930718F188810B
S113170099819B838A831EC08E819F810E94382584
S11317108C8D90E09195819591092E813F81280FC0
S1131720391F3F832E83488159812417350730F4AC
S11317302C813D81820F931F9F838E83023011F48D
S11317401111115080E01F5F1A8FDF91CF911F910B
S11317500F910895FC01CB01448D4423A1F050E086
S113176026813781240F351F378326836481758151
S11317702617370720F0208131813783268366813D
S113178077810C9438250895EF92FF921F93CF939D
S1131790DF93EC010FB6F8940F921E8D7C0181E16A
S11317A0E80EF11C11165CF48989882341F0C70105
S11317B00E94E81281110E9466131150F3CF8FEF3B
S11317C08E8F0F900FBE0FB6F8940F921D8D7E0171
S11317D088E0E80EF11C11165CF48885882341F03A
S11317E0C7010E94E81281110E9466131150F3CFC1
S11317F08FEF8D8F0F900FBEDF91CF911F91FF90D0
S1131800EF900895CF93DF93EC010FB6F8940F9205
S1131810488159818B8D7C8D9A01879F200D311DC4
S113182011243D832C831A8E5B834A8390E00197B5
S1131830789F9001799F300D1124CA01820F931F64
S11318409F838E838FEF8D8F8E8F61110CC088855F
S1131850882389F0CE0108960E94E812882359F063
S11318600E94930A08C0CE0108960E946009CE0126
S113187041960E9460090F900FBE81E0DF91CF91E5
S113188008950F931F93CF93DF93082F162F66238A
S113189021F0869FC001112402C080E090E04F96A1
S11318A00E943C09EC01009771F0111103C0998367
S11318B0888303C04F96998388830B8F1C8F61E0C4
S11318C0CE010E94020CCE01DF91CF911F910F91A6
S11318D00895AF92BF92CF92DF92FF920F931F931E
S11318E0CF93DF9300D000D01F92CDB7DEB78C0129
S11318F06B015D834C83F22E80E0580198E0A90EC1
S1131900B11C0FB6F8940F92F801228D938D29170C
S113191018F0F2E0FF1214C04F2DB601C8010E9466
S1131920570BF8019189992321F0C80141960E942F
S1131930E81281110E94930A0F900FBE81E050C0FB
S11319402C813D81232B19F40F900FBE48C08111C7
S113195004C0CE0101960E9428130F900FBE0E946E
S1131960E9100FB6F8940F92F801858D8F3F09F4B2
S1131970158EF801868D8F3F09F4168E0F900FBED9
S1131980BE016C5F7F4FCE0101960E94331381111B
S113199021C00FB6F8940F92F801928D838D0F90A9
S11319A00FBE981311C06C817D81C5010E94BF12C6
S11319B0C8010E94C40B0E94A511882311F081E084
S11319C0A0CF0E94930AFBCFC8010E94C40B0E94BF
S11319D0A511F5CFC8010E94C40B0E94A51180E097
S11319E00F900F900F900F900F90DF91CF911F9158
S11319F00F91FF90DF90CF90BF90AF900895EF923A
S1131A00FF921F93CF93DF93EC019A8D8B8D9817E0
S1131A1010F02230E1F47A011E8D422FCE010E9493
S1131A20570B1F3F81F48989882379F0CE014196B1
S1131A300E94E812882349F0E114F10431F081E0B6
S1131A40F701808305C01F5F1E8F81E001C080E025
S1131A50DF91CF911F91FF90EF900895CF93DF9383
S1131A60FC01928D838D9817C0F4868D9F5F928FB1
S1131A708F3F79F48189882371F0EB01CF0141967E
S1131A800E94E812882339F0209729F081E08883A6
S1131A9005C08F5F868F81E001C080E0DF91CF9128
S1131AA00895AF92BF92CF92DF92FF920F931F934C
S1131AB0CF93DF9300D000D01F92CDB7DEB78C0157
S1131AC06B015D834C8380E0580191E1A90EB11C48
S1131AD00FB6F8940F92F801F28CFF20A9F0B6012A
S1131AE0C8010E94AA0BFA94F801F28E808588231B
S1131AF039F0C80108960E94E81281110E94930AE5
S1131B000F900FBE81E050C02C813D81232B19F42E
S1131B100F900FBE48C0811104C0CE0101960E94EF
S1131B2028130F900FBE0E94E9100FB6F8940F927D
S1131B30F801858D8F3F09F4158EF801868D8F3F4E
S1131B4009F4168E0F900FBEBE016C5F7F4FCE015D
S1131B5001960E94331381111CC0C8010E944C0BD2
S1131B60882389F06C817D81C5010E94BF12C80160
S1131B700E94C40B0E94A511882311F081E0A8CF14
S1131B800E94930AFBCFC8010E94C40B0E94A511B6
S1131B90F5CFC8010E94C40B0E94A511C8010E9480
S1131BA04C0B882359F380E00F900F900F900F9007
S1131BB00F90DF91CF911F910F91FF90DF90CF9005
S1131BC0BF90AF900895CF92DF92FF920F931F932F
S1131BD0CF93DF9300D000D01F92CDB7DEB78C0136
S1131BE07D836C83F12C90E0680181E1C80ED11CE7
S1131BF00FB6F8940F92D8015A968C915A9788236D
S1131C00E9F081505A968C935A978D919C91892B27
S1131C1029F40E945C14F80195838483D8011896F2
S1131C208C91882339F0C80108960E94E81281112A
S1131C300E94930A0F900FBE81E07AC02C813D81EF
S1131C40232B09F472C0911104C0CE0101960E94A5
S1131C5028130F900FBE0E94E9100FB6F8940F924C
S1131C60F801858D8F3F09F4158ED8015E968C910D
S1131C705E978F3F11F45E961C920F900FBEBE01CB
S1131C806C5F7F4FCE0101960E94331381112BC0EC
S1131C90C8010E944C0B882301F1F80180819181D5
S1131CA0892B51F40FB6F8940F92848195810E9488
S1131CB07813F82E0F900FBE6C817D81C6010E94AF
S1131CC0BF12C8010E94C40B0E94A511882311F001
S1131CD091E08ECF0E94930AFBCFC8010E94C40BEF
S1131CE00E94A511F5CFC8010E94C40B0E94A51142
S1131CF0C8010E944C0B882359F3FF20C1F00FB692
S1131D00F8940F92F8018189882339F00688F789BD
S1131D10E02D808164E0681B01C060E0D801149666
S1131D208D919C9115970E9415140F900FBE80E021
S1131D300F900F900F900F900F90DF91CF911F9104
S1131D400F91FF90DF90CF900895CF93DF93EC0134
S1131D500FB6F8940F928D8D8F3F09F41D8E8E8DE2
S1131D608F3F09F41E8E0F900FBE8A8D811104C01F
S1131D70CE0141960E94D012CE01DF91CF910C94F6
S1131D80C40BE0919803F09199038081811103C001
S1131D908FEF9FEF0CC0E0919803F09199030580B9
S1131DA0F681E02D0680F781E02D82819381909366
S1131DB0700380936F030895FF920F931F93CF9343
S1131DC0DF93EC01F62E0091770310917803809154
S1131DD0D0039091D10302960E94CB09CF3F8FEF9D
S1131DE0D80789F4FF2079F06091D0037091D10372
S1131DF06E5F7F4F8AE793E0DF91CF911F910F9140
S1131E00FF900C947209C00FD11FE091D003F091A0
S1131E10D103D383C2836091D0037091D103C017DF
S1131E20D10768F480919603909197036E5F7F4F7A
S1131E30DF91CF911F910F91FF900C9493098091A2
S1131E409803909199036E5F7F4F0E94930980914C
S1131E506F0390917003C817D90720F4D0937003CF
S1131E60C0936F03DF91CF911F910F91FF9008955D
S1131E7080918303882309F10FB6F8940F92E091BF
S1131E808903F0918A03C681D781CE0102960E940C
S1131E90CB098091790381508093790380918303E6
S1131EA08150809383030F900FBE8F89988D0E9479
S1131EB04F09CE010E944F09DBCF8091AC038230E1
S1131EC010F00E94930A0E947916D2CF5F926F920B
S1131ED07F928F929F92AF92BF92CF92DF92EF92B6
S1131EE0FF920F931F93CF93DF933C016B015A0131
S1131EF04901502ECA010E943C098C01892B09F426
S1131F00E0C088E290E00E943C09EC01892BC9F012
S1131F10188F0F8BA50165EA70E0C8010E94412566
S1131F2021E0A21AB1088F89988DA80EB91EC11498
S1131F30D104C9F0BE01675E7F4FF601C601089661
S1131F4007C0C8010E944F09BCC0E817F90749F04F
S1131F509F014191DB014D93BD01D9012C912111C8
S1131F60F4CF18A201C0198E052D043008F003E047
S1131F700E8B09A31AA26E01B2E0CB0ED11CC601CE
S1131F800E946E09CE010C960E946E09D987C887FB
S1131F9084E090E0801B91099D878C87DB8BCA8B42
S1131FA01BA21CA21DA21EA21FA2A401B301C50153
S1131FB00E94EF0999838883E114F10419F0F70171
S1131FC0D183C0830FB6F8940F92809179038F5F09
S1131FD0809379038091D0039091D103892BD1F51B
S1131FE0D093D103C093D00380917903813009F059
S1131FF041C08CEA93E00E94600985EB93E00E9463
S113200060098EEB93E00E94600987EC93E00E94E4
S1132010600983EA93E00E9460098AE993E00E94E0
S113202060098DE893E00E94600984E893E00E94CF
S113203060098AE793E00E94600983EA93E0909341
S11320409903809398038AE993E09093970380938C
S1132050960310C08091750381110CC0E091D003E8
S1132060F091D10396898E89891720F0D093D103FA
S1132070C093D003809171038F5F809371038E8925
S113208090917603981710F480937603F9E08F9F6C
S1132090C0011124B60184559C4F0E9472090F900F
S11320A00FBE80917503882351F0E091D003F09125
S11320B0D10396898E89981710F40E94930A81E0BF
S11320C001C08FEFDF91CF911F910F91FF90EF909F
S11320D0DF90CF90BF90AF909F908F907F906F9044
S11320E05F9008950F931F93CF93DF932091D003B4
S11320F03091D1038217930709F438C0009709F48B
S113210035C00FB6F8940F92FC01228533852A5707
S1132110334051F5FC0124893589F3E02D383F071C
S113212019F1232B09F5EC018C010E5F1F4FC80137
S11321300E94CB098E8990917603981710F48093AE
S1132140760329E0829FC0011124B80184559C4F75
S11321500E947209E091D003F091D1039E8986898F
S1132160981710F00E94930A0F900FBEDF91CF9141
S11321701F910F910895EF92FF920F938DE6E82E31
S113218083E0F82E00E020E030E040EC50E063EE25
S113219071E088E39FE00E94660F8130B1F40E94F1
S11321A0C114813091F4F8942FEF3FEF3093700312
S11321B020936F0380937503109278031092770332
S11321C00F91FF90EF900C945B0A0F91FF90EF90AA
S11321D0089580916C038F5F80936C0308950FB60C
S11321E0F8940F9280917703909178030F900FBE2B
S11321F00895CF92DF92EF92FF920F931F93CF93A4
S1132200DF9380916C0381118CC00091770310914E
S113221078030F5F1F4F1093780300937703011522
S11322201105B9F480919803909199032091960334
S113223030919703309399032093980390939703D5
S113224080939603809172038F5F809372030E9440
S1132250C10E80916F0390917003C0E008171907B5
S113226008F44FC0D9E0E0919803F091990380817C
S1132270811103C08FEF9FEF11C0E0919803F0919B
S113228099030580F681E02DE680F780D701129648
S11322908D919C9113970817190728F49093700354
S11322A080936F032EC06701B2E0CB0ED11CC60130
S11322B00E94CB09F70184899589892B21F0C701F4
S11322C00C960E94CB09D70156968C919091760377
S11322D0981710F480937603D89FC0011124B60197
S11322E084559C4F0E947209E091D003F091D10370
S11322F0D70156969C918689981708F4B4CFC1E00B
S1132300B2CFE091D003F091D103E689B9E0EB9F1D
S1132310F0011124E455FC4F8081823040F0C1E08B
S113232006C0809174038F5F80937403C0E0809132
S113233073038111C1E08C2FDF91CF911F910F9115
S1132340FF90EF90DF90CF900895EF92FF920F935C
S11323501F93CF93DF930FB6F8940F9280916C0381
S1132360815080936C0380916C03882311F080E08A
S113237052C0809179038823D1F3C0E0D0E089E092
S1132380F82EEE24E39480918D03882351F1E0919B
S11323909203F0919303C681D781CE010C960E94DB
S11323A0CB098E010E5F1F4FC8010E94CB098E8995
S11323B090917603981710F480937603F89EC001E9
S11323C01124B80184559C4F0E947209E091D003F6
S11323D0F091D1039E8986899817A8F2E09273033D
S11323E0D2CFCD2B11F00E94C10EC0917403CC2327
S11323F051F0D1E00E94F9108111D0937303C150C0
S1132400C9F71092740380917303882309F4AFCF42
S11324100E94930A81E00F900FBEDF91CF911F912C
S11324200F91FF90EF9008950F931F93CF93DF9335
S11324308C01EB010E94E9104091770350917803DD
S1132440F80120813181C9018C0F9D1F4217530768
S113245020F48217930740F403C08217930730F0E7
S113246021E04817590718F020E001C021E0F801E5
S113247091838083222329F060E0841B950B0E94C2
S1132480DC0E0E94A511811102C00E94930ADF9103
S1132490CF911F910F910895CF93DF93EC01892B76
S11324A019F40E94930A0AC00E94E91060E0CE0168
S11324B00E94DC0E0E94A511882399F3DF91CF912D
S11324C0089580916C03882321F081E08093730345
S11324D0089510927303A091D003B091D103E091B9
S11324E0D003F091D1032D913C918789908D82176F
S11324F0930760F06091D0037091D1038091D00371
S11325009091D103675E7F4F0E948F16809176036E
S113251069E0482F50E0649F9001659F300D1124BD
S1132520F901E455FC4F9081911102C08150F1CF23
S1132530A181B28112960D90BC91A02DB283A1838A
S113254021553C4FA217B30731F412962D913C91BB
S113255013973283218399E0949FF001959FF00DA6
S11325601124E455FC4F0180F281E02D268137814E
S11325703093D1032093D003809376030895CF93AF
S1132580DF93EB016091D0037091D103645F7F4FBF
S11325900E94930961E0CE01DF91CF910C94DC0E8F
S11325A01F93CF93DF93EB01142F6091D0037091AD
S11325B0D103645F7F4F0E947209112311F0CFEFA2
S11325C0DFEF612FCE01DF91CF911F910C94DC0ED0
S11325D00F931F93CF93DF93DC011596ED91FC913C
S11325E01697C681D7818E01045F1F4FC8010E94D0
S11325F0CB0980916C03811114C00A501109C801E0
S11326000E94CB098E8990917603981710F48093D9
S11326107603B9E08B9FC0011124B80184559C4F07
S113262003C0B8018DE893E00E947209E091D003E1
S1132630F091D1039E898689891720F481E08093E3
S1132640730301C080E0DF91CF911F910F91089532
S113265020917203FC012083209177033091780349
S1132660328321830895CF93DF930FB6F8940F92AA
S11326704091770350917803DB012D913C912F3FDA
S1132680BFEF3B07D9F0EC01E981FA81A091720315
S1132690B881BA1719F04E175F0790F44E1B5F0B01
S11326A0FB014217530738F4241B350B3183208375
S11326B00E94281303C01182108202C080E001C06E
S11326C081E00F900FBEDF91CF91089581E0809358
S11326D07303089580917503882331F080916C030E
S11326E0882321F080E0089581E0089582E0089530
S11326F00F931F93CF93DF93FC01892B09F455C0EB
S11327008689A091D003B091D10356969C918917E4
S113271008F041C02485358537FD0CC0A091D00355
S1132720B091D10356969C9124E030E0291B3109E5
S11327303587248729E0829FC001112484559C4F4A
S11327402285338528173907E9F48F01EF01229692
S1132750CE010E94CB09E091D003F091D103868988
S1132760F801868B90917603981710F48093760382
S1132770F9E08F9FC0011124BE0184559C4F0E9433
S1132780720907C0A091D003B091D10356968C91E1
S1132790868B81E00BC0A091D003B091D10381E07E
S11327A021A156969C91291708F080E0DF91CF91E2
S11327B01F910F9108950F931F93CF93DF93FC0103
S11327C0892B11F480E02CC082A1815082A3268938
S11327D091A12917B9F38111F5CFEF018F010E5F94
S11327E01F4FC8010E94CB0989A18E8B482F50E04E
S11327F024E030E0241B350B3D872C879091760331
S1132800981710F48093760329E0249FC001259F34
S1132810900D1124B80184559C4F0E94720981E0E7
S1132820DF91CF911F910F9108950F931F93CF9331
S1132830DF93FC01892BD9F191A1961708F4962F07
S113284086898917A1F122A1213089F5968B2485E7
S1132850358537FD06C024E030E0291B3109358772
S1132860248729E0829FC001112484559C4F22852E
S1132870338528173907D9F4EF018F010E5F1F4FF5
S1132880C8010E94CB098E8990917603981710F4A1
S11328908093760329E0829FC0011124B8018455F6
S11328A09C4FDF91CF911F910F910C947209DF918E
S11328B0CF911F910F9108958091D0039091D103EE
S11328C0892B39F0E091D003F091D10382A18F5F7D
S11328D082A38091D0039091D10308950FB6F89408
S11328E00F928091D6039091D703892BE9F485EE5A
S11328F093E00E9460098CED93E00E94600985EEEC
S113290093E09093DB038093DA038CED93E0909350
S1132910D9038093D80340E065E08AE00E94410C2B
S11329209093D7038093D6030F900FBE0895FC01B4
S113293073836283918780874617570778F0421B19
S1132940530B8485958548175907C8F4BF016E5FFA
S11329507F4F8091D8039091D9030DC0421753073C
S113296018F46217730758F4BF016E5F7F4F8091AC
S1132970DA039091DB030E94930980E0089581E0DB
S11329800895EF92FF920F930E946E148091D603E4
S11329909091D703892B81F084EDE82E83E0F82E03
S11329A003E020E030E045E550E068EE71E081E7C7
S11329B095E10E94660F01C080E00F91FF90EF90B7
S11329C008950F931F93CF93DF9300D000D01F92ED
S11329D0CDB7DEB7A091D603B091D703109729F1F4
S11329E0F90169835B834A839D838C836630A4F4F5
S11329F00E946A13E091D603F091D70320E082305D
S1132A0011F4A80102C040E050E0BE016F5F7F4FA7
S1132A10CF010E94690C0AC020E0AF01BE016F5FC4
S1132A207F4FCD010E94FF0C01C080E00F900F90FA
S1132A300F900F900F90DF91CF911F910F910895F8
S1132A40EF92FF920F931F93CF93DF93E091DA03FA
S1132A50F091DB038081882389F10580F681E02DE4
S1132A60E080F180C681D7818E010E5F1F4FC801BF
S1132A700E94CB09E889F989CE0109958A8982FFE8
S1132A80E5CF8C859D858E0D9F1DE816F90660F4B3
S1132A909B838A83D987C887B8018091DA03909190
S1132AA0DB030E949309D2CF00E010E020E030E085
S1132AB0A70160E0CE010E94E114C8CF8091D80341
S1132AC09091D9039093DB038093DA03F093D903B5
S1132AD0E093D803DF91CF911F910F91FF90EF9076
S1132AE00895CF93DF9300D000D01F92CDB7DEB707
S1132AF0E091DA03F091DB03D080DD2031F0058032
S1132B00F681E02DE080F18002C0E12CF12C0E94DE
S1132B10E9100E94EF108C018091D2039091D303AD
S1132B200817190720F40E94201581E001C080E0F5
S1132B301093D3030093D203811155C0DD20D9F142
S1132B400E151F0508F43EC00E94A511E091DA039A
S1132B50F091DB030580F681E02DC680D780C601A5
S1132B6002960E94CB09D60152968C91529782FF0D
S1132B7017C01C966D917C911D976E0D7F1D97015A
S1132B80A801C6010E949714882369F000E010E0B0
S1132B9020E030E0A70160E0C6010E94E11403C018
S1132BA08E7FF601828BD6015096ED91FC91519760
S1132BB0C60109951EC0E091D803F091D903808124
S1132BC041E0811140E0B701601B710B8091D60395
S1132BD09091D7030E94A50E0E94A511811109C0EE
S1132BE00E94930A06C00E94A51103C0898187FF31
S1132BF00EC040E050E0BE016F5F7F4F8091D6036E
S1132C009091D7030E94510D8111F0CF71CFEC80C8
S1132C10FD80F70182859385892B21F0C7010296F7
S1132C200E94CB090E94EF106C018091D203909115
S1132C30D303C816D90610F40E942015D092D303EA
S1132C40C092D203E9810E2E000CFF0BEA30F1058D
S1132C5080F6EC5CFF4FD70152968C910C94E323E1
S1132C608160F701828B2A813B8164857585620FBF
S1132C70731FA601C7010E949714882309F4B9CFD2
S1132C80D7015096ED91FC915197C7010995F70131
S1132C90828982FFAECF4A815B8184859585480F06
S1132CA0591F00E010E020E030E060E0C7010E941E
S1132CB0E1149FCF8160F701828B6A817B817587E4
S1132CC064876C0D7D1D9601A601C7010E949714AF
S1132CD090CF81FD04C0C7010E944F098ACF8E7F27
S1132CE0D70152968C9385CF0E94B1050E94BB10E8
S1132CF008950E94380688E29DE1892B11F00C9416
S1132D00281D0895259A2D9A2FEF80E792E02150EF
S1132D1080409040E1F700C000001D9AF5CF259A4D
S1132D202D9A2FEF87EA91E6215080409040E1F7F9
S1132D3000C000001D9AF5CF0F931F93FC018FEF85
S1132D40808381838283838384838AE0858316825C
S1132D50DF011796739600E717E120E030E048EDB5
S1132D6056ED60E070E00D931D932D933D931896FE
S1132D704D935D936D937C931B97AE17BF0799F7A3
S1132D801F910F910895FF920F931F93CF93DF9399
S1132D90EC01F62E042F122F0E949C16FB820C834A
S1132DA01883DF91CF911F910F91FF90089508959B
S1132DB0CF93DF93EC018B818F3FE9F09C819F3FA0
S1132DC0D1F0613049F030F0623041F0633099F471
S1132DD061E009C060E007C061E001C060E00E94FA
S1132DE0482261E003C00E94482260E08C81DF91A8
S1132DF0CF910C944822DF91CF910895CF93DF9324
S1132E00EC0189818F3FE9F09A819F3FD1F06130D5
S1132E1049F030F0623041F0633099F460E009C069
S1132E2061E003C061E005C060E00E94482261E007
S1132E3003C00E94482260E08A81DF91CF910C9404
S1132E404822DF91CF910895FC0120812F3F29F082
S1132E5091E06927822F0C944822662319F0FC0123
S1132E60668101C063E00C94FE16CF93DF93EC01FE
S1132E7089818F3F19F061E00E940C228A818F3F83
S1132E8019F061E00E940C228B818F3F19F061E000
S1132E900E940C228C818F3F19F061E00E940C2269
S1132EA088818F3F19F061E00E940C2260E0CE011E
S1132EB00E9424176E81CE01DF91CF910C94FE16EF
S1132EC0DC01FB01309759F09B968C919B97808392
S1132ED09C968C919C9781839D968C918283089576
S1132EE04F925F926F927F928F929F92AF92BF9216
S1132EF0DF92EF92FF920F931F93CF93DF938C0196
S1132F00095F1F4FEC017C0183E1E80EF11CDD2415
S1132F10DA94F801D8018D909D90AD90BD908D010B
S1132F20808D918DA28DB38D9C01AD012819390935
S1132F304A095B09AFEFB0E00E94E923F80140843D
S1132F40518462847384A3019201281939094A09BE
S1132F505B090E94C42357FF02C01BA609C02F3F70
S1132F6031054105510519F014F0DBA601C02BA76A
S1132F7021960E151F0569F6DF91CF911F910F91D0
S1132F80FF90EF90DF90BF90AF909F908F907F90D5
S1132F906F905F904F9008950F931F93CF93DF939B
S1132FA08C01C62F613049F018F06230D9F04CC062
S1132FB01092EE0361E00E942417E091EE03F0E02A
S1132FC0E051FE4F6081C8010E94D816F801658166
S1132FD070E088EE93E00E948E23CB010E9477225A
S1132FE0C2E032C00E94EF22882371F1E091EE0327
S1132FF081E08E0F8093EE03F0E0E051FE4FC0813C
S1133000D0E00E94F2229B01AC01CC0FDD1FCC0F5B
S1133010DD1FC00FD11FF801A581B0E00E94E92394
S11330206F8F78A389A39AA38091EE03833058F01D
S11330300E94002360E0C8010E942417C8010E9476
S11330407017C0E001C0C1E08C2FDF91CF911F91B8
S11330500F910895CF93DF93EC0160E00E94CC17A9
S11330608EA7DF91CF910895CF93DF93EC016EA5E6
S11330700E94CC17982F8EA781E0911180E0DF91F8
S1133080CF91089580E090E008952091310430912B
S1133090320428173907B9F49091EF038091F003B3
S11330A0981789F0E091EF03F0E0EF50FC4F808136
S11330B02091EF0330E02F5F3F4F2F73332720938E
S11330C0EF0390E008958FEF9FEF08951F93CF9340
S11330D0DF93DC015C968D919C915D97009739F4A8
S11330E021E030E013963C932E9312973BC0519607
S11330F0ED91FC91529750962C915097322F309528
S11331001FB75E964C915E97742F727041FD609567
S1133110F8944081772311F0422B01C0432340836C
S1133120EC012197F1F748E0508160FF02C0522B77
S113313001C053235083EC012197F1F76695415068
S113314099F78081772319F08323808302C0282B89
S113315020831FBF5C968D919C915D970197F1F739
S113316081E090E0DF91CF911F910895089520911F
S11331703104309132042817390771F49091EF0328
S11331808091F003981741F0E091EF03F0E0EF50E5
S1133190FC4F808190E008958FEF9FEF0895209178
S11331A03104309132042817390771F48091F00307
S11331B02091EF0390E0805C9F4F821B910960E4B3
S11331C070E00E948E23089580E090E00895E091DD
S11331D03104F0913204E817F90769F4A389B4893A
S11331E09C918589809589238C9310923204109246
S11331F0310481E0089580E00895CF93DF93EC01DA
S11332008A8D9B8D892BF1F0809131049091320449
S1133210C817D907B9F0009711F00E94E7188E8DEE
S11332208E7F8E8F1092F0031092EF03D0933204AE
S1133230C0933104EB89FC8990818D89892B80832B
S113324081E001C080E0DF91CF9108951F920F9239
S11332500FB60F9211242F933F934F935F936F9365
S11332607F938F939F93AF93BF93EF93FF93E091DB
S11332703104F0913204309709F451C0968DA6853B
S1133280B785858591FF04C09C91892329F447C0A3
S11332909C91892309F043C0A389B4899C918589B1
S11332A0809589238C93868997890197F1F7608D9E
S11332B0718DA685B785558538E020E0CB0101974F
S11332C0F1F7822F90E095958795282F4C9145230F
S11332D009F02068315091F7868D81FD2095809109
S11332E0F00390E001968F7399273091EF0338171C
S11332F049F0A091F003B0E0AF50BC4F2C93809301
S1133300F00303C0868D8160868F828D938D019733
S1133310F1F7A389B4899C918589892B8C93FF91BA
S1133320EF91BF91AF919F918F917F916F915F9139
S11333304F913F912F910F900FBE0F901F901895B2
S113334027EF31E0FC01318320830C94E7181F93AD
S1133350CF93DF93EC01162F6E8D6695617081E03B
S11333606827812F0E94482261E0812F0E940C224D
S1133370812F90E0FC01EA53FF4FE491E88BFC01BC
S1133380E652FF4FE491F0E0EE0FFF1FE850FF4FCD
S1133390859194919A8B898BDF91CF911F91089598
S11333A01F93CF93DF93EC01162F60E0812F0E94CF
S11333B00C228E8D81FD04C061E0812F0E94482281
S11333C01C87812F90E0FC01EA53FF4FE491ED87C5
S11333D0FC01E652FF4FE491F0E0EE0FFF1FE251D3
S11333E0FF4F859194919F878E87DF91CF911F9195
S11333F008951F93CF93DF93EC01162F1B821A823B
S113340088EE93E0A0E0B0E08C839D83AE83BF831D
S113341087EF91E0998388831F8A1E8A198E188EFC
S11334201B8E1A8E1D8E1C8E8E8D8E7F20FB81F935
S11334308E8F642FCE010E94A719612FCE01DF91D8
S1133440CF911F910C94D019CF93DF93EC019A0183
S1133450AB011B8E1A8E198E188E1F8A1E8A60E08D
S113346079E08DE390E00E94C423F9012430310512
S113347018F0C901039702C081E090E09D8F8C8F02
S11334806C85663108F069C0C901969587958431C9
S1133490910510F0439702C081E090E09F8B8E8BE2
S11334A0369718F0C901059702C081E090E0998F22
S11334B0888FC901880F991F280F391F36952795C2
S11334C0369527952D30310518F02C50310902C05E
S11334D021E030E03B8F2A8F90916800683050F0F3
S11334E021E06E3008F420E081E001C0880F2A95C5
S11334F0EAF701C084E0892B809368009C859830AA
S113350038F09E3040F0963148F020E030E008C0BA
S11335102DE630E005C02BE630E002C02CE630E0BA
S11335203C8B2B8B983030F481E001C0880F9A9546
S1133530EAF70EC0292F30E09E3018F428503109E4
S113354002C02E50310981E001C0880F2A95EAF7A4
S11335508D8B8C8D9D8D0197F1F7CE01DF91CF91ED
S11335600C94FD185058BB27AA270E94CA1A0C9421
S1133570441C0E94361C38F00E943D1C20F039F493
S11335809F3F19F426F40C94331C0EF4E095E7FBEA
S11335900C942D1CE92F0E94551C58F3BA1762078E
S11335A073078407950720F079F4A6F50C94771C2B
S11335B00EF4E0950B2EBA2FA02D0B01B90190014A
S11335C00C01CA01A0011124FF27591B99F0593F8E
S11335D050F4503E68F11A16F040A22F232F342FD6
S11335E04427585FF3CF469537952795A795F04024
S11335F05395C9F77EF41F16BA0B620B730B840B39
S1133600BAF09150A1F0FF0FBB1F661F771F881FF0
S1133610C2F70EC0BA0F621F731F841F48F4879548
S113362077956795B795F7959E3F08F0B0CF93953A
S1133630880F08F09927EE0F9795879508950E94B3
S1133640091C08F481E008950E94381B0C94441C62
S11336500E943D1C58F00E94361C40F029F45F3F44
S113366029F00C942D1C51110C94781C0C94331CCF
S11336700E94551C68F39923B1F3552391F3951BCC
S1133680550BBB27AA2762177307840738F09F5F7F
S11336905F4F220F331F441FAA1FA9F335D00E2EEC
S11336A03AF0E0E832D091505040E695001CCAF759
S11336B02BD0FE2F29D0660F771F881FBB1F26171C
S11336C037074807AB07B0E809F0BB0B802DBF01F3
S11336D0FF2793585F4F3AF09E3F510578F00C94C2
S11336E02D1C0C94781C5F3FE4F3983ED4F386952C
S11336F077956795B795F7959F5FC9F7880F911DE3
S11337009695879597F90895E1E0660F771F881FCE
S1133710BB1F621773078407BA0720F0621B730B81
S1133720840BBA0BEE1F88F7E09508950E949D1B49
S11337306894B1110C94781C08950E945D1C88F063
S11337409F5798F0B92F9927B751B0F0E1F0660F61
S1133750771F881F991F1AF0BA95C9F714C0B130A2
S113376091F00E94771CB1E008950C94771C672FA8
S1133770782F8827B85F39F0B93FCCF386957795D1
S11337806795B395D9F73EF49095809570956195BA
S11337907F4F8F4F9F4F0895E89409C097FB3EF4E5
S11337A090958095709561957F4F8F4F9F4F99238A
S11337B0A9F0F92F96E9BB279395F6958795779508
S11337C06795B795F111F8CFFAF4BB0F11F460FFC8
S11337D01BC06F5F7F4F8F4F9F4F16C0882311F020
S11337E096E911C0772321F09EE8872F762F05C034
S11337F0662371F096E8862F70E060E02AF09A95CF
S1133800660F771F881FDAF7880F9695879597F9C3
S11338100895990F0008550FAA0BE0E8FEEF16165D
S11338201706E807F907C0F012161306E407F507B0
S113383098F0621B730B840B950B39F40A2661F024
S1133840232B242B252B21F408950A2609F4A140C7
S1133850A6958FEF811D811D089597F99F6780E8D4
S113386070E060E008959FEF80EC089500240A94CE
S11338701616170618060906089500240A94121647
S11338801306140605060895092E0394000C11F47A
S1133890882352F0BB0F40F4BF2B11F460FF04C027
S11338A06F5F7F4F8F4F9F4F089557FD9058440F80
S11338B0551F59F05F3F71F04795880F97FB991F8B
S11338C061F09F3F79F08795089512161306140648
S11338D0551FF2CF4695F1DF08C0161617061806D5
S11338E0991FF1CF86957105610508940895E894B0
S11338F0BB2766277727CB0197F908950E94911C6F
S11339000C94441C0E94361C38F00E943D1C20F08C
S1133910952311F00C942D1C0C94331C11240C943D
S1133920781C0E94551C70F3959FC1F3950F50E0CD
S1133930551F629FF001729FBB27F00DB11D639F5D
S1133940AA27F00DB11DAA1F649F6627B00DA11D03
S1133950661F829F2227B00DA11D621F739FB00DA9
S1133960A11D621F839FA00D611D221F749F332719
S1133970A00D611D231F849F600D211D822F762FB2
S11339806A2F11249F5750409AF0F1F088234AF08F
S1133990EE0FFF1FBB1F661F771F881F91505040FB
S11339A0A9F79E3F510580F00C942D1C0C94781CB3
S11339B05F3FE4F3983ED4F3869577956795B79582
S11339C0F795E7959F5FC1F7FE2B880F911D96959C
S11339D0879597F90895FC01918D228D892F90E0A8
S11339E0805C9F4F821B91098F7399270895FC0176
S11339F0918D828D981731F0828DE80FF11D858DA0
S1133A0090E008958FEF9FEF0895FC01918D828DD2
S1133A10981761F0828DDF01A80FB11D5D968C911E
S1133A20928D9F5F9F73928F90E008958FEF9FEF29
S1133A300895FC01538D448D252F30E0842F90E0B0
S1133A40821B930B541710F0CF9608950197089595
S1133A5084E89EE1892B49F080E090E0892B29F0ED
S1133A600E94841E81110C9400000895FC01848D31
S1133A70DF01A80FB11DA35ABF4F2C91848D90E094
S1133A8001968F739927848FA689B7892C93A0896F
S1133A90B1898C91837080648C93938D848D9813F9
S1133AA006C00288F389E02D80818F7D808308958C
S1133AB0EF92FF920F931F93CF93DF93EC0181E07A
S1133AC0888F9B8D8C8D981305C0E889F989808136
S1133AD085FD26C0F62E0B8D10E00F5F1F4F0F7370
S1133AE01127E02E8C8DE8120CC00FB607FCFACF1C
S1133AF0E889F989808185FFF5CFCE010E94361DC2
S1133B00F1CF8B8DFE01E80FF11DE35AFF4FF082D8
S1133B109FB7F8940B8FEA89FB89808180620AC081
S1133B209FB7F894EE89FF896083E889F9898081D9
S1133B308370806480839FBF81E090E0DF91CF91A8
S1133B401F910F91FF90EF900895CF93DF93EC01B5
S1133B50888D8823C9F0EA89FB89808185FD05C0A9
S1133B60A889B9898C9186FD0FC00FB607FCF5CFE3
S1133B70808185FFF2CFA889B9898C9185FFEDCF2B
S1133B80CE010E94361DE7CFDF91CF910895CF92E9
S1133B90DF92EF92FF921F93CF93DF93EC016A01C0
S1133BA07B01122FE889F98982E080834115514E07
S1133BB061057105B1F060E079E08DE390E0A70163
S1133BC096010E94A223DA01C9010197A109B10952
S1133BD0B695A795979587959C01211580E138079F
S1133BE0A8F0E889F989108260E874E88EE190E031
S1133BF0A70196010E94A223DA01C9010197A10934
S1133C00B109B695A795979587959C01EC85FD8597
S1133C103083EE85FF852083188EEC89FD8910831F
S1133C20EA89FB89808180618083EA89FB898081BC
S1133C3088608083EA89FB89808180688083EA893F
S1133C40FB8980818F7D8083DF91CF911F91FF90CD
S1133C50EF90DF90CF9008951F920F920FB60F92BE
S1133C6011242F938F939F93EF93FF93E091430439
S1133C70F09144048081E0914904F0914A0482FD6A
S1133C8012C0908180914C048F5F8F7320914D04FA
S1133C90821751F0E0914C04F0E0ED5CFB4F958FFE
S1133CA080934C0401C08081FF91EF919F918F918B
S1133CB02F910F900FBE0F901F9018951F920F9287
S1133CC00FB60F9211242F933F934F935F936F93EB
S1133CD07F938F939F93AF93BF93EF93FF9383E36C
S1133CE094E00E94361DFF91EF91BF91AF919F9197
S1133CF08F917F916F915F914F913F912F910F9091
S1133D000FBE0F901F90189583E394E00E94EB1C64
S1133D1021E0892B09F420E0822F0895E3E3F4E005
S1133D201382128288EE93E0A0E0B0E0848395834E
S1133D30A683B78389E092E09183808385EC90E049
S1133D409587848784EC90E09787868780EC90E061
S1133D50918B808B81EC90E0938B828B82EC90E052
S1133D60958B848B86EC90E0978B868B118E128ECC
S1133D70138E148E08950E942C210E9474160E94A2
S1133D80B105C8E2DDE10E9438062097E1F30E9404
S1133D90281DF9CFCF92DF92EF92FF920F931F93DA
S1133DA0CF93DF936C017A018B01C0E0D0E0CE1594
S1133DB0DF0581F0D8016D918D01D601ED91FC9163
S1133DC00190F081E02DC6010995892B11F021960F
S1133DD0EECF7E01C701DF91CF911F910F91FF902C
S1133DE0EF90DF90CF900895EF92FF920F931F937F
S1133DF0CF93DF938C017B01C0E0D0E0F701EC0F9F
S1133E00FD1F6491662361F0D801ED91FC9101904E
S1133E10F081E02DC8010995892B11F02196EECF90
S1133E20CE01DF91CF911F910F91FF90EF900895F4
S1133E300C94B300DC01ED91FC910190F081E02D34
S1133E40099467E172E00C94B3000F931F93CF932E
S1133E50DF93EC010E94B3008C01CE010E94211F6C
S1133E60800F911FDF91CF911F910F9108958F9231
S1133E709F92AF92BF92EF92FF920F931F93CF93B3
S1133E80DF93CDB7DEB7A1970FB6F894DEBF0FBEB0
S1133E90CDBF7C01FA01CB0119A2223008F42AE03B
S1133EA08E010F5D1F4F822E912CA12CB12CBF01CE
S1133EB0A50194010E94A223F901CA01015011092C
S1133EC06A3010F4605D01C0695CD8016C93232BE7
S1133ED0242B252B61F7B801C7010E94B300A196DA
S1133EE00FB6F894DEBF0FBECDBFDF91CF911F9107
S1133EF00F91FF90EF90BF90AF909F908F90089597
S1133F002115310541F4DC01ED91FC910190F08122
S1133F10E02D642F09940C94371F9A01462F50E02A
S1133F2060E070E00C94801F0F931F93CF93DF9396
S1133F30EC010E948D1F8C01CE010E94211F800F75
S1133F40911FDF91CF911F910F910895CF92DF922E
S1133F50EF92FF920F931F93CF93DF9321153105B7
S1133F6081F4DC01ED91FC910190F081E02D642F4E
S1133F70DF91CF911F910F91FF90EF90DF90CF9041
S1133F8009942A30310501F577FF1DC06A017B01D0
S1133F90EC016DE20E941A1F8C0144275527BA01D7
S1133FA04C195D096E097F092AE0CE010E94371F72
S1133FB0800F911FDF91CF911F910F91FF90EF9090
S1133FC0DF90CF9008952AE0DF91CF911F910F9158
S1133FD0FF90EF90DF90CF900C94371F9A01AB01C4
S1133FE0770F660B770B0C94A61F0F931F93CF9339
S1133FF0DF93EC010E94EE1F8C01CE010E94211F71
S1134000800F911FDF91CF911F910F910895089513
S11340108230E8F4E82FF0E0EE0FFF1FE55CFE4F7E
S113402071836083813041F0809169008C7F482BDB
S113403040936900E89A089580916900837F440F52
S1134040551F440F551F482B40936900E99A089562
S11340501F920F920FB60F9211242F933F934F93F9
S11340605F936F937F938F939F93AF93BF93EF93DC
S1134070FF93E0913B01F0913C010995FF91EF9191
S1134080BF91AF919F918F917F916F915F914F916C
S11340903F912F910F900FBE0F901F9018951F9274
S11340A00F920FB60F9211242F933F934F935F9368
S11340B06F937F938F939F93AF93BF93EF93FF93EC
S11340C0E0913D01F0913E010995FF91EF91BF917F
S11340D0AF919F918F917F916F915F914F913F919C
S11340E02F910F900FBE0F901F9018951F920F9253
S11340F00FB60F9211242F933F938F939F93AF93F7
S1134100BF938091D1049091D204A091D304B09133
S1134110D4043091D00423E0230F2D3720F40196EA
S1134120A11DB11D05C026E8230F0296A11DB11DD6
S11341302093D0048093D1049093D204A093D30409
S1134140B093D4048091D5049091D604A091D7045F
S1134150B091D8040196A11DB11D8093D50490930C
S1134160D604A093D704B093D804BF91AF919F9184
S11341708F913F912F910F900FBE0F901F90189524
S11341803FB7F8948091D5049091D604A091D704B8
S1134190B091D80426B5A89B05C02F3F19F001960D
S11341A0A11DB11D3FBFBA2FA92F982F8827820FB9
S11341B0911DA11DB11DBC01CD0142E0660F771F09
S11341C0881F991F4A95D1F708958F929F92AF92B5
S11341D0BF92CF92DF92EF92FF926B017C010E941B
S11341E0C0204B015C01C114D104E104F10401F1CC
S11341F00E948D230E94C020DC01CB0188199909FB
S1134200AA09BB09883E9340A105B10560F321E0EA
S1134210C21AD108E108F10888EE880E83E0981EDE
S1134220A11CB11CC114D104E104F10419F7DBCFC2
S1134230FF90EF90DF90CF90BF90AF909F908F90C2
S113424008958230910538F0880F991F880F991FBF
S113425005970197F1F70895789484B5826084BD39
S113426084B5816084BD85B5826085BD85B5816076
S113427085BDEEE6F0E0808181608083E1E8F0E0D6
S11342801082808182608083808181608083E0E805
S1134290F0E0808181608083E1EBF0E080818460E4
S11342A08083E0EBF0E0808181608083EAE7F0E0E6
S11342B0808184608083808182608083808181604A
S11342C080838081806880831092C10008958E303D
S11342D008F08E5020913F0190E4299F9001112411
S11342E08770822B80937C0080917A008064809315
S11342F07A0080917A0086FDFCCF8091780020912D
S1134300790090E0922B08951F93CF93DF93182F99
S1134310EB0161E00E940C22209711F460E004C0DC
S1134320CF3FD10539F461E0812FDF91CF911F9107
S11343300C944822E12FF0E0EE54FF4FE491E33077
S1134340F9F048F4E130B9F0E230A1F584B58062C7
S113435084BDC8BD34C0E730E9F0E83019F1E43079
S113436049F580918000806280938000D0938B0017
S1134370C0938A0024C084B5806884BDC7BD1FC0B3
S113438080918000806880938000D0938900C093DE
S1134390880015C08091B00080688093B000C093FD
S11343A0B3000DC08091B00080628093B000C093D0
S11343B0B40005C0C038D1050CF0B5CFAFCFDF9144
S11343C0CF911F910895833081F028F4813099F0C2
S11343D08230A1F008958730A9F08830B9F0843094
S11343E0D1F4809180008F7D03C0809180008F770D
S11343F080938000089584B58F7702C084B58F7D43
S113440084BD08958091B0008F7703C08091B0007F
S11344108F7D8093B0000895CF93DF9390E0FC01EB
S1134420EA53FF4F2491FC01E652FF4F8491882305
S113443061F190E0880F991FFC01EE5FFE4FC5917A
S1134440D491FC01E850FF4FA591B491611109C0CA
S11344509FB7F8948881209582238883EC912E233A
S11344600BC0623061F49FB7F8948881322F309585
S113447083238883EC912E2B2C939FBF06C08FB788
S1134480F894E8812E2B28838FBFDF91CF91089574
S11344901F93CF93DF93282F30E0F901EE54FF4FA1
S11344A08491F901EA53FF4FD491F901E652FF4F89
S11344B0C491CC23C1F0162F81110E94E321EC2F6B
S11344C0F0E0EE0FFF1FE850FF4FA591B4919FB7A6
S11344D0F894111104C08C91D095D82302C0EC91AA
S11344E0DE2BDC939FBFDF91CF911F91089500973E
S11344F009F474C01092DA041092D9041092E704FB
S11345001092E6041092E2041092E3041092E40480
S11345101092E5041092DD04209180002093EC04B5
S1134520209181002093EB0410928100109280006E
S1134530109285001092840021E026BB10926F0037
S11345402091B0002093EA042091B1002093E90463
S11345501092B10022E02093B0009C012770332711
S1134560232B51F443E0969587954A95E1F72CE780
S11345702093B30027E018C09C0123703327232B1A
S113458031F4969587959695879529EF05C080FD1A
S113459007C0969587952CE72093B30026E004C0C6
S11345A02CE72093B30025E02093E80422E027BB06
S11345B01092B2009093DC048093DB049FB7F894CC
S11345C023BD8091E8048093B100209370008BE0B8
S11345D08150F1F787E0809381009FBF0895809117
S11345E0DD0408952FB7F8946091DE047091DF0420
S11345F08091E0049091E1041092DD042FBF0895AE
S1134600E1EBF0E01082109270008091EA04809354
S1134610B0008091E9048083E1E8F0E010828091A9
S1134620EC04809380008091EB04808308951F92B2
S11346300F920FB60F9211240F931F932F933F9352
S11346404F935F936F937F938F939F93AF93BF9396
S11346502091840030918500B09B0BC081E086BB23
S11346608091E6049091E70401969093E704809387
S1134670E6048091D9049091DA0401964091DB0418
S11346805091DC048417950798F11092DA04109283
S1134690D9048091E6049091E704A0E0B0E0DC0145
S11346A099278827820F931FA11DB11D4091E20411
S11346B05091E3046091E4047091E5048C019D0140
S11346C0041B150B260B370B0093DE041093DF0439
S11346D02093E0043093E1048093E2049093E30494
S11346E0A093E404B093E50481E08093DD0404C066
S11346F09093DA048093D904BF91AF919F918F91E5
S11347007F916F915F914F913F912F911F910F91E5
S11347100F900FBE0F901F901895089597FB072ECA
S113472016F4009407D077FD09D00E94F42307FC07
S113473005D03EF4909581959F4F089570956195AD
S11347407F4F0895A1E21A2EAA1BBB1BFD010DC0C9
S1134750AA1FBB1FEE1FFF1FA217B307E407F5072D
S113476020F0A21BB30BE40BF50B661F771F881F09
S1134770991F1A9469F760957095809590959B019F
S1134780AC01BD01CF010895052E97FB1EF40094E2
S11347900E94DB2357FD07D00E94A22307FC03D00D
S11347A04EF40C94DB2350954095309521953F4F62
S11347B04F4F5F4F089590958095709561957F4F09
S11347C08F4F9F4F0895EE0FFF1F0590F491E02D3A
S11347D009940E940824A59F900DB49F900DA49F56
S11347E0800D911D11240895AA1BBB1B51E107C024
S11347F0AA1FBB1FA617B70710F0A61BB70B881F6D
S1134800991F5A95A9F780959095BC01CD010895FB
S1134810A29FB001B39FC001A39F700D811D1124FD
S1134820911DB29F700D811D1124911D08950F9348
S11348301F93CF93DF938230910510F482E090E0D0
S1134840E091EF04F091F00420E030E0A0E0B0E06B
S1134850309719F14081518102811381481759071A
S1134860C8F08417950769F4109731F012960C93E9
S1134870129713961C9327C00093EF041093F0042F
S113488022C02115310519F04217530718F49A0173
S1134890BD01EF01DF01F801DBCF21153105F9F08E
S11348A0281B390B2430310580F48A819B816115E2
S11348B0710521F0FB019383828304C09093F0047B
S11348C08093EF04FE01329644C0FE01E20FF31F11
S11348D08193919322503109398328833AC02091DE
S11348E0ED043091EE04232B41F420910201309128
S11348F003013093EE042093ED04209100013091E4
S113490001012115310541F42DB73EB74091040151
S113491050910501241B350BE091ED04F091EE0458
S1134920E217F307A0F42E1B3F0B2817390778F082
S1134930AC014E5F5F4F2417350748F04E0F5F1FE1
S11349405093EE044093ED048193919302C0E0E010
S1134950F0E0CF01DF91CF911F910F910895CF9394
S1134960DF93009709F481C0FC013297138212820D
S1134970A091EF04B091F004109781F4208131816B
S1134980820F931F2091ED043091EE04281739070C
S113499051F5F093EE04E093ED0467C0ED0120E0DF
S11349A030E0CE17DF0740F44A815B819E01411558
S11349B05105F1F0EA01F5CFD383C28340815181DF
S11349C0840F951FC817D90759F488819981840FDA
S11349D0951F0296918380838A819B81938382832E
S11349E02115310529F4F093F004E093EF043DC060
S11349F0E901FB83EA8349915991C40FD51FEC1750
S1134A00FD0761F480819181840F951F0296E9016D
S1134A1099838883828193819B838A83E0E0F0E099
S1134A2012968D919C911397009719F0FD01DC016A
S1134A30F7CF8D919C9111979D012E5F3F4F820F6F
S1134A40931F2091ED043091EE042817390769F47F
S1134A50309729F41092F0041092EF0402C01382EC
S1134A601282B093EE04A093ED04DF91CF910895E8
S1134A70FB01DC0102C001900D9241505040D8F777
S1134A800895DC0101C06D9341505040E0F7089552
S1134A9010E0C8E8D0E004C0FE010E94E3232196A0
S10D4AA0C938D107C9F7F894FFCF15
S1134AAA0000F104200061FF00FF00FF0000000085
S1134ABA00FF000000FF000000FF000000000000EB
S1134ACA0000003C0041006E00000000001D001FB1
S1134ADA003C000000A2430080C6430720072001CF
S1134AEA435243206973206E6F742076616C696443
S1134AFA2100633A2000726561645F696E3A20009E
S1134B0A5247420020666F756E64456D707479422F
S1134B1A6F78200020666F756E64456D70747942F3
S1134B2A6F784F72546573745374726970200043BA
S1134B3A6F6C6F7253656E736F72005048616E6466
S1134B4A54656D706572617475726500696E736916
S1134B5A64652063617365207072696E740070689D
S1134B6A3A0074656D703A00616D6D6F6E69613AF1
S1134B7A006E6974726974653A006E69747261745C
S1134B8A653A0049444C4500546D722053766300DB
S1134B9A000102000000006618CA1E4218B618CFA7
S1134BAA184518B71800000000581DCA1E191DA57B
S1134BBA1DEB1C051DF71C0D0A006E616E00696E63
S1094BCA66006F76660030
S9030000FC
