:100000000C9479000C9498070C94BF070C94A100F1
:100010000C94A1000C94A1000C94F0130C942317E1
:100020000C94A1000C94A1000C94A1000C94A100CC
:100030000C94A1000C94A1000C94A1000C94A100BC
:100040000C94E6070C94A1000C94C1050C94F305E4
:100050000C94A1000C94A1000C94A1000C94A1009C
:100060000C94A1000C94A100FC0FFC0FFC0F3B10A2
:1000700026103510FC0FFC0F3B1026100A466F753A
:100080006E64204D61746368696E6720436F6C6FA6
:1000900072000000000800020100000304070000D5
:1000A000000000000000010204081020408001024E
:1000B00004081020010204081020040404040404AD
:1000C000040402020202020203030303030300000A
:1000D0000000230026002900000000002500280061
:1000E0002B0000000000240027002A00390423060A
:1000F000490411241FBECFEFD8E0DEBFCDBF11E011
:10010000A0E0B1E0E0ECF2E302C005900D92AE3960
:10011000B107D9F724E0AEE9B1E001C01D92AF30DC
:10012000B207E1F710E0C8E7D0E004C02197FE0174
:100130000E94EE17C637D107C9F70E9450060C94EB
:1001400053190C940000FC0180E090E0A8ECB1E4AD
:10015000808B918BA28BB38B80E090E0A0EEB0E41B
:1001600080839183A283B38384E19EE0AEEFB4E405
:1001700084839583A683B78380E090E8ABEBB4E4F7
:1001800080879187A287B38784879587A687B7875B
:100190000895089580919E0190919F010C940F0BFA
:1001A0000F931F93CF93DF93CDE8D2E0188219828B
:1001B0001A821B821D821C821F821E82198618864B
:1001C000A7E4B2E01D921D921D921C921397159602
:1001D0001C921E92149717961C921E9216971996AF
:1001E0001C921E921897E1E0F2E0108211821282B6
:1001F000138215821482178216821186108640E0BF
:1002000050E060E87EE34A875B876C877D871F86C6
:100210001E86198A188A1B8A1A8A4AE959E969E1ED
:100220007EE31A964D935D936D937C931D971F9675
:100230001C921E921E9751961C921E925097539696
:100240001C921E92529740E050E060E07FE34287AC
:1002500053876487758717861686118A108A138AD2
:10026000128A4C8B5D8B6E8B7F8B198E188E1B8E3A
:100270001A8E1D8E1C8E4AE959E969E97EE354966F
:100280004D935D936D937C93579759961C921E9254
:1002900058975B961C921E925A975D961C921E92DE
:1002A0005C9740E050E060E070E4448B558B668BD7
:1002B000778B118E108E138E128E158E148E00E099
:1002C00010E020E430E40E8F1F8F28A339A31BA277
:1002D0001AA21DA21CA21FA21EA240E050E060E8CC
:1002E0007FE35E964D935D936D937C939197939688
:1002F0001C921E92929795961C921E929497979696
:100300001C921E92969740E050E060EA70E4468F9F
:10031000578F60A371A313A212A215A214A217A251
:1003200016A240E050E060EC70E448A759A76AA725
:100330007BA71DA61CA61FA61EA619AA18AA40E0E8
:1003400050E060EC7FE398964D935D936D937C93C2
:100350009B979D961C921E929C979F961C921E9214
:100360009E97D1961C921E92D09740E050E060E29A
:1003700071E440A751A762A773A715A614A617A6F4
:1003800016A611AA10AAD2960D931D932D933C93F5
:10039000D597D7961C921E92D697D9961C921E92EC
:1003A000D897DB961C921E92DA9700E010E020EAC4
:1003B00031E402AB13AB24AB35AB17AA16AA11AECE
:1003C00010AE13AE12AEDC964D935D936D937C939D
:1003D000DF97109288021092870210928A02109280
:1003E000890210928C0210928B0280E090E0A8E4C7
:1003F000B2E484AF95AFA6AFB7AF109242021092AD
:10040000410210924402109243021092460210924E
:100410004502DF91CF911F910F9108951F93CF93C4
:10042000DF931091FE01D091FF01C091000263E6BD
:1004300071E08EEC92E00E94C2066091F80170912A
:10044000F9014AE050E08EEC92E00E94700765E608
:1004500071E08EEC92E00E94C2066091FA01709108
:10046000FB014AE050E08EEC92E00E94700765E6E6
:1004700071E08EEC92E00E94C2066091FC017091E6
:10048000FD014AE050E08EEC92E00E94700767E6C2
:1004900071E08EEC92E00E94C2064AE050E0612FCB
:1004A0008EEC92E00E94210765E671E08EEC92E00E
:1004B0000E94C2064AE050E06D2F8EEC92E00E944E
:1004C000210765E671E08EEC92E00E94C2064AE0E8
:1004D00050E06C2F8EEC92E00E942107612F70E0BB
:1004E0008091F8019091F9019C0124513109621722
:1004F000730764F144968617970744F16D2F70E0F7
:100500008091FA019091FB019C01245131096217FD
:100510007307E4F0449686179707C4F06C2F70E0D9
:100520008091FC019091FD019C01245131096217D9
:10053000730764F044968617970744F06CE770E001
:100540008EEC92E00E949E0681E001C080E0DF9187
:10055000CF911F9108950F931F93CF93DF938091B5
:10056000BF02813009F448C040F0823009F06EC00B
:1005700007E412E0C6E0D0E029C00DE812E0C4E0D4
:10058000D0E08AE0F801B896A4EFB1E001900D92B6
:100590008A95E1F70E940E02882349F08AE08C9F39
:1005A000F0018D9FF00D1124E357FD4F3EC02197C0
:1005B0000A501109CF3F8FEFD80719F742C0219792
:1005C0000A501109CF3F8FEFD807D9F18AE0F8011F
:1005D000FC96A4EFB1E001900D928A95E1F70E949C
:1005E0000E02882361F38AE08C9FF0018D9FF00D4D
:1005F0001124E95BFD4F19C001E012E0C6E0D0E034
:100600008AE0F801FC96A4EFB1E001900D928A9582
:10061000E1F70E940E02882369F08AE08C9FF001C6
:100620008D9FF00D1124EF5FFD4F3081218192816C
:1006300083810BC021970A501109CF3F8FEFD80754
:10064000F9F630E020E090E88FEBAC01632F722FD9
:10065000852F942FDF91CF911F910F91089585ECF5
:1006600091E00E94CB1185EC91E00E94D511882386
:10067000D1F36EEF71E085EC91E00E9401110C94D2
:10068000AB02CF9385EC91E00E94CB1185EC91E019
:100690000E94D5118823D1F36EEF71E085EC91E0D3
:1006A0000E9401118AE0ECE1F1E0A4EFB1E00190D9
:1006B0000D928A95E1F70E940E02C82F8AE0E2E1CE
:1006C000F1E0A4EFB1E001900D928A95E1F7C1113C
:1006D00003C00E940E02C82F6C2F70E04AE050E069
:1006E0008EEC92E00E94700761E771E08EEC92E080
:1006F0000E94C2068C2FCF910895CF93DF9300D034
:1007000000D000D0CDB7DEB749835A836B837C839A
:100710008D839E8369817A8182E00E946B086B8160
:100720007C8183E00E946B086D817E8184E0269647
:100730000FB6F894DEBF0FBECDBFDF91CF910C9402
:100740006B08CF93DF9300D0CDB7DEB70E948C0B40
:100750009A83898361E08DE00E94F30861E089E07B
:100760000E942F09409106015091070160910801F4
:100770007091090180910A0190910B010E947D0303
:100780000E9441038111FCCF40910C0150910D0159
:1007900060910E0170910F018091100190911101F3
:1007A0000E947D031092BF020E942F034091BF015F
:1007B0005091C0016091C1017091C2018091C3014B
:1007C0009091C4010E947D0360E089E00E942F099E
:1007D00068E371E0CE0101960E94B10CBFCF61E0E9
:1007E00082E00E94F30861E083E00E94F30861E088
:1007F00084E00E94F3084091BF015091C0016091D4
:10080000C1017091C2018091C3019091C4010C9407
:100810007D03EF92FF920F9326E040E855E260E0FF
:1008200070E08EEC92E00E945C050E94D0000E9475
:10083000EF0360E080E00E942F0943E050E06AECA3
:1008400070E080E00E9478078EE9E82E81E0F82EC3
:1008500002E020E030E040E850E063E771E081EA48
:1008600093E00E94030A0F91FF90EF900C94580BB5
:10087000089567E080EC92E00E945D0428E04DE07E
:100880006CE085EC91E00E948F1080EA91E00C947E
:10089000A30080EA91E00E94C90085EC91E00C94ED
:1008A000A310FC01138615861486DC011B96339673
:1008B0001E92AE17BF07E1F708951F93CF93DF9302
:1008C000EC01162F60E0812F0E94F308612F70E089
:1008D000FB01EA55FF4FE491E883FB01E654FF4F2B
:1008E000E491F0E0EE0FFF1FE253FF4F85919491EA
:1008F0009A838983CE01DF91CF911F910C9451048B
:10090000FC01918D228D892F90E0805C9F4F821B8E
:1009100091098F7399270895FC01918D828D981705
:1009200031F0828DE80FF11D858D90E008958FEFF5
:100930009FEF0895FC01918D828D981761F0828D53
:10094000DF01A80FB11D5D968C91928D9F5F9F7303
:10095000928F90E008958FEF9FEF0895FC01538DE3
:10096000448D252F30E0842F90E0821B930B541789
:1009700010F0CF9608950197089589E196E0892BAC
:1009800049F080E090E0892B29F00E94190681113E
:100990000C9400000895FC01848DDF01A80FB11DA7
:1009A000A35ABF4F2C91848D90E001968F739927A5
:1009B000848FA689B7892C93A089B1898C91837083
:1009C00080648C93938D848D981306C00288F3897C
:1009D000E02D80818F7D80830895EF92FF920F93A9
:1009E0001F93CF93DF93EC0181E0888F9B8D8C8DDB
:1009F000981305C0E889F989808185FD26C0F62E07
:100A00000B8D10E00F5F1F4F0F731127E02E8C8DA1
:100A1000E8120CC00FB607FCFACFE889F98980818B
:100A200085FFF5CFCE010E94CB04F1CF8B8DFE0167
:100A3000E80FF11DE35AFF4FF0829FB7F8940B8F38
:100A4000EA89FB89808180620AC09FB7F894EE89A9
:100A5000FF896083E889F98980818370806480835D
:100A60009FBF81E090E0DF91CF911F910F91FF90A8
:100A7000EF900895CF93DF93EC01888D8823C9F020
:100A8000EA89FB89808185FD05C0A889B9898C9197
:100A900086FD0FC00FB607FCF5CF808185FFF2CF32
:100AA000A889B9898C9185FFEDCFCE010E94CB0436
:100AB000E7CFDF91CF910895CF92DF92EF92FF922F
:100AC0001F93CF93DF93EC016A017B01122FE8891A
:100AD000F98982E080834115514E61057105B1F0BD
:100AE00060E079E08DE390E0A70196010E94AD17E8
:100AF000DA01C9010197A109B109B695A7959795A2
:100B000087959C01211580E13807A8F0E889F989CB
:100B1000108260E874E88EE190E0A70196010E94DF
:100B2000AD17DA01C9010197A109B109B695A795D9
:100B3000979587959C01EC85FD853083EE85FF8533
:100B40002083188EEC89FD891083EA89FB898081D6
:100B500080618083EA89FB89808188608083EA895B
:100B6000FB89808180688083EA89FB8980818F7D11
:100B70008083DF91CF911F91FF90EF90DF90CF9016
:100B800008951F920F920FB60F9211242F938F93F7
:100B90009F93EF93FF93E091DE02F091DF0280815B
:100BA000E091E402F091E50282FD12C09081809113
:100BB000E7028F5F8F732091E802821751F0E09176
:100BC000E702F0E0E253FD4F958F8093E70201C00A
:100BD0008081FF91EF919F918F912F910F900FBE88
:100BE0000F901F9018951F920F920FB60F9211241D
:100BF0002F933F934F935F936F937F938F939F9325
:100C0000AF93BF93EF93FF938EEC92E00E94CB04DF
:100C1000FF91EF91BF91AF919F918F917F916F91D4
:100C20005F914F913F912F910F900FBE0F901F90AA
:100C300018958EEC92E00E94800421E0892B09F443
:100C400020E0822F0895EEECF2E01382128288EE0B
:100C500093E0A0E0B0E084839583A683B7838FE719
:100C600091E09183808385EC90E09587848784EC84
:100C700090E09787868780EC90E0918B808B81EC69
:100C800090E0938B828B82EC90E0958B848B86EC4A
:100C900090E0978B868B118E128E138E148E089592
:100CA0000E9430080E9440100E940904CDEBD4E05D
:100CB0000E9438042097E1F30E94BD04F9CFCF923F
:100CC000DF92EF92FF920F931F93CF93DF936C010C
:100CD0007A018B01C0E0D0E0CE15DF0581F0D801AC
:100CE0006D918D01D601ED91FC910190F081E02D87
:100CF000C6010995892B11F02196EECF7E01C7011F
:100D0000DF91CF911F910F91FF90EF90DF90CF90E7
:100D100008956115710579F0FB0101900020E9F754
:100D20003197AF01461B570BDC01ED91FC9102801E
:100D3000F381E02D099480E090E00895EF92FF9216
:100D40000F931F93CF93DF938C017B01C0E0D0E022
:100D5000F701EC0FFD1F6491662361F0D801ED915E
:100D6000FC910190F081E02DC8010995892B11F0CB
:100D70002196EECFCE01DF91CF911F910F91FF9081
:100D8000EF9008950C948906DC01ED91FC9101909F
:100D9000F081E02D09948F929F92AF92BF92EF92D3
:100DA000FF920F931F93CF93DF93CDB7DEB7A19739
:100DB0000FB6F894DEBF0FBECDBF7C01FA01CB01A8
:100DC00019A2223008F42AE08E010F5D1F4F822EF7
:100DD000912CA12CB12CBF01A50194010E94AD174B
:100DE000F901CA01015011096A3010F4605D01C0B7
:100DF000695CD8016C93232B242B252B61F7B80158
:100E0000C7010E948906A1960FB6F894DEBF0FBEF7
:100E1000CDBFDF91CF911F910F91FF90EF90BF90C9
:100E2000AF909F908F9008952115310541F4DC011A
:100E3000ED91FC910190F081E02D642F09940C94C8
:100E4000CB069A01462F50E060E070E00C94140746
:100E5000CF92DF92EF92FF920F931F93CF93DF9386
:100E60002115310581F4DC01ED91FC910190F081B7
:100E7000E02D642FDF91CF911F910F91FF90EF90A4
:100E8000DF90CF9009942A30310501F577FF1DC01E
:100E90006A017B01EC016DE20E94C4068C014427CB
:100EA0005527BA014C195D096E097F092AE0CE0168
:100EB0000E94CB06800F911FDF91CF911F910F9160
:100EC000FF90EF90DF90CF9008952AE0DF91CF91CF
:100ED0001F910F91FF90EF90DF90CF900C94CB0675
:100EE0009A01AB01770F660B770B0C9428070895D6
:100EF0008230E8F4E82FF0E0EE0FFF1FEA5DFE4FCE
:100F000071836083813041F0809169008C7F482B30
:100F100040936900E89A089580916900837F440FA7
:100F2000551F440F551F482B40936900E99A0895B7
:100F30001F920F920FB60F9211242F933F934F934E
:100F40005F936F937F938F939F93AF93BF93EF9331
:100F5000FF93E0912601F09127010995FF91EF9110
:100F6000BF91AF919F918F917F916F915F914F91C1
:100F70003F912F910F900FBE0F901F9018951F92C9
:100F80000F920FB60F9211242F933F934F935F93BD
:100F90006F937F938F939F93AF93BF93EF93FF9341
:100FA000E0912801F09129010995FF91EF91BF91FE
:100FB000AF919F918F917F916F915F914F913F91F1
:100FC0002F910F900FBE0F901F9018951F920F92A8
:100FD0000FB60F9211242F933F938F939F93AF934C
:100FE000BF9380916C0390916D03A0916E03B091BB
:100FF0006F0330916B0323E0230F2D3720F401960C
:10100000A11DB11D05C026E8230F0296A11DB11D2B
:1010100020936B0380936C0390936D03A0936E03F6
:10102000B0936F038091700390917103A09172034C
:10103000B09173030196A11DB11D8093700390932D
:101040007103A0937203B0937303BF91AF919F910B
:101050008F913F912F910F900FBE0F901F90189579
:10106000789484B5826084BD84B5816084BD85B583
:10107000826085BD85B5816085BDEEE6F0E080814A
:1010800081608083E1E8F0E010828081826080836B
:10109000808181608083E0E8F0E0808181608083EE
:1010A000E1EBF0E0808184608083E0EBF0E0808120
:1010B00081608083EAE7F0E08081846080838081C2
:1010C000826080838081816080838081806880836A
:1010D0001092C10008951F93CF93DF93182FEB0157
:1010E00061E00E94F308209711F460E004C0CF3F54
:1010F000D10539F461E0812FDF91CF911F910C94DC
:101100002F09E12FF0E0EE56FF4FE491E330F9F0C4
:1011100048F4E130B9F0E230A1F584B5806284BDD5
:10112000C8BD34C0E730E9F0E83019F1E43049F5E2
:1011300080918000806280938000D0938B00C09368
:101140008A0024C084B5806884BDC7BD1FC080915B
:101150008000806880938000D0938900C0938800CD
:1011600015C08091B00080688093B000C093B30038
:101170000DC08091B00080628093B000C093B40035
:1011800005C0C038D1050CF0B5CFAFCFDF91CF91FE
:101190001F910895833081F028F4813099F08230D6
:1011A000A1F008958730A9F08830B9F08430D1F4E7
:1011B000809180008F7D03C0809180008F77809325
:1011C0008000089584B58F7702C084B58F7D84BD7B
:1011D00008958091B0008F7703C08091B0008F7D1B
:1011E0008093B0000895CF93DF9390E0FC01EA551F
:1011F000FF4F2491FC01E654FF4F8491882361F155
:1012000090E0880F991FFC01EE51FF4FC591D491DA
:10121000FC01E852FF4FA591B491611109C09FB73D
:10122000F8948881209582238883EC912E230BC02B
:10123000623061F49FB7F8948881322F3095832310
:101240008883EC912E2B2C939FBF06C08FB7F89408
:10125000E8812E2B28838FBFDF91CF9108951F93B4
:10126000CF93DF93282F30E0F901EE56FF4F8491A2
:10127000F901EA55FF4FD491F901E654FF4FC491AB
:10128000CC23C1F0162F81110E94CA08EC2FF0E088
:10129000EE0FFF1FE852FF4FA591B4919FB7F8944E
:1012A000111104C08C91D095D82302C0EC91DE2B93
:1012B000DC939FBFDF91CF911F910895E091A00330
:1012C000F091A1038081811103C08FEF9FEF0CC0CB
:1012D000E091A003F091A1030580F681E02D068046
:1012E000F781E02D82819381909378038093770337
:1012F0000895FF920F931F93CF93DF93EC01F62E87
:1013000000917F03109180038091D8039091D903BD
:1013100002960E947212CF3F8FEFD80789F4FF2008
:1013200079F06091D8037091D9036E5F7F4F82E8A6
:1013300093E0DF91CF911F910F91FF900C941912C0
:10134000C00FD11FE091D803F091D903D383C2839A
:101350006091D8037091D903C017D10768F48091C8
:101360009E0390919F036E5F7F4FDF91CF911F91FE
:101370000F91FF900C943A128091A0039091A103D9
:101380006E5F7F4F0E943A128091770390917803AD
:10139000C817D90720F4D0937803C0937703DF915F
:1013A000CF911F910F91FF90089580918B03882317
:1013B00009F10FB6F8940F92E0919103F091920326
:1013C000C681D781CE0102960E947212809181035C
:1013D00081508093810380918B03815080938B0394
:1013E0000F900FBE8F89988D0E94F611CE010E943A
:1013F000F611DBCF8091B403823010F00E943A13D3
:101400000E944510D2CF5F926F927F928F929F92EF
:10141000AF92BF92CF92DF92EF92FF920F931F9302
:10142000CF93DF933C016B015A014901502ECA0151
:101430000E94E3118C01892B09F4E0C088E290E05E
:101440000E94E311EC01892BC9F0188F0F8BA501C5
:1014500065EA70E0C8010E944C1921E0A21AB108A7
:101460008F89988DA80EB91EC114D104C9F0BE0190
:10147000675E7F4FF601C601089607C0C8010E944B
:10148000F611BCC0E817F90749F09F014191DB0153
:101490004D93BD01D9012C912111F4CF18A201C0A7
:1014A000198E052D043008F003E00E8B09A31AA253
:1014B0006E01B2E0CB0ED11CC6010E941512CE0106
:1014C0000C960E941512D987C88784E090E0801B93
:1014D00091099D878C87DB8BCA8B1BA21CA21DA246
:1014E0001EA21FA2A401B301C5010E9496129983F6
:1014F0008883E114F10419F0F701D183C0830FB69A
:10150000F8940F92809181038F5F80938103809183
:10151000D8039091D903892BD1F5D093D903C093E7
:10152000D80380918103813009F041C084EB93E0BE
:101530000E9407128DEB93E00E94071286EC93E065
:101540000E9407128FEC93E00E9407128BEA93E04F
:101550000E94071282EA93E00E94071285E993E055
:101560000E9407128CE893E00E94071282E893E041
:101570000E9407128BEA93E09093A1038093A0034B
:1015800082EA93E090939F0380939E0310C0809122
:101590007D0381110CC0E091D803F091D9039689A5
:1015A0008E89891720F0D093D903C093D8038091F6
:1015B00079038F5F809379038E8990917E039817CA
:1015C00010F480937E03F9E08F9FC0011124B601CF
:1015D0008C549C4F0E9419120F900FBE80917D0376
:1015E000882351F0E091D803F091D90396898E8930
:1015F000981710F40E943A1381E001C08FEFDF9139
:10160000CF911F910F91FF90EF90DF90CF90BF90FF
:10161000AF909F908F907F906F905F9008950F9301
:101620001F93CF93DF932091D8033091D903821772
:10163000930709F438C0009709F435C00FB6F89441
:101640000F92FC01228533852258334051F5FC016D
:1016500024893589F3E025393F0719F1232B09F552
:10166000EC018C010E5F1F4FC8010E9472128E891F
:1016700090917E03981710F480937E0329E0829F57
:10168000C0011124B8018C549C4F0E941912E091A2
:10169000D803F091D9039E898689981710F00E948B
:1016A0003A130F900FBEDF91CF911F910F910895C4
:1016B000EF92FF920F9385E7E82E83E0F82E00E08B
:1016C00020E030E040EC50E06DE871E085ED99E01D
:1016D0000E94030A8130B1F40E948D0E813091F492
:1016E000F8942FEF3FEF30937803209377038093A4
:1016F0007D031092800310927F030F91FF90EF9073
:101700000C9402130F91FF90EF9008958091740351
:101710008F5F8093740308950FB6F8940F928091B1
:101720007F03909180030F900FBE0895CF92DF92B8
:10173000EF92FF920F931F93CF93DF9380917403E7
:1017400081118CC000917F03109180030F5F1F4FA8
:101750001093800300937F0301151105B9F4809164
:10176000A0039091A10320919E0330919F03309399
:10177000A1032093A00390939F0380939E038091E5
:101780007A038F5F80937A030E945E0980917703CA
:1017900090917803C0E00817190708F44FC0D9E00A
:1017A000E091A003F091A1038081811103C08FEF2C
:1017B0009FEF11C0E091A003F091A1030580F68195
:1017C000E02DE680F780D70112968D919C911397BA
:1017D0000817190728F490937803809377032EC095
:1017E0006701B2E0CB0ED11CC6010E947212F70154
:1017F00084899589892B21F0C7010C960E94721269
:10180000D70156968C9190917E03981710F480938F
:101810007E03D89FC0011124B6018C549C4F0E94B6
:101820001912E091D803F091D903D70156969C91F3
:101830008689981708F4B4CFC1E0B2CFE091D803FD
:10184000F091D903E689B9E0EB9FF0011124EC5443
:10185000FC4F8081823040F0C1E006C080917C0363
:101860008F5F80937C03C0E080917B038111C1E096
:101870008C2FDF91CF911F910F91FF90EF90DF9010
:10188000CF900895EF92FF920F931F93CF93DF9322
:101890000FB6F8940F928091740381508093740373
:1018A00080917403882311F080E052C080918103FD
:1018B0008823D1F3C0E0D0E089E0F82EEE24E39451
:1018C00080919503882351F1E0919A03F0919B0355
:1018D000C681D781CE010C960E9472128E010E5FD6
:1018E0001F4FC8010E9472128E8990917E03981733
:1018F00010F480937E03F89EC0011124B8018C542B
:101900009C4F0E941912E091D803F091D9039E894F
:1019100086899817A8F2E0927B03D2CFCD2B11F0E5
:101920000E945E09C0917C03CC2351F0D1E00E945B
:10193000960B8111D0937B03C150C9F710927C03A1
:1019400080917B03882309F4AFCF0E943A1381E092
:101950000F900FBEDF91CF911F910F91FF90EF90ED
:1019600008950F931F93CF93DF938C01EB010E9497
:10197000860B40917F0350918003F80120813181D3
:10198000C9018C0F9D1F4217530720F4821793073C
:1019900040F403C08217930730F021E0481759073D
:1019A00018F020E001C021E0F80191838083222318
:1019B00029F060E0841B950B0E9479090E94420C7B
:1019C000811102C00E943A13DF91CF911F910F91B4
:1019D000089580917403882321F081E080937B0334
:1019E000089510927B03A091D803B091D903E091A0
:1019F000D803F091D9032D913C918789908D82175E
:101A0000930760F06091D8037091D9038091D80357
:101A10009091D903675E7F4F0E945B1080917E0397
:101A200069E0482F50E0649F9001659F300D1124BC
:101A3000F901EC54FC4F9081911102C08150F1CF1B
:101A4000A181B28112960D90BC91A02DB283A18389
:101A500029543C4FA217B30731F412962D913C91B3
:101A600013973283218399E0949FF001959FF00DA5
:101A70001124EC54FC4F0180F281E02D2681378146
:101A80003093D9032093D80380937E030895CF9396
:101A9000DF93EB016091D8037091D903645F7F4FAE
:101AA0000E943A1261E0CE01DF91CF910C94790946
:101AB0001F93CF93DF93EB01142F6091D8037091A4
:101AC000D903645F7F4F0E941912112311F0CFEFE9
:101AD000DFEF612FCE01DF91CF911F910C94790937
:101AE0000F931F93CF93DF93DC011596ED91FC913B
:101AF0001697C681D7818E01045F1F4FC8010E94CF
:101B0000721280917403811114C00A501109C80126
:101B10000E9472128E8990917E03981710F4809320
:101B20007E03B9E08B9FC0011124B8018C549C4FF7
:101B300003C0B80185E993E00E941912E091D8032F
:101B4000F091D9039E898689891720F481E08093DA
:101B50007B0301C080E0DF91CF911F910F91089529
:101B600020917A03FC01208320917F033091800330
:101B7000328321830895CF93DF930FB6F8940F92A9
:101B800040917F0350918003DB012D913C912F3FC9
:101B9000BFEF3B07D9F0EC01E981FA81A0917A030C
:101BA000B881BA1719F04E175F0790F44E1B5F0B00
:101BB000FB014217530738F4241B350B3183208374
:101BC0000E94B00D03C01182108202C080E001C0EB
:101BD00081E00F900FBEDF91CF91089581E0809357
:101BE0007B03089580917D03882331F080917403F5
:101BF000882321F080E0089581E0089582E008952F
:101C00000F931F93CF93DF93FC01892B11F480E096
:101C10002CC082A1815082A3268991A12917B9F3F2
:101C20008111F5CFEF018F010E5F1F4FC8010E9498
:101C3000721289A18E8B482F50E024E030E0241BE3
:101C4000350B3D872C8790917E03981710F4809375
:101C50007E0329E0249FC001259F900D1124B80127
:101C60008C549C4F0E94191281E0DF91CF911F91FB
:101C70000F9108950FB6F8940F928091DE03909122
:101C8000DF03892BE9F48DEE93E00E94071284EEC6
:101C900093E00E9407128DEE93E09093E30380930C
:101CA000E20384EE93E09093E1038093E00340E04D
:101CB00065E08AE00E94E8149093DF038093DE03DE
:101CC0000F900FBE0895FC01738362839187808714
:101CD0004617570778F0421B530B848595854817A4
:101CE0005907C8F4BF016E5F7F4F8091E003909168
:101CF000E1030DC04217530718F46217730758F435
:101D0000BF016E5F7F4F8091E2039091E3030E94D9
:101D10003A1280E0089581E00895EF92FF920F93C8
:101D20000E943A0E8091DE039091DF03892B81F0AF
:101D30008CEDE82E83E0F82E03E020E030E045E56E
:101D400050E062E971E08DE39FE00E94030A01C068
:101D500080E00F91FF90EF9008950F931F93CF9322
:101D6000DF9300D000D01F92CDB7DEB7A091DE0385
:101D7000B091DF03109729F1F90169835B834A83EE
:101D80009D838C836630A4F40E94F20DE091DE0303
:101D9000F091DF0320E0823011F4A80102C040E09E
:101DA00050E0BE016F5F7F4FCF010E9410150AC047
:101DB00020E0AF01BE016F5F7F4FCD010E94A615ED
:101DC00001C080E00F900F900F900F900F90DF9167
:101DD000CF911F910F910895EF92FF920F931F9350
:101DE000CF93DF93E091E203F091E30380818823B6
:101DF00089F10580F681E02DE080F180C681D781F0
:101E00008E010E5F1F4FC8010E947212E889F98986
:101E1000CE0109958A8982FFE5CF8C859D858E0D3F
:101E20009F1DE816F90660F49B838A83D987C887CB
:101E3000B8018091E2039091E3030E943A12D2CF5D
:101E400000E010E020E030E0A70160E0CE010E9459
:101E5000AD0EC8CF8091E0039091E1039093E3032E
:101E60008093E203F093E103E093E003DF91CF91ED
:101E70001F910F91FF90EF900895CF93DF9300D0C3
:101E800000D01F92CDB7DEB7E091E203F091E303FB
:101E9000D080DD2031F00580F681E02DE080F180FA
:101EA00002C0E12CF12C0E94860B0E948C0B8C014D
:101EB0008091DA039091DB030817190720F40E9440
:101EC000EC0E81E001C080E01093DB030093DA03A5
:101ED000811155C0DD20D9F10E151F0508F43EC053
:101EE0000E94420CE091E203F091E3030580F68149
:101EF000E02DC680D780C60102960E947212D601DC
:101F000052968C91529782FF17C01C966D917C91CE
:101F10001D976E0D7F1D9701A801C6010E94630EDB
:101F2000882369F000E010E020E030E0A70160E0E5
:101F3000C6010E94AD0E03C08E7FF601828BD601D2
:101F40005096ED91FC915197C60109951EC0E09104
:101F5000E003F091E103808141E0811140E0B701AD
:101F6000601B710B8091DE039091DF030E94671666
:101F70000E94420C811109C00E943A1306C00E94BF
:101F8000420C03C0898187FF0EC040E050E0BE01D3
:101F90006F5F7F4F8091DE039091DF030E94D51524
:101FA0008111F0CF71CFEC80FD80F70182859385A0
:101FB000892B21F0C70102960E9472120E948C0B9D
:101FC0006C018091DA039091DB03C816D90610F4F6
:101FD0000E94EC0ED092DB03C092DA03E9810E2E50
:101FE000000CFF0BEA30F10580F6EC5CFF4FD701E7
:101FF00052968C910C94EE178160F701828B2A81A6
:102000003B8164857585620F731FA601C7010E941D
:10201000630E882309F4B9CFD7015096ED91FC9156
:102020005197C7010995F701828982FFAECF4A8196
:102030005B8184859585480F591F00E010E020E002
:1020400030E060E0C7010E94AD0E9FCF8160F701D4
:10205000828B6A817B81758764876C0D7D1D9601FB
:10206000A601C7010E94630E90CF81FD04C0C70185
:102070000E94F6118ACF8E7FD70152968C9385CF1E
:102080000E9409040E94580B08950E9438048DEBA9
:1020900094E0892B11F00C94BD040895259A2D9A93
:1020A0002FEF80E792E0215080409040E1F700C0A0
:1020B00000001D9AF5CF259A2D9A2FEF87EA91E619
:1020C000215080409040E1F700C000001D9AF5CFFC
:1020D0000F931F93FC018FEF80838183828383831F
:1020E00084838AE085831682DF011796739600E762
:1020F00017E120E030E048ED56ED60E070E00D9330
:102100001D932D933D9318964D935D936D937C9302
:102110001B97AE17BF0799F71F910F910895FF9274
:102120000F931F93CF93DF93EC01F62E042F122F02
:102130000E946810FB820C831883DF91CF911F915E
:102140000F91FF9008950895CF93DF93EC018B8159
:102150008F3FE9F09C819F3FD1F0613049F030F032
:10216000623041F0633099F461E009C060E007C07B
:1021700061E001C060E00E942F0961E003C00E949D
:102180002F0960E08C81DF91CF910C942F09DF91B2
:10219000CF910895CF93DF93EC0189818F3FE9F0D0
:1021A0009A819F3FD1F0613049F030F0623041F0C8
:1021B000633099F460E009C061E003C061E005C0EC
:1021C00060E00E942F0961E003C00E942F0960E0D7
:1021D0008A81DF91CF910C942F09DF91CF910895DF
:1021E000FC0120812F3F29F091E06927822F0C9478
:1021F0002F09662319F0FC01668101C063E00C948D
:10220000CA10DC01FB01309759F09B968C919B978B
:1022100080839C968C919C9781839D968C918283E0
:1022200008954F925F926F927F928F929F92AF929A
:10223000BF92DF92EF92FF920F931F93CF93DF93A2
:102240008C01095F1F4FEC017C0183E1E80EF11C5A
:10225000DD24DA94F801D8018D909D90AD90BD9069
:102260008D01808D918DA28DB38D9C01AD012819BA
:1022700039094A095B09AFEFB0E00E94F417F80191
:102280004084518462847384A3019201281939091E
:102290004A095B090E94CF1757FF02C01BA609C05D
:1022A0002F3F31054105510519F014F0DBA601C09F
:1022B0002BA721960E151F0569F6DF91CF911F916F
:1022C0000F91FF90EF90DF90BF90AF909F908F9015
:1022D0007F906F905F904F9008950F931F93CF93CF
:1022E000DF938C01C62F613049F018F06230D9F0CD
:1022F0004CC01092F60361E00E94F010E091F603EA
:10230000F0E0E656FE4F6081C8010E94A410F8017B
:10231000658170E088EE93E00E949917CB010E94DE
:102320008316C2E032C00E94FB16882371F1E0914F
:10233000F60381E08E0F8093F603F0E0E656FE4F41
:10234000C081D0E00E94FE169B01AC01CC0FDD1FC6
:10235000CC0FDD1FC00FD11FF801A581B0E00E9496
:10236000F4176F8F78A389A39AA38091F603833023
:1023700058F00E940C1760E0C8010E94F010C801DC
:102380000E941111C0E001C0C1E08C2FDF91CF91FC
:102390001F910F910895CF93DF93EC0160E00E94AD
:1023A0006D118EA7DF91CF910895CF93DF93EC014C
:1023B0006EA50E946D11982F8EA781E0911180E08B
:1023C000DF91CF910895CF93DF93EC010E94860BAC
:1023D000CE010E942218EC010E94420C209711F4B9
:1023E0000E944E10CE01DF91CF910895CF93DF93DD
:1023F000009751F0EC010E94860BCE010E94BA18A2
:10240000DF91CF910C94420CDF91CF910895FC01A4
:102410000396928381832FEF3FEF34832383968348
:1024200085839087878310820895FC01118610862A
:102430000895CF93DF939C01FB01DC011196CD91B0
:10244000DC911297D383C2838C819D819583848391
:102450008C819D81DC0113967C936E9312977D8312
:102460006C8331872087F90180818F5F8083DF91C2
:10247000CF9108950F931F93CF93DF938C01FB01AE
:10248000808191818F3F2FEF920721F4E801AF8186
:10249000B8850EC0D801139612962D913C911397D2
:1024A000E901488159818417950710F0D901F4CFCB
:1024B00012968D919C91139793838283EC01FD83F7
:1024C000EC83B583A4831396FC93EE931297118744
:1024D0000087F80180818F5F8083DF91CF911F910A
:1024E0000F910895CF93DF93FC01A085B185828180
:1024F000938124813581EC013D832C83C481D58176
:102500009B838A8311968D919C911297E817F90706
:1025100021F41296DC93CE931197118610868C913C
:1025200081508C938C91DF91CF91089531E1FC0122
:102530003083319722E220833197A3E3A083319740
:1025400060833197708331971082319760E86083A0
:1025500031971082319762E06083319763E0608346
:10256000319764E06083319765E06083319766E07E
:102570006083319767E06083319768E060833197CB
:1025800069E06083319760E16083319730833197F0
:1025900032E13083319733E13083319734E1308356
:1025A000319735E13083319736E13083319737E128
:1025B0003083319738E13083319739E13083319777
:1025C00030E23083319731E2308331972083319785
:1025D00023E220833197408331975083319726E25D
:1025E0002083319727E22083319728E22083319797
:1025F00029E22083319720E32083319721E3208350
:1026000086970895A89590EC88E10FB6F894A89560
:10261000809360000FBE90936000A091D803B091AA
:10262000D903CD91CDBFDD91DEBFFF91EF91DF9159
:10263000CF91BF91AF919F918F917F916F915F915A
:102640004F913F912F911F910F91FF90EF90DF904D
:10265000CF90BF90AF909F908F907F906F905F9042
:102660004F903F902F901F900F900FBE0F900895A6
:1026700081E008950F920FB6F8940F921F921124E3
:102680002F923F924F925F926F927F928F929F9282
:10269000AF92BF92CF92DF92EF92FF920F931F9370
:1026A0002F933F934F935F936F937F938F939F935A
:1026B000AF93BF93CF93DF93EF93FF93A091D80392
:1026C000B091D9030DB60D920EB60D920E94E90C91
:1026D000A091D803B091D903CD91CDBFDD91DEBFDC
:1026E000FF91EF91DF91CF91BF91AF919F918F912A
:1026F0007F916F915F914F913F912F911F910F911A
:10270000FF90EF90DF90CF90BF90AF909F908F9011
:102710007F906F905F904F903F902F901F900F9001
:102720000FBE0F9008950F920FB6F8940F921F925C
:1027300011242F923F924F925F926F927F928F92CD
:102740009F92AF92BF92CF92DF92EF92FF920F9340
:102750001F932F933F934F935F936F937F938F9329
:102760009F93AF93BF93CF93DF93EF93FF93A0918A
:10277000D803B091D9030DB60D920EB60D9213BECB
:102780000E94960B81110E94E90CA091D803B09190
:10279000D903CD91CDBFDD91DEBFFF91EF91DF91E8
:1027A000CF91BF91AF919F918F917F916F915F91E9
:1027B0004F913F912F911F910F91FF90EF90DF90DC
:1027C000CF90BF90AF909F908F907F906F905F90D1
:1027D0004F903F902F901F900F900FBE0F90089535
:1027E0000E94931318950FB6F8940F92FC01928DE6
:1027F0000F900FBE81E0911180E008950F931F9319
:10280000CF93DF93EC01042F1A8D4C8D41110BC037
:1028100088819981892BE9F58C819D810E94000E28
:102820001D821C8237C050E0011115C08A819B8136
:102830000E9443192C8D8A819B81820F911D9B835D
:102840008A832C813D818217930718F188819981B1
:102850009B838A831EC08E819F810E9443198C8D29
:1028600090E09195819591092E813F81280F391F24
:102870003F832E83488159812417350730F42C81FA
:102880003D81820F931F9F838E83023011F41111BB
:10289000115080E01F5F1A8FDF91CF911F910F9130
:1028A0000895FC01CB01448D4423A1F050E0268122
:1028B0003781240F351F378326836481758126175E
:1028C000370720F020813181378326836681778125
:1028D0000C9443190895EF92FF921F93CF93DF93C7
:1028E000EC010FB6F8940F921E8D7C0181E1E80E89
:1028F000F11C11165CF48989882341F0C7010E94FC
:10290000700D81110E94EE0D1150F3CF8FEF8E8F5D
:102910000F900FBE0FB6F8940F921D8D7E0188E0C8
:10292000E80EF11C11165CF48885882341F0C7017C
:102930000E94700D81110E94EE0D1150F3CF8FEFA8
:102940008D8F0F900FBEDF91CF911F91FF90EF9071
:102950000895CF93DF93EC010FB6F8940F9248815E
:1029600059818B8D7C8D9A01879F200D311D1124FB
:102970003D832C831A8E5B834A8390E00197789F76
:102980009001799F300D1124CA01820F931F9F83FC
:102990008E838FEF8D8F8E8F61110CC08885882379
:1029A00089F0CE0108960E94700D882359F00E948C
:1029B0003A1308C0CE0108960E940712CE01419634
:1029C0000E9407120F900FBE81E0DF91CF91089512
:1029D0000F931F93CF93DF93082F162F662321F0B9
:1029E000869FC001112402C080E090E04F960E94B3
:1029F000E311EC01009771F0111103C099838883F2
:102A000003C04F96998388830B8F1C8F61E0CE01A2
:102A10000E94A914CE01DF91CF911F910F910895CB
:102A2000AF92BF92CF92DF92FF920F931F93CF93FB
:102A3000DF9300D000D01F92CDB7DEB78C016B01C1
:102A40005D834C83F22E80E0580198E0A90EB11C02
:102A50000FB6F8940F92F801228D938D291718F074
:102A6000F2E0FF1214C04F2DB601C8010E94FE1300
:102A7000F8019189992321F0C80141960E94700DB7
:102A800081110E943A130F900FBE81E050C02C813B
:102A90003D81232B19F40F900FBE48C0811104C053
:102AA000CE0101960E94B00D0F900FBE0E94860BC2
:102AB0000FB6F8940F92F801858D8F3F09F4158EAB
:102AC000F801868D8F3F09F4168E0F900FBEBE0160
:102AD0006C5F7F4FCE0101960E94BB0D811121C01A
:102AE0000FB6F8940F92F801928D838D0F900FBE60
:102AF000981311C06C817D81C5010E94470DC801EA
:102B00000E946B140E94420C882311F081E0A0CF38
:102B10000E943A13FBCFC8010E946B140E94420C22
:102B2000F5CFC8010E946B140E94420C80E00F9008
:102B30000F900F900F900F90DF91CF911F910F91F9
:102B4000FF90DF90CF90BF90AF900895EF92FF92EB
:102B50001F93CF93DF93EC019A8D8B8D981710F014
:102B60002230E1F47A011E8D422FCE010E94FE1325
:102B70001F3F81F48989882379F0CE0141960E9414
:102B8000700D882349F0E114F10431F081E0F70180
:102B9000808305C01F5F1E8F81E001C080E0DF9150
:102BA000CF911F91FF90EF900895AF92BF92CF9277
:102BB000DF92FF920F931F93CF93DF9300D000D04B
:102BC0001F92CDB7DEB78C016B015D834C8380E033
:102BD000580191E1A90EB11C0FB6F8940F92F801BB
:102BE000F28CFF20A9F0B601C8010E945114FA949A
:102BF000F801F28E8085882339F0C80108960E947A
:102C0000700D81110E943A130F900FBE81E050C0E9
:102C10002C813D81232B19F40F900FBE48C08111E8
:102C200004C0CE0101960E94B00D0F900FBE0E940D
:102C3000860B0FB6F8940F92F801858D8F3F09F43B
:102C4000158EF801868D8F3F09F4168E0F900FBEFA
:102C5000BE016C5F7F4FCE0101960E94BB0D8111BA
:102C60001CC0C8010E94F313882389F06C817D8108
:102C7000C5010E94470DC8010E946B140E94420CBE
:102C8000882311F081E0A8CF0E943A13FBCFC8013E
:102C90000E946B140E94420CF5CFC8010E946B1475
:102CA0000E94420CC8010E94F313882359F380E06C
:102CB0000F900F900F900F900F90DF91CF911F9179
:102CC0000F91FF90DF90CF90BF90AF900895CF937A
:102CD000DF93EC010FB6F8940F928D8D8F3F09F4BE
:102CE0001D8E8E8D8F3F09F41E8E0F900FBE8A8D24
:102CF000811104C0CE0141960E94580DCE01DF9192
:102D0000CF910C946B14009709F474C01092F803DF
:102D10001092F7031092050410920404109200041C
:102D20001092010410920204109203041092FB030B
:102D30002091800020930A042091810020930904AF
:102D400010928100109280001092850010928400F1
:102D500021E026BB10926F002091B0002093080460
:102D60002091B100209307041092B10022E020933B
:102D7000B0009C0127703327232B51F443E0969534
:102D800087954A95E1F72CE72093B30027E018C018
:102D90009C0123703327232B31F4969587959695C4
:102DA000879529EF05C080FD07C0969587952CE78C
:102DB0002093B30026E004C02CE72093B30025E065
:102DC0002093060422E027BB1092B2009093FA03EE
:102DD0008093F9039FB7F89423BD809106048093F4
:102DE000B100209370008BE08150F1F787E0809371
:102DF00081009FBF08958091FB0308952FB7F89439
:102E00006091FC037091FD038091FE039091FF039C
:102E10001092FB032FBF0895E1EBF0E010821092B7
:102E20007000809108048093B00080910704808333
:102E3000E1E8F0E0108280910A04809380008091A4
:102E40000904808308951F920F920FB60F921124E8
:102E50000F931F932F933F934F935F936F937F93A2
:102E60008F939F93AF93BF932091840030918500FF
:102E7000B09B0BC081E086BB809104049091050457
:102E8000019690930504809304048091F703909138
:102E9000F80301964091F9035091FA0384179507BE
:102EA00098F11092F8031092F70380910404909126
:102EB0000504A0E0B0E0DC0199278827820F931F6A
:102EC000A11DB11D409100045091010460910204C4
:102ED000709103048C019D01041B150B260B370B0D
:102EE0000093FC031093FD032093FE033093FF0334
:102EF0008093000490930104A0930204B093030410
:102F000081E08093FB0304C09093F8038093F70360
:102F1000BF91AF919F918F917F916F915F914F91F1
:102F20003F912F911F910F910F900FBE0F901F9007
:102F3000189597FB072E16F4009407D077FD09D05B
:102F40000E94FF1707FC05D03EF4909581959F4F96
:102F50000895709561957F4F0895A1E21A2EAA1BDE
:102F6000BB1BFD010DC0AA1FBB1FEE1FFF1FA21739
:102F7000B307E407F50720F0A21BB30BE40BF50B36
:102F8000661F771F881F991F1A9469F760957095BF
:102F9000809590959B01AC01BD01CF010895052E50
:102FA00097FB1EF400940E94E61757FD07D00E947D
:102FB000AD1707FC03D04EF40C94E61750954095DE
:102FC000309521953F4F4F4F5F4F089590958095D5
:102FD000709561957F4F8F4F9F4F0895EE0FFF1FA4
:102FE0000590F491E02D09940E941318A59F900D6F
:102FF000B49F900DA49F800D911D11240895AA1BCC
:10300000BB1B51E107C0AA1FBB1FA617B70710F0D3
:10301000A61BB70B881F991F5A95A9F78095909505
:10302000BC01CD010895A29FB001B39FC001A39F31
:10303000700D811D1124911DB29F700D811D1124F1
:10304000911D08950F931F93CF93DF9382309105C5
:1030500010F482E090E0E0910D04F0910E0420E085
:1030600030E0A0E0B0E0309719F140815181028159
:10307000138148175907C8F08417950769F410970A
:1030800031F012960C93129713961C9327C000935D
:103090000D0410930E0422C02115310519F04217BA
:1030A000530718F49A01BD01EF01DF01F801DBCFEE
:1030B00021153105F9F0281B390B2430310580F436
:1030C0008A819B816115710521F0FB0193838283C5
:1030D00004C090930E0480930D04FE01329644C008
:1030E000FE01E20FF31F819391932250310939833E
:1030F00028833AC020910B0430910C04232B41F417
:10310000209102013091030130930C0420930B04B1
:1031100020910001309101012115310541F42DB7B5
:103120003EB74091040150910501241B350BE091FD
:103130000B04F0910C04E217F307A0F42E1B3F0BD5
:103140002817390778F0AC014E5F5F4F2417350719
:1031500048F04E0F5F1F50930C0440930B04819373
:10316000919302C0E0E0F0E0CF01DF91CF911F9199
:103170000F910895CF93DF93009709F481C0FC016C
:10318000329713821282A0910D04B0910E04109711
:1031900081F420813181820F931F20910B043091A3
:1031A0000C042817390751F5F0930C04E0930B0435
:1031B00067C0ED0120E030E0CE17DF0740F44A8120
:1031C0005B819E0141155105F1F0EA01F5CFD383F2
:1031D000C28340815181840F951FC817D90759F4C4
:1031E00088819981840F951F0296918380838A81BB
:1031F0009B81938382832115310529F4F0930E047A
:10320000E0930D043DC0E901FB83EA8349915991A4
:10321000C40FD51FEC17FD0761F480819181840FE5
:10322000951F0296E90199838883828193819B830C
:103230008A83E0E0F0E012968D919C9113970097BD
:1032400019F0FD01DC01F7CF8D919C9111979D0143
:103250002E5F3F4F820F931F20910B0430910C047F
:103260002817390769F4309729F410920E04109248
:103270000D0402C013821282B0930C04A0930B04BD
:10328000DF91CF910895FB01DC0102C001900D9206
:1032900041505040D8F70895DC0101C06D93415072
:1032A0005040E0F7089510E0C8E7D0E004C0FE0108
:1032B0000E94EE172196C937D107C9F7F894FFCFBE
:1032C00000000F04200000000000FF000000FF00CD
:1032D000000000000000FF0051005400000000004A
:1032E000A20019001900770777074352432069733A
:1032F000206E6F742076616C696421004465766984
:103300006365206973206E6F7420612044533138E7
:103310007832302066616D696C7920646576696306
:10332000652E00633A2000726561645F696E3A2021
:10333000000A00416D6D6F6E69610000000000EDD4
:10334000045F06AE043A0580049A048C0449444C98
:0E3350004500546D72205376630000010200A8
:00000001FF
