:100000000C9474000C949A0B0C94C10B0C949C00EF
:100010000C949C000C949C000C94881C0C942B1D3C
:100020000C949C000C949C000C949C000C949C00E0
:100030000C949C000C949C000C949C000C949C00D0
:100040000C94E80B0C949C000C9422090C94540919
:100050000C949C000C949C000C949C000C949C00B0
:100060000C949C000C949C00941894189418D31829
:10007000BE18CD1894189418D318BE180A466F7578
:100080006E64204D61746368696E6720436F6C6FA6
:1000900072000000000800020100000304070000D5
:1000A000000000000000010204081020408001024E
:1000B00004081020010204081020040404040404AD
:1000C000040402020202020203030303030300000A
:1000D0000000250028002B0000000000240027005D
:1000E0002A00C6058409D10511241FBECFEFD8E030
:1000F000DEBFCDBF11E0A0E0B1E0E4E6FFE302C067
:1001000005900D92AE3AB107D9F723E0AEEAB1E01F
:1001100001C01D92AE3EB207E1F710E0C3E7D0E0A8
:1001200004C02197FE010E942A1EC137D107C9F7DA
:100130000E94B1090C94A51F0C9400000C948F1F11
:10014000FC0180E090E0A8ECB1E4808B918BA28B65
:10015000B38B80E090E0A0EEB0E480839183A28333
:10016000B38384E19EE0AEEFB4E484839583A683F9
:10017000B78380E090E8ABEBB4E480879187A287F7
:10018000B38784879587A687B78708950895CF9208
:10019000DF92EF92FF920F931F93CF93DF93EC01C7
:1001A0007C0188E0E80EF11C670100E010E0C80166
:1001B0000E949E00F60181936F010F5F1F4F043074
:1001C0001105A9F761E271E08DEA92E00E94230A2D
:1001D000488559856A857B8522E030E08DEA92E08A
:1001E0000E94670B80E090E00E949E008F3F39F5EF
:1001F00081E090E00E949E008F3F09F582E090E050
:100200000E949E008F3FD9F483E090E00E949E0000
:100210008F3FA9F480E090E8ABEBB4E4888799873E
:10022000AA87BB8700E010E0F70161917F01C80158
:100230000E94971F0F5F1F4F04301105A9F77E0121
:10024000F4E0EF0EF11C670104E010E0C8010E9429
:100250009E00F60181936F010F5F1F4F083011055B
:10026000A9F762E371E08DEA92E00E94230A4C81D3
:100270005D816E817F8122E030E08DEA92E00E9414
:10028000670B84E090E00E949E008F3F31F585E08F
:1002900090E00E949E008F3F01F586E090E00E9472
:1002A0009E008F3FD1F487E090E00E949E008F3F38
:1002B000A1F484E19EE0AEEFB4E48C839D83AE8331
:1002C000BF83C4E0D0E0F70161917F01CE010E94BD
:1002D000971F2196C830D105B1F7DF91CF911F91BB
:1002E0000F91FF90EF90DF90CF9008954F925F9223
:1002F0006F927F928F929F92AF92BF92CF92DF9236
:10030000EF92FF92CF93DF93EC012A013B0120E0B3
:1003100030E84BEB54E4688579858A859B850E949B
:10032000D9054B015C0120E030E040E450E40E943C
:100330004B066B017C0120E030E84BEB54E46C8110
:100340007D818E819F810E94D90520E030E040E4CC
:1003500050E40E944B069B01AC01C701B6010E940C
:10036000D9059B01AC0160E070E080E490E40E945C
:100370004B066B017C019B01AC01C501B4010E94DD
:10038000740720E030E040E450E40E944B069B01FB
:10039000AC0160E070E080EE90E40E94D9054B0172
:1003A0005C0120E030E84BEB54E4C301B2010E9451
:1003B000D905A70196010E94740720E030E040E4CF
:1003C00050E40E944B069B01AC01C501B4010E94A0
:1003D000DA05688379838A839B83DF91CF91FF90CD
:1003E000EF90DF90CF90BF90AF909F908F907F90D5
:1003F0006F905F904F900895CF93DF9300D0CDB76B
:10040000DEB70E94FD129A83898360E08DE00E942E
:100410004E0D6AEB7BEDCE0101960E942214F5CFC2
:100420008091B6019091B7010C9480120F931F93A5
:10043000CF93DF93C9E8D2E0188219821A821B8217
:100440001C821D821E82A8E5B2E01D921D921D92A3
:100450001C92139714961C92149715961C9215973C
:1004600016961C921697E7E2F2E010821182128231
:10047000138214821582168240E050E060E87EE329
:100480004F83588769877A871B861C861D864AE9B1
:1004900059E969E17EE317964D935D936D937C93E3
:1004A0001A971B961C921B971C961C921C971D96C4
:1004B0001C921D9740E050E060E07FE34783508747
:1004C000618772871386148615864E875F87688BCF
:1004D000798B1A8A1B8A1C8A4AE959E969E97EE301
:1004E0001E964D935D936D937C93519752961C92FB
:1004F000529753961C92539754961C92549740E0EF
:1005000050E060E070E446875787608B718B128AF9
:10051000138A148A00E010E020E430E40D8B1E8B77
:100520002F8B388F198E1A8E1B8E40E050E060E8BA
:100530007FE355964D935D936D937C9358975996B1
:100540001C9259975A961C925A975B961C925B97ED
:1005500040E050E060EA70E4458B568B678B708F0B
:10056000118E128E138E40E050E060EC70E44C8FE0
:100570005D8F6E8F7F8F18A219A21AA240E050E003
:1005800060EC7FE35C964D935D936D937C935F97F6
:1005900090961C92909791961C92919792961C928D
:1005A000929740E050E060E271E4448F558F668F8F
:1005B000778F10A211A212A293960D931D932D93E3
:1005C0003C93969797961C92979798961C9298971B
:1005D00099961C92999700E010E020EA31E403A379
:1005E00014A325A336A317A210A611A69A964D937D
:1005F0005D936D937C939D979E961C929E979F967C
:100600001C929F97D0961C9280E090E0A8E4B2E400
:1006100082A793A7A4A7B5A716A617A610AADF912D
:10062000CF911F910F91089520911A0230E080918F
:100630001D0290E0AC014352510924173507F4F034
:10064000839682179307D4F020911B0230E0241781
:100650003507A4F0821793078CF020911C0230E03C
:10066000241735075CF08217930744F06CE770E0BD
:100670008DEA92E00E94FF0981E0089580E00895EC
:100680000F931F93CF93DF938091AC02813009F4D5
:1006900048C040F0823009F06EC008E512E0C6E0C4
:1006A000D0E029C009E812E0C4E0D0E087E0F8011A
:1006B0007C96A6E1B2E001900D928A95E1F70E9446
:1006C0001403882349F087E08C9FF0018D9FF00D83
:1006D0001124E757FD4F3EC0219707501109CF3F26
:1006E0008FEFD80719F742C0219707501109CF3F64
:1006F0008FEFD807D9F187E0F801BA96A6E1B2E00A
:1007000001900D928A95E1F70E941403882361F30A
:1007100087E08C9FF0018D9FF00D1124E85AFD4F6A
:1007200019C007E212E0C6E0D0E087E0F801BA960F
:10073000A6E1B2E001900D928A95E1F70E941403C0
:10074000882369F087E08C9FF0018D9FF00D1124C4
:10075000E95DFD4F30812181928183810BC021971A
:1007600007501109CF3F8FEFD807F9F630E020E0AE
:1007700090E88FEBAC01632F722F852F942FDF91C0
:10078000CF911F910F91089587EE91E00E94631A17
:1007900087EE91E00E946D1A8823D1F36DE172E03B
:1007A00087EE91E00E9499190C94400387EE91E046
:1007B0000E94631A87EE91E00E946D1A8823D1F39C
:1007C0006DE172E087EE91E00E94991987E0E0E226
:1007D000F2E0A6E1B2E001900D928A95E1F70C9467
:1007E0001403CF93DF9300D000D000D0CDB7DEB795
:1007F00049835A836B837C838D839E8369817A814D
:1008000082E00E948A0C6B817C8183E00E948A0CCA
:100810006D817E8184E026960FB6F894DEBF0FBE10
:10082000CDBFDF91CF910C948A0C0E94FD1261E044
:100830008DE00E94120D61E070E08091B80190910E
:10084000B9010E94F10F8130A9F50E94D6034091B1
:100850001601509117016091180170911901809152
:100860001A0190911B010E94F1031092AC028CEBD3
:1008700092E00E945A140E94C4034091E1015091F9
:10088000E2016091E3017091E4018091E5019091B2
:10089000E6010E94F10320E040E050E060E070E0FB
:1008A0008091B8019091B9010E949A0E80E090E089
:1008B0000E94CD1481E090E00E945A14BCCF0E94A7
:1008C000FD1261E08DE00E94120DC2E061E070E077
:1008D0008091B8019091B9010E94F10F8130A9F582
:1008E0000E94D603409110015091110160911201B4
:1008F0007091130180911401909115010E94F103F0
:10090000C093AC0280EA9FE00E945A140E94C40384
:100910004091E1015091E2016091E3017091E401A5
:100920008091E5019091E6010E94F10320E040E012
:1009300050E060E070E08091B8019091B9010E94B0
:100940009A0E80E090E00E94CD1481E090E00E9439
:100950005A14BCCF0E94FD1261E08DE00E94120D7E
:1009600061E070E08091B8019091B9010E94F10FAF
:10097000C82F8130A9F50E94D60340910A015091F9
:100980000B0160910C0170910D0180910E0190910D
:100990000F010E94F103C093AC0280EA9FE00E9425
:1009A0005A140E94C4034091E1015091E201609108
:1009B000E3017091E4018091E5019091E6010E94CC
:1009C000F10320E040E050E060E070E08091B80189
:1009D0009091B9010E949A0E80E090E00E94CD149F
:1009E00081E090E00E945A14BBCF61E082E00E9457
:1009F000120D61E083E00E94120D61E084E00E942C
:100A0000120D4091E1015091E2016091E30170917A
:100A1000E4018091E5019091E6010C94F1038AEBE9
:100A200091E00C94C7000F931F938FE00E946D0C10
:100A3000BC01990F880B990B0E94BF0620E030E0A3
:100A400040E85AE30E94740720E030E44CE955E4A2
:100A50000E947407AB01BC014093DD015093DE019D
:100A60006093DF017093E00100910601109107018E
:100A700020910801309109018AEB91E00E947601F2
:100A80006093D9017093DA018093DB019093DC01CC
:100A90001F910F910895CF93DF9300D0CDB7DEB7AC
:100AA0000E94FD129A8389830E940F050E941305FC
:100AB00060E08DE00E944E0D6AEB7BEDCE01019669
:100AC0000E942214F1CFEF92FF920F9326E040E8AC
:100AD00055E260E070E08DEA92E00E94BD080E945D
:100AE00016020E94F50443E050E060E172E080E00D
:100AF0000E947A0B86EBE82E81E0F82E02E020E0DF
:100B000030E040E850E065E571E085E194E00E9466
:100B1000741194EBE92E91E0F92E20E030E040E8EA
:100B200050E06DE571E08FE594E00E94741122EBD6
:100B3000E22E21E0F22E20E030E040E850E065E6D1
:100B400071E08AEA94E00E94741130EBE32E31E008
:100B5000F32E20E030E040E850E06DE671E08BE4F9
:100B600095E00E9474114EEAE42E41E0F42E20E05C
:100B700030E040E850E060E771E08CEF91E00E94E7
:100B800074110F91FF90EF900895089528E04DE0C3
:100B90006CE087EE91E00E9427198AEB91E00C94BB
:100BA000A0008AEB91E00E94C60087EE91E00C94D1
:100BB0003B195058BB27AA270E94F1050C94350712
:100BC0000E94270738F00E942E0720F039F49F3F3B
:100BD00019F426F40C9424070EF4E095E7FB0C942A
:100BE0001E07E92F0E94460758F3BA1762077307DA
:100BF0008407950720F079F4A6F50C9468070EF4A5
:100C0000E0950B2EBA2FA02D0B01B90190010C011C
:100C1000CA01A0011124FF27591B99F0593F50F434
:100C2000503E68F11A16F040A22F232F342F44278C
:100C3000585FF3CF469537952795A795F040539584
:100C4000C9F77EF41F16BA0B620B730B840BBAF054
:100C50009150A1F0FF0FBB1F661F771F881FC2F7BF
:100C60000EC0BA0F621F731F841F48F487957795D3
:100C70006795B795F7959E3F08F0B0CF9395880F8D
:100C800008F09927EE0F9795879508950E94FA0628
:100C900008F481E008950E945F060C9435070E94D5
:100CA0002E0758F00E94270740F029F45F3F29F0F3
:100CB0000C941E0751110C9469070C9424070E9490
:100CC000460768F39923B1F3552391F3951B550B10
:100CD000BB27AA2762177307840738F09F5F5F4F0F
:100CE000220F331F441FAA1FA9F335D00E2E3AF04E
:100CF000E0E832D091505040E695001CCAF72BD066
:100D0000FE2F29D0660F771F881FBB1F26173707B6
:100D10004807AB07B0E809F0BB0B802DBF01FF27E8
:100D200093585F4F3AF09E3F510578F00C941E07A0
:100D30000C9469075F3FE4F3983ED4F3869577956A
:100D40006795B795F7959F5FC9F7880F911D9695A1
:100D5000879597F90895E1E0660F771F881FBB1FFD
:100D6000621773078407BA0720F0621B730B840BAA
:100D7000BA0BEE1F88F7E0950895E89409C097FB39
:100D80003EF490958095709561957F4F8F4F9F4F62
:100D90009923A9F0F92F96E9BB279395F6958795A6
:100DA00077956795B795F111F8CFFAF4BB0F11F469
:100DB00060FF1BC06F5F7F4F8F4F9F4F16C0882310
:100DC00011F096E911C0772321F09EE8872F762F46
:100DD00005C0662371F096E8862F70E060E02AF087
:100DE0009A95660F771F881FDAF7880F9695879573
:100DF00097F90895990F0008550FAA0BE0E8FEEF48
:100E000016161706E807F907C0F012161306E407CE
:100E1000F50798F0621B730B840B950B39F40A26C7
:100E200061F0232B242B252B21F408950A2609F4A5
:100E3000A140A6958FEF811D811D089597F99F67A9
:100E400080E870E060E008959FEF80EC0895002452
:100E50000A941616170618060906089500240A941F
:100E600012161306140605060895092E0394000CA5
:100E700011F4882352F0BB0F40F4BF2B11F460FF34
:100E800004C06F5F7F4F8F4F9F4F089557FD90585D
:100E9000440F551F59F05F3F71F04795880F97FB3E
:100EA000991F61F09F3F79F08795089512161306F8
:100EB0001406551FF2CF4695F1DF08C01616170627
:100EC0001806991FF1CF869571056105089408955C
:100ED000E894BB2766277727CB0197F908950E94EE
:100EE000FA0608F48FEF08950E9487070C943507DF
:100EF0000E94270738F00E942E0720F0952311F05A
:100F00000C941E070C94240711240C9469070E946A
:100F1000460770F3959FC1F3950F50E0551F629FF0
:100F2000F001729FBB27F00DB11D639FAA27F00D42
:100F3000B11DAA1F649F6627B00DA11D661F829F69
:100F40002227B00DA11D621F739FB00DA11D621F4E
:100F5000839FA00D611D221F749F3327A00D611D6B
:100F6000231F849F600D211D822F762F6A2F11244D
:100F70009F5750409AF0F1F088234AF0EE0FFF1F80
:100F8000BB1F661F771F881F91505040A9F79E3FD7
:100F9000510580F00C941E070C9469075F3FE4F341
:100FA000983ED4F3869577956795B795F795E7952D
:100FB0009F5FC1F7FE2B880F911D9695879597F936
:100FC0000895FC01918D228D892F90E0805C9F4FC8
:100FD000821B91098F7399270895FC01918D828D51
:100FE000981731F0828DE80FF11D858D90E00895FE
:100FF0008FEF9FEF0895FC01918D828D981761F01E
:10100000828DDF01A80FB11D5D968C91928D9F5F3F
:101010009F73928F90E008958FEF9FEF0895FC01EA
:10102000538D448D252F30E0842F90E0821B930B4D
:10103000541710F0CF960895019708958AE799E024
:10104000892B49F080E090E0892B29F00E947A09F1
:1010500081110C9400000895FC01848DDF01A80F1C
:10106000B11DA35ABF4F2C91848D90E001968F73D0
:101070009927848FA689B7892C93A089B1898C91EF
:10108000837080648C93938D848D981306C002883E
:10109000F389E02D80818F7D80830895EF92FF9208
:1010A0000F931F93CF93DF93EC0181E0888F9B8D8B
:1010B0008C8D981305C0E889F989808185FD26C04B
:1010C000F62E0B8D10E00F5F1F4F0F731127E02ED0
:1010D0008C8DE8120CC00FB607FCFACFE889F989AD
:1010E000808185FFF5CFCE010E942C08F1CF8B8D3A
:1010F000FE01E80FF11DE35AFF4FF0829FB7F8940D
:101100000B8FEA89FB89808180620AC09FB7F894BF
:10111000EE89FF896083E889F98980818370806422
:1011200080839FBF81E090E0DF91CF911F910F916D
:10113000FF90EF900895CF93DF93EC01888D882383
:10114000C9F0EA89FB89808185FD05C0A889B98934
:101150008C9186FD0FC00FB607FCF5CF808185FF0F
:10116000F2CFA889B9898C9185FFEDCFCE010E947D
:101170002C08E7CFDF91CF910895CF92DF92EF92C5
:10118000FF921F93CF93DF93EC016A017B01122F33
:10119000E889F98982E080834115514E6105710526
:1011A000B1F060E079E08DE390E0A70196010E9444
:1011B000E91DDA01C9010197A109B109B695A79501
:1011C000979587959C01211580E13807A8F0E8895B
:1011D000F989108260E874E88EE190E0A701960139
:1011E0000E94E91DDA01C9010197A109B109B6956B
:1011F000A795979587959C01EC85FD853083EE85B5
:10120000FF852083188EEC89FD891083EA89FB898C
:10121000808180618083EA89FB8980818860808306
:10122000EA89FB89808180688083EA89FB898081E3
:101230008F7D8083DF91CF911F91FF90EF90DF90A2
:10124000CF9008951F920F920FB60F9211242F93F3
:101250008F939F93EF93FF93E091BD02F091BE02B5
:101260008081E091C302F091C40282FD12C090819E
:101270008091C6028F5F8F732091C702821751F051
:10128000E091C602F0E0E355FD4F958F8093C602D2
:1012900001C08081FF91EF919F918F912F910F90CD
:1012A0000FBE0F901F9018951F920F920FB60F92BE
:1012B00011242F933F934F935F936F937F938F935B
:1012C0009F93AF93BF93EF93FF938DEA92E00E94B9
:1012D0002C08FF91EF91BF91AF919F918F917F91DA
:1012E0006F915F914F913F912F910F900FBE0F9093
:1012F0001F9018958DEA92E00E94E10721E0892B6A
:1013000009F420E0822F0895EDEAF2E013821282C0
:1013100088EE93E0A0E0B0E084839583A683B78352
:1013200080E891E09183808385EC90E095878487C5
:1013300084EC90E09787868780EC90E0918B808B9F
:1013400081EC90E0938B828B82EC90E0958B848B88
:1013500086EC90E0978B868B118E128E138E148EF6
:1013600008950E94320C0E94D8180E946305CEE1B5
:10137000D8E00E94C5052097E1F30E941E08F9CF2E
:10138000CF92DF92EF92FF920F931F93CF93DF9351
:101390006C017A018B01C0E0D0E0CE15DF0581F051
:1013A000D8016D918D01D601ED91FC910190F081F4
:1013B000E02DC6010995892B11F02196EECF7E0113
:1013C000C701DF91CF911F910F91FF90EF90DF90B8
:1013D000CF9008956115710579F0FB01019000200F
:1013E000E9F73197AF01461B570BDC01ED91FC91FA
:1013F0000280F381E02D099480E090E00895EF925F
:10140000FF920F931F93CF93DF938C017B01C0E07A
:10141000D0E0F701EC0FFD1F6491662361F0D80165
:10142000ED91FC910190F081E02DC8010995892B87
:1014300011F02196EECFCE01DF91CF911F910F9148
:10144000FF90EF9008950C94EA09DC01ED91FC9176
:101450000190F081E02D09946EE871E00C94EA09A6
:101460008F929F92AF92BF92EF92FF920F931F9332
:10147000CF93DF93CDB7DEB7A1970FB6F894DEBF59
:101480000FBECDBF7C01FA01CB0119A2223008F4B6
:101490002AE08E010F5D1F4F822E912CA12CB12CC2
:1014A000BF01A50194010E94E91DF901CA01015083
:1014B00011096A3010F4605D01C0695CD8016C9359
:1014C000232B242B252B61F7B801C7010E94EA09C1
:1014D000A1960FB6F894DEBF0FBECDBFDF91CF91BE
:1014E0001F910F91FF90EF90BF90AF909F908F90C2
:1014F00008952115310541F4DC01ED91FC91019035
:10150000F081E02D642F09940C94300A9A01AB010C
:1015100060E070E00C94790A7F928F929F92AF9274
:10152000BF92CF92DF92EF92FF920F931F93CF93D0
:10153000DF938C016A017B01722E9A01AB01C70116
:10154000B6010E94D01D882319F061E971E027C01F
:1015500046015701E894B7F82FEF3FEF4FE75FE7F9
:10156000C501B4010E94D01D81110DC02FEF3FEFC6
:101570004FE75FE7C501B4010E94460618161CF448
:1015800065E971E00CC02FEF3FEF4FE75FE4C70163
:10159000B6010E946F07181694F469E971E0C8015A
:1015A000DF91CF911F910F91FF90EF90DF90CF903F
:1015B000BF90AF909F908F907F900C94EA092FEF8F
:1015C0003FEF4FE75FECC701B6010E94460687FD7B
:1015D000E4CF20E030E0A901C701B6010E94460631
:1015E00087FF0AC06DE2C8010E94250AEC01F7FAE4
:1015F000F094F7F8F09402C0C0E0D0E0B12C60E0C5
:1016000070E080E09FE37B1441F020E030E040E2B6
:1016100051E40E944B06B394F6CFA70196010E94B5
:10162000DA056B017C010E94A11D4B015C012AE0DF
:10163000AB01BC01C8010E94300AC80FD91F772036
:10164000B9F1C501B4010E94BD069B01AC01C701FF
:10165000B6010E94D9056B017C016EE2C8010E94AF
:10166000250AC80FD91F20E030E040E251E4C7014D
:10167000B6010E9474074B015C010E94A11D6B0121
:101680007C014AE050E0C8010E94860AC80FD91FB9
:10169000B60180E090E00E94BD069B01AC01C5014F
:1016A000B4010E94D9056B017C017A947110DBCFE3
:1016B000CE01DF91CF911F910F91FF90EF90DF90BE
:1016C000CF90BF90AF909F908F907F9008950F9391
:1016D0001F93CF93DF93EC010E948C0A8C01CE0103
:1016E0000E942C0A800F911FDF91CF911F910F91C3
:1016F000089508958230E8F4E82FF0E0EE0FFF1F20
:10170000E45EFE4F71836083813041F08091690017
:101710008C7F482B40936900E89A08958091690076
:10172000837F440F551F440F551F482B409369007A
:10173000E99A08951F920F920FB60F9211242F93DA
:101740003F934F935F936F937F938F939F93AF9349
:10175000BF93EF93FF93E0911C01F0911D01099558
:10176000FF91EF91BF91AF919F918F917F916F9179
:101770005F914F913F912F910F900FBE0F901F904F
:1017800018951F920F920FB60F9211242F933F932B
:101790004F935F936F937F938F939F93AF93BF9379
:1017A000EF93FF93E0911E01F0911F010995FF91C6
:1017B000EF91BF91AF919F918F917F916F915F91C9
:1017C0004F913F912F910F900FBE0F901F90189542
:1017D0001F920F920FB60F9211242F933F938F9366
:1017E0009F93AF93BF9380914B0390914C03A09133
:1017F0004D03B0914E0330914A0323E0230F2D3760
:1018000020F40196A11DB11D05C026E8230F029604
:10181000A11DB11D20934A0380934B0390934C0369
:10182000A0934D03B0934E0380914F0390915003CA
:10183000A0915103B09152030196A11DB11D809357
:101840004F0390935003A0935103B0935203BF9161
:10185000AF919F918F913F912F910F900FBE0F905D
:101860001F901895789484B5826084BD84B581609A
:1018700084BD85B5826085BD85B5816085BDEEE698
:10188000F0E0808181608083E1E8F0E01082808177
:1018900082608083808181608083E0E8F0E08081E5
:1018A00081608083E1EBF0E0808184608083E0EB05
:1018B000F0E0808181608083EAE7F0E080818460ED
:1018C0008083808182608083808181608083808149
:1018D000806880831092C10008958E3008F08E5089
:1018E0002091200190E4299F900111248770822B80
:1018F00080937C0080917A00806480937A0080914C
:101900007A0086FDFCCF809178002091790090E0EC
:10191000922B08951F93CF93DF93182FEB0161E073
:101920000E94120D209711F460E004C0CF3FD10552
:1019300039F461E0812FDF91CF911F910C944E0D0E
:10194000E12FF0E0EE56FF4FE491E330F9F048F478
:10195000E130B9F0E230A1F584B5806284BDC8BD44
:1019600034C0E730E9F0E83019F1E43049F580910E
:101970008000806280938000D0938B00C0938A00A7
:1019800024C084B5806884BDC7BD1FC0809180001D
:10199000806880938000D0938900C093880015C030
:1019A0008091B00080688093B000C093B3000DC0F8
:1019B0008091B00080628093B000C093B40005C0F5
:1019C000C038D1050CF0B5CFAFCFDF91CF911F91CB
:1019D0000895833081F028F4813099F08230A1F0AD
:1019E00008958730A9F08830B9F08430D1F480911F
:1019F00080008F7D03C0809180008F77809380006E
:101A0000089584B58F7702C084B58F7D84BD089515
:101A10008091B0008F7703C08091B0008F7D80935C
:101A2000B0000895CF93DF9390E0FC01EA55FF4F9B
:101A30002491FC01E654FF4F8491882361F190E0EA
:101A4000880F991FFC01E852FF4FC591D491FC010A
:101A5000E253FF4FA591B491611109C09FB7F8946B
:101A60008881209582238883EC912E230BC06230DD
:101A700061F49FB7F8948881322F3095832388834F
:101A8000EC912E2B2C939FBF06C08FB7F894E88162
:101A90002E2B28838FBFDF91CF9108951F93CF9373
:101AA000DF93282F30E0F901EE56FF4F8491F901C2
:101AB000EA55FF4FD491F901E654FF4FC491CC236E
:101AC000C1F0162F81110E94E90CEC2FF0E0EE0F0F
:101AD000FF1FE253FF4FA591B4919FB7F8941111E6
:101AE00004C08C91D095D82302C0EC91DE2BDC93FE
:101AF0009FBFDF91CF911F9108950FB6F8940F9279
:101B0000FC01928D0F900FBE81E0911180E008954D
:101B10000F931F93CF93DF93EC01042F1A8D4C8DFD
:101B200041110BC088819981892BE9F58C819D81B8
:101B30000E943F161D821C8237C050E0011115C063
:101B40008A819B810E947F1F2C8D8A819B81820FBD
:101B5000911D9B838A832C813D818217930718F105
:101B6000888199819B838A831EC08E819F810E9478
:101B70007F1F8C8D90E09195819591092E813F81F9
:101B8000280F391F3F832E83488159812417350739
:101B900030F42C813D81820F931F9F838E8302300E
:101BA00011F41111115080E01F5F1A8FDF91CF9156
:101BB0001F910F910895FC01CB01448D4423A1F0A6
:101BC00050E026813781240F351F378326836481B7
:101BD00075812617370720F02081318137832683CE
:101BE000668177810C947F1F0895EF92FF921F9377
:101BF000CF93DF93EC010FB6F8940F921E8D7C010A
:101C000081E1E80EF11C11165CF48989882341F00A
:101C1000C7010E944C1581110E94CA151150F3CFC3
:101C20008FEF8E8F0F900FBE0FB6F8940F921D8D11
:101C30007E0188E0E80EF11C11165CF4888588238B
:101C400041F0C7010E944C1581110E94CA15115024
:101C5000F3CF8FEF8D8F0F900FBEDF91CF911F913C
:101C6000FF90EF900895CF93DF93EC010FB6F894B7
:101C70000F92488159818B8D7C8D9A01879F200D11
:101C8000311D11243D832C831A8E5B834A8390E09F
:101C90000197789F9001799F300D1124CA01820F1E
:101CA000931F9F838E838FEF8D8F8E8F61110CC05A
:101CB0008885882389F0CE0108960E944C158823D8
:101CC00059F00E94D21B08C0CE0108960E949F1AAC
:101CD000CE0141960E949F1A0F900FBE81E0DF91C6
:101CE000CF9108950F931F93CF93DF93082F162F53
:101CF000662321F0869FC001112402C080E090E09D
:101D00004F960E947B1AEC01009771F0111103C0ED
:101D10009983888303C04F96998388830B8F1C8F88
:101D200061E0CE010E94330ECE01DF91CF911F9171
:101D30000F910895AF92BF92CF92DF92FF920F93CF
:101D40001F93CF93DF9300D000D01F92CDB7DEB7A3
:101D50008C016B015D834C83F22E80E0580198E08A
:101D6000A90EB11C0FB6F8940F92F801228D938D35
:101D7000291718F0F2E0FF1214C04F2DB601C80168
:101D80000E94880DF8019189992321F0C80141969C
:101D90000E944C1581110E94D21B0F900FBE81E052
:101DA00050C02C813D81232B19F40F900FBE48C0E9
:101DB000811104C0CE0101960E948C150F900FBEB8
:101DC0000E94F7120FB6F8940F92F801858D8F3F9D
:101DD00009F4158EF801868D8F3F09F4168E0F9049
:101DE0000FBEBE016C5F7F4FCE0101960E9497151A
:101DF000811121C00FB6F8940F92F801928D838D56
:101E00000F900FBE981311C06C817D81C5010E9497
:101E10002315C8010E94F50D0E94B313882311F009
:101E200081E0A0CF0E94D21BFBCFC8010E94F50D1C
:101E30000E94B313F5CFC8010E94F50D0E94B313A1
:101E400080E00F900F900F900F900F90DF91CF9147
:101E50001F910F91FF90DF90CF90BF90AF900895AA
:101E6000EF92FF921F93CF93DF93EC019A8D8B8DAE
:101E7000981710F02230E1F47A011E8D422FCE0126
:101E80000E94880D1F3F81F48989882379F0CE0153
:101E900041960E944C15882349F0E114F10431F079
:101EA00081E0F701808305C01F5F1E8F81E001C0C4
:101EB00080E0DF91CF911F91FF90EF900895AF9256
:101EC000BF92CF92DF92FF920F931F93CF93DF9336
:101ED00000D000D01F92CDB7DEB78C016B015D83BF
:101EE0004C8380E0580191E1A90EB11C0FB6F89423
:101EF0000F92F801F28CFF20A9F0B601C8010E94F0
:101F0000DB0DFA94F801F28E8085882339F0C80140
:101F100008960E944C1581110E94D21B0F900FBE93
:101F200081E050C02C813D81232B19F40F900FBE0E
:101F300048C0811104C0CE0101960E948C150F90FB
:101F40000FBE0E94F7120FB6F8940F92F801858D1C
:101F50008F3F09F4158EF801868D8F3F09F4168E98
:101F60000F900FBEBE016C5F7F4FCE0101960E94A5
:101F7000971581111CC0C8010E947D0D882389F02E
:101F80006C817D81C5010E942315C8010E94F50D59
:101F90000E94B313882311F081E0A8CF0E94D21BC6
:101FA000FBCFC8010E94F50D0E94B313F5CFC80105
:101FB0000E94F50D0E94B313C8010E947D0D882375
:101FC00059F380E00F900F900F900F900F90DF91DA
:101FD000CF911F910F91FF90DF90CF90BF90AF9066
:101FE0000895CF92DF92FF920F931F93CF93DF93C9
:101FF00000D000D01F92CDB7DEB78C017D836C83FB
:10200000F12C90E0680181E1C80ED11C0FB6F89464
:102010000F92D8015A968C915A978823E9F08150F3
:102020005A968C935A978D919C91892B29F40E94F2
:10203000C016F80195838483D80118968C91882363
:1020400039F0C80108960E944C1581110E94D21BDC
:102050000F900FBE81E07AC02C813D81232B09F4C3
:1020600072C0911104C0CE0101960E948C150F9090
:102070000FBE0E94F7120FB6F8940F92F801858DEB
:102080008F3F09F4158ED8015E968C915E978F3F35
:1020900011F45E961C920F900FBEBE016C5F7F4FD5
:1020A000CE0101960E94971581112BC0C8010E9494
:1020B0007D0D882301F1F80180819181892B51F4F4
:1020C0000FB6F8940F92848195810E94DC15F82E4A
:1020D0000F900FBE6C817D81C6010E942315C8013F
:1020E0000E94F50D0E94B313882311F091E08ECF6A
:1020F0000E94D21BFBCFC8010E94F50D0E94B313B2
:10210000F5CFC8010E94F50D0E94B313C8010E94CB
:102110007D0D882359F3FF20C1F00FB6F8940F927C
:10212000F8018189882339F00688F789E02D8081BC
:1021300064E0681B01C060E0D80114968D919C9109
:1021400015970E9479160F900FBE80E00F900F90A8
:102150000F900F900F90DF91CF911F910F91FF90F3
:10216000DF90CF900895CF93DF93EC010FB6F894F2
:102170000F928D8D8F3F09F41D8E8E8D8F3F09F448
:102180001E8E0F900FBE8A8D811104C0CE01419624
:102190000E943415CE01DF91CF910C94F50DE091A2
:1021A0007F03F09180038081811103C08FEF9FEF47
:1021B0000CC0E0917F03F09180030580F681E02D53
:1021C0000680F781E02D828193819093570380935D
:1021D00056030895FF920F931F93CF93DF93EC0163
:1021E000F62E00915E0310915F038091B7039091EA
:1021F000B80302960E940A1BCF3F8FEFD80789F4DD
:10220000FF2079F06091B7037091B8036E5F7F4F44
:1022100081E693E0DF91CF911F910F91FF900C9495
:10222000B11AC00FD11FE091B703F091B803D38367
:10223000C2836091B7037091B803C017D10768F4E7
:1022400080917D0390917E036E5F7F4FDF91CF91F0
:102250001F910F91FF900C94D21A80917F0390915F
:1022600080036E5F7F4F0E94D21A80915603909137
:102270005703C817D90720F4D0935703C0935603C8
:10228000DF91CF911F910F91FF90089580916A0384
:10229000882309F10FB6F8940F92E0917003F09142
:1022A0007103C681D781CE0102960E940A1B8091DC
:1022B000600381508093600380916A038150809312
:1022C0006A030F900FBE8F89988D0E948E1ACE01DF
:1022D0000E948E1ADBCF80919303823010F00E940F
:1022E000D21B0E94DD18D2CF5F926F927F928F92A5
:1022F0009F92AF92BF92CF92DF92EF92FF920F9395
:102300001F93CF93DF933C016B015A014901502E7B
:10231000CA010E947B1A8C01892B09F4E0C088E273
:1023200090E00E947B1AEC01892BC9F0188F0F8B6B
:10233000A50165EA70E0C8010E94881F21E0A21A89
:10234000B1088F89988DA80EB91EC114D104C9F0A7
:10235000BE01675E7F4FF601C601089607C0C8013F
:102360000E948E1ABCC0E817F90749F09F014191FD
:10237000DB014D93BD01D9012C912111F4CF18A29D
:1023800001C0198E052D043008F003E00E8B09A35F
:102390001AA26E01B2E0CB0ED11CC6010E94AD1A8A
:1023A000CE010C960E94AD1AD987C88784E090E0D0
:1023B000801B91099D878C87DB8BCA8B1BA21CA27B
:1023C0001DA21EA21FA2A401B301C5010E942E1BC3
:1023D00099838883E114F10419F0F701D183C08354
:1023E0000FB6F8940F92809160038F5F8093600323
:1023F0008091B7039091B803892BD1F5D093B8039E
:10240000C093B70380916003813009F041C083E934
:1024100093E00E949F1A8CE993E00E949F1A85EA3C
:1024200093E00E949F1A8EEA93E00E949F1A8AE826
:1024300093E00E949F1A81E893E00E949F1A84E72C
:1024400093E00E949F1A8BE693E00E949F1A81E618
:1024500093E00E949F1A8AE893E090938003809310
:102460007F0381E893E090937E0380937D0310C007
:1024700080915C0381110CC0E091B703F091B80327
:1024800096898E89891720F0D093B803C093B7033B
:10249000809158038F5F809358038E8990915D03DC
:1024A000981710F480935D03F9E08F9FC001112409
:1024B000B6018D569C4F0E94B11A0F900FBE8091AD
:1024C0005C03882351F0E091B703F091B80396893B
:1024D0008E89981710F40E94D21B81E001C08FEF03
:1024E000DF91CF911F910F91FF90EF90DF90CF90F0
:1024F000BF90AF909F908F907F906F905F90089566
:102500000F931F93CF93DF932091B7033091B803BC
:102510008217930709F438C0009709F435C00FB645
:10252000F8940F92FC01228533852156334051F5F2
:10253000FC0124893589F3E024373F0719F1232B67
:1025400009F5EC018C010E5F1F4FC8010E940A1BA8
:102550008E8990915D03981710F480935D0329E0B4
:10256000829FC0011124B8018D569C4F0E94B11A60
:10257000E091B703F091B8039E898689981710F00F
:102580000E94D21B0F900FBEDF91CF911F910F9130
:102590000895EF92FF920F9384E5E82E83E0F82EE2
:1025A00000E020E030E040EC50E06DE971E086E4CE
:1025B00091E10E9474118130B1F40E94251781309D
:1025C00091F4F8942FEF3FEF309357032093560385
:1025D00080935C0310925F0310925E030F91FF9053
:1025E000EF900C949A1B0F91FF90EF9008958091BB
:1025F00053038F5F8093530308950FB6F8940F929F
:1026000080915E0390915F030F900FBE0895CF926B
:10261000DF92EF92FF920F931F93CF93DF938091FE
:10262000530381118CC000915E0310915F030F5F13
:102630001F4F10935F0300935E0301151105B9F45A
:1026400080917F039091800320917D0330917E03E0
:102650003093800320937F0390937E0380937D03C8
:10266000809159038F5F809359030E94CF1080910E
:10267000560390915703C0E00817190708F44FC09C
:10268000D9E0E0917F03F09180038081811103C044
:102690008FEF9FEF11C0E0917F03F09180030580E1
:1026A000F681E02DE680F780D70112968D919C91FE
:1026B00013970817190728F490935703809356032C
:1026C0002EC06701B2E0CB0ED11CC6010E940A1BCE
:1026D000F70184899589892B21F0C7010C960E9406
:1026E0000A1BD70156968C9190915D03981710F4B0
:1026F00080935D03D89FC0011124B6018D569C4F75
:102700000E94B11AE091B703F091B803D701569631
:102710009C918689981708F4B4CFC1E0B2CFE091BC
:10272000B703F091B803E689B9E0EB9FF0011124FB
:10273000ED56FC4F8081823040F0C1E006C08091B0
:102740005B038F5F80935B03C0E080915A0381112C
:10275000C1E08C2FDF91CF911F910F91FF90EF90EF
:10276000DF90CF900895EF92FF920F931F93CF9336
:10277000DF930FB6F8940F928091530381508093AA
:10278000530380915303882311F080E052C080915D
:1027900060038823D1F3C0E0D0E089E0F82EEE2476
:1027A000E39480917403882351F1E0917903F091CF
:1027B0007A03C681D781CE010C960E940A1B8E0136
:1027C0000E5F1F4FC8010E940A1B8E8990915D0306
:1027D000981710F480935D03F89EC0011124B8018E
:1027E0008D569C4F0E94B11AE091B703F091B80347
:1027F0009E8986899817A8F2E0925A03D2CFCD2BF2
:1028000011F00E94CF10C0915B03CC2351F0D1E0B6
:102810000E9407138111D0935A03C150C9F7109237
:102820005B0380915A03882309F4AFCF0E94D21B27
:1028300081E00F900FBEDF91CF911F910F91FF901C
:10284000EF9008950F931F93CF93DF938C01EB01CB
:102850000E94F71240915E0350915F03F8012081BE
:102860003181C9018C0F9D1F4217530720F4821735
:10287000930740F403C08217930730F021E0481714
:10288000590718F020E001C021E0F801918380830E
:10289000222329F060E0841B950B0E94EA100E941D
:1028A000B313811102C00E94D21BDF91CF911F91FF
:1028B0000F910895CF93DF93EC01892B19F40E94B7
:1028C000D21B0AC00E94F71260E0CE010E94EA10FB
:1028D0000E94B313882399F3DF91CF9108958091DB
:1028E0005303882321F081E080935A0308951092C6
:1028F0005A03A091B703B091B803E091B703F091E8
:10290000B8032D913C918789908D8217930760F0D1
:102910006091B7037091B8038091B7039091B803A9
:10292000675E7F4F0E94F31880915D0369E0482F36
:1029300050E0649F9001659F300D1124F901ED5620
:10294000FC4F9081911102C08150F1CFA181B281E1
:1029500012960D90BC91A02DB283A1832A563C4FB4
:10296000A217B30731F412962D913C91139732833D
:10297000218399E0949FF001959FF00D1124ED566D
:10298000FC4F0180F281E02D268137813093B8031E
:102990002093B70380935D0308950F931F93CF9304
:1029A000DF93EC010FB6F8940F92892B21F4C091BC
:1029B000B703D091B8038E010E5F1F4FC8010E946C
:1029C0000A1B8C899D89892B21F0CE010C960E94CF
:1029D0000A1BB80181E693E00E94B11A8FA18130F1
:1029E00009F41FA20F900FBE80915C03882339F079
:1029F0000FB6F8940F920E94CF100F900FBE8091E7
:102A0000B7039091B803C817D907C1F480915C034C
:102A1000882319F00E94D21B11C09091610380910C
:102A20006003981305C01092B8031092B70306C054
:102A3000DF91CF911F910F910C946F14DF91CF9183
:102A40001F910F910895CF93DF93EB016091B7032E
:102A50007091B803645F7F4F0E94D21A61E0CE018B
:102A6000DF91CF910C94EA101F93CF93DF93EB018A
:102A7000142F6091B7037091B803645F7F4F0E9479
:102A8000B11A112311F0CFEFDFEF612FCE01DF91EB
:102A9000CF911F910C94EA100F931F93CF93DF9364
:102AA000DC011596ED91FC911697C681D7818E01B8
:102AB000045F1F4FC8010E940A1B809153038111BC
:102AC00014C00A501109C8010E940A1B8E899091F6
:102AD0005D03981710F480935D03B9E08B9FC001EC
:102AE0001124B8018D569C4F03C0B80184E793E0D0
:102AF0000E94B11AE091B703F091B8039E898689CC
:102B0000891720F481E080935A0301C080E0DF91AF
:102B1000CF911F910F91089520915903FC012083BB
:102B200020915E0330915F03328321830895CF9318
:102B3000DF930FB6F8940F9240915E0350915F03BC
:102B4000DB012D913C912F3FBFEF3B07D9F0EC010A
:102B5000E981FA81A0915903B881BA1719F04E178B
:102B60005F0790F44E1B5F0BFB014217530738F4CD
:102B7000241B350B318320830E948C1503C01182E6
:102B8000108202C080E001C081E00F900FBEDF9193
:102B9000CF91089581E080935A03089580915C035A
:102BA000882331F080915303882321F080E0089539
:102BB00081E0089582E008950F931F93CF93DF93F0
:102BC000FC01892B09F455C08689A091B703B09107
:102BD000B80356969C91891708F041C02485358525
:102BE00037FD0CC0A091B703B091B80356969C91E5
:102BF00024E030E0291B31093587248729E0829FB2
:102C0000C00111248D569C4F228533852817390722
:102C1000E9F48F01EF012296CE010E940A1BE09198
:102C2000B703F091B8038689F801868B90915D0314
:102C3000981710F480935D03F9E08F9FC001112471
:102C4000BE018D569C4F0E94B11A07C0A091B703D8
:102C5000B091B80356968C91868B81E00BC0A09101
:102C6000B703B091B80381E021A156969C91291732
:102C700008F080E0DF91CF911F910F9108950F939D
:102C80001F93CF93DF93FC01892B11F480E02CC0BC
:102C900082A1815082A3268991A12917B9F38111BC
:102CA000F5CFEF018F010E5F1F4FC8010E940A1B75
:102CB00089A18E8B482F50E024E030E0241B350B97
:102CC0003D872C8790915D03981710F480935D03E6
:102CD00029E0249FC001259F900D1124B8018D5635
:102CE0009C4F0E94B11A81E0DF91CF911F910F910B
:102CF00008950F931F93CF93DF93FC01892BD9F194
:102D000091A1961708F4962F86898917A1F122A11F
:102D1000213089F5968B2485358537FD06C024E062
:102D200030E0291B31093587248729E0829FC001C3
:102D300011248D569C4F2285338528173907D9F4E5
:102D4000EF018F010E5F1F4FC8010E940A1B8E8981
:102D500090915D03981710F480935D0329E0829FA2
:102D6000C0011124B8018D569C4FDF91CF911F9166
:102D70000F910C94B11ADF91CF911F910F9108958B
:102D80008091B7039091B803892B39F0E091B70394
:102D9000F091B80382A18F5F82A38091B7039091D5
:102DA000B80308950FB6F8940F928091BD039091E7
:102DB000BE03892BE9F48CEC93E00E949F1A83EC0C
:102DC00093E00E949F1A8CEC93E09093C20380934F
:102DD000C10383EC93E09093C0038093BF0340E072
:102DE00065E08AE00E94720E9093BE038093BD035B
:102DF0000F900FBE0895FC017383628391878087D3
:102E00004617570778F0421B530B84859585481762
:102E10005907C8F4BF016E5F7F4F8091BF03909147
:102E2000C0030DC04217530718F46217730758F414
:102E3000BF016E5F7F4F8091C1039091C2030E94DA
:102E4000D21A80E0089581E00895EF92FF920F93E7
:102E50000E94D2168091BD039091BE03892B81F010
:102E60008BEBE82E83E0F82E03E020E030E045E530
:102E700050E062EA71E085ED97E10E94741101C0B3
:102E800080E00F91FF90EF9008950F931F93CF93E1
:102E9000DF9300D000D01F92CDB7DEB7A091BD0365
:102EA000B091BE03109729F1F90169835B834A83CE
:102EB0009D838C836630A4F40E94CE15E091BD03FF
:102EC000F091BE0320E0823011F4A80102C040E07E
:102ED00050E0BE016F5F7F4FCF010E949A0E0AC083
:102EE00020E0AF01BE016F5F7F4FCD010E94300F28
:102EF00001C080E00F900F900F900F900F90DF9126
:102F0000CF911F910F910895EF92FF920F931F930E
:102F1000CF93DF93E091C103F091C20380818823B6
:102F200089F10580F681E02DE080F180C681D781AE
:102F30008E010E5F1F4FC8010E940A1BE889F989A4
:102F4000CE0109958A8982FFE5CF8C859D858E0DFE
:102F50009F1DE816F90660F49B838A83D987C8878A
:102F6000B8018091C1039091C2030E94D21AD2CFBE
:102F700000E010E020E030E0A70160E0CE010E9418
:102F80004517C8CF8091BF039091C0039093C203AF
:102F90008093C103F093C003E093BF03DF91CF910F
:102FA0001F910F91FF90EF900895CF93DF9300D082
:102FB00000D01F92CDB7DEB7E091C103F091C203FC
:102FC000D080DD2031F00580F681E02DE080F180B9
:102FD00002C0E12CF12C0E94F7120E94FD128C011C
:102FE0008091B9039091BA030817190720F40E9441
:102FF000841781E001C080E01093BA030093B90305
:10300000811155C0DD20D9F10E151F0508F43EC011
:103010000E94B313E091C103F091C2030580F681D1
:10302000E02DC680D780C60102960E940A1BD601F9
:1030300052968C91529782FF17C01C966D917C918D
:103040001D976E0D7F1D9701A801C6010E94FB16FA
:10305000882369F000E010E020E030E0A70160E0A4
:10306000C6010E94451703C08E7FF601828BD601F0
:103070005096ED91FC915197C60109951EC0E091C3
:10308000BF03F091C003808141E0811140E0B701AE
:10309000601B710B8091BD039091BE030E94B31021
:1030A0000E94B313811109C00E94D21B06C00E9466
:1030B000B31303C0898187FF0EC040E050E0BE011A
:1030C0006F5F7F4F8091BD039091BE030E945F0FA1
:1030D0008111F0CF71CFEC80FD80F701828593855F
:1030E000892B21F0C70102960E940A1B0E94FD1243
:1030F0006C018091B9039091BA03C816D90610F4F7
:103100000E948417D092BA03C092B903E9810E2EAF
:10311000000CFF0BEA30F10580F6EC5CFF4FD701A5
:1031200052968C910C942A1E8160F701828B2A8121
:103130003B8164857585620F731FA601C7010E94DC
:10314000FB16882309F4B9CFD7015096ED91FC9175
:103150005197C7010995F701828982FFAECF4A8155
:103160005B8184859585480F591F00E010E020E0C1
:1031700030E060E0C7010E9445179FCF8160F701F2
:10318000828B6A817B81758764876C0D7D1D9601BA
:10319000A601C7010E94FB1690CF81FD04C0C701A4
:1031A0000E948E1A8ACF8E7FD70152968C9385CF3C
:1031B0000E9463050E94C91208950E94C5058EE110
:1031C00098E0892B11F00C941E080895259A2D9AE9
:1031D0002FEF80E792E0215080409040E1F700C05F
:1031E00000001D9AF5CF259A2D9A2FEF87EA91E6D8
:1031F000215080409040E1F700C000001D9AF5CFBB
:103200000F931F93FC018FEF8083818382838383DD
:1032100084838AE085831682DF011796739600E720
:1032200017E120E030E048ED56ED60E070E00D93EE
:103230001D932D933D9318964D935D936D937C93C1
:103240001B97AE17BF0799F71F910F910895FF9233
:103250000F931F93CF93DF93EC01F62E042F122FC1
:103260000E940019FB820C831883DF91CF911F917C
:103270000F91FF9008950895CF93DF93EC018B8118
:103280008F3FE9F09C819F3FD1F0613049F030F0F1
:10329000623041F0633099F461E009C060E007C03A
:1032A00061E001C060E00E944E0D61E003C00E9439
:1032B0004E0D60E08C81DF91CF910C944E0DDF912B
:1032C000CF910895CF93DF93EC0189818F3FE9F08F
:1032D0009A819F3FD1F0613049F030F0623041F087
:1032E000633099F460E009C061E003C061E005C0AB
:1032F00060E00E944E0D61E003C00E944E0D60E050
:103300008A81DF91CF910C944E0DDF91CF9108957A
:10331000FC0120812F3F29F091E06927822F0C9436
:103320004E0D662319F0FC01668101C063E00C9428
:103330006219DC01FB01309759F09B968C919B97A9
:1033400080839C968C919C9781839D968C9182839F
:1033500008954F925F926F927F928F929F92AF9259
:10336000BF92DF92EF92FF920F931F93CF93DF9361
:103370008C01095F1F4FEC017C0183E1E80EF11C19
:10338000DD24DA94F801D8018D909D90AD90BD9028
:103390008D01808D918DA28DB38D9C01AD01281979
:1033A00039094A095B09AFEFB0E00E94301EF8010D
:1033B0004084518462847384A301920128193909DD
:1033C0004A095B090E940B1E57FF02C01BA609C0D9
:1033D0002F3F31054105510519F014F0DBA601C05E
:1033E0002BA721960E151F0569F6DF91CF911F912E
:1033F0000F91FF90EF90DF90BF90AF909F908F90D4
:103400007F906F905F904F9008950F931F93CF938D
:10341000DF938C01C62F613049F018F06230D9F08B
:103420004CC01092D50361E00E948819E091D50349
:10343000F0E0E655FE4F6081C8010E943C19F8019A
:10344000658170E088EE93E00E94D51DCB010E945B
:103450008B1CC2E032C00E94031D882371F1E091F1
:10346000D50381E08E0F8093D503F0E0E655FE4F43
:10347000C081D0E00E94061D9B01AC01CC0FDD1F76
:10348000CC0FDD1FC00FD11FF801A581B0E00E9455
:10349000301E6F8F78A389A39AA38091D5038330C0
:1034A00058F00E94141D60E0C8010E948819C801EC
:1034B0000E94A919C0E001C0C1E08C2FDF91CF911B
:1034C0001F910F910895CF93DF93EC0160E00E946C
:1034D000051A8EA7DF91CF910895CF93DF93EC016A
:1034E0006EA50E94051A982F8EA781E0911180E0A9
:1034F000DF91CF910895CF93DF93EC010E94F712F3
:10350000CE010E945E1EEC010E94B313209711F4BD
:103510000E94E618CE01DF91CF910895CF93DF93FB
:10352000009751F0EC010E94F712CE010E94F61EA6
:10353000DF91CF910C94B313DF91CF910895FC01EB
:103540000396928381832FEF3FEF34832383968307
:1035500085839087878310820895FC0111861086E9
:103560000895CF93DF939C01FB01DC011196CD916F
:10357000DC911297D383C2838C819D819583848350
:103580008C819D81DC0113967C936E9312977D83D1
:103590006C8331872087F90180818F5F8083DF9181
:1035A000CF9108950F931F93CF93DF938C01FB016D
:1035B000808191818F3F2FEF920721F4E801AF8145
:1035C000B8850EC0D801139612962D913C91139791
:1035D000E901488159818417950710F0D901F4CF8A
:1035E00012968D919C91139793838283EC01FD83B6
:1035F000EC83B583A4831396FC93EE931297118703
:103600000087F80180818F5F8083DF91CF911F91C8
:103610000F910895CF93DF93FC01A085B18582813E
:10362000938124813581EC013D832C83C481D58134
:103630009B838A8311968D919C911297E817F907C5
:1036400021F41296DC93CE931197118610868C91FB
:1036500081508C938C91DF91CF91089531E1FC01E1
:103660003083319722E220833197A3E3A0833197FF
:1036700060833197708331971082319760E860835F
:1036800031971082319762E06083319763E0608305
:10369000319764E06083319765E06083319766E03D
:1036A0006083319767E06083319768E0608331978A
:1036B00069E06083319760E16083319730833197AF
:1036C00032E13083319733E13083319734E1308315
:1036D000319735E13083319736E13083319737E1E7
:1036E0003083319738E13083319739E13083319736
:1036F00030E23083319731E2308331972083319744
:1037000023E220833197408331975083319726E21B
:103710002083319727E22083319728E22083319755
:1037200029E22083319720E32083319721E320830E
:1037300086970895A89590EC88E10FB6F894A8951F
:10374000809360000FBE90936000A091B703B0918A
:10375000B803CD91CDBFDD91DEBFFF91EF91DF9139
:10376000CF91BF91AF919F918F917F916F915F9119
:103770004F913F912F911F910F91FF90EF90DF900C
:10378000CF90BF90AF909F908F907F906F905F9001
:103790004F903F902F901F900F900FBE0F90089565
:1037A00081E008950F920FB6F8940F921F921124A2
:1037B0002F923F924F925F926F927F928F929F9241
:1037C000AF92BF92CF92DF92EF92FF920F931F932F
:1037D0002F933F934F935F936F937F938F939F9319
:1037E000AF93BF93CF93DF93EF93FF93A091B70372
:1037F000B091B8030DB60D920EB60D920E946F14E3
:10380000A091B703B091B803CD91CDBFDD91DEBFDC
:10381000FF91EF91DF91CF91BF91AF919F918F91E8
:103820007F916F915F914F913F912F911F910F91D8
:10383000FF90EF90DF90CF90BF90AF909F908F90D0
:103840007F906F905F904F903F902F901F900F90C0
:103850000FBE0F9008950F920FB6F8940F921F921B
:1038600011242F923F924F925F926F927F928F928C
:103870009F92AF92BF92CF92DF92EF92FF920F93FF
:103880001F932F933F934F935F936F937F938F93E8
:103890009F93AF93BF93CF93DF93EF93FF93A09149
:1038A000B703B091B8030DB60D920EB60D9213BECC
:1038B0000E94071381110E946F14A091B703B09169
:1038C000B803CD91CDBFDD91DEBFFF91EF91DF91C8
:1038D000CF91BF91AF919F918F917F916F915F91A8
:1038E0004F913F912F911F910F91FF90EF90DF909B
:1038F000CF90BF90AF909F908F907F906F905F9090
:103900004F903F902F901F900F900FBE0F900895F3
:103910000E942B1C1895009709F474C01092D703CD
:103920001092D6031092E4031092E3031092DF0387
:103930001092E0031092E1031092E2031092DA0376
:10394000209180002093E903209181002093E803D7
:1039500010928100109280001092850010928400D5
:1039600021E026BB10926F002091B0002093E70366
:103970002091B1002093E6031092B10022E0209341
:10398000B0009C0127703327232B51F443E0969518
:1039900087954A95E1F72CE72093B30027E018C0FC
:1039A0009C0123703327232B31F4969587959695A8
:1039B000879529EF05C080FD07C0969587952CE770
:1039C0002093B30026E004C02CE72093B30025E049
:1039D0002093E50322E027BB1092B2009093D90315
:1039E0008093D8039FB7F89423BD8091E50380931B
:1039F000B100209370008BE08150F1F787E0809355
:103A000081009FBF08958091DA0308952FB7F8943D
:103A10006091DB037091DC038091DD039091DE0304
:103A20001092DA032FBF0895E1EBF0E010821092BC
:103A300070008091E7038093B0008091E60380835B
:103A4000E1E8F0E010828091E903809380008091AA
:103A5000E803808308951F920F920FB60F921124EE
:103A60000F931F932F933F934F935F936F937F9386
:103A70008F939F93AF93BF932091840030918500E3
:103A8000B09B0BC081E086BB8091E3039091E4037F
:103A900001969093E4038093E3038091D603909181
:103AA000D70301964091D8035091D9038417950705
:103AB00098F11092D7031092D6038091E30390916E
:103AC000E403A0E0B0E0DC0199278827820F931F70
:103AD000A11DB11D4091DF035091E0036091E1030E
:103AE0007091E2038C019D01041B150B260B370B13
:103AF0000093DB031093DC032093DD033093DE039C
:103B00008093DF039093E003A093E103B093E2037B
:103B100081E08093DA0304C09093D7038093D603A7
:103B2000BF91AF919F918F917F916F915F914F91D5
:103B30003F912F911F910F910F900FBE0F901F90EB
:103B400018950E944E0788F09F5798F0B92F992733
:103B5000B751B0F0E1F0660F771F881F991F1AF078
:103B6000BA95C9F714C0B13091F00E946807B1E06E
:103B700008950C946807672F782F8827B85F39F06D
:103B8000B93FCCF3869577956795B395D9F73EF411
:103B900090958095709561957F4F8F4F9F4F0895B9
:103BA0000E94FA06880B990B089597FB072E16F4CE
:103BB000009407D077FD09D00E943B1E07FC05D07A
:103BC0003EF4909581959F4F0895709561957F4F34
:103BD0000895A1E21A2EAA1BBB1BFD010DC0AA1F4E
:103BE000BB1FEE1FFF1FA217B307E407F50720F066
:103BF000A21BB30BE40BF50B661F771F881F991FE1
:103C00001A9469F760957095809590959B01AC0129
:103C1000BD01CF010895052E97FB1EF400940E946C
:103C2000221E57FD07D00E94E91D07FC03D04EF469
:103C30000C94221E50954095309521953F4F4F4F43
:103C40005F4F089590958095709561957F4F8F4F48
:103C50009F4F0895EE0FFF1F0590F491E02D0994FA
:103C60000E944F1EA59F900DB49F900DA49F800DA4
:103C7000911D11240895AA1BBB1B51E107C0AA1F67
:103C8000BB1FA617B70710F0A61BB70B881F991FFD
:103C90005A95A9F780959095BC01CD010895A29FF2
:103CA000B001B39FC001A39F700D811D1124911D10
:103CB000B29F700D811D1124911D08950F931F93C4
:103CC000CF93DF938230910510F482E090E0E09191
:103CD000EC03F091ED0320E030E0A0E0B0E030979D
:103CE00019F1408151810281138148175907C8F0A9
:103CF0008417950769F4109731F012960C93129778
:103D000013961C9327C00093EC031093ED0322C07D
:103D10002115310519F04217530718F49A01BD0116
:103D2000EF01DF01F801DBCF21153105F9F0281B88
:103D3000390B2430310580F48A819B81611571052E
:103D400021F0FB019383828304C09093ED03809361
:103D5000EC03FE01329644C0FE01E20FF31F819393
:103D6000919322503109398328833AC02091EA0384
:103D70003091EB03232B41F4209102013091030198
:103D80003093EB032093EA0320910001309101016D
:103D90002115310541F42DB73EB7409104015091F2
:103DA0000501241B350BE091EA03F091EB03E217C8
:103DB000F307A0F42E1B3F0B2817390778F0AC014E
:103DC0004E5F5F4F2417350748F04E0F5F1F50932B
:103DD000EB034093EA038193919302C0E0E0F0E0AB
:103DE000CF01DF91CF911F910F910895CF93DF9372
:103DF000009709F481C0FC01329713821282A091CE
:103E0000EC03B091ED03109781F420813181820F92
:103E1000931F2091EA033091EB032817390751F5DE
:103E2000F093EB03E093EA0367C0ED0120E030E09C
:103E3000CE17DF0740F44A815B819E014115510591
:103E4000F1F0EA01F5CFD383C28340815181840F21
:103E5000951FC817D90759F488819981840F951F38
:103E60000296918380838A819B819383828321152B
:103E7000310529F4F093ED03E093EC033DC0E90133
:103E8000FB83EA8349915991C40FD51FEC17FD07B5
:103E900061F480819181840F951F0296E9019983D5
:103EA0008883828193819B838A83E0E0F0E012968D
:103EB0008D919C911397009719F0FD01DC01F7CFCC
:103EC0008D919C9111979D012E5F3F4F820F931F03
:103ED0002091EA033091EB032817390769F43097F2
:103EE00029F41092ED031092EC0302C013821282A7
:103EF000B093EB03A093EA03DF91CF910895FB0108
:103F0000DC0102C001900D9241505040D8F7089555
:103F1000DC0101C06D9341505040E0F70895F999DC
:103F2000FECF92BD81BDF89A992780B50895262FBE
:103F3000F999FECF1FBA92BD81BD20BD0FB6F8948E
:103F4000FA9AF99A0FBE0196089510E0C3E7D0E0FF
:103F500004C0FE010E942A1E2196C437D107C9F76A
:043F6000F894FFCF03
:103F64000000EE0320000000C84100000000FF0034
:103F74000000FF000000FF0000000000790B790B37
:103F8400015F6E65757472616C566F6C7461676500
:103F94003A005F61636964566F6C746167653A00E7
:103FA400454E5445525048004558495450480043E2
:103FB400414C504800416D6D6F6E6961004E6974EB
:103FC40072697465004E69747261746500704800AA
:103FD40054656D706572617475726500000000004F
:103FE4004E08C0090F089B08E107FB07ED070D0AFF
:103FF400006E616E00696E66006F76660049444C1F
:0E4004004500546D72205376630000010200E7
:00000001FF
