:100000000C948B000C945A220C9481220C94601A4C
:100010000C94601A0C94601A0C94830C0C9449256F
:100020000C94B3000C94B3000C94B3000C94B30084
:100030000C94B3000C94B3000C94B3000C94B30074
:100040000C94A8220C94B3000C946B1F0C949D1F6D
:100050000C94B3000C94B3000C94B3000C94B30054
:100060000C94B3000C94B3006A176A176A17A917A7
:100070009417A3176A176A17A91794170A466F757A
:100080006E64204D61746368696E6720436F6C6FA6
:100090007200005EBCE2613FDD83C29C7E20A3FD56
:1000A0001F41009D23BE46DB65F88C11AF32CA5755
:1000B000E9740000000800020100000304070000CA
:1000C000000000000000010204081020408001022E
:1000D000040810200102040810200404040404048D
:1000E00004040202020202020303030303030000EA
:1000F0000000230026002900000000002500280041
:100100002B0000000000240027002A0059076E0A77
:10011000CD1F6C07720A11241FBECFEFD8E0DEBFDF
:10012000CDBF12E0A0E0B1E0E4E4FFE402C005903E
:100130000D92A23BB107D9F725E0A2EBB2E001C0D6
:100140001D92AD39B207E1F710E0C9E8D0E004C074
:100150002197FE010E941A26C638D107C9F70E94CE
:10016000FA1F0C9495270C9400000C947F27FC0137
:1001700080E090E0A8ECB1E4808B918BA28BB38BF4
:1001800080E090E0A0EEB0E480839183A283B3830B
:1001900084E19EE0AEEFB4E484839583A683B783C5
:1001A00080E090E8ABEBB4E480879187A287B387C7
:1001B00084879587A687B78708950895CF92DF92A1
:1001C000EF92FF920F931F93CF93DF93EC017C018B
:1001D00088E0E80EF11C670100E010E0C8010E9411
:1001E000B500F60181936F010F5F1F4F04301105B9
:1001F000A9F760E471E08FED94E00E9457204885F4
:1002000059856A857B8522E030E08FED94E00E947D
:10021000272280E090E00E94B5008F3F39F581E011
:1002200090E00E94B5008F3F09F582E090E00E94C7
:10023000B5008F3FD9F483E090E00E94B5008F3F76
:10024000A9F480E090E8ABEBB4E488879987AA87AB
:10025000BB8700E010E0F70161917F01C8010E94B7
:1002600087270F5F1F4F04301105A9F77E01F4E0C7
:10027000EF0EF11C670104E010E0C8010E94B50018
:10028000F60181936F010F5F1F4F08301105A9F729
:1002900061E571E08FED94E00E9457204C815D8113
:1002A0006E817F8122E030E08FED94E00E94272272
:1002B00084E090E00E94B5008F3F31F585E090E04A
:1002C0000E94B5008F3F01F586E090E00E94B500E6
:1002D0008F3FD1F487E090E00E94B5008F3FA1F4FA
:1002E00084E19EE0AEEFB4E48C839D83AE83BF8354
:1002F000C4E0D0E0F70161917F01CE010E94872721
:100300002196C830D105B1F7DF91CF911F910F91A0
:10031000FF90EF90DF90CF9008956115710579F00F
:10032000FB0101900020E9F73197AF01461B570B05
:10033000DC01ED91FC910280F381E02D099480E0D5
:1003400090E00895CF92DF92FF920F931F93CF9387
:10035000DF93CDB7DEB764970FB6F894DEBF0FBE5C
:10036000CDBF8BEE93E00E9445096AEF70E080E01C
:1003700090E00E94172341E0BE01635F7F4F8BEE48
:1003800093E00E94740967E0CE010D960E94FB097C
:100390009C89891719F064E771E009C08D85823264
:1003A00091F0883281F0803159F066E871E08FED8C
:1003B00094E00E94642060E070E080E89FEB6AC0F7
:1003C000FF24F39401C0F12C8BEE93E00E943908D6
:1003D000BE01635F7F4F8BEE93E00E94260941E0F0
:1003E00064E48BEE93E00E94D60868EE73E080E050
:1003F00090E00E9417238BEE93E00E943908BE0123
:10040000635F7F4F8BEE93E00E94260940E06EEB26
:100410008BEE93E00E94D6088E010F5F1F4F6E0196
:100420008AE0C80ED11C8BEE93E00E940A09F80105
:1004300081938F01EC15FD05B1F769817A81FF2069
:1004400089F083E0660F771F8A95E1F78885803110
:10045000A9F42F818CE090E0821B9109607F680FE6
:10046000791F0CC08D81807611F4687F07C08032BF
:1004700011F46C7F03C0803409F46E7F072E000CEA
:10048000880B990B0E94081D20E030E040E85DE3F6
:100490000E94BD1D64960FB6F894DEBF0FBECDBF9F
:1004A000DF91CF911F910F91FF90DF90CF90089532
:1004B0000F931F93CF93DF93C8EBD3E01882198279
:1004C0001A821B8287E390E09D838C839F838E83B7
:1004D00080E590E099878887A2E7B3E01D921D929E
:1004E0001D921C92139781E490E015969C938E9335
:1004F000149717969C938E9316978EE690E0199614
:100500009C938E931897ECE2F3E010821182128292
:10051000138281E390E09583848382E390E0978364
:1005200086838AE590E09187808740E050E060E034
:100530007FE34A875B876C877D871F861E86198AC3
:10054000188A1B8A1A8A0AE919E929E13EE31A96F0
:100550000D931D932D933C931D971F961C921E92F5
:100560001E9751961C921E92509753961C921E9263
:100570005297428753876487758717861686118A34
:10058000108A138A128A40E050E060E87FE34C8BC7
:100590005D8B6E8B7F8B89E390E0998F888F8AE3E8
:1005A00090E09B8F8A8F85E590E09D8F8C8F0AE984
:1005B00019E929E93EE354960D931D932D933C933D
:1005C000579759961C921E9258975B961C921E92B2
:1005D0005A975D961C921E925C9700E010E020E016
:1005E00030E4048B158B268B378B118E108E138E77
:1005F000128E158E148E00E010E020E430E40E8F91
:100600001F8F28A339A31BA21AA21DA21CA21FA2DE
:100610001EA25E964D935D936D937C9391979396F6
:100620001C921E92929795961C921E929497979662
:100630001C921E92969740E050E060EA70E4468F6C
:10064000578F60A371A313A212A215A214A217A21E
:1006500016A240E050E060EC70E448A759A76AA7F2
:100660007BA71DA61CA61FA61EA619AA18AA40E0B5
:1006700050E060EC7FE398964D935D936D937C938F
:100680009B979D961C921E929C979F961C921E92E1
:100690009E97D1961C921E92D09740E050E060E267
:1006A00071E440A751A762A773A715A614A617A6C1
:1006B00016A611AA10AAD2960D931D932D933C93C2
:1006C000D597D7961C921E92D697D9961C921E92B9
:1006D000D897DB961C921E92DA9700E010E020EA91
:1006E00031E402AB13AB24AB35AB17AA16AA11AE9B
:1006F00010AE13AE12AEDC964D935D936D937C936A
:10070000DF971092B3031092B2031092B5031092C8
:10071000B4031092B7031092B60380E090E0A8E40F
:10072000B2E484AF95AFA6AFB7AF10926D0310924D
:100730006C0310926F0310926E031092710310926B
:100740007003DF91CF911F910F9108956DEA71E0D1
:100750008FED94E00E945720609123037091240351
:100760004AE050E08FED94E00E9433216FEA71E09F
:100770008FED94E00E94572060912503709126032D
:100780004AE050E08FED94E00E9433216FEA71E07F
:100790008FED94E00E945720609127037091280309
:1007A0004AE050E08FED94E00E94332161EB71E06C
:1007B0008FED94E00E9457204AE050E060911D03C5
:1007C0008FED94E00E94CC206FEA71E08FED94E011
:1007D0000E9457204AE050E060911E038FED94E0A4
:1007E0000E94CC206FEA71E08FED94E00E945720C8
:1007F0004AE050E060911C038FED94E00E94CC2011
:1008000020911D0330E08091230390912403AC01DB
:10081000455051092417350774F10596821793073F
:1008200054F120911E0330E080912503909126031E
:10083000AC014550510924173507ECF00596821795
:100840009307CCF020911C0330E080912703909116
:100850002803AC01455051092417350764F005966B
:100860008217930744F06CE770E08FED94E00E94EC
:10087000332081E0089580E008950F931F93CF9374
:10088000DF938091EA03813009F448C040F0823060
:1008900009F06EC002E713E0C6E0D0E029C008EB23
:1008A00013E0C4E0D0E08AE0F801B896AFE1B3E02D
:1008B00001900D928A95E1F70E94A603882349F0E2
:1008C0008AE08C9FF0018D9FF00D1124E854FC4FBD
:1008D0003EC021970A501109CF3F8FEFD80719F773
:1008E00042C021970A501109CF3F8FEFD807D9F1A5
:1008F0008AE0F801FC96AFE1B3E001900D928A9591
:10090000E1F70E94A603882361F38AE08C9FF0013F
:100910008D9FF00D1124EE58FC4F19C00CE213E02E
:10092000C6E0D0E08AE0F801FC96AFE1B3E00190C8
:100930000D928A95E1F70E94A603882369F08AE068
:100940008C9FF0018D9FF00D1124E45DFC4F3081F0
:100950002181928183810BC021970A501109CF3FD9
:100960008FEFD807F9F630E020E090E88FEBAC018C
:10097000632F722F852F942FDF91CF911F910F91AD
:1009800008958DEE92E00E9464198DEE92E00E942F
:100990006E198823D1F369E273E08DEE92E00E9434
:1009A0009A1880912A0380931E03809129038093D3
:1009B0001D0380912B0380931C036BEB71E08FED83
:1009C00094E00E9464204AE050E060911D038FEDA6
:1009D00094E00E94D3204AE050E060911E038FED26
:1009E00094E00E94D3204AE050E060911C038FED18
:1009F00094E00E94D3200895CF938DEE92E00E9460
:100A000064198DEE92E00E946E198823D1F369E299
:100A100073E08DEE92E00E949A1880912A038093F1
:100A20001E038091290380931D0380912B038093E3
:100A30001C038AE0E9E2F1E0AFE1B3E001900D923E
:100A40008A95E1F70E94A603C82F6FEB71E08FED46
:100A500094E00E9457206C2F70E04AE050E08FED48
:100A600094E00E943A2164EA72E08FED94E00E94E3
:100A700057208AE0EFE1F1E0AFE1B3E001900D92A1
:100A80008A95E1F7C11103C00E94A603C82F6FEC3D
:100A900071E08FED94E00E9457206C2F70E04AE0E7
:100AA00050E08FED94E00E943A2164EA72E08FED0D
:100AB00094E00E945720CC2351F00E943D04C1E0F5
:100AC00020E030E040E85FEB0E94591C8111C0E05B
:100AD0008C2FCF910895CF93DF9300D000D000D01A
:100AE000CDB7DEB749835A836B837C838D839E8326
:100AF00069817A818FE00E94B6236B817C8180E1DD
:100B00000E94B6236D817E8181E126960FB6F8940E
:100B1000DEBF0FBECDBFDF91CF910C94B6230E94F4
:100B20002912C4E612E064E670E08091D60290914A
:100B3000D7020E941D0FD82F813009F097C0409135
:100B40000701509108016091090170910A0180919B
:100B50000B0190910C010E946B058091060181367A
:100B6000A1F468EE73E080E090E00E9417231092F9
:100B7000EA030E94C104C69F9001C79F300D112453
:100B80003093E0022093DF0258C040911901509148
:100B90001A0160911B0170911C0180911D019091BF
:100BA0001E010E946B05D093EA030E94FC04811190
:100BB000FCCF409113015091140160911501709187
:100BC000160180911701909118010E946B056AEF40
:100BD00070E080E090E00E9417230E94C104C69F4D
:100BE0009001C79F300D11243093DE022093DD0267
:100BF0004091E7025091E8026091E9027091EA02A7
:100C00008091EB029091EC020E946B051093EA0335
:100C10000E94FC048111FCCF6AEF70E080E090E05C
:100C20000E9417230E94C104C69F9001C79F300DE8
:100C300011243093DC022093DB024091E7025091B3
:100C4000E8026091E9027091EA028091EB029091D2
:100C5000EC020E946B0520E040E050E060E070E0B4
:100C60008091D6029091D7020E94A30D81E090E07E
:100C70000E94861358CFCF93DF9300D0CDB7DEB755
:100C80000E9429129A838983409113015091140183
:100C900060911501709116018091170190911801D2
:100CA0000E946B050E94170A20E030E048EC52E4F5
:100CB0000E94BD1D0E94D01C6093E3027093E40269
:100CC0008093E5029093E6026AEF70E080E090E0A6
:100CD0000E9417234091E7025091E8026091E902D7
:100CE0007091EA028091EB029091EC020E946B05F8
:100CF0004091190150911A0160911B0170911C01E2
:100D000080911D0190911E010E946B050E94A2011D
:100D100020E030E048EC52E40E94BD1D0E94D01C4F
:100D20007093E2026093E10264E670E080E090E09C
:100D30000E9417234091E7025091E8026091E90276
:100D40007091EA028091EB029091EC020E946B0597
:100D500061E772E0CE0101960E944E1395CF61E0EB
:100D60008FE00E943E2461E080E10E943E2461E029
:100D700081E10E943E244091E7025091E802609197
:100D8000E9027091EA028091EB029091EC020C94DE
:100D90006B05EF92FF920F9340E052EC61E070E040
:100DA00083EB92E00E945E1B61E08AE00E943E2499
:100DB00026E040E052EC61E070E08FED94E00E94AC
:100DC000061F61E08AE00E947A248DEE92E00E9484
:100DD0006F180E9458020E94AF066AEE71E08FED14
:100DE00094E00E94572040910D0150910E016091B6
:100DF0000F017091100180911101909112010E94D8
:100E00006B050E94130A43E050E064E777E080E05E
:100E10000E943A228091D6029091D702892B91F4B8
:100E200043E060E081E00E947B0D9093D7028093C5
:100E3000D602009739F020E040E050E060E070E03A
:100E40000E94A30D84EDE82E82E0F82E02E020E05F
:100E500030E040E850E069EF71E08FE895E00E94F3
:100E6000A01092EDE92E92E0F92E20E030E040E86B
:100E700050E065E072E08BE396E00E94A01068EE1F
:100E800073E080E090E00E9417234091E7025091C8
:100E9000E8026091E9027091EA028091EB02909180
:100EA000EC020E946B050F91FF90EF900C94F511EE
:100EB000089566E08BEE93E00E94510928E04DE032
:100EC0006CE08DEE92E00E94FD1720E043E062E0CE
:100ED00083EB92E00C94331B83EB92E00E94DA1ACE
:100EE0008DEE92E00C941118CF9383EB92E00E9468
:100EF000091A892B99F064E670E080E090E00E9486
:100F00001723C0E083EB92E00E94091A892B39F085
:100F100083EB92E00E947F19C82FF4CFC0E080914C
:100F2000DA02882399F066E172E08FED94E00E9486
:100F300064208091D8029091D90201968A3091055F
:100F400069F51092D9021092D80208C0CE36E9F0A5
:100F5000C03721F0C13609F08AC024C066E272E0D1
:100F60008FED94E00E94642081E68093060181E089
:100F70008093DA021092B20262EB72E08091D602A4
:100F80009091D702CF910C94680EC0930601809186
:100F9000D4029091D502CF910C94AC119093D902C8
:100FA0008093D80268E372E083EB92E00E946420B1
:100FB00040910D0150910E0160910F01709110014F
:100FC00080911101909112010E946B056AE472E018
:100FD00083EB92E00E948D016091E30283EB92E04B
:100FE0000E94A0196EE472E083EB92E00E948D01F2
:100FF0006091E10283EB92E00E94A01964E572E047
:1010000083EB92E00E948D016091DF0283EB92E01E
:101010000E94A0196DE572E083EB92E00E948D01C1
:101020006091DB0283EB92E00E94A01966E672E019
:1010300083EB92E00E948D016091DD0283EB92E0F0
:101040000E94A01968EC70E080E090E00E941723F5
:101050004091E7025091E8026091E9027091EA0242
:101060008091EB029091EC02CF910C946B05CF91A3
:101070000895FF920F931F93CF93DF93FC01F080AD
:10108000C181D281F89489810F2D009580238983B5
:1010900078941DE7115029F182E090E00E945323DB
:1010A00088818F21B9F3F8948A8180238A8389818A
:1010B0008F298983789480EE91E00E945323F894DD
:1010C00089810823098386E490E00E945323888164
:1010D000F82211E009F010E078948AE991E00E948A
:1010E0005323812FDF91CF911F910F91FF9008958E
:1010F0001F93CF93DF93FC011081C181D281812F97
:10110000809560FF12C0F8949A8189238A8389812F
:10111000812B89838AE090E00E9453238A81182BD7
:101120001A83789487E390E011C0F8949A81892318
:101130008A838981812B898381E490E00E945323F3
:101140008A81182B1A83789485E090E0DF91CF9103
:101150001F910C9453230F931F93CF93DF93FC01A4
:101160000081C181D281F8948981802B89838A8111
:10117000102F109581238A8383E090E00E945323EF
:101180008981182319838AE090E00E945323C88143
:10119000789485E390E00E945323C02381E009F412
:1011A00080E0DF91CF911F910F910895DF92EF9230
:1011B000FF920F931F93CF93DF93EC01D62EE42E73
:1011C00008E010E0FF24F39461E08D2D8F2109F4F5
:1011D00060E0CE010E947808FF0C01501109A1F7D0
:1011E000E11010C0F894E981FA819181888180959D
:1011F00089238183E981FA8192818881809589237D
:1012000082837894DF91CF911F910F91FF90EF909F
:10121000DF900895EF92FF920F931F93CF93DF9388
:101220007C0108E010E0C0E0D1E0C7010E94AB08FB
:101230008111CD2BDD0F01501109B9F78C2FDF91F2
:10124000CF911F910F91FF90EF900895EF92FF9231
:101250000F931F93CF93DF938C017B0140E065E5F3
:101260000E94D608E70188E0E80EF11C699140E091
:10127000C8010E94D608CE15DF05C1F7DF91CF91D6
:101280001F910F91FF90EF900895FC011386158632
:101290001486DC011B9633961E92AE17BF07E1F74A
:1012A00008951F93CF93DF93EC01162F60E0812FF9
:1012B0000E943E24612F70E0FB01EA53FF4FE4914E
:1012C000E883FB01E652FF4FE491F0E0EE0FFF1FD1
:1012D000E251FF4F859194919A838983CE01DF91EA
:1012E000CF911F910C944509BF92CF92DF92EF925C
:1012F000FF920F931F93CF93DF93EC016B01142F99
:101300008D85811105C0CE010E943908811105C06B
:101310001B861D861C8680E064C040E0112311F00E
:1013200060EF01C06CEECE010E94D60801E0E12C16
:10133000B12C11E0CE010E94AB08F82ECE010E9424
:10134000AB0891E0F91203C08130B1F434C02E2D06
:1013500030E0F8121BC08B85181738F4FE01E20F3D
:10136000F31F8381802341F402C0181729F0F12C68
:10137000193058F41C8709C0FE01EE0DF11D838160
:10138000802B8383FF24F39409C0B12EFE01E20F6A
:10139000F31F9381802F8095892383836F2DCE0146
:1013A0000E9478081F5F000F11F4E39401E087E0CA
:1013B0008E1508F0BFCF113408F4AACFBB86B11048
:1013C00002C081E08D878B81882309F4A1CFDE01E3
:1013D0001396F6012B968D918193CA17DB07D9F7E7
:1013E00081E0DF91CF911F910F91FF90EF90DF90FF
:1013F000CF90BF900895DC0180E0615098F02D916E
:10140000982F9227E92FEF70F0E0EE56FF4F2491CE
:1014100092959F70E92FF0E0EE55FF4FE491822FF7
:101420008E27EBCF089589EF93E00C94DE008F9226
:101430009F92AF92BF92CF92DF92EF92FF92CF93A3
:10144000DF938EE00E949923EC0180903701909009
:101450003801A0903901B0903A01209133013091C8
:1014600034014091350150913601C501B4010E940B
:10147000EC1B9B01AC0160E070E080E490E40E9412
:101480005E1C6B017C019B01AC01C501B4010E9493
:10149000BD1D9B01AC0160E070E080EE90E40E9415
:1014A000EC1B4B015C01BE01DD0F880B990B0E9408
:1014B000081DA70196010E94BD1D9B01AC01C5013D
:1014C000B4010E94ED1BDF91CF91FF90EF90DF9070
:1014D000CF90BF90AF909F908F90089589EF93E049
:1014E0000C94B70089EF93E00C94DD00CF93DF9369
:1014F000EC010E942312CE010E944E26EC010E94B4
:10150000DF12209711F40E94BC17CE01DF91CF911A
:101510000895CF93DF93009751F0EC010E942312BE
:10152000CE010E94E626DF91CF910C94DF12DF916D
:10153000CF910895FC010396928381832FEF3FEFB3
:1015400034832383968385839087878310820895CD
:10155000FC01118610860895CF93DF939C01FB0157
:10156000DC011196CD91DC911297D383C2838C81DB
:101570009D81958384838C819D81DC0113967C936E
:101580006E9312977D836C8331872087F901808168
:101590008F5F8083DF91CF9108950F931F93CF9337
:1015A000DF938C01FB01808191818F3F2FEF9207A8
:1015B00021F4E801AF81B8850EC0D80113961296C8
:1015C0002D913C911397E901488159818417950722
:1015D00010F0D901F4CF12968D919C9113979383BB
:1015E0008283EC01FD83EC83B583A4831396FC9383
:1015F000EE93129711870087F80180818F5F8083B7
:10160000DF91CF911F910F910895CF93DF93FC014C
:10161000A085B1858281938124813581EC013D8350
:101620002C83C481D5819B838A8311968D919C9153
:101630001297E817F90721F41296DC93CE931197CD
:10164000118610868C9181508C938C91DF91CF9173
:10165000089531E1FC013083319722E220833197F4
:10166000A3E3A08331976083319770833197108211
:10167000319760E8608331971082319762E0608330
:10168000319763E06083319764E06083319765E070
:101690006083319766E06083319767E060833197BC
:1016A00068E06083319769E06083319760E160832F
:1016B00031973083319732E13083319733E1308392
:1016C000319734E13083319735E13083319736E11A
:1016D0003083319737E13083319738E13083319768
:1016E00039E13083319730E23083319731E2308312
:1016F00031972083319723E22083319740833197BC
:101700005083319726E22083319727E22083319757
:1017100028E22083319729E22083319720E3208338
:10172000319721E3208386970895A89590EC88E16E
:101730000FB6F894A895809360000FBE9093600058
:10174000A0917C04B0917D04CD91CDBFDD91DEBF31
:10175000FF91EF91DF91CF91BF91AF919F918F91C9
:101760007F916F915F914F913F912F911F910F91B9
:10177000FF90EF90DF90CF90BF90AF909F908F90B1
:101780007F906F905F904F903F902F901F900F90A1
:101790000FBE0F90089581E008950F920FB6F89450
:1017A0000F921F9211242F923F924F925F926F924D
:1017B0007F928F929F92AF92BF92CF92DF92EF92E1
:1017C000FF920F931F932F933F934F935F936F93CA
:1017D0007F938F939F93AF93BF93CF93DF93EF93B9
:1017E000FF93A0917C04B0917D040DB60D920EB6CE
:1017F0000D920E949B13A0917C04B0917D04CD9129
:10180000CDBFDD91DEBFFF91EF91DF91CF91BF9111
:10181000AF919F918F917F916F915F914F913F9188
:101820002F911F910F91FF90EF90DF90CF90BF907D
:10183000AF909F908F907F906F905F904F903F9070
:101840002F901F900F900FBE0F9008950F920FB61C
:10185000F8940F921F9211242F923F924F925F9211
:101860006F927F928F929F92AF92BF92CF92DF92B0
:10187000EF92FF920F931F932F933F934F935F939A
:101880006F937F938F939F93AF93BF93CF93DF9388
:10189000EF93FF93A0917C04B0917D040DB60D925F
:1018A0000EB60D9213BE0E94331281110E949B133B
:1018B000A0917C04B0917D04CD91CDBFDD91DEBFC0
:1018C000FF91EF91DF91CF91BF91AF919F918F9158
:1018D0007F916F915F914F913F912F911F910F9148
:1018E000FF90EF90DF90CF90BF90AF909F908F9040
:1018F0007F906F905F904F903F902F901F900F9030
:101900000FBE0F9008950E94260C18950FB6F894FC
:101910000F92FC01928D0F900FBE81E0911180E03B
:1019200008950F931F93CF93DF93EC01042F1A8D2B
:101930004C8D41110BC088819981892BE9F58C81EF
:101940009D810E9415151D821C8237C050E0011137
:1019500015C08A819B810E946F272C8D8A819B8173
:10196000820F911D9B838A832C813D81821793076F
:1019700018F1888199819B838A831EC08E819F8103
:101980000E946F278C8D90E09195819591092E8111
:101990003F81280F391F3F832E83488159812417A7
:1019A000350730F42C813D81820F931F9F838E83F6
:1019B000023011F41111115080E01F5F1A8FDF9176
:1019C000CF911F910F910895FC01CB01448D4423C9
:1019D000A1F050E026813781240F351F37832683FD
:1019E000648175812617370720F020813181378384
:1019F0002683668177810C946F270895EF92FF927A
:101A00001F93CF93DF93EC010FB6F8940F921E8DC6
:101A10007C0181E1E80EF11C11165CF489898823B0
:101A200041F0C7010E94221481110E94A01411509C
:101A3000F3CF8FEF8E8F0F900FBE0FB6F8940F92EB
:101A40001D8D7E0188E0E80EF11C11165CF488857E
:101A5000882341F0C7010E94221481110E94A01422
:101A60001150F3CF8FEF8D8F0F900FBEDF91CF917D
:101A70001F91FF90EF900895CF93DF93EC010FB685
:101A8000F8940F92488159818B8D7C8D9A01879FA4
:101A9000200D311D11243D832C831A8E5B834A83D4
:101AA00090E00197789F9001799F300D1124CA0131
:101AB000820F931F9F838E838FEF8D8F8E8F611187
:101AC0000CC08885882389F0CE0108960E942214D4
:101AD000882359F00E94CD0B08C0CE0108960E94C1
:101AE0009A0ACE0141960E949A0A0F900FBE81E099
:101AF000DF91CF9108950F931F93CF93DF93082F1A
:101B0000162F662321F0869FC001112402C080E0B9
:101B100090E04F960E94760AEC01009771F0111147
:101B200003C09983888303C04F96998388830B8F62
:101B30001C8F61E0CE010E943C0DCE01DF91CF9160
:101B40001F910F910895AF92BF92CF92DF92FF92B3
:101B50000F931F93CF93DF9300D000D01F92CDB788
:101B6000DEB78C016B015D834C83F22E80E058015F
:101B700098E0A90EB11C0FB6F8940F92F801228DCF
:101B8000938D291718F0F2E0FF1214C04F2DB60103
:101B9000C8010E94910CF8019189992321F0C80194
:101BA00041960E94221481110E94CD0B0F900FBE0E
:101BB00081E050C02C813D81232B19F40F900FBE82
:101BC00048C0811104C0CE0101960E9462140F909A
:101BD0000FBE0E9423120FB6F8940F92F801858D64
:101BE0008F3F09F4158EF801868D8F3F09F4168E0C
:101BF0000F900FBEBE016C5F7F4FCE0101960E9419
:101C00006D14811121C00FB6F8940F92F801928DD6
:101C1000838D0F900FBE981311C06C817D81C5011B
:101C20000E94F913C8010E94FE0C0E94DF12882353
:101C300011F081E0A0CF0E94CD0BFBCFC8010E9424
:101C4000FE0C0E94DF12F5CFC8010E94FE0C0E941C
:101C5000DF1280E00F900F900F900F900F90DF91A8
:101C6000CF911F910F91FF90DF90CF90BF90AF90D9
:101C70000895EF92FF921F93CF93DF93EC019A8D1B
:101C80008B8D981710F02230E1F47A011E8D422FCF
:101C9000CE010E94910C1F3F81F48989882379F03D
:101CA000CE0141960E942214882349F0E114F104E8
:101CB00031F081E0F701808305C01F5F1E8F81E056
:101CC00001C080E0DF91CF911F91FF90EF900895C8
:101CD000CF93DF93FC01928D838D9817C0F4868D8E
:101CE0009F5F928F8F3F79F48189882371F0EB0198
:101CF000CF0141960E942214882339F0209729F0C1
:101D000081E0888305C08F5F868F81E001C080E01D
:101D1000DF91CF910895AF92BF92CF92DF92FF9261
:101D20000F931F93CF93DF9300D000D01F92CDB7B6
:101D3000DEB78C016B015D834C8380E0580191E13B
:101D4000A90EB11C0FB6F8940F92F801F28CFF2087
:101D5000A9F0B601C8010E94E40CFA94F801F28ED1
:101D60008085882339F0C80108960E9422148111C9
:101D70000E94CD0B0F900FBE81E050C02C813D81A1
:101D8000232B19F40F900FBE48C0811104C0CE015F
:101D900001960E9462140F900FBE0E9423120FB68C
:101DA000F8940F92F801858D8F3F09F4158EF80194
:101DB000868D8F3F09F4168E0F900FBEBE016C5FAB
:101DC0007F4FCE0101960E946D1481111CC0C80185
:101DD0000E94860C882389F06C817D81C5010E9458
:101DE000F913C8010E94FE0C0E94DF12882311F033
:101DF00081E0A8CF0E94CD0BFBCFC8010E94FE0C52
:101E00000E94DF12F5CFC8010E94FE0C0E94DF1273
:101E1000C8010E94860C882359F380E00F900F9030
:101E20000F900F900F90DF91CF911F910F91FF9026
:101E3000DF90CF90BF90AF900895CF92DF92FF9246
:101E40000F931F93CF93DF9300D000D01F92CDB795
:101E5000DEB78C017D836C83F12C90E0680181E119
:101E6000C80ED11C0FB6F8940F92D8015A968C91D7
:101E70005A978823E9F081505A968C935A978D91FE
:101E80009C91892B29F40E949615F80195838483EF
:101E9000D80118968C91882339F0C80108960E94C1
:101EA000221481110E94CD0B0F900FBE81E07AC0E9
:101EB0002C813D81232B09F472C0911104C0CE0105
:101EC00001960E9462140F900FBE0E9423120FB65B
:101ED000F8940F92F801858D8F3F09F4158ED80183
:101EE0005E968C915E978F3F11F45E961C920F90D8
:101EF0000FBEBE016C5F7F4FCE0101960E946D1434
:101F000081112BC0C8010E94860C882301F1F801C1
:101F100080819181892B51F40FB6F8940F928481BE
:101F200095810E94B214F82E0F900FBE6C817D81B6
:101F3000C6010E94F913C8010E94FE0C0E94DF1224
:101F4000882311F091E08ECF0E94CD0BFBCFC8010A
:101F50000E94FE0C0E94DF12F5CFC8010E94FE0C09
:101F60000E94DF12C8010E94860C882359F3FF20CB
:101F7000C1F00FB6F8940F92F8018189882339F0E7
:101F80000688F789E02D808164E0681B01C060E06D
:101F9000D80114968D919C9115970E944F150F9022
:101FA0000FBE80E00F900F900F900F900F90DF9179
:101FB000CF911F910F91FF90DF90CF900895CF9315
:101FC000DF93EC010FB6F8940F928D8D8F3F09F4DB
:101FD0001D8E8E8D8F3F09F41E8E0F900FBE8A8D41
:101FE000811104C0CE0141960E940A14CE01DF91F6
:101FF000CF910C94FE0CE0914404F0914504808153
:10200000811103C08FEF9FEF0CC0E0914404F09169
:1020100045040580F681E02D0680F781E02D828160
:10202000938190931C0480931B040895FF920F9357
:102030001F93CF93DF93EC01F62E009123041091B0
:10204000240480917C0490917D0402960E94050BEB
:10205000CF3F8FEFD80789F4FF2079F060917C049F
:1020600070917D046E5F7F4F86E294E0DF91CF91A7
:102070001F910F91FF900C94AC0AC00FD11FE091FB
:102080007C04F0917D04D383C28360917C047091C1
:102090007D04C017D10768F48091420490914304F5
:1020A0006E5F7F4FDF91CF911F910F91FF900C9446
:1020B000CD0A80914404909145046E5F7F4F0E9449
:1020C000CD0A80911B0490911C04C817D90720F4F5
:1020D000D0931C04C0931B04DF91CF911F910F91EB
:1020E000FF90089580912F04882309F10FB6F8948A
:1020F0000F92E0913504F0913604C681D781CE016C
:1021000002960E94050B809125048150809325043E
:1021100080912F04815080932F040F900FBE8F89E0
:10212000988D0E94890ACE010E94890ADBCF809196
:102130005804823010F00E94CD0B0E94B317D2CF0A
:102140005F926F927F928F929F92AF92BF92CF9247
:10215000DF92EF92FF920F931F93CF93DF933C0197
:102160006B015A014901502ECA010E94760A8C0166
:10217000892B09F4E0C088E290E00E94760AEC0125
:10218000892BC9F0188F0F8BA50165EA70E0C80193
:102190000E94782721E0A21AB1088F89988DA80E95
:1021A000B91EC114D104C9F0BE01675E7F4FF601AC
:1021B000C601089607C0C8010E94890ABCC0E8177A
:1021C000F90749F09F014191DB014D93BD01D90110
:1021D0002C912111F4CF18A201C0198E052D0430C5
:1021E00008F003E00E8B09A31AA26E01B2E0CB0E39
:1021F000D11CC6010E94A80ACE010C960E94A80A12
:10220000D987C88784E090E0801B91099D878C87DF
:10221000DB8BCA8B1BA21CA21DA21EA21FA2A401A3
:10222000B301C5010E94290B99838883E114F1044D
:1022300019F0F701D183C0830FB6F8940F92809103
:1022400025048F5F8093250480917C0490917D0408
:10225000892BD1F5D0937D04C0937C048091250413
:10226000813009F041C088E594E00E949A0A81E635
:1022700094E00E949A0A8AE694E00E949A0A83E710
:1022800094E00E949A0A8FE494E00E949A0A86E4FD
:1022900094E00E949A0A89E394E00E949A0A80E3FB
:1022A00094E00E949A0A86E294E00E949A0A8FE4DF
:1022B00094E0909345048093440486E494E09093E2
:1022C00043048093420410C08091210481110CC00A
:1022D000E0917C04F0917D0496898E89891720F025
:1022E000D0937D04C0937C0480911D048F5F809304
:1022F0001D048E8990912204981710F48093220473
:10230000F9E08F9FC0011124B601885A9B4F0E94AB
:10231000AC0A0F900FBE80912104882351F0E09108
:102320007C04F0917D0496898E89981710F40E94A0
:10233000CD0B81E001C08FEFDF91CF911F910F9105
:10234000FF90EF90DF90CF90BF90AF909F908F90D5
:102350007F906F905F9008950F931F93CF93DF93BB
:1023600020917C0430917D048217930709F438C0D2
:10237000009709F435C00FB6F8940F92FC0122853E
:1023800033852652344051F5FC0124893589F4E027
:1023900029333F0719F1232B09F5EC018C010E5F5E
:1023A0001F4FC8010E94050B8E8990912204981737
:1023B00010F48093220429E0829FC0011124B80107
:1023C000885A9B4F0E94AC0AE0917C04F0917D04F6
:1023D0009E898689981710F00E94CD0B0F900FBE32
:1023E000DF91CF911F910F910895EF92FF920F937C
:1023F00089E1E82E84E0F82E00E020E030E040ECB7
:1024000050E06FE672E082E790E10E94A010813018
:10241000B1F40E94FB15813091F4F8942FEF3FEF57
:1024200030931C0420931B048093210410922404F5
:10243000109223040F91FF90EF900C94950B0F9145
:10244000FF90EF900895809118048F5F8093180497
:1024500008950FB6F8940F9280912304909124046C
:102460000F900FBE0895CF92DF92EF92FF920F93DD
:102470001F93CF93DF938091180481118CC000913A
:102480002304109124040F5F1F4F10932404009322
:10249000230401151105B9F4809144049091450479
:1024A0002091420430914304309345042093440426
:1024B000909343048093420480911E048F5F809325
:1024C0001E040E94FB0F80911B0490911C04C0E02D
:1024D0000817190708F44FC0D9E0E0914404F091BF
:1024E00045048081811103C08FEF9FEF11C0E091FF
:1024F0004404F09145040580F681E02DE680F780E4
:10250000D70112968D919C9113970817190728F4FB
:1025100090931C0480931B042EC06701B2E0CB0E85
:10252000D11CC6010E94050BF70184899589892B6E
:1025300021F0C7010C960E94050BD70156968C918D
:1025400090912204981710F480932204D89FC00120
:102550001124B601885A9B4F0E94AC0AE0917C047A
:10256000F0917D04D70156969C918689981708F4BE
:10257000B4CFC1E0B2CFE0917C04F0917D04E68954
:10258000B9E0EB9FF0011124E85AFB4F80818230C3
:1025900040F0C1E006C0809120048F5F809320044A
:1025A000C0E080911F048111C1E08C2FDF91CF9199
:1025B0001F910F91FF90EF90DF90CF900895EF92D1
:1025C000FF920F931F93CF93DF930FB6F8940F9260
:1025D00080911804815080931804809118048823F6
:1025E00011F080E052C0809125048823D1F3C0E02F
:1025F000D0E089E0F82EEE24E3948091390488231A
:1026000051F1E0913E04F0913F04C681D781CE01A3
:102610000C960E94050B8E010E5F1F4FC8010E9491
:10262000050B8E8990912204981710F48093220450
:10263000F89EC0011124B801885A9B4F0E94AC0A31
:10264000E0917C04F0917D049E8986899817A8F218
:10265000E0921F04D2CFCD2B11F00E94FB0FC0914E
:102660002004CC2351F0D1E00E9433128111D09389
:102670001F04C150C9F71092200480911F048823C1
:1026800009F4AFCF0E94CD0B81E00F900FBEDF9118
:10269000CF911F910F91FF90EF9008950F931F938B
:1026A000CF93DF938C01EB010E942312409123040E
:1026B00050912404F80120813181C9018C0F9D1FA4
:1026C0004217530720F48217930740F403C0821780
:1026D000930730F021E04817590718F020E001C0B7
:1026E00021E0F80191838083222329F060E0841B9C
:1026F000950B0E9416100E94DF12811102C00E94E9
:10270000CD0BDF91CF911F910F910895CF93DF9360
:10271000EC01892B19F40E94CD0B0AC00E942312F0
:1027200060E0CE010E9416100E94DF12882399F308
:10273000DF91CF91089580911804882321F081E0E2
:1027400080931F04089510921F04A0917C04B091FF
:102750007D04E0917C04F0917D042D913C9187896A
:10276000908D8217930760F060917C0470917D04D6
:1027700080917C0490917D04675E7F4F0E94C91711
:102780008091220469E0482F50E0649F9001659F8A
:10279000300D1124F901E85AFB4F9081911102C0CC
:1027A0008150F1CFA181B28112960D90BC91A02DE4
:1027B000B283A183255A3B4FA217B30731F4129677
:1027C0002D913C9113973283218399E0949FF001DE
:1027D000959FF00D1124E85AFB4F0180F281E02D06
:1027E0002681378130937D0420937C0480932204DA
:1027F0000895CF93DF93EB0160917C0470917D0489
:10280000645F7F4F0E94CD0A61E0CE01DF91CF91DE
:102810000C9416101F93CF93DF93EB01142F60914C
:102820007C0470917D04645F7F4F0E94AC0A112389
:1028300011F0CFEFDFEF612FCE01DF91CF911F912C
:102840000C9416100F931F93CF93DF93DC01159612
:10285000ED91FC911697C681D7818E01045F1F4FC1
:10286000C8010E94050B80911804811114C00A5000
:102870001109C8010E94050B8E89909122049817B6
:1028800010F480932204B9E08B9FC0011124B80199
:10289000885A9B4F03C0B80189E394E00E94AC0AB8
:1028A000E0917C04F0917D049E898689891720F44B
:1028B00081E080931F0401C080E0DF91CF911F91E0
:1028C0000F91089520911E04FC0120832091230480
:1028D00030912404328321830895CF93DF930FB680
:1028E000F8940F924091230450912404DB012D9120
:1028F0003C912F3FBFEF3B07D9F0EC01E981FA8112
:10290000A0911E04B881BA1719F04E175F0790F412
:102910004E1B5F0BFB014217530738F4241B350B8A
:10292000318320830E94621403C01182108202C08E
:1029300080E001C081E00F900FBEDF91CF9108953C
:1029400081E080931F04089580912104882331F051
:1029500080911804882321F080E0089581E0089593
:1029600082E008950F931F93CF93DF93FC01892B8F
:1029700009F455C08689A0917C04B0917D045696D7
:102980009C91891708F041C02485358537FD0CC01E
:10299000A0917C04B0917D0456969C9124E030E097
:1029A000291B31093587248729E0829FC001112422
:1029B000885A9B4F2285338528173907E9F48F0100
:1029C000EF012296CE010E94050BE0917C04F0916C
:1029D0007D048689F801868B90912204981710F463
:1029E00080932204F9E08F9FC0011124BE01885A10
:1029F0009B4F0E94AC0A07C0A0917C04B0917D045B
:102A000056968C91868B81E00BC0A0917C04B0918E
:102A10007D0481E021A156969C91291708F080E061
:102A2000DF91CF911F910F9108950F931F93CF9333
:102A3000DF93FC01892B11F480E02CC082A181502E
:102A400082A3268991A12917B9F38111F5CFEF014E
:102A50008F010E5F1F4FC8010E94050B89A18E8B4D
:102A6000482F50E024E030E0241B350B3D872C87B5
:102A700090912204981710F48093220429E0249F57
:102A8000C001259F900D1124B801885A9B4F0E94C8
:102A9000AC0A81E0DF91CF911F910F9108950F93C0
:102AA0001F93CF93DF93FC01892BD9F191A1961746
:102AB00008F4962F86898917A1F122A1213089F582
:102AC000968B2485358537FD06C024E030E0291B30
:102AD00031093587248729E0829FC0011124885A53
:102AE0009B4F2285338528173907D9F4EF018F01D1
:102AF0000E5F1F4FC8010E94050B8E899091220422
:102B0000981710F48093220429E0829FC0011124B9
:102B1000B801885A9B4FDF91CF911F910F910C9470
:102B2000AC0ADF91CF911F910F91089580917C04A1
:102B300090917D04892B39F0E0917C04F0917D0423
:102B400082A18F5F82A380917C0490917D0408957F
:102B50000FB6F8940F928091820490918304892B90
:102B6000E9F481E994E00E949A0A88E894E00E94DE
:102B70009A0A81E994E0909387048093860488E818
:102B800094E0909385048093840440E065E08AE0BB
:102B90000E947B0D90938304809382040F900FBE5C
:102BA0000895FC01738362839187808746175707D6
:102BB00078F0421B530B8485958548175907C8F454
:102BC000BF016E5F7F4F80918404909185040DC09A
:102BD0004217530718F46217730758F4BF016E5F6A
:102BE0007F4F80918604909187040E94CD0A80E0F7
:102BF000089581E00895EF92FF920F930E94A81527
:102C00008091820490918304892B81F080E8E82EE2
:102C100084E0F82E03E020E030E045E550E064E792
:102C200072E08BEA96E10E94A01001C080E00F9153
:102C3000FF90EF9008950F931F93CF93DF9300D0F1
:102C400000D01F92CDB7DEB7A0918204B09183046B
:102C5000109729F1F90169835B834A839D838C83F3
:102C60006630A4F40E94A414E0918204F0918304DD
:102C700020E0823011F4A80102C040E050E0BE0123
:102C80006F5F7F4FCF010E94A30D0AC020E0AF010C
:102C9000BE016F5F7F4FCD010E94390E01C080E001
:102CA0000F900F900F900F900F90DF91CF911F9189
:102CB0000F910895EF92FF920F931F93CF93DF939D
:102CC000E0918604F09187048081882389F1058052
:102CD000F681E02DE080F180C681D7818E010E5F04
:102CE0001F4FC8010E94050BE889F989CE0109959B
:102CF0008A8982FFE5CF8C859D858E0D9F1DE81604
:102D0000F90660F49B838A83D987C887B8018091CC
:102D10008604909187040E94CD0AD2CF00E010E093
:102D200020E030E0A70160E0CE010E941B16C8CF72
:102D30008091840490918504909387048093860405
:102D4000F0938504E0938404DF91CF911F910F915C
:102D5000FF90EF900895CF93DF9300D000D01F92A3
:102D6000CDB7DEB7E0918604F0918704D080DD20F6
:102D700031F00580F681E02DE080F18002C0E12C89
:102D8000F12C0E9423120E9429128C0180917E0452
:102D900090917F040817190720F40E945A1681E0C9
:102DA00001C080E010937F0400937E04811155C020
:102DB000DD20D9F10E151F0508F43EC00E94DF1278
:102DC000E0918604F09187040580F681E02DC680AD
:102DD000D780C60102960E94050BD60152968C91AF
:102DE000529782FF17C01C966D917C911D976E0DB6
:102DF0007F1D9701A801C6010E94D115882369F0A3
:102E000000E010E020E030E0A70160E0C6010E9491
:102E10001B1603C08E7FF601828BD6015096ED9172
:102E2000FC915197C60109951EC0E0918404F09170
:102E30008504808141E0811140E0B701601B710B86
:102E400080918204909183040E94DF0F0E94DF1220
:102E5000811109C00E94CD0B06C00E94DF1203C081
:102E6000898187FF0EC040E050E0BE016F5F7F4F59
:102E700080918204909183040E948B0E8111F0CF87
:102E800071CFEC80FD80F70182859385892B21F03D
:102E9000C70102960E94050B0E9429126C018091C5
:102EA0007E0490917F04C816D90610F40E945A1629
:102EB000D0927F04C0927E04E9810E2E000CFF0B9D
:102EC000EA30F10580F6EC5CFF4FD70152968C9109
:102ED0000C941A268160F701828B2A813B816485DC
:102EE0007585620F731FA601C7010E94D115882343
:102EF00009F4B9CFD7015096ED91FC915197C701D4
:102F00000995F701828982FFAECF4A815B81848572
:102F10009585480F591F00E010E020E030E060E0A8
:102F2000C7010E941B169FCF8160F701828B6A81C7
:102F30007B81758764876C0D7D1D9601A601C70195
:102F40000E94D11590CF81FD04C0C7010E94890A5B
:102F50008ACF8E7FD70152968C9385CF0E94C90667
:102F60000E94F51108950E94580787E69EE1892B7B
:102F700011F00C94671E0895259A2D9A2FEF80E783
:102F800092E0215080409040E1F700C000001D9A7F
:102F9000F5CF259A2D9A2FEF87EA91E621508040B0
:102FA0009040E1F700C000001D9AF5CF0F931F93EA
:102FB000FC018FEF808381838283838384838AE013
:102FC00085831682DF011796739600E717E120E0EC
:102FD00030E048ED56ED60E070E00D931D932D93C9
:102FE0003D9318964D935D936D937C931B97AE170D
:102FF000BF0799F71F910F910895FF920F931F93A9
:10300000CF93DF93EC01F62E042F122F0E94D617D8
:10301000FB820C831883DF91CF911F910F91FF905A
:1030200008950895CF93DF93EC018B818F3FE9F0F2
:103030009C819F3FD1F0613049F030F0623041F027
:10304000633099F461E009C060E007C061E001C04D
:1030500060E00E947A2461E003C00E947A2460E06C
:103060008C81DF91CF910C947A24DF91CF910895D8
:10307000CF93DF93EC0189818F3FE9F09A819F3FE5
:10308000D1F0613049F030F0623041F0633099F4B2
:1030900060E009C061E003C061E005C060E00E943B
:1030A0007A2461E003C00E947A2460E08A81DF9183
:1030B000CF910C947A24DF91CF910895FC01208167
:1030C0002F3F29F091E06927822F0C947A24662300
:1030D00019F0FC01668101C063E00C943818CF93AD
:1030E000DF93EC0189818F3F19F061E00E943E245B
:1030F0008A818F3F19F061E00E943E248B818F3FCF
:1031000019F061E00E943E248C818F3F19F061E04C
:103110000E943E2488818F3F19F061E00E943E2486
:1031200060E0CE010E945E186E81CE01DF91CF91EA
:103130000C943818DC01FB01309759F09B968C9168
:103140009B9780839C968C919C9781839D968C9174
:10315000828308954F925F926F927F928F929F9297
:10316000AF92BF92DF92EF92FF920F931F93CF9394
:10317000DF938C01095F1F4FEC017C0183E1E80EB6
:10318000F11CDD24DA94F801D8018D909D90AD906A
:10319000BD908D01808D918DA28DB38D9C01AD016F
:1031A000281939094A095B09AFEFB0E00E942026CF
:1031B000F8014084518462847384A3019201281928
:1031C00039094A095B090E94FB2557FF02C01BA66B
:1031D00009C02F3F31054105510519F014F0DBA658
:1031E00001C02BA721960E151F0569F6DF91CF911F
:1031F0001F910F91FF90EF90DF90BF90AF909F9045
:103200008F907F906F905F904F9008950F931F93D2
:10321000CF93DF938C01C62F613049F018F06230F4
:10322000D9F04CC010929A0461E00E945E18E091BF
:103230009A04F0E0E458FD4F6081C8010E94121822
:10324000F801658170E088EE93E00E94C525CB010E
:103250000E94A924C2E032C00E942125882371F176
:10326000E0919A0481E08E0F80939A04F0E0E45894
:10327000FD4FC081D0E00E9424259B01AC01CC0F02
:10328000DD1FCC0FDD1FC00FD11FF801A581B0E0FD
:103290000E9420266F8F78A389A39AA380919A0415
:1032A000833058F00E94322560E0C8010E945E1809
:1032B000C8010E94AA18C0E001C0C1E08C2FDF91B4
:1032C000CF911F910F910895CF93DF93EC0160E0B0
:1032D0000E9406198EA7DF91CF910895CF93DF93B7
:1032E000EC016EA50E940619982F8EA781E091111E
:1032F00080E0DF91CF91089580E090E008952091E3
:10330000DD043091DE0428173907B9F490919B044D
:1033100080919C04981789F0E0919B04F0E0E356BB
:10332000FB4F808120919B0430E02F5F3F4F2F7334
:10333000332720939B0490E008958FEF9FEF08952B
:103340001F93CF93DF93DC015C968D919C915D97E9
:10335000009739F421E030E013963C932E931297B6
:103360003BC05196ED91FC91529750962C915097FD
:10337000322F30951FB75E964C915E97742F727006
:1033800041FD6095F8944081772311F0422B01C0F4
:1033900043234083EC012197F1F748E0508160FF1F
:1033A00002C0522B01C053235083EC012197F1F747
:1033B0006695415099F78081772319F083238083A4
:1033C00002C0282B20831FBF5C968D919C915D9736
:1033D0000197F1F781E090E0DF91CF911F9108957F
:1033E00008952091DD043091DE042817390771F427
:1033F00090919B0480919C04981741F0E0919B046C
:10340000F0E0E356FB4F808190E008958FEF9FEF4F
:1034100008952091DD043091DE042817390771F4F6
:1034200080919C0420919B0490E0805C9F4F821BC4
:10343000910960E470E00E94C525089580E090E065
:103440000895E091DD04F091DE04E817F90769F4CE
:10345000A389B4899C918589809589238C93109246
:10346000DE041092DD0481E0089580E00895CF939A
:10347000DF93EC018A8D9B8D892BF1F08091DD0427
:103480009091DE04C817D907B9F0009711F00E9497
:10349000211A8E8D8E7F8E8F10929C0410929B0429
:1034A000D093DE04C093DD04EB89FC8990818D8983
:1034B000892B808381E001C080E0DF91CF91089566
:1034C0001F920F920FB60F9211242F933F934F9399
:1034D0005F936F937F938F939F93AF93BF93EF937C
:1034E000FF93E091DD04F091DE04309709F451C0C0
:1034F000968DA685B785858591FF04C09C9189230B
:1035000029F447C09C91892309F043C0A389B48959
:103510009C918589809589238C93868997890197C9
:10352000F1F7608D718DA685B785558538E020E06F
:10353000CB010197F1F7822F90E095958795282F81
:103540004C91452309F02068315091F7868D81FD1B
:10355000209580919C0490E001968F73992730917B
:103560009B04381749F0A0919C04B0E0A356BB4FD0
:103570002C9380939C0403C0868D8160868F828DFE
:10358000938D0197F1F7A389B4899C918589892B43
:103590008C93FF91EF91BF91AF919F918F917F910C
:1035A0006F915F914F913F912F910F900FBE0F90B0
:1035B0001F90189523E832E0FC01318320830C949E
:1035C000211A1F93CF93DF93EC01162F6E8D669512
:1035D000617081E06827812F0E947A2461E0812F49
:1035E0000E943E24812F90E0FC01EA53FF4FE491BA
:1035F000E88BFC01E652FF4FE491F0E0EE0FFF1F75
:10360000E850FF4F859194919A8B898BDF91CF91F0
:103610001F9108951F93CF93DF93EC01162F60E065
:10362000812F0E943E248E8D81FD04C061E0812F98
:103630000E947A241C87812F90E0FC01EA53FF4FFF
:10364000E491ED87FC01E652FF4FE491F0E0EE0FCC
:10365000FF1FE251FF4F859194919F878E87DF91E5
:10366000CF911F9108951F93CF93DF93EC01162FF5
:103670001B821A8288EE93E0A0E0B0E08C839D83E9
:10368000AE83BF8383E892E0998388831F8A1E8A72
:10369000198E188E1B8E1A8E1D8E1C8E8E8D8E7F0F
:1036A00020FB81F98E8F642FCE010E94E11A612FD9
:1036B000CE01DF91CF911F910C940A1BCF93DF9322
:1036C000EC019A01AB011B8E1A8E198E188E1F8A7F
:1036D0001E8A60E079E08DE390E00E94FB25F9010D
:1036E0002430310518F0C901039702C081E090E051
:1036F0009D8F8C8F6C85663108F069C0C9019695E5
:1037000087958431910510F0439702C081E090E0E5
:103710009F8B8E8B369718F0C901059702C081E008
:1037200090E0998F888FC901880F991F280F391F42
:1037300036952795369527952D30310518F02C5064
:10374000310902C021E030E03B8F2A8F9091680060
:10375000683050F021E06E3008F420E081E001C0D4
:10376000880F2A95EAF701C084E0892B80936800CE
:103770009C85983038F09E3040F0963148F020E03B
:1037800030E008C02DE630E005C02BE630E002C096
:103790002CE630E03C8B2B8B983030F481E001C07C
:1037A000880F9A95EAF70EC0292F30E09E3018F462
:1037B0002850310902C02E50310981E001C0880F24
:1037C0002A95EAF78D8B8C8D9D8D0197F1F7CE01AF
:1037D000DF91CF910C94371A5058BB27AA270E942B
:1037E000041C0C947E1D0E94701D38F00E94771DF1
:1037F00020F039F49F3F19F426F40C946D1D0EF45B
:10380000E095E7FB0C94671DE92F0E948F1D58F38C
:10381000BA17620773078407950720F079F4A6F5B5
:103820000C94B11D0EF4E0950B2EBA2FA02D0B01B8
:10383000B90190010C01CA01A0011124FF27591BF5
:1038400099F0593F50F4503E68F11A16F040A22FFB
:10385000232F342F4427585FF3CF4695379527956C
:10386000A795F0405395C9F77EF41F16BA0B620B6B
:10387000730B840BBAF09150A1F0FF0FBB1F661FB2
:10388000771F881FC2F70EC0BA0F621F731F841FF5
:1038900048F4879577956795B795F7959E3F08F01B
:1038A000B0CF9395880F08F09927EE0F97958795DD
:1038B00008950E94431D08F481E008950E94721C3F
:1038C0000C947E1D0E94771D58F00E94701D40F0E0
:1038D00029F45F3F29F00C94671D51110C94B21D1F
:1038E0000C946D1D0E948F1D68F39923B1F355232D
:1038F00091F3951B550BBB27AA2762177307840703
:1039000038F09F5F5F4F220F331F441FAA1FA9F398
:1039100035D00E2E3AF0E0E832D091505040E69586
:10392000001CCAF72BD0FE2F29D0660F771F881FE7
:10393000BB1F261737074807AB07B0E809F0BB0BDA
:10394000802DBF01FF2793585F4F3AF09E3F5105EE
:1039500078F00C94671D0C94B21D5F3FE4F3983E21
:10396000D4F3869577956795B795F7959F5FC9F7D7
:10397000880F911D9695879597F90895E1E0660F58
:10398000771F881FBB1F621773078407BA0720F0D1
:10399000621B730B840BBA0BEE1F88F7E09508953A
:1039A0000E94D71C6894B1110C94B21D08950E9416
:1039B000971D88F09F5798F0B92F9927B751B0F00D
:1039C000E1F0660F771F881F991F1AF0BA95C9F7A3
:1039D00014C0B13091F00E94B11DB1E008950C9473
:1039E000B11D672F782F8827B85F39F0B93FCCF326
:1039F000869577956795B395D9F73EF49095809520
:103A0000709561957F4F8F4F9F4F0895E89409C03F
:103A100097FB3EF490958095709561957F4F8F4F01
:103A20009F4F9923A9F0F92F96E9BB279395F69517
:103A3000879577956795B795F111F8CFFAF4BB0F95
:103A400011F460FF1BC06F5F7F4F8F4F9F4F16C0F9
:103A5000882311F096E911C0772321F09EE8872F83
:103A6000762F05C0662371F096E8862F70E060E03F
:103A70002AF09A95660F771F881FDAF7880F9695B8
:103A8000879597F90895990F0008550FAA0BE0E85C
:103A9000FEEF16161706E807F907C0F01216130610
:103AA000E407F50798F0621B730B840B950B39F450
:103AB0000A2661F0232B242B252B21F408950A26B6
:103AC00009F4A140A6958FEF811D811D089597F9F6
:103AD0009F6780E870E060E008959FEF80EC0895B4
:103AE00000240A94161617061806090608950024DD
:103AF0000A9412161306140605060895092E039457
:103B0000000C11F4882352F0BB0F40F4BF2B11F4CA
:103B100060FF04C06F5F7F4F8F4F9F4F089557FD29
:103B20009058440F551F59F05F3F71F04795880F2B
:103B300097FB991F61F09F3F79F0879508951216C2
:103B400013061406551FF2CF4695F1DF08C016166E
:103B500017061806991FF1CF86957105610508941F
:103B60000895E894BB2766277727CB0197F9089536
:103B70000E94431D08F48FEF08950E94D01D0C94FD
:103B80007E1D0E94701D38F00E94771D20F0952345
:103B900011F00C94671D0C946D1D11240C94B21D32
:103BA0000E948F1D70F3959FC1F3950F50E0551F34
:103BB000629FF001729FBB27F00DB11D639FAA2782
:103BC000F00DB11DAA1F649F6627B00DA11D661FD1
:103BD000829F2227B00DA11D621F739FB00DA11DF2
:103BE000621F839FA00D611D221F749F3327A00DAC
:103BF000611D231F849F600D211D822F762F6A2F48
:103C000011249F5750409AF0F1F088234AF0EE0FAC
:103C1000FF1FBB1F661F771F881F91505040A9F7D9
:103C20009E3F510580F00C94671D0C94B21D5F3FC0
:103C3000E4F3983ED4F3869577956795B795F79515
:103C4000E7959F5FC1F7FE2B880F911D969587958D
:103C500097F90895FC01918D228D892F90E0805C69
:103C60009F4F821B91098F7399270895FC01918DB5
:103C7000828D981731F0828DE80FF11D858D90E0CF
:103C800008958FEF9FEF0895FC01918D828D981715
:103C900061F0828DDF01A80FB11D5D968C91928D30
:103CA0009F5F9F73928F90E008958FEF9FEF08952D
:103CB000FC01538D448D252F30E0842F90E0821B32
:103CC000930B541710F0CF9608950197089583EC45
:103CD0009FE1892B49F080E090E0892B29F00E9438
:103CE000C31F81110C9400000895FC01848DDF0135
:103CF000A80FB11DA35ABF4F2C91848D90E001965F
:103D00008F739927848FA689B7892C93A089B1894D
:103D10008C91837080648C93938D848D981306C0EE
:103D20000288F389E02D80818F7D80830895EF9252
:103D3000FF920F931F93CF93DF93EC0181E0888F65
:103D40009B8D8C8D981305C0E889F989808185FD4C
:103D500026C0F62E0B8D10E00F5F1F4F0F7311273B
:103D6000E02E8C8DE8120CC00FB607FCFACFE88964
:103D7000F989808185FFF5CFCE010E94751EF1CFB4
:103D80008B8DFE01E80FF11DE35AFF4FF0829FB7C4
:103D9000F8940B8FEA89FB89808180620AC09FB703
:103DA000F894EE89FF896083E889F98980818370BE
:103DB000806480839FBF81E090E0DF91CF911F916D
:103DC0000F91FF90EF900895CF93DF93EC01888DD2
:103DD0008823C9F0EA89FB89808185FD05C0A8890F
:103DE000B9898C9186FD0FC00FB607FCF5CF808195
:103DF00085FFF2CFA889B9898C9185FFEDCFCE01DF
:103E00000E94751EE7CFDF91CF910895CF92DF9288
:103E1000EF92FF921F93CF93DF93EC016A017B0136
:103E2000122FE889F98982E080834115514E61059E
:103E30007105B1F060E079E08DE390E0A7019601B3
:103E40000E94D925DA01C9010197A109B109B695E6
:103E5000A795979587959C01211580E13807A8F0D3
:103E6000E889F989108260E874E88EE190E0A701A2
:103E700096010E94D925DA01C9010197A109B1096A
:103E8000B695A795979587959C01EC85FD85308320
:103E9000EE85FF852083188EEC89FD891083EA89E1
:103EA000FB89808180618083EA89FB8980818860C9
:103EB0008083EA89FB89808180688083EA89FB8925
:103EC00080818F7D8083DF91CF911F91FF90EF9054
:103ED000DF90CF9008951F920F920FB60F9211248A
:103EE0002F938F939F93EF93FF93E091EF04F091C3
:103EF000F0048081E091F504F091F60482FD12C097
:103F000090818091F8048F5F8F732091F90482175C
:103F100051F0E091F804F0E0E152FB4F958F80936F
:103F2000F80401C08081FF91EF919F918F912F91B3
:103F30000F900FBE0F901F9018951F920F920FB603
:103F40000F9211242F933F934F935F936F937F931F
:103F50008F939F93AF93BF93EF93FF938FED94E075
:103F60000E94751EFF91EF91BF91AF919F918F912C
:103F70007F916F915F914F913F912F910F900FBE65
:103F80000F901F9018958FED94E00E942A1E21E05B
:103F9000892B09F420E0822F0895EFEDF4E01382DD
:103FA000128288EE93E0A0E0B0E084839583A6833C
:103FB000B78385E992E09183808385EC90E09587D3
:103FC000848784EC90E09787868780EC90E0918BE3
:103FD000808B81EC90E0938B828B82EC90E0958BD0
:103FE000848B86EC90E0978B868B118E128E138ECD
:103FF000148E08950E945E230E94AE170E94C90687
:10400000C7E6DEE10E9458072097E1F30E94671E91
:10401000F9CFCF92DF92EF92FF920F931F93CF933E
:10402000DF936C017A018B01C0E0D0E0CE15DF0593
:1040300081F0D8016D918D01D601ED91FC91019037
:10404000F081E02DC6010995892B11F02196EECF64
:104050007E01C701DF91CF911F910F91FF90EF90EB
:10406000DF90CF900895EF92FF920F931F93CF931D
:10407000DF938C017B01C0E0D0E0F701EC0FFD1F66
:104080006491662361F0D801ED91FC910190F0817B
:10409000E02DC8010995892B11F02196EECFCE01B4
:1040A000DF91CF911F910F91FF90EF9008950C94A5
:1040B0008D01DC01ED91FC910190F081E02D0994DE
:1040C00063EA72E00C948D010F931F93CF93DF93FB
:1040D000EC010E948D018C01CE010E946020800FB6
:1040E000911FDF91CF911F910F9108958F929F9211
:1040F000AF92BF92EF92FF920F931F93CF93DF93F4
:10410000CDB7DEB7A1970FB6F894DEBF0FBECDBF17
:104110007C01FA01CB0119A2223008F42AE08E01B9
:104120000F5D1F4F822E912CA12CB12CBF01A50138
:1041300094010E94D925F901CA01015011096A3080
:1041400010F4605D01C0695CD8016C93232B242BB3
:10415000252B61F7B801C7010E948D01A1960FB60A
:10416000F894DEBF0FBECDBFDF91CF911F910F91AD
:10417000FF90EF90BF90AF909F908F900895211582
:10418000310541F4DC01ED91FC910190F081E02DCD
:10419000642F09940C9476209A01462F50E060E039
:1041A00070E00C94BF200F931F93CF93DF93EC012B
:1041B0000E94CC208C01CE010E946020800F911FB4
:1041C000DF91CF911F910F9108959A01AB0160E0AB
:1041D00070E00C94BF20CF92DF92EF92FF920F938A
:1041E0001F93CF93DF932115310581F4DC01ED910D
:1041F000FC910190F081E02D642FDF91CF911F9110
:104200000F91FF90EF90DF90CF9009942A30310505
:1042100001F577FF1DC06A017B01EC016DE20E9490
:1042200059208C0144275527BA014C195D096E09A4
:104230007F092AE0CE010E947620800F911FDF9136
:10424000CF911F910F91FF90EF90DF90CF90089545
:104250002AE0DF91CF911F910F91FF90EF90DF90B7
:10426000CF900C9476209A01AB01770F660B770BF9
:104270000C94EB200F931F93CF93DF93EC010E94DC
:1042800033218C01CE010E946020800F911FDF91AD
:10429000CF911F910F9108957F928F929F92AF922D
:1042A000BF92CF92DF92EF92FF920F931F93CF9323
:1042B000DF938C016A017B01722E9A01AB01C70169
:1042C000B6010E94C025882319F066EA72E027C073
:1042D00046015701E894B7F82FEF3FEF4FE75FE74C
:1042E000C501B4010E94C02581110DC02FEF3FEF21
:1042F0004FE75FE7C501B4010E94591C18161CF472
:104300006AEA72E00CC02FEF3FEF4FE75FE4C701AE
:10431000B6010E94B81D181694F46EEA72E0C80146
:10432000DF91CF911F910F91FF90EF90DF90CF9091
:10433000BF90AF909F908F907F900C948D012FEF46
:104340003FEF4FE75FECC701B6010E94591C87FDA4
:10435000E4CF20E030E0A901C701B6010E94591C5A
:1043600087FF0AC06DE2C8010E945920EC01F7FAEC
:10437000F094F7F8F09402C0C0E0D0E0B12C60E017
:1043800070E080E09FE37B1441F020E030E040E209
:1043900051E40E945E1CB394F6CFA70196010E94DF
:1043A000ED1B6B017C010E94D71C4B015C012AE0D4
:1043B000AB01BC01C8010E947620C80FD91F77202D
:1043C000B9F1C501B4010E94061D9B01AC01C701F2
:1043D000B6010E94EC1B6B017C016EE2C8010E94D9
:1043E0005920C80FD91F20E030E040E251E4C70156
:1043F000B6010E94BD1D4B015C010E94D71C6B01E0
:104400007C014AE050E0C8010E94E520C80FD91F96
:10441000B60180E090E00E94061D9B01AC01C50141
:10442000B4010E94EC1B6B017C017A947110DBCF0C
:10443000CE01DF91CF911F910F91FF90EF90DF9010
:10444000CF90BF90AF909F908F907F9008950F93E3
:104450001F93CF93DF93EC010E944C218C01CE017E
:104460000E946020800F911FDF91CF911F910F91CB
:10447000089508958230E8F4E82FF0E0EE0FFF1F72
:10448000E55CFE4F71836083813041F0809169006B
:104490008C7F482B40936900E89A089580916900C9
:1044A000837F440F551F440F551F482B40936900CD
:1044B000E99A08951F920F920FB60F9211242F932D
:1044C0003F934F935F936F937F938F939F93AF939C
:1044D000BF93EF93FF93E0913B01F0913C0109956D
:1044E000FF91EF91BF91AF919F918F917F916F91CC
:1044F0005F914F913F912F910F900FBE0F901F90A2
:1045000018951F920F920FB60F9211242F933F937D
:104510004F935F936F937F938F939F93AF93BF93CB
:10452000EF93FF93E0913D01F0913E010995FF91DA
:10453000EF91BF91AF919F918F917F916F915F911B
:104540004F913F912F910F900FBE0F901F90189594
:104550001F920F920FB60F9211242F933F938F93B8
:104560009F93AF93BF9380917D0590917E05A0911D
:104570007F05B091800530917C0523E0230F2D3716
:1045800020F40196A11DB11D05C026E8230F029657
:10459000A11DB11D20937C0580937D0590937E0520
:1045A000A0937F05B093800580918105909182054D
:1045B000A0918305B09184050196A11DB11D809342
:1045C000810590938205A0938305B0938405BF91E4
:1045D000AF919F918F913F912F910F900FBE0F90B0
:1045E0001F9018953FB7F8948091810590918205AE
:1045F000A0918305B091840526B5A89B05C02F3FE7
:1046000019F00196A11DB11D3FBFBA2FA92F982FF8
:104610008827820F911DA11DB11DBC01CD0142E073
:10462000660F771F881F991F4A95D1F708958F92BB
:104630009F92AF92BF92CF92DF92EF92FF926B0167
:104640007C010E94F2224B015C01C114D104E104FF
:10465000F10401F10E94BF250E94F222DC01CB018E
:1046600088199909AA09BB09883E9340A105B1059B
:1046700060F321E0C21AD108E108F10888EE880E43
:1046800083E0981EA11CB11CC114D104E104F10403
:1046900019F7DBCFFF90EF90DF90CF90BF90AF90F6
:1046A0009F908F9008958230910538F0880F991F60
:1046B000880F991F05970197F1F70895789484B5AD
:1046C000826084BD84B5816084BD85B5826085BD0E
:1046D00085B5816085BDEEE6F0E0808181608083F4
:1046E000E1E8F0E0108280818260808380818160D7
:1046F0008083E0E8F0E0808181608083E1EBF0E09E
:10470000808184608083E0EBF0E080818160808341
:10471000EAE7F0E08081846080838081826080832A
:104720008081816080838081806880831092C10055
:1047300008958E3008F08E5020913F0190E4299F1B
:10474000900111248770822B80937C0080917A00E5
:10475000806480937A0080917A0086FDFCCF8091FE
:1047600078002091790090E0922B08951F93CF93C9
:10477000DF93182FEB0161E00E943E24209711F493
:1047800060E004C0CF3FD10539F461E0812FDF91B3
:10479000CF911F910C947A24E12FF0E0EE54FF4F5B
:1047A000E491E330F9F048F4E130B9F0E230A1F5FA
:1047B00084B5806284BDC8BD34C0E730E9F0E8301C
:1047C00019F1E43049F58091800080628093800087
:1047D000D0938B00C0938A0024C084B5806884BDC8
:1047E000C7BD1FC080918000806880938000D093F7
:1047F0008900C093880015C08091B00080688093C4
:10480000B000C093B3000DC08091B000806280936F
:10481000B000C093B40005C0C038D1050CF0B5CFCE
:10482000AFCFDF91CF911F910895833081F028F4AD
:10483000813099F08230A1F008958730A9F0883056
:10484000B9F08430D1F4809180008F7D03C08091D5
:1048500080008F7780938000089584B58F7702C0A1
:1048600084B58F7D84BD08958091B0008F7703C09B
:104870008091B0008F7D8093B0000895CF93DF9337
:1048800090E0FC01EA53FF4F2491FC01E652FF4FF8
:104890008491882361F190E0880F991FFC01EE5FFD
:1048A000FE4FC591D491FC01E850FF4FA591B49102
:1048B000611109C09FB7F89488812095822388836D
:1048C000EC912E230BC0623061F49FB7F89488817D
:1048D000322F309583238883EC912E2B2C939FBF0E
:1048E00006C08FB7F894E8812E2B28838FBFDF9105
:1048F000CF9108951F93CF93DF93282F30E0F901D4
:10490000EE54FF4F8491F901EA53FF4FD491F9011E
:10491000E652FF4FC491CC23C1F0162F81110E94A3
:104920001524EC2FF0E0EE0FFF1FE850FF4FA5918C
:10493000B4919FB7F894111104C08C91D095D823ED
:1049400002C0EC91DE2BDC939FBFDF91CF911F91D2
:104950000895009709F474C0109286051092850599
:10496000109293051092920510928E0510928F0569
:104970001092900510929105109289052091800067
:104980002093980520918100209397051092810033
:1049900010928000109285001092840021E026BBC6
:1049A00010926F002091B000209396052091B100E5
:1049B000209395051092B10022E02093B0009C0155
:1049C00027703327232B51F443E0969587954A951A
:1049D000E1F72CE72093B30027E018C09C01237077
:1049E0003327232B31F4969587959695879529EF54
:1049F00005C080FD07C0969587952CE72093B300EE
:104A000026E004C02CE72093B30025E02093940512
:104A100022E027BB1092B20090938805809387050F
:104A20009FB7F89423BD809194058093B1002093A3
:104A300070008BE08150F1F787E0809381009FBF89
:104A400008958091890508952FB7F89460918A059B
:104A500070918B0580918C0590918D051092890540
:104A60002FBF0895E1EBF0E010821092700080916A
:104A700096058093B000809195058083E1E8F0E091
:104A800010828091980580938000809197058083A3
:104A900008951F920F920FB60F9211240F931F9338
:104AA0002F933F934F935F936F937F938F939F9336
:104AB000AF93BF932091840030918500B09B0BC0D1
:104AC00081E086BB80919205909193050196909329
:104AD00093058093920580918505909186050196B6
:104AE00040918705509188058417950798F1109299
:104AF0008605109285058091920590919305A0E01E
:104B0000B0E0DC0199278827820F931FA11DB11DFA
:104B100040918E0550918F0560919005709191059F
:104B20008C019D01041B150B260B370B00938A0586
:104B300010938B0520938C0530938D0580938E0503
:104B400090938F05A0939005B093910581E0809399
:104B5000890504C09093860580938505BF91AF9128
:104B60009F918F917F916F915F914F913F912F9185
:104B70001F910F910F900FBE0F901F9018950895E1
:104B80000E94431D880B990B089597FB072E16F47E
:104B9000009407D077FD09D00E942B2607FC05D092
:104BA0003EF4909581959F4F0895709561957F4F44
:104BB0000895A1E21A2EAA1BBB1BFD010DC0AA1F5E
:104BC000BB1FEE1FFF1FA217B307E407F50720F076
:104BD000A21BB30BE40BF50B661F771F881F991FF1
:104BE0001A9469F760957095809590959B01AC013A
:104BF000BD01CF010895052E97FB1EF400940E947D
:104C0000122657FD07D00E94D92507FC03D04EF489
:104C10000C94122650954095309521953F4F4F4F5B
:104C20005F4F089590958095709561957F4F8F4F58
:104C30009F4F0895EE0FFF1F0590F491E02D09940A
:104C40000E943F26A59F900DB49F900DA49F800DBC
:104C5000911D11240895AA1BBB1B51E107C0AA1F77
:104C6000BB1FA617B70710F0A61BB70B881F991F0D
:104C70005A95A9F780959095BC01CD010895A29F02
:104C8000B001B39FC001A39F700D811D1124911D20
:104C9000B29F700D811D1124911D08950F931F93D4
:104CA000CF93DF938230910510F482E090E0E091A1
:104CB0009B05F0919C0520E030E0A0E0B0E030974B
:104CC00019F1408151810281138148175907C8F0B9
:104CD0008417950769F4109731F012960C93129788
:104CE00013961C9327C000939B0510939C0522C02C
:104CF0002115310519F04217530718F49A01BD0127
:104D0000EF01DF01F801DBCF21153105F9F0281B98
:104D1000390B2430310580F48A819B81611571053E
:104D200021F0FB019383828304C090939C058093C0
:104D30009B05FE01329644C0FE01E20FF31F8193F2
:104D4000919322503109398328833AC020919905E3
:104D500030919A05232B41F42091020130910301F7
:104D600030939A052093990520910001309101011B
:104D70002115310541F42DB73EB740910401509102
:104D80000501241B350BE0919905F0919A05E21776
:104D9000F307A0F42E1B3F0B2817390778F0AC015E
:104DA0004E5F5F4F2417350748F04E0F5F1F50933B
:104DB0009A05409399058193919302C0E0E0F0E059
:104DC000CF01DF91CF911F910F910895CF93DF9382
:104DD000009709F481C0FC01329713821282A091DE
:104DE0009B05B0919C05109781F420813181820F41
:104DF000931F2091990530919A052817390751F58D
:104E0000F0939A05E093990567C0ED0120E030E04A
:104E1000CE17DF0740F44A815B819E0141155105A1
:104E2000F1F0EA01F5CFD383C28340815181840F31
:104E3000951FC817D90759F488819981840F951F48
:104E40000296918380838A819B819383828321153B
:104E5000310529F4F0939C05E0939B053DC0E901E1
:104E6000FB83EA8349915991C40FD51FEC17FD07C5
:104E700061F480819181840F951F0296E9019983E5
:104E80008883828193819B838A83E0E0F0E012969D
:104E90008D919C911397009719F0FD01DC01F7CFDC
:104EA0008D919C9111979D012E5F3F4F820F931F13
:104EB0002091990530919A052817390769F43097A0
:104EC00029F410929C0510929B0502C01382128255
:104ED000B0939A05A0939905DF91CF910895FB01B6
:104EE000DC0102C001900D9241505040D8F7089566
:104EF000DC0101C06D9341505040E0F70895F999ED
:104F0000FECF92BD81BDF89A992780B50895262FCE
:104F1000F999FECF1FBA92BD81BD20BD0FB6F8949E
:104F2000FA9AF99A0FBE0196089510E0C9E8D0E008
:104F300004C0FE010E941A262196CB38D107C9F77A
:044F4000F894FFCF13
:104F440000009D05200061FF00FF00FF000000003D
:104F540000FF000000FF000000FF00000000000050
:104F64000000003C0041006E00000000001D001F16
:104F7400003C000000A2430080C6433922392201CC
:104F84005F6E65757472616C566F6C746167653AB7
:104F9400005F61636964566F6C746167653A0045CC
:104FA4004E544552504800455849545048004341D6
:104FB4004C504800435243206973206E6F7420762E
:104FC400616C6964210044657669636520697320B6
:104FD4006E6F74206120445331387832302066611A
:104FE4006D696C79206465766963652E00633A2087
:104FF40000726561645F696E3A2000524742002086
:10500400666F756E64456D707479426F7820002008
:10501400666F756E64456D707479426F784F725423
:105024006573745374726970200053746172746987
:105034006E6720736574757000436F6C6F7253658F
:105044006E736F72005048616E6454656D70657262
:10505400617475726500616C726561647920737442
:10506400617274656400696E736964652063617359
:105074006520636F6C6F7200696E73696465206389
:10508400617365207072696E740070683A007465AB
:105094006D703A00616D6D6F6E69613A006E69748E
:1050A400726974653A006E6974726174653A004994
:1050B400444C4500546D7220537663000001020095
:1050C400000000A01909207C19F019091A7F19F1B0
:1050D4001900000000971E0920581EE41E2A1E44D1
:1050E4001E361E0D0A006E616E00696E66006F76D4
:0250F400660054
:00000001FF
