:100000000C948B000C9497100C94BE100C94B300BD
:100010000C94B3000C94B3000C94F2210C94952230
:100020000C94B3000C94B3000C94B3000C94B30084
:100030000C94B3000C94B3000C94B3000C94B30074
:100040000C94E5100C94B3000C94CC0D0C94FE0DA4
:100050000C94B3000C94B3000C94B3000C94B30054
:100060000C94B3000C94B300FD1DFD1DFD1D3C1E42
:10007000271E361EFD1DFD1D3C1E271E0A466F75E0
:100080006E64204D61746368696E6720436F6C6FA6
:100090007200005EBCE2613FDD83C29C7E20A3FD56
:1000A0001F41009D23BE46DB65F88C11AF32CA5755
:1000B000E9740000000800020100000304070000CA
:1000C000000000000000010204081020408001022E
:1000D000040810200102040810200404040404048D
:1000E00004040202020202020303030303030000EA
:1000F0000000230026002900000000002500280041
:100100002B0000000000240027002A002008450AD8
:100110002E0E2C08490A11241FBECFEFD8E0DEBFF7
:10012000CDBF12E0A0E0B1E0EAEDF9E402C0059035
:100130000D92AC33B107D9F724E0ACE3B2E001C0D3
:100140001D92A53BB207E1F710E0C9E8D0E004C07A
:100150002197FE010E946523C638D107C9F70E9486
:100160005B0E0C94E0240C9400000C94CA24FC0157
:1001700080E090E0A8ECB1E4808B918BA28BB38BF4
:1001800080E090E0A0EEB0E480839183A283B3830B
:1001900084E19EE0AEEFB4E484839583A683B783C5
:1001A00080E090E8ABEBB4E480879187A287B387C7
:1001B00084879587A687B78708950895CF92DF92A1
:1001C000EF92FF920F931F93CF93DF93EC017C018B
:1001D00088E0E80EF11C670100E010E0C8010E9411
:1001E000B500F60181936F010F5F1F4F04301105B9
:1001F000A9F761E371E084E793E00E94B80E4885B7
:1002000059856A857B8522E030E084E793E00E948F
:10021000641080E090E00E94B5008F3F39F581E0E6
:1002200090E00E94B5008F3F09F582E090E00E94C7
:10023000B5008F3FD9F483E090E00E94B5008F3F76
:10024000A9F480E090E8ABEBB4E488879987AA87AB
:10025000BB8700E010E0F70161917F01C8010E94B7
:10026000D2240F5F1F4F04301105A9F77E01F4E07F
:10027000EF0EF11C670104E010E0C8010E94B50018
:10028000F60181936F010F5F1F4F08301105A9F729
:1002900062E471E084E793E00E94B80E4C815D81D6
:1002A0006E817F8122E030E084E793E00E94641059
:1002B00084E090E00E94B5008F3F31F585E090E04A
:1002C0000E94B5008F3F01F586E090E00E94B500E6
:1002D0008F3FD1F487E090E00E94B5008F3FA1F4FA
:1002E00084E19EE0AEEFB4E48C839D83AE83BF8354
:1002F000C4E0D0E0F70161917F01CE010E94D224D9
:100300002196C830D105B1F7DF91CF911F910F91A0
:10031000FF90EF90DF90CF9008954F925F926F9291
:100320007F928F929F92AF92BF92CF92DF92EF9285
:10033000FF92CF93DF93EC012A013B0120E030E8EC
:100340004BEB54E4688579858A859B850E944D0A2C
:100350004B015C0120E030E040E450E40E94BF0A21
:100360006B017C0120E030E84BEB54E46C817D8133
:100370008E819F810E944D0A20E030E040E450E4ED
:100380000E94BF0A9B01AC01C701B6010E944D0A41
:100390009B01AC0160E070E080E490E40E94BF0A41
:1003A0006B017C019B01AC01C501B4010E941E0CD4
:1003B00020E030E040E450E40E94BF0A9B01AC0121
:1003C00060E070E080EE90E40E944D0A4B015C0119
:1003D00020E030E84BEB54E4C301B2010E944D0A27
:1003E000A70196010E941E0C20E030E040E450E49A
:1003F0000E94BF0A9B01AC01C501B4010E944E0AD4
:10040000688379838A839B83DF91CF91FF90EF90FC
:10041000DF90CF90BF90AF909F908F907F906F9024
:100420005F904F90089580914202909143020C9406
:10043000E9176115710579F0FB0101900020E9F7DA
:100440003197AF01461B570BDC01ED91FC91028007
:10045000F381E02D099480E090E00895DC01ED91B6
:10046000FC910190F081E02D642F0994CF92DF92EE
:10047000FF920F931F93CF93DF93CDB7DEB76497AF
:100480000FB6F894DEBF0FBECDBF87E493E00E94A5
:100490003C096AEF70E080E090E00E94541141E076
:1004A000BE01635F7F4F87E493E00E946B0967E0C2
:1004B000CE010D960E94F2099C89891719F065E614
:1004C00071E009C08D85823291F0883281F08031EF
:1004D00059F067E771E084E793E00E94C50E60E0A1
:1004E00070E080E89FEB6AC0FF24F39401C0F12C18
:1004F00087E493E00E943008BE01635F7F4F87E48A
:1005000093E00E941D0941E064E487E493E00E94C7
:10051000CD0868EE73E080E090E00E94541187E41B
:1005200093E00E943008BE01635F7F4F87E493E051
:100530000E941D0940E06EEB87E493E00E94CD0825
:100540008E010F5F1F4F6E018AE0C80ED11C87E439
:1005500093E00E940109F80181938F01EC15FD05DC
:10056000B1F769817A81FF2089F083E0660F771FF8
:100570008A95E1F788858031A9F42F818CE090E09D
:10058000821B9109607F680F791F0CC08D81807676
:1005900011F4687F07C0803211F46C7F03C080348F
:1005A00009F46E7F072E000C880B990B0E94690BD3
:1005B00020E030E040E85DE30E941E0C64960FB638
:1005C000F894DEBF0FBECDBFDF91CF911F910F9189
:1005D000FF90DF90CF9008950F931F93CF93DF93F9
:1005E000C4E1D3E0188219821A821B821D821C8208
:1005F0001F821E8219861886AEECB2E01D921D92F3
:100600001D921C92139715961C921E921497179682
:100610001C921E92169719961C921E921897E8E843
:10062000F2E01082118212821382158214821782E4
:1006300016821186108640E050E060E87EE34A872B
:100640005B876C877D871F861E86198A188A1B8A9E
:100650001A8A4AE959E969E17EE31A964D935D9356
:100660006D937C931D971F961C921E921E97519618
:100670001C921E92509753961C921E92529740E0E5
:1006800050E060E07FE34287538764877587178671
:100690001686118A108A138A128A4C8B5D8B6E8B98
:1006A0007F8B198E188E1B8E1A8E1D8E1C8E4AE91A
:1006B00059E969E97EE354964D935D936D937C937C
:1006C000579759961C921E9258975B961C921E92B1
:1006D0005A975D961C921E925C9740E050E060E055
:1006E00070E4448B558B668B778B118E108E138E36
:1006F000128E158E148E00E010E020E430E40E8F90
:100700001F8F28A339A31BA21AA21DA21CA21FA2DD
:100710001EA240E050E060E87FE35E964D935D935B
:100720006D937C93919793961C921E9292979596B7
:100730001C921E92949797961C921E92969740E058
:1007400050E060EA70E4468F578F60A371A313A254
:1007500012A215A214A217A216A240E050E060EC6B
:1007600070E448A759A76AA77BA71DA61CA61FA6C9
:100770001EA619AA18AA40E050E060EC7FE3989604
:100780004D935D936D937C939B979D961C921E92C7
:100790009C979F961C921E929E97D1961C921E9299
:1007A000D09740E050E060E271E440A751A762A713
:1007B00073A715A614A617A616A611AA10AAD29654
:1007C0000D931D932D933C93D597D7961C921E9213
:1007D000D697D9961C921E92D897DB961C921E92A1
:1007E000DA9700E010E020EA31E402AB13AB24AB6F
:1007F00035AB17AA16AA11AE10AE13AE12AEDC9628
:100800004D935D936D937C93DF9710920F0310923D
:100810000E03109211031092100310921303109202
:10082000120380E090E0A8E4B2E484AF95AFA6AFF5
:10083000B7AF1092C9021092C8021092CB02109268
:10084000CA021092CD021092CC02DF91CF911F917B
:100850000F9108951F93CF93DF9310918502D0914C
:100860008602C09187026EE971E084E793E00E94FE
:10087000B80E60917F02709180024AE050E084E7F8
:1008800093E00E94820F60EA71E084E793E00E94A7
:10089000B80E60918102709182024AE050E084E7D4
:1008A00093E00E94820F60EA71E084E793E00E9487
:1008B000B80E60918302709184024AE050E084E7B0
:1008C00093E00E94820F62EA71E084E793E00E9465
:1008D000B80E4AE050E0612F84E793E00E942D0FAC
:1008E00060EA71E084E793E00E94B80E4AE050E0CD
:1008F0006D2F84E793E00E942D0F60EA71E084E79A
:1009000093E00E94B80E4AE050E06C2F84E793E039
:100910000E942D0F612F70E080917F0290918002E4
:100920009C01245131096217730764F144968617BC
:10093000970744F16D2F70E08091810290918202BF
:100940009C012451310962177307E4F0449686171D
:100950009707C4F06C2F70E080918302909184021D
:100960009C01245131096217730764F0449686177D
:10097000970744F06CE770E084E793E00E94940EE0
:1009800081E001C080E0DF91CF911F9108950F9326
:100990001F93CF93DF9380914603813009F448C0C1
:1009A00040F0823009F06EC00EEC12E0C6E0D0E0FC
:1009B00029C004E113E0C4E0D0E08AE0F801B89671
:1009C000ABE7B2E001900D928A95E1F70E942A040C
:1009D000882349F08AE08C9FF0018D9FF00D11244F
:1009E000EC5EFC4F3EC021970A501109CF3F8FEFBC
:1009F000D80719F742C021970A501109CF3F8FEF4E
:100A0000D807D9F18AE0F801FC96ABE7B2E0019093
:100A10000D928A95E1F70E942A04882361F38AE007
:100A20008C9FF0018D9FF00D1124E253FD4F19C0F2
:100A300008E812E0C6E0D0E08AE0F801FC96ABE7F7
:100A4000B2E001900D928A95E1F70E942A04882372
:100A500069F08AE08C9FF0018D9FF00D1124E8571A
:100A6000FD4F30812181928183810BC021970A50F3
:100A70001109CF3F8FEFD807F9F630E020E090E87A
:100A80008FEBAC01632F722F852F942FDF91CF91C5
:100A90001F910F9108958CE492E00E94CC1F8CE48A
:100AA00092E00E94D61F8823D1F365E872E08CE4BF
:100AB00092E00E94021F0E94C7040E94310B089519
:100AC000CF938CE492E00E94CC1F8CE492E00E94D1
:100AD000D61F8823D1F365E872E08CE492E00E948F
:100AE000021F8AE0E2E2F1E0ABE7B2E001900D9292
:100AF0008A95E1F70E942A04C82F8AE0E8E1F1E034
:100B0000ABE7B2E001900D928A95E1F7C11103C005
:100B10000E942A04C82F6C2F70E04AE050E084E75E
:100B200093E00E94820F6EE172E084E793E00E94FE
:100B3000B80E8C2FCF910895CF93DF9300D000D0C3
:100B400000D0CDB7DEB749835A836B837C838D8316
:100B50009E8369817A8182E00E94F3116B817C819E
:100B600083E00E94F3116D817E8184E026960FB6AA
:100B7000F894DEBF0FBECDBFDF91CF910C94F3117F
:100B80000E94661861E08DE00E947B1261E070E0D7
:100B900080914402909145020E945A15813009F0DB
:100BA00069C061E089E00E94B7124091060150914E
:100BB0000701609108017091090180910A019091EB
:100BC0000B010E949C050E9460058111FCCF4091A1
:100BD0000C0150910D0160910E0170910F018091F7
:100BE0001001909111010E949C056AEF70E080E075
:100BF00090E00E945411109246030E944B056B0135
:100C00007C016CEA71E084E793E00E94190268EBD2
:100C100071E084E793E00E9419026CEA71E084E7D6
:100C200093E00E941902B701A60184E793E00E94B5
:100C30002E02409146025091470260914802709105
:100C4000490280914A0290914B020E949C0560E00B
:100C500089E00E94B71220E040E050E060E070E0E0
:100C600080914402909145020E94031480E090E03C
:100C70000E94361A81E090E00E94C31987CF0E943B
:100C8000661861E08DE00E947B12C1E0D2E061E075
:100C900070E080914402909145020E945A15813083
:100CA00009F091C00E9460058823E1F340910C0196
:100CB00050910D0160910E0170910F018091100112
:100CC000909111010E949C056AEF70E080E090E035
:100CD0000E945411C09346030E944B056B017C0196
:100CE0006CEA71E084E793E00E94190260EC71E025
:100CF00084E793E00E9419026CEA71E084E793E0D4
:100D00000E941902B701A60184E793E00E942E0217
:100D10004091460250914702609148027091490209
:100D200080914A0290914B020E949C050E946005AE
:100D30008823E1F340910601509107016091080179
:100D40007091090180910A0190910B010E949C050C
:100D5000D09346030E944B056B017C016CEA71E065
:100D600084E793E00E94190268EC71E084E793E065
:100D70000E9419026CEA71E084E793E00E94190274
:100D8000B701A60184E793E00E942E02409146023B
:100D900050914702609148027091490280914A0245
:100DA00090914B020E949C0520E040E050E060E002
:100DB00070E080914402909145020E94031480E00B
:100DC00090E00E94361A81E090E00E94C3195FCF44
:100DD000CF93DF9300D0CDB7DEB70E9466189A8319
:100DE0008983409112015091130160911401709117
:100DF000150180911601909117010E949C0561E0F8
:100E000089E00E94B71264EF71E080E090E00E94F8
:100E100054110E9436020E94310B0E940E0A6B018F
:100E20007C016CEA71E084E793E00E94190260EDB6
:100E300071E084E793E00E9419026CEA71E084E7B4
:100E400093E00E941902C701B6010E94310BAB0169
:100E5000BC0184E793E00E942E024091460250912B
:100E60004702609148027091490280914A02909134
:100E70004B020E949C0560E089E00E94B7126AEF75
:100E800070E0CE0101960E948B19ABCFCF93DF9318
:100E900000D0CDB7DEB70E9466189A83898340914F
:100EA000060150910701609108017091090180913C
:100EB0000A0190910B010E949C050E9436026B0171
:100EC0007C016CEA71E084E793E00E94190263ED13
:100ED00071E084E793E00E9419026CEA71E084E714
:100EE00093E00E941902C701B6010E94310BAB01C9
:100EF000BC0184E793E00E942E024091460250918B
:100F00004702609148027091490280914A02909193
:100F10004B020E949C0564ED71E0CE0101960E9497
:100F20008B19BDCF61E082E00E947B1261E083E01B
:100F30000E947B1261E084E00E947B124091460295
:100F400050914702609148027091490280914A0293
:100F500090914B020C949C05EF92FF920F9326E028
:100F600040E052EC61E070E084E793E00E94670D9E
:100F700068ED71E084E793E00E9419026BED71E087
:100F800084E793E00E9419020E94EC020E949207FB
:100F90000E940A0A60E080E00E94B71243E050E03D
:100FA00063E172E080E00E94771082E4E82E82E044
:100FB000F82E02E020E030E040E850E067EE71E01B
:100FC00080EC95E00E94DD1690E4E92E92E0F92E87
:100FD00020E030E040E850E06FEE71E08FE396E013
:100FE0000E94DD162EE3E22E22E0F22E20E030E019
:100FF00040E850E060ED71E088EE96E00E94DD167A
:101000003CE3E32E32E0F32E20E030E040E850E015
:101010006FEF71E086E497E00E94DD168091420256
:10102000909143020E94361A8091400290914102B1
:101030000E94361A0F91FF90EF900C943218089589
:1010400067E087E493E00E94480928E04DE06CE007
:101050008CE492E00C94901E8CE492E00C94A41E1C
:10106000FF920F931F93CF93DF93FC01F080C18118
:10107000D281F89489810F2D0095802389837894FB
:101080001DE7115029F182E090E00E9490118881C3
:101090008F21B9F3F8948A8180238A8389818F29EB
:1010A0008983789480EE91E00E949011F894898170
:1010B0000823098386E490E00E9490118881F82239
:1010C00011E009F010E078948AE991E00E94901113
:1010D000812FDF91CF911F910F91FF9008951F9362
:1010E000CF93DF93FC011081C181D281812F809544
:1010F00060FF12C0F8949A8189238A838981812BA9
:1011000089838AE090E00E9490118A81182B1A83CB
:10111000789487E390E011C0F8949A8189238A83B8
:101120008981812B898381E490E00E9490118A81DA
:10113000182B1A83789485E090E0DF91CF911F916E
:101140000C9490110F931F93CF93DF93FC010081B8
:10115000C181D281F8948981802B89838A81102F63
:10116000109581238A8383E090E00E949011898109
:10117000182319838AE090E00E949011C881789426
:1011800085E390E00E949011C02381E009F480E0A3
:10119000DF91CF911F910F910895DF92EF92FF920F
:1011A0000F931F93CF93DF93EC01D62EE42E08E02C
:1011B00010E0FF24F39461E08D2D8F2109F460E0AD
:1011C000CE010E946F08FF0C01501109A1F7E11038
:1011D00010C0F894E981FA819181888180958923F2
:1011E0008183E981FA819281888180958923828334
:1011F0007894DF91CF911F910F91FF90EF90DF9046
:101200000895EF92FF920F931F93CF93DF937C018A
:1012100008E010E0C0E0D1E0C7010E94A2088111FF
:10122000CD2BDD0F01501109B9F78C2FDF91CF9134
:101230001F910F91FF90EF900895EF92FF920F93FF
:101240001F93CF93DF938C017B0140E065E50E9403
:10125000CD08E70188E0E80EF11C699140E0C80183
:101260000E94CD08CE15DF05C1F7DF91CF911F9108
:101270000F91FF90EF900895FC0113861586148658
:10128000DC011B9633961E92AE17BF07E1F7089557
:101290001F93CF93DF93EC01162F60E0812F0E9404
:1012A0007B12612F70E0FB01EA53FF4FE491E8836A
:1012B000FB01E652FF4FE491F0E0EE0FFF1FE25119
:1012C000FF4F859194919A838983CE01DF91CF91CD
:1012D0001F910C943C09BF92CF92DF92EF92FF9244
:1012E0000F931F93CF93DF93EC016B01142F8D8528
:1012F000811105C0CE010E943008811105C01B86F6
:101300001D861C8680E064C040E0112311F060EF70
:1013100001C06CEECE010E94CD0801E0E12CB12CA1
:1013200011E0CE010E94A208F82ECE010E94A20870
:1013300091E0F91203C08130B1F434C02E2D30E0B9
:10134000F8121BC08B85181738F4FE01E20FF31F4B
:101350008381802341F402C0181729F0F12C193041
:1013600058F41C8709C0FE01EE0DF11D8381802B0E
:101370008383FF24F39409C0B12EFE01E20FF31F13
:101380009381802F8095892383836F2DCE010E94C6
:101390006F081F5F000F11F4E39401E087E08E15E2
:1013A00008F0BFCF113408F4AACFBB86B11002C039
:1013B00081E08D878B81882309F4A1CFDE0113960C
:1013C000F6012B968D918193CA17DB07D9F781E03F
:1013D000DF91CF911F910F91FF90EF90DF90CF9011
:1013E000BF900895DC0180E0615098F02D91982F16
:1013F0009227E92FEF70F0E0EE56FF4F249192957F
:101400009F70E92FF0E0EE55FF4FE491822F8E2779
:10141000EBCF089585E593E00C94DE00CF92DF9248
:10142000EF92FF920F931F93CF93DF936B017C0199
:101430008FE00E94D611EC01C701B6010E94690B32
:101440006B017C01BE01DD0F880B990B0E94690BBB
:1014500020E030E040E85AE30E941E0C20E030E437
:101460004CE955E40E941E0CAB01BC0197018601BA
:1014700085E593E00E948D01DF91CF911F910F913F
:10148000FF90EF90DF90CF90089585E593E00C9466
:10149000B70085E593E00C94DD005058BB27AA27E0
:1014A0000E94650A0C94DF0B0E94D10B38F00E9459
:1014B000D80B20F039F49F3F19F426F40C94CE0B8E
:1014C0000EF4E095E7FB0C94C80BE92F0E94F00B9B
:1014D00058F3BA17620773078407950720F079F469
:1014E000A6F50C94120C0EF4E0950B2EBA2FA02D3D
:1014F0000B01B90190010C01CA01A0011124FF27C1
:10150000591B99F0593F50F4503E68F11A16F040BB
:10151000A22F232F342F4427585FF3CF46953795BA
:101520002795A795F0405395C9F77EF41F16BA0B7F
:10153000620B730B840BBAF09150A1F0FF0FBB1F2D
:10154000661F771F881FC2F70EC0BA0F621F731F76
:10155000841F48F4879577956795B795F7959E3FD3
:1015600008F0B0CF9395880F08F09927EE0F979564
:10157000879508950E94A40B08F481E008950E94C5
:10158000D30A0C94DF0B0E94D80B58F00E94D10BA9
:1015900040F029F45F3F29F00C94C80B51110C94D2
:1015A000130C0C94CE0B0E94F00B68F39923B1F34B
:1015B000552391F3951B550BBB27AA276217730779
:1015C000840738F09F5F5F4F220F331F441FAA1F0D
:1015D000A9F335D00E2E3AF0E0E832D091505040C9
:1015E000E695001CCAF72BD0FE2F29D0660F771F77
:1015F000881FBB1F261737074807AB07B0E809F05D
:10160000BB0B802DBF01FF2793585F4F3AF09E3FE1
:10161000510578F00C94C80B0C94130C5F3FE4F365
:10162000983ED4F3869577956795B795F7959F5F24
:10163000C9F7880F911D9695879597F90895E1E070
:10164000660F771F881FBB1F621773078407BA07CF
:1016500020F0621B730B840BBA0BEE1F88F7E0952A
:1016600008950E94380B6894B1110C94130C0895DE
:101670000E94F80B88F09F5798F0B92F9927B7511F
:10168000B0F0E1F0660F771F881F991F1AF0BA9526
:10169000C9F714C0B13091F00E94120CB1E0089566
:1016A0000C94120C672F782F8827B85F39F0B93F58
:1016B000CCF3869577956795B395D9F73EF49095D9
:1016C0008095709561957F4F8F4F9F4F0895E89457
:1016D00009C097FB3EF490958095709561957F4F7A
:1016E0008F4F9F4F9923A9F0F92F96E9BB27939528
:1016F000F695879577956795B795F111F8CFFAF438
:10170000BB0F11F460FF1BC06F5F7F4F8F4F9F4F68
:1017100016C0882311F096E911C0772321F09EE8C6
:10172000872F762F05C0662371F096E8862F70E02C
:1017300060E02AF09A95660F771F881FDAF7880F06
:101740009695879597F90895990F0008550FAA0B5C
:10175000E0E8FEEF16161706E807F907C0F01216C4
:101760001306E407F50798F0621B730B840B950BC7
:1017700039F40A2661F0232B242B252B21F408951C
:101780000A2609F4A140A6958FEF811D811D0895B9
:1017900097F99F6780E870E060E008959FEF80EC24
:1017A000089500240A9416161706180609060895C7
:1017B00000240A9412161306140605060895092E2D
:1017C0000394000C11F4882352F0BB0F40F4BF2B9C
:1017D00011F460FF04C06F5F7F4F8F4F9F4F0895DC
:1017E00057FD9058440F551F59F05F3F71F04795D2
:1017F000880F97FB991F61F09F3F79F087950895B7
:10180000121613061406551FF2CF4695F1DF08C0D5
:10181000161617061806991FF1CF869571056105F2
:1018200008940895E894BB2766277727CB0197F99A
:1018300008950E94A40B08F48FEF08950E94310CC4
:101840000C94DF0B0E94D10B38F00E94D80B20F0D3
:10185000952311F00C94C80B0C94CE0B11240C940E
:10186000130C0E94F00B70F3959FC1F3950F50E09D
:10187000551F629FF001729FBB27F00DB11D639F42
:10188000AA27F00DB11DAA1F649F6627B00DA11DE8
:10189000661F829F2227B00DA11D621F739FB00D8E
:1018A000A11D621F839FA00D611D221F749F3327FE
:1018B000A00D611D231F849F600D211D822F762F97
:1018C0006A2F11249F5750409AF0F1F088234AF074
:1018D000EE0FFF1FBB1F661F771F881F91505040E0
:1018E000A9F79E3F510580F00C94C80B0C94130C83
:1018F0005F3FE4F3983ED4F3869577956795B79567
:10190000F795E7959F5FC1F7FE2B880F911D969580
:10191000879597F90895FC01918D228D892F90E08C
:10192000805C9F4F821B91098F7399270895FC015A
:10193000918D828D981731F0828DE80FF11D858D84
:1019400090E008958FEF9FEF0895FC01918D828DB7
:10195000981761F0828DDF01A80FB11D5D968C9103
:10196000928D9F5F9F73928F90E008958FEF9FEF0E
:101970000895FC01538D448D252F30E0842F90E095
:10198000821B930B541710F0CF960895019708957A
:1019900084E29EE0892B49F080E090E0892B29F0D9
:1019A0000E94240E81110C9400000895FC01848D86
:1019B000DF01A80FB11DA35ABF4F2C91848D90E079
:1019C00001968F739927848FA689B7892C93A08954
:1019D000B1898C91837080648C93938D848D9813DE
:1019E00006C00288F389E02D80818F7D8083089571
:1019F000EF92FF920F931F93CF93DF93EC0181E05F
:101A0000888F9B8D8C8D981305C0E889F98980811A
:101A100085FD26C0F62E0B8D10E00F5F1F4F0F7354
:101A20001127E02E8C8DE8120CC00FB607FCFACF00
:101A3000E889F989808185FFF5CFCE010E94D60C17
:101A4000F1CF8B8DFE01E80FF11DE35AFF4FF082BD
:101A50009FB7F8940B8FEA89FB89808180620AC066
:101A60009FB7F894EE89FF896083E889F9898081BE
:101A70008370806480839FBF81E090E0DF91CF918D
:101A80001F910F91FF90EF900895CF93DF93EC019A
:101A9000888D8823C9F0EA89FB89808185FD05C08E
:101AA000A889B9898C9186FD0FC00FB607FCF5CFC8
:101AB000808185FFF2CFA889B9898C9185FFEDCF10
:101AC000CE010E94D60CE7CFDF91CF910895CF923F
:101AD000DF92EF92FF921F93CF93DF93EC016A01A5
:101AE0007B01122FE889F98982E080834115514EEC
:101AF00061057105B1F060E079E08DE390E0A70148
:101B000096010E942423DA01C9010197A109B109B4
:101B1000B695A795979587959C01211580E1380783
:101B2000A8F0E889F989108260E874E88EE190E015
:101B3000A70196010E942423DA01C9010197A10996
:101B4000B109B695A795979587959C01EC85FD857C
:101B50003083EE85FF852083188EEC89FD89108304
:101B6000EA89FB89808180618083EA89FB898081A1
:101B700088608083EA89FB89808180688083EA8924
:101B8000FB8980818F7D8083DF91CF911F91FF90B2
:101B9000EF90DF90CF9008951F920F920FB60F92A3
:101BA00011242F938F939F93EF93FF93E0918403DE
:101BB000F09185038081E0918A03F0918B0382FD8F
:101BC00012C0908180918D038F5F8F7320918E035F
:101BD000821751F0E0918D03F0E0EC58FC4F958FA7
:101BE00080938D0301C08081FF91EF919F918F9130
:101BF0002F910F900FBE0F901F9018951F920F926C
:101C00000FB60F9211242F933F934F935F936F93CF
:101C10007F938F939F93AF93BF93EF93FF9384E74B
:101C200093E00E94D60CFF91EF91BF91AF919F91ED
:101C30008F917F916F915F914F913F912F910F9075
:101C40000FBE0F901F90189584E793E00E948B0CB5
:101C500021E0892B09F420E0822F0895E4E7F3E0E6
:101C60001382128288EE93E0A0E0B0E08483958333
:101C7000A683B7838FE092E09183808385EC90E028
:101C80009587848784EC90E09787868780EC90E046
:101C9000918B808B81EC90E0938B828B82EC90E037
:101CA000958B848B86EC90E0978B868B118E128EB1
:101CB000138E148E08950E949B110E94411E0E9453
:101CC000AC07C8ECDCE00E941F082097E1F30E94FB
:101CD000C80CF9CFCF92DF92EF92FF920F931F9330
:101CE000CF93DF936C017A018B01C0E0D0E0CE1579
:101CF000DF0581F0D8016D918D01D601ED91FC9148
:101D00000190F081E02DC6010995892B11F02196F3
:101D1000EECF7E01C701DF91CF911F910F91FF9010
:101D2000EF90DF90CF900895EF92FF920F931F9363
:101D3000CF93DF938C017B01C0E0D0E0F701EC0F83
:101D4000FD1F6491662361F0D801ED91FC91019033
:101D5000F081E02DC8010995892B11F02196EECF75
:101D6000CE01DF91CF911F910F91FF90EF900895D9
:101D70000C941902DC01ED91FC910190F081E02DB1
:101D800009946DE172E00C9419020F931F93CF93A5
:101D9000DF93EC010E9419028C01CE010E94C10E5A
:101DA000800F911FDF91CF911F910F9108958F9216
:101DB0009F92AF92BF92EF92FF920F931F93CF9398
:101DC000DF93CDB7DEB7A1970FB6F894DEBF0FBE95
:101DD000CDBF7C01FA01CB0119A2223008F42AE020
:101DE0008E010F5D1F4F822E912CA12CB12CBF01B3
:101DF000A50194010E942423F901CA01015011098F
:101E00006A3010F4605D01C0695CD8016C93232BCB
:101E1000242B252B61F7B801C7010E941902A19656
:101E20000FB6F894DEBF0FBECDBFDF91CF911F91EB
:101E30000F91FF90EF90BF90AF909F908F9008957B
:101E40002115310541F4DC01ED91FC910190F08107
:101E5000E02D642F09940C94D70E9A01462F50E080
:101E600060E070E00C94200F9A01AB0160E070E03C
:101E70000C94200FCF92DF92EF92FF920F931F935B
:101E8000CF93DF932115310581F4DC01ED91FC91B5
:101E90000190F081E02D642FDF91CF911F910F9180
:101EA000FF90EF90DF90CF9009942A30310501F533
:101EB00077FF1DC06A017B01EC016DE20E94BA0E42
:101EC0008C0144275527BA014C195D096E097F0919
:101ED0002AE0CE010E94D70E800F911FDF91CF9193
:101EE0001F910F91FF90EF90DF90CF9008952AE01F
:101EF000DF91CF911F910F91FF90EF90DF90CF90E6
:101F00000C94D70E9A01AB01770F660B770B0C94EC
:101F10003A0F7F928F929F92AF92BF92CF92DF92B1
:101F2000EF92FF920F931F93CF93DF938C016A017F
:101F30007B01722E9A01AB01C701B6010E940B23EF
:101F4000882319F060E272E027C046015701E89447
:101F5000B7F82FEF3FEF4FE75FE7C501B4010E94ED
:101F60000B2381110DC02FEF3FEF4FE75FE7C50156
:101F7000B4010E94BA0A18161CF464E272E00CC0A4
:101F80002FEF3FEF4FE75FE4C701B6010E94190C46
:101F9000181694F468E272E0C801DF91CF911F91A6
:101FA0000F91FF90EF90DF90CF90BF90AF909F90F8
:101FB0008F907F900C9419022FEF3FEF4FE75FEC6B
:101FC000C701B6010E94BA0A87FDE4CF20E030E0E5
:101FD000A901C701B6010E94BA0A87FF0AC06DE2D3
:101FE000C8010E94BA0EEC01F7FAF094F7F8F094E9
:101FF00002C0C0E0D0E0B12C60E070E080E09FE380
:102000007B1441F020E030E040E251E40E94BF0A3E
:10201000B394F6CFA70196010E944E0A6B017C0192
:102020000E94380B4B015C012AE0AB01BC01C801E6
:102030000E94D70EC80FD91F7720B9F1C501B4018E
:102040000E94670B9B01AC01C701B6010E944D0ABB
:102050006B017C016EE2C8010E94BA0EC80FD91F45
:1020600020E030E040E251E4C701B6010E941E0CBE
:102070004B015C010E94380B6B017C014AE050E08F
:10208000C8010E94340FC80FD91FB60180E090E04C
:102090000E94670B9B01AC01C501B4010E944D0A6F
:1020A0006B017C017A947110DBCFCE01DF91CF916F
:1020B0001F910F91FF90EF90DF90CF90BF90AF9066
:1020C0009F908F907F9008950F931F93CF93DF93EE
:1020D000EC010E94890F8C01CE010E94C10E800F7D
:1020E000911FDF91CF911F910F9108950895823034
:1020F000E8F4E82FF0E0EE0FFF1FE45DFE4F718380
:102100006083813041F0809169008C7F482B40933F
:102110006900E89A089580916900837F440F551FF4
:10212000440F551F482B40936900E99A08951F9268
:102130000F920FB60F9211242F933F934F935F93FB
:102140006F937F938F939F93AF93BF93EF93FF937F
:10215000E0912C01F0912D010995FF91EF91BF9134
:10216000AF919F918F917F916F915F914F913F912F
:102170002F910F900FBE0F901F9018951F920F92E6
:102180000FB60F9211242F933F934F935F936F934A
:102190007F938F939F93AF93BF93EF93FF93E091C0
:1021A0002E01F0912F010995FF91EF91BF91AF9111
:1021B0009F918F917F916F915F914F913F912F915F
:1021C0000F900FBE0F901F9018951F920F920FB691
:1021D0000F9211242F933F938F939F93AF93BF93AD
:1021E0008091120490911304A0911404B0911504ED
:1021F0003091110423E0230F2D3720F40196A11D07
:10220000B11D05C026E8230F0296A11DB11D209324
:1022100011048093120490931304A0931404B093B8
:1022200015048091160490911704A0911804B091A0
:1022300019040196A11DB11D8093160490931704F3
:10224000A0931804B0931904BF91AF919F918F91FF
:102250003F912F910F900FBE0F901F9018953FB791
:10226000F8948091160490911704A0911804B091ED
:10227000190426B5A89B05C02F3F19F00196A11D92
:10228000B11D3FBFBA2FA92F982F8827820F911D0C
:10229000A11DB11DBC01CD0142E0660F771F881F53
:1022A000991F4A95D1F708958F929F92AF92BF924E
:1022B000CF92DF92EF92FF926B017C010E942F116F
:1022C0004B015C01C114D104E104F10401F10E944D
:1022D000E41F0E942F11DC01CB0188199909AA097A
:1022E000BB09883E9340A105B10560F321E0C21A05
:1022F000D108E108F10888EE880E83E0981EA11C41
:10230000B11CC114D104E104F10419F7DBCFFF9033
:10231000EF90DF90CF90BF90AF909F908F900895F7
:102320008230910538F0880F991F880F991F059703
:102330000197F1F70895789484B5826084BD84B5DF
:10234000816084BD85B5826085BD85B5816085BDB0
:10235000EEE6F0E0808181608083E1E8F0E01082C9
:10236000808182608083808181608083E0E8F0E00A
:10237000808181608083E1EBF0E0808184608083F4
:10238000E0EBF0E0808181608083EAE7F0E080812B
:10239000846080838081826080838081816080838B
:1023A0008081806880831092C10008958E3008F08B
:1023B0008E502091300190E4299F90011124877064
:1023C000822B80937C0080917A00806480937A00D5
:1023D00080917A0086FDFCCF809178002091790071
:1023E00090E0922B08951F93CF93DF93182FEB016A
:1023F00061E00E947B12209711F460E004C0CF3F9F
:10240000D10539F461E0812FDF91CF911F910C94B8
:10241000B712E12FF0E0EE54FF4FE491E330F9F012
:1024200048F4E130B9F0E230A1F584B5806284BDB2
:10243000C8BD34C0E730E9F0E83019F1E43049F5BF
:1024400080918000806280938000D0938B00C09345
:102450008A0024C084B5806884BDC7BD1FC0809138
:102460008000806880938000D0938900C0938800AA
:1024700015C08091B00080688093B000C093B30015
:102480000DC08091B00080628093B000C093B40012
:1024900005C0C038D1050CF0B5CFAFCFDF91CF91DB
:1024A0001F910895833081F028F4813099F08230B3
:1024B000A1F008958730A9F08830B9F08430D1F4C4
:1024C000809180008F7D03C0809180008F77809302
:1024D0008000089584B58F7702C084B58F7D84BD58
:1024E00008958091B0008F7703C08091B0008F7DF8
:1024F0008093B0000895CF93DF9390E0FC01EA53FE
:10250000FF4F2491FC01E652FF4F8491882361F133
:1025100090E0880F991FFC01EE5FFE4FC591D491AA
:10252000FC01E850FF4FA591B491611109C09FB71C
:10253000F8948881209582238883EC912E230BC008
:10254000623061F49FB7F8948881322F30958323ED
:102550008883EC912E2B2C939FBF06C08FB7F894E5
:10256000E8812E2B28838FBFDF91CF9108951F9391
:10257000CF93DF93282F30E0F901EE54FF4F849181
:10258000F901EA53FF4FD491F901E652FF4FC4918C
:10259000CC23C1F0162F81110E945212EC2FF0E0D3
:1025A000EE0FFF1FE850FF4FA591B4919FB7F8942D
:1025B000111104C08C91D095D82302C0EC91DE2B70
:1025C000DC939FBFDF91CF911F9108950FB6F894D0
:1025D0000F92FC01928D0F900FBE81E0911180E06F
:1025E00008950F931F93CF93DF93EC01042F1A8D5F
:1025F0004C8D41110BC088819981892BE9F58C8123
:102600009D810E94A81B1D821C8237C050E00111D1
:1026100015C08A819B810E94BA242C8D8A819B815E
:10262000820F911D9B838A832C813D8182179307A2
:1026300018F1888199819B838A831EC08E819F8136
:102640000E94BA248C8D90E09195819591092E81FC
:102650003F81280F391F3F832E83488159812417DA
:10266000350730F42C813D81820F931F9F838E8329
:10267000023011F41111115080E01F5F1A8FDF91A9
:10268000CF911F910F910895FC01CB01448D4423FC
:10269000A1F050E026813781240F351F3783268330
:1026A000648175812617370720F0208131813783B7
:1026B0002683668177810C94BA240895EF92FF9265
:1026C0001F93CF93DF93EC010FB6F8940F921E8DFA
:1026D0007C0181E1E80EF11C11165CF489898823E4
:1026E00041F0C7010E94B51A81110E94331B11509D
:1026F000F3CF8FEF8E8F0F900FBE0FB6F8940F921F
:102700001D8D7E0188E0E80EF11C11165CF48885B1
:10271000882341F0C7010E94B51A81110E94331B22
:102720001150F3CF8FEF8D8F0F900FBEDF91CF91B0
:102730001F91FF90EF900895CF93DF93EC010FB6B8
:10274000F8940F92488159818B8D7C8D9A01879FD7
:10275000200D311D11243D832C831A8E5B834A8307
:1027600090E00197789F9001799F300D1124CA0164
:10277000820F931F9F838E838FEF8D8F8E8F6111BA
:102780000CC08885882389F0CE0108960E94B51A6E
:10279000882359F00E943C2108C0CE0108960E946F
:1027A0000920CE0141960E9409200F900FBE81E0C2
:1027B000DF91CF9108950F931F93CF93DF93082F4D
:1027C000162F662321F0869FC001112402C080E0ED
:1027D00090E04F960E94E51FEC01009771F01111F7
:1027E00003C09983888303C04F96998388830B8F96
:1027F0001C8F61E0CE010E949C13CE01DF91CF912E
:102800001F910F910895AF92BF92CF92DF92FF92E6
:102810000F931F93CF93DF9300D000D01F92CDB7BB
:10282000DEB78C016B015D834C83F22E80E0580192
:1028300098E0A90EB11C0FB6F8940F92F801228D02
:10284000938D291718F0F2E0FF1214C04F2DB60136
:10285000C8010E94F112F8019189992321F0C80161
:1028600041960E94B51A81110E943C210F900FBE23
:1028700081E050C02C813D81232B19F40F900FBEB5
:1028800048C0811104C0CE0101960E94F51A0F9034
:102890000FBE0E9460180FB6F8940F92F801858D54
:1028A0008F3F09F4158EF801868D8F3F09F4168E3F
:1028B0000F900FBEBE016C5F7F4FCE0101960E944C
:1028C000001B811121C00FB6F8940F92F801928D70
:1028D000838D0F900FBE981311C06C817D81C5014F
:1028E0000E948C1AC8010E945E130E941C19882342
:1028F00011F081E0A0CF0E943C21FBCFC8010E94D3
:102900005E130E941C19F5CFC8010E945E130E943D
:102910001C1980E00F900F900F900F900F90DF9197
:10292000CF911F910F91FF90DF90CF90BF90AF900C
:102930000895EF92FF921F93CF93DF93EC019A8D4E
:102940008B8D981710F02230E1F47A011E8D422F02
:10295000CE010E94F1121F3F81F48989882379F00A
:10296000CE0141960E94B51A882349F0E114F10482
:1029700031F081E0F701808305C01F5F1E8F81E089
:1029800001C080E0DF91CF911F91FF90EF900895FB
:10299000AF92BF92CF92DF92FF920F931F93CF938C
:1029A000DF9300D000D01F92CDB7DEB78C016B0152
:1029B0005D834C8380E0580191E1A90EB11C0FB6F4
:1029C000F8940F92F801F28CFF20A9F0B601C8012B
:1029D0000E944413FA94F801F28E8085882339F01E
:1029E000C80108960E94B51A81110E943C210F90DF
:1029F0000FBE81E050C02C813D81232B19F40F9034
:102A00000FBE48C0811104C0CE0101960E94F51A84
:102A10000F900FBE0E9460180FB6F8940F92F80145
:102A2000858D8F3F09F4158EF801868D8F3F09F44F
:102A3000168E0F900FBEBE016C5F7F4FCE010196C8
:102A40000E94001B81111CC0C8010E94E61288234D
:102A500089F06C817D81C5010E948C1AC8010E9499
:102A60005E130E941C19882311F081E0A8CF0E94F8
:102A70003C21FBCFC8010E945E130E941C19F5CFB8
:102A8000C8010E945E130E941C19C8010E94E61230
:102A9000882359F380E00F900F900F900F900F90C4
:102AA000DF91CF911F910F91FF90DF90CF90BF905A
:102AB000AF900895CF92DF92FF920F931F93CF9321
:102AC000DF9300D000D01F92CDB7DEB78C017D839D
:102AD0006C83F12C90E0680181E1C80ED11C0FB627
:102AE000F8940F92D8015A968C915A978823E9F05E
:102AF00081505A968C935A978D919C91892B29F4E9
:102B00000E94291CF80195838483D80118968C9122
:102B1000882339F0C80108960E94B51A81110E94D5
:102B20003C210F900FBE81E07AC02C813D81232B88
:102B300009F472C0911104C0CE0101960E94F51AE9
:102B40000F900FBE0E9460180FB6F8940F92F80114
:102B5000858D8F3F09F4158ED8015E968C915E9716
:102B60008F3F11F45E961C920F900FBEBE016C5FFA
:102B70007F4FCE0101960E94001B81112BC0C8011E
:102B80000E94E612882301F1F80180819181892B4E
:102B900051F40FB6F8940F92848195810E94451BE1
:102BA000F82E0F900FBE6C817D81C6010E948C1A99
:102BB000C8010E945E130E941C19882311F091E045
:102BC0008ECF0E943C21FBCFC8010E945E130E9461
:102BD0001C19F5CFC8010E945E130E941C19C80180
:102BE0000E94E612882359F3FF20C1F00FB6F89433
:102BF0000F92F8018189882339F00688F789E02D42
:102C0000808164E0681B01C060E0D80114968D915A
:102C10009C9115970E94E21B0F900FBE80E00F90D1
:102C20000F900F900F900F90DF91CF911F910F9108
:102C3000FF90DF90CF900895CF93DF93EC010FB614
:102C4000F8940F928D8D8F3F09F41D8E8E8D8F3FDE
:102C500009F41E8E0F900FBE8A8D811104C0CE0123
:102C600041960E949D1ACE01DF91CF910C945E1384
:102C7000E0914604F09147048081811103C08FEFF9
:102C80009FEF0CC0E0914604F09147040580F68167
:102C9000E02D0680F781E02D8281938190931E04C0
:102CA00080931D040895FF920F931F93CF93DF939A
:102CB000EC01F62E009125041091260480917E04EB
:102CC00090917F0402960E947420CF3F8FEFD80727
:102CD00089F4FF2079F060917E0470917F046E5F2B
:102CE0007F4F88E294E0DF91CF911F910F91FF9089
:102CF0000C941B20C00FD11FE0917E04F0917F0443
:102D0000D383C28360917E0470917F04C017D10782
:102D100068F480914404909145046E5F7F4FDF9189
:102D2000CF911F910F91FF900C943C20809146040D
:102D3000909147046E5F7F4F0E943C2080911D045C
:102D400090911E04C817D90720F4D0931E04C09395
:102D50001D04DF91CF911F910F91FF9008958091F5
:102D60003104882309F10FB6F8940F92E0913704EB
:102D7000F0913804C681D781CE0102960E9474205A
:102D800080912704815080932704809131048150E1
:102D9000809331040F900FBE8F89988D0E94F81F89
:102DA000CE010E94F81FDBCF80915A04823010F0D0
:102DB0000E943C210E94461ED2CF5F926F927F926A
:102DC0008F929F92AF92BF92CF92DF92EF92FF923B
:102DD0000F931F93CF93DF933C016B015A0149017D
:102DE000502ECA010E94E51F8C01892B09F4E0C016
:102DF00088E290E00E94E51FEC01892BC9F0188F52
:102E00000F8BA50165EA70E0C8010E94C32421E090
:102E1000A21AB1088F89988DA80EB91EC114D104C9
:102E2000C9F0BE01675E7F4FF601C601089607C074
:102E3000C8010E94F81FBCC0E817F90749F09F01BC
:102E40004191DB014D93BD01D9012C912111F4CFAA
:102E500018A201C0198E052D043008F003E00E8B76
:102E600009A31AA26E01B2E0CB0ED11CC6010E94CA
:102E70001720CE010C960E941720D987C88784E0BE
:102E800090E0801B91099D878C87DB8BCA8B1BA2EE
:102E90001CA21DA21EA21FA2A401B301C5010E9473
:102EA000982099838883E114F10419F0F701D18304
:102EB000C0830FB6F8940F92809127048F5F8093A0
:102EC000270480917E0490917F04892BD1F5D093C3
:102ED0007F04C0937E0480912704813009F041C0B3
:102EE0008AE594E00E94092083E694E00E9409208C
:102EF0008CE694E00E94092085E794E00E94092076
:102F000081E594E00E94092088E494E00E94092071
:102F10008BE394E00E94092082E394E00E94092060
:102F200088E294E00E94092081E594E090934704B0
:102F30008093460488E494E090934504809344048D
:102F400010C08091230481110CC0E0917E04F091A7
:102F50007F0496898E89891720F0D0937F04C093CF
:102F60007E0480911F048F5F80931F048E8990914F
:102F70002404981710F480932404F9E08F9FC00173
:102F80001124B601865A9B4F0E941B200F900FBE42
:102F900080912304882351F0E0917E04F0917F0416
:102FA00096898E89981710F40E943C2181E001C017
:102FB0008FEFDF91CF911F910F91FF90EF90DF90F6
:102FC000CF90BF90AF909F908F907F906F905F90C9
:102FD00008950F931F93CF93DF9320917E04309138
:102FE0007F048217930709F438C0009709F435C0AD
:102FF0000FB6F8940F92FC01228533852852344095
:1030000051F5FC0124893589F4E02B333F0719F190
:10301000232B09F5EC018C010E5F1F4FC8010E94A4
:1030200074208E8990912404981710F480932404BE
:1030300029E0829FC0011124B801865A9B4F0E944B
:103040001B20E0917E04F0917F049E898689981769
:1030500010F00E943C210F900FBEDF91CF911F9185
:103060000F910895EF92FF920F938BE1E82E84E089
:10307000F82E00E020E030E040EC50E06CE272E03E
:103080008FEA96E10E94DD168130B1F40E948E1C19
:10309000813091F4F8942FEF3FEF30931E0420938A
:1030A0001D048093230410922604109225040F918E
:1030B000FF90EF900C9404210F91FF90EF900895F2
:1030C00080911A048F5F80931A0408950FB6F894C4
:1030D0000F9280912504909126040F900FBE0895C1
:1030E000CF92DF92EF92FF920F931F93CF93DF93D4
:1030F00080911A0481118CC000912504109126043E
:103100000F5F1F4F1093260400932504011511052E
:10311000B9F4809146049091470420914404309181
:1031200045043093470420934604909345048093CC
:103130004404809120048F5F809320040E943816FD
:1031400080911D0490911E04C0E00817190708F42F
:103150004FC0D9E0E0914604F0914704808181118D
:1031600003C08FEF9FEF11C0E0914604F091470438
:103170000580F681E02DE680F780D70112968D91CB
:103180009C9113970817190728F490931E048093B5
:103190001D042EC06701B2E0CB0ED11CC6010E94F7
:1031A0007420F70184899589892B21F0C7010C9639
:1031B0000E947420D70156968C9190912404981700
:1031C00010F480932404D89FC0011124B601865ABC
:1031D0009B4F0E941B20E0917E04F0917F04D70159
:1031E00056969C918689981708F4B4CFC1E0B2CF67
:1031F000E0917E04F0917F04E689B9E0EB9FF00155
:103200001124E65AFB4F8081823040F0C1E006C0B5
:10321000809122048F5F80932204C0E0809121047A
:103220008111C1E08C2FDF91CF911F910F91FF9001
:10323000EF90DF90CF900895EF92FF920F931F933E
:10324000CF93DF930FB6F8940F9280911A048150B8
:1032500080931A0480911A04882311F080E052C0F0
:10326000809127048823D1F3C0E0D0E089E0F82ED4
:10327000EE24E39480913B04882351F1E0914004D3
:10328000F0914104C681D781CE010C960E94742032
:103290008E010E5F1F4FC8010E9474208E8990918D
:1032A0002404981710F480932404F89EC00111247C
:1032B000B801865A9B4F0E941B20E0917E04F0913A
:1032C0007F049E8986899817A8F2E0922104D2CFC4
:1032D000CD2B11F00E943816C0912204CC2351F05E
:1032E000D1E00E9470188111D0932104C150C9F718
:1032F0001092220480912104882309F4AFCF0E9408
:103300003C2181E00F900FBEDF91CF911F910F9173
:10331000FF90EF9008950F931F93CF93DF938C014D
:10332000EB010E9460184091250450912604F80199
:1033300020813181C9018C0F9D1F4217530720F452
:103340008217930740F403C08217930730F021E0FF
:103350004817590718F020E001C021E0F8019183D7
:103360008083222329F060E0841B950B0E94531672
:103370000E941C19811102C00E943C21DF91CF9153
:103380001F910F910895CF93DF93EC01892B19F4CE
:103390000E943C210AC00E94601860E0CE010E9499
:1033A00053160E941C19882399F3DF91CF91089539
:1033B00080911A04882321F081E0809321040895EC
:1033C00010922104A0917E04B0917F04E0917E04CC
:1033D000F0917F042D913C918789908D82179307FE
:1033E00060F060917E0470917F0480917E049091E2
:1033F0007F04675E7F4F0E945C1E8091240469E019
:10340000482F50E0649F9001659F300D1124F90111
:10341000E65AFB4F9081911102C08150F1CFA181FA
:10342000B28112960D90BC91A02DB283A183235A34
:103430003B4FA217B30731F412962D913C9113978D
:103440003283218399E0949FF001959FF00D112420
:10345000E65AFB4F0180F281E02D268137813093BF
:103460007F0420937E048093240408950F931F9378
:10347000CF93DF93EC010FB6F8940F92892B21F4D0
:10348000C0917E04D0917F048E010E5F1F4FC80152
:103490000E9474208C899D89892B21F0CE010C9685
:1034A0000E947420B80188E294E00E941B208FA142
:1034B000813009F41FA20F900FBE8091230488234E
:1034C00039F00FB6F8940F920E9438160F900FBE85
:1034D00080917E0490917F04C817D907C1F4809130
:1034E0002304882319F00E943C2111C090912804E4
:1034F00080912704981305C010927F0410927E04D7
:1035000006C0DF91CF911F910F910C94D819DF91D4
:10351000CF911F910F910895CF93DF93EB016091AD
:103520007E0470917F04645F7F4F0E943C2061E0C5
:10353000CE01DF91CF910C9453161F93CF93DF935D
:10354000EB01142F60917E0470917F04645F7F4FC4
:103550000E941B20112311F0CFEFDFEF612FCE016E
:10356000DF91CF911F910C9453160F931F93CF931C
:10357000DF93DC011596ED91FC911697C681D781FA
:103580008E01045F1F4FC8010E94742080911A04AD
:10359000811114C00A501109C8010E9474208E893B
:1035A00090912404981710F480932404B9E08B9F21
:1035B000C0011124B801865A9B4F03C0B8018BE3A8
:1035C00094E00E941B20E0917E04F0917F049E898C
:1035D0008689891720F481E08093210401C080E06E
:1035E000DF91CF911F910F91089520912004FC014C
:1035F000208320912504309126043283218308956D
:10360000CF93DF930FB6F8940F9240912504509119
:103610002604DB012D913C912F3FBFEF3B07D9F0F2
:10362000EC01E981FA81A0912004B881BA1719F060
:103630004E175F0790F44E1B5F0BFB0142175307B9
:1036400038F4241B350B318320830E94F51A03C004
:103650001182108202C080E001C081E00F900FBE95
:10366000DF91CF91089581E08093210408958091A6
:103670002304882331F080911A04882321F080E00C
:10368000089581E0089582E008950F931F93CF93EA
:10369000DF93FC01892B09F455C08689A0917E0433
:1036A000B0917F0456969C91891708F041C02485FB
:1036B000358537FD0CC0A0917E04B0917F045696ED
:1036C0009C9124E030E0291B31093587248729E0CB
:1036D000829FC0011124865A9B4F2285338528176B
:1036E0003907E9F48F01EF012296CE010E94742080
:1036F000E0917E04F0917F048689F801868B909199
:103700002404981710F480932404F9E08F9FC001DB
:103710001124BE01865A9B4F0E941B2007C0A09116
:103720007E04B0917F0456968C91868B81E00BC00D
:10373000A0917E04B0917F0481E021A156969C91D6
:10374000291708F080E0DF91CF911F910F91089524
:103750000F931F93CF93DF93FC01892B11F480E02B
:103760002CC082A1815082A3268991A12917B9F387
:103770008111F5CFEF018F010E5F1F4FC8010E942D
:10378000742089A18E8B482F50E024E030E0241B68
:10379000350B3D872C8790912404981710F4809363
:1037A000240429E0249FC001259F900D1124B80115
:1037B000865A9B4F0E941B2081E0DF91CF911F9181
:1037C0000F9108950F931F93CF93DF93FC01892BE3
:1037D000D9F191A1961708F4962F86898917A1F13E
:1037E00022A1213089F5968B2485358537FD06C0C9
:1037F00024E030E0291B31093587248729E0829FA6
:10380000C0011124865A9B4F22853385281739071A
:10381000D9F4EF018F010E5F1F4FC8010E94742081
:103820008E8990912404981710F48093240429E041
:10383000829FC0011124B801865A9B4FDF91CF911E
:103840001F910F910C941B20DF91CF911F910F912D
:10385000089580917E0490917F04892B39F0E09146
:103860007E04F0917F0482A18F5F82A380917E0409
:1038700090917F0408950FB6F8940F92809184047C
:1038800090918504892BE9F483E994E00E94092052
:103890008AE894E00E94092083E994E090938904E7
:1038A000809388048AE894E0909387048093860448
:1038B00040E065E08AE00E94DB13909385048093EA
:1038C00084040F900FBE0895FC0173836283918777
:1038D00080874617570778F0421B530B84859585E0
:1038E00048175907C8F4BF016E5F7F4F8091860467
:1038F000909187040DC04217530718F4621773079D
:1039000058F4BF016E5F7F4F8091880490918904C5
:103910000E943C2080E0089581E00895EF92FF929C
:103920000F930E943B1C8091840490918504892B05
:1039300081F082E8E82E84E0F82E03E020E030E019
:1039400045E550E061E372E08EE39DE10E94DD1603
:1039500001C080E00F91FF90EF9008950F931F93A7
:10396000CF93DF9300D000D01F92CDB7DEB7A091E8
:103970008404B0918504109729F1F90169835B8370
:103980004A839D838C836630A4F40E94371BE091A8
:103990008404F091850420E0823011F4A80102C073
:1039A00040E050E0BE016F5F7F4FCF010E940314E3
:1039B0000AC020E0AF01BE016F5F7F4FCD010E94C2
:1039C000991401C080E00F900F900F900F900F900E
:1039D000DF91CF911F910F910895EF92FF920F9376
:1039E0001F93CF93DF93E0918804F0918904808145
:1039F000882389F10580F681E02DE080F180C68181
:103A0000D7818E010E5F1F4FC8010E947420E88984
:103A1000F989CE0109958A8982FFE5CF8C859D853C
:103A20008E0D9F1DE816F90660F49B838A83D98763
:103A3000C887B80180918804909189040E943C2035
:103A4000D2CF00E010E020E030E0A70160E0CE013E
:103A50000E94AE1CC8CF80918604909187049093F9
:103A6000890480938804F0938704E0938604DF91AF
:103A7000CF911F910F91FF90EF900895CF93DF9317
:103A800000D000D01F92CDB7DEB7E0918804F0914E
:103A90008904D080DD2031F00580F681E02DE080C2
:103AA000F18002C0E12CF12C0E9460180E9466187F
:103AB0008C0180918004909181040817190720F4EB
:103AC0000E94ED1C81E001C080E01093810400930E
:103AD0008004811155C0DD20D9F10E151F0508F4B1
:103AE0003EC00E941C19E0918804F0918904058071
:103AF000F681E02DC680D780C60102960E94742010
:103B0000D60152968C91529782FF17C01C966D91E8
:103B10007C911D976E0D7F1D9701A801C6010E9423
:103B2000641C882369F000E010E020E030E0A70189
:103B300060E0C6010E94AE1C03C08E7FF601828B3E
:103B4000D6015096ED91FC915197C60109951EC082
:103B5000E0918604F0918704808141E0811140E08A
:103B6000B701601B710B80918404909185040E94C1
:103B70001C160E941C19811109C00E943C2106C01C
:103B80000E941C1903C0898187FF0EC040E050E0ED
:103B9000BE016F5F7F4F80918404909185040E94E5
:103BA000C8148111F0CF71CFEC80FD80F7018285C0
:103BB0009385892B21F0C70102960E9474200E94F0
:103BC00066186C018091800490918104C816D90612
:103BD00010F40E94ED1CD0928104C0928004E9810F
:103BE0000E2E000CFF0BEA30F10580F6EC5CFF4F67
:103BF000D70152968C910C9465238160F701828BDA
:103C00002A813B8164857585620F731FA601C701F8
:103C10000E94641C882309F4B9CFD7015096ED9116
:103C2000FC915197C7010995F701828982FFAECFB8
:103C30004A815B8184859585480F591F00E010E01B
:103C400020E030E060E0C7010E94AE1C9FCF8160A1
:103C5000F701828B6A817B81758764876C0D7D1D7E
:103C60009601A601C7010E94641C90CF81FD04C08B
:103C7000C7010E94F81F8ACF8E7FD70152968C937E
:103C800085CF0E94AC070E94321808950E941F0839
:103C900088EC9CE0892B11F00C94C80C0895259AAF
:103CA0002D9A2FEF80E792E0215080409040E1F77D
:103CB00000C000001D9AF5CF259A2D9A2FEF87EAB4
:103CC00091E6215080409040E1F700C000001D9A2D
:103CD000F5CF0F931F93FC018FEF80838183828345
:103CE000838384838AE085831682DF011796739627
:103CF00000E717E120E030E048ED56ED60E070E0CD
:103D00000D931D932D933D9318964D935D936D9355
:103D10007C931B97AE17BF0799F71F910F910895DA
:103D2000FF920F931F93CF93DF93EC01F62E042F96
:103D3000122F0E94691EFB820C831883DF91CF91A2
:103D40001F910F91FF9008950895CF93DF93EC0199
:103D50008B818F3FE9F09C819F3FD1F0613049F02A
:103D600030F0623041F0633099F461E009C060E006
:103D700007C061E001C060E00E94B71261E003C0CB
:103D80000E94B71260E08C81DF91CF910C94B71242
:103D9000DF91CF910895CF93DF93EC0189818F3F1D
:103DA000E9F09A819F3FD1F0613049F030F0623004
:103DB00041F0633099F460E009C061E003C061E064
:103DC00005C060E00E94B71261E003C00E94B71214
:103DD00060E08A81DF91CF910C94B712DF91CF918F
:103DE0000895FC0120812F3F29F091E06927822F5F
:103DF0000C94B712662319F0FC01668101C063E0E0
:103E00000C94CB1EDC01FB01309759F09B968C91F2
:103E10009B9780839C968C919C9781839D968C9197
:103E2000828308954F925F926F927F928F929F92BA
:103E3000AF92BF92DF92EF92FF920F931F93CF93B7
:103E4000DF938C01095F1F4FEC017C0183E1E80ED9
:103E5000F11CDD24DA94F801D8018D909D90AD908D
:103E6000BD908D01808D918DA28DB38D9C01AD0192
:103E7000281939094A095B09AFEFB0E00E946B23AA
:103E8000F8014084518462847384A301920128194B
:103E900039094A095B090E94462357FF02C01BA645
:103EA00009C02F3F31054105510519F014F0DBA67B
:103EB00001C02BA721960E151F0569F6DF91CF9142
:103EC0001F910F91FF90EF90DF90BF90AF909F9068
:103ED0008F907F906F905F904F9008950F931F93F6
:103EE000CF93DF938C01C62F613049F018F0623018
:103EF000D9F04CC010929C0461E00E94F11EE09148
:103F00009C04F0E0E75CFD4F6081C8010E94A51EA3
:103F1000F801658170E088EE93E00E941023CB01E8
:103F20000E94F521C2E032C00E946D22882371F107
:103F3000E0919C0481E08E0F80939C04F0E0E75CAC
:103F4000FD4FC081D0E00E9470229B01AC01CC0FDC
:103F5000DD1FCC0FDD1FC00FD11FF801A581B0E020
:103F60000E946B236F8F78A389A39AA380919C04EE
:103F7000833058F00E947E2260E0C8010E94F11E4A
:103F8000C8010E94121FC0E001C0C1E08C2FDF9168
:103F9000CF911F910F910895CF93DF93EC0160E0D3
:103FA0000E946E1F8EA7DF91CF910895CF93DF936C
:103FB000EC016EA50E946E1F982F8EA781E09111D3
:103FC00080E0DF91CF9108950895CF93DF93EC01C6
:103FD0000E946018CE010E949923EC010E941C19D6
:103FE000209711F40E944F1ECE01DF91CF910895CA
:103FF000CF93DF93009751F0EC010E946018CE013F
:104000000E943124DF91CF910C941C19DF91CF9144
:104010000895FC010396928381832FEF3FEF348351
:104020002383968385839087878310820895FC017C
:10403000118610860895CF93DF939C01FB01DC016C
:104040001196CD91DC911297D383C2838C819D818F
:10405000958384838C819D81DC0113967C936E9380
:1040600012977D836C8331872087F90180818F5F70
:104070008083DF91CF9108950F931F93CF93DF93A8
:104080008C01FB01808191818F3F2FEF920721F4FA
:10409000E801AF81B8850EC0D801139612962D9114
:1040A0003C911397E901488159818417950710F0D5
:1040B000D901F4CF12968D919C91139793838283AB
:1040C000EC01FD83EC83B583A4831396FC93EE93FC
:1040D000129711870087F80180818F5F8083DF91BD
:1040E000CF911F910F910895CF93DF93FC01A0858D
:1040F000B1858281938124813581EC013D832C83BC
:10410000C481D5819B838A8311968D919C9112974E
:10411000E817F90721F41296DC93CE9311971186D4
:1041200010868C9181508C938C91DF91CF91089562
:1041300031E1FC013083319722E220833197A3E300
:10414000A0833197608331977083319710823197C4
:1041500060E8608331971082319762E06083319725
:1041600063E06083319764E06083319765E060834A
:10417000319766E06083319767E06083319768E04C
:104180006083319769E06083319760E160833197A4
:104190003083319732E13083319733E13083319787
:1041A00034E13083319735E13083319736E1308324
:1041B000319737E13083319738E13083319739E1F6
:1041C0003083319730E23083319731E23083319759
:1041D0002083319723E220833197408331975083A6
:1041E000319726E22083319727E22083319728E216
:1041F0002083319729E22083319720E32083319770
:1042000021E3208386970895A89590EC88E10FB666
:10421000F894A895809360000FBE90936000A091E1
:104220007E04B0917F04CD91CDBFDD91DEBFFF91C3
:10423000EF91DF91CF91BF91AF919F918F917F913E
:104240006F915F914F913F912F911F910F91FF902F
:10425000EF90DF90CF90BF90AF909F908F907F9026
:104260006F905F904F903F902F901F900F900FBED8
:104270000F90089581E008950F920FB6F8940F9271
:104280001F9211242F923F924F925F926F927F92D2
:104290008F929F92AF92BF92CF92DF92EF92FF9256
:1042A0000F931F932F933F934F935F936F937F933E
:1042B0008F939F93AF93BF93CF93DF93EF93FF932E
:1042C000A0917E04B0917F040DB60D920EB60D92B2
:1042D0000E94D819A0917E04B0917F04CD91CDBFEA
:1042E000DD91DEBFFF91EF91DF91CF91BF91AF9153
:1042F0009F918F917F916F915F914F913F912F91FE
:104300001F910F91FF90EF90DF90CF90BF90AF90F3
:104310009F908F907F906F905F904F903F902F90E5
:104320001F900F900FBE0F9008950F920FB6F89444
:104330000F921F9211242F923F924F925F926F9291
:104340007F928F929F92AF92BF92CF92DF92EF9225
:10435000FF920F931F932F933F934F935F936F930E
:104360007F938F939F93AF93BF93CF93DF93EF93FD
:10437000FF93A0917E04B0917F040DB60D920EB60E
:104380000D9213BE0E94701881110E94D819A0913D
:104390007E04B0917F04CD91CDBFDD91DEBFFF9152
:1043A000EF91DF91CF91BF91AF919F918F917F91CD
:1043B0006F915F914F913F912F911F910F91FF90BE
:1043C000EF90DF90CF90BF90AF909F908F907F90B5
:1043D0006F905F904F903F902F901F900F900FBE67
:1043E0000F9008950E9495211895009709F474C0C4
:1043F00010929E0410929D041092AB041092AA0495
:104400001092A6041092A7041092A8041092A90476
:104410001092A104209180002093B004209181008B
:104420002093AF04109281001092800010928500BA
:104430001092840021E026BB10926F002091B00002
:104440002093AE042091B1002093AD041092B100EE
:1044500022E02093B0009C0127703327232B51F4D6
:1044600043E0969587954A95E1F72CE72093B300B2
:1044700027E018C09C0123703327232B31F4969535
:1044800087959695879529EF05C080FD07C096957D
:1044900087952CE72093B30026E004C02CE72093F7
:1044A000B30025E02093AC0422E027BB1092B200B9
:1044B0009093A00480939F049FB7F89423BD8091AC
:1044C000AC048093B100209370008BE08150F1F731
:1044D00087E0809381009FBF08958091A104089593
:1044E0002FB7F8946091A2047091A3048091A40462
:1044F0009091A5041092A1042FBF0895E1EBF0E084
:104500001082109270008091AE048093B000809170
:10451000AD048083E1E8F0E010828091B0048093E4
:1045200080008091AF04808308951F920F920FB690
:104530000F9211240F931F932F933F934F935F93E9
:104540006F937F938F939F93AF93BF93209184003A
:1045500030918500B09B0BC081E086BB8091AA049E
:104560009091AB0401969093AB048093AA04809140
:104570009D0490919E04019640919F045091A00447
:104580008417950798F110929E0410929D048091D3
:10459000AA049091AB04A0E0B0E0DC019927882741
:1045A000820F931FA11DB11D4091A6045091A70435
:1045B0006091A8047091A9048C019D01041B150B46
:1045C000260B370B0093A2041093A3042093A4049A
:1045D0003093A5048093A6049093A704A093A80405
:1045E000B093A90481E08093A10404C090939E0439
:1045F00080939D04BF91AF919F918F917F916F9117
:104600005F914F913F912F911F910F910F900FBE8E
:104610000F901F9018950E94A40B880B990B08957A
:1046200097FB072E16F4009407D077FD09D00E945F
:10463000762307FC05D03EF4909581959F4F089511
:10464000709561957F4F0895A1E21A2EAA1BBB1B9E
:10465000FD010DC0AA1FBB1FEE1FFF1FA217B3074E
:10466000E407F50720F0A21BB30BE40BF50B661F64
:10467000771F881F991F1A9469F760957095809528
:1046800090959B01AC01BD01CF010895052E97FBCC
:104690001EF400940E945D2357FD07D00E9424233E
:1046A00007FC03D04EF40C945D2350954095309553
:1046B00021953F4F4F4F5F4F08959095809570958E
:1046C00061957F4F8F4F9F4F0895EE0FFF1F05900D
:1046D000F491E02D09940E948A23A59F900DB49F28
:1046E000900DA49F800D911D11240895AA1BBB1B42
:1046F00051E107C0AA1FBB1FA617B70710F0A61BE2
:10470000B70B881F991F5A95A9F780959095BC0102
:10471000CD010895A29FB001B39FC001A39F700D6A
:10472000811D1124911DB29F700D811D1124911DB9
:1047300008950F931F93CF93DF938230910510F468
:1047400082E090E0E091B304F091B40420E030E026
:10475000A0E0B0E0309719F14081518102811381CE
:1047600048175907C8F08417950769F4109731F076
:1047700012960C93129713961C9327C00093B304C0
:104780001093B40422C02115310519F042175307C4
:1047900018F49A01BD01EF01DF01F801DBCF21150B
:1047A0003105F9F0281B390B2430310580F48A815A
:1047B0009B816115710521F0FB019383828304C005
:1047C0009093B4048093B304FE01329644C0FE017A
:1047D000E20FF31F8193919322503109398328838B
:1047E0003AC02091B1043091B204232B41F42091BE
:1047F0000201309103013093B2042093B10420915F
:104800000001309101012115310541F42DB73EB76A
:104810004091040150910501241B350BE091B10436
:10482000F091B204E217F307A0F42E1B3F0B2817F8
:10483000390778F0AC014E5F5F4F2417350748F019
:104840004E0F5F1F5093B2044093B1048193919334
:1048500002C0E0E0F0E0CF01DF91CF911F910F9116
:104860000895CF93DF93009709F481C0FC0132973C
:1048700013821282A091B304B091B404109781F412
:1048800020813181820F931F2091B1043091B204B5
:104890002817390751F5F093B204E093B10467C0CB
:1048A000ED0120E030E0CE17DF0740F44A815B8164
:1048B0009E0141155105F1F0EA01F5CFD383C28382
:1048C00040815181840F951FC817D90759F48881F9
:1048D0009981840F951F0296918380838A819B81A1
:1048E000938382832115310529F4F093B404E09376
:1048F000B3043DC0E901FB83EA8349915991C40F98
:10490000D51FEC17FD0761F480819181840F951FFD
:104910000296E90199838883828193819B838A83AC
:10492000E0E0F0E012968D919C911397009719F0BA
:10493000FD01DC01F7CF8D919C9111979D012E5FB8
:104940003F4F820F931F2091B1043091B20428177A
:10495000390769F4309729F41092B4041092B30423
:1049600002C013821282B093B204A093B104DF910B
:10497000CF910895FB01DC0102C001900D924150DE
:104980005040D8F70895DC0101C06D93415050406C
:10499000E0F70895F999FECF92BD81BDF89A992765
:1049A00080B50895262FF999FECF1FBA92BD81BD1B
:1049B00020BD0FB6F894FA9AF99A0FBE01960895A1
:1049C00010E0C9E8D0E004C0FE010E9465232196F2
:0A49D000CB38D107C9F7F894FFCFE8
:1049DA000000B504200000000000FF000000FF00F6
:1049EA000000FF000000000000000000FF0051006E
:1049FA00540000000000A200190019007610761079
:104A0A00015F6E65757472616C566F6C746167656F
:104A1A003A005F61636964566F6C746167653A0056
:104A2A00454E544552504800455849545048004351
:104A3A00414C504800435243206973206E6F7420E2
:104A4A0076616C69642100446576696365206973DF
:104A5A00206E6F74206120445331387832302066DA
:104A6A00616D696C79206465766963652E00633AC5
:104A7A002000726561645F696E3A200041542B43DD
:104A8A0054495053454E4400616D6D6F6E69610023
:104A9A006E697472617465006E6974726974650016
:104AAA0070480074656D700041540041542B43579F
:104ABA004D4F44453D3100416D6D6F6E6961004E49
:104ACA006974726974652F4E6974726174650054F1
:104ADA00656D70657261747572650000000000F89A
:104AEA000C6A0EB90C450D8B0CA50C970C0D0A001F
:104AFA006E616E00696E66006F76660049444C45C9
:0C4B0A0000546D7220537663000001021D
:00000001FF
