:100000000C9480000C9402110C9429110C94BA09E0
:100010000C94BA090C94BA090C94921F0C940E1DFE
:100020000C94A8000C94A8000C94A8000C94A800B0
:100030000C94A8000C94A8000C94A8000C94A800A0
:100040000C9450110C94A8000C94600E0C94920E19
:100050000C94A8000C94A8000C94A8000C94A80080
:100060000C94A8000C94A800A21CA21CA21CE11CC9
:10007000CC1CDB1CA21CA21CE11CCC1C005EBCE244
:10008000613FDD83C29C7E20A3FD1F41009D23BEF6
:1000900046DB65F88C11AF32CA57E97400000008DE
:1000A000000201000003040700000000000000003F
:1000B00001020408102040800102040810200102FF
:1000C00004081020040404040404040402020202CC
:1000D00002020303030303030000000023002600C1
:1000E000290000000000250028002B00000000006F
:1000F000240027002A00F4043008C20E0705340843
:1001000011241FBECFEFD8E0DEBFCDBF12E0A0E0CC
:10011000B1E0EAEBF2E402C005900D92AA3DB1070E
:10012000D9F725E0AAEDB2E001C01D92AC3AB207C2
:10013000E1F710E0CEE7D0E004C02197FE010E9475
:10014000EF1FCB37D107C9F70E94EF0E0C94502157
:100150000C9400000C943A21FC0180E090E0A8ECA3
:10016000B1E4808B918BA28BB38B80E090E0A0EE0A
:10017000B0E480839183A283B38384E19EE0AEEFF9
:10018000B4E484839583A683B78380E090E8ABEBE7
:10019000B4E480879187A287B38784879587A687F1
:1001A000B78708950895CF92DF92EF92FF920F9351
:1001B0001F93CF93DF93EC017C0188E0E80EF11CE4
:1001C000670100E010E0C8010E94AA00F6018193D7
:1001D0006F010F5F1F4F04301105A9F766E271E050
:1001E00081E794E00E94280F488559856A857B85C0
:1001F00022E030E081E794E00E94CF1080E090E0C0
:100200000E94AA008F3F39F581E090E00E94AA0089
:100210008F3F09F582E090E00E94AA008F3FD9F459
:1002200083E090E00E94AA008F3FA9F480E090E86C
:10023000ABEBB4E488879987AA87BB8700E010E01E
:10024000F70161917F01C8010E9442210F5F1F4F9A
:1002500004301105A9F77E01F4E0EF0EF11C6701EF
:1002600004E010E0C8010E94AA00F60181936F012A
:100270000F5F1F4F08301105A9F767E371E081E7B1
:1002800094E00E94280F4C815D816E817F8122E085
:1002900030E081E794E00E94CF1084E090E00E947B
:1002A000AA008F3F31F585E090E00E94AA008F3FC1
:1002B00001F586E090E00E94AA008F3FD1F487E02C
:1002C00090E00E94AA008F3FA1F484E19EE0AEEF8F
:1002D000B4E48C839D83AE83BF83C4E0D0E0F70198
:1002E00061917F01CE010E9442212196C830D10543
:1002F000B1F7DF91CF911F910F91FF90EF90DF90B9
:10030000CF9008956115710579F0FB0101900020EF
:10031000E9F73197AF01461B570BDC01ED91FC91DA
:100320000280F381E02D099480E090E00895CF925F
:10033000DF92FF920F931F93CF93DF93CDB7DEB77A
:1003400064970FB6F894DEBF0FBECDBF80E094E097
:100350000E94CA066AEF70E080E090E00E94BF1140
:1003600041E0BE01635F7F4F80E094E00E94F906A8
:1003700067E0CE010D960E9480079C89891719F0CD
:100380006AE571E009C08D85823291F0883281F092
:10039000803159F06CE671E081E794E00E94350FFE
:1003A00060E070E080E89FEB6AC0FF24F39401C036
:1003B000F12C80E094E00E94BE05BE01635F7F4F98
:1003C00080E094E00E94AB0641E064E480E094E0C9
:1003D0000E945B0668EE73E080E090E00E94BF112F
:1003E00080E094E00E94BE05BE01635F7F4F80E025
:1003F00094E00E94AB0640E06EEB80E094E00E9447
:100400005B068E010F5F1F4F6E018AE0C80ED11C84
:1004100080E094E00E948F06F80181938F01EC1533
:10042000FD05B1F769817A81FF2089F083E0660FCD
:10043000771F8A95E1F788858031A9F42F818CE0B8
:1004400090E0821B9109607F680F791F0CC08D813D
:10045000807611F4687F07C0803211F46C7F03C08E
:10046000803409F46E7F072E000C880B990B0E94D4
:10047000620C20E030E040E85DE30E94170D6496D6
:100480000FB6F894DEBF0FBECDBFDF91CF911F91A5
:100490000F91FF90DF90CF9008950F931F93CF930C
:1004A000DF93CEECD3E0188219821A821B8287E395
:1004B00090E09D838C839F838E8380E590E0998775
:1004C0008887A8E8B3E01D921D921D921C92139795
:1004D00081E490E015969C938E93149717969C93C5
:1004E0008E9316978EE690E019969C938E931897AC
:1004F000E2E4F3E0108211821282138281E390E041
:100500009583848382E390E0978386838AE590E0F5
:100510009187808740E050E060E07FE34A875B8717
:100520006C877D871F861E86198A188A1B8A1A8AFD
:100530000AE919E929E13EE31A960D931D932D93DB
:100540003C931D971F961C921E921E9751961C92CB
:100550001E92509753961C921E9252974287538731
:100560006487758717861686118A108A138A128AFD
:1005700040E050E060E87FE34C8B5D8B6E8B7F8BBF
:1005800089E390E0998F888F8AE390E09B8F8A8F30
:1005900085E590E09D8F8C8F0AE919E929E93EE312
:1005A00054960D931D932D933C93579759961C92F7
:1005B0001E9258975B961C921E925A975D961C92BB
:1005C0001E925C9700E010E020E030E4048B158B75
:1005D000268B378B118E108E138E128E158E148EE5
:1005E00000E010E020E430E40E8F1F8F28A339A331
:1005F0001BA21AA21DA21CA21FA21EA25E964D93B0
:100600005D936D937C93919793961C921E92929713
:1006100095961C921E92949797961C921E9296976E
:1006200040E050E060EA70E4468F578F60A371A30A
:1006300013A212A215A214A217A216A240E050E023
:1006400060EC70E448A759A76AA77BA71DA61CA663
:100650001FA61EA619AA18AA40E050E060EC7FE38E
:1006600098964D935D936D937C939B979D961C926A
:100670001E929C979F961C921E929E97D1961C92BA
:100680001E92D09740E050E060E271E440A751A78D
:1006900062A773A715A614A617A616A611AA10AAD4
:1006A000D2960D931D932D933C93D597D7961C927C
:1006B0001E92D697D9961C921E92D897DB961C92C2
:1006C0001E92DA9700E010E020EA31E402AB13ABAF
:1006D00024AB35AB17AA16AA11AE10AE13AE12AEEC
:1006E000DC964D935D936D937C93DF971092C903D5
:1006F0001092C8031092CB031092CA031092CD033C
:100700001092CC0380E090E0A8E4B2E484AF95AF0F
:10071000A6AFB7AF109283031092820310928503A5
:10072000109284031092870310928603DF91CF9179
:100730001F910F910895CF93DF9300D000D000D088
:10074000CDB7DEB749835A836B837C838D839E83C9
:1007500069817A818FE00E945E126B817C8180E1E9
:100760000E945E126D817E8181E126960FB6F8941B
:10077000DEBF0FBECDBFDF91CF910C945E12CF9341
:10078000DF9300D0CDB7DEB70E9432189A838983F9
:1007900040910D0150910E0160910F017091100177
:1007A00080911101909112010E949B0360ED71E014
:1007B0008BED92E00E94280F0E949C0720E030E021
:1007C00048EC52E40E94170D0E942A0C6093090322
:1007D00070930A0380930B0390930C0363ED71E015
:1007E0008BED92E00E94280F4091090350910A037B
:1007F00060910B0370910C032AE030E08BED92E0E6
:100800000E94A30F6AEF70E080E090E00E94BF11A9
:1008100040910D0350910E0360910F0370911003EE
:1008200080911103909112030E949B034091130148
:10083000509114016091150170911601809117017A
:10084000909118010E949B030E94970120E030E0E4
:1008500048EC52E40E94170D0E942A0C7093080382
:10086000609307036EED71E08BED92E00E948201D0
:1008700060910703709108034AE050E08BED92E02D
:100880000E94EB0F64E670E080E090E00E94BF11F0
:1008900040910D0350910E0360910F03709110036E
:1008A00080911103909112030E949B036EE370E00C
:1008B000CE0101960E9457196BCF61E08FE00E9434
:1008C000E61261E080E10E94E61261E081E10E94AF
:1008D000E61240910D0350910E0360910F03709149
:1008E000100380911103909112030C949B03EF92DB
:1008F000FF920F9340E052EC61E070E08BED92E0EC
:100900000E94B80A61E08AE00E94E61261E08AE093
:100910000E94221383E193E00E94AB080E944D02E3
:100920000E945D0461EE71E08BED92E00E94280F61
:1009300040910D0150910E0160910F0170911001D5
:1009400080911101909112010E949B030E949807CF
:1009500043E050E06FE075E080E00E94E21080919B
:10096000FE029091FF02892B91F443E060E081E068
:100970000E9446149093FF028093FE02009739F084
:1009800020E040E050E060E070E00E946E148AEFEA
:10099000E82E82E0F82E02E020E030E040E850E06F
:1009A00060EF71E08FEB93E00E94A91668EE73E0B0
:1009B00080E090E00E94BF1140910D0350910E0322
:1009C00060910F03709110038091110390911203B5
:1009D0000E949B0361E072E08BED92E00F91FF902B
:1009E000EF900C94280F089566E080E094E00E9458
:1009F000D60628E04DE06CE083E193E00E945F08BA
:100A000020E043E062E08BED92E00C948D0A8BEDE8
:100A100092E00E94340A83E193E00C947308CF9330
:100A20008BED92E00E946309892B99F064E670E0F7
:100A300080E090E00E94BF11C0E08BED92E00E9448
:100A40006309892B39F08BED92E00E94D908C82FF9
:100A5000F4CFC0E08091000381116EC0CE3609F45E
:100A600082C0C03709F468C0C13609F085C06FE2A2
:100A700072E08BED92E00E94280F409107015091A7
:100A800008016091090170910A0180910B01909118
:100A90000C010E949B0361E472E08BED92E00E94E6
:100AA0008201609109038BED92E00E94FA0865E4EF
:100AB00072E08BED92E00E948201609107038BED62
:100AC00092E00E94FA086BE472E08BED92E00E94E3
:100AD0008201609105038BED92E00E94FA0864E5C3
:100AE00072E08BED92E00E948201609101038BED38
:100AF00092E00E94FA086DE572E08BED92E00E94B0
:100B00008201609103038BED92E00E94FA0868EC89
:100B100070E080E090E00E94BF1140910D03509181
:100B20000E0360910F037091100380911103909157
:100B30001203CF910C949B036DE172E08BED92E078
:100B40000E94280F81E68093060181E080930003D4
:100B50001092DA026AED72E08091FE029091FF023B
:100B6000CF910C943315C09306018091FC029091B3
:100B7000FD02CF910C94B517CF910895FF920F937A
:100B80001F93CF93DF93FC01F080C181D281F89451
:100B900089810F2D00958023898378941DE711505A
:100BA00029F182E090E00E94FB1188818F21B9F346
:100BB000F8948A8180238A8389818F298983789414
:100BC00080EE91E00E94FB11F8948981082309834B
:100BD00086E490E00E94FB118881F82211E009F080
:100BE00010E078948AE991E00E94FB11812FDF9157
:100BF000CF911F910F91FF9008951F93CF93DF9393
:100C0000FC011081C181D281812F809560FF12C0CB
:100C1000F8949A8189238A838981812B89838AE048
:100C200090E00E94FB118A81182B1A83789487E345
:100C300090E011C0F8949A8189238A838981812B5D
:100C4000898381E490E00E94FB118A81182B1A832A
:100C5000789485E090E0DF91CF911F910C94FB1187
:100C60000F931F93CF93DF93FC010081C181D28149
:100C7000F8948981802B89838A81102F1095812394
:100C80008A8383E090E00E94FB11898118231983F5
:100C90008AE090E00E94FB11C881789485E390E09F
:100CA0000E94FB11C02381E009F480E0DF91CF9125
:100CB0001F910F910895DF92EF92FF920F931F9370
:100CC000CF93DF93EC01D62EE42E08E010E0FF2452
:100CD000F39461E08D2D8F2109F460E0CE010E9434
:100CE000FD05FF0C01501109A1F7E11010C0F894A7
:100CF000E981FA8191818881809589238183E981C5
:100D0000FA81928188818095892382837894DF910A
:100D1000CF911F910F91FF90EF90DF900895EF9288
:100D2000FF920F931F93CF93DF937C0108E010E0B5
:100D3000C0E0D1E0C7010E9430068111CD2BDD0F4C
:100D400001501109B9F78C2FDF91CF911F910F91AD
:100D5000FF90EF900895EF92FF920F931F93CF9320
:100D6000DF938C017B0140E065E50E945B06E701B3
:100D700088E0E80EF11C699140E0C8010E945B0622
:100D8000CE15DF05C1F7DF91CF911F910F91FF9035
:100D9000EF900895FC01138615861486DC011B96DE
:100DA00033961E92AE17BF07E1F708951F93CF93B6
:100DB000DF93EC01162F60E0812F0E94E612612F75
:100DC00070E0FB01E055FF4FE491E883FB01EC5339
:100DD000FF4FE491F0E0EE0FFF1FE852FF4F8591C7
:100DE00094919A838983CE01DF91CF911F910C94C6
:100DF000CA06BF92CF92DF92EF92FF920F931F939A
:100E0000CF93DF93EC016B01142F8D85811105C009
:100E1000CE010E94BE05811105C01B861D861C8661
:100E200080E064C040E0112311F060EF01C06CEE7F
:100E3000CE010E945B0601E0E12CB12C11E0CE0155
:100E40000E943006F82ECE010E94300691E0F91281
:100E500003C08130B1F434C02E2D30E0F8121BC035
:100E60008B85181738F4FE01E20FF31F838180236E
:100E700041F402C0181729F0F12C193058F41C87DE
:100E800009C0FE01EE0DF11D8381802B8383FF24B9
:100E9000F39409C0B12EFE01E20FF31F9381802F5E
:100EA0008095892383836F2DCE010E94FD051F5FEE
:100EB000000F11F4E39401E087E08E1508F0BFCF36
:100EC000113408F4AACFBB86B11002C081E08D872F
:100ED0008B81882309F4A1CFDE011396F6012B96AE
:100EE0008D918193CA17DB07D9F781E0DF91CF910C
:100EF0001F910F91FF90EF90DF90CF90BF900895DA
:100F0000DC0180E0615098F02D91982F9227E92F15
:100F1000EF70F0E0E458FF4F249192959F70E92F15
:100F2000F0E0E457FF4FE491822F8E27EBCF089536
:100F30008EE094E00C94D3004F925F926F927F9278
:100F40008F929F92AF92BF92CF92DF92EF92FF92D9
:100F50008EE00E944112BC01990F880B990B0E94F0
:100F6000620C6B017C0140901D0150901E0160904D
:100F70001F01709020012091190130911A014091B8
:100F80001B0150911C01C301B2010E94460B9B0141
:100F9000AC0160E070E080E490E40E94B80B4B018B
:100FA0005C0166E672E081E794E00E948201409174
:100FB0001D0150911E0160911F017091200122E0DE
:100FC00030E081E794E00E94CD1067E772E081E7AE
:100FD00094E00E9482014091190150911A016091A0
:100FE0001B0170911C0122E030E081E794E00E9437
:100FF000CD1066E872E081E794E00E94820122E071
:1010000030E0B701A60181E794E00E94CD10A50170
:101010009401C301B2010E94170D9B01AC0160E075
:1010200070E080EE90E40E94460B2B013C01A5018C
:101030009401C701B6010E94170D9B01AC01C301C9
:10104000B2010E94470BFF90EF90DF90CF90BF90CE
:10105000AF909F908F907F906F905F904F9008958A
:101060008EE094E00C94AC008EE094E00C94D200FE
:101070000F931F93FC018FEF80838183828383838F
:1010800084838AE085831682DF011796739600E7D2
:1010900017E120E030E048ED56ED60E070E00D93A0
:1010A0001D932D933D9318964D935D936D937C9373
:1010B0001B97AE17BF0799F71F910F910895FF92E5
:1010C0000F931F93CF93DF93EC01F62E042F122F73
:1010D0000E943808FB820C831883DF91CF911F9107
:1010E0000F91FF9008950895CF93DF93EC018981CC
:1010F0008F3FE9F09A819F3FD1F0613049F030F0A5
:10110000623041F0633099F460E009C061E003C0EF
:1011100061E005C060E00E94221361E003C00E940C
:10112000221360E08A81DF91CF910C942213DF912A
:10113000CF910895FC0120812F3F29F091E069278C
:10114000822F0C942213662319F0FC01668101C0E2
:1011500063E00C947408CF93DF93EC0189818F3F97
:1011600019F061E00E94E6128A818F3F19F061E078
:101170000E94E6128B818F3F19F061E00E94E61217
:101180008C818F3F19F061E00E94E61288818F3FC9
:1011900019F061E00E94E61260E0CE010E949A0818
:1011A0006E81CE01DF91CF910C94740880E090E0C5
:1011B000089520916F043091700428173907B9F40D
:1011C00090912D0480912E04981789F0E0912D04C0
:1011D000F0E0E15DFB4F808120912D0430E02F5F36
:1011E0003F4F2F73332720932D0490E008958FEF06
:1011F0009FEF08951F93CF93DF93DC015C968D9151
:101200009C915D97009739F421E030E013963C9370
:101210002E9312973BC05196ED91FC9152975096A8
:101220002C915097322F30951FB75E964C915E9758
:10123000742F727041FD6095F8944081772311F00E
:10124000422B01C043234083EC012197F1F748E092
:10125000508160FF02C0522B01C053235083EC0128
:101260002197F1F76695415099F78081772319F01E
:101270008323808302C0282B20831FBF5C968D911F
:101280009C915D970197F1F781E090E0DF91CF911C
:101290001F910895089520916F04309170042817CC
:1012A000390771F490912D0480912E04981741F024
:1012B000E0912D04F0E0E15DFB4F808190E0089526
:1012C0008FEF9FEF089520916F04309170042817DD
:1012D000390771F480912E0420912D0490E0805CF8
:1012E0009F4F821B910960E470E00E949A1F08954D
:1012F00080E090E00895E0916F04F0917004E817A9
:10130000F90769F4A389B4899C918589809589231B
:101310008C931092700410926F0481E0089580E025
:101320000895CF93DF93EC018A8D9B8D892BF1F08B
:1013300080916F0490917004C817D907B9F0009795
:1013400011F00E947B098E8D8E7F8E8F10922E045D
:1013500010922D04D0937004C0936F04EB89FC8924
:1013600090818D89892B808381E001C080E0DF91AD
:10137000CF9108951F920F920FB60F9211242F93C1
:101380003F934F935F936F937F938F939F93AF930D
:10139000BF93EF93FF93E0916F04F0917004309747
:1013A00009F451C0968DA685B785858591FF04C047
:1013B0009C91892329F447C09C91892309F043C05B
:1013C000A389B4899C918589809589238C9386898A
:1013D00097890197F1F7608D718DA685B785558541
:1013E00038E020E0CB010197F1F7822F90E095954E
:1013F0008795282F4C91452309F02068315091F7AB
:10140000868D81FD209580912E0490E001968F734A
:10141000992730912D04381749F0A0912E04B0E09F
:10142000A15DBB4F2C9380932E0403C0868D8160F9
:10143000868F828D938D0197F1F7A389B4899C9152
:101440008589892B8C93FF91EF91BF91AF919F91EB
:101450008F917F916F915F914F913F912F910F905D
:101460000FBE0F901F9018952DE932E0FC013183DB
:1014700020830C947B091F93CF93DF93EC01162FED
:101480006E8D6695617081E06827812F0E9422131E
:1014900061E0812F0E94E612812F90E0FC01E0556F
:1014A000FF4FE491E88BFC01EC53FF4FE491F0E037
:1014B000EE0FFF1FEE51FF4F859194919A8B898B10
:1014C000DF91CF911F9108951F93CF93DF93EC018C
:1014D000162F60E0812F0E94E6128E8D81FD04C0E0
:1014E00061E0812F0E9422131C87812F90E0FC0174
:1014F000E055FF4FE491ED87FC01EC53FF4FE49181
:10150000F0E0EE0FFF1FE852FF4F859194919F8707
:101510008E87DF91CF911F9108951F93CF93DF9313
:10152000EC01162F1B821A8288EE93E0A0E0B0E057
:101530008C839D83AE83BF838DE992E099838883FA
:101540001F8A1E8A198E188E1B8E1A8E1D8E1C8E57
:101550008E8D8E7F20FB81F98E8F642FCE010E94AD
:101560003B0A612FCE01DF91CF911F910C94640A49
:10157000CF93DF93EC019A01AB011B8E1A8E198E6B
:10158000188E1F8A1E8A60E079E08DE390E00E9449
:10159000D01FF9012430310518F0C901039702C0AA
:1015A00081E090E09D8F8C8F6C85663108F069C07A
:1015B000C901969587958431910510F0439702C033
:1015C00081E090E09F8B8E8B369718F0C9010597CC
:1015D00002C081E090E0998F888FC901880F991F20
:1015E000280F391F36952795369527952D303105CB
:1015F00018F02C50310902C021E030E03B8F2A8FD7
:1016000090916800683050F021E06E3008F420E0DE
:1016100081E001C0880F2A95EAF701C084E0892B98
:10162000809368009C85983038F09E3040F0963169
:1016300048F020E030E008C02DE630E005C02BE6A1
:1016400030E002C02CE630E03C8B2B8B983030F43D
:1016500081E001C0880F9A95EAF70EC0292F30E08B
:101660009E3018F42850310902C02E50310981E013
:1016700001C0880F2A95EAF78D8B8C8D9D8D01977F
:10168000F1F7CE01DF91CF910C9491095058BB270F
:10169000AA270E945E0B0C94D80C0E94CA0C38F04A
:1016A0000E94D10C20F039F49F3F19F426F40C94D9
:1016B000C70C0EF4E095E7FB0C94C10CE92F0E94D7
:1016C000E90C58F3BA17620773078407950720F0EF
:1016D00079F4A6F50C940B0D0EF4E0950B2EBA2FB1
:1016E000A02D0B01B90190010C01CA01A001112428
:1016F000FF27591B99F0593F50F4503E68F11A16D4
:10170000F040A22F232F342F4427585FF3CF469564
:1017100037952795A795F0405395C9F77EF41F1686
:10172000BA0B620B730B840BBAF09150A1F0FF0F50
:10173000BB1F661F771F881FC2F70EC0BA0F621F3C
:10174000731F841F48F4879577956795B795F7952C
:101750009E3F08F0B0CF9395880F08F09927EE0FC1
:101760009795879508950E949D0C08F481E008954F
:101770000E94CC0B0C94D80C0E94D10C58F00E9403
:10178000CA0C40F029F45F3F29F00C94C10C5111B0
:101790000C940C0D0C94C70C0E94E90C68F399236F
:1017A000B1F3552391F3951B550BBB27AA2762175D
:1017B0007307840738F09F5F5F4F220F331F441F6A
:1017C000AA1FA9F335D00E2E3AF0E0E832D091509E
:1017D0005040E695001CCAF72BD0FE2F29D0660F8B
:1017E000771F881FBB1F261737074807AB07B0E8CE
:1017F00009F0BB0B802DBF01FF2793585F4F3AF0D4
:101800009E3F510578F00C94C10C0C940C0D5F3F79
:10181000E4F3983ED4F3869577956795B795F79559
:101820009F5FC9F7880F911D9695879597F9089541
:10183000E1E0660F771F881FBB1F621773078407DD
:10184000BA0720F0621B730B840BBA0BEE1F88F7EC
:10185000E09508950E94310C6894B1110C940C0D20
:1018600008950E94F10C88F09F5798F0B92F99279E
:10187000B751B0F0E1F0660F771F881F991F1AF07B
:10188000BA95C9F714C0B13091F00E940B0DB1E0C8
:1018900008950C940B0D672F782F8827B85F39F0C7
:1018A000B93FCCF3869577956795B395D9F73EF414
:1018B00090958095709561957F4F8F4F9F4F0895BC
:1018C000E89409C097FB3EF49095809570956195DA
:1018D0007F4F8F4F9F4F9923A9F0F92F96E9BB2790
:1018E0009395F695879577956795B795F111F8CF0C
:1018F000FAF4BB0F11F460FF1BC06F5F7F4F8F4F77
:101900009F4F16C0882311F096E911C0772321F06C
:101910009EE8872F762F05C0662371F096E8862F04
:1019200070E060E02AF09A95660F771F881FDAF75B
:10193000880F9695879597F90895990F0008550F88
:10194000AA0BE0E8FEEF16161706E807F907C0F045
:1019500012161306E407F50798F0621B730B840B4D
:10196000950B39F40A2661F0232B242B252B21F427
:1019700008950A2609F4A140A6958FEF811D811DC7
:10198000089597F99F6780E870E060E008959FEF01
:1019900080EC089500240A94161617061806090606
:1019A000089500240A9412161306140605060895D5
:1019B000092E0394000C11F4882352F0BB0F40F45D
:1019C000BF2B11F460FF04C06F5F7F4F8F4F9F4F9D
:1019D000089557FD9058440F551F59F05F3F71F01F
:1019E0004795880F97FB991F61F09F3F79F0879586
:1019F0000895121613061406551FF2CF4695F1DF0F
:101A000008C0161617061806991FF1CF869571059E
:101A1000610508940895E894BB2766277727CB01D2
:101A200097F908950E949D0C08F48FEF08950E9485
:101A30002A0D0C94D80C0E94CA0C38F00E94D10CCC
:101A400020F0952311F00C94C10C0C94C70C1124B8
:101A50000C940C0D0E94E90C70F3959FC1F3950F47
:101A600050E0551F629FF001729FBB27F00DB11D22
:101A7000639FAA27F00DB11DAA1F649F6627B00DB2
:101A8000A11D661F829F2227B00DA11D621F739F9B
:101A9000B00DA11D621F839FA00D611D221F749FA9
:101AA0003327A00D611D231F849F600D211D822FF0
:101AB000762F6A2F11249F5750409AF0F1F0882317
:101AC0004AF0EE0FFF1FBB1F661F771F881F915044
:101AD0005040A9F79E3F510580F00C94C10C0C9426
:101AE0000C0D5F3FE4F3983ED4F3869577956795A8
:101AF000B795F795E7959F5FC1F7FE2B880F911D6E
:101B00009695879597F90895FC01918D228D892FDF
:101B100090E0805C9F4F821B91098F7399270895F5
:101B2000FC01918D828D981731F0828DE80FF11DA7
:101B3000858D90E008958FEF9FEF0895FC01918DC2
:101B4000828D981761F0828DDF01A80FB11D5D961F
:101B50008C91928D9F5F9F73928F90E008958FEF8D
:101B60009FEF0895FC01538D448D252F30E0842F85
:101B700090E0821B930B541710F0CF9608950197B5
:101B8000089588EB9EE0892B49F080E090E0892B56
:101B900029F00E94B80E81110C9400000895FC01F8
:101BA000848DDF01A80FB11DA35ABF4F2C91848DE6
:101BB00090E001968F739927848FA689B7892C931B
:101BC000A089B1898C91837080648C93938D848D6E
:101BD000981306C00288F389E02D80818F7D808371
:101BE0000895EF92FF920F931F93CF93DF93EC0131
:101BF00081E0888F9B8D8C8D981305C0E889F989C9
:101C0000808185FD26C0F62E0B8D10E00F5F1F4FE3
:101C10000F731127E02E8C8DE8120CC00FB607FC55
:101C2000FACFE889F989808185FFF5CFCE010E943E
:101C3000CF0DF1CF8B8DFE01E80FF11DE35AFF4F61
:101C4000F0829FB7F8940B8FEA89FB8980818062CC
:101C50000AC09FB7F894EE89FF896083E889F98903
:101C600080818370806480839FBF81E090E0DF91FA
:101C7000CF911F910F91FF90EF900895CF93DF9335
:101C8000EC01888D8823C9F0EA89FB89808185FD74
:101C900005C0A889B9898C9186FD0FC00FB607FCD5
:101CA000F5CF808185FFF2CFA889B9898C9185FF16
:101CB000EDCFCE010E94CF0DE7CFDF91CF910895F8
:101CC0001F920F920FB60F9211242F938F939F9311
:101CD000EF93FF93E0918104F09182048081E09181
:101CE0008704F091880482FD12C0908180918A045B
:101CF0008F5F8F7320918B04821751F0E0918A04DB
:101D0000F0E0EF58FB4F958F80938A0401C08081EB
:101D1000FF91EF919F918F912F910F900FBE0F9098
:101D20001F9018951F920F920FB60F9211242F93A8
:101D30003F934F935F936F937F938F939F93AF9353
:101D4000BF93EF93FF9381E794E00E94CF0DFF9143
:101D5000EF91BF91AF919F918F917F916F915F9123
:101D60004F913F912F910F900FBE0F901F9018959C
:101D700081E794E00E94840D21E0892B09F420E0A2
:101D8000822F0895E1E7F4E01382128288EE93E057
:101D9000A0E0B0E084839583A683B7838FEA92E0C6
:101DA0009183808385EC90E09587848784EC90E034
:101DB0009787868780EC90E0918B808B81EC90E018
:101DC000938B828B82EC90E0958B848B86EC90E0F9
:101DD000978B868B118E128E138E148E08950E940F
:101DE00006120E94E61C0E947704C1ECDDE00E940E
:101DF000F3042097E1F30E94C10DF9CFCF92DF9257
:101E0000EF92FF920F931F93CF93DF936C017A01B0
:101E10008B01C0E0D0E0CE15DF0581F0D8016D91D7
:101E20008D01D601ED91FC910190F081E02DC6016C
:101E30000995892B11F02196EECF7E01C701DF9124
:101E4000CF911F910F91FF90EF90DF90CF90089569
:101E50000C948201DC01ED91FC910190F081E02D68
:101E600009946DEB72E00C9482010F931F93CF9352
:101E7000DF93EC010E9482018C01CE010E94310FA0
:101E8000800F911FDF91CF911F910F9108958F9235
:101E90009F92AF92BF92EF92FF920F931F93CF93B7
:101EA000DF93CDB7DEB7A1970FB6F894DEBF0FBEB4
:101EB000CDBF7C01FA01CB0119A2223008F42AE03F
:101EC0008E010F5D1F4F822E912CA12CB12CBF01D2
:101ED000A50194010E94AE1FF901CA010150110928
:101EE0006A3010F4605D01C0695CD8016C93232BEB
:101EF000242B252B61F7B801C7010E948201A1960E
:101F00000FB6F894DEBF0FBECDBFDF91CF911F910A
:101F10000F91FF90EF90BF90AF909F908F9008959A
:101F20002115310541F4DC01ED91FC910190F08126
:101F3000E02D642F09940C94470F9A01AB0160E0E7
:101F400070E00C94900FCF92DF92EF92FF920F937C
:101F50001F93CF93DF932115310581F4DC01ED91BF
:101F6000FC910190F081E02D642FDF91CF911F91C2
:101F70000F91FF90EF90DF90CF9009942A303105B8
:101F800001F577FF1DC06A017B01EC016DE20E9443
:101F90002A0F8C0144275527BA014C195D096E0997
:101FA0007F092AE0CE010E94470F800F911FDF9129
:101FB000CF911F910F91FF90EF90DF90CF900895F8
:101FC0002AE0DF91CF911F910F91FF90EF90DF906A
:101FD000CF900C94470F9A01AB01770F660B770BEC
:101FE0000C94A30F7F928F929F92AF92BF92CF9249
:101FF000DF92EF92FF920F931F93CF93DF938C01A9
:102000006A017B01722E9A01AB01C701B6010E94E1
:10201000951F882319F060EC72E027C04601570134
:10202000E894B7F82FEF3FEF4FE75FE7C501B40142
:102030000E94951F81110DC02FEF3FEF4FE75FE723
:10204000C501B4010E94B30B18161CF464EC72E0D5
:102050000CC02FEF3FEF4FE75FE4C701B6010E94CE
:10206000120D181694F468EC72E0C801DF91CF915C
:102070001F910F91FF90EF90DF90CF90BF90AF90A6
:102080009F908F907F900C9482012FEF3FEF4FE74E
:102090005FECC701B6010E94B30B87FDE4CF20E0DF
:1020A00030E0A901C701B6010E94B30B87FF0AC047
:1020B0006DE2C8010E942A0FEC01F7FAF094F7F8DC
:1020C000F09402C0C0E0D0E0B12C60E070E080E0AD
:1020D0009FE37B1441F020E030E040E251E40E94B5
:1020E000B80BB394F6CFA70196010E94470B6B0182
:1020F0007C010E94310C4B015C012AE0AB01BC0168
:10210000C8010E94470FC80FD91F7720B9F1C50138
:10211000B4010E94600C9B01AC01C701B6010E9492
:10212000460B6B017C016EE2C8010E942A0FC80FAA
:10213000D91F20E030E040E251E4C701B6010E941F
:10214000170D4B015C010E94310C6B017C014AE0D0
:1021500050E0C8010E949D0FC80FD91FB60180E052
:1021600090E00E94600C9B01AC01C501B4010E948B
:10217000460B6B017C017A947110DBCFCE01DF91AD
:10218000CF911F910F91FF90EF90DF90CF90BF9074
:10219000AF909F908F907F9008950C94F20F0F93C3
:1021A0001F93CF93DF93EC010E94F20F8C01CE01BD
:1021B0000E94310F800F911FDF91CF911F910F91DE
:1021C000089508958230E8F4E82FF0E0EE0FFF1F45
:1021D000EF5DFE4F71836083813041F08091690033
:1021E0008C7F482B40936900E89A0895809169009C
:1021F000837F440F551F440F551F482B40936900A0
:10220000E99A08951F920F920FB60F9211242F93FF
:102210003F934F935F936F937F938F939F93AF936E
:10222000BF93EF93FF93E0912101F0912201099573
:10223000FF91EF91BF91AF919F918F917F916F919E
:102240005F914F913F912F910F900FBE0F901F9074
:1022500018951F920F920FB60F9211242F933F9350
:102260004F935F936F937F938F939F93AF93BF939E
:10227000EF93FF93E0912301F09124010995FF91E1
:10228000EF91BF91AF919F918F917F916F915F91EE
:102290004F913F912F910F900FBE0F901F90189567
:1022A0001F920F920FB60F9211242F933F938F938B
:1022B0009F93AF93BF9380910F0590911005A091CC
:1022C0001105B091120530910E0523E0230F2D3733
:1022D00020F40196A11DB11D05C026E8230F02962A
:1022E000A11DB11D20930E0580930F05909310053D
:1022F000A0931105B09312058091130590911405D8
:10230000A0911505B09116050196A11DB11D8093F0
:10231000130590931405A0931505B0931605BF916E
:10232000AF919F918F913F912F910F900FBE0F9082
:102330001F9018953FB7F89480911305909114055C
:10234000A0911505B091160526B5A89B05C02F3F95
:1023500019F00196A11DB11D3FBFBA2FA92F982FCB
:102360008827820F911DA11DB11DBC01CD0142E046
:10237000660F771F881F991F4A95D1F708958F928E
:102380009F92AF92BF92CF92DF92EF92FF926B013A
:102390007C010E949A114B015C01C114D104E1043B
:1023A000F10401F10E94841D0E949A11DC01CB010D
:1023B00088199909AA09BB09883E9340A105B1056E
:1023C00060F321E0C21AD108E108F10888EE880E16
:1023D00083E0981EA11CB11CC114D104E104F104D6
:1023E00019F7DBCFFF90EF90DF90CF90BF90AF90C9
:1023F0009F908F9008958230910538F0880F991F33
:10240000880F991F05970197F1F70895789484B57F
:10241000826084BD84B5816084BD85B5826085BDE0
:1024200085B5816085BDEEE6F0E0808181608083C6
:10243000E1E8F0E0108280818260808380818160A9
:102440008083E0E8F0E0808181608083E1EBF0E070
:10245000808184608083E0EBF0E080818160808314
:10246000EAE7F0E0808184608083808182608083FD
:102470008081816080838081806880831092C10028
:1024800008958E3008F08E502091250190E4299F08
:10249000900111248770822B80937C0080917A00B8
:1024A000806480937A0080917A0086FDFCCF8091D1
:1024B00078002091790090E0922B08951F93CF939C
:1024C000DF93182FEB0161E00E94E612209711F4D0
:1024D00060E004C0CF3FD10539F461E0812FDF9186
:1024E000CF911F910C942213E12FF0E0E456FF4F9F
:1024F000E491E330F9F048F4E130B9F0E230A1F5CD
:1025000084B5806284BDC8BD34C0E730E9F0E830EE
:1025100019F1E43049F58091800080628093800059
:10252000D0938B00C0938A0024C084B5806884BD9A
:10253000C7BD1FC080918000806880938000D093C9
:102540008900C093880015C08091B0008068809396
:10255000B000C093B3000DC08091B0008062809342
:10256000B000C093B40005C0C038D1050CF0B5CFA1
:10257000AFCFDF91CF911F910895833081F028F480
:10258000813099F08230A1F008958730A9F0883029
:10259000B9F08430D1F4809180008F7D03C08091A8
:1025A00080008F7780938000089584B58F7702C074
:1025B00084B58F7D84BD08958091B0008F7703C06E
:1025C0008091B0008F7D8093B0000895CF93DF930A
:1025D00090E0FC01E055FF4F2491FC01EC53FF4FCC
:1025E0008491882361F190E0880F991FFC01E451E8
:1025F000FF4FC591D491FC01EE51FF4FA591B491CD
:10260000611109C09FB7F89488812095822388833F
:10261000EC912E230BC0623061F49FB7F89488814F
:10262000322F309583238883EC912E2B2C939FBFE0
:1026300006C08FB7F894E8812E2B28838FBFDF91D7
:10264000CF9108951F93CF93DF93282F30E0F901A6
:10265000E456FF4F8491F901E055FF4FD491F90101
:10266000EC53FF4FC491CC23C1F0162F81110E946F
:10267000BD12EC2FF0E0EE0FFF1FEE51FF4FA591C2
:10268000B4919FB7F894111104C08C91D095D823C0
:1026900002C0EC91DE2BDC939FBFDF91CF911F91A5
:1026A00008950FB6F8940F92FC01928D0F900FBE13
:1026B00081E0911180E008950F931F93CF93DF93F2
:1026C000EC01042F1A8D4C8D41110BC0888199812A
:1026D000892BE9F58C819D810E94A61A1D821C829E
:1026E00037C050E0011115C08A819B810E942A21C8
:1026F0002C8D8A819B81820F911D9B838A832C81E3
:102700003D818217930718F1888199819B838A8381
:102710001EC08E819F810E942A218C8D90E0919510
:10272000819591092E813F81280F391F3F832E8388
:10273000488159812417350730F42C813D81820F5F
:10274000931F9F838E83023011F41111115080E08A
:102750001F5F1A8FDF91CF911F910F910895FC0198
:10276000CB01448D4423A1F050E026813781240F12
:10277000351F37832683648175812617370720F03C
:102780002081318137832683668177810C942A21C9
:102790000895EF92FF921F93CF93DF93EC010FB652
:1027A000F8940F921E8D7C0181E1E80EF11C111648
:1027B0005CF48989882341F0C7010E94161A8111AF
:1027C0000E94941A1150F3CF8FEF8E8F0F900FBE8F
:1027D0000FB6F8940F921D8D7E0188E0E80EF11C73
:1027E00011165CF48885882341F0C7010E94161AEF
:1027F00081110E94941A1150F3CF8FEF8D8F0F909B
:102800000FBEDF91CF911F91FF90EF900895CF936E
:10281000DF93EC010FB6F8940F92488159818B8DAC
:102820007C8D9A01879F200D311D11243D832C83BF
:102830001A8E5B834A8390E00197789F9001799F7D
:10284000300D1124CA01820F931F9F838E838FEF57
:102850008D8F8E8F61110CC08885882389F0CE0101
:1028600008960E94161A882359F00E94DC1E08C0A0
:10287000CE0108960E94A91DCE0141960E94A91D75
:102880000F900FBE81E0DF91CF9108950F931F93BA
:10289000CF93DF93082F162F662321F0869FC00168
:1028A000112402C080E090E04F960E94851DEC014B
:1028B000009771F0111103C09983888303C04F966C
:1028C000998388830B8F1C8F61E0CE010E940714CF
:1028D000CE01DF91CF911F910F910895AF92BF92DA
:1028E000CF92DF92FF920F931F93CF93DF9300D08D
:1028F00000D01F92CDB7DEB78C016B015D834C8396
:10290000F22E80E0580198E0A90EB11C0FB6F894A1
:102910000F92F801228D938D291718F0F2E0FF1223
:1029200014C04F2DB601C8010E945C13F8019189B3
:10293000992321F0C80141960E94161A81110E9424
:10294000DC1E0F900FBE81E050C02C813D81232BF7
:1029500019F40F900FBE48C0811104C0CE0101963A
:102960000E94561A0F900FBE0E942C180FB6F894B2
:102970000F92F801858D8F3F09F4158EF801868D31
:102980008F3F09F4168E0F900FBEBE016C5F7F4F14
:10299000CE0101960E94611A811121C00FB6F894F0
:1029A0000F92F801928D838D0F900FBE981311C076
:1029B0006C817D81C5010E94ED19C8010E94C91377
:1029C0000E94E818882311F081E0A0CF0E94DC1E4D
:1029D000FBCFC8010E94C9130E94E818F5CFC801B7
:1029E0000E94C9130E94E81880E00F900F900F908A
:1029F0000F900F90DF91CF911F910F91FF90DF907B
:102A0000CF90BF90AF900895EF92FF921F93CF9316
:102A1000DF93EC019A8D8B8D981710F02230E1F442
:102A20007A011E8D422FCE010E945C131F3F81F45C
:102A30008989882379F0CE0141960E94161A88234D
:102A400049F0E114F10431F081E0F701808305C021
:102A50001F5F1E8F81E001C080E0DF91CF911F9149
:102A6000FF90EF900895CF93DF93FC01928D838DBB
:102A70009817C0F4868D9F5F928F8F3F79F481897C
:102A8000882371F0EB01CF0141960E94161A88232A
:102A900039F0209729F081E0888305C08F5F868F09
:102AA00081E001C080E0DF91CF910895AF92BF92A5
:102AB000CF92DF92FF920F931F93CF93DF9300D0BB
:102AC00000D01F92CDB7DEB78C016B015D834C83C4
:102AD00080E0580191E1A90EB11C0FB6F8940F9255
:102AE000F801F28CFF20A9F0B601C8010E94AF13D3
:102AF000FA94F801F28E8085882339F0C80108968F
:102B00000E94161A81110E94DC1E0F900FBE81E0F8
:102B100050C02C813D81232B19F40F900FBE48C06B
:102B2000811104C0CE0101960E94561A0F900FBE6B
:102B30000E942C180FB6F8940F92F801858D8F3FE4
:102B400009F4158EF801868D8F3F09F4168E0F90CB
:102B50000FBEBE016C5F7F4FCE0101960E94611ACD
:102B600081111CC0C8010E945113882389F06C8117
:102B70007D81C5010E94ED19C8010E94C9130E9400
:102B8000E818882311F081E0A8CF0E94DC1EFBCF5B
:102B9000C8010E94C9130E94E818F5CFC8010E941D
:102BA000C9130E94E818C8010E945113882359F3E1
:102BB00080E00F900F900F900F900F90DF91CF91CA
:102BC0001F910F91FF90DF90CF90BF90AF9008952D
:102BD000CF93DF93EC010FB6F8940F928D8D8F3F5A
:102BE00009F41D8E8E8D8F3F09F41E8E0F900FBE3F
:102BF0008A8D811104C0CE0141960E94FE19CE013A
:102C0000DF91CF910C94C913E0914305F0914405F5
:102C10008081811103C08FEF9FEF0CC0E0914305CD
:102C2000F09144050580F681E02D0680F781E02DC6
:102C30008281938190931B0580931A050895FF92DA
:102C40000F931F93CF93DF93EC01F62E0091220593
:102C50001091230580917B0590917C0502960E943E
:102C6000141ECF3F8FEFD80789F4FF2079F06091D1
:102C70007B0570917C056E5F7F4F85E295E0DF916B
:102C8000CF911F910F91FF900C94BB1DC00FD11FCE
:102C9000E0917B05F0917C05D383C28360917B0535
:102CA00070917C05C017D10768F48091410590911F
:102CB00042056E5F7F4FDF91CF911F910F91FF9083
:102CC0000C94DC1D80914305909144056E5F7F4F0D
:102CD0000E94DC1D80911A0590911B05C817D90729
:102CE00020F4D0931B05C0931A05DF91CF911F915B
:102CF0000F91FF90089580912E05882309F10FB65A
:102D0000F8940F92E0913405F0913505C681D78192
:102D1000CE0102960E94141E80912405815080935A
:102D2000240580912E05815080932E050F900FBEB3
:102D30008F89988D0E94981DCE010E94981DDBCF2F
:102D400080915705823010F00E94DC1E0E94EB1C1F
:102D5000D2CF5F926F927F928F929F92AF92BF92EB
:102D6000CF92DF92EF92FF920F931F93CF93DF9357
:102D70003C016B015A014901502ECA010E94851D78
:102D80008C01892B09F4E0C088E290E00E94851D47
:102D9000EC01892BC9F0188F0F8BA50165EA70E053
:102DA000C8010E94332121E0A21AB1088F89988DB1
:102DB000A80EB91EC114D104C9F0BE01675E7F4FD1
:102DC000F601C601089607C0C8010E94981DBCC044
:102DD000E817F90749F09F014191DB014D93BD01CF
:102DE000D9012C912111F4CF18A201C0198E052D03
:102DF000043008F003E00E8B09A31AA26E01B2E0C2
:102E0000CB0ED11CC6010E94B71DCE010C960E94AC
:102E1000B71DD987C88784E090E0801B91099D8702
:102E20008C87DB8BCA8B1BA21CA21DA21EA21FA219
:102E3000A401B301C5010E94381E99838883E1145F
:102E4000F10419F0F701D183C0830FB6F8940F9203
:102E5000809124058F5F8093240580917B0590915C
:102E60007C05892BD1F5D0937C05C0937B0580919F
:102E70002405813009F041C087E595E00E94A91D35
:102E800080E695E00E94A91D89E695E00E94A91DB3
:102E900082E795E00E94A91D8EE495E00E94A91D9D
:102EA00085E495E00E94A91D88E395E00E94A91D94
:102EB0008FE295E00E94A91D85E295E00E94A91D80
:102EC0008EE495E0909344058093430585E495E076
:102ED000909342058093410510C080912005811197
:102EE0000CC0E0917B05F0917C0596898E8989174D
:102EF00020F0D0937C05C0937B0580911C058F5FEB
:102F000080931C058E8990912105981710F4809369
:102F10002105F9E08F9FC0011124B601895A9A4F0B
:102F20000E94BB1D0F900FBE80912005882351F099
:102F3000E0917B05F0917C0596898E89981710F4B5
:102F40000E94DC1E81E001C08FEFDF91CF911F91C5
:102F50000F91FF90EF90DF90CF90BF90AF909F9038
:102F60008F907F906F905F9008950F931F93CF93F2
:102F7000DF9320917B0530917C058217930709F43C
:102F800038C0009709F435C00FB6F8940F92FC01D1
:102F9000228533852552354051F5FC012489358938
:102FA000F5E028333F0719F1232B09F5EC018C01DB
:102FB0000E5F1F4FC8010E94141E8E89909121053B
:102FC000981710F48093210529E0829FC0011124F5
:102FD000B801895A9A4F0E94BB1DE0917B05F09180
:102FE0007C059E898689981710F00E94DC1E0F9040
:102FF0000FBEDF91CF911F910F910895EF92FF9235
:103000000F9388E1E82E85E0F82E00E020E030E024
:1030100040EC50E06CEC72E08BE796E10E94A91660
:103020008130B1F40E94331B813091F4F8942FEF7A
:103030003FEF30931B0520931A05809320051092D3
:103040002305109222050F91FF90EF900C94A41E7F
:103050000F91FF90EF900895809117058F5F8093F7
:10306000170508950FB6F8940F928091220590915C
:1030700023050F900FBE0895CF92DF92EF92FF923B
:103080000F931F93CF93DF938091170581118CC00D
:1030900000912205109123050F5F1F4F1093230508
:1030A0000093220501151105B9F480914305909113
:1030B0004405209141053091420530934405209309
:1030C0004305909342058093410580911D058F5FD4
:1030D00080931D050E94041680911A0590911B058E
:1030E000C0E00817190708F44FC0D9E0E091430584
:1030F000F09144058081811103C08FEF9FEF11C0D3
:10310000E0914305F09144050580F681E02DE680CD
:10311000F780D70112968D919C9113970817190784
:1031200028F490931B0580931A052EC06701B2E026
:10313000CB0ED11CC6010E94141EF701848995890B
:10314000892B21F0C7010C960E94141ED7015696B8
:103150008C9190912105981710F480932105D89FA8
:10316000C0011124B601895A9A4F0E94BB1DE091FB
:103170007B05F0917C05D70156969C91868998171E
:1031800008F4B4CFC1E0B2CFE0917B05F0917C05AB
:10319000E689B9E0EB9FF0011124E95AFA4F8081EA
:1031A000823040F0C1E006C080911F058F5F8093A0
:1031B0001F05C0E080911E058111C1E08C2FDF91B9
:1031C000CF911F910F91FF90EF90DF90CF900895D6
:1031D000EF92FF920F931F93CF93DF930FB6F89464
:1031E0000F928091170581508093170580911705E4
:1031F000882311F080E052C0809124058823D1F308
:10320000C0E0D0E089E0F82EEE24E3948091380508
:10321000882351F1E0913D05F0913E05C681D781AB
:10322000CE010C960E94141E8E010E5F1F4FC80126
:103230000E94141E8E8990912105981710F4809396
:103240002105F89EC0011124B801895A9A4F0E94A5
:10325000BB1DE0917B05F0917C059E8986899817BE
:10326000A8F2E0921E05D2CFCD2B11F00E940416D9
:10327000C0911F05CC2351F0D1E00E943C18811170
:10328000D0931E05C150C9F710921F0580911E05ED
:10329000882309F4AFCF0E94DC1E81E00F900FBE9F
:1032A000DF91CF911F910F91FF90EF9008950F93B1
:1032B0001F93CF93DF938C01EB010E942C18409158
:1032C000220550912305F80120813181C9018C0F1D
:1032D0009D1F4217530720F48217930740F403C041
:1032E0008217930730F021E04817590718F020E0C3
:1032F00001C021E0F80191838083222329F060E05E
:10330000841B950B0E941F160E94E818811102C0B1
:103310000E94DC1EDF91CF911F910F910895809143
:103320001705882321F081E080931E0508951092EF
:103330001E05A0917B05B0917C05E0917B05F09185
:103340007C052D913C918789908D8217930760F0C1
:1033500060917B0570917C0580917B0590917C0547
:10336000675E7F4F0E94011D8091210569E0482F13
:1033700050E0649F9001659F300D1124F901E95AD6
:10338000FA4F9081911102C08150F1CFA181B28199
:1033900012960D90BC91A02DB283A183265A3A4F6C
:1033A000A217B30731F412962D913C9113973283F3
:1033B000218399E0949FF001959FF00D1124E95A23
:1033C000FA4F0180F281E02D2681378130937C0510
:1033D00020937B05809321050895CF93DF93EB0124
:1033E00060917B0570917C05645F7F4F0E94DC1DBE
:1033F00061E0CE01DF91CF910C941F161F93CF9304
:10340000DF93EB01142F60917B0570917C05645F65
:103410007F4F0E94BB1D112311F0CFEFDFEF612F13
:10342000CE01DF91CF911F910C941F160F931F9324
:10343000CF93DF93DC011596ED91FC911697C68131
:10344000D7818E01045F1F4FC8010E94141E809116
:103450001705811114C00A501109C8010E94141ED9
:103460008E8990912105981710F480932105B9E079
:103470008B9FC0011124B801895A9A4F03C0B8012B
:1034800088E395E00E94BB1DE0917B05F0917C05EF
:103490009E898689891720F481E080931E0501C0EA
:1034A00080E0DF91CF911F910F91089520911D052C
:1034B000FC01208320912205309123053283218352
:1034C0000895CF93DF930FB6F8940F9240912205A1
:1034D00050912305DB012D913C912F3FBFEF3B071E
:1034E000D9F0EC01E981FA81A0911D05B881BA17E4
:1034F00019F04E175F0790F44E1B5F0BFB0142174C
:10350000530738F4241B350B318320830E94561A4D
:1035100003C01182108202C080E001C081E00F90E0
:103520000FBEDF91CF91089581E080931E0508952D
:1035300080912005882331F080911705882321F0A0
:1035400080E0089581E0089582E008950F931F932D
:10355000CF93DF93FC01892B11F480E02CC082A172
:10356000815082A3268991A12917B9F38111F5CF42
:10357000EF018F010E5F1F4FC8010E94141E89A129
:103580008E8B482F50E024E030E0241B350B3D8724
:103590002C8790912105981710F48093210529E03C
:1035A000249FC001259F900D1124B801895A9A4F7C
:1035B0000E94BB1D81E0DF91CF911F910F91089573
:1035C0000FB6F8940F928091810590918205892B16
:1035D000E9F480E995E00E94A91D87E895E00E9442
:1035E000A91D80E995E0909386058093850587E87D
:1035F00095E0909384058093830540E065E08AE040
:103600000E94461490938205809381050F900FBE0F
:103610000895FC017383628391878087461757075B
:1036200078F0421B530B8485958548175907C8F4D9
:10363000BF016E5F7F4F80918305909184050DC01F
:103640004217530718F46217730758F4BF016E5FEF
:103650007F4F80918505909186050E94DC1D80E05A
:10366000089581E00895EF92FF920F930E94E01A6F
:103670008091810590918205892B81F08FE7E82E5A
:1036800085E0F82E03E020E030E045E550E061ED14
:1036900072E083EE9BE10E94A91601C080E00F91C9
:1036A000FF90EF9008950F931F93CF93DF9300D077
:1036B00000D01F92CDB7DEB7A0918105B0918205F1
:1036C000109729F1F90169835B834A839D838C8379
:1036D0006630A4F40E94981AE0918105F091820569
:1036E00020E0823011F4A80102C040E050E0BE01A9
:1036F0006F5F7F4FCF010E946E140AC020E0AF01C0
:10370000BE016F5F7F4FCD010E94041501C080E0B4
:103710000F900F900F900F900F90DF91CF911F910E
:103720000F910895EF92FF920F931F93CF93DF9322
:10373000E0918505F09186058081882389F10580D7
:10374000F681E02DE080F180C681D7818E010E5F89
:103750001F4FC8010E94141EE889F989CE010995FE
:103760008A8982FFE5CF8C859D858E0D9F1DE81689
:10377000F90660F49B838A83D987C887B801809152
:103780008505909186050E94DC1DD2CF00E010E0F7
:1037900020E030E0A70160E0CE010E94531BC8CFBB
:1037A000809183059091840590938605809385058B
:1037B000F0938405E0938305DF91CF911F910F91E2
:1037C000FF90EF900895CF93DF9300D000D01F9229
:1037D000CDB7DEB7E0918505F0918605D080DD207C
:1037E00031F00580F681E02DE080F18002C0E12C0F
:1037F000F12C0E942C180E9432188C0180917D05BA
:1038000090917E050817190720F40E94921B81E011
:1038100001C080E010937E0500937D05811155C0A5
:10382000DD20D9F10E151F0508F43EC00E94E818EE
:10383000E0918505F09186050580F681E02DC68032
:10384000D780C60102960E94141ED60152968C9112
:10385000529782FF17C01C966D917C911D976E0D3B
:103860007F1D9701A801C6010E94091B882369F0EA
:1038700000E010E020E030E0A70160E0C6010E9417
:10388000531B03C08E7FF601828BD6015096ED91BB
:10389000FC915197C60109951EC0E0918305F091F6
:1038A0008405808141E0811140E0B701601B710B0C
:1038B00080918105909182050E94E8150E94E81888
:1038C000811109C00E94DC1E06C00E94E81803C0D6
:1038D000898187FF0EC040E050E0BE016F5F7F4FDF
:1038E00080918105909182050E9456158111F0CF3B
:1038F00071CFEC80FD80F70182859385892B21F0C3
:10390000C70102960E94141E0E9432186C01809119
:103910007D0590917E05C816D90610F40E94921B71
:10392000D0927E05C0927D05E9810E2E000CFF0B22
:10393000EA30F10580F6EC5CFF4FD70152968C918E
:103940000C94EF1F8160F701828B2A813B81648593
:103950007585620F731FA601C7010E94091B88238A
:1039600009F4B9CFD7015096ED91FC915197C70159
:103970000995F701828982FFAECF4A815B818485F8
:103980009585480F591F00E010E020E030E060E02E
:10399000C7010E94531B9FCF8160F701828B6A8110
:1039A0007B81758764876C0D7D1D9601A601C7011B
:1039B0000E94091B90CF81FD04C0C7010E94981D81
:1039C0008ACF8E7FD70152968C9385CF0E94770441
:1039D0000E94FE1708950E94F30481EC9DE0892B5C
:1039E00011F00C94C10D0895259A2D9A2FEF80E7C0
:1039F00092E0215080409040E1F700C000001D9A05
:103A0000F5CF259A2D9A2FEF87EA91E62150804035
:103A10009040E1F700C000001D9AF5CF1F920F9271
:103A20000FB60F9211240F931F932F933F934F9331
:103A30005F936F937F938F939F93AF93BF932091E7
:103A4000840030918500B09B0BC081E086BB8091E3
:103A5000A6059091A70501969093A7058093A605CA
:103A60008091990590919A05019640919B055091FE
:103A70009C058417950798F110929A051092990564
:103A80008091A6059091A705A0E0B0E0DC01992700
:103A90008827820F931FA11DB11D4091A20550914F
:103AA000A3056091A4057091A5058C019D01041BDF
:103AB000150B260B370B00939E0510939F05209343
:103AC000A0053093A1058093A2059093A305A09330
:103AD000A405B093A50581E080939D0504C0909353
:103AE0009A0580939905BF91AF919F918F917F9196
:103AF0006F915F914F913F912F911F910F910F9077
:103B00000FBE0F901F9018950895CF93DF93EC018F
:103B10000E942C18CE010E940920EC010E94E81896
:103B2000209711F40E94F41CCE01DF91CF910895EB
:103B3000CF93DF93009751F0EC010E942C18CE0137
:103B40000E94A120DF91CF910C94E818DF91CF91D2
:103B50000895FC010396928381832FEF3FEF348316
:103B60002383968385839087878310820895FC0141
:103B7000118610860895CF93DF939C01FB01DC0131
:103B80001196CD91DC911297D383C2838C819D8154
:103B9000958384838C819D81DC0113967C936E9345
:103BA00012977D836C8331872087F90180818F5F35
:103BB0008083DF91CF9108950F931F93CF93DF936D
:103BC0008C01FB01808191818F3F2FEF920721F4BF
:103BD000E801AF81B8850EC0D801139612962D91D9
:103BE0003C911397E901488159818417950710F09A
:103BF000D901F4CF12968D919C9113979383828370
:103C0000EC01FD83EC83B583A4831396FC93EE93C0
:103C1000129711870087F80180818F5F8083DF9181
:103C2000CF911F910F910895CF93DF93FC01A08551
:103C3000B1858281938124813581EC013D832C8380
:103C4000C481D5819B838A8311968D919C91129713
:103C5000E817F90721F41296DC93CE931197118699
:103C600010868C9181508C938C91DF91CF91089527
:103C700031E1FC013083319722E220833197A3E3C5
:103C8000A083319760833197708331971082319789
:103C900060E8608331971082319762E060833197EA
:103CA00063E06083319764E06083319765E060830F
:103CB000319766E06083319767E06083319768E011
:103CC0006083319769E06083319760E16083319769
:103CD0003083319732E13083319733E1308331974C
:103CE00034E13083319735E13083319736E13083E9
:103CF000319737E13083319738E13083319739E1BB
:103D00003083319730E23083319731E2308331971D
:103D10002083319723E2208331974083319750836A
:103D2000319726E22083319727E22083319728E2DA
:103D30002083319729E22083319720E32083319734
:103D400021E3208386970895A89590EC88E10FB62B
:103D5000F894A895809360000FBE90936000A091A6
:103D60007B05B0917C05CD91CDBFDD91DEBFFF918C
:103D7000EF91DF91CF91BF91AF919F918F917F9103
:103D80006F915F914F913F912F911F910F91FF90F4
:103D9000EF90DF90CF90BF90AF909F908F907F90EB
:103DA0006F905F904F903F902F901F900F900FBE9D
:103DB0000F90089581E008950F920FB6F8940F9236
:103DC0001F9211242F923F924F925F926F927F9297
:103DD0008F929F92AF92BF92CF92DF92EF92FF921B
:103DE0000F931F932F933F934F935F936F937F9303
:103DF0008F939F93AF93BF93CF93DF93EF93FF93F3
:103E0000A0917B05B0917C050DB60D920EB60D927A
:103E10000E948F19A0917B05B0917C05CD91CDBFFB
:103E2000DD91DEBFFF91EF91DF91CF91BF91AF9117
:103E30009F918F917F916F915F914F913F912F91C2
:103E40001F910F91FF90EF90DF90CF90BF90AF90B8
:103E50009F908F907F906F905F904F903F902F90AA
:103E60001F900F900FBE0F9008950F920FB6F89409
:103E70000F921F9211242F923F924F925F926F9256
:103E80007F928F929F92AF92BF92CF92DF92EF92EA
:103E9000FF920F931F932F933F934F935F936F93D3
:103EA0007F938F939F93AF93BF93CF93DF93EF93C2
:103EB000FF93A0917B05B0917C050DB60D920EB6D7
:103EC0000D9213BE0E943C1881110E948F19A0917F
:103ED0007B05B0917C05CD91CDBFDD91DEBFFF911B
:103EE000EF91DF91CF91BF91AF919F918F917F9192
:103EF0006F915F914F913F912F911F910F91FF9083
:103F0000EF90DF90CF90BF90AF909F908F907F9079
:103F10006F905F904F903F902F901F900F900FBE2B
:103F20000F9008950E94351F18950E949D0C880BD4
:103F3000990B089597FB072E16F4009407D077FD90
:103F400009D00E94F51F07FC05D03EF4909581959D
:103F50009F4F0895709561957F4F0895A1E21A2EA5
:103F6000AA1BBB1BFD010DC0AA1FBB1FEE1FFF1F1D
:103F7000A217B307E407F50720F0A21BB30BE40B6D
:103F8000F50B661F771F881F991F1A9469F76095B4
:103F90007095809590959B01AC01BD01CF0108956E
:103FA000052E97FB1EF400940E94E71F57FD07D0D3
:103FB0000E94AE1F07FC03D04EF40C94E71F5095EF
:103FC0004095309521953F4F4F4F5F4F0895909505
:103FD0008095709561957F4F8F4F9F4F0895EE0F9D
:103FE000FF1F0590F491E02D0994AA1BBB1B51E122
:103FF00007C0AA1FBB1FA617B70710F0A61BB70B59
:10400000881F991F5A95A9F780959095BC01CD01FD
:1040100008950F931F93CF93DF938230910510F48F
:1040200082E090E0E091AA05F091AB0520E030E05D
:10403000A0E0B0E0309719F14081518102811381F5
:1040400048175907C8F08417950769F4109731F09D
:1040500012960C93129713961C9327C00093AA05EF
:104060001093AB0522C02115310519F042175307F3
:1040700018F49A01BD01EF01DF01F801DBCF211532
:104080003105F9F0281B390B2430310580F48A8181
:104090009B816115710521F0FB019383828304C02C
:1040A0009093AB058093AA05FE01329644C0FE01B1
:1040B000E20FF31F819391932250310939832883B2
:1040C0003AC02091A8053091A905232B41F42091F5
:1040D0000201309103013093A9052093A805209196
:1040E0000001309101012115310541F42DB73EB792
:1040F0004091040150910501241B350BE091A80566
:10410000F091A905E217F307A0F42E1B3F0B281727
:10411000390778F0AC014E5F5F4F2417350748F040
:104120004E0F5F1F5093A9054093A805819391936B
:1041300002C0E0E0F0E0CF01DF91CF911F910F913D
:104140000895CF93DF93009709F481C0FC01329763
:1041500013821282A091AA05B091AB05109781F449
:1041600020813181820F931F2091A8053091A905EC
:104170002817390751F5F093A905E093A80567C002
:10418000ED0120E030E0CE17DF0740F44A815B818B
:104190009E0141155105F1F0EA01F5CFD383C283A9
:1041A00040815181840F951FC817D90759F4888120
:1041B0009981840F951F0296918380838A819B81C8
:1041C000938382832115310529F4F093AB05E093A5
:1041D000AA053DC0E901FB83EA8349915991C40FC7
:1041E000D51FEC17FD0761F480819181840F951F25
:1041F0000296E90199838883828193819B838A83D4
:10420000E0E0F0E012968D919C911397009719F0E1
:10421000FD01DC01F7CF8D919C9111979D012E5FDF
:104220003F4F820F931F2091A8053091A9052817B1
:10423000390769F4309729F41092AB051092AA055A
:1042400002C013821282B093A905A093A805DF9142
:10425000CF910895FB01DC0102C001900D92415005
:104260005040D8F70895DC0101C06D934150504093
:10427000E0F70895F999FECF92BD81BDF89A99278C
:1042800080B50895262FF999FECF1FBA92BD81BD42
:1042900020BD0FB6F894FA9AF99A0FBE01960895C8
:1042A00010E0CEE7D0E004C0FE010E94EF1F21968F
:0A42B000C038D107C9F7F894FFCF1A
:1042BA000000AC0520006100000000FF000000FFC4
:1042CA00000000FF00000000000000A2430080C6BA
:1042DA0043E110E110015F6E65757472616C566F8F
:1042EA006C746167653A005F61636964566F6C74E8
:1042FA006167653A00454E54455250480045584951
:10430A005450480043414C5048004352432069737B
:10431A00206E6F742076616C696421004465766949
:10432A006365206973206E6F7420612044533138AD
:10433A007832302066616D696C79206465766963CC
:10434A00652E00633A2000726561645F696E3A20E7
:10435A00005247420020666F756E64456D7074792D
:10436A00426F78200020666F756E64456D707479AF
:10437A00426F784F72546573745374726970200077
:10438A00700A000A70482056616C75653A00740A12
:10439A00005374617274696E672073657475700076
:1043AA005048616E6454656D7065726174757265AA
:1043BA0000496E736964652073657475700063687B
:1043CA0065636B696E6720636F6C6F7200696E73E9
:1043DA00696465206361736520636F6C6F7200693D
:1043EA006E736964652063617365207072696E74A7
:1043FA000070683A0074656D703A00616D6D6F6E99
:10440A0069613A006E6974726974653A006E69741A
:10441A00726174653A004E65757472616C20566FEC
:10442A006C746167653A000A4163696420566F6C6F
:10443A00746167653A000A566F6C74616765204D4E
:10444A00656173757265643A0000000000FA08FE3F
:10445A000ED6084A096309D9084B0900000000F181
:10446A000DFE0EB20D3E0E840D9E0D900D0D0A002E
:10447A006E616E00696E66006F76660049444C454F
:0A448A0000546D72205376630000A9
:00000001FF
