S01E00006C696C5F666973685F74616E6B735F61726475696E6F2E73726563EB
S11300000C9489000C9492100C94B9100C94B100C7
S11300100C94B1000C94B1000C94ED210C9490223A
S11300200C94B1000C94B1000C94B1000C94B10088
S11300300C94B1000C94B1000C94B1000C94B10078
S11300400C94E0100C94B1000C94C70D0C94F90DB1
S11300500C94B1000C94B1000C94B1000C94B10058
S11300600C94B1000C94B100F81DF81DF81D371E56
S1130070221E311EF81DF81D371E221E0A466F75FA
S11300806E64204D61746368696E6720436F6C6FA2
S11300907200005EBCE2613FDD83C29C7E20A3FD52
S11300A01F41009D23BE46DB65F88C11AF32CA5751
S11300B0E9740000000800020100000304070000C6
S11300C0000000000000010204081020408001022A
S11300D00408102001020408102004040404040489
S11300E004040202020202020303030303030000E6
S11300F0000023002600290000000000250028003D
S11301002B0000000000240027002A005608290EB6
S1130110660811241FBECFEFD8E0DEBFCDBF12E0CA
S1130120A0E0B1E0E0EDF9E402C005900D92A03446
S1130130B107D9F724E0A0E4B2E001C01D92A13CCC
S1130140B207E1F710E0C8E8D0E004C02197FE014F
S11301500E946023C638D107C9F70E94560E0C943A
S1130160DB240C9400000C94C524FC0180E090E096
S1130170A8ECB1E4808B918BA28BB38B80E090E0F0
S1130180A0EEB0E480839183A283B38384E19EE0F4
S1130190AEEFB4E484839583A683B78380E090E8CC
S11301A0ABEBB4E480879187A287B3878487958774
S11301B0A687B78708950895CF92DF92EF92FF92B2
S11301C00F931F93CF93DF93EC017C0188E0E80E3B
S11301D0F11C670100E010E0C8010E94B300F601C1
S11301E081936F010F5F1F4F04301105A9F765E379
S11301F071E080E893E00E94B30E488559856A85D2
S11302007B8522E030E080E893E00E945F1080E08C
S113021090E00E94B3008F3F39F581E090E00E94A6
S1130220B3008F3F09F582E090E00E94B3008F3F56
S1130230D9F483E090E00E94B3008F3FA9F480E0FA
S113024090E8ABEBB4E488879987AA87BB8700E082
S113025010E0F70161917F01C8010E94CD240F5F76
S11302601F4F04301105A9F77E01F4E0EF0EF11CD5
S1130270670104E010E0C8010E94B300F601819315
S11302806F010F5F1F4F08301105A9F766E471E095
S113029080E893E00E94B30E4C815D816E817F8182
S11302A022E030E080E893E00E945F1084E090E078
S11302B00E94B3008F3F31F585E090E00E94B300C7
S11302C08F3F01F586E090E00E94B3008F3FD1F4A8
S11302D087E090E00E94B3008F3FA1F484E19EE0A8
S11302E0AEEFB4E48C839D83AE83BF83C4E0D0E0DF
S11302F0F70161917F01CE010E94CD242196C8307F
S1130300D105B1F7DF91CF911F910F91FF90EF903D
S1130310DF90CF9008954F925F926F927F928F9269
S11303209F92AF92BF92CF92DF92EF92FF92CF93C0
S1130330DF93EC012A013B0120E030E84BEB54E46D
S1130340688579858A859B850E94480A4B015C01F2
S113035020E030E040E450E40E94BA0A6B017C01E2
S113036020E030E84BEB54E46C817D818E819F81E9
S11303700E94480A20E030E040E450E40E94BA0AB7
S11303809B01AC01C701B6010E94480A9B01AC0164
S113039060E070E080E490E40E94BA0A6B017C01A2
S11303A09B01AC01C501B4010E94190C20E030E0AE
S11303B040E450E40E94BA0A9B01AC0160E070E0A2
S11303C080EE90E40E94480A4B015C0120E030E892
S11303D04BEB54E4C301B2010E94480AA701960101
S11303E00E94190C20E030E040E450E40E94BA0A74
S11303F09B01AC01C501B4010E94490A6883798359
S11304008A839B83DF91CF91FF90EF90DF90CF9011
S1130410BF90AF909F908F907F906F905F904F9020
S1130420089580914602909147020C94E417611557
S1130430710579F0FB0101900020E9F73197AF01D4
S1130440461B570BDC01ED91FC910280F381E02DFA
S1130450099480E090E00895DC01ED91FC91019015
S1130460F081E02D642F0994CF92DF92FF920F93D5
S11304701F93CF93DF93CDB7DEB764970FB6F8948D
S1130480DEBF0FBECDBF82E793E00E947A096AEF18
S113049070E080E090E00E944F1141E0BE01635F94
S11304A07F4F82E793E00E94A90967E0CE010D9691
S11304B00E94300A9C89891719F069E671E009C025
S11304C08D85823291F0883281F0803159F06BE76A
S11304D071E080E893E00E94C00E60E070E080E884
S11304E09FEB6AC0FF24F39401C0F12C82E793E0F0
S11304F00E946E08BE01635F7F4F82E793E00E9413
S11305005B0941E064E482E793E00E940B0968EE32
S113051073E080E090E00E944F1182E793E00E9434
S11305206E08BE01635F7F4F82E793E00E945B0920
S113053040E06EEB82E793E00E940B098E010F5FAF
S11305401F4F6E018AE0C80ED11C82E793E00E941F
S11305503F09F80181938F01EC15FD05B1F769811D
S11305607A81FF2089F083E0660F771F8A95E1F78F
S113057088858031A9F42F818CE090E0821B910959
S1130580607F680F791F0CC08D81807611F4687FBD
S113059007C0803211F46C7F03C0803409F46E7F8D
S11305A0072E000C880B990B0E94640B20E030E0AE
S11305B040E85DE30E94190C64960FB6F894DEBF20
S11305C00FBECDBFDF91CF911F910F91FF90DF90B0
S11305D0CF9008950F931F93CF93DF93CFE3D3E08E
S11305E0188219821A821B821D821C821F821E821B
S11305F019861886A9EFB2E01D921D921D921C92D5
S1130600139715961C921E92149717961C921E927D
S1130610169719961C921E921897E3EBF2E010823B
S11306201182128213821582148217821682118615
S1130630108640E050E060E87EE34A875B876C8781
S11306407D871F861E86198A188A1B8A1A8A4AE998
S113065059E969E17EE31A964D935D936D937C931A
S11306601D971F961C921E921E9751961C921E92C5
S1130670509753961C921E92529740E050E060E0CF
S11306807FE3428753876487758717861686118AA6
S1130690108A138A128A4C8B5D8B6E8B7F8B198E1A
S11306A0188E1B8E1A8E1D8E1C8E4AE959E969E933
S11306B07EE354964D935D936D937C93579759962F
S11306C01C921E9258975B961C921E925A975D96A6
S11306D01C921E925C9740E050E060E070E4448B12
S11306E0558B668B778B118E108E138E128E158E12
S11306F0148E00E010E020E430E40E8F1F8F28A356
S113070039A31BA21AA21DA21CA21FA21EA240E072
S113071050E060E87FE35E964D935D936D937C9328
S1130720919793961C921E92929795961C921E9264
S1130730949797961C921E92969740E050E060EA38
S113074070E4468F578F60A371A313A212A215A25F
S113075014A217A216A240E050E060EC70E448A78F
S113076059A76AA77BA71DA61CA61FA61EA619AA81
S113077018AA40E050E060EC7FE398964D935D93B7
S11307806D937C939B979D961C921E929C979F962B
S11307901C921E929E97D1961C921E92D09740E076
S11307A050E060E271E440A751A762A773A715A6C1
S11307B014A617A616A611AA10AAD2960D931D93D5
S11307C02D933C93D597D7961C921E92D697D99683
S11307D01C921E92D897DB961C921E92DA9700E028
S11307E010E020EA31E402AB13AB24AB35AB17AA1B
S11307F016AA11AE10AE13AE12AEDC964D935D93F5
S11308006D937C93DF9710923A0310923903109200
S11308103C0310923B0310923E0310923D0380E090
S113082090E0A8E4B2E484AF95AFA6AFB7AF10925E
S1130830F4021092F3021092F6021092F502109252
S1130840F8021092F702DF91CF911F910F91089552
S11308501F93CF93DF931091B002D091B102C09156
S1130860B20262EA71E080E893E00E94B30E609104
S1130870AA027091AB024AE050E080E893E00E9443
S11308807D0F64EA71E080E893E00E94B30E60910A
S1130890AC027091AD024AE050E080E893E00E941F
S11308A07D0F64EA71E080E893E00E94B30E6091EA
S11308B0AE027091AF024AE050E080E893E00E94FB
S11308C07D0F66EA71E080E893E00E94B30E4AE08F
S11308D050E0612F80E893E00E94280F64EA71E001
S11308E080E893E00E94B30E4AE050E06D2F80E868
S11308F093E00E94280F64EA71E080E893E00E948C
S1130900B30E4AE050E06C2F80E893E00E94280F79
S1130910612F70E08091AA029091AB029C01245156
S113092031096217730764F144968617970744F1F7
S11309306D2F70E08091AC029091AD029C01245126
S1130940310962177307E4F0449686179707C4F0D9
S11309506C2F70E08091AE029091AF029C01245103
S113096031096217730764F044968617970744F0B9
S11309706CE770E080E893E00E948F0E81E001C094
S113098080E0DF91CF911F9108950F931F93CF9330
S1130990DF9380917103813009F448C040F08230C4
S11309A009F06EC009EF12E0C6E0D0E029C00FE301
S11309B013E0C4E0D0E08AE0F801B896A6EAB2E019
S11309C001900D928A95E1F70E942804882349F04A
S11309D08AE08C9FF0018D9FF00D1124E15CFC4FA7
S11309E03EC021970A501109CF3F8FEFD80719F75E
S11309F042C021970A501109CF3F8FEFD807D9F190
S1130A008AE0F801FC96A6EAB2E001900D928A957C
S1130A10E1F70E942804882361F38AE08C9FF001A7
S1130A208D9FF00D1124E750FD4F19C003EB12E028
S1130A30C6E0D0E08AE0F801FC96A6EAB2E00190B4
S1130A400D928A95E1F70E942804882369F08AE0D0
S1130A508C9FF0018D9FF00D1124ED54FD4F3081DA
S1130A602181928183810BC021970A501109CF3FC4
S1130A708FEFD807F9F630E020E090E88FEBAC0177
S1130A80632F722F852F942FDF91CF911F910F9198
S1130A90089587E792E00E94C71F87E792E00E94CB
S1130AA0D11F8823D1F360EB72E087E792E00E94C4
S1130AB0FD1E0E94C5040E942C0B0895CF9387E766
S1130AC092E00E94C71F87E792E00E94D11F88230B
S1130AD0D1F360EB72E087E792E00E94FD1E8AE0AA
S1130AE0E6E2F1E0A6EAB2E001900D928A95E1F720
S1130AF00E942804C82F8AE0ECE1F1E0A6EAB2E003
S1130B0001900D928A95E1F7C11103C00E94280457
S1130B10C82F6C2F70E04AE050E080E893E00E9418
S1130B207D0F62E272E080E893E00E94B30E8C2FA6
S1130B30CF910895CF93DF9300D000D000D0CDB7EC
S1130B40DEB749835A836B837C838D839E8369815B
S1130B507A8182E00E94EE116B817C8183E00E94A5
S1130B60EE116D817E8184E026960FB6F894DEBF87
S1130B700FBECDBFDF91CF910C94EE110E9461188E
S1130B8061E08DE00E94761261E070E0809148029D
S1130B90909149020E945515813009F069C061E0C5
S1130BA089E00E94B21240910A0150910B016091B8
S1130BB00C0170910D0180910E0190910F010E9422
S1130BC09A050E945E058111FCCF4091100150915D
S1130BD0110160911201709113018091140190919F
S1130BE015010E949A056AEF70E080E090E00E948F
S1130BF04F11109271030E9449056B017C0160EB57
S1130C0071E080E893E00E9417026CEB71E080E8E9
S1130C1093E00E94170260EB71E080E893E00E9489
S1130C201702B701A60180E893E00E942C024091CC
S1130C3071025091720260917302709174028091FA
S1130C407502909176020E949A0560E089E00E9404
S1130C50B21220E040E050E060E070E08091480291
S1130C60909149020E94FE1380E090E00E94311AA4
S1130C7081E090E00E94BE1987CF0E94611861E074
S1130C808DE00E947612C1E0D2E061E070E08091D4
S1130C904802909149020E945515813009F091C093
S1130CA00E945E058823E1F34091100150911101E7
S1130CB060911201709113018091140190911501BA
S1130CC00E949A056AEF70E080E090E00E944F1164
S1130CD0C09371030E9449056B017C0160EB71E0D4
S1130CE080E893E00E94170264EC71E080E893E0EE
S1130CF00E94170260EB71E080E893E00E94170203
S1130D00B701A60180E893E00E942C024091710291
S1130D105091720260917302709174028091750215
S1130D20909176020E949A050E945E058823E1F361
S1130D3040910A0150910B0160910C0170910D01D9
S1130D4080910E0190910F010E949A05D093710336
S1130D500E9449056B017C0160EB71E080E893E03F
S1130D600E9417026CEC71E080E893E00E94170285
S1130D7060EB71E080E893E00E941702B701A601DE
S1130D8080E893E00E942C0240917102509172021B
S1130D906091730270917402809175029091760251
S1130DA00E949A0520E040E050E060E070E080910D
S1130DB04802909149020E94FE1380E090E00E9454
S1130DC0311A81E090E00E94BE195FCFCF93DF9388
S1130DD000D0CDB7DEB70E9461189A838983409111
S1130DE00A0150910B0160910C0170910D018091E9
S1130DF00E0190910F010E949A050E9434026B012A
S1130E007C0160EB71E080E893E00E94170264EDDE
S1130E1071E080E893E00E94170260EB71E080E8E3
S1130E2093E00E941702C701B6010E942C0BAB018C
S1130E30BC0180E893E00E942C0240917102509121
S1130E4072026091730270917402809175029091A4
S1130E5076020E949A0564ED71E0CE0101960E942B
S1130E608619BDCF61E082E00E94761261E083E0E2
S1130E700E94761261E084E00E9476124091710231
S1130E8050917202609173027091740280917502A4
S1130E90909176020C949A058AE492E00C94DC001A
S1130EA00F931F938FE00E94D111BC01990F880BFF
S1130EB0990B0E94640B20E030E040E85AE30E9462
S1130EC0190C20E030E44CE955E40E94190CAB0104
S1130ED0BC0140936D0250936E0260936F02709355
S1130EE070020091060110910701209108013091D0
S1130EF009018AE492E00E948B0160936902709375
S1130F006A0280936B0290936C021F910F91089573
S1130F10CF93DF9300D0CDB7DEB70E9461189A83D8
S1130F2089834091160150911701609118017091C5
S1130F30190180911A0190911B010E949A0561E0A8
S1130F4089E00E94B21264EF71E080E090E00E94B8
S1130F504F110E9450076B017C0160EB71E080E847
S1130F6093E00E94170269ED71E080E893E00E942B
S1130F70170260EB71E080E893E00E941702C7015A
S1130F80B6010E942C0BAB01BC0180E893E00E94E7
S1130F902C0240917102509172026091730270911F
S1130FA0740280917502909176020E949A0560E025
S1130FB089E00E94B2126AEF70E0CE0101960E94AD
S1130FC08619AFCFEF92FF920F9326E040E052ECE8
S1130FD061E070E080E893E00E94620D6CED71E0E6
S1130FE080E893E00E9417026FED71E080E893E0DF
S1130FF00E9417020E94EA020E9432070E944C07D4
S113100060E080E00E94B21243E050E061E172E0EF
S113101080E00E94721086E4E82E82E0F82E02E05E
S113102020E030E040E850E06BEE71E08EEB95E0BC
S11310300E94D81694E4E92E92E0F92E20E030E0E4
S113104040E850E063EF71E08DE396E00E94D8162B
S113105022E4E22E22E0F22E20E030E040E850E0EC
S113106069ED71E088E897E00E94D81630E4E32E39
S113107032E0F32E20E030E040E850E063E072E03C
S113108086EE96E00E94D81680914602909147021F
S11310900E94311A80914402909145020E94311AB3
S11310A00F91FF90EF900C942D18089567E082E75C
S11310B093E00E94860928E04DE06CE087E792E027
S11310C00E948B1E8AE492E00C94B5008AE492E0BC
S11310D00E94DB0087E792E00C949F1EFF920F931F
S11310E01F93CF93DF93FC01F080C181D281F894E8
S11310F089810F2D00958023898378941DE71150F1
S113110029F182E090E00E948B1188818F21B9F34C
S1131110F8948A8180238A8389818F2989837894AA
S113112080EE91E00E948B11F89489810823098351
S113113086E490E00E948B118881F82211E009F086
S113114010E078948AE991E00E948B11812FDF915D
S1131150CF911F910F91FF9008951F93CF93DF9329
S1131160FC011081C181D281812F809560FF12C062
S1131170F8949A8189238A838981812B89838AE0DF
S113118090E00E948B118A81182B1A83789487E34C
S113119090E011C0F8949A8189238A838981812BF4
S11311A0898381E490E00E948B118A81182B1A8331
S11311B0789485E090E0DF91CF911F910C948B118E
S11311C00F931F93CF93DF93FC010081C181D281E0
S11311D0F8948981802B89838A81102F109581232B
S11311E08A8383E090E00E948B11898118231983FC
S11311F08AE090E00E948B11C881789485E390E0A6
S11312000E948B11C02381E009F480E0DF91CF912B
S11312101F910F910895DF92EF92FF920F931F9306
S1131220CF93DF93EC01D62EE42E08E010E0FF24E8
S1131230F39461E08D2D8F2109F460E0CE010E94CA
S1131240AD08FF0C01501109A1F7E11010C0F8948A
S1131250E981FA8191818881809589238183E9815B
S1131260FA81928188818095892382837894DF91A1
S1131270CF911F910F91FF90EF90DF900895EF921F
S1131280FF920F931F93CF93DF937C0108E010E04C
S1131290C0E0D1E0C7010E94E0088111CD2BDD0F31
S11312A001501109B9F78C2FDF91CF911F910F9144
S11312B0FF90EF900895EF92FF920F931F93CF93B7
S11312C0DF938C017B0140E065E50E940B09E70197
S11312D088E0E80EF11C699140E0C8010E940B0906
S11312E0CE15DF05C1F7DF91CF911F910F91FF90CC
S11312F0EF900895FC01138615861486DC011B9675
S113130033961E92AE17BF07E1F708951F93CF934C
S1131310DF93EC01162F60E0812F0E947612612F7B
S113132070E0FB01EA53FF4FE491E883FB01E652CE
S1131330FF4FE491F0E0EE0FFF1FE251FF4F859164
S113134094919A838983CE01DF91CF911F910C945C
S11313507A09BF92CF92DF92EF92FF920F931F937D
S1131360CF93DF93EC016B01142F8D85811105C0A0
S1131370CE010E946E08811105C01B861D861C8645
S113138080E064C040E0112311F060EF01C06CEE16
S1131390CE010E940B0901E0E12CB12C11E0CE0139
S11313A00E94E008F82ECE010E94E00891E0F912B4
S11313B003C08130B1F434C02E2D30E0F8121BC0CC
S11313C08B85181738F4FE01E20FF31F8381802305
S11313D041F402C0181729F0F12C193058F41C8775
S11313E009C0FE01EE0DF11D8381802B8383FF2450
S11313F0F39409C0B12EFE01E20FF31F9381802FF5
S11314008095892383836F2DCE010E94AD081F5FD1
S1131410000F11F4E39401E087E08E1508F0BFCFCC
S1131420113408F4AACFBB86B11002C081E08D87C5
S11314308B81882309F4A1CFDE011396F6012B9644
S11314408D918193CA17DB07D9F781E0DF91CF91A2
S11314501F910F91FF90EF90DF90CF90BF90089570
S1131460DC0180E0615098F02D91982F9227E92FAC
S1131470EF70F0E0EE56FF4F249192959F70E92FA4
S1131480F0E0EE55FF4FE491822F8E27EBCF0895C5
S11314905058BB27AA270E94600A0C94DA0B0E94BA
S11314A0CC0B38F00E94D30B20F039F49F3F19F491
S11314B026F40C94C90B0EF4E095E7FB0C94C30BD3
S11314C0E92F0E94EB0B58F3BA17620773078407DE
S11314D0950720F079F4A6F50C940D0C0EF4E09524
S11314E00B2EBA2FA02D0B01B90190010C01CA01DA
S11314F0A0011124FF27591B99F0593F50F4503E85
S113150068F11A16F040A22F232F342F4427585F76
S1131510F3CF469537952795A795F0405395C9F78E
S11315207EF41F16BA0B620B730B840BBAF0915046
S1131530A1F0FF0FBB1F661F771F881FC2F70EC0E5
S1131540BA0F621F731F841F48F4879577956795B8
S1131550B795F7959E3F08F0B0CF9395880F08F0A4
S11315609927EE0F9795879508950E949F0B08F48D
S113157081E008950E94CE0A0C94DA0B0E94D30BEA
S113158058F00E94CC0B40F029F45F3F29F00C94F2
S1131590C30B51110C940E0C0C94C90B0E94EB0B51
S11315A068F39923B1F3552391F3951B550BBB278E
S11315B0AA2762177307840738F09F5F5F4F220FD3
S11315C0331F441FAA1FA9F335D00E2E3AF0E0E8CA
S11315D032D091505040E695001CCAF72BD0FE2F14
S11315E029D0660F771F881FBB1F261737074807A8
S11315F0AB07B0E809F0BB0B802DBF01FF27935860
S11316005F4F3AF09E3F510578F00C94C30B0C9455
S11316100E0C5F3FE4F3983ED4F386957795679577
S1131620B795F7959F5FC9F7880F911D9695879594
S113163097F90895E1E0660F771F881FBB1F6217B3
S113164073078407BA0720F0621B730B840BBA0B71
S1131650EE1F88F7E09508950E94330B6894B1114A
S11316600C940E0C08950E94F30B88F09F5798F089
S1131670B92F9927B751B0F0E1F0660F771F881F93
S1131680991F1AF0BA95C9F714C0B13091F00E94AD
S11316900D0CB1E008950C940D0C672F782F88275A
S11316A0B85F39F0B93FCCF3869577956795B395D4
S11316B0D9F73EF490958095709561957F4F8F4F43
S11316C09F4F0895E89409C097FB3EF49095809548
S11316D0709561957F4F8F4F9F4F9923A9F0F92FF4
S11316E096E9BB279395F695879577956795B79572
S11316F0F111F8CFFAF4BB0F11F460FF1BC06F5F58
S11317007F4F8F4F9F4F16C0882311F096E911C069
S1131710772321F09EE8872F762F05C0662371F08A
S113172096E8862F70E060E02AF09A95660F771F9E
S1131730881FDAF7880F9695879597F90895990F7A
S11317400008550FAA0BE0E8FEEF16161706E80787
S1131750F907C0F012161306E407F50798F0621BA8
S1131760730B840B950B39F40A2661F0232B242B7D
S1131770252B21F408950A2609F4A140A6958FEF9C
S1131780811D811D089597F99F6780E870E060E0EE
S113179008959FEF80EC089500240A941616170606
S11317A018060906089500240A941216130614064E
S11317B005060895092E0394000C11F4882352F0B1
S11317C0BB0F40F4BF2B11F460FF04C06F5F7F4F69
S11317D08F4F9F4F089557FD9058440F551F59F050
S11317E05F3F71F04795880F97FB991F61F09F3F0A
S11317F079F087950895121613061406551FF2CF33
S11318004695F1DF08C0161617061806991FF1CF82
S113181086957105610508940895E894BB276627A9
S11318207727CB0197F908950E949F0B08F48FEF57
S113183008950E942C0C0C94DA0B0E94CC0B38F007
S11318400E94D30B20F0952311F00C94C30B0C943D
S1131850C90B11240C940E0C0E94EB0B70F3959F92
S1131860C1F3950F50E0551F629FF001729FBB2793
S1131870F00DB11D639FAA27F00DB11DAA1F649F2F
S11318806627B00DA11D661F829F2227B00DA11DE2
S1131890621F739FB00DA11D621F839FA00D611D68
S11318A0221F749F3327A00D611D231F849F600D89
S11318B0211D822F762F6A2F11249F5750409AF0B2
S11318C0F1F088234AF0EE0FFF1FBB1F661F771F3E
S11318D0881F91505040A9F79E3F510580F00C9409
S11318E0C30B0C940E0C5F3FE4F3983ED4F386953F
S11318F077956795B795F795E7959F5FC1F7FE2BA9
S1131900880F911D9695879597F90895FC01918DFF
S1131910228D892F90E0805C9F4F821B91098F73E9
S113192099270895FC01918D828D981731F0828D4D
S1131930E80FF11D858D90E008958FEF9FEF0895D6
S1131940FC01918D828D981761F0828DDF01A80FC3
S1131950B11D5D968C91928D9F5F9F73928F90E0E5
S113196008958FEF9FEF0895FC01538D448D252F2B
S113197030E0842F90E0821B930B541710F0CF9625
S11319800895019708958FE19EE0892B49F080E046
S113199090E0892B29F00E941F0E81110C94000005
S11319A00895FC01848DDF01A80FB11DA35ABF4F18
S11319B02C91848D90E001968F739927848FA6894A
S11319C0B7892C93A089B1898C91837080648C939E
S11319D0938D848D981306C00288F389E02D80814D
S11319E08F7D80830895EF92FF920F931F93CF937F
S11319F0DF93EC0181E0888F9B8D8C8D981305C05B
S1131A00E889F989808185FD26C0F62E0B8D10E0CA
S1131A100F5F1F4F0F731127E02E8C8DE8120CC03F
S1131A200FB607FCFACFE889F989808185FFF5CFE5
S1131A30CE010E94D10CF1CF8B8DFE01E80FF11D78
S1131A40E35AFF4FF0829FB7F8940B8FEA89FB8922
S1131A50808180620AC09FB7F894EE89FF89608311
S1131A60E889F98980818370806480839FBF81E0E5
S1131A7090E0DF91CF911F910F91FF90EF90089527
S1131A80CF93DF93EC01888D8823C9F0EA89FB8921
S1131A90808185FD05C0A889B9898C9186FD0FC018
S1131AA00FB607FCF5CF808185FFF2CFA889B989ED
S1131AB08C9185FFEDCFCE010E94D10CE7CFDF9151
S1131AC0CF910895CF92DF92EF92FF921F93CF931D
S1131AD0DF93EC016A017B01122FE889F98982E026
S1131AE080834115514E61057105B1F060E079E0E4
S1131AF08DE390E0A70196010E941F23DA01C9013A
S1131B000197A109B109B695A795979587959C0169
S1131B10211580E13807A8F0E889F989108260E886
S1131B2074E88EE190E0A70196010E941F23DA0178
S1131B30C9010197A109B109B695A795979587950C
S1131B409C01EC85FD853083EE85FF852083188E0E
S1131B50EC89FD891083EA89FB8980818061808317
S1131B60EA89FB89808188608083EA89FB89808196
S1131B7080688083EA89FB8980818F7D8083DF91FF
S1131B80CF911F91FF90EF90DF90CF9008951F9217
S1131B900F920FB60F9211242F938F939F93EF936D
S1131BA0FF93E0919003F09191038081E09196037B
S1131BB0F091970382FD12C09081809199038F5F09
S1131BC08F7320919A03821751F0E0919903F0E00A
S1131BD0E058FC4F958F8093990301C08081FF9159
S1131BE0EF919F918F912F910F900FBE0F901F90A7
S1131BF018951F920F920FB60F9211242F933F93B3
S1131C004F935F936F937F938F939F93AF93BF9300
S1131C10EF93FF9380E893E00E94D10CFF91EF9142
S1131C20BF91AF919F918F917F916F915F914F91F0
S1131C303F912F910F900FBE0F901F90189580E841
S1131C4093E00E94860C21E0892B09F420E0822F86
S1131C500895E0E8F3E01382128288EE93E0A0E0B6
S1131C60B0E084839583A683B78383E192E0918374
S1131C70808385EC90E09587848784EC90E0978757
S1131C80868780EC90E0918B808B81EC90E0938B45
S1131C90828B82EC90E0958B848B86EC90E0978B22
S1131CA0868B118E128E138E148E08950E949611B7
S1131CB00E943C1E0E94E207C3ECDCE00E9455082F
S1131CC02097E1F30E94C30CF9CFCF92DF92EF92F9
S1131CD0FF920F931F93CF93DF936C017A018B01D3
S1131CE0C0E0D0E0CE15DF0581F0D8016D918D0103
S1131CF0D601ED91FC910190F081E02DC60109958A
S1131D00892B11F02196EECF7E01C701DF91CF918F
S1131D101F910F91FF90EF90DF90CF900895EF9275
S1131D20FF920F931F93CF93DF938C017B01C0E04D
S1131D30D0E0F701EC0FFD1F6491662361F0D80138
S1131D40ED91FC910190F081E02DC8010995892B5A
S1131D5011F02196EECFCE01DF91CF911F910F911B
S1131D60FF90EF9008950C941702DC01ED91FC9123
S1131D700190F081E02D099461E272E00C94170265
S1131D800F931F93CF93DF93EC010E9417028C01F2
S1131D90CE010E94BC0E800F911FDF91CF911F9145
S1131DA00F9108958F929F92AF92BF92EF92FF92FC
S1131DB00F931F93CF93DF93CDB7DEB7A1970FB6E1
S1131DC0F894DEBF0FBECDBF7C01FA01CB0119A28E
S1131DD0223008F42AE08E010F5D1F4F822E912CD1
S1131DE0A12CB12CBF01A50194010E941F23F9016C
S1131DF0CA01015011096A3010F4605D01C0695CC8
S1131E00D8016C93232B242B252B61F7B801C70130
S1131E100E941702A1960FB6F894DEBF0FBECDBF85
S1131E20DF91CF911F910F91FF90EF90BF90AF90F2
S1131E309F908F9008952115310541F4DC01ED91B7
S1131E40FC910190F081E02D642F09940C94D20E42
S1131E509A01462F50E060E070E00C941B0F9A0149
S1131E60AB0160E070E00C941B0FCF92DF92EF9215
S1131E70FF920F931F93CF93DF932115310581F4C4
S1131E80DC01ED91FC910190F081E02D642FDF9154
S1131E90CF911F910F91FF90EF90DF90CF90099415
S1131EA02A30310501F577FF1DC06A017B01EC0181
S1131EB06DE20E94B50E8C0144275527BA014C19D6
S1131EC05D096E097F092AE0CE010E94D20E800FBF
S1131ED0911FDF91CF911F910F91FF90EF90DF90B1
S1131EE0CF9008952AE0DF91CF911F910F91FF9039
S1131EF0EF90DF90CF900C94D20E9A01AB01770F44
S1131F00660B770B0C94350F7F928F929F92AF9252
S1131F10BF92CF92DF92EF92FF920F931F93CF93D2
S1131F20DF938C016A017B01722E9A01AB01C70118
S1131F30B6010E940623882319F064E272E027C0E8
S1131F4046015701E894B7F82FEF3FEF4FE75FE7FB
S1131F50C501B4010E94062381110DC02FEF3FEF8C
S1131F604FE75FE7C501B4010E94B50A18161CF4D7
S1131F7068E272E00CC02FEF3FEF4FE75FE4C70168
S1131F80B6010E94140C181694F46CE272E0C801B5
S1131F90DF91CF911F910F91FF90EF90DF90CF9041
S1131FA0BF90AF909F908F907F900C9417022FEF6B
S1131FB03FEF4FE75FECC701B6010E94B50A87FD0A
S1131FC0E4CF20E030E0A901C701B6010E94B50AC0
S1131FD087FF0AC06DE2C8010E94B50EEC01F7FA52
S1131FE0F094F7F8F09402C0C0E0D0E0B12C60E0C7
S1131FF070E080E09FE37B1441F020E030E040E2B9
S113200051E40E94BA0AB394F6CFA70196010E9444
S1132010490A6B017C010E94330B4B015C012AE0ED
S1132020AB01BC01C8010E94D20EC80FD91F772092
S1132030B9F1C501B4010E94620B9B01AC01C70157
S1132040B6010E94480A6B017C016EE2C8010E943D
S1132050B50EC80FD91F20E030E040E251E4C701BB
S1132060B6010E94190C4B015C010E94330B6B01F9
S11320707C014AE050E0C8010E942F0FC80FD91F0D
S1132080B60180E090E00E94620B9B01AC01C501A7
S1132090B4010E94480A6B017C017A947110DBCF71
S11320A0CE01DF91CF911F910F91FF90EF90DF90C0
S11320B0CF90BF90AF909F908F907F9008950F9393
S11320C01F93CF93DF93EC010E94840F8C01CE0108
S11320D00E94BC0E800F911FDF91CF911F910F9131
S11320E0089508958230E8F4E82FF0E0EE0FFF1F22
S11320F0E05DFE4F71836083813041F0809169001F
S11321008C7F482B40936900E89A08958091690078
S1132110837F440F551F440F551F482B409369007C
S1132120E99A08951F920F920FB60F9211242F93DC
S11321303F934F935F936F937F938F939F93AF934B
S1132140BF93EF93FF93E0913001F0913101099532
S1132150FF91EF91BF91AF919F918F917F916F917B
S11321605F914F913F912F910F900FBE0F901F9051
S113217018951F920F920FB60F9211242F933F932D
S11321804F935F936F937F938F939F93AF93BF937B
S1132190EF93FF93E0913201F09133010995FF91A0
S11321A0EF91BF91AF919F918F917F916F915F91CB
S11321B04F913F912F910F900FBE0F901F90189544
S11321C01F920F920FB60F9211242F933F938F9368
S11321D09F93AF93BF9380911E0490911F04A0918D
S11321E02004B091210430911D0423E0230F2D37E6
S11321F020F40196A11DB11D05C026E8230F029607
S1132200A11DB11D20931D0480931E0490931F04EF
S1132210A0932004B093210480912204909123047C
S1132220A0912404B09125040196A11DB11D8093B1
S1132230220490932304A0932404B0932504BF9113
S1132240AF919F918F913F912F910F900FBE0F905F
S11322501F9018953FB7F89480912204909123041D
S1132260A0912404B091250426B5A89B05C02F3F56
S113227019F00196A11DB11D3FBFBA2FA92F982FA8
S11322808827820F911DA11DB11DBC01CD0142E023
S1132290660F771F881F991F4A95D1F708958F926B
S11322A09F92AF92BF92CF92DF92EF92FF926B0117
S11322B07C010E942A114B015C01C114D104E10488
S11322C0F10401F10E94DF1F0E942A11DC01CB01FD
S11322D088199909AA09BB09883E9340A105B1054B
S11322E060F321E0C21AD108E108F10888EE880EF3
S11322F083E0981EA11CB11CC114D104E104F104B3
S113230019F7DBCFFF90EF90DF90CF90BF90AF90A5
S11323109F908F9008958230910538F0880F991F0F
S1132320880F991F05970197F1F70895789484B55C
S1132330826084BD84B5816084BD85B5826085BDBD
S113234085B5816085BDEEE6F0E0808181608083A3
S1132350E1E8F0E010828081826080838081816086
S11323608083E0E8F0E0808181608083E1EBF0E04D
S1132370808184608083E0EBF0E0808181608083F1
S1132380EAE7F0E0808184608083808182608083DA
S11323908081816080838081806880831092C10005
S11323A008958E3008F08E502091340190E4299FD6
S11323B0900111248770822B80937C0080917A0095
S11323C0806480937A0080917A0086FDFCCF8091AE
S11323D078002091790090E0922B08951F93CF9379
S11323E0DF93182FEB0161E00E947612209711F41D
S11323F060E004C0CF3FD10539F461E0812FDF9163
S1132400CF911F910C94B212E12FF0E0EE54FF4FE4
S1132410E491E330F9F048F4E130B9F0E230A1F5A9
S113242084B5806284BDC8BD34C0E730E9F0E830CB
S113243019F1E43049F58091800080628093800036
S1132440D0938B00C0938A0024C084B5806884BD77
S1132450C7BD1FC080918000806880938000D093A6
S11324608900C093880015C08091B0008068809373
S1132470B000C093B3000DC08091B000806280931F
S1132480B000C093B40005C0C038D1050CF0B5CF7E
S1132490AFCFDF91CF911F910895833081F028F45D
S11324A0813099F08230A1F008958730A9F0883006
S11324B0B9F08430D1F4809180008F7D03C0809185
S11324C080008F7780938000089584B58F7702C051
S11324D084B58F7D84BD08958091B0008F7703C04B
S11324E08091B0008F7D8093B0000895CF93DF93E7
S11324F090E0FC01EA53FF4F2491FC01E652FF4FA8
S11325008491882361F190E0880F991FFC01EE5FAC
S1132510FE4FC591D491FC01E850FF4FA591B491B1
S1132520611109C09FB7F89488812095822388831C
S1132530EC912E230BC0623061F49FB7F89488812C
S1132540322F309583238883EC912E2B2C939FBFBD
S113255006C08FB7F894E8812E2B28838FBFDF91B4
S1132560CF9108951F93CF93DF93282F30E0F90183
S1132570EE54FF4F8491F901EA53FF4FD491F901CE
S1132580E652FF4FC491CC23C1F0162F81110E9453
S11325904D12EC2FF0E0EE0FFF1FE850FF4FA59116
S11325A0B4919FB7F894111104C08C91D095D8239D
S11325B002C0EC91DE2BDC939FBFDF91CF911F9182
S11325C008950FB6F8940F92FC01928D0F900FBEF0
S11325D081E0911180E008950F931F93CF93DF93CF
S11325E0EC01042F1A8D4C8D41110BC08881998107
S11325F0892BE9F58C819D810E94A31B1D821C827D
S113260037C050E0011115C08A819B810E94B52416
S11326102C8D8A819B81820F911D9B838A832C81BF
S11326203D818217930718F1888199819B838A835E
S11326301EC08E819F810E94B5248C8D90E091955F
S1132640819591092E813F81280F391F3F832E8365
S1132650488159812417350730F42C813D81820F3C
S1132660931F9F838E83023011F41111115080E067
S11326701F5F1A8FDF91CF911F910F910895FC0175
S1132680CB01448D4423A1F050E026813781240FEF
S1132690351F37832683648175812617370720F019
S11326A02081318137832683668177810C94B52418
S11326B00895EF92FF921F93CF93DF93EC010FB62F
S11326C0F8940F921E8D7C0181E1E80EF11C111625
S11326D05CF48989882341F0C7010E94B01A8111F2
S11326E00E942E1B1150F3CF8FEF8E8F0F900FBED1
S11326F00FB6F8940F921D8D7E0188E0E80EF11C50
S113270011165CF48885882341F0C7010E94B01A31
S113271081110E942E1B1150F3CF8FEF8D8F0F90DC
S11327200FBEDF91CF911F91FF90EF900895CF934B
S1132730DF93EC010FB6F8940F92488159818B8D89
S11327407C8D9A01879F200D311D11243D832C839C
S11327501A8E5B834A8390E00197789F9001799F5A
S1132760300D1124CA01820F931F9F838E838FEF34
S11327708D8F8E8F61110CC08885882389F0CE01DE
S113278008960E94B01A882359F00E94372108C085
S1132790CE0108960E940420CE0141960E94042096
S11327A00F900FBE81E0DF91CF9108950F931F9397
S11327B0CF93DF93082F162F662321F0869FC00145
S11327C0112402C080E090E04F960E94E01FEC01CB
S11327D0009771F0111103C09983888303C04F9649
S11327E0998388830B8F1C8F61E0CE010E9497131D
S11327F0CE01DF91CF911F910F910895AF92BF92B7
S1132800CF92DF92FF920F931F93CF93DF9300D069
S113281000D01F92CDB7DEB78C016B015D834C8372
S1132820F22E80E0580198E0A90EB11C0FB6F8947E
S11328300F92F801228D938D291718F0F2E0FF1200
S113284014C04F2DB601C8010E94EC12F801918901
S1132850992321F0C80141960E94B01A81110E9467
S113286037210F900FBE81E050C02C813D81232B76
S113287019F40F900FBE48C0811104C0CE01019617
S11328800E94F01A0F900FBE0E945B180FB6F894C6
S11328900F92F801858D8F3F09F4158EF801868D0E
S11328A08F3F09F4168E0F900FBEBE016C5F7F4FF1
S11328B0CE0101960E94FB1A811121C00FB6F89433
S11328C00F92F801928D838D0F900FBE981311C053
S11328D06C817D81C5010E94871AC8010E94591329
S11328E00E941719882311F081E0A0CF0E9437219C
S11328F0FBCFC8010E9459130E941719F5CFC801D4
S11329000E9459130E94171980E00F900F900F90A6
S11329100F900F90DF91CF911F910F91FF90DF9057
S1132920CF90BF90AF900895EF92FF921F93CF93F3
S1132930DF93EC019A8D8B8D981710F02230E1F41F
S11329407A011E8D422FCE010E94EC121F3F81F4AA
S11329508989882379F0CE0141960E94B01A882390
S113296049F0E114F10431F081E0F701808305C0FE
S11329701F5F1E8F81E001C080E0DF91CF911F9126
S1132980FF90EF900895AF92BF92CF92DF92FF92A3
S11329900F931F93CF93DF9300D000D01F92CDB736
S11329A0DEB78C016B015D834C8380E0580191E1BB
S11329B0A90EB11C0FB6F8940F92F801F28CFF2007
S11329C0A9F0B601C8010E943F13FA94F801F28EEF
S11329D08085882339F0C80108960E94B01A8111B5
S11329E00E9437210F900FBE81E050C02C813D81A1
S11329F0232B19F40F900FBE48C0811104C0CE01DF
S1132A0001960E94F01A0F900FBE0E945B180FB639
S1132A10F8940F92F801858D8F3F09F4158EF80113
S1132A20868D8F3F09F4168E0F900FBEBE016C5F2A
S1132A307F4FCE0101960E94FB1A81111CC0C80170
S1132A400E94E112882389F06C817D81C5010E9476
S1132A50871AC8010E9459130E941719882311F07C
S1132A6081E0A8CF0E943721FBCFC8010E945913EF
S1132A700E941719F5CFC8010E9459130E94171913
S1132A80C8010E94E112882359F380E00F900F904F
S1132A900F900F900F90DF91CF911F910F91FF90A6
S1132AA0DF90CF90BF90AF900895CF92DF92FF92C6
S1132AB00F931F93CF93DF9300D000D01F92CDB715
S1132AC0DEB78C017D836C83F12C90E0680181E199
S1132AD0C80ED11C0FB6F8940F92D8015A968C9157
S1132AE05A978823E9F081505A968C935A978D917E
S1132AF09C91892B29F40E94241CF80195838483DA
S1132B00D80118968C91882339F0C80108960E9440
S1132B10B01A81110E9437210F900FBE81E07AC054
S1132B202C813D81232B09F472C0911104C0CE0184
S1132B3001960E94F01A0F900FBE0E945B180FB608
S1132B40F8940F92F801858D8F3F09F4158ED80102
S1132B505E968C915E978F3F11F45E961C920F9057
S1132B600FBEBE016C5F7F4FCE0101960E94FB1A1F
S1132B7081112BC0C8010E94E112882301F1F801E0
S1132B8080819181892B51F40FB6F8940F9284813E
S1132B9095810E94401BF82E0F900FBE6C817D81A1
S1132BA0C6010E94871AC8010E9459130E9417196E
S1132BB0882311F091E08ECF0E943721FBCFC8010A
S1132BC00E9459130E941719F5CFC8010E94591386
S1132BD00E941719C8010E94E112882359F3FF20AB
S1132BE0C1F00FB6F8940F92F8018189882339F067
S1132BF00688F789E02D808164E0681B01C060E0ED
S1132C00D80114968D919C9115970E94DD1B0F900D
S1132C100FBE80E00F900F900F900F900F90DF91F8
S1132C20CF911F910F91FF90DF90CF900895CF9394
S1132C30DF93EC010FB6F8940F928D8D8F3F09F45A
S1132C401D8E8E8D8F3F09F41E8E0F900FBE8A8DC0
S1132C50811104C0CE0141960E94981ACE01DF91E1
S1132C60CF910C945913E0915204F0915304808154
S1132C70811103C08FEF9FEF0CC0E0915204F091DB
S1132C8053040580F681E02D0680F781E02D8281D2
S1132C90938190932A04809329040895FF920F93BB
S1132CA01F93CF93DF93EC01F62E00913104109122
S1132CB0320480918A0490918B0402960E946F20C2
S1132CC0CF3F8FEFD80789F4FF2079F060918A0411
S1132CD070918B046E5F7F4F84E394E0DF91CF911A
S1132CE01F910F91FF900C941620C00FD11FE091FB
S1132CF08A04F0918B04D383C28360918A04709117
S1132D008B04C017D10768F480915004909151044A
S1132D106E5F7F4FDF91CF911F910F91FF900C94C5
S1132D20372080915204909153046E5F7F4F0E942C
S1132D3037208091290490912A04C817D90720F4D8
S1132D40D0932A04C0932904DF91CF911F910F914E
S1132D50FF90089580913D04882309F10FB6F894FB
S1132D600F92E0914304F0914404C681D781CE01CF
S1132D7002960E946F208091330481508093330423
S1132D8080913D04815080933D040F900FBE8F8944
S1132D90988D0E94F31FCE010E94F31FDBCF809118
S1132DA06604823010F00E9437210E94411ED2CF67
S1132DB05F926F927F928F929F92AF92BF92CF92C7
S1132DC0DF92EF92FF920F931F93CF93DF933C0117
S1132DD06B015A014901502ECA010E94E01F8C0167
S1132DE0892B09F4E0C088E290E00E94E01FEC0126
S1132DF0892BC9F0188F0F8BA50165EA70E0C80113
S1132E000E94BE2421E0A21AB1088F89988DA80ED1
S1132E10B91EC114D104C9F0BE01675E7F4FF6012B
S1132E20C601089607C0C8010E94F31FBCC0E8177A
S1132E30F90749F09F014191DB014D93BD01D9018F
S1132E402C912111F4CF18A201C0198E052D043044
S1132E5008F003E00E8B09A31AA26E01B2E0CB0EB8
S1132E60D11CC6010E941220CE010C960E94122091
S1132E70D987C88784E090E0801B91099D878C875F
S1132E80DB8BCA8B1BA21CA21DA21EA21FA2A40123
S1132E90B301C5010E94932099838883E114F1044E
S1132EA019F0F701D183C0830FB6F8940F92809183
S1132EB033048F5F8093330480918A0490918B0450
S1132EC0892BD1F5D0938B04C0938A048091330469
S1132ED0813009F041C086E694E00E9404208FE628
S1132EE094E00E94042088E794E00E94042081E892
S1132EF094E00E9404208DE594E00E94042084E57F
S1132F0094E00E94042087E494E00E9404208EE36D
S1132F1094E00E94042084E394E00E9404208DE560
S1132F2094E0909353048093520484E594E0909346
S1132F3051048093500410C080912F0481110CC05F
S1132F40E0918A04F0918B0496898E89891720F088
S1132F50D0938B04C0938A0480912B048F5F809359
S1132F602B048E8990913004981710F480933004C8
S1132F70F9E08F9FC0011124B6018A599B4F0E942A
S1132F8016200F900FBE80912F04882351F0E091FA
S1132F908A04F0918B0496898E89981710F40E9404
S1132FA0372181E001C08FEFDF91CF911F910F9105
S1132FB0FF90EF90DF90CF90BF90AF909F908F9055
S1132FC07F906F905F9008950F931F93CF93DF933B
S1132FD020918A0430918B048217930709F438C036
S1132FE0009709F435C00FB6F8940F92FC012285BE
S1132FF033852453344051F5FC0124893589F4E0A8
S113300027343F0719F1232B09F5EC018C010E5FDE
S11330101F4FC8010E946F208E8990913004981729
S113302010F48093300429E0829FC0011124B80178
S11330308A599B4F0E941620E0918A04F0918B04D8
S11330409E898689981710F00E9437210F900FBE31
S1133050DF91CF911F910F910895EF92FF920F93FB
S113306087E2E82E84E0F82E00E020E030E040EC37
S113307050E060E372E08AEA96E10E94D81681305B
S1133080B1F40E94891C813091F4F8942FEF3FEF42
S113309030932A042093290480932F04109232043D
S11330A0109231040F91FF90EF900C94FF200F9138
S11330B0FF90EF900895809126048F5F80932604FB
S11330C008950FB6F8940F928091310490913204D0
S11330D00F900FBE0895CF92DF92EF92FF920F935D
S11330E01F93CF93DF938091260481118CC00091AC
S11330F03104109132040F5F1F4F10933204009378
S1133100310401151105B9F48091520490915304CE
S1133110209150043091510430935304209352046D
S1133120909351048093500480912C048F5F80937A
S11331302C040E9433168091290490912A04C0E043
S11331400817190708F44FC0D9E0E0915204F09130
S113315053048081811103C08FEF9FEF11C0E09170
S11331605204F09153040580F681E02DE680F78047
S1133170D70112968D919C9113970817190728F47B
S113318090932A04809329042EC06701B2E0CB0EE9
S1133190D11CC6010E946F20F70184899589892B6F
S11331A021F0C7010C960E946F20D70156968C918E
S11331B090913004981710F480933004D89FC00184
S11331C01124B6018A599B4F0E941620E0918A046B
S11331D0F0918B04D70156969C918689981708F430
S11331E0B4CFC1E0B2CFE0918A04F0918B04E689B8
S11331F0B9E0EB9FF0011124EA59FB4F8081823042
S113320040F0C1E006C080912E048F5F80932E04AD
S1133210C0E080912D048111C1E08C2FDF91CF910A
S11332201F910F91FF90EF90DF90CF900895EF9250
S1133230FF920F931F93CF93DF930FB6F8940F92DF
S1133240809126048150809326048091260488234B
S113325011F080E052C0809133048823D1F3C0E0A0
S1133260D0E089E0F82EEE24E3948091470488238B
S113327051F1E0914C04F0914D04C681D781CE0107
S11332800C960E946F208E010E5F1F4FC8010E9492
S11332906F208E8990913004981710F48093300435
S11332A0F89EC0011124B8018A599B4F0E94162030
S11332B0E0918A04F0918B049E8986899817A8F27C
S11332C0E0922D04D2CFCD2B11F00E943316C09181
S11332D02E04CC2351F0D1E00E946B188111D093BD
S11332E02D04C150C9F710922E0480912D04882317
S11332F009F4AFCF0E94372181E00F900FBEDF9118
S1133300CF911F910F91FF90EF9008950F931F930A
S1133310CF93DF938C01EB010E945B184091310441
S113332050913204F80120813181C9018C0F9D1F15
S11333304217530720F48217930740F403C08217FF
S1133340930730F021E04817590718F020E001C036
S113335021E0F80191838083222329F060E0841B1B
S1133360950B0E944E160E941719811102C00E94EB
S11333703721DF91CF911F910F910895CF93DF9360
S1133380EC01892B19F40E9437210AC00E945B18B2
S113339060E0CE010E944E160E941719882399F30B
S11333A0DF91CF91089580912604882321F081E054
S11333B080932D04089510922D04A0918A04B09155
S11333C08B04E0918A04F0918B042D913C918789C0
S11333D0908D8217930760F060918A0470918B043A
S11333E080918A0490918B04675E7F4F0E94571EE0
S11333F08091300469E0482F50E0649F9001659FFC
S1133400300D1124F901EA59FB4F9081911102C04A
S11334108150F1CFA181B28112960D90BC91A02D63
S1133420B283A18327593B4FA217B30731F41296F5
S11334302D913C9113973283218399E0949FF0015D
S1133440959FF00D1124EA59FB4F0180F281E02D84
S11334502681378130938B0420938A04809330042F
S113346008950F931F93CF93DF93EC010FB6F89455
S11334700F92892B21F4C0918A04D0918B048E0180
S11334800E5F1F4FC8010E946F208C899D89892B74
S113349021F0CE010C960E946F20B80184E394E0E1
S11334A00E9416208FA1813009F41FA20F900FBE35
S11334B080912F04882339F00FB6F8940F920E945C
S11334C033160F900FBE80918A0490918B04C81715
S11334D0D907C1F480912F04882319F00E94372161
S11334E011C09091340480913304981305C0109254
S11334F08B0410928A0406C0DF91CF911F910F9123
S11335000C94D319DF91CF911F910F910895CF930C
S1133510DF93EB0160918A0470918B04645F7F4FA9
S11335200E94372061E0CE01DF91CF910C944E16BA
S11335301F93CF93DF93EB01142F60918A04709152
S11335408B04645F7F4F0E941620112311F0CFEF8C
S1133550DFEF612FCE01DF91CF911F910C944E16B6
S11335600F931F93CF93DF93DC011596ED91FC919C
S11335701697C681D7818E01045F1F4FC8010E9430
S11335806F2080912604811114C00A501109C801CA
S11335900E946F208E8990913004981710F48093C4
S11335A03004B9E08B9FC0011124B8018A599B4FA4
S11335B003C0B80187E494E00E941620E0918A04D5
S11335C0F0918B049E898689891720F481E0809389
S11335D02D0401C080E0DF91CF911F910F910895D8
S11335E020912C04FC012083209131043091320479
S11335F0328321830895CF93DF930FB6F8940F920B
S11336004091310450913204DB012D913C912F3FC4
S1133610BFEF3B07D9F0EC01E981FA81A0912C04BA
S1133620B881BA1719F04E175F0790F44E1B5F0B61
S1133630FB014217530738F4241B350B31832083D5
S11336400E94F01A03C01182108202C080E001C0FF
S113365081E00F900FBEDF91CF91089581E08093B8
S11336602D04089580912F04882331F0809126043D
S1133670882321F080E0089581E0089582E0089590
S11336800F931F93CF93DF93FC01892B09F455C04B
S11336908689A0918A04B0918B0456969C918917CF
S11336A008F041C02485358537FD0CC0A0918A04FB
S11336B0B0918B0456969C9124E030E0291B31098B
S11336C03587248729E0829FC00111248A599B4FA2
S11336D02285338528173907E9F48F01EF012296F3
S11336E0CE010E946F20E0918A04F0918B048689B8
S11336F0F801868B90913004981710F4809330046D
S1133700F9E08F9FC0011124BE018A599B4F0E948A
S1133710162007C0A0918A04B0918B0456968C9110
S1133720868B81E00BC0A0918A04B0918B0481E068
S113373021A156969C91291708F080E0DF91CF9142
S11337401F910F9108950F931F93CF93DF93FC0163
S1133750892B11F480E02CC082A1815082A3268998
S113376091A12917B9F38111F5CFEF018F010E5FF4
S11337701F4FC8010E946F2089A18E8B482F50E0F3
S113378024E030E0241B350B3D872C8790913004D6
S1133790981710F48093300429E0249FC001259FDA
S11337A0900D1124B8018A599B4F0E94162081E084
S11337B0DF91CF911F910F9108950F931F93CF9392
S11337C0DF93FC01892BD9F191A1961708F4962F68
S11337D086898917A1F122A1213089F5968B248548
S11337E0358537FD06C024E030E0291B31093587D3
S11337F0248729E0829FC00111248A599B4F228586
S1133800338528173907D9F4EF018F010E5F1F4F55
S1133810C8010E946F208E8990913004981710F48B
S11338208093300429E0829FC0011124B8018A5991
S11338309B4FDF91CF911F910F910C941620DF9134
S1133840CF911F910F91089580918A0490918B04D8
S1133850892B39F0E0918A04F0918B0482A18F5F67
S113386082A380918A0490918B0408950FB6F894F2
S11338700F928091900490919104892BE9F48FE93F
S113388094E00E94042086E994E00E9404208FE9D9
S113389094E0909395048093940486E994E0909343
S11338A093048093920440E065E08AE00E94D6137A
S11338B090939104809390040F900FBE0895FC019F
S11338C073836283918780874617570778F0421B7A
S11338D0530B8485958548175907C8F4BF016E5F5B
S11338E07F4F80919204909193040DC04217530727
S11338F018F46217730758F4BF016E5F7F4F80910D
S11339009404909195040E94372080E0089581E00A
S11339100895EF92FF920F930E94361C80919004B9
S113392090919104892B81F08EE8E82E84E0F82EA2
S113393003E020E030E045E550E065E372E089E330
S11339409DE10E94D81601C080E00F91FF90EF9096
S113395008950F931F93CF93DF9300D000D01F924D
S1133960CDB7DEB7A0919004B0919104109729F1DE
S1133970F90169835B834A839D838C836630A4F455
S11339800E94321BE0919004F091910420E0823077
S113399011F4A80102C040E050E0BE016F5F7F4F08
S11339A0CF010E94FE130AC020E0AF01BE016F5F89
S11339B07F4FCD010E94941401C080E00F900F90BE
S11339C00F900F900F90DF91CF911F910F91089559
S11339D0EF92FF920F931F93CF93DF93E0919404A0
S11339E0F09195048081882389F10580F681E02D8A
S11339F0E080F180C681D7818E010E5F1F4FC80120
S1133A000E946F20E889F989CE0109958A8982FF8D
S1133A10E5CF8C859D858E0D9F1DE816F90660F413
S1133A209B838A83D987C887B80180919404909135
S1133A3095040E943720D2CF00E010E020E030E06F
S1133A40A70160E0CE010E94A91CC8CF8091920416
S1133A50909193049093950480939404F093930429
S1133A60E0939204DF91CF911F910F91FF90EF901B
S1133A700895CF93DF9300D000D01F92CDB7DEB767
S1133A80E0919404F0919504D080DD2031F005801C
S1133A90F681E02DE080F18002C0E12CF12C0E943F
S1133AA05B180E9461188C0180918C0490918D04A4
S1133AB00817190720F40E94E81C81E001C080E087
S1133AC010938D0400938C04811155C0DD20D9F12D
S1133AD00E151F0508F43EC00E941719E0919404C6
S1133AE0F09195040580F681E02DC680D780C6014B
S1133AF002960E946F20D60152968C91529782FFB3
S1133B0017C01C966D917C911D976E0D7F1D9701BA
S1133B10A801C6010E945F1C882369F000E010E040
S1133B2020E030E0A70160E0C6010E94A91C03C0A8
S1133B308E7FF601828BD6015096ED91FC915197C0
S1133B40C60109951EC0E0919204F091930480810E
S1133B5041E0811140E0B701601B710B809190043A
S1133B60909191040E9417160E941719811109C09F
S1133B700E94372106C00E94171903C0898187FF5C
S1133B800EC040E050E0BE016F5F7F4F8091900413
S1133B90909191040E94C3148111F0CF71CFEC80F5
S1133BA0FD80F70182859385892B21F0C701029658
S1133BB00E946F200E9461186C0180918C04909186
S1133BC08D04C816D90610F40E94E81CD0928D0406
S1133BD0C0928C04E9810E2E000CFF0BEA30F10533
S1133BE080F6EC5CFF4FD70152968C910C946023C5
S1133BF08160F701828B2A813B8164857585620F20
S1133C00731FA601C7010E945F1C882309F4B9CF62
S1133C10D7015096ED91FC915197C7010995F70191
S1133C20828982FFAECF4A815B8184859585480F66
S1133C30591F00E010E020E030E060E0C7010E947E
S1133C40A91C9FCF8160F701828B6A817B81758774
S1133C5064876C0D7D1D9601A601C7010E945F1C3F
S1133C6090CF81FD04C0C7010E94F31F8ACF8E7FCD
S1133C70D70152968C9385CF0E94E2070E942D189B
S1133C8008950E94550883EC9CE0892B11F00C9454
S1133C90C30C0895259A2D9A2FEF80E792E02150C6
S1133CA080409040E1F700C000001D9AF5CF259AAE
S1133CB02D9A2FEF87EA91E6215080409040E1F75A
S1133CC000C000001D9AF5CF0F931F93FC018FEFE6
S1133CD0808381838283838384838AE085831682BD
S1133CE0DF011796739600E717E120E030E048ED16
S1133CF056ED60E070E00D931D932D933D9318965F
S1133D004D935D936D937C931B97AE17BF0799F703
S1133D101F910F910895FF920F931F93CF93DF93F9
S1133D20EC01F62E042F122F0E94641EFB820C83DA
S1133D301883DF91CF911F910F91FF9008950895FB
S1133D40CF93DF93EC018B818F3FE9F09C819F3F00
S1133D50D1F0613049F030F0623041F0633099F4D1
S1133D6061E009C060E007C061E001C060E00E945A
S1133D70B21261E003C00E94B21260E08C81DF9154
S1133D80CF910C94B212DF91CF910895CF93DF932A
S1133D90EC0189818F3FE9F09A819F3FD1F0613036
S1133DA049F030F0623041F0633099F460E009C0CA
S1133DB061E003C061E005C060E00E94B21261E00E
S1133DC003C00E94B21260E08A81DF91CF910C940B
S1133DD0B212DF91CF910895FC0120812F3F29F089
S1133DE091E06927822F0C94B212662319F0FC012A
S1133DF0668101C063E00C94C61EDC01FB013097B0
S1133E0059F09B968C919B9780839C968C919C9760
S1133E1081839D968C91828308954F925F926F92D5
S1133E207F928F929F92AF92BF92DF92EF92FF9216
S1133E300F931F93CF93DF938C01095F1F4FEC0106
S1133E407C0183E1E80EF11CDD24DA94F801D80149
S1133E508D909D90AD90BD908D01808D918DA28DA2
S1133E60B38D9C01AD01281939094A095B09AFEFEB
S1133E70B0E00E946623F801408451846284738414
S1133E80A3019201281939094A095B090E944123B7
S1133E9057FF02C01BA609C02F3F3105410551053C
S1133EA019F014F0DBA601C02BA721960E151F05EF
S1133EB069F6DF91CF911F910F91FF90EF90DF9002
S1133EC0BF90AF909F908F907F906F905F904F9036
S1133ED008950F931F93CF93DF938C01C62F613006
S1133EE049F018F06230D9F04CC01092A80461E097
S1133EF00E94EC1EE091A804F0E0E35CFD4F6081B9
S1133F00C8010E94A01EF801658170E088EE93E06C
S1133F100E940B23CB010E94F021C2E032C00E9418
S1133F206822882371F1E091A80481E08E0F8093C8
S1133F30A804F0E0E35CFD4FC081D0E00E946B2256
S1133F409B01AC01CC0FDD1FCC0FDD1FC00FD11FB7
S1133F50F801A581B0E00E9466236F8F78A389A33E
S1133F609AA38091A804833058F00E94792260E0DB
S1133F70C8010E94EC1EC8010E940D1FC0E001C0D0
S1133F80C1E08C2FDF91CF911F910F910895CF93B2
S1133F90DF93EC0160E00E94691F8EA7DF91CF914F
S1133FA00895CF93DF93EC016EA50E94691F982FAB
S1133FB08EA781E0911180E0DF91CF91089508955B
S1133FC0CF93DF93EC010E945B18CE010E949423EF
S1133FD0EC010E941719209711F40E944A1ECE0189
S1133FE0DF91CF910895CF93DF93009751F0EC01C7
S1133FF00E945B18CE010E942C24DF91CF910C9477
S11340001719DF91CF910895FC0103969283818360
S11340102FEF3FEF348323839683858390878783B1
S113402010820895FC01118610860895CF93DF93C2
S11340309C01FB01DC011196CD91DC911297D38395
S1134040C2838C819D81958384838C819D81DC01D5
S113405013967C936E9312977D836C8331872087AC
S1134060F90180818F5F8083DF91CF9108950F9351
S11340701F93CF93DF938C01FB01808191818F3F4C
S11340802FEF920721F4E801AF81B8850EC0D80163
S1134090139612962D913C911397E9014881598109
S11340A08417950710F0D901F4CF12968D919C9145
S11340B0139793838283EC01FD83EC83B583A483FC
S11340C01396FC93EE93129711870087F801808171
S11340D08F5F8083DF91CF911F910F910895CF93CC
S11340E0DF93FC01A085B185828193812481358190
S11340F0EC013D832C83C481D5819B838A831196F3
S11341008D919C911297E817F90721F41296DC938C
S1134110CE931197118610868C9181508C938C913B
S1134120DF91CF91089531E1FC013083319722E290
S113413020833197A3E3A083319760833197708301
S113414031971082319760E86083319710823197FC
S113415062E06083319763E06083319764E0608359
S1134160319765E06083319766E06083319767E05B
S11341706083319768E06083319769E060833197A9
S113418060E1608331973083319732E13083319736
S113419033E13083319734E13083319735E1308333
S11341A0319736E13083319737E13083319738E105
S11341B03083319739E13083319730E2308331975E
S11341C031E2308331972083319723E22083319782
S11341D0408331975083319726E22083319727E239
S11341E02083319728E22083319729E22083319775
S11341F020E32083319721E3208386970895A895AF
S113420090EC88E10FB6F894A895809360000FBEF7
S113421090936000A0918A04B0918B04CD91CDBF9E
S1134220DD91DEBFFF91EF91DF91CF91BF91AF910F
S11342309F918F917F916F915F914F913F912F91BA
S11342401F910F91FF90EF90DF90CF90BF90AF90B0
S11342509F908F907F906F905F904F903F902F90A2
S11342601F900F900FBE0F90089581E008950F9254
S11342700FB6F8940F921F9211242F923F924F92EF
S11342805F926F927F928F929F92AF92BF92CF92E2
S1134290DF92EF92FF920F931F932F933F934F93CD
S11342A05F936F937F938F939F93AF93BF93CF93BA
S11342B0DF93EF93FF93A0918A04B0918B040DB622
S11342C00D920EB60D920E94D319A0918A04B0915A
S11342D08B04CD91CDBFDD91DEBFFF91EF91DF91D6
S11342E0CF91BF91AF919F918F917F916F915F918A
S11342F04F913F912F911F910F91FF90EF90DF907D
S1134300CF90BF90AF909F908F907F906F905F9071
S11343104F903F902F901F900F900FBE0F900895D5
S11343200F920FB6F8940F921F9211242F923F927E
S11343304F925F926F927F928F929F92AF92BF92B1
S1134340CF92DF92EF92FF920F931F932F933F939D
S11343504F935F936F937F938F939F93AF93BF9389
S1134360CF93DF93EF93FF93A0918A04B0918B04D2
S11343700DB60D920EB60D9213BE0E946B188111EC
S11343800E94D319A0918A04B0918B04CD91CDBF22
S1134390DD91DEBFFF91EF91DF91CF91BF91AF919E
S11343A09F918F917F916F915F914F913F912F9149
S11343B01F910F91FF90EF90DF90CF90BF90AF903F
S11343C09F908F907F906F905F904F903F902F9031
S11343D01F900F900FBE0F9008950E949021189582
S11343E0009709F474C01092AA041092A9041092C0
S11343F0B7041092B6041092B2041092B30410924F
S1134400B4041092B5041092AD042091800020935E
S1134410BC04209181002093BB041092810010926F
S11344208000109285001092840021E026BB109237
S11344306F002091B0002093BA042091B100209322
S1134440B9041092B10022E02093B0009C012770BF
S11344503327232B51F443E0969587954A95E1F74A
S11344602CE72093B30027E018C09C012370332766
S1134470232B31F4969587959695879529EF05C05A
S113448080FD07C0969587952CE72093B30026E01E
S113449004C02CE72093B30025E02093B80422E065
S11344A027BB1092B2009093AC048093AB049FB7E7
S11344B0F89423BD8091B8048093B10020937000D8
S11344C08BE08150F1F787E0809381009FBF0895CE
S11344D08091AD0408952FB7F8946091AE04709163
S11344E0AF048091B0049091B1041092AD042FBF39
S11344F00895E1EBF0E01082109270008091BA040C
S11345008093B0008091B9048083E1E8F0E01082E8
S11345108091BC04809380008091BB0480830895C3
S11345201F920F920FB60F9211240F931F932F9384
S11345303F934F935F936F937F938F939F93AF9327
S1134540BF932091840030918500B09B0BC081E023
S113455086BB8091B6049091B70401969093B704FA
S11345608093B6048091A9049091AA040196409185
S1134570AB045091AC048417950798F11092AA04E7
S11345801092A9048091B6049091B704A0E0B0E021
S1134590DC0199278827820F931FA11DB11D40912B
S11345A0B2045091B3046091B4047091B5048C01C9
S11345B09D01041B150B260B370B0093AE041093BF
S11345C0AF042093B0043093B1048093B204909369
S11345D0B304A093B404B093B50481E08093AD0414
S11345E004C09093AA048093A904BF91AF919F91B2
S11345F08F917F916F915F914F913F912F911F9177
S11346000F910F900FBE0F901F9018950E949F0B53
S1134610880B990B089597FB072E16F4009407D086
S113462077FD09D00E94712307FC05D03EF49095D4
S113463081959F4F0895709561957F4F0895A1E2EC
S11346401A2EAA1BBB1BFD010DC0AA1FBB1FEE1F08
S1134650FF1FA217B307E407F50720F0A21BB30B53
S1134660E40BF50B661F771F881F991F1A9469F7CF
S113467060957095809590959B01AC01BD01CF012B
S11346800895052E97FB1EF400940E94582357FDAD
S113469007D00E941F2307FC03D04EF40C94582328
S11346A050954095309521953F4F4F4F5F4F08955A
S11346B090958095709561957F4F8F4F9F4F08958A
S11346C0EE0FFF1F0590F491E02D09940E948523BD
S11346D0A59F900DB49F900DA49F800D911D112452
S11346E00895AA1BBB1B51E107C0AA1FBB1FA61735
S11346F0B70710F0A61BB70B881F991F5A95A9F787
S113470080959095BC01CD010895A29FB001B39FFF
S1134710C001A39F700D811D1124911DB29F700DC6
S1134720811D1124911D08950F931F93CF93DF933F
S11347308230910510F482E090E0E091BF04F091A2
S1134740C00420E030E0A0E0B0E0309719F14081EF
S113475051810281138148175907C8F084179507BE
S113476069F4109731F012960C93129713961C93D8
S113477027C00093BF041093C00422C02115310543
S113478019F04217530718F49A01BD01EF01DF0134
S1134790F801DBCF21153105F9F0281B390B243042
S11347A0310580F48A819B816115710521F0FB013B
S11347B09383828304C09093C0048093BF04FE015A
S11347C0329644C0FE01E20FF31F8193919322506D
S11347D03109398328833AC02091BD043091BE0445
S11347E0232B41F420910201309103013093BE0444
S11347F02093BD0420910001309101012115310560
S113480041F42DB73EB74091040150910501241B9A
S1134810350BE091BD04F091BE04E217F307A0F458
S11348202E1B3F0B2817390778F0AC014E5F5F4F02
S11348302417350748F04E0F5F1F5093BE04409372
S1134840BD048193919302C0E0E0F0E0CF01DF91D9
S1134850CF911F910F910895CF93DF93009709F49F
S113486081C0FC01329713821282A091BF04B091DF
S1134870C004109781F420813181820F931F20910D
S1134880BD043091BE042817390751F5F093BE04D6
S1134890E093BD0467C0ED0120E030E0CE17DF07F0
S11348A040F44A815B819E0141155105F1F0EA0112
S11348B0F5CFD383C28340815181840F951FC817DC
S11348C0D90759F488819981840F951F02969183A1
S11348D080838A819B81938382832115310529F406
S11348E0F093C004E093BF043DC0E901FB83EA8375
S11348F049915991C40FD51FEC17FD0761F48081CC
S11349009181840F951F0296E9019983888382819E
S113491093819B838A83E0E0F0E012968D919C91D1
S11349201397009719F0FD01DC01F7CF8D919C914D
S113493011979D012E5F3F4F820F931F2091BD045D
S11349403091BE042817390769F4309729F410927E
S1134950C0041092BF0402C013821282B093BE043A
S1134960A093BD04DF91CF910895FB01DC0102C047
S113497001900D9241505040D8F70895DC0101C0D8
S11349806D9341505040E0F70895F999FECF92BDE0
S113499081BDF89A992780B50895262FF999FECFFD
S11349A01FBA92BD81BD20BD0FB6F894FA9AF99A48
S11349B00FBE0196089510E0C8E8D0E004C0FE01DF
S11349C00E9460232196C938D107C9F7F894FFCF14
S11349D00000C10420000000C84100000000FF00E6
S11349E00000FF000000FF000000000000000000C5
S11349F0FF005100540000000000A200190019003B
S1134A0071107110015F6E65757472616C566F6C14
S1134A10746167653A005F61636964566F6C7461C1
S1134A2067653A00454E544552504800455849542C
S1134A3050480043414C504800435243206973207E
S1134A406E6F742076616C696421004465766963D5
S1134A5065206973206E6F74206120445331387867
S1134A6032302066616D696C7920646576696365AE
S1134A702E00633A2000726561645F696E3A20001B
S1134A8041542B4354495053454E4400616D6D6F5E
S1134A906E6961006E697472617465006E69747226
S1134AA06974650074656D7000704800415400417C
S1134AB0542B43574D4F44453D3100416D6D6F6E4E
S1134AC06961004E6974726974652F4E697472610C
S1134AD074650054656D706572617475726500006B
S1134AE0000000F30C650EB40C400D860CA00C9273
S1134AF00C0D0A006E616E00696E66006F766600CA
S1134B0049444C4500546D72205376630000010201
S9030000FC
