:100000000C948C000C9490200C94B7200C948E19B6
:100010000C948E190C948E190C94FA0B0C947F236B
:100020000C94B4000C94B4000C94B4000C94B40080
:100030000C94B4000C94B4000C94B4000C94B40070
:100040000C94DE200C94B4000C94941E0C94C61EE8
:100050000C94B4000C94B4000C94B4000C94B40050
:100060000C94B4000C94B400981698169816D716F1
:10007000C216D11698169816D716C2160A466F756C
:100080006E64204D61746368696E6720436F6C6FA6
:100090007200005EBCE2613FDD83C29C7E20A3FD56
:1000A0001F41009D23BE46DB65F88C11AF32CA5755
:1000B000E9740000000800020100000304070000CA
:1000C000000000000000010204081020408001022E
:1000D000040810200102040810200404040404048D
:1000E00004040202020202020303030303030000EA
:1000F0000000230026002900000000002500280041
:100100002B0000000000240027002A003904D1043D
:100110009B06F61E4004A20611241FBECFEFD8E0B6
:10012000DEBFCDBF12E0A0E0B1E0E6ECFBE402C030
:1001300005900D92AA34B107D9F725E0AAE4B2E000
:1001400001C01D92A231B207E1F710E0CAE8D0E089
:1001500004C02197FE010E944B24C638D107C9F77D
:100160000E94231F0C94D6250C9400000F931F931C
:10017000CF93DF93CDB7DEB72A970FB6F894DEBFE3
:100180000FBECDBF8AE492E00E949D1786E0E2E4B4
:10019000F1E0DE01159601900D928A95E1F7198242
:1001A0001A821B821C828AE0FE013196A6E1B3E02E
:1001B00001900D928A95E1F786E0E8E4F1E0DE0136
:1001C000159601900D928A95E1F78AE0FE0131962D
:1001D000A0EDB2E001900D928A95E1F786E0EEE4A1
:1001E000F1E0DE01159601900D928A95E1F78AE023
:1001F000FE013196AAE8B2E001900D928A95E1F7EE
:1002000086E0E4E5F1E0DE01159601900D928A9515
:10021000E1F740E050E060E07FE349835A836B837D
:100220007C838AE0FE013196A0E2B3E001900D925A
:100230008A95E1F786E0EEE4F1E0DE0115960190A3
:100240000D928A95E1F78AE999E9A9E1BEE38983EC
:100250009A83AB83BC838AE0FE013196AAEDB2E0BB
:1002600001900D928A95E1F786E0EAE5F1E0DE0182
:10027000159601900D928A95E1F749835A836B8315
:100280007C838AE0FE013196A4E9B2E001900D92F0
:100290008A95E1F786E0E0E6F1E0DE01159601904F
:1002A0000D928A95E1F740E050E060E87FE34983F2
:1002B0005A836B837C838AE0FE013196AAE2B3E025
:1002C00001900D928A95E1F786E0E6E6F1E0DE0125
:1002D000159601900D928A95E1F78AE999E9A9E9C5
:1002E000BEE389839A83AB83BC838AE0FE013196A7
:1002F000A4EEB2E001900D928A95E1F786E0ECE67B
:10030000F1E0DE01159601900D928A95E1F780E00B
:1003100090E0A0E0B0E489839A83AB83BC838AE059
:10032000FE013196AEE9B2E001900D928A95E1F7B7
:1003300086E0E2E7F1E0DE01159601900D928A95E4
:10034000E1F700E010E020E430E409831A832B8316
:100350003C838AE0FE013196A4E3B3E001900D9264
:100360008A95E1F786E0E8E7F1E0DE011596019075
:100370000D928A95E1F749835A836B837C838AE0E7
:10038000FE013196AEEEB2E001900D928A95E1F752
:1003900086E0EEE7F1E0DE01159601900D928A9578
:1003A000E1F780E090E0A0EAB0E489839A83AB8330
:1003B000BC838AE0FE013196A8EAB2E001900D927A
:1003C0008A95E1F786E0E4E8F1E0DE011596019018
:1003D0000D928A95E1F780E090E0A0ECB0E489838B
:1003E0009A83AB83BC838AE0FE013196AEE3B3E02F
:1003F00001900D928A95E1F786E0EAE8F1E0DE01EE
:10040000159601900D928A95E1F780E090E0A0ECBE
:10041000BFE389839A83AB83BC838AE0FE01319674
:10042000A8EFB2E001900D928A95E1F786E0EAE844
:10043000F1E0DE01159601900D928A95E1F740E01A
:1004400050E060E271E449835A836B837C838AE0E5
:10045000FE013196A2EBB2E001900D928A95E1F790
:1004600086E0E0E9F1E0DE01159601900D928A95B3
:10047000E1F709831A832B833C838AE0FE013196DE
:10048000A2E0B3E001900D928A95E1F786E0E6E9FB
:10049000F1E0DE01159601900D928A95E1F780E07A
:1004A00090E0A0EAB1E489839A83AB83BC838AE0BD
:1004B000FE013196ACEBB2E001900D928A95E1F726
:1004C00086E0ECE9F1E0DE01159601900D928A9547
:1004D000E1F749835A836B837C838AE0FE0131967E
:1004E000ACE0B3E001900D928A95E1F786E0E2EA94
:1004F000F1E0DE01159601900D928A95E1F780E01A
:1005000090E0A8E4B2E489839A83AB83BC838AE059
:10051000FE013196A6ECB2E001900D928A95E1F7CA
:100520002A960FB6F894DEBF0FBECDBFDF91CF91F4
:100530001F910F91089568EA71E084E594E00E94AC
:10054000801F60918102709182024AE050E084E550
:1005500094E00E9456206AEF71E084E594E00E94E6
:10056000801F60918302709184024AE050E084E52C
:1005700094E00E9456206AEF71E084E594E00E94C6
:10058000801F60918502709186024AE050E084E508
:1005900094E00E9456206CEA71E084E594E00E94A9
:1005A000801F4AE050E060917B0284E594E00E9465
:1005B000F51F6AEF71E084E594E00E94801F4AE035
:1005C00050E060917C0284E594E00E94F51F6AEFA0
:1005D00071E084E594E00E94801F4AE050E0609161
:1005E0007A0284E594E00E94F51F20917B0230E0BE
:1005F0008091810290918202AC01455051092417EB
:10060000350774F105968217930754F120917C0207
:1006100030E08091830290918402AC0145505109F1
:1006200024173507ECF0059682179307CCF020913C
:100630007A0230E08091850290918602AC014550AB
:1006400051092417350764F005968217930744F083
:100650006CE770E084E594E00E945C1F81E00895FF
:1006600080E008950F931F93CF93DF9380917902D9
:10067000813009F444C040F0823009F068C000EDD8
:1006800012E0C0E0D0E026C006E113E0C0E0D0E018
:100690008AE0F801ADE7B2E001900D928A95E1F7AA
:1006A0000E949B02882349F08AE08C9FF0018D9F75
:1006B000F00D1124EA5EFC4F3AC02196065F1F4FF1
:1006C000C530D10529F73EC02196065F1F4FC730C0
:1006D000D105C1F18AE0F801ADE7B2E001900D92D9
:1006E0008A95E1F70E949B02882371F38AE08C9F30
:1006F000F0018D9FF00D1124E053FD4F18C00AE862
:1007000012E0C0E0D0E08AE0F801ADE7B2E001908D
:100710000D928A95E1F70E949B02882369F08AE096
:100720008C9FF0018D9FF00D1124E657FD4F308115
:100730002181928183810AC02196065F1F4FC730B5
:10074000D10509F730E020E090E88FEBAC01632F92
:10075000722F852F942FDF91CF911F910F910895C4
:10076000809379028AE492E00E9492188AE492E0EF
:100770000E949C188823D1F367E872E08AE492E033
:100780000E94C8178091880280937C028091870222
:1007900080937B028091890280937A0266EB71E0FC
:1007A00084E594E00E948D1F4AE050E060917B0256
:1007B00084E594E00E94FC1F4AE050E060917C02D6
:1007C00084E594E00E94FC1F4AE050E060917A02C8
:1007D00084E594E00E94FC1F0E9432030E94FE1BED
:1007E0000895CF93809379028AE492E00E94921850
:1007F0008AE492E00E949C188823D1F367E872E0B3
:100800008AE492E00E94C8178091880280937C025B
:100810008091870280937B028091890280937A0283
:100820008AE0E0E1F1E0ADE7B2E001900D928A9557
:10083000E1F70E949B029AE0E6E0F1E0ADE7B2E06A
:1008400001900D929A95E1F7811105C00E949B02DB
:10085000C82F882359F00E943203C1E020E030E025
:1008600040E85FEB0E94871B8111C0E08C2FCF9185
:10087000089528E04DE06CE08AE492E00C942B1798
:100880008AE492E00C943F17EF92FF920F931F932C
:10089000CF93DF93CDB7DEB764970FB6F894DEBF82
:1008A0000FBECDBF88E493E00E94C8086AEF70E0F5
:1008B00080E090E00E944D2141E0BE01635F7F4FE8
:1008C00088E493E00E94F70867E0CE010D960E944D
:1008D0007E099C89891354C088E493E00E94BC0778
:1008E000BE01635F7F4F88E493E00E94A90841E066
:1008F00064E488E493E00E94590868EE73E080E0C5
:1009000090E00E944D2188E493E00E94BC07BE0164
:10091000635F7F4F88E493E00E94A90840E06EEB9C
:1009200088E493E00E9459088E010F5F1F4F7E01FB
:100930008AE0E80EF11C88E493E00E948D08F8013B
:1009400081938F01EE15FF05B1F769817A818D8161
:10095000807611F4687F07C0803211F46C7F03C089
:10096000803409F46E7F072E000C880B990B0E94CF
:10097000361C20E030E040E85DE30E94E61C04C045
:1009800060E070E080E89FEB64960FB6F894DEBFFD
:100990000FBECDBFDF91CF911F910F91FF90EF90D0
:1009A000089566E088E493E00C94D408CF93DF9335
:1009B00000D0CDB7DEB70E9457119A8389830E9479
:1009C000960920E030E048EC52E40E94E61C0E94C8
:1009D000FE1B60938303709384038093850390933D
:1009E00086030E94440420E030E048EC52E40E9478
:1009F000E61C0E94FE1B9B0170938203609381039F
:100A000080911B0190911C01AC01425351092417A4
:100A1000350714F461E005C0C2968217930724F4E9
:100A200060E084E00E94B02268E371E0CE010196AC
:100A30000E947C12C4CF6115710579F0FB01019011
:100A40000020E9F73197AF01461B570BDC01ED9110
:100A5000FC910280F381E02D099480E090E00895FC
:100A6000CF93DF9300D000D000D0CDB7DEB749835D
:100A70005A836B837C838D839E8369817A818FE027
:100A80000E94EC216B817C8180E10E94EC216D81D0
:100A90007E8181E126960FB6F894DEBF0FBECDBFF2
:100AA000DF91CF910C94EC210E945711C4E661E0D4
:100AB00070E080917A0390917B030E94940E8130C4
:100AC00009F0A3C080911A018E3409F457C08E3604
:100AD00049F1813409F08BC080E00E94F10381115B
:100AE000FBCF40912F015091300160913101709105
:100AF000320180913301909134010E9430056AEFF8
:100B000070E080E090E00E944D2180E00E94B00300
:100B1000C69F9001C79F300D11243093220120936E
:100B2000210125C082E00E94F1038111FBCF409199
:100B3000230150912401609125017091260180913B
:100B40002701909128010E9430056AEF70E080E053
:100B500090E00E944D2182E00E94B003C69F900168
:100B6000C79F300D112430931E0120931D016AEFA1
:100B700070E080E090E00E944D2139C081E00E9449
:100B8000F1038111FBCF4091290150912A0160911D
:100B90002B0170912C0180912D0190912E010E94CA
:100BA00030056AEF70E080E090E00E944D2181E026
:100BB0000E94B003C69F9001C79F300D112430934F
:100BC000200120931F016AEF70E080E090E00E9416
:100BD0004D21409187035091880360918903709162
:100BE0008A0380918B0390918C030E943005409181
:100BF0008703509188036091890370918A038091E3
:100C00008B0390918C030E94300581E090E00E945C
:100C1000B4124DCF61E08FE00E94742261E080E168
:100C20000E94742261E081E10E9474224091870356
:100C3000509188036091890370918A0380918B039E
:100C400090918C030C943005EF92FF920F9340E04B
:100C500052EC61E070E087E593E00E948C1A61E05D
:100C60008AE00E94742261E084E00E94742261E0C4
:100C700084E00E94B02226E040E052EC61E070E0A7
:100C800084E594E00E942F1E61E08AE00E94B02279
:100C90000E94B6000E940A0643E050E066EA76E051
:100CA00080E00E94702080917A0390917B03892BD1
:100CB000F9F443E060E081E00E94F20C90937B0342
:100CC00080937A03009739F020E040E050E060E044
:100CD00070E00E941A0D80917A0390917B03009737
:100CE00039F020E040E050E060E070E00E941A0D32
:100CF00088E7E82E83E0F82E02E020E030E040E8CC
:100D000050E06AEB71E084E595E00E94171096E7E9
:100D1000E92E93E0F92E20E030E040E850E066EC68
:100D200071E086ED94E00E9417100F91FF90EF9014
:100D30000C942311089520E043E062E087E593E0FE
:100D40000C94611A87E593E00C94081AEF92FF92D5
:100D50000F931F93CF93DF9300D0CDB7DEB762E33D
:100D600070E080E090E00E944D2187E593E00E94D2
:100D70003719181619060CF048C064E670E080E0D8
:100D800090E00E944D2187E593E00E9437194AE0E8
:100D900050E0BC0184E594E00E945D2010E00AE090
:100DA00087E593E00E943719181619067CF587E548
:100DB00093E00E94AD181A82198289839091800372
:100DC000992309F180917E0390917F03089F700120
:100DD000099FF00C1124F0927F03E0927E03CE0174
:100DE00001960E94A0258E0D9F1D90937F038093F6
:100DF0007E0380917C0390917D03019690937D0307
:100E000080937C03812F182FCBCF10E080917C033F
:100E100090917D03049751F480917E0390917F031C
:100E200090931C0180931B01109280031092560333
:100E3000103509F45FC040F4133429F11E34C1F0B9
:100E4000113409F07CC014C0143509F468C01E3692
:100E500079F0133509F073C081E08093800310921C
:100E60007D0310927C0310927F0310927E0367C073
:100E700010931A0166E573E080917A0390917B03E9
:100E80000E94DF0D5CC067ED71E087E593E00E9492
:100E90001B0560912101709122014AE050E087E535
:100EA00093E00E94562060EE71E087E593E00E9497
:100EB0001B0560911F01709120014AE050E087E519
:100EC00093E00E9456206CEE71E087E593E00E946B
:100ED0001B0560911D0170911E014AE050E087E5FD
:100EE00093E00E94562068EF71E087E593E00E944E
:100EF0001B0525C06CEF71E087E593E00E941B05A0
:100F0000409183035091840360918503709186031F
:100F10002AE030E087E593E00E940E2010C060E0F8
:100F200072E087E593E00E941B0560918103709158
:100F300082034AE050E087E593E00E94562064EF88
:100F400071E080E090E00E944D2140918703509134
:100F500088036091890370918A0380918B0390913B
:100F60008C030E9430050F900F90DF91CF911F915D
:100F70000F91FF90EF900895FF920F931F93CF93DF
:100F8000DF93FC01F080C181D281F89489810F2D1B
:100F900000958023898378941DE7115029F182E020
:100FA00090E00E94892188818F21B9F3F8948A8189
:100FB00080238A8389818F298983789480EE91E0C8
:100FC0000E948921F89489810823098386E490E0AE
:100FD0000E9489218881F82211E009F010E07894BC
:100FE0008AE991E00E948921812FDF91CF911F91A1
:100FF0000F91FF9008951F93CF93DF93FC01108111
:10100000C181D281812F809560FF12C0F8949A81AE
:1010100089238A838981812B89838AE090E00E94D9
:1010200089218A81182B1A83789487E390E011C074
:10103000F8949A8189238A838981812B898381E429
:1010400090E00E9489218A81182B1A83789485E088
:1010500090E0DF91CF911F910C9489210F931F9302
:10106000CF93DF93FC010081C181D281F894898103
:10107000802B89838A81102F109581238A8383E0B6
:1010800090E00E9489218981182319838AE090E0E9
:101090000E948921C881789485E390E00E9489218B
:1010A000C02381E009F480E0DF91CF911F910F917F
:1010B0000895DF92EF92FF920F931F93CF93DF93E8
:1010C000EC01D62EE42E08E010E0FF24F39461E05A
:1010D0008D2D8F2109F460E0CE010E94FB07FF0CEB
:1010E00001501109A1F7E11010C0F894E981FA81CB
:1010F00091818881809589238183E981FA81928118
:1011000088818095892382837894DF91CF911F9184
:101110000F91FF90EF90DF900895EF92FF920F9361
:101120001F93CF93DF937C0108E010E0C0E0D1E093
:10113000C7010E942E088111CD2BDD0F015011092E
:10114000B9F78C2FDF91CF911F910F91FF90EF9006
:101150000895EF92FF920F931F93CF93DF938C012B
:101160007B0140E065E50E945908E70188E0E80E50
:10117000F11C699140E0C8010E945908CE15DF05B5
:10118000C1F7DF91CF911F910F91FF90EF900895DC
:10119000FC01138615861486DC011B9633961E927D
:1011A000AE17BF07E1F708951F93CF93DF93EC01CC
:1011B000162F60E0812F0E947422612F70E0FB01E6
:1011C000EA53FF4FE491E883FB01E652FF4FE491BD
:1011D000F0E0EE0FFF1FE251FF4F859194919A834B
:1011E0008983CE01DF91CF911F910C94C808BF92E3
:1011F000CF92DF92EF92FF920F931F93CF93DF93E3
:10120000EC016B01142F8D85811105C0CE010E9468
:10121000BC07811105C01B861D861C8680E064C04A
:1012200040E0112311F060EF01C06CEECE010E948E
:10123000590801E0E12CB12C11E0CE010E942E08EA
:10124000F82ECE010E942E0891E0F91203C08130E1
:10125000B1F434C02E2D30E0F8121BC08B85181766
:1012600038F4FE01E20FF31F8381802341F402C0B2
:10127000181729F0F12C193058F41C8709C0FE0109
:10128000EE0DF11D8381802B8383FF24F39409C02D
:10129000B12EFE01E20FF31F9381802F80958923E9
:1012A00083836F2DCE010E94FB071F5F000F11F497
:1012B000E39401E087E08E1508F0BFCF113408F405
:1012C000AACFBB86B11002C081E08D878B818823B5
:1012D00009F4A1CFDE011396F6012B968D9181932F
:1012E000CA17DB07D9F781E0DF91CF911F910F91EA
:1012F000FF90EF90DF90CF90BF900895DC0180E0E9
:10130000615098F02D91982F9227E92FEF70F0E01F
:10131000EE56FF4F249192959F70E92FF0E0EE5525
:10132000FF4FE491822F8E27EBCF08958F929F92EB
:10133000AF92BF92CF92DF92EF92FF92CF93DF9363
:101340008EE00E94CF21EC018090390190903A010B
:10135000A0903B01B0903C012091350130913601C5
:101360004091370150913801C501B4010E941A1B08
:101370009B01AC0160E070E080E490E40E948C1B73
:101380006B017C019B01AC01C501B4010E94E61C0C
:101390009B01AC0160E070E080EE90E40E941A1BBB
:1013A0004B015C01BE01DD0F880B990B0E94361CBE
:1013B000A70196010E94E61C9B01AC01C501B40186
:1013C0000E941B1BDF91CF91FF90EF90DF90CF9099
:1013D000BF90AF909F908F900895CF93DF93EC01D3
:1013E0000E945111CE010E947F24EC010E940D1237
:1013F000209711F40E94EA16CE01DF91CF91089553
:10140000CF93DF93009751F0EC010E945111CE0170
:101410000E941725DF91CF910C940D12DF91CF918F
:101420000895FC010396928381832FEF3FEF34836D
:101430002383968385839087878310820895FC0198
:10144000118610860895CF93DF939C01FB01DC0188
:101450001196CD91DC911297D383C2838C819D81AB
:10146000958384838C819D81DC0113967C936E939C
:1014700012977D836C8331872087F90180818F5F8C
:101480008083DF91CF9108950F931F93CF93DF93C4
:101490008C01FB01808191818F3F2FEF920721F416
:1014A000E801AF81B8850EC0D801139612962D9130
:1014B0003C911397E901488159818417950710F0F1
:1014C000D901F4CF12968D919C91139793838283C7
:1014D000EC01FD83EC83B583A4831396FC93EE9318
:1014E000129711870087F80180818F5F8083DF91D9
:1014F000CF911F910F910895CF93DF93FC01A085A9
:10150000B1858281938124813581EC013D832C83D7
:10151000C481D5819B838A8311968D919C9112976A
:10152000E817F90721F41296DC93CE9311971186F0
:1015300010868C9181508C938C91DF91CF9108957E
:1015400031E1FC013083319722E220833197A3E31C
:10155000A0833197608331977083319710823197E0
:1015600060E8608331971082319762E06083319741
:1015700063E06083319764E06083319765E0608366
:10158000319766E06083319767E06083319768E068
:101590006083319769E06083319760E160833197C0
:1015A0003083319732E13083319733E130833197A3
:1015B00034E13083319735E13083319736E1308340
:1015C000319737E13083319738E13083319739E112
:1015D0003083319730E23083319731E23083319775
:1015E0002083319723E220833197408331975083C2
:1015F000319726E22083319727E22083319728E232
:101600002083319729E22083319720E3208331978B
:1016100021E3208386970895A89590EC88E10FB682
:10162000F894A895809360000FBE90936000A091FD
:10163000F103B091F203CD91CDBFDD91DEBFFF91FB
:10164000EF91DF91CF91BF91AF919F918F917F915A
:101650006F915F914F913F912F911F910F91FF904B
:10166000EF90DF90CF90BF90AF909F908F907F9042
:101670006F905F904F903F902F901F900F900FBEF4
:101680000F90089581E008950F920FB6F8940F928D
:101690001F9211242F923F924F925F926F927F92EE
:1016A0008F929F92AF92BF92CF92DF92EF92FF9272
:1016B0000F931F932F933F934F935F936F937F935A
:1016C0008F939F93AF93BF93CF93DF93EF93FF934A
:1016D000A091F103B091F2030DB60D920EB60D92EA
:1016E0000E94C912A091F103B091F203CD91CDBF38
:1016F000DD91DEBFFF91EF91DF91CF91BF91AF916F
:101700009F918F917F916F915F914F913F912F9119
:101710001F910F91FF90EF90DF90CF90BF90AF900F
:101720009F908F907F906F905F904F903F902F9001
:101730001F900F900FBE0F9008950F920FB6F89460
:101740000F921F9211242F923F924F925F926F92AD
:101750007F928F929F92AF92BF92CF92DF92EF9241
:10176000FF920F931F932F933F934F935F936F932A
:101770007F938F939F93AF93BF93CF93DF93EF9319
:10178000FF93A091F103B091F2030DB60D920EB646
:101790000D9213BE0E94611181110E94C912A09185
:1017A000F103B091F203CD91CDBFDD91DEBFFF918A
:1017B000EF91DF91CF91BF91AF919F918F917F91E9
:1017C0006F915F914F913F912F911F910F91FF90DA
:1017D000EF90DF90CF90BF90AF909F908F907F90D1
:1017E0006F905F904F903F902F901F900F900FBE83
:1017F0000F9008950E949D0B18950FB6F8940F92C4
:10180000FC01928D0F900FBE81E0911180E0089550
:101810000F931F93CF93DF93EC01042F1A8D4C8D00
:1018200041110BC088819981892BE9F58C819D81BB
:101830000E9443141D821C8237C050E0011115C064
:101840008A819B810E94BE252C8D8A819B81820F7B
:10185000911D9B838A832C813D818217930718F108
:10186000888199819B838A831EC08E819F810E947B
:10187000BE258C8D90E09195819591092E813F81B7
:10188000280F391F3F832E8348815981241735073C
:1018900030F42C813D81820F931F9F838E83023011
:1018A00011F41111115080E01F5F1A8FDF91CF9159
:1018B0001F910F910895FC01CB01448D4423A1F0A9
:1018C00050E026813781240F351F378326836481BA
:1018D00075812617370720F02081318137832683D1
:1018E000668177810C94BE250895EF92FF921F9335
:1018F000CF93DF93EC010FB6F8940F921E8D7C010D
:1019000081E1E80EF11C11165CF48989882341F00D
:10191000C7010E94501381110E94CE131150F3CFC2
:101920008FEF8E8F0F900FBE0FB6F8940F921D8D14
:101930007E0188E0E80EF11C11165CF4888588238E
:1019400041F0C7010E94501381110E94CE13115023
:10195000F3CF8FEF8D8F0F900FBEDF91CF911F913F
:10196000FF90EF900895CF93DF93EC010FB6F894BA
:101970000F92488159818B8D7C8D9A01879F200D14
:10198000311D11243D832C831A8E5B834A8390E0A2
:101990000197789F9001799F300D1124CA01820F21
:1019A000931F9F838E838FEF8D8F8E8F61110CC05D
:1019B0008885882389F0CE0108960E9450138823D9
:1019C00059F00E94440B08C0CE0108960E94110AEB
:1019D000CE0141960E94110A0F900FBE81E0DF9167
:1019E000CF9108950F931F93CF93DF93082F162F56
:1019F000662321F0869FC001112402C080E090E0A0
:101A00004F960E94ED09EC01009771F0111103C08F
:101A10009983888303C04F96998388830B8F1C8F8B
:101A200061E0CE010E94B30CCE01DF91CF911F91F6
:101A30000F910895AF92BF92CF92DF92FF920F93D2
:101A40001F93CF93DF9300D000D01F92CDB7DEB7A6
:101A50008C016B015D834C83F22E80E0580198E08D
:101A6000A90EB11C0FB6F8940F92F801228D938D38
:101A7000291718F0F2E0FF1214C04F2DB601C8016B
:101A80000E94080CF8019189992321F0C801419620
:101A90000E94501381110E94440B0F900FBE81E0F1
:101AA00050C02C813D81232B19F40F900FBE48C0EC
:101AB000811104C0CE0101960E9490130F900FBEB9
:101AC0000E9451110FB6F8940F92F801858D8F3F47
:101AD00009F4158EF801868D8F3F09F4168E0F904C
:101AE0000FBEBE016C5F7F4FCE0101960E949B131B
:101AF000811121C00FB6F8940F92F801928D838D59
:101B00000F900FBE981311C06C817D81C5010E949A
:101B10002713C8010E94750C0E940D12882311F032
:101B200081E0A0CF0E94440BFBCFC8010E94750C3E
:101B30000E940D12F5CFC8010E94750C0E940D1273
:101B400080E00F900F900F900F900F90DF91CF914A
:101B50001F910F91FF90DF90CF90BF90AF900895AD
:101B6000EF92FF921F93CF93DF93EC019A8D8B8DB1
:101B7000981710F02230E1F47A011E8D422FCE0129
:101B80000E94080C1F3F81F48989882379F0CE01D7
:101B900041960E945013882349F0E114F10431F07A
:101BA00081E0F701808305C01F5F1E8F81E001C0C7
:101BB00080E0DF91CF911F91FF90EF900895CF9338
:101BC000DF93FC01928D838D9817C0F4868D9F5F03
:101BD000928F8F3F79F48189882371F0EB01CF01D7
:101BE00041960E945013882339F0209729F081E014
:101BF000888305C08F5F868F81E001C080E0DF9120
:101C0000CF910895AF92BF92CF92DF92FF920F9340
:101C10001F93CF93DF9300D000D01F92CDB7DEB7D4
:101C20008C016B015D834C8380E0580191E1A90E2A
:101C3000B11C0FB6F8940F92F801F28CFF20A9F0B6
:101C4000B601C8010E945B0CFA94F801F28E8085FF
:101C5000882339F0C80108960E94501381110E9410
:101C6000440B0F900FBE81E050C02C813D81232B8F
:101C700019F40F900FBE48C0811104C0CE01019627
:101C80000E9490130F900FBE0E9451110FB6F8944E
:101C90000F92F801858D8F3F09F4158EF801868D1E
:101CA0008F3F09F4168E0F900FBEBE016C5F7F4F01
:101CB000CE0101960E949B1381111CC0C8010E9495
:101CC000FD0B882389F06C817D81C5010E9427135B
:101CD000C8010E94750C0E940D12882311F081E04A
:101CE000A8CF0E94440BFBCFC8010E94750C0E9434
:101CF0000D12F5CFC8010E94750C0E940D12C8018B
:101D00000E94FD0B882359F380E00F900F900F90F5
:101D10000F900F90DF91CF911F910F91FF90DF9067
:101D2000CF90BF90AF900895CF92DF92FF920F9324
:101D30001F93CF93DF9300D000D01F92CDB7DEB7B3
:101D40008C017D836C83F12C90E0680181E1C80EE9
:101D5000D11C0FB6F8940F92D8015A968C915A97CD
:101D60008823E9F081505A968C935A978D919C91D3
:101D7000892B29F40E94C414F80195838483D80127
:101D800018968C91882339F0C80108960E94501348
:101D900081110E94440B0F900FBE81E07AC02C810C
:101DA0003D81232B09F472C0911104C0CE0101962C
:101DB0000E9490130F900FBE0E9451110FB6F8941D
:101DC0000F92F801858D8F3F09F4158ED8015E962C
:101DD0008C915E978F3F11F45E961C920F900FBE10
:101DE000BE016C5F7F4FCE0101960E949B13811153
:101DF0002BC0C8010E94FD0B882301F1F8018081EE
:101E00009181892B51F40FB6F8940F9284819581BA
:101E10000E94E013F82E0F900FBE6C817D81C601E9
:101E20000E942713C8010E94750C0E940D1288237E
:101E300011F091E08ECF0E94440BFBCFC8010E94AD
:101E4000750C0E940D12F5CFC8010E94750C0E94FE
:101E50000D12C8010E94FD0B882359F3FF20C1F029
:101E60000FB6F8940F92F8018189882339F006881B
:101E7000F789E02D808164E0681B01C060E0D80133
:101E800014968D919C9115970E947D140F900FBE12
:101E900080E00F900F900F900F900F90DF91CF91F7
:101EA0001F910F91FF90DF90CF900895CF93DF9314
:101EB000EC010FB6F8940F928D8D8F3F09F41D8EB3
:101EC0008E8D8F3F09F41E8E0F900FBE8A8D81116B
:101ED00004C0CE0141960E943813CE01DF91CF910C
:101EE0000C94750CE091B903F091BA0380818111D3
:101EF00003C08FEF9FEF0CC0E091B903F091BA03DC
:101F00000580F681E02D0680F781E02D82819381A6
:101F100090939103809390030895FF920F931F93E2
:101F2000CF93DF93EC01F62E009198031091990363
:101F30008091F1039091F20302960E947C0ACF3FB8
:101F40008FEFD80789F4FF2079F06091F103709149
:101F5000F2036E5F7F4F8BE993E0DF91CF911F918A
:101F60000F91FF900C94230AC00FD11FE091F10351
:101F7000F091F203D383C2836091F1037091F20375
:101F8000C017D10768F48091B7039091B8036E5FD2
:101F90007F4FDF91CF911F910F91FF900C94440AD6
:101FA0008091B9039091BA036E5F7F4F0E94440AFB
:101FB0008091900390919103C817D90720F4D09392
:101FC0009103C0939003DF91CF911F910F91FF90E8
:101FD00008958091A403882309F10FB6F8940F9215
:101FE000E091AA03F091AB03C681D781CE0102969E
:101FF0000E947C0A80919A03815080939A03809179
:10200000A40381508093A4030F900FBE8F89988DF5
:102010000E94000ACE010E94000ADBCF8091CD030E
:10202000823010F00E94440B0E94E116D2CF5F92E2
:102030006F927F928F929F92AF92BF92CF92DF92D8
:10204000EF92FF920F931F93CF93DF933C016B01AD
:102050005A014901502ECA010E94ED098C01892BB9
:1020600009F4E0C088E290E00E94ED09EC01892BC0
:10207000C9F0188F0F8BA50165EA70E0C8010E94B6
:10208000C72521E0A21AB1088F89988DA80EB91E24
:10209000C114D104C9F0BE01675E7F4FF601C601CD
:1020A000089607C0C8010E94000ABCC0E817F907DB
:1020B00049F09F014191DB014D93BD01D9012C9164
:1020C0002111F4CF18A201C0198E052D043008F09B
:1020D00003E00E8B09A31AA26E01B2E0CB0ED11C55
:1020E000C6010E941F0ACE010C960E941F0AD987C2
:1020F000C88784E090E0801B91099D878C87DB8BEB
:10210000CA8B1BA21CA21DA21EA21FA2A401B30166
:10211000C5010E94A00A99838883E114F10419F093
:10212000F701D183C0830FB6F8940F9280919A0380
:102130008F5F80939A038091F1039091F203892B32
:10214000D1F5D093F203C093F10380919A038130CB
:1021500009F041C08DEC93E00E94110A86ED93E0F6
:102160000E94110A8FED93E00E94110A88EE93E01D
:102170000E94110A84EC93E00E94110A8BEB93E019
:102180000E94110A8EEA93E00E94110A85EA93E008
:102190000E94110A8BE993E00E94110A84EC93E0FB
:1021A0009093BA038093B9038BEB93E09093B803B9
:1021B0008093B70310C08091960381110CC0E09109
:1021C000F103F091F20396898E89891720F0D0935C
:1021D000F203C093F103809192038F5F8093920387
:1021E0008E8990919703981710F480939703F9E0E4
:1021F0008F9FC0011124B60183539C4F0E94230A74
:102200000F900FBE80919603882351F0E091F10367
:10221000F091F20396898E89981710F40E94440B6E
:1022200081E001C08FEFDF91CF911F910F91FF905F
:10223000EF90DF90CF90BF90AF909F908F907F9066
:102240006F905F900895EF92FF920F938EE8E82EC3
:1022500083E0F82E00E020E030E040EC50E066E063
:1022600072E089EE9FE00E9417108130B1F40E9465
:102270002915813091F4F8942FEF3FEF30939103BB
:1022800020939003809396031092990310929803E1
:102290000F91FF90EF900C940C0B0F91FF90EF902B
:1022A000089580918D038F5F80938D0308950FB6FD
:1022B000F8940F9280919803909199030F900FBE1C
:1022C0000895CF92DF92EF92FF920F931F93CF93D7
:1022D000DF9380918D0381118CC000919803109140
:1022E00099030F5F1F4F10939903009398030115F3
:1022F0001105B9F48091B9039091BA032091B70305
:102300003091B8033093BA032093B9039093B80384
:102310008093B703809193038F5F809393030E9410
:10232000720F8091900390919103C0E008171907F4
:1023300008F44FC0D9E0E091B903F091BA0380816D
:10234000811103C08FEF9FEF11C0E091B903F091AD
:10235000BA030580F681E02DE680F780D70112965A
:102360008D919C9113970817190728F49093910366
:10237000809390032EC06701B2E0CB0ED11CC60142
:102380000E947C0AF70184899589892B21F0C70175
:102390000C960E947C0AD70156968C9190919703D7
:1023A000981710F480939703D89FC0011124B601A9
:1023B00083539C4F0E94230AE091F103F091F203B2
:1023C000D70156969C918689981708F4B4CFC1E03E
:1023D000B2CFE091F103F091F203E689B9E0EB9F0F
:1023E000F0011124E353FC4F8081823040F0C1E0C2
:1023F00006C0809195038F5F80939503C0E0809124
:1024000094038111C1E08C2FDF91CF911F910F9127
:10241000FF90EF90DF90CF900895EF92FF920F938F
:102420001F93CF93DF930FB6F8940F9280918D0393
:10243000815080938D0380918D03882311F080E07B
:1024400052C080919A038823D1F3C0E0D0E089E0A4
:10245000F82EEE24E3948091AE03882351F1E091AD
:10246000B303F091B403C681D781CE010C960E94CC
:102470007C0A8E010E5F1F4FC8010E947C0A8E8964
:1024800090919703981710F480939703F89EC001DA
:102490001124B80183539C4F0E94230AE091F10359
:1024A000F091F2039E8986899817A8F2E09294032E
:1024B000D2CFCD2B11F00E94720FC0919503CC2387
:1024C00051F0D1E00E9461118111D0939403C15069
:1024D000C9F71092950380919403882309F4AFCF34
:1024E0000E94440B81E00F900FBEDF91CF911F91AE
:1024F0000F91FF90EF9008950F931F93CF93DF9369
:102500008C01EB010E945111409198035091990365
:10251000F80120813181C9018C0F9D1F421753079B
:1025200020F48217930740F403C08217930730F01A
:1025300021E04817590718F020E001C021E0F80118
:1025400091838083222329F060E0841B950B0E94F5
:102550008D0F0E940D12811102C00E94440BDF9169
:10256000CF911F910F910895CF93DF93EC01892BA9
:1025700019F40E94440B0AC00E94511160E0CE0180
:102580000E948D0F0E940D12882399F3DF91CF9145
:10259000089580918D03882321F081E08093940336
:1025A000089510929403A091F103B091F203E09189
:1025B000F103F091F2032D913C918789908D821760
:1025C000930760F06091F1037091F2038091F10341
:1025D0009091F203675E7F4F0E94F71680919703F8
:1025E00069E0482F50E0649F9001659F300D1124F1
:1025F000F901E353FC4F9081911102C08150F1CF5A
:10260000A181B28112960D90BC91A02DB283A183BD
:1026100020533C4FA217B30731F412962D913C91F1
:1026200013973283218399E0949FF001959FF00DD9
:102630001124E353FC4F0180F281E02D2681378184
:102640003093F2032093F103809397030895CF937F
:10265000DF93EB016091F1037091F203645F7F4FB0
:102660000E94440A61E0CE01DF91CF910C948D0F5E
:102670001F93CF93DF93EB01142F6091F1037091BF
:10268000F203645F7F4F0E94230A112311F0CFEF02
:10269000DFEF612FCE01DF91CF911F910C948D0F51
:1026A0000F931F93CF93DF93DC011596ED91FC916F
:1026B0001697C681D7818E01045F1F4FC8010E9403
:1026C0007C0A80918D03811114C00A501109C80140
:1026D0000E947C0A8E8990919703981710F480933A
:1026E0009703B9E08B9FC0011124B80183539C4F1D
:1026F00003C0B8018EEA93E00E94230AE091F1033F
:10270000F091F2039E898689891720F481E08093F5
:10271000940301C080E0DF91CF911F910F91089544
:1027200020919303FC012083209198033091990319
:10273000328321830895CF93DF930FB6F8940F92DD
:102740004091980350919903DB012D913C912F3FCB
:10275000BFEF3B07D9F0EC01E981FA81A091930327
:10276000B881BA1719F04E175F0790F44E1B5F0B34
:10277000FB014217530738F4241B350B31832083A8
:102780000E94901303C01182108202C080E001C039
:1027900081E00F900FBEDF91CF91089581E080938B
:1027A0009403089580919603882331F080918D03DE
:1027B000882321F080E0089581E0089582E0089563
:1027C0000F931F93CF93DF93FC01892B09F455C01E
:1027D0008689A091F103B091F20356969C918917D6
:1027E00008F041C02485358537FD0CC0A091F10368
:1027F000B091F20356969C9124E030E0291B3109F8
:102800003587248729E0829FC001112483539C4F80
:102810002285338528173907E9F48F01EF012296C5
:10282000CE010E947C0AE091F103F091F2038689C7
:10283000F801868B90919703981710F48093970373
:10284000F9E08F9FC0011124BE0183539C4F0E9469
:10285000230A07C0A091F103B091F20356968C9120
:10286000868B81E00BC0A091F103B091F20381E06F
:1028700021A156969C91291708F080E0DF91CF9115
:102880001F910F9108950F931F93CF93DF93FC0136
:10289000892B11F480E02CC082A1815082A326896B
:1028A00091A12917B9F38111F5CFEF018F010E5FC7
:1028B0001F4FC8010E947C0A89A18E8B482F50E0CF
:1028C00024E030E0241B350B3D872C879091970343
:1028D000981710F48093970329E0249FC001259F47
:1028E000900D1124B80183539C4F0E94230A81E06C
:1028F000DF91CF911F910F9108950F931F93CF9365
:10290000DF93FC01892BD9F191A1961708F4962F3A
:1029100086898917A1F122A1213089F5968B24851A
:10292000358537FD06C024E030E0291B31093587A5
:10293000248729E0829FC001112483539C4F228564
:10294000338528173907D9F4EF018F010E5F1F4F28
:10295000C8010E947C0A8E8990919703981710F401
:102960008093970329E0829FC0011124B80183530B
:102970009C4FDF91CF911F910F910C94230ADF910F
:10298000CF911F910F9108958091F1039091F203DF
:10299000892B39F0E091F103F091F20382A18F5F6E
:1029A00082A38091F1039091F20308950FB6F894F9
:1029B0000F928091F7039091F803892BE9F486E058
:1029C00094E00E94110A8DEF93E00E94110A86E0C4
:1029D00094E09093FC038093FB038DEF93E090933E
:1029E000FA038093F90340E065E08AE00E94F20C6C
:1029F0009093F8038093F7030F900FBE0895FC01A6
:102A000073836283918780874617570778F0421B4C
:102A1000530B8485958548175907C8F4BF016E5F2D
:102A20007F4F8091F9039091FA030DC0421753072D
:102A300018F46217730758F4BF016E5F7F4F8091DF
:102A4000FB039091FC030E94440A80E0089581E01A
:102A50000895EF92FF920F930E94D6148091F7038E
:102A60009091F803892B81F085EFE82E83E0F82E12
:102A700003E020E030E045E550E06BE072E089EDF6
:102A800095E10E94171001C080E00F91FF90EF9038
:102A900008950F931F93CF93DF9300D000D01F9220
:102AA000CDB7DEB7A091F703B091F803109729F1E5
:102AB000F90169835B834A839D838C836630A4F428
:102AC0000E94D213E091F703F091F80320E08230E6
:102AD00011F4A80102C040E050E0BE016F5F7F4FDB
:102AE000CF010E941A0D0AC020E0AF01BE016F5F46
:102AF0007F4FCD010E94B00D01C080E00F900F907C
:102B00000F900F900F90DF91CF911F910F9108952B
:102B1000EF92FF920F931F93CF93DF93E091FB030C
:102B2000F091FC038081882389F10580F681E02DF6
:102B3000E080F180C681D7818E010E5F1F4FC801F2
:102B40000E947C0AE889F989CE0109958A8982FF69
:102B5000E5CF8C859D858E0D9F1DE816F90660F4E6
:102B60009B838A83D987C887B8018091FB039091A2
:102B7000FC030E94440AD2CF00E010E020E030E0E5
:102B8000A70160E0CE010E944915C8CF8091F903EA
:102B90009091FA039093FC038093FB03F093FA0364
:102BA000E093F903DF91CF911F910F91FF90EF9088
:102BB0000895CF93DF9300D000D01F92CDB7DEB73A
:102BC000E091FB03F091FC03D080DD2031F0058023
:102BD000F681E02DE080F18002C0E12CF12C0E9412
:102BE00051110E9457118C018091F3039091F403CD
:102BF0000817190720F40E94881581E001C080E0C1
:102C00001093F4030093F303811155C0DD20D9F133
:102C10000E151F0508F43EC00E940D12E091FB0343
:102C2000F091FC030580F681E02DC680D780C601B7
:102C300002960E947C0AD60152968C91529782FF8E
:102C400017C01C966D917C911D976E0D7F1D97018D
:102C5000A801C6010E94FF14882369F000E010E07B
:102C600020E030E0A70160E0C6010E94491503C0E2
:102C70008E7FF601828BD6015096ED91FC91519793
:102C8000C60109951EC0E091F903F091FA03808115
:102C900041E0811140E0B701601B710B8091F703A7
:102CA0009091F8030E94560F0E940D12811109C0E5
:102CB0000E94440B06C00E940D1203C0898187FF49
:102CC0000EC040E050E0BE016F5F7F4F8091F70380
:102CD0009091F8030E94020E8111F0CF71CFEC8029
:102CE000FD80F70182859385892B21F0C70102962B
:102CF0000E947C0A0E9457116C018091F30390910D
:102D0000F403C816D90610F40E948815D092F40373
:102D1000C092F303E9810E2E000CFF0BEA30F1059F
:102D200080F6EC5CFF4FD70152968C910C944B24AB
:102D30008160F701828B2A813B8164857585620FF2
:102D4000731FA601C7010E94FF14882309F4B9CF9D
:102D5000D7015096ED91FC915197C7010995F70164
:102D6000828982FFAECF4A815B8184859585480F39
:102D7000591F00E010E020E030E060E0C7010E9451
:102D800049159FCF8160F701828B6A817B817587AE
:102D900064876C0D7D1D9601A601C7010E94FF147A
:102DA00090CF81FD04C0C7010E94000A8ACF8E7FA8
:102DB000D70152968C9385CF0E9424060E9423113E
:102DC00008950E949A0680E99DE1892B11F00C94E8
:102DD000901D0895259A2D9A2FEF80E792E02150BB
:102DE00080409040E1F700C000001D9AF5CF259A81
:102DF0002D9A2FEF87EA91E6215080409040E1F72D
:102E000000C000001D9AF5CF0F931F93FC018FEFB8
:102E1000808381838283838384838AE0858316828F
:102E2000DF011796739600E717E120E030E048EDE8
:102E300056ED60E070E00D931D932D933D93189631
:102E40004D935D936D937C931B97AE17BF0799F7D6
:102E50001F910F910895FF920F931F93CF93DF93CC
:102E6000EC01F62E042F122F0E940417FB820C8314
:102E70001883DF91CF911F910F91FF9008950895CE
:102E8000CF93DF93EC018B818F3FE9F09C819F3FD3
:102E9000D1F0613049F030F0623041F0633099F4A4
:102EA00061E009C060E007C061E001C060E00E942D
:102EB000B02261E003C00E94B02260E08C81DF910B
:102EC000CF910C94B022DF91CF910895CF93DF93EF
:102ED000EC0189818F3FE9F09A819F3FD1F0613009
:102EE00049F030F0623041F0633099F460E009C09D
:102EF00061E003C061E005C060E00E94B02261E0D3
:102F000003C00E94B02260E08A81DF91CF910C94CF
:102F1000B022DF91CF910895FC0120812F3F29F04D
:102F200091E06927822F0C94B022662319F0FC01EE
:102F3000668101C063E00C946617CF93DF93EC01C8
:102F400089818F3F19F061E00E9474228A818F3F4E
:102F500019F061E00E9474228B818F3F19F061E0CB
:102F60000E9474228C818F3F19F061E00E947422CC
:102F700088818F3F19F061E00E94742260E0CE01E9
:102F80000E948C176E81CE01DF91CF910C94661751
:102F9000DC01FB01309759F09B968C919B978083C5
:102FA0009C968C919C9781839D968C9182830895A9
:102FB0004F925F926F927F928F929F92AF92BF9249
:102FC000DF92EF92FF920F931F93CF93DF938C01C9
:102FD000095F1F4FEC017C0183E1E80EF11CDD2449
:102FE000DA94F801D8018D909D90AD90BD908D013F
:102FF000808D918DA28DB38D9C01AD012819390969
:103000004A095B09AFEFB0E00E945124F801408407
:10301000518462847384A3019201281939094A09F1
:103020005B090E942C2457FF02C01BA609C02F3F3A
:1030300031054105510519F014F0DBA601C02BA79D
:1030400021960E151F0569F6DF91CF911F910F9103
:10305000FF90EF90DF90BF90AF909F908F907F9008
:103060006F905F904F9008950F931F93CF93DF93CE
:103070008C01C62F613049F018F06230D9F04CC095
:1030800010920F0461E00E948C17E0910F04F0E0B1
:10309000ED5EFD4F6081C8010E944017F801658117
:1030A00070E088EE93E00E94F623CB010E94DF22BD
:1030B000C2E032C00E945723882371F1E0910F04CF
:1030C00081E08E0F80930F04F0E0ED5EFD4FC08134
:1030D000D0E00E945A239B01AC01CC0FDD1FCC0F26
:1030E000DD1FC00FD11FF801A581B0E00E9451245F
:1030F0006F8F78A389A39AA380910F04833058F02F
:103100000E94682360E0C8010E948C17C8010E94D9
:10311000D817C0E001C0C1E08C2FDF91CF911F9183
:103120000F910895CF93DF93EC0160E00E94341873
:103130008EA7DF91CF910895CF93DF93EC016EA519
:103140000E943418982F8EA781E0911180E0DF91C2
:10315000CF91089580E090E008952091520430913D
:10316000530428173907B9F4909110048091110481
:10317000981789F0E0911004F0E0EE5EFB4F80813B
:103180002091100430E02F5F3F4F2F73332720939F
:10319000100490E008958FEF9FEF08951F93CF9351
:1031A000DF93DC015C968D919C915D97009739F4DB
:1031B00021E030E013963C932E9312973BC051963A
:1031C000ED91FC91529750962C915097322F30955B
:1031D0001FB75E964C915E97742F727041FD60959B
:1031E000F8944081772311F0422B01C043234083A0
:1031F000EC012197F1F748E0508160FF02C0522BAB
:1032000001C053235083EC012197F1F7669541509B
:1032100099F78081772319F08323808302C0282BBC
:1032200020831FBF5C968D919C915D970197F1F76C
:1032300081E090E0DF91CF911F9108950895209152
:103240005204309153042817390771F490911004F7
:1032500080911104981741F0E0911004F0E0EE5EC7
:10326000FB4F808190E008958FEF9FEF08952091AC
:103270005204309153042817390771F480911104D6
:103280002091100490E0805C9F4F821B910960E4C4
:1032900070E00E94F623089580E090E00895E091A8
:1032A0005204F0915304E817F90769F4A389B4892B
:1032B0009C918589809589238C9310925304109258
:1032C000520481E0089580E00895CF93DF93EC01EC
:1032D0008A8D9B8D892BF1F080915204909153043B
:1032E000C817D907B9F0009711F00E944F198E8DB9
:1032F0008E7F8E8F1092110410921004D09353047D
:10330000C0935204EB89FC8990818D89892B80833D
:1033100081E001C080E0DF91CF9108951F920F926C
:103320000FB60F9211242F933F934F935F936F9398
:103330007F938F939F93AF93BF93EF93FF93E0910E
:103340005204F0915304309709F451C0968DA6852C
:10335000B785858591FF04C09C91892329F447C0D6
:103360009C91892309F043C0A389B4899C918589E4
:10337000809589238C93868997890197F1F7608DD1
:10338000718DA685B785558538E020E0CB01019782
:10339000F1F7822F90E095958795282F4C91452342
:1033A00009F02068315091F7868D81FD209580913C
:1033B000110490E001968F7399273091100438170B
:1033C00049F0A0911104B0E0AE5EBB4F2C93809306
:1033D000110403C0868D8160868F828D938D019745
:1033E000F1F7A389B4899C918589892B8C93FF91EE
:1033F000EF91BF91AF919F918F917F916F915F916D
:103400004F913F912F910F900FBE0F901F901895E5
:103410002AE132E0FC01318320830C944F191F9381
:10342000CF93DF93EC01162F6E8D6695617081E06E
:103430006827812F0E94B02261E0812F0E947422B0
:10344000812F90E0FC01EA53FF4FE491E88BFC01EF
:10345000E652FF4FE491F0E0EE0FFF1FE850FF4F00
:10346000859194919A8B898BDF91CF911F910895CB
:103470001F93CF93DF93EC01162F60E0812F0E9402
:1034800074228E8D81FD04C061E0812F0E94B022E4
:103490001C87812F90E0FC01EA53FF4FE491ED87F8
:1034A000FC01E652FF4FE491F0E0EE0FFF1FE25106
:1034B000FF4F859194919F878E87DF91CF911F91C8
:1034C00008951F93CF93DF93EC01162F1B821A826E
:1034D00088EE93E0A0E0B0E08C839D83AE83BF8351
:1034E0008AE192E0998388831F8A1E8A198E188E3A
:1034F0001B8E1A8E1D8E1C8E8E8D8E7F20FB81F969
:103500008E8F642FCE010E940F1A612FCE01DF91A2
:10351000CF911F910C94381ACF93DF93EC019A014D
:10352000AB011B8E1A8E198E188E1F8A1E8A60E0C0
:1035300079E08DE390E00E942C24F90124303105DC
:1035400018F0C901039702C081E090E09D8F8C8F35
:103550006C85663108F069C0C901969587958431FC
:10356000910510F0439702C081E090E09F8B8E8B15
:10357000369718F0C901059702C081E090E0998F55
:10358000888FC901880F991F280F391F36952795F5
:10359000369527952D30310518F02C50310902C091
:1035A00021E030E03B8F2A8F90916800683050F026
:1035B00021E06E3008F420E081E001C0880F2A95F8
:1035C000EAF701C084E0892B809368009C859830DD
:1035D00038F09E3040F0963148F020E030E008C0EE
:1035E0002DE630E005C02BE630E002C02CE630E0EE
:1035F0003C8B2B8B983030F481E001C0880F9A957A
:10360000EAF70EC0292F30E09E3018F42850310917
:1036100002C02E50310981E001C0880F2A95EAF7D7
:103620008D8B8C8D9D8D0197F1F7CE01DF91CF9120
:103630000C9465195058BB27AA270E94321B0C9482
:10364000AC1C0E949E1C38F00E94A51C20F039F48E
:103650009F3F19F426F40C949B1C0EF4E095E7FBB5
:103660000C94951CE92F0E94BD1C58F3BA176207F1
:1036700073078407950720F079F4A6F50C94DF1CF6
:103680000EF4E0950B2EBA2FA02D0B01B90190017D
:103690000C01CA01A0011124FF27591B99F0593FC1
:1036A00050F4503E68F11A16F040A22F232F342F09
:1036B0004427585FF3CF469537952795A795F04057
:1036C0005395C9F77EF41F16BA0B620B730B840B6C
:1036D000BAF09150A1F0FF0FBB1F661F771F881F24
:1036E000C2F70EC0BA0F621F731F841F48F487957C
:1036F00077956795B795F7959E3F08F0B0CF93956E
:10370000880F08F09927EE0F9795879508950E94E6
:10371000711C08F481E008950E94A01B0C94AC1C5D
:103720000E94A51C58F00E949E1C40F029F45F3FA7
:1037300029F00C94951C51110C94E01C0C949B1CCA
:103740000E94BD1C68F39923B1F3552391F3951B97
:10375000550BBB27AA2762177307840738F09F5FB2
:103760005F4F220F331F441FAA1FA9F335D00E2E1F
:103770003AF0E0E832D091505040E695001CCAF78C
:103780002BD0FE2F29D0660F771F881FBB1F26174F
:1037900037074807AB07B0E809F0BB0B802DBF0126
:1037A000FF2793585F4F3AF09E3F510578F00C94F5
:1037B000951C0C94E01C5F3FE4F3983ED4F386958F
:1037C00077956795B795F7959F5FC9F7880F911D16
:1037D0009695879597F90895E1E0660F771F881F02
:1037E000BB1F621773078407BA0720F0621B730BB5
:1037F000840BBA0BEE1F88F7E09508950E94051C14
:103800006894B1110C94E01C08950E94C51C88F0C6
:103810009F5798F0B92F9927B751B0F0E1F0660F94
:10382000771F881F991F1AF0BA95C9F714C0B130D5
:1038300091F00E94DF1CB1E008950C94DF1C672F0B
:10384000782F8827B85F39F0B93FCCF38695779504
:103850006795B395D9F73EF49095809570956195ED
:103860007F4F8F4F9F4F0895E89409C097FB3EF418
:1038700090958095709561957F4F8F4F9F4F9923BD
:10388000A9F0F92F96E9BB279395F695879577953B
:103890006795B795F111F8CFFAF4BB0F11F460FFFB
:1038A0001BC06F5F7F4F8F4F9F4F16C0882311F053
:1038B00096E911C0772321F09EE8872F762F05C067
:1038C000662371F096E8862F70E060E02AF09A9502
:1038D000660F771F881FDAF7880F9695879597F9F7
:1038E0000895990F0008550FAA0BE0E8FEEF161691
:1038F0001706E807F907C0F012161306E407F507E4
:1039000098F0621B730B840B950B39F40A2661F057
:10391000232B242B252B21F408950A2609F4A140FA
:10392000A6958FEF811D811D089597F99F6780E807
:1039300070E060E008959FEF80EC089500240A9401
:103940001616170618060906089500240A9412167A
:103950001306140605060895092E0394000C11F4AD
:10396000882352F0BB0F40F4BF2B11F460FF04C05A
:103970006F5F7F4F8F4F9F4F089557FD9058440FB3
:10398000551F59F05F3F71F04795880F97FB991FBE
:1039900061F09F3F79F0879508951216130614067B
:1039A000551FF2CF4695F1DF08C016161706180608
:1039B000991FF1CF86957105610508940895E894E3
:1039C000BB2766277727CB0197F908950E94F91C3A
:1039D0000C94AC1C0E949E1C38F00E94A51C20F088
:1039E000952311F00C94951C0C949B1C11240C94A1
:1039F000E01C0E94BD1C70F3959FC1F3950F50E031
:103A0000551F629FF001729FBB27F00DB11D639F90
:103A1000AA27F00DB11DAA1F649F6627B00DA11D36
:103A2000661F829F2227B00DA11D621F739FB00DDC
:103A3000A11D621F839FA00D611D221F749F33274C
:103A4000A00D611D231F849F600D211D822F762FE5
:103A50006A2F11249F5750409AF0F1F088234AF0C2
:103A6000EE0FFF1FBB1F661F771F881F915050402E
:103A7000A9F79E3F510580F00C94951C0C94E01C16
:103A80005F3FE4F3983ED4F3869577956795B795B5
:103A9000F795E7959F5FC1F7FE2B880F911D9695CF
:103AA000879597F90895FC01918D228D892F90E0DB
:103AB000805C9F4F821B91098F7399270895FC01A9
:103AC000918D828D981731F0828DE80FF11D858DD3
:103AD00090E008958FEF9FEF0895FC01918D828D06
:103AE000981761F0828DDF01A80FB11D5D968C9152
:103AF000928D9F5F9F73928F90E008958FEF9FEF5D
:103B00000895FC01538D448D252F30E0842F90E0E3
:103B1000821B930B541710F0CF96089501970895C8
:103B20008CEE9EE1892B49F080E090E0892B29F012
:103B30000E94EC1E81110C9400000895FC01848DFC
:103B4000DF01A80FB11DA35ABF4F2C91848D90E0C7
:103B500001968F739927848FA689B7892C93A089A2
:103B6000B1898C91837080648C93938D848D98132C
:103B700006C00288F389E02D80818F7D80830895BF
:103B8000EF92FF920F931F93CF93DF93EC0181E0AD
:103B9000888F9B8D8C8D981305C0E889F989808169
:103BA00085FD26C0F62E0B8D10E00F5F1F4F0F73A3
:103BB0001127E02E8C8DE8120CC00FB607FCFACF4F
:103BC000E889F989808185FFF5CFCE010E949E1D8D
:103BD000F1CF8B8DFE01E80FF11DE35AFF4FF0820C
:103BE0009FB7F8940B8FEA89FB89808180620AC0B5
:103BF0009FB7F894EE89FF896083E889F98980810D
:103C00008370806480839FBF81E090E0DF91CF91DB
:103C10001F910F91FF90EF900895CF93DF93EC01E8
:103C2000888D8823C9F0EA89FB89808185FD05C0DC
:103C3000A889B9898C9186FD0FC00FB607FCF5CF16
:103C4000808185FFF2CFA889B9898C9185FFEDCF5E
:103C5000CE010E949E1DE7CFDF91CF910895CF92B4
:103C6000DF92EF92FF921F93CF93DF93EC016A01F3
:103C70007B01122FE889F98982E080834115514E3A
:103C800061057105B1F060E079E08DE390E0A70196
:103C900096010E940A24DA01C9010197A109B1091C
:103CA000B695A795979587959C01211580E13807D2
:103CB000A8F0E889F989108260E874E88EE190E064
:103CC000A70196010E940A24DA01C9010197A109FE
:103CD000B109B695A795979587959C01EC85FD85CB
:103CE0003083EE85FF852083188EEC89FD89108353
:103CF000EA89FB89808180618083EA89FB898081F0
:103D000088608083EA89FB89808180688083EA8972
:103D1000FB8980818F7D8083DF91CF911F91FF9000
:103D2000EF90DF90CF9008951F920F920FB60F92F1
:103D300011242F938F939F93EF93FF93E09164044B
:103D4000F09165048081E0916A04F0916B0482FD3A
:103D500012C0908180916D048F5F8F7320916E04EB
:103D6000821751F0E0916D04F0E0EC5AFB4F958F13
:103D700080936D0401C08081FF91EF919F918F919D
:103D80002F910F900FBE0F901F9018951F920F92BA
:103D90000FB60F9211242F933F934F935F936F931E
:103DA0007F938F939F93AF93BF93EF93FF9384E59C
:103DB00094E00E949E1DFF91EF91BF91AF919F9162
:103DC0008F917F916F915F914F913F912F910F90C4
:103DD0000FBE0F901F90189584E594E00E94531D2C
:103DE00021E0892B09F420E0822F0895E4E5F4E036
:103DF0001382128288EE93E0A0E0B0E08483958382
:103E0000A683B7838CE292E09183808385EC90E077
:103E10009587848784EC90E09787868780EC90E094
:103E2000918B808B81EC90E0938B828B82EC90E085
:103E3000958B848B86EC90E0978B868B118E128EFF
:103E4000138E148E08950E9494210E94DC160E9405
:103E50002406C0E9DDE10E949A062097E1F30E9462
:103E6000901DF9CFCF92DF92EF92FF920F931F93A5
:103E7000CF93DF936C017A018B01C0E0D0E0CE15C7
:103E8000DF0581F0D8016D918D01D601ED91FC9196
:103E90000190F081E02DC6010995892B11F0219642
:103EA000EECF7E01C701DF91CF911F910F91FF905F
:103EB000EF90DF90CF900895EF92FF920F931F93B2
:103EC000CF93DF938C017B01C0E0D0E0F701EC0FD2
:103ED000FD1F6491662361F0D801ED91FC91019082
:103EE000F081E02DC8010995892B11F02196EECFC4
:103EF000CE01DF91CF911F910F91FF90EF90089528
:103F00000C941B05DC01ED91FC910190F081E02DFA
:103F100009946AE372E00C941B050F931F93CF93EF
:103F2000DF93EC010E941B058C01CE010E94891FCA
:103F3000800F911FDF91CF911F910F9108958F9264
:103F40009F92AF92BF92EF92FF920F931F93CF93E6
:103F5000DF93CDB7DEB7A1970FB6F894DEBF0FBEE3
:103F6000CDBF7C01FA01CB0119A2223008F42AE06E
:103F70008E010F5D1F4F822E912CA12CB12CBF0101
:103F8000A50194010E940A24F901CA0101501109F6
:103F90006A3010F4605D01C0695CD8016C93232B1A
:103FA000242B252B61F7B801C7010E941B05A196A0
:103FB0000FB6F894DEBF0FBECDBFDF91CF911F913A
:103FC0000F91FF90EF90BF90AF909F908F900895CA
:103FD0002115310541F4DC01ED91FC910190F08156
:103FE000E02D642F09940C949F1F9A01462F50E0F6
:103FF00060E070E00C94E81F0F931F93CF93DF9362
:10400000EC010E94F51F8C01CE010E94891F800FD8
:10401000911FDF91CF911F910F910895CF92DF9261
:10402000EF92FF920F931F93CF93DF9321153105EA
:1040300081F4DC01ED91FC910190F081E02D642F81
:10404000DF91CF911F910F91FF90EF90DF90CF9074
:1040500009942A30310501F577FF1DC06A017B0103
:10406000EC016DE20E94821F8C0144275527BA01A2
:104070004C195D096E097F092AE0CE010E949F1F3D
:10408000800F911FDF91CF911F910F91FF90EF90C3
:10409000DF90CF9008952AE0DF91CF911F910F918B
:1040A000FF90EF90DF90CF900C949F1F9A01AB018F
:1040B000770F660B770B0C940E200F931F93CF9303
:1040C000DF93EC010E9456208C01CE010E94891FD3
:1040D000800F911FDF91CF911F910F910895089547
:1040E0008230E8F4E82FF0E0EE0FFF1FE35CFE4FB4
:1040F00071836083813041F0809169008C7F482B0F
:1041000040936900E89A089580916900837F440F85
:10411000551F440F551F482B40936900E99A089595
:104120001F920F920FB60F9211242F933F934F932C
:104130005F936F937F938F939F93AF93BF93EF930F
:10414000FF93E0913D01F0913E010995FF91EF91C0
:10415000BF91AF919F918F917F916F915F914F919F
:104160003F912F910F900FBE0F901F9018951F92A7
:104170000F920FB60F9211242F933F934F935F939B
:104180006F937F938F939F93AF93BF93EF93FF931F
:10419000E0913F01F09140010995FF91EF91BF91AE
:1041A000AF919F918F917F916F915F914F913F91CF
:1041B0002F910F900FBE0F901F9018951F920F9286
:1041C0000FB60F9211242F933F938F939F93AF932A
:1041D000BF938091F2049091F304A091F404B09104
:1041E000F5043091F10423E0230F2D3720F40196DC
:1041F000A11DB11D05C026E8230F0296A11DB11D0A
:104200002093F1048093F2049093F304A093F404B8
:10421000B093F5048091F6049091F704A091F8040E
:10422000B091F9040196A11DB11D8093F6049093FD
:10423000F704A093F804B093F904BF91AF919F9154
:104240008F913F912F910F900FBE0F901F90189557
:104250003FB7F8948091F6049091F704A091F80488
:10426000B091F90426B5A89B05C02F3F19F001961F
:10427000A11DB11D3FBFBA2FA92F982F8827820FEC
:10428000911DA11DB11DBC01CD0142E0660F771F3C
:10429000881F991F4A95D1F708958F929F92AF92E8
:1042A000BF92CF92DF92EF92FF926B017C010E944E
:1042B00028214B015C01C114D104E104F10401F196
:1042C0000E94F5230E942821DC01CB01881999095D
:1042D000AA09BB09883E9340A105B10560F321E01E
:1042E000C21AD108E108F10888EE880E83E0981E12
:1042F000A11CB11CC114D104E104F10419F7DBCFF6
:10430000FF90EF90DF90CF90BF90AF909F908F90F5
:1043100008958230910538F0880F991F880F991FF2
:1043200005970197F1F70895789484B5826084BD6C
:1043300084B5816084BD85B5826085BD85B58160A9
:1043400085BDEEE6F0E0808181608083E1E8F0E009
:104350001082808182608083808181608083E0E838
:10436000F0E0808181608083E1EBF0E08081846017
:104370008083E0EBF0E0808181608083EAE7F0E019
:10438000808184608083808182608083808181607D
:1043900080838081806880831092C10008958E3070
:1043A00008F08E502091410190E4299F9001112442
:1043B0008770822B80937C0080917A008064809348
:1043C0007A0080917A0086FDFCCF80917800209160
:1043D000790090E0922B08951F93CF93DF93182FCD
:1043E000EB0161E00E947422209711F460E004C0A8
:1043F000CF3FD10539F461E0812FDF91CF911F913B
:104400000C94B022E12FF0E0EE54FF4FE491E33042
:10441000F9F048F4E130B9F0E230A1F584B58062FA
:1044200084BDC8BD34C0E730E9F0E83019F1E430AC
:1044300049F580918000806280938000D0938B004A
:10444000C0938A0024C084B5806884BDC7BD1FC0E6
:1044500080918000806880938000D0938900C09311
:10446000880015C08091B00080688093B000C09330
:10447000B3000DC08091B00080628093B000C09303
:10448000B40005C0C038D1050CF0B5CFAFCFDF9177
:10449000CF911F910895833081F028F4813099F0F5
:1044A0008230A1F008958730A9F08830B9F08430C7
:1044B000D1F4809180008F7D03C0809180008F7740
:1044C00080938000089584B58F7702C084B58F7D76
:1044D00084BD08958091B0008F7703C08091B000B3
:1044E0008F7D8093B0000895CF93DF9390E0FC011F
:1044F000EA53FF4F2491FC01E652FF4F8491882339
:1045000061F190E0880F991FFC01EE5FFE4FC591AD
:10451000D491FC01E850FF4FA591B491611109C0FD
:104520009FB7F8948881209582238883EC912E236D
:104530000BC0623061F49FB7F8948881322F3095B8
:1045400083238883EC912E2B2C939FBF06C08FB7BB
:10455000F894E8812E2B28838FBFDF91CF910895A7
:104560001F93CF93DF93282F30E0F901EE54FF4FD4
:104570008491F901EA53FF4FD491F901E652FF4FBC
:10458000C491CC23C1F0162F81110E944B22EC2F35
:10459000F0E0EE0FFF1FE850FF4FA591B4919FB7D9
:1045A000F894111104C08C91D095D82302C0EC91DD
:1045B000DE2BDC939FBFDF91CF911F910895009771
:1045C00009F474C01092FB041092FA0410920805CA
:1045D000109207051092030510920405109205052C
:1045E000109206051092FE042091800020930D0584
:1045F0002091810020930C05109281001092800080
:10460000109285001092840021E026BB10926F006A
:104610002091B00020930B052091B10020930A0552
:104620001092B10022E02093B0009C012770332744
:10463000232B51F443E0969587954A95E1F72CE7B3
:104640002093B30027E018C09C0123703327232B4D
:1046500031F4969587959695879529EF05C080FD4D
:1046600007C0969587952CE72093B30026E004C0F9
:104670002CE72093B30025E02093090522E027BB17
:104680001092B2009093FD048093FC049FB7F894BD
:1046900023BD809109058093B100209370008BE0C9
:1046A0008150F1F787E0809381009FBF089580914A
:1046B000FE0408952FB7F8946091FF0470910005EF
:1046C00080910105909102051092FE042FBF08957C
:1046D000E1EBF0E010821092700080910B05809366
:1046E000B00080910A058083E1E8F0E010828091BB
:1046F0000D058093800080910C05808308951F92A2
:104700000F920FB60F9211240F931F932F933F9385
:104710004F935F936F937F938F939F93AF93BF93C9
:104720002091840030918500B09B0BC081E086BB56
:104730008091070590910805019690930805809354
:1047400007058091FA049091FB0401964091FC04C6
:104750005091FD048417950798F11092FB04109274
:10476000FA048091070590910805A0E0B0E0DC0113
:1047700099278827820F931FA11DB11D4091030522
:104780005091040560910505709106058C019D010D
:10479000041B150B260B370B0093FF041093000529
:1047A000209301053093020580930305909304053F
:1047B000A0930505B093060581E08093FE0404C034
:1047C0009093FB048093FA04BF91AF919F918F91D6
:1047D0007F916F915F914F913F912F911F910F9119
:1047E0000F900FBE0F901F901895089597FB072EFE
:1047F00016F4009407D077FD09D00E945C2407FCD2
:1048000005D03EF4909581959F4F089570956195E0
:104810007F4F0895A1E21A2EAA1BBB1BFD010DC0FC
:10482000AA1FBB1FEE1FFF1FA217B307E407F50760
:1048300020F0A21BB30BE40BF50B661F771F881F3C
:10484000991F1A9469F760957095809590959B01D2
:10485000AC01BD01CF010895052E97FB1EF4009415
:104860000E94432457FD07D00E940A2407FC03D06E
:104870004EF40C94432450954095309521953F4F2C
:104880004F4F5F4F089590958095709561957F4F3C
:104890008F4F9F4F0895EE0FFF1F0590F491E02D6D
:1048A00009940E947024A59F900DB49F900DA49F21
:1048B000800D911D11240895AA1BBB1B51E107C057
:1048C000AA1FBB1FA617B70710F0A61BB70B881FA0
:1048D000991F5A95A9F780959095BC01CD0108952F
:1048E000A29FB001B39FC001A39F700D811D112431
:1048F000911DB29F700D811D1124911D08950F937C
:104900001F93CF93DF938230910510F482E090E003
:10491000E0911005F091110520E030E0A0E0B0E05A
:10492000309719F14081518102811381481759074D
:10493000C8F08417950769F4109731F012960C931C
:10494000129713961C9327C000931005109311051E
:1049500022C02115310519F04217530718F49A01A6
:10496000BD01EF01DF01F801DBCF21153105F9F0C1
:10497000281B390B2430310580F48A819B81611515
:10498000710521F0FB019383828304C0909311058C
:1049900080931005FE01329644C0FE01E20FF31F22
:1049A0008193919322503109398328833AC0209111
:1049B0000E0530910F05232B41F420910201309117
:1049C000030130930F0520930E05209100013091D3
:1049D00001012115310541F42DB73EB74091040185
:1049E00050910501241B350BE0910E05F0910F0548
:1049F000E217F307A0F42E1B3F0B2817390778F0B6
:104A0000AC014E5F5F4F2417350748F04E0F5F1F14
:104A100050930F0540930E058193919302C0E0E0FF
:104A2000F0E0CF01DF91CF911F910F910895CF93C7
:104A3000DF93009709F481C0FC0132971382128240
:104A4000A0911005B0911105109781F4208131815A
:104A5000820F931F20910E0530910F0528173907FB
:104A600051F5F0930F05E0930E0567C0ED0120E0CE
:104A700030E0CE17DF0740F44A815B819E0141158B
:104A80005105F1F0EA01F5CFD383C2834081518112
:104A9000840F951FC817D90759F488819981840F0D
:104AA000951F0296918380838A819B819383828361
:104AB0002115310529F4F0931105E09310053DC04F
:104AC000E901FB83EA8349915991C40FD51FEC1783
:104AD000FD0761F480819181840F951F0296E901A1
:104AE00099838883828193819B838A83E0E0F0E0CD
:104AF00012968D919C911397009719F0FD01DC019E
:104B0000F7CF8D919C9111979D012E5F3F4F820FA2
:104B1000931F20910E0530910F052817390769F46E
:104B2000309729F4109211051092100502C01382DB
:104B30001282B0930F05A0930E05DF91CF910895D7
:104B4000FC0188279927E89421912032E9F3293044
:104B500010F02E30C8F32B3241F02D3239F4689426
:104B600004C00E94CE25820F911D219120532A302E
:104B7000C0F31EF4909581959F4F0895FB01DC01D1
:104B800002C001900D9241505040D8F70895DC01C9
:104B900001C06D9341505040E0F708957AE0979F2F
:104BA000902D879F802D910D1124089510E0CAE863
:104BB000D0E004C0FE010E944B242196CC38D107DE
:064BC000C9F7F894FFCFD5
:104BC600000012052000000000003C003F006B00C2
:104BD6000000000023002400460053C40914000FFF
:104BE600000A0000000000FF000000FF000000FFB8
:104BF6000000000000000026430000CA436F206F3B
:104C0600200140003E005A004A004D00780047004F
:104C16004A007B003D003E005B003C003C00650016
:104C260032003F005A004000430072004400410039
:104C3600720034003C005A00340034005E003A0032
:104C46003500600030003600560031003000580054
:104C560036002E00580032002C00560034002A0080
:104C660052002F002B005200633A200072656164E7
:104C76005F696E3A200052474200436F6C6F725371
:104C8600656E736F72005048616E6454656D706531
:104C960072617475726500616D6D6F6E69613A005F
:104CA6002020206E6974726174653A002020206E9F
:104CB6006974726974653A002020200070683A00B1
:104CC60074656D703A0049444C4500546D7220532A
:104CD60076630000010200000000CE18321FAA18F9
:104CE6001E193719AD181F1900000000C01D321F0C
:104CF600811D0D1E531D6D1D5F1D0D0A006E616E1B
:0A4D060000696E66006F766600001B
:00000001FF
