:100000000C948B000C9418120C943F120C94B300B7
:100010000C94B3000C94B3000C94951E0C94111C1A
:100020000C94B3000C94B3000C94B3000C94B30084
:100030000C94B3000C94B3000C94B3000C94B30074
:100040000C9466120C94B3000C94270F0C94590F67
:100050000C94B3000C94B3000C94B3000C94B30054
:100060000C94B3000C94B300051B051B051B441B2B
:100070002F1B3E1B051B051B441B2F1B0A466F75C0
:100080006E64204D61746368696E6720436F6C6FA6
:100090007200005EBCE2613FDD83C29C7E20A3FD56
:1000A0001F41009D23BE46DB65F88C11AF32CA5755
:1000B000E9740000000800020100000304070000CA
:1000C000000000000000010204081020408001022E
:1000D000040810200102040810200404040404048D
:1000E00004040202020202020303030303030000EA
:1000F0000000230026002900000000002500280041
:100100002B0000000000240027002A009807FA09AD
:10011000890FA407FE0911241FBECFEFD8E0DEBF70
:10012000CDBF12E0A0E0B1E0E4E1F6E402C005904A
:100130000D92A63BB107D9F725E0A6EBB2E001C0CE
:100140001D92A633B207E1F710E0C9E8D0E004C081
:100150002197FE010E948221C638D107C9F70E946B
:10016000B60F0C94FD220C9400000C94E722FC01C5
:1001700080E090E0A8ECB1E4808B918BA28BB38BF4
:1001800080E090E0A0EEB0E480839183A283B3830B
:1001900084E19EE0AEEFB4E484839583A683B783C5
:1001A00080E090E8ABEBB4E480879187A287B387C7
:1001B00084879587A687B78708950895CF92DF92A1
:1001C000EF92FF920F931F93CF93DF93EC017C018B
:1001D00088E0E80EF11C670100E010E0C8010E9411
:1001E000B500F60181936F010F5F1F4F04301105B9
:1001F000A9F768E371E086EF93E00E941310488549
:1002000059856A857B8522E030E086EF93E00E9485
:10021000E51180E090E00E94B5008F3F39F581E064
:1002200090E00E94B5008F3F09F582E090E00E94C7
:10023000B5008F3FD9F483E090E00E94B5008F3F76
:10024000A9F480E090E8ABEBB4E488879987AA87AB
:10025000BB8700E010E0F70161917F01C8010E94B7
:10026000EF220F5F1F4F04301105A9F77E01F4E064
:10027000EF0EF11C670104E010E0C8010E94B50018
:10028000F60181936F010F5F1F4F08301105A9F729
:1002900069E471E086EF93E00E9413104C815D8168
:1002A0006E817F8122E030E086EF93E00E94E511CD
:1002B00084E090E00E94B5008F3F31F585E090E04A
:1002C0000E94B5008F3F01F586E090E00E94B500E6
:1002D0008F3FD1F487E090E00E94B5008F3FA1F4FA
:1002E00084E19EE0AEEFB4E48C839D83AE83BF8354
:1002F000C4E0D0E0F70161917F01CE010E94EF22BE
:100300002196C830D105B1F7DF91CF911F910F91A0
:10031000FF90EF90DF90CF9008956115710579F00F
:10032000FB0101900020E9F73197AF01461B570B05
:10033000DC01ED91FC910280F381E02D099480E0D5
:1003400090E00895DC01ED91FC910190F081E02DA9
:100350000994CF92DF92FF920F931F93CF93DF9375
:10036000CDB7DEB764970FB6F894DEBF0FBECDBF32
:1003700088EC93E00E9428096AEF70E080E090E04A
:100380000E94D51241E0BE01635F7F4F88EC93E08D
:100390000E94570967E0CE010D960E94DE099C89F4
:1003A000891719F06CE671E009C08D85823291F0F1
:1003B000883281F0803159F06EE771E086EF93E08A
:1003C0000E94201060E070E080E89FEB6AC0FF248C
:1003D000F39401C0F12C88EC93E00E941C08BE014C
:1003E000635F7F4F88EC93E00E94090941E064E479
:1003F00088EC93E00E94B90868EE73E080E090E03A
:100400000E94D51288EC93E00E941C08BE01635F35
:100410007F4F88EC93E00E94090940E06EEB88EC86
:1004200093E00E94B9088E010F5F1F4F6E018AE0B2
:10043000C80ED11C88EC93E00E94ED08F80181936E
:100440008F01EC15FD05B1F769817A81FF2089F0F4
:1004500083E0660F771F8A95E1F788858031A9F4DC
:100460002F818CE090E0821B9109607F680F791FDB
:100470000CC08D81807611F4687F07C0803211F442
:100480006C7F03C0803409F46E7F072E000C880B4C
:10049000990B0E94C40C20E030E040E85DE30E942C
:1004A000790D64960FB6F894DEBF0FBECDBFDF9115
:1004B000CF911F910F91FF90DF90CF9008950F93F0
:1004C0001F93CF93DF93C5E9D3E0188219821A8274
:1004D0001B821D821C821F821E8219861886AFE431
:1004E000B3E01D921D921D921C9213972FEF30E0E6
:1004F00015963C932E9314978FE590E017969C9356
:100500008E93169719969C938E931897E9E0F3E0D3
:10051000108211821282138235832483978386830B
:100520009187808740E050E060E87EE34A875B8700
:100530006C877D871F861E86198A188A1B8A1A8AED
:100540004AE959E969E17EE31A964D935D936D930B
:100550007C931D971F961C921E921E9751961C927B
:100560001E92509753961C921E92529740E050E074
:1005700060E07FE342875387648775871786168616
:10058000118A108A138A128A4C8B5D8B6E8B7F8B3B
:10059000198E188E1B8E1A8E1D8E1C8E4AE959E9F3
:1005A00069E97EE354964D935D936D937C935797E1
:1005B00059961C921E9258975B961C921E925A97BF
:1005C0005D961C921E925C9740E050E060E070E403
:1005D000448B558B668B778B118E108E138E128EFB
:1005E000158E148E00E010E020E430E40E8F1F8F93
:1005F00028A339A31BA21AA21DA21CA21FA21EA2DD
:1006000040E050E060E87FE35E964D935D936D932C
:100610007C93919793961C921E92929795961C921A
:100620001E92949797961C921E92969740E050E0E7
:1006300060EA70E4468F578F60A371A313A212A2E1
:1006400015A214A217A216A240E050E060EC70E4DC
:1006500048A759A76AA77BA71DA61CA61FA61EA66A
:1006600019AA18AA40E050E060EC7FE398964D93F9
:100670005D936D937C939B979D961C921E929C9785
:100680009F961C921E929E97D1961C921E92D09776
:1006900040E050E060E271E440A751A762A773A771
:1006A00015A614A617A616A611AA10AAD2960D93DF
:1006B0001D932D933C93D597D7961C921E92D69757
:1006C000D9961C921E92D897DB961C921E92DA97AE
:1006D00000E010E020EA31E402AB13AB24AB35AB11
:1006E00017AA16AA11AE10AE13AE12AEDC964D9339
:1006F0005D936D937C93DF971092900310928F031C
:10070000109292031092910310929403109293030B
:1007100080E090E0A8E4B2E484AF95AFA6AFB7AFB5
:1007200010924A031092490310924C0310924B030B
:1007300010924E0310924D03DF91CF911F910F91B4
:10074000089565EA71E086EF93E00E9413106091CE
:100750000003709101034AE050E086EF93E00E94AD
:10076000EF1067EA71E086EF93E00E94131060914A
:100770000203709103034AE050E086EF93E00E9489
:10078000EF1067EA71E086EF93E00E94131060912A
:100790000403709105034AE050E086EF93E00E9465
:1007A000EF1069EA71E086EF93E00E9413104AE0CF
:1007B00050E06091FA0286EF93E00E94881067EAA9
:1007C00071E086EF93E00E9413104AE050E06091E0
:1007D000FB0286EF93E00E94881067EA71E086EFE3
:1007E00093E00E9413104AE050E06091F90286EF16
:1007F00093E00E9488102091FA0230E0809100037B
:1008000090910103AC01455051092417350774F14B
:1008100005968217930754F12091FB0230E08091F6
:10082000020390910303AC01455051092417350789
:10083000ECF0059682179307CCF02091F90230E096
:100840008091040390910503AC0145505109241790
:10085000350764F005968217930744F06CE770E063
:1008600086EF93E00E94EF0F81E0089580E0089505
:100870000F931F93CF93DF938091C703813009F4C7
:1008800048C040F0823009F06EC00FE413E0C6E0CB
:10089000D0E029C005E913E0C4E0D0E08AE0F80127
:1008A000B896ACEFB2E001900D928A95E1F70E9404
:1008B000A103882349F08AE08C9FF0018D9FF00D01
:1008C0001124EB56FC4F3EC021970A501109CF3F2F
:1008D0008FEFD80719F742C021970A501109CF3F6F
:1008E0008FEFD807D9F18AE0F801FC96ACEFB2E0BF
:1008F00001900D928A95E1F70E94A103882361F38C
:100900008AE08C9FF0018D9FF00D1124E15BFC4F7C
:1009100019C009E013E0C6E0D0E08AE0F801FC96D7
:10092000ACEFB2E001900D928A95E1F70E94A1032D
:10093000882369F08AE08C9FF0018D9FF00D1124CF
:10094000E75FFC4F30812181928183810BC0219729
:100950000A501109CF3F8FEFD807F9F630E020E0B9
:1009600090E88FEBAC01632F722F852F942FDF91CE
:10097000CF911F910F9108958AEC92E00E94900B05
:100980008AEC92E00E949A0B8823D1F366E073E030
:100990008AEC92E00E94C60A809107038093FB02D2
:1009A000809106038093FA02809108038093F902F4
:1009B00063EB71E086EF93E00E9420104AE050E084
:1009C0006091FA0286EF93E00E948F104AE050E0B7
:1009D0006091FB0286EF93E00E948F104AE050E0A6
:1009E0006091F90286EF93E00E948F100895CF93F3
:1009F0008AEC92E00E94900B8AEC92E00E949A0BA3
:100A00008823D1F366E073E08AEC92E00E94C60A84
:100A1000809107038093FB02809106038093FA0282
:100A2000809108038093F9028AE0E9E2F1E0ACEFFB
:100A3000B2E001900D928A95E1F70E94A103C82FC0
:100A400067EB71E086EF93E00E9413106C2F70E06B
:100A50004AE050E086EF93E00E94F6106AE972E007
:100A600086EF93E00E9413108AE0EFE1F1E0ACEF33
:100A7000B2E001900D928A95E1F7C11103C00E9486
:100A8000A103C82F67EC71E086EF93E00E9413107A
:100A90006C2F70E04AE050E086EF93E00E94F61081
:100AA0006AE972E086EF93E00E941310CC2351F0C4
:100AB0000E943804C1E020E030E040E85FEB0E9493
:100AC000150C8111C0E08C2FCF910895CF93DF9347
:100AD00000D000D000D0CDB7DEB749835A836B83F6
:100AE0007C838D839E8369817A818FE00E94741359
:100AF0006B817C8180E10E9474136D817E8181E134
:100B000026960FB6F894DEBF0FBECDBFDF91CF9112
:100B10000C947413CF93DF9300D0CDB7DEB70E944F
:100B200095169A83898301E014E682E0F82E80917D
:100B30000601813641F563EB72E086EF93E00E9497
:100B400020104091070150910801609109017091B6
:100B50000A0180910B0190910C010E9466056AEFD9
:100B600070E080E090E00E94D5121092C7030E94CE
:100B7000BC04169F9001179F300D11243093BF02C3
:100B80002093BE0266C04091190150911A016091F4
:100B90001B0170911C0180911D0190911E010E940A
:100BA00066050093C7030E94F7048111FCCF4091B2
:100BB00013015091140160911501709116018091FB
:100BC0001701909118010E9466056AEF70E080E0BD
:100BD00090E00E94D5120E94BC04169F9001179FBE
:100BE000300D11243093BD022093BC024091C40209
:100BF0005091C5026091C6027091C7028091C802EF
:100C00009091C9020E946605F092C7030E94F70402
:100C10008111FCCF40910D0150910E0160910F01A7
:100C20007091100180911101909112010E9466054E
:100C30006AEF70E080E090E00E94D5120E94BC0450
:100C4000169F9001179F300D11243093BB02209303
:100C5000BA024091C4025091C5026091C6027091DF
:100C6000C7028091C8029091C9020E9466056EE396
:100C700070E0CE0101960E94BA1759CFCF93DF934F
:100C800000D0CDB7DEB70E9495169A838983409134
:100C9000130150911401609115017091160180911A
:100CA0001701909118010E94660562EE71E086EFCF
:100CB00093E00E948D018EE00E945713BC01990FB2
:100CC000880B990B0E94C40C6B017C012DE637EC5C
:100CD00047E85CE30E94790D28E53DE546E85FE3DF
:100CE0000E94A90B0E948C0C7093C3026093C202F5
:100CF00065EE71E086EF93E00E948D0122E030E026
:100D000040E050E863EB73E486EF93E00E94E31168
:100D100066EF71E086EF93E00E948D0122E030E003
:100D200040E050E062E373E486EF93E00E94E31159
:100D300065E072E086EF93E00E948D0122E030E0F2
:100D4000B701A60186EF93E00E94E31168E172E02B
:100D500086EF93E00E948D016091C2027091C30200
:100D60004AE050E086EF93E00E94EF1064E670E006
:100D700080E090E00E94D5124091C4025091C502DB
:100D80006091C6027091C7028091C8029091C90219
:100D90000E9466054091190150911A0160911B0152
:100DA00070911C0180911D0190911E010E946605A9
:100DB0000E94A90120E030E048EC52E40E94790D45
:100DC0000E948C0C7093C1026093C00263E272E0D7
:100DD00086EF93E00E948D016091C0027091C10284
:100DE0004AE050E086EF93E00E94EF1064E670E086
:100DF00080E090E00E94D5124091C4025091C5025B
:100E00006091C6027091C7028091C8029091C90298
:100E10000E94660568E371E0CE0101960E94BA1750
:100E200036CF61E08FE00E94FC1361E080E10E9418
:100E3000FC1361E081E10E94FC134091C4025091D7
:100E4000C5026091C6027091C7028091C80290915C
:100E5000C9020C946605EF92FF920F9326E040E0E2
:100E600052EC61E070E086EF93E00E94C20E8AECE3
:100E700092E00E949B0A0E945F020E94110766E2B4
:100E800072E086EF93E00E9413104091130150919D
:100E900014016091150170911601809117019091D4
:100EA00018010E9466050E94F60943E050E068EAD6
:100EB00077E080E00E94F81188EBE82E82E0F82EBF
:100EC00001E020E030E040E850E065E372E08AE8CD
:100ED00095E00E940C1596EBE92E92E0F92E02E0C7
:100EE00020E030E040E850E061E472E08EE396E01C
:100EF0000E940C1568EE73E080E090E00E94D5122D
:100F00004091C4025091C5026091C6027091C7021F
:100F10008091C8029091C9020E94660562E572E064
:100F200086EF93E00F91FF90EF900C9413100895CB
:100F300066E088EC93E00E94340928E04DE06CE024
:100F40008AEC92E00C94290A8AEC92E00C943D0A17
:100F5000CF9386EF93E00E94E60D892B09F46AC0D7
:100F600064E670E080E090E00E94D512C0E086EF79
:100F700093E00E94E60D892B31F086EF93E00E940A
:100F8000000EC82FF4CFCE3629F0C03761F0C1363D
:100F900009F050C0C09306018091B8029091B90247
:100FA000CF910C9418166FE572E086EF93E00E94E3
:100FB0008D016091C2027091C30286EF93E00E949E
:100FC000A20163E672E086EF93E00E948D016091DA
:100FD000C0027091C10286EF93E00E94A20169E60F
:100FE00072E086EF93E00E948D016091BE027091E5
:100FF000BF0286EF93E00E94A20162E772E086EFF3
:1010000093E00E948D016091BA027091BB0286EF5D
:1010100093E00E94A2016BE772E086EF93E00E94EA
:101020008D016091BC027091BD0286EF93E0CF917B
:101030000C94A201CF910895FF920F931F93CF9329
:10104000DF93FC01F080C181D281F89489810F2D5A
:1010500000958023898378941DE7115029F182E05F
:1010600090E00E94111388818F21B9F3F8948A814E
:1010700080238A8389818F298983789480EE91E007
:101080000E941113F89489810823098386E490E073
:101090000E9411138881F82211E009F010E0789481
:1010A0008AE991E00E941113812FDF91CF911F9166
:1010B0000F91FF9008951F93CF93DF93FC01108150
:1010C000C181D281812F809560FF12C0F8949A81EE
:1010D00089238A838981812B89838AE090E00E9419
:1010E00011138A81182B1A83789487E390E011C03A
:1010F000F8949A8189238A838981812B898381E469
:1011000090E00E9411138A81182B1A83789485E04D
:1011100090E0DF91CF911F910C9411130F931F93C7
:10112000CF93DF93FC010081C181D281F894898142
:10113000802B89838A81102F109581238A8383E0F5
:1011400090E00E9411138981182319838AE090E0AE
:101150000E941113C881789485E390E00E941113D6
:10116000C02381E009F480E0DF91CF911F910F91BE
:101170000895DF92EF92FF920F931F93CF93DF9327
:10118000EC01D62EE42E08E010E0FF24F39461E099
:101190008D2D8F2109F460E0CE010E945B08FF0CC9
:1011A00001501109A1F7E11010C0F894E981FA810A
:1011B00091818881809589238183E981FA81928157
:1011C00088818095892382837894DF91CF911F91C4
:1011D0000F91FF90EF90DF900895EF92FF920F93A1
:1011E0001F93CF93DF937C0108E010E0C0E0D1E0D3
:1011F000C7010E948E088111CD2BDD0F015011090E
:10120000B9F78C2FDF91CF911F910F91FF90EF9045
:101210000895EF92FF920F931F93CF93DF938C016A
:101220007B0140E065E50E94B908E70188E0E80E2F
:10123000F11C699140E0C8010E94B908CE15DF0594
:10124000C1F7DF91CF911F910F91FF90EF9008951B
:10125000FC01138615861486DC011B9633961E92BC
:10126000AE17BF07E1F708951F93CF93DF93EC010B
:10127000162F60E0812F0E94FC13612F70E0FB01AC
:10128000EA53FF4FE491E883FB01E652FF4FE491FC
:10129000F0E0EE0FFF1FE251FF4F859194919A838A
:1012A0008983CE01DF91CF911F910C942809BF92C1
:1012B000CF92DF92EF92FF920F931F93CF93DF9322
:1012C000EC016B01142F8D85811105C0CE010E94A8
:1012D0001C08811105C01B861D861C8680E064C029
:1012E00040E0112311F060EF01C06CEECE010E94CE
:1012F000B90801E0E12CB12C11E0CE010E948E086A
:10130000F82ECE010E948E0891E0F91203C08130C0
:10131000B1F434C02E2D30E0F8121BC08B851817A5
:1013200038F4FE01E20FF31F8381802341F402C0F1
:10133000181729F0F12C193058F41C8709C0FE0148
:10134000EE0DF11D8381802B8383FF24F39409C06C
:10135000B12EFE01E20FF31F9381802F8095892328
:1013600083836F2DCE010E945B081F5F000F11F475
:10137000E39401E087E08E1508F0BFCF113408F444
:10138000AACFBB86B11002C081E08D878B818823F4
:1013900009F4A1CFDE011396F6012B968D9181936E
:1013A000CA17DB07D9F781E0DF91CF911F910F9129
:1013B000FF90EF90DF90CF90BF900895DC0180E028
:1013C000615098F02D91982F9227E92FEF70F0E05F
:1013D000EE56FF4F249192959F70E92FF0E0EE5565
:1013E000FF4FE491822F8E27EBCF089586ED93E097
:1013F0000C94DE0086ED93E00C94B70086ED93E04C
:101400000C94DD000F931F93FC018FEF8083818389
:101410008283838384838AE085831682DF01179623
:10142000739600E717E120E030E048ED56ED60E00C
:1014300070E00D931D932D933D9318964D935D93FE
:101440006D937C931B97AE17BF0799F71F910F9170
:101450000895FF920F931F93CF93DF93EC01F62E25
:10146000042F122F0E94020AFB820C831883DF9143
:10147000CF911F910F91FF9008950895CF93DF931F
:10148000EC018B818F3FE9F09C819F3FD1F061306F
:1014900049F030F0623041F0633099F461E009C006
:1014A00060E007C061E001C060E00E94381461E0C4
:1014B00003C00E94381460E08C81DF91CF910C94BE
:1014C0003814DF91CF910895CF93DF93EC01898198
:1014D0008F3FE9F09A819F3FD1F0613049F030F0C1
:1014E000623041F0633099F460E009C061E003C00C
:1014F00061E005C060E00E94381461E003C00E9412
:10150000381460E08A81DF91CF910C943814DF9118
:10151000CF910895FC0120812F3F29F091E06927A8
:10152000822F0C943814662319F0FC01668101C0E7
:1015300063E00C94640ACF93DF93EC0189818F3FC1
:1015400019F061E00E94FC138A818F3F19F061E07D
:101550000E94FC138B818F3F19F061E00E94FC1305
:101560008C818F3F19F061E00E94FC1388818F3FCE
:1015700019F061E00E94FC1360E0CE010E948A0A2B
:101580006E81CE01DF91CF910C94640ADC01FB01E6
:10159000309759F09B968C919B9780839C968C9169
:1015A0009C9781839D968C91828308954F925F9240
:1015B0006F927F928F929F92AF92BF92DF92EF9243
:1015C000FF920F931F93CF93DF938C01095F1F4FFF
:1015D000EC017C0183E1E80EF11CDD24DA94F801D2
:1015E000D8018D909D90AD90BD908D01808D918D95
:1015F000A28DB38D9C01AD01281939094A095B09F7
:10160000AFEFB0E00E948821F801408451846284E9
:101610007384A3019201281939094A095B090E94C0
:10162000632157FF02C01BA609C02F3F31054105AA
:10163000510519F014F0DBA601C02BA721960E1559
:101640001F0569F6DF91CF911F910F91FF90EF90E9
:10165000DF90BF90AF909F908F907F906F905F9042
:101660004F9008950F931F93CF93DF938C01C62F54
:10167000613049F018F06230D9F04CC01092F50397
:1016800061E00E948A0AE091F503F0E0EC57FD4F1B
:101690006081C8010E943E0AF801658170E088EE11
:1016A00093E00E942D21CB010E94711BC2E032C049
:1016B0000E94E91B882371F1E091F50381E08E0F10
:1016C0008093F503F0E0EC57FD4FC081D0E00E941D
:1016D000EC1B9B01AC01CC0FDD1FCC0FDD1FC00F3D
:1016E000D11FF801A581B0E00E9488216F8F78A3F7
:1016F00089A39AA38091F503833058F00E94FA1BC6
:1017000060E0C8010E948A0AC8010E94D60AC0E0AF
:1017100001C0C1E08C2FDF91CF911F910F910895EF
:10172000CF93DF93EC0160E00E94320B8EA7DF9134
:10173000CF910895CF93DF93EC016EA50E94320BF9
:10174000982F8EA781E0911180E0DF91CF910895CD
:101750005058BB27AA270E94C00B0C943A0D0E9438
:101760002C0D38F00E94330D20F039F49F3F19F40E
:1017700026F40C94290D0EF4E095E7FB0C94230D50
:10178000E92F0E944B0D58F3BA17620773078407BD
:10179000950720F079F4A6F50C946D0D0EF4E09504
:1017A0000B2EBA2FA02D0B01B90190010C01CA011B
:1017B000A0011124FF27591B99F0593F50F4503EC6
:1017C00068F11A16F040A22F232F342F4427585FB8
:1017D000F3CF469537952795A795F0405395C9F7D0
:1017E0007EF41F16BA0B620B730B840BBAF0915088
:1017F000A1F0FF0FBB1F661F771F881FC2F70EC027
:10180000BA0F621F731F841F48F4879577956795F9
:10181000B795F7959E3F08F0B0CF9395880F08F0E5
:101820009927EE0F9795879508950E94FF0C08F46D
:1018300081E008950E942E0C0C943A0D0E94330D05
:1018400058F00E942C0D40F029F45F3F29F00C94D1
:10185000230D51110C946E0D0C94290D0E944B0D0B
:1018600068F39923B1F3552391F3951B550BBB27CF
:10187000AA2762177307840738F09F5F5F4F220F14
:10188000331F441FAA1FA9F335D00E2E3AF0E0E80B
:1018900032D091505040E695001CCAF72BD0FE2F55
:1018A00029D0660F771F881FBB1F261737074807E9
:1018B000AB07B0E809F0BB0B802DBF01FF279358A1
:1018C0005F4F3AF09E3F510578F00C94230D0C9435
:1018D0006E0D5F3FE4F3983ED4F386957795679558
:1018E000B795F7959F5FC9F7880F911D96958795D6
:1018F00097F90895E1E0660F771F881FBB1F6217F5
:1019000073078407BA0720F0621B730B840BBA0BB2
:10191000EE1F88F7E09508950E94930C6894B1112A
:101920000C946E0D08950E94530D88F09F5798F007
:10193000B92F9927B751B0F0E1F0660F771F881FD4
:10194000991F1AF0BA95C9F714C0B13091F00E94EE
:101950006D0DB1E008950C946D0D672F782F8827D9
:10196000B85F39F0B93FCCF3869577956795B39515
:10197000D9F73EF490958095709561957F4F8F4F84
:101980009F4F0895E89409C097FB3EF49095809589
:10199000709561957F4F8F4F9F4F9923A9F0F92F35
:1019A00096E9BB279395F695879577956795B795B3
:1019B000F111F8CFFAF4BB0F11F460FF1BC06F5F99
:1019C0007F4F8F4F9F4F16C0882311F096E911C0AB
:1019D000772321F09EE8872F762F05C0662371F0CC
:1019E00096E8862F70E060E02AF09A95660F771FE0
:1019F000881FDAF7880F9695879597F90895990FBC
:101A00000008550FAA0BE0E8FEEF16161706E807C8
:101A1000F907C0F012161306E407F50798F0621BE9
:101A2000730B840B950B39F40A2661F0232B242BBE
:101A3000252B21F408950A2609F4A140A6958FEFDD
:101A4000811D811D089597F99F6780E870E060E02F
:101A500008959FEF80EC089500240A941616170647
:101A600018060906089500240A941216130614068F
:101A700005060895092E0394000C11F4882352F0F2
:101A8000BB0F40F4BF2B11F460FF04C06F5F7F4FAA
:101A90008F4F9F4F089557FD9058440F551F59F091
:101AA0005F3F71F04795880F97FB991F61F09F3F4B
:101AB00079F087950895121613061406551FF2CF74
:101AC0004695F1DF08C0161617061806991FF1CFC4
:101AD00086957105610508940895E894BB276627EB
:101AE0007727CB0197F908950E94FF0C08F48FEF38
:101AF00008950E948C0D0C943A0D0E942C0D38F024
:101B00000E94330D20F0952311F00C94230D0C94BA
:101B1000290D11240C946E0D0E944B0D70F3959FAE
:101B2000C1F3950F50E0551F629FF001729FBB27D4
:101B3000F00DB11D639FAA27F00DB11DAA1F649F70
:101B40006627B00DA11D661F829F2227B00DA11D23
:101B5000621F739FB00DA11D621F839FA00D611DA9
:101B6000221F749F3327A00D611D231F849F600DCA
:101B7000211D822F762F6A2F11249F5750409AF0F3
:101B8000F1F088234AF0EE0FFF1FBB1F661F771F7F
:101B9000881F91505040A9F79E3F510580F00C944A
:101BA000230D0C946E0D5F3FE4F3983ED4F38695BD
:101BB00077956795B795F795E7959F5FC1F7FE2BEA
:101BC000880F911D9695879597F90895FC01918D41
:101BD000228D892F90E0805C9F4F821B91098F732B
:101BE00099270895FC01918D828D981731F0828D8F
:101BF000E80FF11D858D90E008958FEF9FEF089518
:101C0000FC01918D828D981761F0828DDF01A80F04
:101C1000B11D5D968C91928D9F5F9F73928F90E026
:101C200008958FEF9FEF0895FC01538D448D252F6C
:101C300030E0842F90E0821B930B541710F0CF9666
:101C40000895019708958FE79FE0892B49F080E080
:101C500090E0892B29F00E947F0F81110C940000E5
:101C60000895FC01848DDF01A80FB11DA35ABF4F59
:101C70002C91848D90E001968F739927848FA6898B
:101C8000B7892C93A089B1898C91837080648C93DF
:101C9000938D848D981306C00288F389E02D80818E
:101CA0008F7D80830895EF92FF920F931F93CF93C0
:101CB000DF93EC0181E0888F9B8D8C8D981305C09C
:101CC000E889F989808185FD26C0F62E0B8D10E00C
:101CD0000F5F1F4F0F731127E02E8C8DE8120CC081
:101CE0000FB607FCFACFE889F989808185FFF5CF27
:101CF000CE010E94310EF1CF8B8DFE01E80FF11D58
:101D0000E35AFF4FF0829FB7F8940B8FEA89FB8963
:101D1000808180620AC09FB7F894EE89FF89608352
:101D2000E889F98980818370806480839FBF81E026
:101D300090E0DF91CF911F910F91FF90EF90089568
:101D4000CF93DF93EC01888D8823C9F0EA89FB8962
:101D5000808185FD05C0A889B9898C9186FD0FC059
:101D60000FB607FCF5CF808185FFF2CFA889B9892E
:101D70008C9185FFEDCFCE010E94310EE7CFDF9130
:101D8000CF910895CF92DF92EF92FF921F93CF935E
:101D9000DF93EC016A017B01122FE889F98982E067
:101DA00080834115514E61057105B1F060E079E025
:101DB0008DE390E0A70196010E944121DA01C9015B
:101DC0000197A109B109B695A795979587959C01AB
:101DD000211580E13807A8F0E889F989108260E8C8
:101DE00074E88EE190E0A70196010E944121DA019A
:101DF000C9010197A109B109B695A795979587954E
:101E00009C01EC85FD853083EE85FF852083188E4F
:101E1000EC89FD891083EA89FB8980818061808358
:101E2000EA89FB89808188608083EA89FB898081D7
:101E300080688083EA89FB8980818F7D8083DF9140
:101E4000CF911F91FF90EF90DF90CF9008951F9258
:101E50000F920FB60F9211242F938F939F93EF93AE
:101E6000FF93E0910604F09107048081E0910C0457
:101E7000F0910D0482FD12C0908180910F048F5F5C
:101E80008F7320911004821751F0E0910F04F0E05D
:101E9000EA50FC4F958F80930F0401C08081FF9121
:101EA000EF919F918F912F910F900FBE0F901F90E8
:101EB00018951F920F920FB60F9211242F933F93F4
:101EC0004F935F936F937F938F939F93AF93BF9342
:101ED000EF93FF9386EF93E00E94310EFF91EF9115
:101EE000BF91AF919F918F917F916F915F914F9132
:101EF0003F912F910F900FBE0F901F90189586EF76
:101F000093E00E94E60D21E0892B09F420E0822F66
:101F10000895E6EFF3E01382128288EE93E0A0E0EA
:101F2000B0E084839583A683B7838BE892E09183A6
:101F3000808385EC90E09587848784EC90E0978798
:101F4000868780EC90E0918B808B81EC90E0938B86
:101F5000828B82EC90E0958B848B86EC90E0978B63
:101F6000868B118E128E138E148E08950E941C1370
:101F70000E94491B0E942B07C3E2DEE00E949707E4
:101F80002097E1F30E94230EF9CFCF92DF92EF92D8
:101F9000FF920F931F93CF93DF936C017A018B0114
:101FA000C0E0D0E0CE15DF0581F0D8016D918D0144
:101FB000D601ED91FC910190F081E02DC6010995CB
:101FC000892B11F02196EECF7E01C701DF91CF91D1
:101FD0001F910F91FF90EF90DF90CF900895EF92B7
:101FE000FF920F931F93CF93DF938C017B01C0E08F
:101FF000D0E0F701EC0FFD1F6491662361F0D8017A
:10200000ED91FC910190F081E02DC8010995892B9B
:1020100011F02196EECFCE01DF91CF911F910F915C
:10202000FF90EF9008950C948D01DC01ED91FC91EF
:102030000190F081E02D099469E972E00C948D0122
:102040000F931F93CF93DF93EC010E948D018C01BE
:10205000CE010E941C10800F911FDF91CF911F9124
:102060000F9108958F929F92AF92BF92EF92FF923D
:102070000F931F93CF93DF93CDB7DEB7A1970FB622
:10208000F894DEBF0FBECDBF7C01FA01CB0119A2CF
:10209000223008F42AE08E010F5D1F4F822E912C12
:1020A000A12CB12CBF01A50194010E944121F9018D
:1020B000CA01015011096A3010F4605D01C0695C09
:1020C000D8016C93232B242B252B61F7B801C70172
:1020D0000E948D01A1960FB6F894DEBF0FBECDBF52
:1020E000DF91CF911F910F91FF90EF90BF90AF9034
:1020F0009F908F9008952115310541F4DC01ED91F9
:10210000FC910190F081E02D642F09940C94321021
:102110009A01462F50E060E070E00C947B100F9322
:102120001F93CF93DF93EC010E9488108C01CE01A6
:102130000E941C10800F911FDF91CF911F910F9172
:1021400008959A01AB0160E070E00C947B10CF928F
:10215000DF92EF92FF920F931F93CF93DF9321159E
:10216000310581F4DC01ED91FC910190F081E02DCD
:10217000642FDF91CF911F910F91FF90EF90DF902F
:10218000CF9009942A30310501F577FF1DC06A010F
:102190007B01EC016DE20E9415108C01442755274C
:1021A000BA014C195D096E097F092AE0CE010E942F
:1021B0003210800F911FDF91CF911F910F91FF90EF
:1021C000EF90DF90CF9008952AE0DF91CF911F919B
:1021D0000F91FF90EF90DF90CF900C9432109A0106
:1021E000AB01770F660B770B0C94A7100F931F931F
:1021F000CF93DF93EC010E94EF108C01CE010E947F
:102200001C10800F911FDF91CF911F910F910895A6
:102210007F928F929F92AF92BF92CF92DF92EF9276
:10222000FF920F931F93CF93DF938C016A017B0181
:10223000722E9A01AB01C701B6010E9428218823A2
:1022400019F06CE972E027C046015701E894B7F82D
:102250002FEF3FEF4FE75FE7C501B4010E94282150
:1022600081110DC02FEF3FEF4FE75FE7C501B401CC
:102270000E94150C18161CF460EA72E00CC02FEFD7
:102280003FEF4FE75FE4C701B6010E94740D1816D7
:1022900094F464EA72E0C801DF91CF911F910F912D
:1022A000FF90EF90DF90CF90BF90AF909F908F9076
:1022B0007F900C948D012FEF3FEF4FE75FECC7014C
:1022C000B6010E94150C87FDE4CF20E030E0A901A3
:1022D000C701B6010E94150C87FF0AC06DE2C80154
:1022E0000E941510EC01F7FAF094F7F8F09402C090
:1022F000C0E0D0E0B12C60E070E080E09FE37B14B0
:1023000041F020E030E040E251E40E941A0CB39426
:10231000F6CFA70196010E94A90B6B017C010E94D8
:10232000930C4B015C012AE0AB01BC01C8010E9487
:102330003210C80FD91F7720B9F1C501B4010E942E
:10234000C20C9B01AC01C701B6010E94A80B6B0136
:102350007C016EE2C8010E941510C80FD91F20E051
:1023600030E040E251E4C701B6010E94790D4B0113
:102370005C010E94930C6B017C014AE050E0C801B3
:102380000E94A110C80FD91FB60180E090E00E9402
:10239000C20C9B01AC01C501B4010E94A80B6B01EA
:1023A0007C017A947110DBCFCE01DF91CF911F9128
:1023B0000F91FF90EF90DF90CF90BF90AF909F90E4
:1023C0008F907F9008950C9408110F931F93CF93D3
:1023D000DF93EC010E9408118C01CE010E941C10B9
:1023E000800F911FDF91CF911F910F910895089554
:1023F0008230E8F4E82FF0E0EE0FFF1FED5CFE4FB7
:1024000071836083813041F0809169008C7F482B1B
:1024100040936900E89A089580916900837F440F92
:10242000551F440F551F482B40936900E99A0895A2
:102430001F920F920FB60F9211242F933F934F9339
:102440005F936F937F938F939F93AF93BF93EF931C
:10245000FF93E0913301F09134010995FF91EF91E1
:10246000BF91AF919F918F917F916F915F914F91AC
:102470003F912F910F900FBE0F901F9018951F92B4
:102480000F920FB60F9211242F933F934F935F93A8
:102490006F937F938F939F93AF93BF93EF93FF932C
:1024A000E0913501F09136010995FF91EF91BF91CF
:1024B000AF919F918F917F916F915F914F913F91DC
:1024C0002F910F900FBE0F901F9018951F920F9293
:1024D0000FB60F9211242F933F938F939F93AF9337
:1024E000BF938091940490919504A0919604B0912B
:1024F00097043091930423E0230F2D3720F40196A5
:10250000A11DB11D05C026E8230F0296A11DB11D16
:10251000209393048093940490939504A09396043D
:10252000B09397048091980490919904A0919A0493
:10253000B0919B040196A11DB11D809398049093C6
:102540009904A0939A04B0939B04BF91AF919F917B
:102550008F913F912F910F900FBE0F901F90189564
:102560003FB7F8948091980490919904A0919A04AF
:10257000B0919B0426B5A89B05C02F3F19F001968A
:10258000A11DB11D3FBFBA2FA92F982F8827820FF9
:10259000911DA11DB11DBC01CD0142E0660F771F49
:1025A000881F991F4A95D1F708958F929F92AF92F5
:1025B000BF92CF92DF92EF92FF926B017C010E945B
:1025C000B0124B015C01C114D104E104F10401F12A
:1025D0000E94871C0E94B012DC01CB018819990966
:1025E000AA09BB09883E9340A105B10560F321E02B
:1025F000C21AD108E108F10888EE880E83E0981E1F
:10260000A11CB11CC114D104E104F10419F7DBCF02
:10261000FF90EF90DF90CF90BF90AF909F908F9002
:1026200008958230910538F0880F991F880F991FFF
:1026300005970197F1F70895789484B5826084BD79
:1026400084B5816084BD85B5826085BD85B58160B6
:1026500085BDEEE6F0E0808181608083E1E8F0E016
:102660001082808182608083808181608083E0E845
:10267000F0E0808181608083E1EBF0E08081846024
:102680008083E0EBF0E0808181608083EAE7F0E026
:10269000808184608083808182608083808181608A
:1026A00080838081806880831092C10008958E307D
:1026B00008F08E502091370190E4299F9001112459
:1026C0008770822B80937C0080917A008064809355
:1026D0007A0080917A0086FDFCCF8091780020916D
:1026E000790090E0922B08951F93CF93DF93182FDA
:1026F000EB0161E00E94FC13209711F460E004C03C
:10270000CF3FD10539F461E0812FDF91CF911F9147
:102710000C943814E12FF0E0EE54FF4FE491E330D5
:10272000F9F048F4E130B9F0E230A1F584B5806207
:1027300084BDC8BD34C0E730E9F0E83019F1E430B9
:1027400049F580918000806280938000D0938B0057
:10275000C0938A0024C084B5806884BDC7BD1FC0F3
:1027600080918000806880938000D0938900C0931E
:10277000880015C08091B00080688093B000C0933D
:10278000B3000DC08091B00080628093B000C09310
:10279000B40005C0C038D1050CF0B5CFAFCFDF9184
:1027A000CF911F910895833081F028F4813099F002
:1027B0008230A1F008958730A9F08830B9F08430D4
:1027C000D1F4809180008F7D03C0809180008F774D
:1027D00080938000089584B58F7702C084B58F7D83
:1027E00084BD08958091B0008F7703C08091B000C0
:1027F0008F7D8093B0000895CF93DF9390E0FC012C
:10280000EA53FF4F2491FC01E652FF4F8491882345
:1028100061F190E0880F991FFC01EE5FFE4FC591BA
:10282000D491FC01E850FF4FA591B491611109C00A
:102830009FB7F8948881209582238883EC912E237A
:102840000BC0623061F49FB7F8948881322F3095C5
:1028500083238883EC912E2B2C939FBF06C08FB7C8
:10286000F894E8812E2B28838FBFDF91CF910895B4
:102870001F93CF93DF93282F30E0F901EE54FF4FE1
:102880008491F901EA53FF4FD491F901E652FF4FC9
:10289000C491CC23C1F0162F81110E94D313EC2FC9
:1028A000F0E0EE0FFF1FE850FF4FA591B4919FB7E6
:1028B000F894111104C08C91D095D82302C0EC91EA
:1028C000DE2BDC939FBFDF91CF911F910895E091A4
:1028D000C804F091C9048081811103C08FEF9FEF7C
:1028E0000CC0E091C804F091C9040580F681E02D88
:1028F0000680F781E02D828193819093A0048093DC
:102900009F040895FF920F931F93CF93DF93EC01E1
:10291000F62E0091A7041091A804809100059091D3
:10292000010502960E94171DCF3F8FEFD80789F44B
:10293000FF2079F060910005709101056E5F7F4F77
:102940008AEA94E0DF91CF911F910F91FF900C9450
:10295000BE1CC00FD11FE0910005F0910105D3838B
:10296000C2836091000570910105C017D10768F41A
:102970008091C6049091C7046E5F7F4FDF91CF9125
:102980001F910F91FF900C94DF1C8091C8049091CF
:10299000C9046E5F7F4F0E94DF1C80919F0490915D
:1029A000A004C817D90720F4D093A004C0939F04B3
:1029B000DF91CF911F910F91FF9008958091B30403
:1029C000882309F10FB6F8940F92E091B904F091C1
:1029D000BA04C681D781CE0102960E94171D80914C
:1029E000A90481508093A9048091B30481508093FD
:1029F000B3040F900FBE8F89988D0E949B1CCE014F
:102A00000E949B1CDBCF8091DC04823010F00E947E
:102A1000DF1D0E944E1BD2CF5F926F927F928F92EA
:102A20009F92AF92BF92CF92DF92EF92FF920F935D
:102A30001F93CF93DF933C016B015A014901502E44
:102A4000CA010E94881C8C01892B09F4E0C088E22D
:102A500090E00E94881CEC01892BC9F0188F0F8B25
:102A6000A50165EA70E0C8010E94E02221E0A21AF7
:102A7000B1088F89988DA80EB91EC114D104C9F070
:102A8000BE01675E7F4FF601C601089607C0C80108
:102A90000E949B1CBCC0E817F90749F09F014191B7
:102AA000DB014D93BD01D9012C912111F4CF18A266
:102AB00001C0198E052D043008F003E00E8B09A328
:102AC0001AA26E01B2E0CB0ED11CC6010E94BA1C44
:102AD000CE010C960E94BA1CD987C88784E090E08A
:102AE000801B91099D878C87DB8BCA8B1BA21CA244
:102AF0001DA21EA21FA2A401B301C5010E943B1D7D
:102B000099838883E114F10419F0F701D183C0831C
:102B10000FB6F8940F928091A9048F5F8093A90457
:102B20008091000590910105892BD1F5D093010585
:102B3000C09300058091A904813009F041C08CED5B
:102B400094E00E94AC1C85EE94E00E94AC1C8EEEDA
:102B500094E00E94AC1C87EF94E00E94AC1C83EDD3
:102B600094E00E94AC1C8AEC94E00E94AC1C8DEBBB
:102B700094E00E94AC1C84EB94E00E94AC1C8AEAB6
:102B800094E00E94AC1C83ED94E09093C904809380
:102B9000C8048AEC94E09093C7048093C60410C0E4
:102BA0008091A50481110CC0E0910005F091010510
:102BB00096898E89891720F0D0930105C09300056E
:102BC0008091A1048F5F8093A1048E899091A604C7
:102BD000981710F48093A604F9E08F9FC001112488
:102BE000B60184529B4F0E94BE1C0F900FBE809175
:102BF000A504882351F0E0910005F0910105968924
:102C00008E89981710F40E94DF1D81E001C08FEFBC
:102C1000DF91CF911F910F91FF90EF90DF90CF90B8
:102C2000BF90AF909F908F907F906F905F9008952E
:102C30000F931F93CF93DF932091000530910105EF
:102C40008217930709F438C0009709F435C00FB60E
:102C5000F8940F92FC01228533852A5A344051F5AD
:102C6000FC0124893589F4E02D3B3F0719F1232B22
:102C700009F5EC018C010E5F1F4FC8010E94171D62
:102C80008E899091A604981710F48093A60429E0E9
:102C9000829FC0011124B80184529B4F0E94BE1C28
:102CA000E0910005F09101059E898689981710F042
:102CB0000E94DF1D0F900FBEDF91CF911F910F91EA
:102CC0000895EF92FF920F938DE9E82E84E0F82E9D
:102CD00000E020E030E040EC50E068EA72E08EED89
:102CE00094E10E940C158130B1F40E949619813054
:102CF00091F4F8942FEF3FEF3093A00420939F04BA
:102D00008093A5041092A8041092A7040F91FF903D
:102D1000EF900C94A71D0F91FF90EF900895809174
:102D20009C048F5F80939C0408950FB6F8940F92D3
:102D30008091A7049091A8040F900FBE0895CF92A0
:102D4000DF92EF92FF920F931F93CF93DF938091C7
:102D50009C0481118CC00091A7041091A8040F5FFE
:102D60001F4F1093A8040093A70401151105B9F48F
:102D70008091C8049091C9042091C6043091C70481
:102D80003093C9042093C8049093C7048093C60469
:102D90008091A2048F5F8093A2040E9467148091A7
:102DA0009F049091A004C0E00817190708F44FC0D1
:102DB000D9E0E091C804F091C9048081811103C079
:102DC0008FEF9FEF11C0E091C804F091C904058016
:102DD000F681E02DE680F780D70112968D919C91C7
:102DE00013970817190728F49093A00480939F0461
:102DF0002EC06701B2E0CB0ED11CC6010E94171D88
:102E0000F70184899589892B21F0C7010C960E94CE
:102E1000171DD70156968C919091A604981710F41F
:102E20008093A604D89FC0011124B60184529B4F01
:102E30000E94BE1CE0910005F0910105D701569655
:102E40009C918689981708F4B4CFC1E0B2CFE09185
:102E50000005F0910105E689B9E0EB9FF00111242E
:102E6000E452FB4F8081823040F0C1E006C0809187
:102E7000A4048F5F8093A404C0E08091A304811117
:102E8000C1E08C2FDF91CF911F910F91FF90EF90B8
:102E9000DF90CF900895EF92FF920F931F93CF93FF
:102EA000DF930FB6F8940F9280919C048150809329
:102EB0009C0480919C04882311F080E052C0809192
:102EC000A9048823D1F3C0E0D0E089E0F82EEE24F5
:102ED000E3948091BD04882351F1E091C204F09104
:102EE000C304C681D781CE010C960E94171D8E01A6
:102EF0000E5F1F4FC8010E94171D8E899091A60476
:102F0000981710F48093A604F89EC0011124B8010C
:102F100084529B4F0E94BE1CE0910005F091010578
:102F20009E8986899817A8F2E092A304D2CFCD2B70
:102F300011F00E946714C091A404CC2351F0D1E099
:102F40000E949F168111D093A304C150C9F710921B
:102F5000A4048091A304882309F4AFCF0E94DF1D4D
:102F600081E00F900FBEDF91CF911F910F91FF90E5
:102F7000EF9008950F931F93CF93DF938C01EB0194
:102F80000E948F164091A7045091A804F801208157
:102F90003181C9018C0F9D1F4217530720F48217FE
:102FA000930740F403C08217930730F021E04817DD
:102FB000590718F020E001C021E0F80191838083D7
:102FC000222329F060E0841B950B0E9482140E944A
:102FD0004B17811102C00E94DF1DDF91CF911F911D
:102FE0000F91089580919C04882321F081E08093C3
:102FF000A30408951092A304A0910005B0910105C7
:10300000E0910005F09101052D913C918789908D0B
:103010008217930760F0609100057091010580911F
:10302000000590910105675E7F4F0E94641B8091AF
:10303000A60469E0482F50E0649F9001659F300D21
:103040001124F901E452FB4F9081911102C081508B
:10305000F1CFA181B28112960D90BC91A02DB283C7
:10306000A18321523B4FA217B30731F412962D9141
:103070003C9113973283218399E0949FF001959FAF
:10308000F00D1124E452FB4F0180F281E02D2681E6
:10309000378130930105209300058093A60408959D
:1030A000CF93DF93EB016091000570910105645FA0
:1030B0007F4F0E94DF1C61E0CE01DF91CF910C9425
:1030C00082141F93CF93DF93EB01142F60910005BF
:1030D00070910105645F7F4F0E94BE1C112311F0A7
:1030E000CFEFDFEF612FCE01DF91CF911F910C94D5
:1030F00082140F931F93CF93DF93DC011596ED910C
:10310000FC911697C681D7818E01045F1F4FC801BD
:103110000E94171D80919C04811114C00A5011094E
:10312000C8010E94171D8E899091A604981710F46B
:103130008093A604B9E08B9FC0011124B80184528A
:103140009B4F03C0B8018DEB94E00E94BE1CE09140
:103150000005F09101059E898689891720F481E098
:103160008093A30401C080E0DF91CF911F910F9164
:1031700008952091A204FC0120832091A70430919E
:10318000A804328321830895CF93DF930FB6F89478
:103190000F924091A7045091A804DB012D913C911E
:1031A0002F3FBFEF3B07D9F0EC01E981FA81A091F5
:1031B000A204B881BA1719F04E175F0790F44E1B9E
:1031C0005F0BFB014217530738F4241B350B318387
:1031D00020830E94B91803C01182108202C080E0CF
:1031E00001C081E00F900FBEDF91CF91089581E083
:1031F0008093A30408958091A504882331F08091E1
:103200009C04882321F080E0089581E0089582E005
:1032100008950F931F93CF93DF93FC01892B11F433
:1032200080E02CC082A1815082A3268991A1291718
:10323000B9F38111F5CFEF018F010E5F1F4FC80168
:103240000E94171D89A18E8B482F50E024E030E0AA
:10325000241B350B3D872C879091A604981710F4FA
:103260008093A60429E0249FC001259F900D11247E
:10327000B80184529B4F0E94BE1C81E0DF91CF9128
:103280001F910F9108950FB6F8940F928091060543
:1032900090910705892BE9F485E195E00E94AC1C2B
:1032A0008CE095E00E94AC1C85E195E090930B05C5
:1032B00080930A058CE095E09093090580930805BA
:1032C00040E065E08AE00E948D1F9093070580939F
:1032D00006050F900FBE0895FC01738362839187EA
:1032E00080874617570778F0421B530B84859585D6
:1032F00048175907C8F4BF016E5F7F4F80910805DA
:10330000909109050DC04217530718F4621773070F
:1033100058F4BF016E5F7F4F80910A0590910B05B5
:103320000E94DF1C80E0089581E00895EF92FF92F3
:103330000F930E9443198091060590910705892BF0
:1033400081F084E0E82E85E0F82E03E020E030E014
:1033500045E550E06DEA72E086E49AE10E940C15C2
:1033600001C080E00F91FF90EF9008950F931F939D
:10337000CF93DF9300D000D01F92CDB7DEB7A091DE
:103380000605B0910705109729F1F90169835B8360
:103390004A839D838C836630A4F40E94FB18E091DD
:1033A0000605F091070520E0823011F4A80102C063
:1033B00040E050E0BE016F5F7F4FCF010E94B51F1C
:1033C0000AC020E0AF01BE016F5F7F4FCD010E94B8
:1033D0004B2001C080E00F900F900F900F900F9046
:1033E000DF91CF911F910F910895EF92FF920F936C
:1033F0001F93CF93DF93E0910A05F0910B05808135
:10340000882389F10580F681E02DE080F180C68176
:10341000D7818E010E5F1F4FC8010E94171DE889DA
:10342000F989CE0109958A8982FFE5CF8C859D8532
:103430008E0D9F1DE816F90660F49B838A83D98759
:10344000C887B80180910A0590910B050E94DF1C86
:10345000D2CF00E010E020E030E0A70160E0CE0134
:103460000E94B619C8CF80910805909109059093E4
:103470000B0580930A05F0930905E0930805DF9199
:10348000CF911F910F91FF90EF900895CF93DF930D
:1034900000D000D01F92CDB7DEB7E0910A05F091C1
:1034A0000B05D080DD2031F00580F681E02DE08035
:1034B000F18002C0E12CF12C0E948F160E9495161B
:1034C0008C0180910205909103050817190720F4DB
:1034D0000E94F51981E001C080E01093030500937C
:1034E0000205811155C0DD20D9F10E151F0508F424
:1034F0003EC00E944B17E0910A05F0910B05058034
:10350000F681E02DC680D780C60102960E94171D65
:10351000D60152968C91529782FF17C01C966D91DE
:103520007C911D976E0D7F1D9701A801C6010E9419
:103530006C19882369F000E010E020E030E0A7017A
:1035400060E0C6010E94B61903C08E7FF601828B2F
:10355000D6015096ED91FC915197C60109951EC078
:10356000E0910805F0910905808141E0811140E07A
:10357000B701601B710B80910605909107050E94B1
:103580000C210E944B17811109C00E94DF1D06C04B
:103590000E944B1703C0898187FF0EC040E050E0B6
:1035A000BE016F5F7F4F80910605909107050E94D5
:1035B0007A208111F0CF71CFEC80FD80F7018285F8
:1035C0009385892B21F0C70102960E94171D0E9446
:1035D00095166C018091020590910305C816D906D5
:1035E00010F40E94F519D0920305C0920205E981FA
:1035F0000E2E000CFF0BEA30F10580F6EC5CFF4F5D
:10360000D70152968C910C9482218160F701828BB4
:103610002A813B8164857585620F731FA601C701EE
:103620000E946C19882309F4B9CFD7015096ED9107
:10363000FC915197C7010995F701828982FFAECFAE
:103640004A815B8184859585480F591F00E010E011
:1036500020E030E060E0C7010E94B6199FCF816092
:10366000F701828B6A817B81758764876C0D7D1D74
:103670009601A601C7010E946C1990CF81FD04C07C
:10368000C7010E949B1C8ACF8E7FD70152968C93D4
:1036900085CF0E942B070E94611608950E9497070C
:1036A00083E29EE0892B11F00C94230E0895259A55
:1036B0002D9A2FEF80E792E0215080409040E1F773
:1036C00000C000001D9AF5CF259A2D9A2FEF87EAAA
:1036D00091E6215080409040E1F700C000001D9A23
:1036E000F5CF009709F474C010921F0510921E05C3
:1036F00010922C0510922B05109227051092280588
:103700001092290510922A0510922205209180001E
:103710002093310520918100209330051092810083
:1037200010928000109285001092840021E026BB48
:1037300010926F002091B00020932F052091B100CE
:1037400020932E051092B10022E02093B0009C013E
:1037500027703327232B51F443E0969587954A959C
:10376000E1F72CE72093B30027E018C09C012370F9
:103770003327232B31F4969587959695879529EFD6
:1037800005C080FD07C0969587952CE72093B30070
:1037900026E004C02CE72093B30025E020932D05FC
:1037A00022E027BB1092B200909321058093200560
:1037B0009FB7F89423BD80912D058093B10020938D
:1037C00070008BE08150F1F787E0809381009FBF0C
:1037D00008958091220508952FB7F89460912305EC
:1037E000709124058091250590912605109222055F
:1037F0002FBF0895E1EBF0E01082109270008091ED
:103800002F058093B00080912E058083E1E8F0E0E1
:1038100010828091310580938000809130058083F3
:1038200008951F920F920FB60F9211240F931F93BA
:103830002F933F934F935F936F937F938F939F93B8
:10384000AF93BF932091840030918500B09B0BC053
:1038500081E086BB80912B0590912C050196909379
:103860002C0580932B0580911E0590911F050196D4
:1038700040912005509121058417950798F11092E9
:103880001F0510921E0580912B0590912C05A0E03C
:10389000B0E0DC0199278827820F931FA11DB11D7D
:1038A00040912705509128056091290570912A05BE
:1038B0008C019D01041B150B260B370B0093230570
:1038C0001093240520932505309326058093270522
:1038D00090932805A0932905B0932A0581E0809351
:1038E000220504C090931F0580931E05BF91AF91E0
:1038F0009F918F917F916F915F914F913F912F9108
:103900001F910F910F900FBE0F901F901895089563
:10391000CF93DF93EC010E948F16CE010E94B62157
:10392000EC010E944B17209711F40E94571BCE0107
:10393000DF91CF910895CF93DF93009751F0EC0181
:103940000E948F16CE010E944E22DF91CF910C94DF
:103950004B17DF91CF910895FC01039692838183E9
:103960002FEF3FEF3483238396838583908787836C
:1039700010820895FC01118610860895CF93DF937D
:103980009C01FB01DC011196CD91DC911297D38350
:10399000C2838C819D81958384838C819D81DC0190
:1039A00013967C936E9312977D836C833187208767
:1039B000F90180818F5F8083DF91CF9108950F930C
:1039C0001F93CF93DF938C01FB01808191818F3F07
:1039D0002FEF920721F4E801AF81B8850EC0D8011E
:1039E000139612962D913C911397E90148815981C4
:1039F0008417950710F0D901F4CF12968D919C9100
:103A0000139793838283EC01FD83EC83B583A483B6
:103A10001396FC93EE93129711870087F80180812B
:103A20008F5F8083DF91CF911F910F910895CF9386
:103A3000DF93FC01A085B18582819381248135814A
:103A4000EC013D832C83C481D5819B838A831196AD
:103A50008D919C911297E817F90721F41296DC9347
:103A6000CE931197118610868C9181508C938C91F6
:103A7000DF91CF91089531E1FC013083319722E24B
:103A800020833197A3E3A0833197608331977083BC
:103A900031971082319760E86083319710823197B7
:103AA00062E06083319763E06083319764E0608314
:103AB000319765E06083319766E06083319767E016
:103AC0006083319768E06083319769E06083319764
:103AD00060E1608331973083319732E130833197F1
:103AE00033E13083319734E13083319735E13083EE
:103AF000319736E13083319737E13083319738E1C0
:103B00003083319739E13083319730E23083319718
:103B100031E2308331972083319723E2208331973C
:103B2000408331975083319726E22083319727E2F3
:103B30002083319728E22083319729E2208331972F
:103B400020E32083319721E3208386970895A89569
:103B500090EC88E10FB6F894A895809360000FBEB2
:103B600090936000A0910005B0910105CD91CDBF6B
:103B7000DD91DEBFFF91EF91DF91CF91BF91AF91CA
:103B80009F918F917F916F915F914F913F912F9175
:103B90001F910F91FF90EF90DF90CF90BF90AF906B
:103BA0009F908F907F906F905F904F903F902F905D
:103BB0001F900F900FBE0F90089581E008950F920F
:103BC0000FB6F8940F921F9211242F923F924F92AA
:103BD0005F926F927F928F929F92AF92BF92CF929D
:103BE000DF92EF92FF920F931F932F933F934F9388
:103BF0005F936F937F938F939F93AF93BF93CF9375
:103C0000DF93EF93FF93A0910005B09101050DB6EE
:103C10000D920EB60D920E94F217A0910005B09180
:103C20000105CD91CDBFDD91DEBFFF91EF91DF9119
:103C3000CF91BF91AF919F918F917F916F915F9144
:103C40004F913F912F911F910F91FF90EF90DF9037
:103C5000CF90BF90AF909F908F907F906F905F902C
:103C60004F903F902F901F900F900FBE0F90089590
:103C70000F920FB6F8940F921F9211242F923F9239
:103C80004F925F926F927F928F929F92AF92BF926C
:103C9000CF92DF92EF92FF920F931F932F933F9358
:103CA0004F935F936F937F938F939F93AF93BF9344
:103CB000CF93DF93EF93FF93A0910005B09101059F
:103CC0000DB60D920EB60D9213BE0E949F16811175
:103CD0000E94F217A0910005B0910105CD91CDBFD2
:103CE000DD91DEBFFF91EF91DF91CF91BF91AF9159
:103CF0009F918F917F916F915F914F913F912F9104
:103D00001F910F91FF90EF90DF90CF90BF90AF90F9
:103D10009F908F907F906F905F904F903F902F90EB
:103D20001F900F900FBE0F9008950E94381E189597
:103D30000FB6F8940F92FC01928D0F900FBE81E0A8
:103D4000911180E008950F931F93CF93DF93EC01BF
:103D5000042F1A8D4C8D41110BC088819981892BBC
:103D6000E9F58C819D810E9409191D821C8237C052
:103D700050E0011115C08A819B810E94D7222C8DB1
:103D80008A819B81820F911D9B838A832C813D8137
:103D90008217930718F1888199819B838A831EC0BB
:103DA0008E819F810E94D7228C8D90E09195819584
:103DB00091092E813F81280F391F3F832E8348812F
:103DC00059812417350730F42C813D81820F931FD0
:103DD0009F838E83023011F41111115080E01F5F18
:103DE0001A8FDF91CF911F910F910895FC01CB01A4
:103DF000448D4423A1F050E026813781240F351FE4
:103E000037832683648175812617370720F0208148
:103E1000318137832683668177810C94D722089578
:103E2000EF92FF921F93CF93DF93EC010FB6F894BC
:103E30000F921E8D7C0181E1E80EF11C11165CF4DD
:103E40008989882341F0C7010E94791881110E9455
:103E5000F7181150F3CF8FEF8E8F0F900FBE0FB664
:103E6000F8940F921D8D7E0188E0E80EF11C11166A
:103E70005CF48885882341F0C7010E94791881117C
:103E80000E94F7181150F3CF8FEF8D8F0F900FBE58
:103E9000DF91CF911F91FF90EF900895CF93DF9323
:103EA000EC010FB6F8940F92488159818B8D7C8D6F
:103EB0009A01879F200D311D11243D832C831A8E7A
:103EC0005B834A8390E00197789F9001799F300D42
:103ED0001124CA01820F931F9F838E838FEF8D8FD2
:103EE0008E8F61110CC08885882389F0CE010896D9
:103EF0000E947918882359F00E94DF1D08C0CE0166
:103F000008960E94AC1CCE0141960E94AC1C0F90FA
:103F10000FBE81E0DF91CF9108950F931F93CF9350
:103F2000DF93082F162F662321F0869FC0011124EE
:103F300002C080E090E04F960E94881CEC01009740
:103F400071F0111103C09983888303C04F96998340
:103F500088830B8F1C8F61E0CE010E944E1FCE0123
:103F6000DF91CF911F910F910895AF92BF92CF92A1
:103F7000DF92FF920F931F93CF93DF9300D000D077
:103F80001F92CDB7DEB78C016B015D834C83F22E9F
:103F900080E0580198E0A90EB11C0FB6F8940F927A
:103FA000F801228D938D291718F0F2E0FF1214C04A
:103FB0004F2DB601C8010E94A31EF80191899923D3
:103FC00021F0C80141960E94791881110E94DF1DDD
:103FD0000F900FBE81E050C02C813D81232B19F43E
:103FE0000F900FBE48C0811104C0CE0101960E94FF
:103FF000B9180F900FBE0E948F160FB6F8940F924B
:10400000F801858D8F3F09F4158EF801868D8F3F5D
:1040100009F4168E0F900FBEBE016C5F7F4FCE016C
:1040200001960E94C418811121C00FB6F8940F9216
:10403000F801928D838D0F900FBE981311C06C8183
:104040007D81C5010E945018C8010E94101F0E9466
:104050004B17882311F081E0A0CF0E94DF1DFBCF1A
:10406000C8010E94101F0E944B17F5CFC8010E9483
:10407000101F0E944B1780E00F900F900F900F9031
:104080000F90DF91CF911F910F91FF90DF90CF9014
:10409000BF90AF900895EF92FF921F93CF93DF935D
:1040A000EC019A8D8B8D981710F02230E1F47A0193
:1040B0001E8D422FCE010E94A31E1F3F81F48989CD
:1040C000882379F0CE0141960E947918882349F01F
:1040D000E114F10431F081E0F701808305C01F5F36
:1040E0001E8F81E001C080E0DF91CF911F91FF9092
:1040F000EF900895AF92BF92CF92DF92FF920F930D
:104100001F93CF93DF9300D000D01F92CDB7DEB7BF
:104110008C016B015D834C8380E0580191E1A90E15
:10412000B11C0FB6F8940F92F801F28CFF20A9F0A1
:10413000B601C8010E94F61EFA94F801F28E80853D
:10414000882339F0C80108960E94791881110E94CD
:10415000DF1D0F900FBE81E050C02C813D81232BCD
:1041600019F40F900FBE48C0811104C0CE01019612
:104170000E94B9180F900FBE0E948F160FB6F894C8
:104180000F92F801858D8F3F09F4158EF801868D09
:104190008F3F09F4168E0F900FBEBE016C5F7F4FEC
:1041A000CE0101960E94C41881111CC0C8010E9452
:1041B000981E882389F06C817D81C5010E9450186A
:1041C000C8010E94101F0E944B17882311F081E044
:1041D000A8CF0E94DF1DFBCFC8010E94101F0E94C4
:1041E0004B17F5CFC8010E94101F0E944B17C80142
:1041F0000E94981E882359F380E00F900F900F9033
:104200000F900F90DF91CF911F910F91FF90DF9052
:10421000CF90BF90AF900895CF93DF93EC010FB68E
:10422000F8940F928D8D8F3F09F41D8E8E8D8F3FE8
:1042300009F41E8E0F900FBE8A8D811104C0CE012D
:1042400041960E946118CE01DF91CF910C94101F0E
:104250000E94FF0C880B990B089597FB072E16F40C
:10426000009407D077FD09D00E94932107FC05D068
:104270003EF4909581959F4F0895709561957F4F7D
:104280000895A1E21A2EAA1BBB1BFD010DC0AA1F97
:10429000BB1FEE1FFF1FA217B307E407F50720F0AF
:1042A000A21BB30BE40BF50B661F771F881F991F2A
:1042B0001A9469F760957095809590959B01AC0173
:1042C000BD01CF010895052E97FB1EF400940E94B6
:1042D0007A2157FD07D00E94412107FC03D04EF4FC
:1042E0000C947A2150954095309521953F4F4F4F32
:1042F0005F4F089590958095709561957F4F8F4F92
:104300009F4F0895EE0FFF1F0590F491E02D099443
:104310000E94A721A59F900DB49F900DA49F800D92
:10432000911D11240895AA1BBB1B51E107C0AA1FB0
:10433000BB1FA617B70710F0A61BB70B881F991F46
:104340005A95A9F780959095BC01CD010895A29F3B
:10435000B001B39FC001A39F700D811D1124911D59
:10436000B29F700D811D1124911D08950F931F930D
:10437000CF93DF938230910510F482E090E0E091DA
:104380003405F091350520E030E0A0E0B0E0309752
:1043900019F1408151810281138148175907C8F0F2
:1043A0008417950769F4109731F012960C931297C1
:1043B00013961C9327C0009334051093350522C033
:1043C0002115310519F04217530718F49A01BD0160
:1043D000EF01DF01F801DBCF21153105F9F0281BD2
:1043E000390B2430310580F48A819B816115710578
:1043F00021F0FB019383828304C090933505809361
:104400003405FE01329644C0FE01E20FF31F819392
:10441000919322503109398328833AC02091320583
:1044200030913305232B41F4209102013091030197
:104430003093330520933205209100013091010122
:104440002115310541F42DB73EB74091040150913B
:104450000501241B350BE0913205F0913305E2177D
:10446000F307A0F42E1B3F0B2817390778F0AC0197
:104470004E5F5F4F2417350748F04E0F5F1F509374
:104480003305409332058193919302C0E0E0F0E060
:10449000CF01DF91CF911F910F910895CF93DF93BB
:1044A000009709F481C0FC01329713821282A09117
:1044B0003405B0913505109781F420813181820F48
:1044C000931F20913205309133052817390751F594
:1044D000F0933305E093320567C0ED0120E030E052
:1044E000CE17DF0740F44A815B819E0141155105DB
:1044F000F1F0EA01F5CFD383C28340815181840F6B
:10450000951FC817D90759F488819981840F951F81
:104510000296918380838A819B8193838283211574
:10452000310529F4F0933505E09334053DC0E901E8
:10453000FB83EA8349915991C40FD51FEC17FD07FE
:1045400061F480819181840F951F0296E90199831E
:104550008883828193819B838A83E0E0F0E01296D6
:104560008D919C911397009719F0FD01DC01F7CF15
:104570008D919C9111979D012E5F3F4F820F931F4C
:1045800020913205309133052817390769F43097A7
:1045900029F4109235051092340502C0138212825C
:1045A000B0933305A0933205DF91CF910895FB01BD
:1045B000DC0102C001900D9241505040D8F708959F
:1045C000DC0101C06D9341505040E0F70895F99926
:1045D000FECF92BD81BDF89A992780B50895262F08
:1045E000F999FECF1FBA92BD81BD20BD0FB6F894D8
:1045F000FA9AF99A0FBE0196089510E0C9E8D0E042
:1046000004C0FE010E9482212196CB38D107C9F750
:04461000F894FFCF4C
:1046140000003605200061FF00FF00FF00000000DD
:1046240000FF000000FF000000FF00000000000089
:10463400000000140017003000000000000000001B
:10464400000700F711F711015F6E65757472616CF4
:10465400566F6C746167653A005F61636964566F95
:104664006C746167653A00454E54455250480045A4
:1046740058495450480043414C5048004352432049
:104684006973206E6F742076616C696421004465DF
:1046940076696365206973206E6F742061204453CA
:1046A40031387832302066616D696C7920646576C2
:1046B4006963652E00633A2000726561645F696E08
:1046C4003A20005247420020666F756E64456D7053
:1046D4007479426F78200020666F756E64456D7042
:1046E4007479426F784F725465737453747269703D
:1046F4002000700A004E65757472616C20566F6CF0
:10470400746167653A000A4163696420566F6C748A
:104714006167653A000A566F6C74616765204D6580
:104724006173757265643A000A70482056616C754D
:10473400653A00740A005374617274696E67207379
:104744006574757000436F6C6F7253656E736F722E
:10475400005048616E6454656D7065726174757261
:104764006500496E736964652073657475700070C3
:10477400683A0074656D703A00616D6D6F6E6961C1
:104784003A006E6974726974653A006E6974726194
:1047940074653A0000010200000000530EC50F14B6
:1047A4000EA00EE60D000EF20D0D0A006E616E00F5
:1047B400696E66006F76660049444C4500546D721C
:0647C400205376630000A3
:00000001FF
