:100000000C9479000C94FA0B0C94210C0C94A10024
:100010000C94A1000C94A1000C94441B0C94E71BBD
:100020000C94A1000C94A1000C94A1000C94A100CC
:100030000C94A1000C94A1000C94A1000C94A100BC
:100040000C94480C0C94A1000C942F090C94610999
:100050000C94A1000C94A1000C94A1000C94A1009C
:100060000C94A1000C94A1004F174F174F178E1737
:10007000791788174F174F178E1779170A466F751C
:100080006E64204D61746368696E6720436F6C6FA6
:1000900072000000000800020100000304070000D5
:1000A000000000000000010204081020408001024E
:1000B00004081020010204081020040404040404AD
:1000C000040402020202020203030303030300000A
:1000D0000000230026002900000000002500280061
:1000E0002B0000000000240027002A006905910968
:1000F000790511241FBECFEFD8E0DEBFCDBF12E0DF
:10010000A0E0B1E0EEE7FCE302C005900D92A2345E
:10011000B107D9F724E0A2E4B2E001C01D92A53BEB
:10012000B207E1F710E0C8E7D0E004C02197FE0174
:100130000E94B71CC637D107C9F70E94BE090C94AC
:10014000321E0C9400000C941C1EFC0180E090E018
:10015000A8ECB1E4808B918BA28BB38B80E090E014
:10016000A0EEB0E480839183A283B38384E19EE018
:10017000AEEFB4E484839583A683B78380E090E8F0
:10018000ABEBB4E480879187A287B3878487958798
:10019000A687B78708950895CF92DF92EF92FF92D6
:1001A0000F931F93CF93DF93EC017C0188E0E80E5F
:1001B000F11C670100E010E0C8010E94A300F601F5
:1001C00081936F010F5F1F4F04301105A9F760E3A2
:1001D00071E084E793E00E941B0A488559856A858F
:1001E0007B8522E030E084E793E00E94C70B80E04B
:1001F00090E00E94A3008F3F39F581E090E00E94DB
:10020000A3008F3F09F582E090E00E94A3008F3F9A
:10021000D9F483E090E00E94A3008F3FA9F480E02E
:1002200090E8ABEBB4E488879987AA87BB8700E0A6
:1002300010E0F70161917F01C8010E94241E0F5F49
:100240001F4F04301105A9F77E01F4E0EF0EF11CF9
:10025000670104E010E0C8010E94A300F601819349
:100260006F010F5F1F4F08301105A9F761E471E0BE
:1002700084E793E00E941B0A4C815D816E817F813F
:1002800022E030E084E793E00E94C70B84E090E036
:100290000E94A3008F3F31F585E090E00E94A3000B
:1002A0008F3F01F586E090E00E94A3008F3FD1F4DC
:1002B00087E090E00E94A3008F3FA1F484E19EE0DC
:1002C000AEEFB4E48C839D83AE83BF83C4E0D0E003
:1002D000F70161917F01CE010E94241E2196C83052
:1002E000D105B1F7DF91CF911F910F91FF90EF9062
:1002F000DF90CF90089580914402909145020C9434
:1003000062126115710579F0FB0101900020E9F797
:100310003197AF01461B570BDC01ED91FC91028038
:10032000F381E02D099480E090E008950F931F93EE
:10033000CF93DF93C3E3D3E0188219821A821B8222
:100340001D821C821F821E8219861886ADEEB2E0C5
:100350001D921D921D921C9213972FEF30E015965F
:100360003C932E9314978FE590E017969C938E9371
:10037000169719969C938E931897E7EAF2E01082ED
:100380001182128213823583248397838683918717
:10039000808740E050E060E87EE34A875B876C87B7
:1003A0007D871F861E86198A188A1B8A1A8A4AE93F
:1003B00059E969E17EE31A964D935D936D937C93C1
:1003C0001D971F961C921E921E9751961C921E926C
:1003D000509753961C921E92529740E050E060E076
:1003E0007FE3428753876487758717861686118A4D
:1003F000108A138A128A4C8B5D8B6E8B7F8B198EC1
:10040000188E1B8E1A8E1D8E1C8E4AE959E969E9D9
:100410007EE354964D935D936D937C9357975996D5
:100420001C921E9258975B961C921E925A975D964C
:100430001C921E925C9740E050E060E070E4448BB8
:10044000558B668B778B118E108E138E128E158EB8
:10045000148E00E010E020E430E40E8F1F8F28A3FC
:1004600039A31BA21AA21DA21CA21FA21EA240E019
:1004700050E060E87FE35E964D935D936D937C93CF
:10048000919793961C921E92929795961C921E920B
:10049000949797961C921E92969740E050E060EADF
:1004A00070E4468F578F60A371A313A212A215A206
:1004B00014A217A216A240E050E060EC70E448A736
:1004C00059A76AA77BA71DA61CA61FA61EA619AA28
:1004D00018AA40E050E060EC7FE398964D935D935E
:1004E0006D937C939B979D961C921E929C979F96D2
:1004F0001C921E929E97D1961C921E92D09740E01D
:1005000050E060E271E440A751A762A773A715A667
:1005100014A617A616A611AA10AAD2960D931D937B
:100520002D933C93D597D7961C921E92D697D99629
:100530001C921E92D897DB961C921E92DA9700E0CE
:1005400010E020EA31E402AB13AB24AB35AB17AAC1
:1005500016AA11AE10AE13AE12AEDC964D935D939B
:100560006D937C93DF9710922E0310922D031092BF
:10057000300310922F03109232031092310380E067
:1005800090E0A8E4B2E484AF95AFA6AFB7AF109205
:10059000E8021092E7021092EA021092E902109229
:1005A000EC021092EB02DF91CF911F910F91089511
:1005B0001F93CF93DF931091A402D091A502C09115
:1005C000A6026DE971E084E793E00E941B0A609146
:1005D0009E0270919F024AE050E084E793E00E94FF
:1005E000D30A6FE971E084E793E00E941B0A6091EF
:1005F000A0027091A1024AE050E084E793E00E94DB
:10060000D30A6FE971E084E793E00E941B0A6091CE
:10061000A2027091A3024AE050E084E793E00E94B6
:10062000D30A61EA71E084E793E00E941B0A4AE082
:1006300050E0612F84E793E00E947E0A6FE971E049
:1006400084E793E00E941B0A4AE050E06D2F84E7A4
:1006500093E00E947E0A6FE971E084E793E00E94D4
:100660001B0A4AE050E06C2F84E793E00E947E0A68
:10067000612F70E080919E0290919F029C01255015
:1006800031096217730764F105968617970744F1DD
:100690006D2F70E08091A0029091A1029C012550E5
:1006A000310962177307E4F0059686179707C4F0BF
:1006B0006C2F70E08091A2029091A3029C012550C2
:1006C00031096217730764F005968617970744F09F
:1006D0006CE770E084E793E00E94F70981E001C0D5
:1006E00080E0DF91CF911F9108950F931F93CF93D7
:1006F000DF9380916503813009F448C040F0823077
:1007000009F06EC00DEE12E0C6E0D0E029C003E3B0
:1007100013E0C4E0D0E08AE0F801B896AAE9B2E0BC
:1007200001900D928A95E1F70E94D802882349F042
:100730008AE08C9FF0018D9FF00D1124ED5CFC4F41
:100740003EC021970A501109CF3F8FEFD80719F704
:1007500042C021970A501109CF3F8FEFD807D9F136
:100760008AE0F801FC96AAE9B2E001900D928A9520
:10077000E1F70E94D802882361F38AE08C9FF001A0
:100780008D9FF00D1124E351FD4F19C007EA12E0CF
:10079000C6E0D0E08AE0F801FC96AAE9B2E0019058
:1007A0000D928A95E1F70E94D802882369F08AE0C9
:1007B0008C9FF0018D9FF00D1124E955FD4F308184
:1007C0002181928183810BC021970A501109CF3F6B
:1007D0008FEFD807F9F630E020E090E88FEBAC011E
:1007E000632F722F852F942FDF91CF911F910F913F
:1007F00008958BE692E00E941E198BE692E00E941B
:1008000028198823D1F364EA72E08BE692E00E9413
:1008100054180E9475030E9494060895CF938BE6A6
:1008200092E00E941E198BE692E00E94281988230C
:10083000D1F364EA72E08BE692E00E9454188AE0F9
:10084000E2E2F1E0AAE9B2E001900D928A95E1F7C7
:100850000E94D802C82F6BEA71E084E793E00E94FF
:100860001B0A6C2F70E04AE050E084E793E00E949E
:10087000DA0A64E272E084E793E00E941B0A8AE0ED
:10088000E8E1F1E0AAE9B2E001900D928A95E1F782
:10089000C11103C00E94D802C82F6BEB71E084E73E
:1008A00093E00E941B0A6C2F70E04AE050E084E75E
:1008B00093E00E94DA0A64E272E084E793E00E9427
:1008C0001B0ACC2351F00E947503C1E020E030E008
:1008D00040E85FEB0E941D068111C0E08C2FCF9194
:1008E0000895CF93DF9300D000D000D0CDB7DEB70E
:1008F00049835A836B837C838D839E8369817A814C
:1009000082E00E942E0D6B817C8183E00E942E0D7F
:100910006D817E8184E026960FB6F894DEBF0FBE0F
:10092000CDBFDF91CF910C942E0DCF93DF9300D0EC
:10093000CDB7DEB70E94DF129A83898361E08DE034
:100940000E94B60D11E002E0409112015091130196
:100950006091140170911501809116019091170119
:100960000E947104109365030E940E048111FCCF54
:1009700040910C0150910D0160910E0170910F0199
:1009800080911001909111010E9471046AEF70E052
:1009900080E090E00E94B70C0E94F903409165024C
:1009A00050916602609167027091680280916902BD
:1009B00090916A020E947104009365030E940E04E4
:1009C0008111FCCF4091060150910701609108010F
:1009D0007091090180910A0190910B010E947104AC
:1009E0006AEF70E080E090E00E94B70C0E94F9038B
:1009F00040916502509166026091670270916802B1
:100A00008091690290916A020E94710461E772E02C
:100A1000CE0101960E94041497CF61E082E00E940B
:100A2000B60D61E083E00E94B60D61E084E00E94B3
:100A3000B60D409165025091660260916702709117
:100A400068028091690290916A020C94710486E4B4
:100A500092E00C94CC00EF92FF920F9326E040E0DE
:100A600052EC61E070E084E793E00E94CA0866ED12
:100A700071E084E793E00E94810169ED71E084E711
:100A800093E00E9481010E9496010E940D050E9440
:100A9000270560E080E00E94F20D43E050E06BE744
:100AA00071E080E00E94DA0B82E4E82E82E0F82E0A
:100AB00002E020E030E040E850E065EE71E085E9DA
:100AC00094E00E9456110F91FF90EF900C94AB129E
:100AD000089567E086E693E00E948D0528E04DE0EA
:100AE0006CE08BE692E00E94E21786E492E00C94C0
:100AF000A50086E492E00E94CB008BE692E00C9485
:100B0000F617FC01138615861486DC011B963396B6
:100B10001E92AE17BF07E1F708951F93CF93DF939F
:100B2000EC01162F60E0812F0E94B60D612F70E05E
:100B3000FB01EA55FF4FE491E883FB01E654FF4FC8
:100B4000E491F0E0EE0FFF1FE253FF4F8591949187
:100B50009A838983CE01DF91CF911F910C948105F7
:100B60005058BB27AA270E94C8050C9442070E9430
:100B7000340738F00E943B0720F039F49F3F19F406
:100B800026F40C9431070EF4E095E7FB0C942B0748
:100B9000E92F0E94530758F3BA17620773078407B7
:100BA000950720F079F4A6F50C9475070EF4E095FE
:100BB0000B2EBA2FA02D0B01B90190010C01CA0117
:100BC000A0011124FF27591B99F0593F50F4503EC2
:100BD00068F11A16F040A22F232F342F4427585FB4
:100BE000F3CF469537952795A795F0405395C9F7CC
:100BF0007EF41F16BA0B620B730B840BBAF0915084
:100C0000A1F0FF0FBB1F661F771F881FC2F70EC022
:100C1000BA0F621F731F841F48F4879577956795F5
:100C2000B795F7959E3F08F0B0CF9395880F08F0E1
:100C30009927EE0F9795879508950E94070708F466
:100C400081E008950E9436060C9442070E943B07FB
:100C500058F00E94340740F029F45F3F29F00C94CB
:100C60002B0751110C9476070C9431070E945307FF
:100C700068F39923B1F3552391F3951B550BBB27CB
:100C8000AA2762177307840738F09F5F5F4F220F10
:100C9000331F441FAA1FA9F335D00E2E3AF0E0E807
:100CA00032D091505040E695001CCAF72BD0FE2F51
:100CB00029D0660F771F881FBB1F261737074807E5
:100CC000AB07B0E809F0BB0B802DBF01FF2793589D
:100CD0005F4F3AF09E3F510578F00C942B070C942F
:100CE00076075F3FE4F3983ED4F386957795679552
:100CF000B795F7959F5FC9F7880F911D96958795D2
:100D000097F90895E1E0660F771F881FBB1F6217F0
:100D100073078407BA0720F0621B730B840BBA0BAE
:100D2000EE1F88F7E09508950E949B066894B11124
:100D30000C94760708950E945B0788F09F5798F0FF
:100D4000B92F9927B751B0F0E1F0660F771F881FD0
:100D5000991F1AF0BA95C9F714C0B13091F00E94EA
:100D60007507B1E008950C947507672F782F8827D1
:100D7000B85F39F0B93FCCF3869577956795B39511
:100D8000D9F73EF490958095709561957F4F8F4F80
:100D90009F4F0895E89409C097FB3EF49095809585
:100DA000709561957F4F8F4F9F4F9923A9F0F92F31
:100DB00096E9BB279395F695879577956795B795AF
:100DC000F111F8CFFAF4BB0F11F460FF1BC06F5F95
:100DD0007F4F8F4F9F4F16C0882311F096E911C0A7
:100DE000772321F09EE8872F762F05C0662371F0C8
:100DF00096E8862F70E060E02AF09A95660F771FDC
:100E0000881FDAF7880F9695879597F90895990FB7
:100E10000008550FAA0BE0E8FEEF16161706E807C4
:100E2000F907C0F012161306E407F50798F0621BE5
:100E3000730B840B950B39F40A2661F0232B242BBA
:100E4000252B21F408950A2609F4A140A6958FEFD9
:100E5000811D811D089597F99F6780E870E060E02B
:100E600008959FEF80EC089500240A941616170643
:100E700018060906089500240A941216130614068B
:100E800005060895092E0394000C11F4882352F0EE
:100E9000BB0F40F4BF2B11F460FF04C06F5F7F4FA6
:100EA0008F4F9F4F089557FD9058440F551F59F08D
:100EB0005F3F71F04795880F97FB991F61F09F3F47
:100EC00079F087950895121613061406551FF2CF70
:100ED0004695F1DF08C0161617061806991FF1CFC0
:100EE00086957105610508940895E894BB276627E7
:100EF0007727CB0197F908950E94070708F48FEF31
:100F000008950E9494070C9442070E94340738F019
:100F10000E943B0720F0952311F00C942B070C94B2
:100F2000310711240C9476070E94530770F3959FA4
:100F3000C1F3950F50E0551F629FF001729FBB27D0
:100F4000F00DB11D639FAA27F00DB11DAA1F649F6C
:100F50006627B00DA11D661F829F2227B00DA11D1F
:100F6000621F739FB00DA11D621F839FA00D611DA5
:100F7000221F749F3327A00D611D231F849F600DC6
:100F8000211D822F762F6A2F11249F5750409AF0EF
:100F9000F1F088234AF0EE0FFF1FBB1F661F771F7B
:100FA000881F91505040A9F79E3F510580F00C9446
:100FB0002B070C9476075F3FE4F3983ED4F38695B5
:100FC00077956795B795F795E7959F5FC1F7FE2BE6
:100FD000880F911D9695879597F90895FC01918D3D
:100FE000228D892F90E0805C9F4F821B91098F7327
:100FF00099270895FC01918D828D981731F0828D8B
:10100000E80FF11D858D90E008958FEF9FEF089513
:10101000FC01918D828D981761F0828DDF01A80F00
:10102000B11D5D968C91928D9F5F9F73928F90E022
:1010300008958FEF9FEF0895FC01538D448D252F68
:1010400030E0842F90E0821B930B541710F0CF9662
:1010500008950197089587E899E0892B49F080E089
:1010600090E0892B29F00E94870981110C940000DF
:101070000895FC01848DDF01A80FB11DA35ABF4F55
:101080002C91848D90E001968F739927848FA68987
:10109000B7892C93A089B1898C91837080648C93DB
:1010A000938D848D981306C00288F389E02D80818A
:1010B0008F7D80830895EF92FF920F931F93CF93BC
:1010C000DF93EC0181E0888F9B8D8C8D981305C098
:1010D000E889F989808185FD26C0F62E0B8D10E008
:1010E0000F5F1F4F0F731127E02E8C8DE8120CC07D
:1010F0000FB607FCFACFE889F989808185FFF5CF23
:10110000CE010E943908F1CF8B8DFE01E80FF11D51
:10111000E35AFF4FF0829FB7F8940B8FEA89FB895F
:10112000808180620AC09FB7F894EE89FF8960834E
:10113000E889F98980818370806480839FBF81E022
:1011400090E0DF91CF911F910F91FF90EF90089564
:10115000CF93DF93EC01888D8823C9F0EA89FB895E
:10116000808185FD05C0A889B9898C9186FD0FC055
:101170000FB607FCF5CF808185FFF2CFA889B9892A
:101180008C9185FFEDCFCE010E943908E7CFDF912A
:10119000CF910895CF92DF92EF92FF921F93CF935A
:1011A000DF93EC016A017B01122FE889F98982E063
:1011B00080834115514E61057105B1F060E079E021
:1011C0008DE390E0A70196010E94761CDA01C90127
:1011D0000197A109B109B695A795979587959C01A7
:1011E000211580E13807A8F0E889F989108260E8C4
:1011F00074E88EE190E0A70196010E94761CDA0166
:10120000C9010197A109B109B695A7959795879549
:101210009C01EC85FD853083EE85FF852083188E4B
:10122000EC89FD891083EA89FB8980818061808354
:10123000EA89FB89808188608083EA89FB898081D3
:1012400080688083EA89FB8980818F7D8083DF913C
:10125000CF911F91FF90EF90DF90CF9008951F9254
:101260000F920FB60F9211242F938F939F93EF93AA
:10127000FF93E0918403F09185038081E0918A03DC
:10128000F0918B0382FD12C0908180918D038F5F5E
:101290008F7320918E03821751F0E0918D03F0E05F
:1012A000EC58FC4F958F80938D0301C08081FF9196
:1012B000EF919F918F912F910F900FBE0F901F90E4
:1012C00018951F920F920FB60F9211242F933F93F0
:1012D0004F935F936F937F938F939F93AF93BF933E
:1012E000EF93FF9384E793E00E943908FF91EF9119
:1012F000BF91AF919F918F917F916F915F914F912E
:101300003F912F910F900FBE0F901F90189584E77B
:1013100093E00E94EE0721E0892B09F420E0822F60
:101320000895E4E7F3E01382128288EE93E0A0E0F0
:10133000B0E084839583A683B78385E192E09183AF
:10134000808385EC90E09587848784EC90E0978794
:10135000868780EC90E0918B808B81EC90E0938B82
:10136000828B82EC90E0958B848B86EC90E0978B5F
:10137000868B118E128E138E148E08950E94F30C9C
:101380000E9493170E942B05CBE2D8E00E946805CB
:101390002097E1F30E942B08F9CFCF92DF92EF92D2
:1013A000FF920F931F93CF93DF936C017A018B0110
:1013B000C0E0D0E0CE15DF0581F0D8016D918D0140
:1013C000D601ED91FC910190F081E02DC6010995C7
:1013D000892B11F02196EECF7E01C701DF91CF91CD
:1013E0001F910F91FF90EF90DF90CF900895EF92B3
:1013F000FF920F931F93CF93DF938C017B01C0E08B
:10140000D0E0F701EC0FFD1F6491662361F0D80175
:10141000ED91FC910190F081E02DC8010995892B97
:1014200011F02196EECFCE01DF91CF911F910F9158
:10143000FF90EF9008950C948101DC01ED91FC91F7
:101440000190F081E02D099463E272E00C94810137
:101450008F929F92AF92BF92EF92FF920F931F9342
:10146000CF93DF93CDB7DEB7A1970FB6F894DEBF69
:101470000FBECDBF7C01FA01CB0119A2223008F4C6
:101480002AE08E010F5D1F4F822E912CA12CB12CD2
:10149000BF01A50194010E94761CF901CA01015007
:1014A00011096A3010F4605D01C0695CD8016C9369
:1014B000232B242B252B61F7B801C7010E94810142
:1014C000A1960FB6F894DEBF0FBECDBFDF91CF91CE
:1014D0001F910F91FF90EF90BF90AF909F908F90D2
:1014E00008952115310541F4DC01ED91FC91019045
:1014F000F081E02D642F09940C94280A9A01462F5C
:1015000050E060E070E00C94710A9A01AB0160E079
:1015100070E00C94710ACF92DF92EF92FF920F93DA
:101520001F93CF93DF932115310581F4DC01ED91F9
:10153000FC910190F081E02D642FDF91CF911F91FC
:101540000F91FF90EF90DF90CF9009942A303105F2
:1015500001F577FF1DC06A017B01EC016DE20E947D
:101560001D0A8C0144275527BA014C195D096E09E3
:101570007F092AE0CE010E94280A800F911FDF9187
:10158000CF911F910F91FF90EF90DF90CF90089532
:101590002AE0DF91CF911F910F91FF90EF90DF90A4
:1015A000CF900C94280A9A01AB01770F660B770B4A
:1015B0000C948B0A0F931F93CF93DF93EC010E943F
:1015C000D30A8C01CE010E94240A800F911FDF9163
:1015D000CF911F910F9108957F928F929F92AF921A
:1015E000BF92CF92DF92EF92FF920F931F93CF9310
:1015F000DF938C016A017B01722E9A01AB01C70156
:10160000B6010E945D1C882319F066E272E027C0D3
:1016100046015701E894B7F82FEF3FEF4FE75FE738
:10162000C501B4010E945D1C81110DC02FEF3FEF79
:101630004FE75FE7C501B4010E941D0618161CF4B0
:101640006AE272E00CC02FEF3FEF4FE75FE4C701A3
:10165000B6010E947C07181694F46EE272E0C8018D
:10166000DF91CF911F910F91FF90EF90DF90CF907E
:10167000BF90AF909F908F907F900C9481012FEF3F
:101680003FEF4FE75FECC701B6010E941D0687FDE3
:10169000E4CF20E030E0A901C701B6010E941D0699
:1016A00087FF0AC06DE2C8010E941D0AEC01F7FA2B
:1016B000F094F7F8F09402C0C0E0D0E0B12C60E004
:1016C00070E080E09FE37B1441F020E030E040E2F6
:1016D00051E40E942206B394F6CFA70196010E941E
:1016E000B1056B017C010E949B064B015C012AE065
:1016F000AB01BC01C8010E94280AC80FD91F77207E
:10170000B9F1C501B4010E94CA069B01AC01C70131
:10171000B6010E94B0056B017C016EE2C8010E9417
:101720001D0AC80FD91F20E030E040E251E4C70194
:10173000B6010E9481074B015C010E949B066B0170
:101740007C014AE050E0C8010E94850AC80FD91FF9
:10175000B60180E090E00E94CA069B01AC01C50181
:10176000B4010E94B0056B017C017A947110DBCF4B
:10177000CE01DF91CF911F910F91FF90EF90DF90FD
:10178000CF90BF90AF909F908F907F9008950F93D0
:101790001F93CF93DF93EC010E94EC0A8C01CE01E2
:1017A0000E94240A800F911FDF91CF911F910F910A
:1017B000089508958230E8F4E82FF0E0EE0FFF1F5F
:1017C000E45DFE4F71836083813041F08091690058
:1017D0008C7F482B40936900E89A089580916900B6
:1017E000837F440F551F440F551F482B40936900BA
:1017F000E99A08951F920F920FB60F9211242F931A
:101800003F934F935F936F937F938F939F93AF9388
:10181000BF93EF93FF93E0912C01F0912D01099577
:10182000FF91EF91BF91AF919F918F917F916F91B8
:101830005F914F913F912F910F900FBE0F901F908E
:1018400018951F920F920FB60F9211242F933F936A
:101850004F935F936F937F938F939F93AF93BF93B8
:10186000EF93FF93E0912E01F0912F010995FF91E5
:10187000EF91BF91AF919F918F917F916F915F9108
:101880004F913F912F910F900FBE0F901F90189581
:101890001F920F920FB60F9211242F933F938F93A5
:1018A0009F93AF93BF938091120490911304A091E2
:1018B0001404B09115043091110423E0230F2D3747
:1018C00020F40196A11DB11D05C026E8230F029644
:1018D000A11DB11D20931104809312049093130451
:1018E000A0931404B09315048091160490911704EA
:1018F000A0911804B09119040196A11DB11D809307
:10190000160490931704A0931804B0931904BF9180
:10191000AF919F918F913F912F910F900FBE0F909C
:101920001F9018953FB7F894809116049091170472
:10193000A0911804B091190426B5A89B05C02F3FAB
:1019400019F00196A11DB11D3FBFBA2FA92F982FE5
:101950008827820F911DA11DB11DBC01CD0142E060
:10196000660F771F881F991F4A95D1F708958F92A8
:101970009F92AF92BF92CF92DF92EF92FF926B0154
:101980007C010E94920C4B015C01C114D104E10462
:10199000F10401F10E9436190E94920CDC01CB0186
:1019A00088199909AA09BB09883E9340A105B10588
:1019B00060F321E0C21AD108E108F10888EE880E30
:1019C00083E0981EA11CB11CC114D104E104F104F0
:1019D00019F7DBCFFF90EF90DF90CF90BF90AF90E3
:1019E0009F908F900895789484B5826084BD84B56B
:1019F000816084BD85B5826085BD85B5816085BD0A
:101A0000EEE6F0E0808181608083E1E8F0E0108222
:101A1000808182608083808181608083E0E8F0E063
:101A2000808181608083E1EBF0E08081846080834D
:101A3000E0EBF0E0808181608083EAE7F0E0808184
:101A400084608083808182608083808181608083E4
:101A50008081806880831092C10008951F93CF9386
:101A6000DF93182FEB0161E00E94B60D209711F46F
:101A700060E004C0CF3FD10539F461E0812FDF91F0
:101A8000CF911F910C94F20DE12FF0E0EE56FF4F35
:101A9000E491E330F9F048F4E130B9F0E230A1F537
:101AA00084B5806284BDC8BD34C0E730E9F0E83059
:101AB00019F1E43049F580918000806280938000C4
:101AC000D0938B00C0938A0024C084B5806884BD05
:101AD000C7BD1FC080918000806880938000D09334
:101AE0008900C093880015C08091B0008068809301
:101AF000B000C093B3000DC08091B00080628093AD
:101B0000B000C093B40005C0C038D1050CF0B5CF0B
:101B1000AFCFDF91CF911F910895833081F028F4EA
:101B2000813099F08230A1F008958730A9F0883093
:101B3000B9F08430D1F4809180008F7D03C0809112
:101B400080008F7780938000089584B58F7702C0DE
:101B500084B58F7D84BD08958091B0008F7703C0D8
:101B60008091B0008F7D8093B0000895CF93DF9374
:101B700090E0FC01EA55FF4F2491FC01E654FF4F31
:101B80008491882361F190E0880F991FFC01EE5148
:101B9000FF4FC591D491FC01E852FF4FA591B4913C
:101BA000611109C09FB7F8948881209582238883AA
:101BB000EC912E230BC0623061F49FB7F8948881BA
:101BC000322F309583238883EC912E2B2C939FBF4B
:101BD00006C08FB7F894E8812E2B28838FBFDF9142
:101BE000CF9108951F93CF93DF93282F30E0F90111
:101BF000EE56FF4F8491F901EA55FF4FD491F90158
:101C0000E654FF4FC491CC23C1F0162F81110E94DE
:101C10008D0DEC2FF0E0EE0FFF1FE852FF4FA59166
:101C2000B4919FB7F894111104C08C91D095D8232A
:101C300002C0EC91DE2BDC939FBFDF91CF911F910F
:101C400008950FB6F8940F92FC01928D0F900FBE7D
:101C500081E0911180E008950F931F93CF93DF935C
:101C6000EC01042F1A8D4C8D41110BC08881998194
:101C7000892BE9F58C819D810E9453151D821C8260
:101C800037C050E0011115C08A819B810E940C1E53
:101C90002C8D8A819B81820F911D9B838A832C814D
:101CA0003D818217930718F1888199819B838A83EC
:101CB0001EC08E819F810E940C1E8C8D90E091959C
:101CC000819591092E813F81280F391F3F832E83F3
:101CD000488159812417350730F42C813D81820FCA
:101CE000931F9F838E83023011F41111115080E0F5
:101CF0001F5F1A8FDF91CF911F910F910895FC0103
:101D0000CB01448D4423A1F050E026813781240F7C
:101D1000351F37832683648175812617370720F0A6
:101D20002081318137832683668177810C940C1E54
:101D30000895EF92FF921F93CF93DF93EC010FB6BC
:101D4000F8940F921E8D7C0181E1E80EF11C1116B2
:101D50005CF48989882341F0C7010E94C314811172
:101D60000E9441151150F3CF8FEF8E8F0F900FBE51
:101D70000FB6F8940F921D8D7E0188E0E80EF11CDD
:101D800011165CF48885882341F0C7010E94C314B2
:101D900081110E9441151150F3CF8FEF8D8F0F905D
:101DA0000FBEDF91CF911F91FF90EF900895CF93D9
:101DB000DF93EC010FB6F8940F92488159818B8D17
:101DC0007C8D9A01879F200D311D11243D832C832A
:101DD0001A8E5B834A8390E00197789F9001799FE8
:101DE000300D1124CA01820F931F9F838E838FEFC2
:101DF0008D8F8E8F61110CC08885882389F0CE016C
:101E000008960E94C314882359F00E948E1A08C0B5
:101E1000CE0108960E945B19CE0141960E945B1983
:101E20000F900FBE81E0DF91CF9108950F931F9324
:101E3000CF93DF93082F162F662321F0869FC001D2
:101E4000112402C080E090E04F960E943719EC0107
:101E5000009771F0111103C09983888303C04F96D6
:101E6000998388830B8F1C8F61E0CE010E94D70E6F
:101E7000CE01DF91CF911F910F910895AF92BF9244
:101E8000CF92DF92FF920F931F93CF93DF9300D0F7
:101E900000D01F92CDB7DEB78C016B015D834C8300
:101EA000F22E80E0580198E0A90EB11C0FB6F8940C
:101EB0000F92F801228D938D291718F0F2E0FF128E
:101EC00014C04F2DB601C8010E942C0EF801918953
:101ED000992321F0C80141960E94C31481110E94E8
:101EE0008E1A0F900FBE81E050C02C813D81232BB4
:101EF00019F40F900FBE48C0811104C0CE010196A5
:101F00000E9403150F900FBE0E94D9120FB6F894CD
:101F10000F92F801858D8F3F09F4158EF801868D9B
:101F20008F3F09F4168E0F900FBEBE016C5F7F4F7E
:101F3000CE0101960E940E15811121C00FB6F894B2
:101F40000F92F801928D838D0F900FBE981311C0E0
:101F50006C817D81C5010E949A14C8010E94990E6E
:101F60000E949513882311F081E0A0CF0E948E1A61
:101F7000FBCFC8010E94990E0E949513F5CFC801AE
:101F80000E94990E0E94951380E00F900F900F9081
:101F90000F900F90DF91CF911F910F91FF90DF90E5
:101FA000CF90BF90AF900895EF92FF921F93CF9381
:101FB000DF93EC019A8D8B8D981710F02230E1F4AD
:101FC0007A011E8D422FCE010E942C0E1F3F81F4FC
:101FD0008989882379F0CE0141960E94C314882311
:101FE00049F0E114F10431F081E0F701808305C08C
:101FF0001F5F1E8F81E001C080E0DF91CF911F91B4
:10200000FF90EF900895AF92BF92CF92DF92FF9230
:102010000F931F93CF93DF9300D000D01F92CDB7C3
:10202000DEB78C016B015D834C8380E0580191E148
:10203000A90EB11C0FB6F8940F92F801F28CFF2094
:10204000A9F0B601C8010E947F0EFA94F801F28E41
:102050008085882339F0C80108960E94C314811135
:102060000E948E1A0F900FBE81E050C02C813D81DE
:10207000232B19F40F900FBE48C0811104C0CE016C
:1020800001960E9403150F900FBE0E94D9120FB641
:10209000F8940F92F801858D8F3F09F4158EF801A1
:1020A000868D8F3F09F4168E0F900FBEBE016C5FB8
:1020B0007F4FCE0101960E940E1581111CC0C801F0
:1020C0000E94210E882389F06C817D81C5010E94C8
:1020D0009A14C8010E94990E0E949513882311F04A
:1020E00081E0A8CF0E948E1AFBCFC8010E94990EF2
:1020F0000E949513F5CFC8010E94990E0E94951376
:10210000C8010E94210E882359F380E00F900F90A0
:102110000F900F900F90DF91CF911F910F91FF9033
:10212000DF90CF90BF90AF900895CF93DF93EC01F5
:102130000FB6F8940F928D8D8F3F09F41D8E8E8D02
:102140008F3F09F41E8E0F900FBE8A8D811104C03F
:10215000CE0141960E94AB14CE01DF91CF910C9439
:10216000990EE0914604F09147048081811103C0EB
:102170008FEF9FEF0CC0E0914604F091470405807B
:10218000F681E02D0680F781E02D82819381909386
:102190001E0480931D040895FF920F931F93CF9305
:1021A000DF93EC01F62E0091250410912604809116
:1021B0007E0490917F0402960E94C619CF3F8FEF54
:1021C000D80789F4FF2079F060917E0470917F0434
:1021D0006E5F7F4F88E294E0DF91CF911F910F9166
:1021E000FF900C946D19C00FD11FE0917E04F09107
:1021F0007F04D383C28360917E0470917F04C017F3
:10220000D10768F480914404909145046E5F7F4F3C
:10221000DF91CF911F910F91FF900C948E198091B7
:102220004604909147046E5F7F4F0E948E19809103
:102230001D0490911E04C817D90720F4D0931E04E2
:10224000C0931D04DF91CF911F910F91FF900895CE
:1022500080913104882309F10FB6F8940F92E09130
:102260003704F0913804C681D781CE0102960E94CE
:10227000C6198091270481508093270480913104EE
:102280008150809331040F900FBE8F89988D0E94EA
:102290004A19CE010E944A19DBCF80915A0482303C
:1022A00010F00E948E1A0E949817D2CF5F926F9200
:1022B0007F928F929F92AF92BF92CF92DF92EF92D6
:1022C000FF920F931F93CF93DF933C016B015A0151
:1022D0004901502ECA010E9437198C01892B09F43B
:1022E000E0C088E290E00E943719EC01892BC9F028
:1022F000188F0F8BA50165EA70E0C8010E94151EBA
:1023000021E0A21AB1088F89988DA80EB91EC114B8
:10231000D104C9F0BE01675E7F4FF601C601089681
:1023200007C0C8010E944A19BCC0E817F90749F064
:102330009F014191DB014D93BD01D9012C912111E8
:10234000F4CF18A201C0198E052D043008F003E067
:102350000E8B09A31AA26E01B2E0CB0ED11CC601EE
:102360000E946919CE010C960E946919D987C88705
:1023700084E090E0801B91099D878C87DB8BCA8B62
:102380001BA21CA21DA21EA21FA2A401B301C50173
:102390000E94EA1999838883E114F10419F0F70186
:1023A000D183C0830FB6F8940F92809127048F5F7A
:1023B0008093270480917E0490917F04892BD1F52E
:1023C000D0937F04C0937E0480912704813009F06C
:1023D00041C08AE594E00E945B1983E694E00E9484
:1023E0005B198CE694E00E945B1985E794E00E94FB
:1023F0005B1981E594E00E945B1988E494E00E94F7
:102400005B198BE394E00E945B1982E394E00E94E5
:102410005B1988E294E00E945B1981E594E0909357
:1024200047048093460488E494E0909345048093A5
:10243000440410C08091230481110CC0E0917E04FB
:10244000F0917F0496898E89891720F0D0937F04BC
:10245000C0937E0480911F048F5F80931F048E8938
:1024600090912404981710F480932404F9E08F9F2E
:10247000C0011124B601865A9B4F0E946D190F901E
:102480000FBE80912304882351F0E0917E04F091E7
:102490007F0496898E89981710F40E948E1A81E025
:1024A00001C08FEFDF91CF911F910F91FF90EF90BF
:1024B000DF90CF90BF90AF909F908F907F906F9064
:1024C0005F9008950F931F93CF93DF9320917E0425
:1024D00030917F048217930709F438C0009709F4FC
:1024E00035C00FB6F8940F92FC012285338528522F
:1024F000344051F5FC0124893589F4E02B333F0742
:1025000019F1232B09F5EC018C010E5F1F4FC80157
:102510000E94C6198E8990912404981710F4809314
:10252000240429E0829FC0011124B801865A9B4FE0
:102530000E946D19E0917E04F0917F049E89868946
:10254000981710F00E948E1A0F900FBEDF91CF9156
:102550001F910F910895EF92FF920F938BE1E82E58
:1025600084E0F82E00E020E030E040EC50E062E350
:1025700072E088E291E10E9456118130B1F40E942C
:10258000E015813091F4F8942FEF3FEF30931E0463
:1025900020931D0480932304109226041092250496
:1025A0000F91FF90EF900C94561A0F91FF90EF90BF
:1025B000089580911A048F5F80931A0408950FB6CE
:1025C000F8940F9280912504909126040F900FBEED
:1025D0000895CF92DF92EF92FF920F931F93CF93C4
:1025E000DF9380911A0481118CC000912504109111
:1025F00026040F5F1F4F1093260400932504011536
:102600001105B9F480914604909147042091440447
:102610003091450430934704209346049093450439
:1026200080934404809120048F5F809320040E9453
:10263000B11080911D0490911E04C0E00817190785
:1026400008F44FC0D9E0E0914604F091470480813E
:10265000811103C08FEF9FEF11C0E0914604F0910C
:1026600047040580F681E02DE680F780D7011296B9
:102670008D919C9113970817190728F490931E04C5
:1026800080931D042EC06701B2E0CB0ED11CC601A1
:102690000E94C619F70184899589892B21F0C70109
:1026A0000C960E94C619D70156968C9190912404DD
:1026B000981710F480932404D89FC0011124B60108
:1026C000865A9B4F0E946D19E0917E04F0917F0421
:1026D000D70156969C918689981708F4B4CFC1E02B
:1026E000B2CFE0917E04F0917F04E689B9E0EB9FE0
:1026F000F0011124E65AFB4F8081823040F0C1E0A6
:1027000006C0809122048F5F80932204C0E08091F4
:1027100021048111C1E08C2FDF91CF911F910F9186
:10272000FF90EF90DF90CF900895EF92FF920F937C
:102730001F93CF93DF930FB6F8940F9280911A04F2
:10274000815080931A0480911A04882311F080E04C
:1027500052C0809127048823D1F3C0E0D0E089E003
:10276000F82EEE24E39480913B04882351F1E0910C
:102770004004F0914104C681D781CE010C960E949D
:10278000C6198E010E5F1F4FC8010E94C6198E899F
:1027900090912404981710F480932404F89EC001AB
:1027A0001124B801865A9B4F0E946D19E0917E0456
:1027B000F0917F049E8986899817A8F2E0922104FF
:1027C000D2CFCD2B11F00E94B110C0912204CC23A6
:1027D00051F0D1E00E94E9128111D0932104C1503F
:1027E000C9F71092220480912104882309F4AFCF05
:1027F0000E948E1A81E00F900FBEDF91CF911F9142
:102800000F91FF90EF9008950F931F93CF93DF9355
:102810008C01EB010E94D9124091250450912604AD
:10282000F80120813181C9018C0F9D1F4217530788
:1028300020F48217930740F403C08217930730F007
:1028400021E04817590718F020E001C021E0F80105
:1028500091838083222329F060E0841B950B0E94E2
:10286000CC100E949513811102C00E948E1ADF9134
:10287000CF911F910F91089580911A04882321F020
:1028800081E080932104089510922104A0917E0498
:10289000B0917F04E0917E04F0917F042D913C91F2
:1028A0008789908D8217930760F060917E04709104
:1028B0007F0480917E0490917F04675E7F4F0E9429
:1028C000AE178091240469E0482F50E0649F900186
:1028D000659F300D1124F901E65AFB4F908191114B
:1028E00002C08150F1CFA181B28112960D90BC91AE
:1028F000A02DB283A183235A3B4FA217B30731F413
:1029000012962D913C9113973283218399E0949FE5
:10291000F001959FF00D1124E65AFB4F0180F281E2
:10292000E02D2681378130937F0420937E048093AD
:1029300024040895CF93DF93EB0160917E0470919E
:102940007F04645F7F4F0E948E1961E0CE01DF91AA
:10295000CF910C94CC101F93CF93DF93EB01142FE6
:1029600060917E0470917F04645F7F4F0E946D19B7
:10297000112311F0CFEFDFEF612FCE01DF91CF9167
:102980001F910C94CC100F931F93CF93DF93DC0116
:102990001596ED91FC911697C681D7818E01045F43
:1029A0001F4FC8010E94C61980911A04811114C0DA
:1029B0000A501109C8010E94C6198E8990912404F9
:1029C000981710F480932404B9E08B9FC001112460
:1029D000B801865A9B4F03C0B8018BE394E00E9474
:1029E0006D19E0917E04F0917F049E898689891794
:1029F00020F481E08093210401C080E0DF91CF9139
:102A00001F910F91089520912004FC0120832091B3
:102A1000250430912604328321830895CF93DF93D8
:102A20000FB6F8940F924091250450912604DB01D3
:102A30002D913C912F3FBFEF3B07D9F0EC01E9818D
:102A4000FA81A0912004B881BA1719F04E175F07D8
:102A500090F44E1B5F0BFB014217530738F4241B05
:102A6000350B318320830E94031503C0118210822D
:102A700002C080E001C081E00F900FBEDF91CF91D6
:102A8000089581E080932104089580912304882390
:102A900031F080911A04882321F080E0089581E0CC
:102AA000089582E008950F931F93CF93DF93FC0165
:102AB000892B11F480E02CC082A1815082A3268949
:102AC00091A12917B9F38111F5CFEF018F010E5FA5
:102AD0001F4FC8010E94C61989A18E8B482F50E054
:102AE00024E030E0241B350B3D872C879091240493
:102AF000981710F48093240429E0249FC001259F97
:102B0000900D1124B801865A9B4F0E946D1981E0E7
:102B1000DF91CF911F910F9108950FB6F8940F9206
:102B20008091840490918504892BE9F483E994E0F1
:102B30000E945B198AE894E00E945B1983E994E0A3
:102B400090938904809388048AE894E090938704A2
:102B50008093860440E065E08AE00E94160F90931F
:102B60008504809384040F900FBE0895FC01738345
:102B70006283918780874617570778F0421B530B73
:102B80008485958548175907C8F4BF016E5F7F4F4C
:102B900080918604909187040DC04217530718F462
:102BA0006217730758F4BF016E5F7F4F80918804EE
:102BB000909189040E948E1980E0089581E0089523
:102BC000EF92FF920F930E948D1580918404909153
:102BD0008504892B81F082E8E82E84E0F82E03E05A
:102BE00020E030E045E550E067E372E080E996E1FF
:102BF0000E94561101C080E00F91FF90EF90089560
:102C00000F931F93CF93DF9300D000D01F92CDB7C7
:102C1000DEB7A0918404B0918504109729F1F901E1
:102C200069835B834A839D838C836630A4F40E940E
:102C30004515E0918404F091850420E0823011F480
:102C4000A80102C040E050E0BE016F5F7F4FCF019E
:102C50000E943E0F0AC020E0AF01BE016F5F7F4FB0
:102C6000CD010E94D40F01C080E00F900F900F9013
:102C70000F900F90DF91CF911F910F910895EF92D8
:102C8000FF920F931F93CF93DF93E0918804F0910D
:102C900089048081882389F10580F681E02DE08018
:102CA000F180C681D7818E010E5F1F4FC8010E943F
:102CB000C619E889F989CE0109958A8982FFE5CF8D
:102CC0008C859D858E0D9F1DE816F90660F49B830B
:102CD0008A83D987C887B801809188049091890434
:102CE0000E948E19D2CF00E010E020E030E0A70172
:102CF00060E0CE010E940016C8CF809186049091BA
:102D000087049093890480938804F0938704E09368
:102D10008604DF91CF911F910F91FF90EF9008955E
:102D2000CF93DF9300D000D01F92CDB7DEB7E091F4
:102D30008804F0918904D080DD2031F00580F6818F
:102D4000E02DE080F18002C0E12CF12C0E94D9122C
:102D50000E94DF128C0180918004909181040817F9
:102D6000190720F40E943F1681E001C080E0109313
:102D7000810400938004811155C0DD20D9F10E1526
:102D80001F0508F43EC00E949513E0918804F0915D
:102D900089040580F681E02DC680D780C6010296A1
:102DA0000E94C619D60152968C91529782FF17C085
:102DB0001C966D917C911D976E0D7F1D9701A8014A
:102DC000C6010E94B615882369F000E010E020E0FB
:102DD00030E0A70160E0C6010E94001603C08E7FAC
:102DE000F601828BD6015096ED91FC915197C60168
:102DF00009951EC0E0918604F0918704808141E02E
:102E0000811140E0B701601B710B809184049091A7
:102E100085040E9495100E949513811109C00E949B
:102E20008E1A06C00E94951303C0898187FF0EC0C9
:102E300040E050E0BE016F5F7F4F8091840490912D
:102E400085040E9403108111F0CF71CFEC80FD80CA
:102E5000F70182859385892B21F0C70102960E9494
:102E6000C6190E94DF126C01809180049091810448
:102E7000C816D90610F40E943F16D0928104C09261
:102E80008004E9810E2E000CFF0BEA30F10580F67C
:102E9000EC5CFF4FD70152968C910C94B71C81606B
:102EA000F701828B2A813B8164857585620F731FD0
:102EB000A601C7010E94B615882309F4B9CFD7012E
:102EC0005096ED91FC915197C7010995F7018289C0
:102ED00082FFAECF4A815B8184859585480F591F5B
:102EE00000E010E020E030E060E0C7010E94001642
:102EF0009FCF8160F701828B6A817B8175876487B0
:102F00006C0D7D1D9601A601C7010E94B61590CFDC
:102F100081FD04C0C7010E944A198ACF8E7FD70164
:102F200052968C9385CF0E942B050E94AB12089578
:102F30000E9468058BE298E0892B11F00C942B0815
:102F40000895259A2D9A2FEF80E792E02150804036
:102F50009040E1F700C000001D9AF5CF259A2D9A08
:102F60002FEF87EA91E6215080409040E1F700C0C2
:102F700000001D9AF5CF0F931F93FC018FEF808304
:102F800081838283838384838AE085831682DF0141
:102F90001796739600E717E120E030E048ED56ED14
:102FA00060E070E00D931D932D933D9318964D9323
:102FB0005D936D937C931B97AE17BF0799F71F9195
:102FC0000F910895FF920F931F93CF93DF93EC011E
:102FD000F62E042F122F0E94BB17FB820C8318833E
:102FE000DF91CF911F910F91FF9008950895CF9396
:102FF000DF93EC018B818F3FE9F09C819F3FD1F003
:10300000613049F030F0623041F0633099F461E0B2
:1030100009C060E007C061E001C060E00E94F20DFD
:1030200061E003C00E94F20D60E08C81DF91CF91DE
:103030000C94F20DDF91CF910895CF93DF93EC01C3
:1030400089818F3FE9F09A819F3FD1F0613049F04B
:1030500030F0623041F0633099F460E009C061E023
:1030600003C061E005C060E00E94F20D61E003C0B2
:103070000E94F20D60E08A81DF91CF910C94F20DF5
:10308000DF91CF910895FC0120812F3F29F091E03D
:103090006927822F0C94F20D662319F0FC016681DA
:1030A00001C063E00C941D18DC01FB01309759F05E
:1030B0009B968C919B9780839C968C919C97818307
:1030C0009D968C91828308954F925F926F927F922A
:1030D0008F929F92AF92BF92DF92EF92FF920F93E7
:1030E0001F93CF93DF938C01095F1F4FEC017C018D
:1030F00083E1E80EF11CDD24DA94F801D8018D900B
:103100009D90AD90BD908D01808D918DA28DB38DE0
:103110009C01AD01281939094A095B09AFEFB0E0FC
:103120000E94BD1CF8014084518462847384A30111
:103130009201281939094A095B090E94981C57FF16
:1031400002C01BA609C02F3F31054105510519F0EA
:1031500014F0DBA601C02BA721960E151F0569F6FA
:10316000DF91CF911F910F91FF90EF90DF90BF9073
:10317000AF909F908F907F906F905F904F90089549
:103180000F931F93CF93DF938C01C62F613049F0CB
:1031900018F06230D9F04CC010929C0461E00E949B
:1031A0004318E0919C04F0E0E15CFD4F6081C801B0
:1031B0000E94F717F801658170E088EE93E00E94A5
:1031C000621CCB010E94471BC2E032C00E94BF1BA1
:1031D000882371F1E0919C0481E08E0F80939C0420
:1031E000F0E0E15CFD4FC081D0E00E94C21B9B017A
:1031F000AC01CC0FDD1FCC0FDD1FC00FD11FF801BC
:10320000A581B0E00E94BD1C6F8F78A389A39AA30B
:1032100080919C04833058F00E94D01B60E0C8016C
:103220000E944318C8010E946418C0E001C0C1E0B8
:103230008C2FDF91CF911F910F910895CF93DF9342
:10324000EC0160E00E94C0188EA7DF91CF91089535
:10325000CF93DF93EC016EA50E94C018982F8EA724
:1032600081E0911180E0DF91CF9108950895CF938F
:10327000DF93EC010E94D912CE010E94EB1CEC01FD
:103280000E949513209711F40E94A117CE01DF919F
:10329000CF910895CF93DF93009751F0EC010E94F6
:1032A000D912CE010E94831DDF91CF910C9495130A
:1032B000DF91CF910895FC010396928381832FEFD4
:1032C0003FEF34832383968385839087878310829F
:1032D0000895FC01118610860895CF93DF939C0119
:1032E000FB01DC011196CD91DC911297D383C2834F
:1032F0008C819D81958384838C819D81DC011396D3
:103300007C936E9312977D836C8331872087F901BC
:1033100080818F5F8083DF91CF9108950F931F93FA
:10332000CF93DF938C01FB01808191818F3F2FEF41
:10333000920721F4E801AF81B8850EC0D801139639
:1033400012962D913C911397E90148815981841778
:10335000950710F0D901F4CF12968D919C91139797
:1033600093838283EC01FD83EC83B583A48313965E
:10337000FC93EE93129711870087F80180818F5F8D
:103380008083DF91CF911F910F910895CF93DF93A9
:10339000FC01A085B1858281938124813581EC0176
:1033A0003D832C83C481D5819B838A8311968D9123
:1033B0009C911297E817F90721F41296DC93CE93AB
:1033C0001197118610868C9181508C938C91DF918E
:1033D000CF91089531E1FC013083319722E22083BF
:1033E0003197A3E3A083319760833197708331973E
:1033F0001082319760E8608331971082319762E0E4
:103400006083319763E06083319764E06083319734
:1034100065E06083319766E06083319767E06083A1
:10342000319768E06083319769E06083319760E1AC
:10343000608331973083319732E13083319733E1C4
:103440003083319734E13083319735E130833197E0
:1034500036E13083319737E13083319738E130837B
:10346000319739E13083319730E23083319731E25F
:10347000308331972083319723E220833197408333
:1034800031975083319726E22083319727E22083BA
:10349000319728E22083319729E22083319720E376
:1034A0002083319721E3208386970895A89590EC97
:1034B00088E10FB6F894A895809360000FBE9093B2
:1034C0006000A0917E04B0917F04CD91CDBFDD91CD
:1034D000DEBFFF91EF91DF91CF91BF91AF919F91AF
:1034E0008F917F916F915F914F913F912F911F919C
:1034F0000F91FF90EF90DF90CF90BF90AF909F9093
:103500008F907F906F905F904F903F902F901F9083
:103510000F900FBE0F90089581E008950F920FB69F
:10352000F8940F921F9211242F923F924F925F9224
:103530006F927F928F929F92AF92BF92CF92DF92C3
:10354000EF92FF920F931F932F933F934F935F93AD
:103550006F937F938F939F93AF93BF93CF93DF939B
:10356000EF93FF93A0917E04B0917F040DB60D926E
:103570000EB60D920E943C14A0917E04B0917F047F
:10358000CD91CDBFDD91DEBFFF91EF91DF91CF9166
:10359000BF91AF919F918F917F916F915F914F916B
:1035A0003F912F911F910F91FF90EF90DF90CF905F
:1035B000BF90AF909F908F907F906F905F904F9053
:1035C0003F902F901F900F900FBE0F9008950F9275
:1035D0000FB6F8940F921F9211242F923F924F92A0
:1035E0005F926F927F928F929F92AF92BF92CF9293
:1035F000DF92EF92FF920F931F932F933F934F937E
:103600005F936F937F938F939F93AF93BF93CF936A
:10361000DF93EF93FF93A0917E04B0917F040DB6EA
:103620000D920EB60D9213BE0E94E91281110E94F6
:103630003C14A0917E04B0917F04CD91CDBFDD916B
:10364000DEBFFF91EF91DF91CF91BF91AF919F913D
:103650008F917F916F915F914F913F912F911F912A
:103660000F91FF90EF90DF90CF90BF90AF909F9021
:103670008F907F906F905F904F903F902F901F9012
:103680000F900FBE0F9008950E94E71A18950097AB
:1036900009F474C010929E0410929D041092AB0421
:1036A0001092AA041092A6041092A7041092A804E3
:1036B0001092A9041092A104209180002093B004DC
:1036C000209181002093AF0410928100109280001D
:1036D000109285001092840021E026BB10926F00AA
:1036E0002091B0002093AE042091B1002093AD044E
:1036F0001092B10022E02093B0009C012770332784
:10370000232B51F443E0969587954A95E1F72CE7F2
:103710002093B30027E018C09C0123703327232B8C
:1037200031F4969587959695879529EF05C080FD8C
:1037300007C0969587952CE72093B30026E004C038
:103740002CE72093B30025E02093AC0422E027BBB4
:103750001092B2009093A00480939F049FB7F894B6
:1037600023BD8091AC048093B100209370008BE066
:103770008150F1F787E0809381009FBF0895809189
:10378000A10408952FB7F8946091A2047091A30446
:103790008091A4049091A5041092A1042FBF0895D4
:1037A000E1EBF0E01082109270008091AE04809303
:1037B000B0008091AD048083E1E8F0E01082809158
:1037C000B004809380008091AF04808308951F929D
:1037D0000F920FB60F9211240F931F932F933F93C5
:1037E0004F935F936F937F938F939F93AF93BF9309
:1037F0002091840030918500B09B0BC081E086BB96
:103800008091AA049091AB0401969093AB048093AD
:10381000AA0480919D0490919E04019640919F047A
:103820005091A0048417950798F110929E0410926D
:103830009D048091AA049091AB04A0E0B0E0DC016B
:1038400099278827820F931FA11DB11D4091A604BF
:103850005091A7046091A8047091A9048C019D0166
:10386000041B150B260B370B0093A2041093A30423
:103870002093A4043093A5048093A6049093A704F6
:10388000A093A804B093A90481E08093A10404C08C
:1038900090939E0480939D04BF91AF919F918F91CF
:1038A0007F916F915F914F913F912F911F910F9158
:1038B0000F900FBE0F901F9018950E940707880B5E
:1038C000990B089597FB072E16F4009407D077FD07
:1038D00009D00E94C81C07FC05D03EF49095819544
:1038E0009F4F0895709561957F4F0895A1E21A2E1C
:1038F000AA1BBB1BFD010DC0AA1FBB1FEE1FFF1F94
:10390000A217B307E407F50720F0A21BB30BE40BE3
:10391000F50B661F771F881F991F1A9469F760952A
:103920007095809590959B01AC01BD01CF010895E4
:10393000052E97FB1EF400940E94AF1C57FD07D084
:103940000E94761C07FC03D04EF40C94AF1C5095DB
:103950004095309521953F4F4F4F5F4F089590957B
:103960008095709561957F4F8F4F9F4F0895EE0F13
:10397000FF1F0590F491E02D09940E94DC1CA59F87
:10398000900DB49F900DA49F800D911D112408955A
:10399000AA1BBB1B51E107C0AA1FBB1FA617B70775
:1039A00010F0A61BB70B881F991F5A95A9F7809591
:1039B0009095BC01CD010895A29FB001B39FC001B5
:1039C000A39F700D811D1124911DB29F700D811D4B
:1039D0001124911D08950F931F93CF93DF9382308D
:1039E000910510F482E090E0E091B304F091B4040A
:1039F00020E030E0A0E0B0E0309719F14081518143
:103A00000281138148175907C8F08417950769F494
:103A1000109731F012960C93129713961C9327C0AF
:103A20000093B3041093B40422C02115310519F09A
:103A30004217530718F49A01BD01EF01DF01F801A5
:103A4000DBCF21153105F9F0281B390B2430310566
:103A500080F48A819B816115710521F0FB019383BC
:103A6000828304C09093B4048093B304FE01329621
:103A700044C0FE01E20FF31F81939193225031095C
:103A8000398328833AC02091B1043091B204232BAA
:103A900041F420910201309103013093B20420934C
:103AA000B10420910001309101012115310541F44B
:103AB0002DB73EB74091040150910501241B350BF1
:103AC000E091B104F091B204E217F307A0F42E1BC9
:103AD0003F0B2817390778F0AC014E5F5F4F241772
:103AE000350748F04E0F5F1F5093B2044093B10466
:103AF0008193919302C0E0E0F0E0CF01DF91CF919C
:103B00001F910F910895CF93DF93009709F481C01F
:103B1000FC01329713821282A091B304B091B404D5
:103B2000109781F420813181820F931F2091B1047D
:103B30003091B2042817390751F5F093B204E0939D
:103B4000B10467C0ED0120E030E0CE17DF0740F49C
:103B50004A815B819E0141155105F1F0EA01F5CFE3
:103B6000D383C28340815181840F951FC817D90721
:103B700059F488819981840F951F029691838083DF
:103B80008A819B81938382832115310529F4F093E7
:103B9000B404E093B3043DC0E901FB83EA83499197
:103BA0005991C40FD51FEC17FD0761F480819181F5
:103BB000840F951F0296E9019983888382819381FE
:103BC0009B838A83E0E0F0E012968D919C9113979D
:103BD000009719F0FD01DC01F7CF8D919C911197B1
:103BE0009D012E5F3F4F820F931F2091B1043091B2
:103BF000B2042817390769F4309729F41092B404F5
:103C00001092B30402C013821282B093B204A09344
:103C1000B104DF91CF910895FB01DC0102C0019056
:103C20000D9241505040D8F70895DC0101C06D93CA
:103C300041505040E0F70895F999FECF92BD81BD03
:103C4000F89A992780B50895262FF999FECF1FBAC3
:103C500092BD81BD20BD0FB6F894FA9AF99A0FBEB5
:103C60000196089510E0C8E7D0E004C0FE010E946C
:0E3C7000B71C2196C937D107C9F7F894FFCFCA
:103C7E000000B504200000000000FF000000FF005F
:103C8E000000FF000000000000000000F5002D0005
:103C9E002D00000000008C000F000F00D90BD90B77
:103CAE005F6E65757472616C566F6C746167653AA0
:103CBE00005F61636964566F6C746167653A0045B5
:103CCE004E544552504800455849545048004341BF
:103CDE004C504800435243206973206E6F74207617
:103CEE00616C69642100446576696365206973209F
:103CFE006E6F742061204453313878323020666103
:103D0E006D696C79206465766963652E00633A206F
:103D1E0000726561645F696E3A200020666F756E91
:103D2E0064456D707479426F78200020666F756EF1
:103D3E0064456D707479426F784F72546573745325
:103D4E0074726970200041540041542B43574D4FFB
:103D5E0044453D31004E6974726974652F4E697425
:103D6E00726174650041542B4354495053454E447F
:103D7E000074656D7000704800616D6D6F6E6961E5
:103D8E0000000000005B08CD091C08A808EE07081B
:103D9E0008FA070D0A006E616E00696E66006F7696
:103DAE00660049444C4500546D7220537663000002
:023DBE00010200
:0C4B0A0000546D7220537663000001021D
:00000001FF
