S01E00006C696C5F666973685F74616E6B735F61726475696E6F2E73726563EB
S11300000C9489000C94150F0C943C0F0C94B100C3
S11300100C94B1000C94B1000C9470200C94132136
S11300200C94B1000C94B1000C94B1000C94B10088
S11300300C94B1000C94B1000C94B1000C94B10078
S11300400C94630F0C94B1000C94820C0C94B40CBB
S11300500C94B1000C94B1000C94B1000C94B10058
S11300600C94B1000C94B1007B1C7B1C7B1CBA1C4F
S1130070A51CB41C7B1C7B1CBA1CA51C0A466F75F2
S11300806E64204D61746368696E6720436F6C6FA2
S11300907200005EBCE2613FDD83C29C7E20A3FD52
S11300A01F41009D23BE46DB65F88C11AF32CA5751
S11300B0E9740000000800020100000304070000C6
S11300C0000000000000010204081020408001022A
S11300D00408102001020408102004040404040489
S11300E004040202020202020303030303030000E6
S11300F0000023002600290000000000250028003D
S11301002B0000000000240027002A00C705E40C8F
S1130110D70511241FBECFEFD8E0DEBFCDBF12E05C
S1130120A0E0B1E0E4E3F7E402C005900D92AA3642
S1130130B107D9F724E0AAE6B2E001C01D92A83BBA
S1130140B207E1F710E0C8E8D0E004C02197FE014F
S11301500E941222C638D107C9F70E94110D0C94CF
S11301608D230C9400000C947723FC0180E090E034
S1130170A8ECB1E4808B918BA28BB38B80E090E0F0
S1130180A0EEB0E480839183A283B38384E19EE0F4
S1130190AEEFB4E484839583A683B78380E090E8CC
S11301A0ABEBB4E480879187A287B3878487958774
S11301B0A687B78708950895CF92DF92EF92FF92B2
S11301C00F931F93CF93DF93EC017C0188E0E80E3B
S11301D0F11C670100E010E0C8010E94B300F601C1
S11301E081936F010F5F1F4F04301105A9F761E27E
S11301F071E087E793E00E94830D488559856A85FD
S11302007B8522E030E087E793E00E94E20E80E005
S113021090E00E94B3008F3F39F581E090E00E94A6
S1130220B3008F3F09F582E090E00E94B3008F3F56
S1130230D9F483E090E00E94B3008F3FA9F480E0FA
S113024090E8ABEBB4E488879987AA87BB8700E082
S113025010E0F70161917F01C8010E947F230F5FC5
S11302601F4F04301105A9F77E01F4E0EF0EF11CD5
S1130270670104E010E0C8010E94B300F601819315
S11302806F010F5F1F4F08301105A9F762E371E09A
S113029087E793E00E94830D4C815D816E817F81AD
S11302A022E030E087E793E00E94E20E84E090E0F1
S11302B00E94B3008F3F31F585E090E00E94B300C7
S11302C08F3F01F586E090E00E94B3008F3FD1F4A8
S11302D087E090E00E94B3008F3FA1F484E19EE0A8
S11302E0AEEFB4E48C839D83AE83BF83C4E0D0E0DF
S11302F0F70161917F01CE010E947F232196C830CE
S1130300D105B1F7DF91CF911F910F91FF90EF903D
S1130310DF90CF9008954F925F926F927F928F9269
S11303209F92AF92BF92CF92DF92EF92FF92CF93C0
S1130330DF93EC012A013B0120E030E84BEB54E46D
S1130340688579858A859B850E9439094B015C0102
S113035020E030E040E450E40E94AB096B017C01F2
S113036020E030E84BEB54E46C817D818E819F81E9
S11303700E94390920E030E040E450E40E94AB09D7
S11303809B01AC01C701B6010E9439099B01AC0174
S113039060E070E080E490E40E94AB096B017C01B2
S11303A09B01AC01C501B4010E94D40A20E030E0F5
S11303B040E450E40E94AB099B01AC0160E070E0B2
S11303C080EE90E40E9439094B015C0120E030E8A2
S11303D04BEB54E4C301B2010E943909A701960111
S11303E00E94D40A20E030E040E450E40E94AB09CB
S11303F09B01AC01C501B4010E943A096883798369
S11304008A839B83DF91CF91FF90EF90DF90CF9011
S1130410BF90AF909F908F907F906F905F904F9020
S1130420089580917202909173020C9467160F9351
S11304301F93CF93DF93C5E4D3E0188219821A8205
S11304401B821C821D821E82A4E1B3E01D921D92B8
S11304501D921C92139714961C92149715961C9235
S1130460159716961C921697E3EEF2E0108211820D
S11304701282138214821582168240E050E060E8F2
S11304807EE34F83588769877A871B861C861D867F
S11304904AE959E969E17EE317964D935D936D93BB
S11304A07C931A971B961C921B971C961C921C9764
S11304B01D961C921D9740E050E060E07FE3478367
S11304C05087618772871386148615864E875F87E7
S11304D0688B798B1A8A1B8A1C8A4AE959E969E96B
S11304E07EE31E964D935D936D937C935197529644
S11304F01C92529753961C92539754961C9254975D
S113050040E050E060E070E446875787608B718B71
S1130510128A138A148A00E010E020E430E40D8B80
S11305201E8B2F8B388F198E1A8E1B8E40E050E055
S113053060E87FE355964D935D936D937C93589754
S113054059961C9259975A961C925A975B961C92EC
S11305505B9740E050E060EA70E4458B568B678B14
S1130560708F118E128E138E40E050E060EC70E4B8
S11305704C8F5D8F6E8F7F8F18A219A21AA240E054
S113058050E060EC7FE35C964D935D936D937C93B8
S11305905F9790961C92909791961C929197929641
S11305A01C92929740E050E060E271E4448F558FD2
S11305B0668F778F10A211A212A293960D931D93AA
S11305C02D933C93969797961C92979798961C9286
S11305D0989799961C92999700E010E020EA31E4EC
S11305E003A314A325A336A317A210A611A69A96B3
S11305F04D935D936D937C939D979E961C929E97CD
S11306009F961C929F97D0961C9280E090E0A8E45D
S1130610B2E482A793A7A4A7B5A716A617A610AA03
S1130620DF91CF911F910F9108952091D60230E070
S11306308091D90290E0AC01435251092417350747
S1130640F4F0839682179307D4F02091D70230E018
S113065024173507A4F0821793078CF02091D80251
S113066030E0241735075CF08217930744F06CE7F9
S113067070E087E793E00E945F0D81E0089580E0D9
S113068008950F931F93CF93DF9380916803813074
S113069009F448C040F0823009F06EC004E113E070
S11306A0C6E0D0E029C005E413E0C4E0D0E087E070
S11306B0F8017C96A2EDB2E001900D928A95E1F7E3
S11306C00E941503882349F087E08C9FF0018D9FD9
S11306D0F00D1124EB5BFC4F3EC02197075011092C
S11306E0CF3F8FEFD80719F742C021970750110960
S11306F0CF3F8FEFD807D9F187E0F801BA96A2ED82
S1130700B2E001900D928A95E1F70E9415038823C7
S113071061F387E08C9FF0018D9FF00D1124EC5E56
S1130720FC4F19C003EE12E0C6E0D0E087E0F80108
S1130730BA96A2EDB2E001900D928A95E1F70E947B
S11307401503882369F087E08C9FF0018D9FF00DDD
S11307501124ED51FD4F30812181928183810BC0A1
S1130760219707501109CF3F8FEFD807F9F630E0F2
S113077020E090E88FEBAC01632F722F852F942F2C
S1130780DF91CF911F910F91089583EA92E00E9427
S11307904A1E83EA92E00E94541E8823D1F369ED35
S11307A072E083EA92E00E94801D0C94410383EA84
S11307B092E00E944A1E83EA92E00E94541E88231B
S11307C0D1F369ED72E083EA92E00E94801D87E034
S11307D0ECEDF2E0A2EDB2E001900D928A95E1F722
S11307E00C941503CF93DF9300D000D000D0CDB785
S11307F0DEB749835A836B837C838D839E836981AF
S11308007A8182E00E9471106B817C8183E00E9476
S113081071106D817E8184E026960FB6F894DEBF58
S11308200FBECDBFDF91CF910C9471100E94E416DE
S113083061E08DE00E94F91061E070E08091740243
S1130840909175020E94D8138130A9F50E94D703B4
S1130850409116015091170160911801709119018E
S113086080911A0190911B010E94F2031092680377
S11308708CEB92E00E9441180E94C50340919D02B6
S113088050919E0260919F027091A0028091A102FA
S11308909091A2020E94F20320E040E050E060E068
S11308A070E080917402909175020E94811280E040
S11308B090E00E94B41881E090E00E944118BCCFFF
S11308C00E94E41661E08DE00E94F910C2E061E04C
S11308D070E080917402909175020E94D813813067
S11308E0A9F50E94D7034091100150911101609124
S11308F012017091130180911401909115010E94CD
S1130900F203C093680380EA9FE00E9441180E94AA
S1130910C50340919D0250919E0260919F02709187
S1130920A0028091A1029091A2020E94F20320E011
S113093040E050E060E070E08091740290917502B4
S11309400E94811280E090E00E94B41881E090E05F
S11309500E944118BCCF0E94E41661E08DE00E9421
S1130960F91061E070E080917402909175020E9428
S1130970D813C82F8130A9F50E94D70340910A01EA
S113098050910B0160910C0170910D0180910E0149
S113099090910F010E94F203C093680380EA9FE0E4
S11309A00E9441180E94C50340919D0250919E02ED
S11309B060919F027091A0028091A1029091A20285
S11309C00E94F20320E040E050E060E070E080919B
S11309D07402909175020E94811280E090E00E945E
S11309E0B41881E090E00E944118BBCF61E082E03E
S11309F00E94F91061E083E00E94F91061E084E054
S1130A000E94F91040919D0250919E0260919F02B4
S1130A107091A0028091A1029091A2020C94F20321
S1130A2086E792E00C94DC000F931F938FE00E9402
S1130A305410BC01990F880B990B0E941F0A20E0E7
S1130A4030E040E85AE30E94D40A20E030E44CE964
S1130A5055E40E94D40AAB01BC014093990250931F
S1130A609A0260939B0270939C020091060110917C
S1130A700701209108013091090186E792E00E9464
S1130A808B016093950270939602809397029093E2
S1130A9098021F910F910895CF93DF9300D0CDB7A3
S1130AA0DEB70E94E4169A8389830E9410050E948F
S1130AB0140560E08DE00E9435116AEB7BEDCE01F8
S1130AC001960E940918F1CFEF92FF920F9326E04E
S1130AD040E855E260E070E087E793E00E941D0C77
S1130AE00E9417020E94F60443E050E061E172E0C4
S1130AF080E00E94F50E82E7E82E82E0F82E02E004
S1130B0020E030E040E850E065E571E086E194E003
S1130B100E945B1590E7E92E92E0F92E20E030E088
S1130B2040E850E06DE571E080E694E00E945B15DA
S1130B302EE6E22E22E0F22E20E030E040E850E003
S1130B4065E671E08BEA94E00E945B153CE6E32ED7
S1130B5032E0F32E20E030E040E850E06DE671E052
S1130B608CE495E00E945B154AE6E42E42E0F42E04
S1130B7020E030E040E850E060E771E08DE497E089
S1130B800E945B150F91FF90EF900895089567E020
S1130B9089E693E00E94770828E04DE06CE083EA60
S1130BA092E00E940E1D86E792E00C94B50086E761
S1130BB092E00E94DB0083EA92E00C94221DAF9243
S1130BC0BF92CF92DF92EF92FF920F931F93CF9336
S1130BD0DF93CDB7DEB764970FB6F894DEBF0FBED0
S1130BE0CDBF41E0BE01635F7F4F89E693E00E9481
S1130BF09A08811115C06CE771E087E793E00E94C1
S1130C00900D87E793E00E948C0D89E693E00E94A3
S1130C106B086AEF70E080E090E00E94D20F2CC075
S1130C206FE871E087E793E00E94830D8E01035F14
S1130C301F4F7E0185E1E80EF11C60E287E793E037
S1130C400E94AE0BF80161918F0140E150E087E70B
S1130C5093E00E94F80D0E151F0579F767E0CE01A9
S1130C600D960E9421099C89891759F065E971E064
S1130C7087E793E00E94900D20E070E080E89FEB0E
S1130C80F6C087E793E00E948C0D8D85823281F057
S1130C90883259F08031A1F467EA71E087E793E084
S1130CA00E94900DFF24F3940EC068EB71E002C023
S1130CB069EC71E087E793E00E94900DF12C03C08A
S1130CC069ED71E0D5CF89E693E00E945F07BE012C
S1130CD0635F7F4F89E693E00E944C0841E064E43F
S1130CE089E693E00E94FC0768EE73E080E090E000
S1130CF00E94D20F89E693E00E945F07182FBE017D
S1130D00635F7F4F89E693E00E944C0840E06EEBFE
S1130D1089E693E00E94FC0760E072E087E793E0D5
S1130D200E94830D40E150E0612F87E793E00E9429
S1130D30F80D6AE272E087E793E00E94830D8E016A
S1130D400F5F1F4F5E01FAE0AF0EB11CD02EE12EF3
S1130D5089E693E00E943008F80181938F0140E115
S1130D6050E0682F87E793E00E94F80D6AE272E092
S1130D7087E793E00E94830DA016B10649F76AE065
S1130D8072E087E793E00E94830D68E08D2D9E2D2D
S1130D900E94210940E150E0682F87E793E00E9418
S1130DA0F80D87E793E00E948C0D69817A81FF201A
S1130DB089F083E0660F771F8A95E1F78885803193
S1130DC0A9F42F818CE090E0821B9109607F680F69
S1130DD0791F0CC08D81807611F4687F07C0803242
S1130DE011F46C7F03C0803409F46E7F072E000C6D
S1130DF0880B990B0E941F0A20E030E040E85DE375
S1130E000E94D40A7B018C0160E172E087E793E0E1
S1130E100E94830D22E030E0A701B80187E793E048
S1130E200E94E00E61E272E087E793E00E94830D86
S1130E3026E636E646EE5FE3B701C8010E94D40A0F
S1130E4020E030E040E052E40E943A09AB01BC01EA
S1130E5022E030E087E793E00E94E00E6CE272E06B
S1130E6087E793E00E94900D2E2D7F2DC801C22E9E
S1130E70D72E7C01C701B60164960FB6F894DEBF85
S1130E800FBECDBFDF91CF911F910F91FF90EF90D7
S1130E90DF90CF90BF90AF900895CF93DF9300D0B1
S1130EA0CDB7DEB70E94E4169A8389830E94DF05DA
S1130EB064ED71E0CE0101960E940918F7CFFF920C
S1130EC00F931F93CF93DF93FC01F080C181D281F4
S1130ED0F89489810F2D00958023898378941DE7E8
S1130EE0115029F182E090E00E940E1088818F2138
S1130EF0B9F3F8948A8180238A8389818F2989832D
S1130F00789480EE91E00E940E10F8948981082371
S1130F10098386E490E00E940E108881F82211E093
S1130F2009F010E078948AE991E00E940E10812F74
S1130F30DF91CF911F910F91FF9008951F93CF934D
S1130F40DF93FC011081C181D281812F809560FFE4
S1130F5012C0F8949A8189238A838981812B898399
S1130F608AE090E00E940E108A81182B1A837894EC
S1130F7087E390E011C0F8949A8189238A83898158
S1130F80812B898381E490E00E940E108A81182BC2
S1130F901A83789485E090E0DF91CF911F910C94AF
S1130FA00E100F931F93CF93DF93FC010081C18137
S1130FB0D281F8948981802B89838A81102F10959E
S1130FC081238A8383E090E00E940E108981182394
S1130FD019838AE090E00E940E10C881789485E31A
S1130FE090E00E940E10C02381E009F480E0DF91BC
S1130FF0CF911F910F910895DF92EF92FF920F937B
S11310001F93CF93DF93EC01D62EE42E08E010E07B
S1131010FF24F39461E08D2D8F2109F460E0CE016B
S11310200E949E07FF0C01501109A1F7E11010C0A6
S1131030F894E981FA81918188818095892381835B
S1131040E981FA81928188818095892382837894C9
S1131050DF91CF911F910F91FF90EF90DF90089552
S1131060EF92FF920F931F93CF93DF937C0108E0DD
S113107010E0C0E0D1E0C7010E94D1078111CD2B5F
S1131080DD0F01501109B9F78C2FDF91CF911F911A
S11310900F91FF90EF900895EF92FF920F931F939B
S11310A0CF93DF938C017B0140E065E50E94FC0750
S11310B0E70188E0E80EF11C699140E0C8010E9454
S11310C0FC07CE15DF05C1F7DF91CF911F910F917A
S11310D0FF90EF900895FC01138615861486DC01B9
S11310E01B9633961E92AE17BF07E1F708951F9320
S11310F0CF93DF93EC01162F60E0812F0E94F9104B
S1131100612F70E0FB01EA53FF4FE491E883FB0198
S1131110E652FF4FE491F0E0EE0FFF1FE251FF4F64
S1131120859194919A838983CE01DF91CF911F9108
S11311300C946B08BF92CF92DF92EF92FF920F93C1
S11311401F93CF93DF93EC016B01142F8D858111D5
S113115005C0CE010E945F07811105C01B861D8654
S11311601C8680E064C040E0112311F060EF01C0F0
S11311706CEECE010E94FC0701E0E12CB12C11E0E1
S1131180CE010E94D107F82ECE010E94D10791E032
S1131190F91203C08130B1F434C02E2D30E0F812BE
S11311A01BC08B85181738F4FE01E20FF31F8381EF
S11311B0802341F402C0181729F0F12C193058F497
S11311C01C8709C0FE01EE0DF11D8381802B8383F2
S11311D0FF24F39409C0B12EFE01E20FF31F9381A3
S11311E0802F8095892383836F2DCE010E949E07D3
S11311F01F5F000F11F4E39401E087E08E1508F0FF
S1131200BFCF113408F4AACFBB86B11002C081E06D
S11312108D878B81882309F4A1CFDE011396F60113
S11312202B968D918193CA17DB07D9F781E0DF9163
S1131230CF911F910F91FF90EF90DF90CF90BF90CF
S11312400895DC0180E0615098F02D91982F922749
S1131250E92FEF70F0E0EE56FF4F249192959F70C6
S1131260E92FF0E0EE55FF4FE491822F8E27EBCF6C
S113127008955058BB27AA270E9451090C94950A37
S11312800E94870A38F00E948E0A20F039F49F3FAA
S113129019F426F40C94840A0EF4E095E7FB0C94FC
S11312A07E0AE92F0E94A60A58F3BA176207730749
S11312B08407950720F079F4A6F50C94C80A0EF477
S11312C0E0950B2EBA2FA02D0B01B90190010C0152
S11312D0CA01A0011124FF27591B99F0593F50F46A
S11312E0503E68F11A16F040A22F232F342F4427C2
S11312F0585FF3CF469537952795A795F0405395BA
S1131300C9F77EF41F16BA0B620B730B840BBAF089
S11313109150A1F0FF0FBB1F661F771F881FC2F7F4
S11313200EC0BA0F621F731F841F48F48795779508
S11313306795B795F7959E3F08F0B0CF9395880FC2
S113134008F09927EE0F9795879508950E945A0AF9
S113135008F481E008950E94BF090C94950A0E9444
S11313608E0A58F00E94870A40F029F45F3F29F062
S11313700C947E0A51110C94C90A0C94840A0E949C
S1131380A60A68F39923B1F3552391F3951B550BE2
S1131390BB27AA2762177307840738F09F5F5F4F44
S11313A0220F331F441FAA1FA9F335D00E2E3AF083
S11313B0E0E832D091505040E695001CCAF72BD09B
S11313C0FE2F29D0660F771F881FBB1F26173707EC
S11313D04807AB07B0E809F0BB0B802DBF01FF271E
S11313E093585F4F3AF09E3F510578F00C947E0A73
S11313F00C94C90A5F3FE4F3983ED4F3869577953D
S11314006795B795F7959F5FC9F7880F911D9695D6
S1131410879597F90895E1E0660F771F881FBB1F32
S1131420621773078407BA0720F0621B730B840BDF
S1131430BA0BEE1F88F7E0950895E89409C097FB6E
S11314403EF490958095709561957F4F8F4F9F4F97
S11314509923A9F0F92F96E9BB279395F6958795DB
S113146077956795B795F111F8CFFAF4BB0F11F49E
S113147060FF1BC06F5F7F4F8F4F9F4F16C0882345
S113148011F096E911C0772321F09EE8872F762F7B
S113149005C0662371F096E8862F70E060E02AF0BC
S11314A09A95660F771F881FDAF7880F96958795A8
S11314B097F90895990F0008550FAA0BE0E8FEEF7D
S11314C016161706E807F907C0F012161306E40704
S11314D0F50798F0621B730B840B950B39F40A26FD
S11314E061F0232B242B252B21F408950A2609F4DB
S11314F0A140A6958FEF811D811D089597F99F67DF
S113150080E870E060E008959FEF80EC0895002487
S11315100A941616170618060906089500240A9454
S113152012161306140605060895092E0394000CDA
S113153011F4882352F0BB0F40F4BF2B11F460FF69
S113154004C06F5F7F4F8F4F9F4F089557FD905892
S1131550440F551F59F05F3F71F04795880F97FB73
S1131560991F61F09F3F79F087950895121613062D
S11315701406551FF2CF4695F1DF08C0161617065C
S11315801806991FF1CF8695710561050894089591
S1131590E894BB2766277727CB0197F908950E9423
S11315A05A0A08F48FEF08950E94E70A0C94950AEA
S11315B00E94870A38F00E948E0A20F0952311F0C9
S11315C00C947E0A0C94840A11240C94C90A0E9477
S11315D0A60A70F3959FC1F3950F50E0551F629FC3
S11315E0F001729FBB27F00DB11D639FAA27F00D78
S11315F0B11DAA1F649F6627B00DA11D661F829F9F
S11316002227B00DA11D621F739FB00DA11D621F83
S1131610839FA00D611D221F749F3327A00D611DA0
S1131620231F849F600D211D822F762F6A2F112482
S11316309F5750409AF0F1F088234AF0EE0FFF1FB5
S1131640BB1F661F771F881F91505040A9F79E3F0C
S1131650510580F00C947E0A0C94C90A5F3FE4F3B0
S1131660983ED4F3869577956795B795F795E79562
S11316709F5FC1F7FE2B880F911D9695879597F96B
S11316800895FC01918D228D892F90E0805C9F4FFD
S1131690821B91098F7399270895FC01918D828D86
S11316A0981731F0828DE80FF11D858D90E0089533
S11316B08FEF9FEF0895FC01918D828D981761F053
S11316C0828DDF01A80FB11D5D968C91928D9F5F75
S11316D09F73928F90E008958FEF9FEF0895FC0120
S11316E0538D448D252F30E0842F90E0821B930B83
S11316F0541710F0CF960895019708958AED9CE051
S1131700892B49F080E090E0892B29F00E94DA0CC3
S113171081110C9400000895FC01848DDF01A80F51
S1131720B11DA35ABF4F2C91848D90E001968F7305
S11317309927848FA689B7892C93A089B1898C9124
S1131740837080648C93938D848D981306C0028873
S1131750F389E02D80818F7D80830895EF92FF923D
S11317600F931F93CF93DF93EC0181E0888F9B8DC0
S11317708C8D981305C0E889F989808185FD26C080
S1131780F62E0B8D10E00F5F1F4F0F731127E02E05
S11317908C8DE8120CC00FB607FCFACFE889F989E2
S11317A0808185FFF5CFCE010E948C0BF1CF8B8D0C
S11317B0FE01E80FF11DE35AFF4FF0829FB7F89442
S11317C00B8FEA89FB89808180620AC09FB7F894F5
S11317D0EE89FF896083E889F98980818370806458
S11317E080839FBF81E090E0DF91CF911F910F91A3
S11317F0FF90EF900895CF93DF93EC01888D8823B9
S1131800C9F0EA89FB89808185FD05C0A889B98969
S11318108C9186FD0FC00FB607FCF5CF808185FF44
S1131820F2CFA889B9898C9185FFEDCFCE010E94B2
S11318308C0BE7CFDF91CF910895CF92DF92EF9297
S1131840FF921F93CF93DF93EC016A017B01122F68
S1131850E889F98982E080834115514E610571055B
S1131860B1F060E079E08DE390E0A70196010E9479
S1131870D121DA01C9010197A109B109B695A7954A
S1131880979587959C01211580E13807A8F0E88990
S1131890F989108260E874E88EE190E0A70196016E
S11318A00E94D121DA01C9010197A109B109B695B4
S11318B0A795979587959C01EC85FD853083EE85EA
S11318C0FF852083188EEC89FD891083EA89FB89C2
S11318D0808180618083EA89FB898081886080833C
S11318E0EA89FB89808180688083EA89FB89808119
S11318F08F7D8083DF91CF911F91FF90EF90DF90D8
S1131900CF9008951F920F920FB60F9211242F9328
S11319108F939F93EF93FF93E0918703F091880354
S11319208081E0918D03F0918E0382FD12C090813D
S1131930809190038F5F8F7320919103821751F0F0
S1131940E0919003F0E0E958FC4F958F8093900369
S113195001C08081FF91EF919F918F912F910F9002
S11319600FBE0F901F9018951F920F920FB60F92F3
S113197011242F933F934F935F936F937F938F9390
S11319809F93AF93BF93EF93FF9387E793E00E94F6
S11319908C0BFF91EF91BF91AF919F918F917F91AC
S11319A06F915F914F913F912F910F900FBE0F90C8
S11319B01F90189587E793E00E94410B21E0892B43
S11319C009F420E0822F0895E7E7F3E013821282FE
S11319D088EE93E0A0E0B0E084839583A683B78388
S11319E08CE392E09183808385EC90E095878487F3
S11319F084EC90E09787868780EC90E0918B808BD5
S1131A0081EC90E0938B828B82EC90E0958B848BBD
S1131A1086EC90E0978B868B118E128E138E148E2B
S1131A2008950E9419100E94BF1C0E946405CEE70D
S1131A30DBE00E94C6052097E1F30E947E0BF9CFFC
S1131A40CF92DF92EF92FF920F931F93CF93DF9386
S1131A506C017A018B01C0E0D0E0CE15DF0581F086
S1131A60D8016D918D01D601ED91FC910190F08129
S1131A70E02DC6010995892B11F02196EECF7E0148
S1131A80C701DF91CF911F910F91FF90EF90DF90ED
S1131A90CF9008956115710579F0FB010190002044
S1131AA0E9F73197AF01461B570BDC01ED91FC912F
S1131AB00280F381E02D099480E090E00895EF9294
S1131AC0FF920F931F93CF93DF938C017B01C0E0B0
S1131AD0D0E0F701EC0FFD1F6491662361F0D8019B
S1131AE0ED91FC910190F081E02DC8010995892BBD
S1131AF011F02196EECFCE01DF91CF911F910F917E
S1131B00FF90EF9008950C944A0DDC01ED91FC9147
S1131B100190F081E02D09946AE472E00C944A0D7E
S1131B200F931F93CF93DF93EC010E944A0D8C0116
S1131B30CE010E948C0D800F911FDF91CF911F91D8
S1131B400F9108958F929F92AF92BF92EF92FF925E
S1131B500F931F93CF93DF93CDB7DEB7A1970FB643
S1131B60F894DEBF0FBECDBF7C01FA01CB0119A2F0
S1131B70223008F42AE08E010F5D1F4F822E912C33
S1131B80A12CB12CBF01A50194010E94D121F9011E
S1131B90CA01015011096A3010F4605D01C0695C2A
S1131BA0D8016C93232B242B252B61F7B801C70193
S1131BB00E944A0DA1960FB6F894DEBF0FBECDBFAA
S1131BC0DF91CF911F910F91FF90EF90BF90AF9055
S1131BD09F908F9008952115310541F4DC01ED911A
S1131BE0FC910190F081E02D642F09940C94A20DD6
S1131BF09A01462F50E060E070E00C94EB0D9A01DE
S1131C00AB0160E070E00C94EB0D7F928F929F9299
S1131C10AF92BF92CF92DF92EF92FF920F931F93F6
S1131C20CF93DF938C016A017B01722E9A01AB0181
S1131C30C701B6010E94B821882319F06DE472E04F
S1131C4027C046015701E894B7F82FEF3FEF4FE75D
S1131C505FE7C501B4010E94B82181110DC02FEFC7
S1131C603FEF4FE75FE7C501B4010E94A6091816CC
S1131C701CF461E572E00CC02FEF3FEF4FE75FE427
S1131C80C701B6010E94CF0A181694F465E572E004
S1131C90C801DF91CF911F910F91FF90EF90DF90DA
S1131CA0CF90BF90AF909F908F907F900C944A0DEF
S1131CB02FEF3FEF4FE75FECC701B6010E94A60983
S1131CC087FDE4CF20E030E0A901C701B6010E94FE
S1131CD0A60987FF0AC06DE2C8010E94850DEC01C8
S1131CE0F7FAF094F7F8F09402C0C0E0D0E0B12C19
S1131CF060E070E080E09FE37B1441F020E030E09E
S1131D0040E251E40E94AB09B394F6CFA7019601D7
S1131D100E943A096B017C010E9489214B015C01FC
S1131D202AE0AB01BC01C8010E94A20DC80FD91F53
S1131D307720B9F1C501B4010E941D0A9B01AC01D1
S1131D40C701B6010E9439096B017C016EE2C8012A
S1131D500E94850DC80FD91F20E030E040E251E415
S1131D60C701B6010E94D40A4B015C010E9489217B
S1131D706B017C014AE050E0C8010E94FF0DC80FCE
S1131D80D91FB60180E090E00E941D0A9B01AC01BE
S1131D90C501B4010E9439096B017C017A94711068
S1131DA0DBCFCE01DF91CF911F910F91FF90EF9088
S1131DB0DF90CF90BF90AF909F908F907F900895C9
S1131DC00C94050E0F931F93CF93DF93EC010E94A5
S1131DD0050E8C01CE010E948C0D800F911FDF91A6
S1131DE0CF911F910F91089508958230E8F4E82F60
S1131DF0F0E0EE0FFF1FE45EFE4F718360838130DD
S1131E0041F0809169008C7F482B40936900E89AE7
S1131E10089580916900837F440F551F440F551F17
S1131E20482B40936900E99A08951F920F920FB6C8
S1131E300F9211242F933F934F935F936F937F934C
S1131E408F939F93AF93BF93EF93FF93E0911C0104
S1131E50F0911D010995FF91EF91BF91AF919F9171
S1131E608F917F916F915F914F913F912F910F903F
S1131E700FBE0F901F9018951F920F920FB60F92DE
S1131E8011242F933F934F935F936F937F938F937B
S1131E909F93AF93BF93EF93FF93E0911E01F09153
S1131EA01F010995FF91EF91BF91AF919F918F9180
S1131EB07F916F915F914F913F912F910F900FBE42
S1131EC00F901F9018951F920F920FB60F92112426
S1131ED02F933F938F939F93AF93BF938091150458
S1131EE090911604A0911704B09118043091140431
S1131EF023E0230F2D3720F40196A11DB11D05C049
S1131F0026E8230F0296A11DB11D2093140480938B
S1131F10150490931604A0931704B09318048091A9
S1131F20190490911A04A0911B04B0911C04019609
S1131F30A11DB11D8093190490931A04A0931B044E
S1131F40B0931C04BF91AF919F918F913F912F91BA
S1131F500F900FBE0F901F9018953FB7F894809183
S1131F60190490911A04A0911B04B0911C0426B585
S1131F70A89B05C02F3F19F00196A11DB11D3FBFBD
S1131F80BA2FA92F982F8827820F911DA11DB11D4B
S1131F90BC01CD0142E0660F771F881F991F4A9547
S1131FA0D1F708958F929F92AF92BF92CF92DF9212
S1131FB0EF92FF926B017C010E94AD0F4B015C011B
S1131FC0C114D104E104F10401F10E94621E0E94D3
S1131FD0AD0FDC01CB0188199909AA09BB09883E18
S1131FE09340A105B10560F321E0C21AD108E108CC
S1131FF0F10888EE880E83E0981EA11CB11CC11460
S1132000D104E104F10419F7DBCFFF90EF90DF90E6
S1132010CF90BF90AF909F908F900895823091059C
S113202038F0880F991F880F991F05970197F1F7CA
S11320300895789484B5826084BD84B5816084BD3C
S113204085B5826085BD85B5816085BDEEE6F0E02D
S1132050808181608083E1E8F0E010828081826089
S11320608083808181608083E0E8F0E0808181600A
S11320708083E1EBF0E0808184608083E0EBF0E03A
S1132080808181608083EAE7F0E0808184608083DE
S11320908081826080838081816080838081806888
S11320A080831092C10008958E3008F08E502091E4
S11320B0200190E4299F900111248770822B809342
S11320C07C0080917A00806480937A0080917A0009
S11320D086FDFCCF809178002091790090E0922BCE
S11320E008951F93CF93DF93182FEB0161E00E94B3
S11320F0F910209711F460E004C0CF3FD10539F402
S113210061E0812FDF91CF911F910C943511E12F64
S1132110F0E0EE54FF4FE491E330F9F048F4E1309D
S1132120B9F0E230A1F584B5806284BDC8BD34C085
S1132130E730E9F0E83019F1E43049F580918000A6
S1132140806280938000D0938B00C0938A0024C067
S113215084B5806884BDC7BD1FC08091800080683D
S113216080938000D0938900C093880015C080912B
S1132170B00080688093B000C093B3000DC080911C
S1132180B00080628093B000C093B40005C0C03832
S1132190D1050CF0B5CFAFCFDF91CF911F9108954A
S11321A0833081F028F4813099F08230A1F00895D1
S11321B08730A9F08830B9F08430D1F48091800060
S11321C08F7D03C0809180008F7780938000089575
S11321D084B58F7702C084B58F7D84BD08958091C6
S11321E0B0008F7703C08091B0008F7D8093B000E2
S11321F00895CF93DF9390E0FC01EA53FF4F2491BD
S1132200FC01E652FF4F8491882361F190E0880F2E
S1132210991FFC01EE5FFE4FC591D491FC01E8507B
S1132220FF4FA591B491611109C09FB7F8948881BB
S1132230209582238883EC912E230BC0623061F4B5
S11322409FB7F8948881322F309583238883EC914B
S11322502E2B2C939FBF06C08FB7F894E8812E2BAA
S113226028838FBFDF91CF9108951F93CF93DF937E
S1132270282F30E0F901EE54FF4F8491F901EA531D
S1132280FF4FD491F901E652FF4FC491CC23C1F022
S1132290162F81110E94D010EC2FF0E0EE0FFF1FDB
S11322A0E850FF4FA591B4919FB7F894111104C061
S11322B08C91D095D82302C0EC91DE2BDC939FBF88
S11322C0DF91CF911F9108950FB6F8940F92FC01FE
S11322D0928D0F900FBE81E0911180E008950F93CD
S11322E01F93CF93DF93EC01042F1A8D4C8D411172
S11322F00BC088819981892BE9F58C819D810E948D
S1132300261A1D821C8237C050E0011115C08A8133
S11323109B810E9467232C8D8A819B81820F911D52
S11323209B838A832C813D818217930718F18881CE
S113233099819B838A831EC08E819F810E9467231B
S11323408C8D90E09195819591092E813F81280F84
S1132350391F3F832E83488159812417350730F470
S11323602C813D81820F931F9F838E83023011F451
S11323701111115080E01F5F1A8FDF91CF911F91CF
S11323800F910895FC01CB01448D4423A1F050E04A
S113239026813781240F351F378326836481758115
S11323A02617370720F02081318137832683668101
S11323B077810C9467230895EF92FF921F93CF9334
S11323C0DF93EC010FB6F8940F921E8D7C0181E12E
S11323D0E80EF11C11165CF48989882341F0C701C9
S11323E00E94331981110E94B1191150F3CF8FEF5C
S11323F08E8F0F900FBE0FB6F8940F921D8D7E0135
S113240088E0E80EF11C11165CF48885882341F0FD
S1132410C7010E94331981110E94B1191150F3CFE1
S11324208FEF8D8F0F900FBEDF91CF911F91FF9093
S1132430EF900895CF93DF93EC010FB6F8940F92C9
S1132440488159818B8D7C8D9A01879F200D311D88
S113245011243D832C831A8E5B834A8390E0019779
S1132460789F9001799F300D1124CA01820F931F28
S11324709F838E838FEF8D8F8E8F61110CC0888523
S1132480882389F0CE0108960E943319882359F0D5
S11324900E94BA1F08C0CE0108960E94871ECE0172
S11324A041960E94871E0F900FBE81E0DF91CF916D
S11324B008950F931F93CF93DF93082F162F66234E
S11324C021F0869FC001112402C080E090E04F9665
S11324D00E94631EEC01009771F0111103C09983EF
S11324E0888303C04F96998388830B8F1C8F61E088
S11324F0CE010E941A12CE01DF91CF911F910F914C
S11325000895AF92BF92CF92DF92FF920F931F93E1
S1132510CF93DF9300D000D01F92CDB7DEB78C01EC
S11325206B015D834C83F22E80E0580198E0A90E84
S1132530B11C0FB6F8940F92F801228D938D2917D0
S113254018F0F2E0FF1214C04F2DB601C8010E942A
S11325506F11F8019189992321F0C80141960E94D5
S1132560331981110E94BA1F0F900FBE81E050C031
S11325702C813D81232B19F40F900FBE48C081118B
S113258004C0CE0101960E9473190F900FBE0E94E1
S1132590DE160FB6F8940F92F801858D8F3F09F47B
S11325A0158EF801868D8F3F09F4168E0F900FBE9D
S11325B0BE016C5F7F4FCE0101960E947E1981118E
S11325C021C00FB6F8940F92F801928D838D0F906D
S11325D00FBE981311C06C817D81C5010E940A1938
S11325E0C8010E94DC110E949A17882311F081E02F
S11325F0A0CF0E94BA1FFBCFC8010E94DC110E9429
S11326009A17F5CFC8010E94DC110E949A1780E046
S11326100F900F900F900F900F90DF91CF911F911B
S11326200F91FF90DF90CF90BF90AF900895EF92FD
S1132630FF921F93CF93DF93EC019A8D8B8D9817A4
S113264010F02230E1F47A011E8D422FCE010E9457
S11326506F111F3F81F48989882379F0CE01419657
S11326600E943319882349F0E114F10431F081E028
S1132670F701808305C01F5F1E8F81E001C080E0E9
S1132680DF91CF911F91FF90EF900895AF92BF9289
S1132690CF92DF92FF920F931F93CF93DF9300D0DB
S11326A000D01F92CDB7DEB78C016B015D834C83E4
S11326B080E0580191E1A90EB11C0FB6F8940F9275
S11326C0F801F28CFF20A9F0B601C8010E94C211E2
S11326D0FA94F801F28E8085882339F0C8010896AF
S11326E00E94331981110E94BA1F0F900FBE81E01E
S11326F050C02C813D81232B19F40F900FBE48C08C
S1132700811104C0CE0101960E9473190F900FBE6F
S11327100E94DE160FB6F8940F92F801858D8F3F54
S113272009F4158EF801868D8F3F09F4168E0F90EB
S11327300FBEBE016C5F7F4FCE0101960E947E19D1
S113274081111CC0C8010E946411882389F06C8126
S11327507D81C5010E940A19C8010E94DC110E94F2
S11327609A17882311F081E0A8CF0E94BA1FFBCFEB
S1132770C8010E94DC110E949A17F5CFC8010E947B
S1132780DC110E949A17C8010E946411882359F32E
S113279080E00F900F900F900F900F90DF91CF91EA
S11327A01F910F91FF90DF90CF90BF90AF9008954D
S11327B0CF92DF92FF920F931F93CF93DF9300D0BA
S11327C000D01F92CDB7DEB78C017D836C83F12CD2
S11327D090E0680181E1C80ED11C0FB6F8940F9205
S11327E0D8015A968C915A978823E9F081505A96C9
S11327F08C935A978D919C91892B29F40E94A71A46
S1132800F80195838483D80118968C91882339F034
S1132810C80108960E94331981110E94BA1F0F90B3
S11328200FBE81E07AC02C813D81232B09F472C054
S1132830911104C0CE0101960E9473190F900FBE2E
S11328400E94DE160FB6F8940F92F801858D8F3F23
S113285009F4158ED8015E968C915E978F3F11F422
S11328605E961C920F900FBEBE016C5F7F4FCE012F
S113287001960E947E1981112BC0C8010E94641127
S1132880882301F1F80180819181892B51F40FB6DD
S1132890F8940F92848195810E94C319F82E0F90A9
S11328A00FBE6C817D81C6010E940A19C8010E9475
S11328B0DC110E949A17882311F091E08ECF0E94B8
S11328C0BA1FFBCFC8010E94DC110E949A17F5CFF2
S11328D0C8010E94DC110E949A17C8010E94641169
S11328E0882359F3FF20C1F00FB6F8940F92F80132
S11328F08189882339F00688F789E02D808164E096
S1132900681B01C060E0D80114968D919C911597C5
S11329100E94601A0F900FBE80E00F900F900F90EE
S11329200F900F90DF91CF911F910F91FF90DF9047
S1132930CF900895CF93DF93EC010FB6F8940F92E4
S11329408D8D8F3F09F41D8E8E8D8F3F09F41E8E61
S11329500F900FBE8A8D811104C0CE0141960E9452
S11329601B19CE01DF91CF910C94DC11E091490445
S1132970F0914A048081811103C08FEF9FEF0CC056
S1132980E0914904F0914A040580F681E02D068027
S1132990F781E02D82819381909321048093200418
S11329A00895FF920F931F93CF93DF93EC01F62EBC
S11329B0009128041091290480918104909182044B
S11329C002960E94F21ECF3F8FEFD80789F4FF20B2
S11329D079F060918104709182046E5F7F4F8BE285
S11329E094E0DF91CF911F910F91FF900C94991E69
S11329F0C00FD11FE0918104F0918204D383C2837C
S1132A006091810470918204C017D10768F48091A9
S1132A104704909148046E5F7F4FDF91CF911F91DF
S1132A200F91FF900C94BA1E8091490490914A042E
S1132A306E5F7F4F0E94BA1E809120049091210402
S1132A40C817D90720F4D0932104C0932004DF9140
S1132A50CF911F910F91FF900895809134048823A2
S1132A6009F10FB6F8940F92E0913A04F0913B0407
S1132A70C681D781CE0102960E94F21E80912A045B
S1132A80815080932A0480913404815080933404CB
S1132A900F900FBE8F89988D0E94761ECE010E94E2
S1132AA0761EDBCF80915D04823010F00E94BA1F45
S1132AB00E94C41CD2CF5F926F927F928F929F929A
S1132AC0AF92BF92CF92DF92EF92FF920F931F9338
S1132AD0CF93DF933C016B015A014901502ECA0187
S1132AE00E94631E8C01892B09F4E0C088E290E007
S1132AF00E94631EEC01892BC9F0188F0F8BA5016E
S1132B0065EA70E0C8010E94702321E0A21AB108AE
S1132B108F89988DA80EB91EC114D104C9F0BE01C5
S1132B20675E7F4FF601C601089607C0C8010E9480
S1132B30761EBCC0E817F90749F09F014191DB01FB
S1132B404D93BD01D9012C912111F4CF18A201C0DC
S1132B50198E052D043008F003E00E8B09A31AA288
S1132B606E01B2E0CB0ED11CC6010E94951ECE01AF
S1132B700C960E94951ED987C88784E090E0801B3C
S1132B8091099D878C87DB8BCA8B1BA21CA21DA27B
S1132B901EA21FA2A401B301C5010E94161F99839E
S1132BA08883E114F10419F0F701D183C0830FB6CF
S1132BB0F8940F9280912A048F5F80932A04809165
S1132BC0810490918204892BD1F5D0938204C0931F
S1132BD0810480912A04813009F041C08DE594E09C
S1132BE00E94871E86E694E00E94871E8FE694E08A
S1132BF00E94871E88E794E00E94871E84E594E083
S1132C000E94871E8BE494E00E94871E8EE394E06A
S1132C100E94871E85E394E00E94871E8BE294E065
S1132C200E94871E84E594E090934A0480934904AB
S1132C308BE494E0909348048093470410C08091FF
S1132C40260481110CC0E0918104F09182049689DC
S1132C508E89891720F0D0938204C09381048091D7
S1132C6022048F5F809322048E8990912704981701
S1132C7010F480932704F9E08F9FC0011124B6015A
S1132C80835A9B4F0E94991E0F900FBE8091260479
S1132C90882351F0E0918104F091820496898E8911
S1132CA0981710F40E94BA1F81E001C08FEFDF91E2
S1132CB0CF911F910F91FF90EF90DF90CF90BF9035
S1132CC0AF909F908F907F906F905F9008950F9337
S1132CD01F93CF93DF932091810430918204821754
S1132CE0930709F438C0009709F435C00FB6F89477
S1132CF00F92FC01228533852B52344051F5FC019F
S1132D0024893589F4E02E333F0719F1232B09F583
S1132D10EC018C010E5F1F4FC8010E94F21E8E89C8
S1132D2090912704981710F48093270429E0829F38
S1132D30C0011124B801835A9B4F0E94991EE0914F
S1132D408104F09182049E898689981710F00E946C
S1132D50BA1F0F900FBEDF91CF911F910F9108956D
S1132D60EF92FF920F938EE1E82E84E0F82E00E0BC
S1132D7020E030E040EC50E069E572E08DE295E15E
S1132D800E945B158130B1F40E940C1B813091F4D8
S1132D90F8942FEF3FEF3093210420932004809385
S1132DA0260410922904109228040F91FF90EF90AA
S1132DB00C94821F0F91FF90EF90089580911D0451
S1132DC08F5F80931D0408950FB6F8940F9280913D
S1132DD02804909129040F900FBE0895CF92DF929A
S1132DE0EF92FF920F931F93CF93DF9380911D0473
S1132DF081118CC000912804109129040F5F1F4F8A
S1132E00109329040093280401151105B9F4809145
S1132E10490490914A042091470430914804309326
S1132E204A04209349049093480480934704809172
S1132E3023048F5F809323040E94B614809120049E
S1132E4090912104C0E00817190708F44FC0D9E095
S1132E50E0914904F0914A048081811103C08FEF0D
S1132E609FEF11C0E0914904F0914A040580F68176
S1132E70E02DE680F780D70112968D919C911397EF
S1132E800817190728F490932104809320042EC076
S1132E906701B2E0CB0ED11CC6010E94F21EF701FD
S1132EA084899589892B21F0C7010C960E94F21E12
S1132EB0D70156968C9190912704981710F480931B
S1132EC02704D89FC0011124B601835A9B4F0E9446
S1132ED0991EE0918104F0918204D70156969C9149
S1132EE08689981708F4B4CFC1E0B2CFE091810489
S1132EF0F0918204E689B9E0EB9FF0011124E35AD2
S1132F00FB4F8081823040F0C1E006C080912504EF
S1132F108F5F80932504C0E0809124048111C1E077
S1132F208C2FDF91CF911F910F91FF90EF90DF9045
S1132F30CF900895EF92FF920F931F93CF93DF9357
S1132F400FB6F8940F9280911D04815080931D0454
S1132F5080911D04882311F080E052C080912A04DE
S1132F608823D1F3C0E0D0E089E0F82EEE24E39486
S1132F7080913E04882351F1E0914304F09144048C
S1132F80C681D781CE010C960E94F21E8E010E5F7F
S1132F901F4FC8010E94F21E8E8990912704981732
S1132FA010F480932704F89EC0011124B801835AB9
S1132FB09B4F0E94991EE0918104F09182049E89A6
S1132FC086899817A8F2E0922404D2CFCD2B11F071
S1132FD00E94B614C0912504CC2351F0D1E00E9484
S1132FE0EE168111D0932404C150C9F71092250420
S1132FF080912404882309F4AFCF0E94BA1F81E092
S11330000F900FBEDF91CF911F910F91FF90EF9022
S113301008950F931F93CF93DF938C01EB010E94CC
S1133020DE164091280450912904F8012081318151
S1133030C9018C0F9D1F4217530720F48217930771
S113304040F403C08217930730F021E04817590772
S113305018F020E001C021E0F8019183808322234D
S113306029F060E0841B950B0E94D1140E949A17EA
S1133070811102C00E94BA1FDF91CF911F910F915D
S11330800895CF93DF93EC01892B19F40E94BA1FA2
S11330900AC00E94DE1660E0CE010E94D1140E9494
S11330A09A17882399F3DF91CF91089580911D0495
S11330B0882321F081E0809324040895109224044D
S11330C0A0918104B0918204E0918104F091820482
S11330D02D913C918789908D8217930760F06091C0
S11330E08104709182048091810490918204675ECE
S11330F07F4F0E94DA1C8091270469E0482F50E03A
S1133100649F9001659F300D1124F901E35AFB4F30
S11331109081911102C08150F1CFA181B2811296A8
S11331200D90BC91A02DB283A183205A3B4FA217CE
S1133130B30731F412962D913C9113973283218376
S113314099E0949FF001959FF00D1124E35AFB4FF1
S11331500180F281E02D268137813093820420930F
S113316081048093270408950F931F93CF93DF93D3
S1133170EC010FB6F8940F92892B21F4C0918104CD
S1133180D09182048E010E5F1F4FC8010E94F21E6F
S11331908C899D89892B21F0CE010C960E94F21E08
S11331A0B8018BE294E00E94991E8FA1813009F44A
S11331B01FA20F900FBE80912604882339F00FB60A
S11331C0F8940F920E94B6140F900FBE8091810460
S11331D090918204C817D907C1F4809126048823EA
S11331E019F00E94BA1F11C090912B0480912A04F7
S11331F0981305C0109282041092810406C0DF91D6
S1133200CF911F910F910C945618DF91CF911F917C
S11332100F910895CF93DF93EB0160918104709136
S11332208204645F7F4F0E94BA1E61E0CE01DF9189
S1133230CF910C94D1141F93CF93DF93EB01142FF0
S11332406091810470918204645F7F4F0E94991E93
S1133250112311F0CFEFDFEF612FCE01DF91CF917A
S11332601F910C94D1140F931F93CF93DF93DC0120
S11332701596ED91FC911697C681D7818E01045F56
S11332801F4FC8010E94F21E80911D04811114C0B9
S11332900A501109C8010E94F21E8E8990912704D8
S11332A0981710F480932704B9E08B9FC001112470
S11332B0B801835A9B4F03C0B8018EE394E00E9487
S11332C0991EE0918104F09182049E898689891770
S11332D020F481E08093240401C080E0DF91CF9149
S11332E01F910F91089520912304FC0120832091C4
S11332F0280430912904328321830895CF93DF93E6
S11333000FB6F8940F924091280450912904DB01E0
S11333102D913C912F3FBFEF3B07D9F0EC01E981A0
S1133320FA81A0912304B881BA1719F04E175F07E8
S113333090F44E1B5F0BFB014217530738F4241B18
S1133340350B318320830E94731903C011821082CC
S113335002C080E001C081E00F900FBEDF91CF91E9
S1133360089581E08093240408958091260488239D
S113337031F080911D04882321F080E0089581E0DC
S1133380089582E008950F931F93CF93DF93FC0178
S1133390892B09F455C08689A0918104B0918204D7
S11333A056969C91891708F041C02485358537FDD0
S11333B00CC0A0918104B091820456969C9124E0A3
S11333C030E0291B31093587248729E0829FC00119
S11333D01124835A9B4F2285338528173907E9F432
S11333E08F01EF012296CE010E94F21EE09181042A
S11333F0F09182048689F801868B909127049817AE
S113340010F480932704F9E08F9FC0011124BE01BA
S1133410835A9B4F0E94991E07C0A0918104B091CA
S1133420820456968C91868B81E00BC0A091810416
S1133430B091820481E021A156969C91291708F04D
S113344080E0DF91CF911F910F9108950F931F9307
S1133450CF93DF93FC01892B11F480E02CC082A16F
S1133460815082A3268991A12917B9F38111F5CF3F
S1133470EF018F010E5F1F4FC8010E94F21E89A148
S11334808E8B482F50E024E030E0241B350B3D8721
S11334902C8790912704981710F48093270429E02F
S11334A0249FC001259F900D1124B801835A9B4F7E
S11334B00E94991E81E0DF91CF911F910F91089591
S11334C00F931F93CF93DF93FC01892BD9F191A123
S11334D0961708F4962F86898917A1F122A1213025
S11334E089F5968B2485358537FD06C024E030E0C8
S11334F0291B31093587248729E0829FC0011124C3
S1133500835A9B4F2285338528173907D9F4EF0155
S11335108F010E5F1F4FC8010E94F21E8E89909189
S11335202704981710F48093270429E0829FC00190
S11335301124B801835A9B4FDF91CF911F910F91B2
S11335400C94991EDF91CF911F910F910895809152
S1133550810490918204892B39F0E0918104F091E7
S1133560820482A18F5F82A380918104909182045E
S113357008950FB6F8940F9280918704909188046F
S1133580892BE9F486E994E00E94871E8DE894E093
S11335900E94871E86E994E090938C0480938B04A8
S11335A08DE894E090938A048093890440E065E078
S11335B08AE00E94591290938804809387040F90A4
S11335C00FBE0895FC017383628391878087461739
S11335D0570778F0421B530B848595854817590784
S11335E0C8F4BF016E5F7F4F8091890490918A0473
S11335F00DC04217530718F46217730758F4BF013C
S11336006E5F7F4F80918B0490918C040E94BA1E50
S113361080E0089581E00895EF92FF920F930E9455
S1133620B91A8091870490918804892B81F085E8E8
S1133630E82E84E0F82E03E020E030E045E550E099
S11336406EE572E08CEB9BE10E945B1501C080E0AB
S11336500F91FF90EF9008950F931F93CF93DF93F3
S113366000D000D01F92CDB7DEB7A0918704B091EF
S11336708804109729F1F90169835B834A839D8348
S11336808C836630A4F40E94B519E0918704F0910C
S1133690880420E0823011F4A80102C040E050E028
S11336A0BE016F5F7F4FCF010E9481120AC020E0EC
S11336B0AF01BE016F5F7F4FCD010E94171301C0A0
S11336C080E00F900F900F900F900F90DF91CF91AB
S11336D01F910F910895EF92FF920F931F93CF9331
S11336E0DF93E0918B04F0918C048081882389F12D
S11336F00580F681E02DE080F180C681D7818E01BE
S11337000E5F1F4FC8010E94F21EE889F989CE019D
S113371009958A8982FFE5CF8C859D858E0D9F1D35
S1133720E816F90660F49B838A83D987C887B801B1
S113373080918B0490918C040E94BA1ED2CF00E039
S113374010E020E030E0A70160E0CE010E942C1BD5
S1133750C8CF8091890490918A0490938C048093BB
S11337608B04F0938A04E0938904DF91CF911F9135
S11337700F91FF90EF900895CF93DF9300D000D086
S11337801F92CDB7DEB7E0918B04F0918C04D0800A
S1133790DD2031F00580F681E02DE080F18002C06B
S11337A0E12CF12C0E94DE160E94E4168C0180911B
S11337B08304909184040817190720F40E946B1B5A
S11337C081E001C080E0109384040093830481119C
S11337D055C0DD20D9F10E151F0508F43EC00E9426
S11337E09A17E0918B04F0918C040580F681E02D0A
S11337F0C680D780C60102960E94F21ED601529658
S11338008C91529782FF17C01C966D917C911D97E5
S11338106E0D7F1D9701A801C6010E94E21A88233C
S113382069F000E010E020E030E0A70160E0C601AC
S11338300E942C1B03C08E7FF601828BD60150960A
S1133840ED91FC915197C60109951EC0E091890440
S1133850F0918A04808141E0811140E0B701601B4E
S1133860710B80918704909188040E949A140E949D
S11338709A17811109C00E94BA1F06C00E949A17A4
S113388003C0898187FF0EC040E050E0BE016F5F36
S11338907F4F80918704909188040E944613811180
S11338A0F0CF71CFEC80FD80F70182859385892B61
S11338B021F0C70102960E94F21E0E94E4166C01D8
S11338C08091830490918404C816D90610F40E9450
S11338D06B1BD0928404C0928304E9810E2E000CE9
S11338E0FF0BEA30F10580F6EC5CFF4FD7015296EE
S11338F08C910C9412228160F701828B2A813B8186
S113390064857585620F731FA601C7010E94E21AC0
S1133910882309F4B9CFD7015096ED91FC915197C2
S1133920C7010995F701828982FFAECF4A815B8185
S113393084859585480F591F00E010E020E030E0B1
S113394060E0C7010E942C1B9FCF8160F701828B2E
S11339506A817B81758764876C0D7D1D9601A60144
S1133960C7010E94E21A90CF81FD04C0C7010E94E2
S1133970761E8ACF8E7FD70152968C9385CF0E9474
S113398064050E94B01608950E94C6058EE79BE068
S1133990892B11F00C947E0B0895259A2D9A2FEF04
S11339A080E792E0215080409040E1F700C00000A1
S11339B01D9AF5CF259A2D9A2FEF87EA91E621508B
S11339C080409040E1F700C000001D9AF5CF0F93AE
S11339D01F93FC018FEF808381838283838384839D
S11339E08AE085831682DF011796739600E717E154
S11339F020E030E048ED56ED60E070E00D931D935B
S1133A002D933D9318964D935D936D937C931B97E3
S1133A10AE17BF0799F71F910F910895FF920F9367
S1133A201F93CF93DF93EC01F62E042F122F0E94E5
S1133A30E71CFB820C831883DF91CF911F910F91B8
S1133A40FF9008950895CF93DF93EC018B818F3F0E
S1133A50E9F09C819F3FD1F0613049F030F0623051
S1133A6041F0633099F461E009C060E007C061E0AF
S1133A7001C060E00E94351161E003C00E9435116D
S1133A8060E08C81DF91CF910C943511DF91CF915F
S1133A900895CF93DF93EC0189818F3FE9F09A81F8
S1133AA09F3FD1F0613049F030F0623041F0633033
S1133AB099F460E009C061E003C061E005C060E022
S1133AC00E94351161E003C00E94351160E08A81D3
S1133AD0DF91CF910C943511DF91CF910895FC01C2
S1133AE020812F3F29F091E06927822F0C94351112
S1133AF0662319F0FC01668101C063E00C94491D42
S1133B00DC01FB01309759F09B968C919B97808345
S1133B109C968C919C9781839D968C918283089529
S1133B204F925F926F927F928F929F92AF92BF92C9
S1133B30DF92EF92FF920F931F93CF93DF938C0149
S1133B40095F1F4FEC017C0183E1E80EF11CDD24C9
S1133B50DA94F801D8018D909D90AD90BD908D01BF
S1133B60808D918DA28DB38D9C01AD0128193909E9
S1133B704A095B09AFEFB0E00E941822F8014084C3
S1133B80518462847384A3019201281939094A0972
S1133B905B090E94F32157FF02C01BA609C02F3FF7
S1133BA031054105510519F014F0DBA601C02BA71E
S1133BB021960E151F0569F6DF91CF911F910F9184
S1133BC0FF90EF90DF90BF90AF909F908F907F9089
S1133BD06F905F904F9008950F931F93CF93DF934F
S1133BE08C01C62F613049F018F06230D9F04CC016
S1133BF010929F0461E00E946F1DE0919F04F0E029
S1133C00EA59FD4F6081C8010E94231DF8016581B6
S1133C1070E088EE93E00E94BD21CB010E947320E6
S1133C20C2E032C00E94EB20882371F1E0919F042E
S1133C3081E08E0F80939F04F0E0EA59FD4FC0812C
S1133C40D0E00E94EE209B01AC01CC0FDD1FCC0F15
S1133C50DD1FC00FD11FF801A581B0E00E9418221A
S1133C606F8F78A389A39AA380919F04833058F01F
S1133C700E94FC2060E0C8010E946F1DC8010E94E0
S1133C80901DC0E001C0C1E08C2FDF91CF911F9146
S1133C900F910895CF93DF93EC0160E00E94EC1D37
S1133CA08EA7DF91CF910895CF93DF93EC016EA59A
S1133CB00E94EC1D982F8EA781E0911180E0DF9186
S1133CC0CF9108950895CF93DF93EC010E94DE16FF
S1133CD0CE010E944622EC010E949A17209711F40B
S1133CE00E94CD1CCE01DF91CF910895CF93DF9335
S1133CF0009751F0EC010E94DE16CE010E94DE22F4
S1133D00DF91CF910C949A17DF91CF910895FC0124
S1133D100396928381832FEF3FEF3483238396832B
S1133D2085839087878310820895FC01118610860D
S1133D300895CF93DF939C01FB01DC011196CD9193
S1133D40DC911297D383C2838C819D819583848374
S1133D508C819D81DC0113967C936E9312977D83F5
S1133D606C8331872087F90180818F5F8083DF91A5
S1133D70CF9108950F931F93CF93DF938C01FB0191
S1133D80808191818F3F2FEF920721F4E801AF8169
S1133D90B8850EC0D801139612962D913C911397B5
S1133DA0E901488159818417950710F0D901F4CFAE
S1133DB012968D919C91139793838283EC01FD83DA
S1133DC0EC83B583A4831396FC93EE931297118727
S1133DD00087F80180818F5F8083DF91CF911F91ED
S1133DE00F910895CF93DF93FC01A085B185828163
S1133DF0938124813581EC013D832C83C481D58159
S1133E009B838A8311968D919C911297E817F907E9
S1133E1021F41296DC93CE931197118610868C911F
S1133E2081508C938C91DF91CF91089531E1FC0105
S1133E303083319722E220833197A3E3A083319723
S1133E4060833197708331971082319760E8608383
S1133E5031971082319762E06083319763E0608329
S1133E60319764E06083319765E06083319766E061
S1133E706083319767E06083319768E060833197AE
S1133E8069E06083319760E16083319730833197D3
S1133E9032E13083319733E13083319734E1308339
S1133EA0319735E13083319736E13083319737E10B
S1133EB03083319738E13083319739E1308331975A
S1133EC030E23083319731E2308331972083319768
S1133ED023E220833197408331975083319726E240
S1133EE02083319727E22083319728E2208331977A
S1133EF029E22083319720E32083319721E3208333
S1133F0086970895A89590EC88E10FB6F894A89543
S1133F10809360000FBE90936000A0918104B091E3
S1133F208204CD91CDBFDD91DEBFFF91EF91DF9192
S1133F30CF91BF91AF919F918F917F916F915F913D
S1133F404F913F912F911F910F91FF90EF90DF9030
S1133F50CF90BF90AF909F908F907F906F905F9025
S1133F604F903F902F901F900F900FBE0F90089589
S1133F7081E008950F920FB6F8940F921F921124C6
S1133F802F923F924F925F926F927F928F929F9265
S1133F90AF92BF92CF92DF92EF92FF920F931F9353
S1133FA02F933F934F935F936F937F938F939F933D
S1133FB0AF93BF93CF93DF93EF93FF93A0918104CB
S1133FC0B09182040DB60D920EB60D920E94561851
S1133FD0A0918104B0918204CD91CDBFDD91DEBF6B
S1133FE0FF91EF91DF91CF91BF91AF919F918F910D
S1133FF07F916F915F914F913F912F911F910F91FD
S1134000FF90EF90DF90CF90BF90AF909F908F90F4
S11340107F906F905F904F903F902F901F900F90E4
S11340200FBE0F9008950F920FB6F8940F921F923F
S113403011242F923F924F925F926F927F928F92B0
S11340409F92AF92BF92CF92DF92EF92FF920F9323
S11340501F932F933F934F935F936F937F938F930C
S11340609F93AF93BF93CF93DF93EF93FF93A0916D
S11340708104B09182040DB60D920EB60D9213BE5A
S11340800E94EE1681110E945618A0918104B091ED
S11340908204CD91CDBFDD91DEBFFF91EF91DF9121
S11340A0CF91BF91AF919F918F917F916F915F91CC
S11340B04F913F912F911F910F91FF90EF90DF90BF
S11340C0CF90BF90AF909F908F907F906F905F90B4
S11340D04F903F902F901F900F900FBE0F90089518
S11340E00E9413201895009709F474C01092A1043B
S11340F01092A0041092AE041092AD041092A90480
S11341001092AA041092AB041092AC041092A4046E
S1134110209180002093B304209181002093B20465
S113412010928100109280001092850010928400F9
S113413021E026BB10926F002091B0002093B104BF
S11341402091B1002093B0041092B10022E020939A
S1134150B0009C0127703327232B51F443E096953C
S113416087954A95E1F72CE72093B30027E018C020
S11341709C0123703327232B31F4969587959695CC
S1134180879529EF05C080FD07C0969587952CE794
S11341902093B30026E004C02CE72093B30025E06D
S11341A02093AF0422E027BB1092B2009093A304A3
S11341B08093A2049FB7F89423BD8091AF048093A9
S11341C0B100209370008BE08150F1F787E0809379
S11341D081009FBF08958091A40408952FB7F89497
S11341E06091A5047091A6048091A7049091A804FD
S11341F01092A4042FBF0895E1EBF0E01082109216
S113420070008091B1048093B0008091B0048083E9
S1134210E1E8F0E010828091B30480938000809103
S1134220B204808308951F920F920FB60F92112447
S11342300F931F932F933F934F935F936F937F93AA
S11342408F939F93AF93BF93209184003091850007
S1134250B09B0BC081E086BB8091AD049091AE040D
S113426001969093AE048093AD048091A004909144
S1134270A10401964091A2045091A30484179507C8
S113428098F11092A1041092A0048091AD04909131
S1134290AE04A0E0B0E0DC0199278827820F931FC9
S11342A0A11DB11D4091A9045091AA046091AB04D1
S11342B07091AC048C019D01041B150B260B370B6C
S11342C00093A5041093A6042093A7043093A80494
S11342D08093A9049093AA04A093AB04B093AC0474
S11342E081E08093A40404C09093A1048093A0046B
S11342F0BF91AF919F918F917F916F915F914F91FA
S11343003F912F911F910F910F900FBE0F901F900F
S113431018950E94AE0A88F09F5798F0B92F9927F4
S1134320B751B0F0E1F0660F771F881F991F1AF09C
S1134330BA95C9F714C0B13091F00E94C80AB1E02F
S113434008950C94C80A672F782F8827B85F39F02E
S1134350B93FCCF3869577956795B395D9F73EF435
S113436090958095709561957F4F8F4F9F4F0895DD
S11343700E945A0A880B990B089597FB072E16F48E
S1134380009407D077FD09D00E94232207FC05D0B2
S11343903EF4909581959F4F0895709561957F4F58
S11343A00895A1E21A2EAA1BBB1BFD010DC0AA1F72
S11343B0BB1FEE1FFF1FA217B307E407F50720F08A
S11343C0A21BB30BE40BF50B661F771F881F991F05
S11343D01A9469F760957095809590959B01AC014E
S11343E0BD01CF010895052E97FB1EF400940E9491
S11343F00A2257FD07D00E94D12107FC03D04EF4B6
S11344000C940A2250954095309521953F4F4F4F7B
S11344105F4F089590958095709561957F4F8F4F6C
S11344209F4F0895EE0FFF1F0590F491E02D09941E
S11344300E943722A59F900DB49F900DA49F800DDC
S1134440911D11240895AA1BBB1B51E107C0AA1F8B
S1134450BB1FA617B70710F0A61BB70B881F991F21
S11344605A95A9F780959095BC01CD010895A29F16
S1134470B001B39FC001A39F700D811D1124911D34
S1134480B29F700D811D1124911D08950F931F93E8
S1134490CF93DF938230910510F482E090E0E091B5
S11344A0B604F091B70420E030E0A0E0B0E030972B
S11344B019F1408151810281138148175907C8F0CD
S11344C08417950769F4109731F012960C9312979C
S11344D013961C9327C00093B6041093B70422C00C
S11344E02115310519F04217530718F49A01BD013B
S11344F0EF01DF01F801DBCF21153105F9F0281BAD
S1134500390B2430310580F48A819B816115710552
S113451021F0FB019383828304C09093B7048093BA
S1134520B604FE01329644C0FE01E20FF31F8193EC
S1134530919322503109398328833AC02091B404DD
S11345403091B504232B41F42091020130910301F1
S11345503093B5042093B4042091000130910101FB
S11345602115310541F42DB73EB740910401509116
S11345700501241B350BE091B404F091B504E21756
S1134580F307A0F42E1B3F0B2817390778F0AC0172
S11345904E5F5F4F2417350748F04E0F5F1F50934F
S11345A0B5044093B4048193919302C0E0E0F0E039
S11345B0CF01DF91CF911F910F910895CF93DF9396
S11345C0009709F481C0FC01329713821282A091F2
S11345D0B604B091B704109781F420813181820F21
S11345E0931F2091B4043091B5042817390751F56D
S11345F0F093B504E093B40467C0ED0120E030E02B
S1134600CE17DF0740F44A815B819E0141155105B5
S1134610F1F0EA01F5CFD383C28340815181840F45
S1134620951FC817D90759F488819981840F951F5C
S11346300296918380838A819B819383828321154F
S1134640310529F4F093B704E093B6043DC0E901C1
S1134650FB83EA8349915991C40FD51FEC17FD07D9
S113466061F480819181840F951F0296E9019983F9
S11346708883828193819B838A83E0E0F0E01296B1
S11346808D919C911397009719F0FD01DC01F7CFF0
S11346908D919C9111979D012E5F3F4F820F931F27
S11346A02091B4043091B5042817390769F4309780
S11346B029F41092B7041092B60402C01382128235
S11346C0B093B504A093B404DF91CF910895FB0196
S11346D0DC0102C001900D9241505040D8F708957A
S11346E0DC0101C06D9341505040E0F70895F99901
S11346F0FECF92BD81BDF89A992780B50895262FE3
S1134700F999FECF1FBA92BD81BD20BD0FB6F894B2
S1134710FA9AF99A0FBE0196089510E0C8E8D0E01D
S113472004C0FE010E9412222196C938D107C9F79C
S1074730F894FFCF27
S11347340000B80420000000C84100000000FF008D
S11347440000FF000000FF0000000000F40EF40E5F
S1134754015F6E65757472616C566F6C7461676524
S11347643A005F61636964566F6C746167653A000B
S1134774454E544552504800455849545048004306
S1134784414C504800416D6D6F6E6961004E69740F
S113479472697465004E69747261746500704800CE
S11347A454656D7065726174757265004E6F206D29
S11347B46F7265206164647265737365732E00524D
S11347C44F4D203D00435243206973206E6F742083
S11347D476616C69642100202043686970203D205F
S11347E44453313853323000202043686970203DEB
S11347F42044533138423230002020436869702009
S11348043D2044533138323200446576696365206F
S11348146973206E6F7420612044533138783230C8
S11348242066616D696C79206465766963652E0020
S1134834202044617461203D2000204352433D0004
S1134844202054656D7065726174757265203D2015
S1134854002043656C736975732C200020466168DD
S113486472656E686569740000000000AE0B200D6B
S11348746F0BFB0B410B5B0B4D0B0D0A006E616E52
S113488400696E66006F76660049444C4500546DB9
S10D48947220537663000001020055
S9030000FC
