S01E00006C696C5F666973685F74616E6B735F61726475696E6F2E73726563EB
S11300000C948C000C9443200C946A200C94531987
S11300100C9453190C9453190C94BF0B0C94322365
S11300200C94B4000C94B4000C94B4000C94B4007C
S11300300C94B4000C94B4000C94B4000C94B4006C
S11300400C9491200C94B4000C94591E0C948B1EA7
S11300500C94B4000C94B4000C94B4000C94B4004C
S11300600C94B4000C94B4005D165D165D169C16D9
S1130070871696165D165D169C1687160A466F75CA
S11300806E64204D61746368696E6720436F6C6FA2
S11300907200005EBCE2613FDD83C29C7E20A3FD52
S11300A01F41009D23BE46DB65F88C11AF32CA5751
S11300B0E9740000000800020100000304070000C6
S11300C0000000000000010204081020408001022A
S11300D00408102001020408102004040404040489
S11300E004040202020202020303030303030000E6
S11300F0000023002600290000000000250028003D
S11301002B0000000000240027002A003904D10439
S11301109B06BB1E4004A20611241FBECFEFD8E0ED
S1130120DEBFCDBF12E0A0E0B1E0E0EEFAE402C031
S113013005900D92A439B107D9F725E0A4E9B2E0FE
S113014001C01D92A735B207E1F710E0CAE8D0E07C
S113015004C02197FE010E94FE23C638D107C9F7C7
S11301600E94E81E0C9463250C9400000F931F93C7
S1130170CF93DF93CDB7DEB72A970FB6F894DEBFDF
S11301800FBECDBF84E992E00E94621786E0E2E4EC
S1130190F1E0DE01159601900D928A95E1F719823E
S11301A01A821B821C828AE0FE013196A0E6B3E02B
S11301B001900D928A95E1F786E0E8E4F1E0DE0132
S11301C0159601900D928A95E1F78AE0FE01319629
S11301D0AAE1B3E001900D928A95E1F786E0EEE49E
S11301E0F1E0DE01159601900D928A95E1F78AE01F
S11301F0FE013196A4EDB2E001900D928A95E1F7EB
S113020086E0E4E5F1E0DE01159601900D928A9511
S1130210E1F740E050E060E07FE349835A836B8379
S11302207C838AE0FE013196AAE6B3E001900D9248
S11302308A95E1F786E0EEE4F1E0DE01159601909F
S11302400D928A95E1F78AE999E9A9E1BEE38983E8
S11302509A83AB83BC838AE0FE013196A4E2B3E0C7
S113026001900D928A95E1F786E0EAE5F1E0DE017E
S1130270159601900D928A95E1F749835A836B8311
S11302807C838AE0FE013196AEEDB2E001900D92DE
S11302908A95E1F786E0E0E6F1E0DE01159601904B
S11302A00D928A95E1F740E050E060E87FE34983EE
S11302B05A836B837C838AE0FE013196A4E7B3E022
S11302C001900D928A95E1F786E0E6E6F1E0DE0121
S11302D0159601900D928A95E1F78AE999E9A9E9C1
S11302E0BEE389839A83AB83BC838AE0FE013196A3
S11302F0AEE2B3E001900D928A95E1F786E0ECE678
S1130300F1E0DE01159601900D928A95E1F780E007
S113031090E0A0E0B0E489839A83AB83BC838AE055
S1130320FE013196A8EEB2E001900D928A95E1F7B4
S113033086E0E2E7F1E0DE01159601900D928A95E0
S1130340E1F700E010E020E430E409831A832B8312
S11303503C838AE0FE013196AEE7B3E001900D9252
S11303608A95E1F786E0E8E7F1E0DE011596019071
S11303700D928A95E1F749835A836B837C838AE0E3
S1130380FE013196A8E3B3E001900D928A95E1F75E
S113039086E0EEE7F1E0DE01159601900D928A9574
S11303A0E1F780E090E0A0EAB0E489839A83AB832C
S11303B0BC838AE0FE013196A2EFB2E001900D9277
S11303C08A95E1F786E0E4E8F1E0DE011596019014
S11303D00D928A95E1F780E090E0A0ECB0E4898387
S11303E09A83AB83BC838AE0FE013196A8E8B3E02C
S11303F001900D928A95E1F786E0EAE8F1E0DE01EA
S1130400159601900D928A95E1F780E090E0A0ECBA
S1130410BFE389839A83AB83BC838AE0FE01319670
S1130420A2E4B3E001900D928A95E1F786E0EAE850
S1130430F1E0DE01159601900D928A95E1F740E016
S113044050E060E271E449835A836B837C838AE0E1
S1130450FE013196ACEFB2E001900D928A95E1F77E
S113046086E0E0E9F1E0DE01159601900D928A95AF
S1130470E1F709831A832B833C838AE0FE013196DA
S1130480ACE4B3E001900D928A95E1F786E0E6E9E9
S1130490F1E0DE01159601900D928A95E1F780E076
S11304A090E0A0EAB1E489839A83AB83BC838AE0B9
S11304B0FE013196A6E0B3E001900D928A95E1F732
S11304C086E0ECE9F1E0DE01159601900D928A9543
S11304D0E1F749835A836B837C838AE0FE0131967A
S11304E0A6E5B3E001900D928A95E1F786E0E2EA91
S11304F0F1E0DE01159601900D928A95E1F780E016
S113050090E0A8E4B2E489839A83AB83BC838AE055
S1130510FE013196A0E1B3E001900D928A95E1F7D6
S11305202A960FB6F894DEBF0FBECDBFDF91CF91F0
S11305301F910F91089568EA71E089E994E00E949F
S1130540451F6091CB027091CC024AE050E089E9EA
S113055094E00E941B206FE272E089E994E00E941B
S1130560451F6091CD027091CE024AE050E089E9C6
S113057094E00E941B206FE272E089E994E00E94FB
S1130580451F6091CF027091D0024AE050E089E9A2
S113059094E00E941B206CEA71E089E994E00E94D7
S11305A0451F4AE050E06091C50289E994E00E9449
S11305B0BA1F6FE272E089E994E00E94451F4AE0A5
S11305C050E06091C60289E994E00E94BA1F6FE28C
S11305D072E089E994E00E94451F4AE050E060918E
S11305E0C40289E994E00E94BA1F2091C50230E058
S11305F08091CB029091CC02AC0145505109241753
S1130600350774F105968217930754F12091C602B9
S113061030E08091CD029091CE02AC014550510959
S113062024173507ECF0059682179307CCF0209138
S1130630C40230E08091CF029091D002AC014550C9
S113064051092417350764F005968217930744F07F
S11306506CE770E089E994E00E94211F81E008952D
S113066080E008950F931F93CF93DF938091C3028B
S1130670813009F444C040F0823009F068C00AE1D6
S113068013E0C0E0D0E026C000E613E0C0E0D0E014
S11306908AE0F801A7ECB2E001900D928A95E1F7A7
S11306A00E949B02882349F08AE08C9FF0018D9F71
S11306B0F00D1124E05AFC4F3AC02196065F1F4FFB
S11306C0C530D10529F73EC02196065F1F4FC730BC
S11306D0D105C1F18AE0F801A7ECB2E001900D92D6
S11306E08A95E1F70E949B02882371F38AE08C9F2C
S11306F0F0018D9FF00D1124E65EFC4F18C004ED4F
S113070012E0C0E0D0E08AE0F801A7ECB2E001908A
S11307100D928A95E1F70E949B02882369F08AE092
S11307208C9FF0018D9FF00D1124EC52FD4F308110
S11307302181928183810AC02196065F1F4FC730B1
S1130740D10509F730E020E090E88FEBAC01632F8E
S1130750722F852F942FDF91CF911F910F910895C0
S11307608093C30284E992E00E94571884E992E0DE
S11307700E9461188823D1F361ED72E084E992E06C
S11307800E948D178091D2028093C6028091D1027B
S11307908093C5028091D3028093C40266EB71E01A
S11307A089E994E00E94521F4AE050E06091C5023A
S11307B089E994E00E94C11F4AE050E06091C602BA
S11307C089E994E00E94C11F4AE050E06091C402AC
S11307D089E994E00E94C11F0E9432030E94C31B56
S11307E00895CF938093C30284E992E00E9457183E
S11307F084E992E00E9461188823D1F361ED72E0EC
S113080084E992E00E948D178091D2028093C602FF
S11308108091D1028093C5028091D3028093C40257
S11308208AE0E0E1F1E0A7ECB2E001900D928A9554
S1130830E1F70E949B029AE0E6E0F1E0A7ECB2E067
S113084001900D929A95E1F7811105C00E949B02D7
S1130850C82F882359F00E943203C1E020E030E021
S113086040E85FEB0E944C1B8111C0E08C2FCF91BC
S1130870089528E04DE06CE084E992E00C94F016D1
S113088084E992E00C940417EF92FF920F931F9364
S1130890CF93DF93CDB7DEB764970FB6F894DEBF7E
S11308A00FBECDBF82E993E00E948D086AEF70E02D
S11308B080E090E00E94002141E0BE01635F7F4F31
S11308C082E993E00E94BC0867E0CE010D960E9485
S11308D043099C89891354C082E993E00E948107EB
S11308E0BE01635F7F4F82E993E00E946E0841E09E
S11308F064E482E993E00E941E0868EE73E080E0FD
S113090090E00E94002182E993E00E948107BE01E9
S1130910635F7F4F82E993E00E946E0840E06EEBD4
S113092082E993E00E941E088E010F5F1F4F7E0133
S11309308AE0E80EF11C82E993E00E945208F80173
S113094081938F01EE15FF05B1F769817A818D815D
S1130950807611F4687F07C0803211F46C7F03C085
S1130960803409F46E7F072E000C880B990B0E94CB
S1130970FB1B20E030E040E85DE30E94AB1C04C0B8
S113098060E070E080E89FEB64960FB6F894DEBFF9
S11309900FBECDBFDF91CF911F910F91FF90EF90CC
S11309A0089566E082E993E00C949908CF93DF936D
S11309B000D0CDB7DEB70E941C119A8389830E94B0
S11309C05B0920E030E048EC52E40E94AB1C0E943A
S11309D0C31B6093C8037093C9038093CA039093A5
S11309E0CB030E94440420E030E048EC52E40E942F
S11309F0AB1C0E94C31B9B017093C7036093C60387
S1130A0080911B0190911C01AC01425351092417A0
S1130A10350714F461E005C0C2968217930724F4E5
S1130A2060E084E00E94632268E371E0CE010196F5
S1130A300E944112C4CF6115710579F0FB01019048
S1130A400020E9F73197AF01461B570BDC01ED910C
S1130A50FC910280F381E02D099480E090E00895F8
S1130A60CF93DF9300D000D000D0CDB7DEB7498359
S1130A705A836B837C838D839E8369817A818FE023
S1130A800E949F216B817C8180E10E949F216D8166
S1130A907E8181E126960FB6F894DEBF0FBECDBFEE
S1130AA0DF91CF910C949F210E941C11C4E661E058
S1130AB070E08091C4039091C5030E94590E813067
S1130AC009F0A3C080911A018E3409F457C08E3600
S1130AD049F1813409F08BC080E00E94F103811157
S1130AE0FBCF40912F015091300160913101709101
S1130AF0320180913301909134010E9430056AEFF4
S1130B0070E080E090E00E94002180E00E94B00349
S1130B10C69F9001C79F300D11243093220120936A
S1130B20210125C082E00E94F1038111FBCF409195
S1130B302301509124016091250170912601809137
S1130B402701909128010E9430056AEF70E080E04F
S1130B5090E00E94002182E00E94B003C69F9001B1
S1130B60C79F300D112430931E0120931D016AEF9D
S1130B7070E080E090E00E94002139C081E00E9492
S1130B80F1038111FBCF4091290150912A01609119
S1130B902B0170912C0180912D0190912E010E94C6
S1130BA030056AEF70E080E090E00E94002181E06F
S1130BB00E94B003C69F9001C79F300D112430934B
S1130BC0200120931F016AEF70E080E090E00E9412
S1130BD000214091CC035091CD036091CE037091DC
S1130BE0CF038091D0039091D1030E9430054091AE
S1130BF0CC035091CD036091CE037091CF038091CB
S1130C00D0039091D1030E94300581E090E00E94CE
S1130C1079124DCF61E08FE00E94272261E080E1EC
S1130C200E94272261E081E10E9427224091CC03A7
S1130C305091CD036091CE037091CF038091D00386
S1130C409091D1030C943005EF92FF920F9340E002
S1130C5052EC61E070E081EA93E00E94511A61E095
S1130C608AE00E94272261E084E00E94272261E05A
S1130C7084E00E94632226E040E052EC61E070E0F0
S1130C8089E994E00E94F41D61E08AE00E946322F5
S1130C900E94B6000E940A0643E050E066EA76E04D
S1130CA080E00E9423208091C4039091C503892B86
S1130CB0F9F443E060E081E00E94B70C9093C5032F
S1130CC08093C403009739F020E040E050E060E0F6
S1130CD070E00E94DF0C8091C4039091C5030097DB
S1130CE039F020E040E050E060E070E00E94DF0C6A
S1130CF082ECE82E83E0F82E02E020E030E040E8C9
S1130D0050E06AEB71E084E595E00E94DC0F90EC22
S1130D10E92E93E0F92E20E030E040E850E066EC64
S1130D2071E086ED94E00E94DC0F0F91FF90EF904C
S1130D300C94E810089520E043E062E081EA93E037
S1130D400C94261A81EA93E00C94CD19CF9381EA8E
S1130D5093E00E94FC18892B99F064E670E080E02F
S1130D6090E00E940021C0E081EA93E00E94FC1818
S1130D70892B39F081EA93E00E947218C82FF4CFCE
S1130D80C0E067ED71E089E994E00E94521F6C2F86
S1130D9089E994E00E94471F1092A003CE3409F41D
S1130DA074C0E8F5C13409F45CC0C33409F094C0DC
S1130DB06CE072E081EA93E00E941B0560912101DE
S1130DC0709122014AE050E081EA93E00E941B20E6
S1130DD065E172E081EA93E00E941B0560911F01C6
S1130DE0709120014AE050E081EA93E00E941B20C8
S1130DF061E272E081EA93E00E941B0560911D01AB
S1130E0070911E014AE050E081EA93E00E941B20A9
S1130E106DE272E081EA93E00E941B055DC0C43577
S1130E20B9F1CE3609F1C03509F056C061E372E07C
S1130E3089E994E00E94521F6BE372E081EA93E037
S1130E400E941B054091C8035091C9036091CA03D5
S1130E507091CB032AE030E081EA93E00E94D31F33
S1130E603BC06FED71E002C06EEE71E089E994E081
S1130E700E94521FC0931A0160EA73E08091C40378
S1130E809091C5030E94A40D27C06DEF71E0EECFD1
S1130E904091290150912A0160912B0170912C01FC
S1130EA080912D0190912E010E9430056FE372E034
S1130EB089E994E00E94521F6BE472E081EA93E0B6
S1130EC00E941B056091C6037091C7034AE050E07D
S1130ED081EA93E00E941B2064EF71E080E090E0DF
S1130EE00E9400214091CC035091CD036091CE0328
S1130EF07091CF038091D0039091D103CF910C9442
S1130F003005FF920F931F93CF93DF93FC01F08082
S1130F10C181D281F89489810F2D00958023898322
S1130F2078941DE7115029F182E090E00E943C2161
S1130F3088818F21B9F3F8948A8180238A838981F7
S1130F408F298983789480EE91E00E943C21F89463
S1130F5089810823098386E490E00E943C218881EA
S1130F60F82211E009F010E078948AE991E00E94F7
S1130F703C21812FDF91CF911F910F91FF90089514
S1130F801F93CF93DF93FC011081C181D281812F04
S1130F90809560FF12C0F8949A8189238A8389819D
S1130FA0812B89838AE090E00E943C218A81182B5E
S1130FB01A83789487E390E011C0F8949A81892386
S1130FC08A838981812B898381E490E00E943C217A
S1130FD08A81182B1A83789485E090E0DF91CF9171
S1130FE01F910C943C210F931F93CF93DF93FC012B
S1130FF00081C181D281F8948981802B89838A817F
S1131000102F109581238A8383E090E00E943C2175
S11310108981182319838AE090E00E943C21C881C9
S1131020789485E390E00E943C21C02381E009F498
S113103080E0DF91CF911F910F910895DF92EF929D
S1131040FF920F931F93CF93DF93EC01D62EE42EE0
S113105008E010E0FF24F39461E08D2D8F2109F462
S113106060E0CE010E94C007FF0C01501109A1F7F6
S1131070E11010C0F894E981FA819181888180950A
S113108089238183E981FA819281888180958923EA
S113109082837894DF91CF911F910F91FF90EF900D
S11310A0DF900895EF92FF920F931F93CF93DF93F6
S11310B07C0108E010E0C0E0D1E0C7010E94F30722
S11310C08111CD2BDD0F01501109B9F78C2FDF9160
S11310D0CF911F910F91FF90EF900895EF92FF929F
S11310E00F931F93CF93DF938C017B0140E065E561
S11310F00E941E08E70188E0E80EF11C699140E0B7
S1131100C8010E941E08CE15DF05C1F7DF91CF91FB
S11311101F910F91FF90EF900895FC01138615869F
S11311201486DC011B9633961E92AE17BF07E1F7B7
S113113008951F93CF93DF93EC01162F60E0812F66
S11311400E942722612F70E0FB01EA53FF4FE491D4
S1131150E883FB01E652FF4FE491F0E0EE0FFF1F3E
S1131160E251FF4F859194919A838983CE01DF9157
S1131170CF911F910C948D08BF92CF92DF92EF9282
S1131180FF920F931F93CF93DF93EC016B01142F06
S11311908D85811105C0CE010E948107811105C092
S11311A01B861D861C8680E064C040E0112311F07C
S11311B060EF01C06CEECE010E941E0801E0E12C3C
S11311C0B12C11E0CE010E94F307F82ECE010E944B
S11311D0F30791E0F91203C08130B1F434C02E2D2D
S11311E030E0F8121BC08B85181738F4FE01E20FAB
S11311F0F31F8381802341F402C0181729F0F12CD6
S1131200193058F41C8709C0FE01EE0DF11D8381CD
S1131210802B8383FF24F39409C0B12EFE01E20FD7
S1131220F31F9381802F8095892383836F2DCE01B3
S11312300E94C0071F5F000F11F4E39401E087E0F0
S11312408E1508F0BFCF113408F4AACFBB86B110B5
S113125002C081E08D878B81882309F4A1CFDE0150
S11312601396F6012B968D918193CA17DB07D9F754
S113127081E0DF91CF911F910F91FF90EF90DF906C
S1131280CF90BF900895DC0180E0615098F02D91DB
S1131290982F9227E92FEF70F0E0EE56FF4F24913C
S11312A092959F70E92FF0E0EE55FF4FE491822F65
S11312B08E27EBCF08958F929F92AF92BF92CF92D9
S11312C0DF92EF92FF92CF93DF938EE00E94822110
S11312D0EC018090390190903A01A0903B01B090CC
S11312E03C012091350130913601409137015091F4
S11312F03801C501B4010E94DF1A9B01AC0160E012
S113130070E080E490E40E94511B6B017C019B011E
S1131310AC01C501B4010E94AB1C9B01AC0160E0AF
S113132070E080EE90E40E94DF1A4B015C01BE0184
S1131330DD0F880B990B0E94FB1BA70196010E94ED
S1131340AB1C9B01AC01C501B4010E94E01ADF9102
S1131350CF91FF90EF90DF90CF90BF90AF909F9090
S11313608F900895CF93DF93EC010E941611CE0164
S11313700E943224EC010E94D211209711F40E94A1
S1131380AF16CE01DF91CF910895CF93DF930097ED
S113139051F0EC010E941611CE010E94CA24DF9183
S11313A0CF910C94D211DF91CF910895FC01039653
S11313B0928381832FEF3FEF348323839683858346
S11313C09087878310820895FC0111861086089502
S11313D0CF93DF939C01FB01DC011196CD91DC914D
S11313E01297D383C2838C819D81958384838C815E
S11313F09D81DC0113967C936E9312977D836C839D
S113140031872087F90180818F5F8083DF91CF91BD
S113141008950F931F93CF93DF938C01FB01808179
S113142091818F3F2FEF920721F4E801AF81B885B6
S11314300EC0D801139612962D913C911397E90191
S1131440488159818417950710F0D901F4CF129679
S11314508D919C91139793838283EC01FD83EC839C
S1131460B583A4831396FC93EE9312971187008798
S1131470F80180818F5F8083DF91CF911F910F915D
S11314800895CF93DF93FC01A085B1858281938178
S113149024813581EC013D832C83C481D5819B83D8
S11314A08A8311968D919C911297E817F90721F47C
S11314B01296DC93CE931197118610868C918150ED
S11314C08C938C91DF91CF91089531E1FC013083AD
S11314D0319722E220833197A3E3A083319760837D
S11314E03197708331971082319760E86083319728
S11314F01082319762E06083319763E060833197B3
S113150064E06083319765E06083319766E06083CF
S1131510319767E06083319768E06083319769E0D1
S11315206083319760E1608331973083319732E192
S11315303083319733E13083319734E1308331970D
S113154035E13083319736E13083319737E13083A9
S1131550319738E13083319739E13083319730E284
S11315603083319731E2308331972083319723E2FE
S113157020833197408331975083319726E220832B
S1131580319727E22083319728E22083319729E29B
S11315902083319720E32083319721E320838697AA
S11315A00895A89590EC88E10FB6F894A8958093D7
S11315B060000FBE90936000A0913604B091370490
S11315C0CD91CDBFDD91DEBFFF91EF91DF91CF9142
S11315D0BF91AF919F918F917F916F915F914F9147
S11315E03F912F911F910F91FF90EF90DF90CF903B
S11315F0BF90AF909F908F907F906F905F904F902F
S11316003F902F901F900F900FBE0F90089581E090
S113161008950F920FB6F8940F921F9211242F92EF
S11316203F924F925F926F927F928F929F92AF926E
S1131630BF92CF92DF92EF92FF920F931F932F935B
S11316403F934F935F936F937F938F939F93AF9346
S1131650BF93CF93DF93EF93FF93A0913604B091A0
S113166037040DB60D920EB60D920E948E12A09103
S11316703604B0913704CD91CDBFDD91DEBFFF912B
S1131680EF91DF91CF91BF91AF919F918F917F9116
S11316906F915F914F913F912F911F910F91FF9007
S11316A0EF90DF90CF90BF90AF909F908F907F90FE
S11316B06F905F904F903F902F901F900F900FBEB0
S11316C00F9008950F920FB6F8940F921F92112461
S11316D02F923F924F925F926F927F928F929F923E
S11316E0AF92BF92CF92DF92EF92FF920F931F932C
S11316F02F933F934F935F936F937F938F939F9316
S1131700AF93BF93CF93DF93EF93FF93A0913604EE
S1131710B09137040DB60D920EB60D9213BE0E9411
S1131720261181110E948E12A0913604B0913704C3
S1131730CD91CDBFDD91DEBFFF91EF91DF91CF91D0
S1131740BF91AF919F918F917F916F915F914F91D5
S11317503F912F911F910F91FF90EF90DF90CF90C9
S1131760BF90AF909F908F907F906F905F904F90BD
S11317703F902F901F900F900FBE0F9008950E94DE
S1131780620B18950FB6F8940F92FC01928D0F908E
S11317900FBE81E0911180E008950F931F93CF93C2
S11317A0DF93EC01042F1A8D4C8D41110BC08881FD
S11317B09981892BE9F58C819D810E9408141D82F1
S11317C01C8237C050E0011115C08A819B810E94A0
S11317D053252C8D8A819B81820F911D9B838A8343
S11317E02C813D818217930718F1888199819B830D
S11317F08A831EC08E819F810E9453258C8D90E028
S11318009195819591092E813F81280F391F3F833E
S11318102E83488159812417350730F42C813D816A
S1131820820F931F9F838E83023011F41111115084
S113183080E01F5F1A8FDF91CF911F910F91089560
S1131840FC01CB01448D4423A1F050E02681378173
S1131850240F351F37832683648175812617370744
S113186020F02081318137832683668177810C942F
S113187053250895EF92FF921F93CF93DF93EC01CA
S11318800FB6F8940F921E8D7C0181E1E80EF11CD5
S113189011165CF48989882341F0C7010E9415134D
S11318A081110E9493131150F3CF8FEF8E8F0F90FD
S11318B00FBE0FB6F8940F921D8D7E0188E0E80EDE
S11318C0F11C11165CF48885882341F0C7010E943D
S11318D0151381110E9493131150F3CF8FEF8D8F45
S11318E00F900FBEDF91CF911F91FF90EF9008955D
S11318F0CF93DF93EC010FB6F8940F92488159818E
S11319008B8D7C8D9A01879F200D311D11243D8381
S11319102C831A8E5B834A8390E00197789F900111
S1131920799F300D1124CA01820F931F9F838E83E8
S11319308FEF8D8F8E8F61110CC08885882389F07D
S1131940CE0108960E941513882359F00E94090BB2
S113195008C0CE0108960E94D609CE0141960E9485
S1131960D6090F900FBE81E0DF91CF9108950F93B8
S11319701F93CF93DF93082F162F662321F0869FA2
S1131980C001112402C080E090E04F960E94B20989
S1131990EC01009771F0111103C09983888303C08F
S11319A04F96998388830B8F1C8F61E0CE010E9430
S11319B0780CCE01DF91CF911F910F910895AF92D2
S11319C0BF92CF92DF92FF920F931F93CF93DF9337
S11319D000D000D01F92CDB7DEB78C016B015D83C0
S11319E04C83F22E80E0580198E0A90EB11C0FB68A
S11319F0F8940F92F801228D938D291718F0F2E0D4
S1131A00FF1214C04F2DB601C8010E94CD0BF8017E
S1131A109189992321F0C80141960E9415138111DF
S1131A200E94090B0F900FBE81E050C02C813D81B4
S1131A30232B19F40F900FBE48C0811104C0CE01AE
S1131A4001960E9455130F900FBE0E9416110FB6F7
S1131A50F8940F92F801858D8F3F09F4158EF801E3
S1131A60868D8F3F09F4168E0F900FBEBE016C5FFA
S1131A707F4FCE0101960E946013811121C00FB6E1
S1131A80F8940F92F801928D838D0F900FBE9813E6
S1131A9011C06C817D81C5010E94EC12C8010E94B5
S1131AA03A0C0E94D211882311F081E0A0CF0E9449
S1131AB0090BFBCFC8010E943A0C0E94D211F5CF4A
S1131AC0C8010E943A0C0E94D21180E00F900F903E
S1131AD00F900F900F90DF91CF911F910F91FF9076
S1131AE0DF90CF90BF90AF900895EF92FF921F9335
S1131AF0CF93DF93EC019A8D8B8D981710F02230E1
S1131B00E1F47A011E8D422FCE010E94CD0B1F3FBE
S1131B1081F48989882379F0CE0141960E941513B6
S1131B20882349F0E114F10431F081E0F701808366
S1131B3005C01F5F1E8F81E001C080E0DF91CF915F
S1131B401F91FF90EF900895CF93DF93FC01928D46
S1131B50838D9817C0F4868D9F5F928F8F3F79F4A1
S1131B608189882371F0EB01CF0141960E941513FE
S1131B70882339F0209729F081E0888305C08F5F9E
S1131B80868F81E001C080E0DF91CF910895AF920C
S1131B90BF92CF92DF92FF920F931F93CF93DF9365
S1131BA000D000D01F92CDB7DEB78C016B015D83EE
S1131BB04C8380E0580191E1A90EB11C0FB6F89452
S1131BC00F92F801F28CFF20A9F0B601C8010E941F
S1131BD0200CFA94F801F28E8085882339F0C8012C
S1131BE008960E94151381110E94090B0F900FBED5
S1131BF081E050C02C813D81232B19F40F900FBE3E
S1131C0048C0811104C0CE0101960E9455130F9063
S1131C100FBE0E9416110FB6F8940F92F801858D2D
S1131C208F3F09F4158EF801868D8F3F09F4168EC7
S1131C300F900FBEBE016C5F7F4FCE0101960E94D4
S1131C40601381111CC0C8010E94C20B882389F053
S1131C506C817D81C5010E94EC12C8010E943A0C7E
S1131C600E94D211882311F081E0A8CF0E94090BB1
S1131C70FBCFC8010E943A0C0E94D211F5CFC801D3
S1131C800E943A0C0E94D211C8010E94C20B882300
S1131C9059F380E00F900F900F900F900F90DF9109
S1131CA0CF911F910F91FF90DF90CF90BF90AF9095
S1131CB00895CF92DF92FF920F931F93CF93DF93F8
S1131CC000D000D01F92CDB7DEB78C017D836C832A
S1131CD0F12C90E0680181E1C80ED11C0FB6F89494
S1131CE00F92D8015A968C915A978823E9F0815023
S1131CF05A968C935A978D919C91892B29F40E9422
S1131D008914F80195838483D80118968C918823CB
S1131D1039F0C80108960E94151381110E94090B1D
S1131D200F900FBE81E07AC02C813D81232B09F4F2
S1131D3072C0911104C0CE0101960E9455130F90F8
S1131D400FBE0E9416110FB6F8940F92F801858DFC
S1131D508F3F09F4158ED8015E968C915E978F3F64
S1131D6011F45E961C920F900FBEBE016C5F7F4F04
S1131D70CE0101960E94601381112BC0C8010E94FC
S1131D80C20B882301F1F80180819181892B51F4E0
S1131D900FB6F8940F92848195810E94A513F82EB2
S1131DA00F900FBE6C817D81C6010E94EC12C801A8
S1131DB00E943A0C0E94D211882311F091E08ECF38
S1131DC00E94090BFBCFC8010E943A0C0E94D21159
S1131DD0F5CFC8010E943A0C0E94D211C8010E949A
S1131DE0C20B882359F3FF20C1F00FB6F8940F9269
S1131DF0F8018189882339F00688F789E02D8081EC
S1131E0064E0681B01C060E0D80114968D919C9138
S1131E1015970E9442140F900FBE80E00F900F9010
S1131E200F900F900F90DF91CF911F910F91FF9022
S1131E30DF90CF900895CF93DF93EC010FB6F89421
S1131E400F928D8D8F3F09F41D8E8E8D8F3F09F477
S1131E501E8E0F900FBE8A8D811104C0CE01419653
S1131E600E94FD12CE01DF91CF910C943A0CE091C7
S1131E70FE03F091FF038081811103C08FEF9FEF78
S1131E800CC0E091FE03F091FF030580F681E02D84
S1131E900680F781E02D828193819093D60380930D
S1131EA0D5030895FF920F931F93CF93DF93EC0113
S1131EB0F62E0091DD031091DE038091360490919B
S1131EC0370402960E94410ACF3F8FEFD80789F466
S1131ED0FF2079F060913604709137046E5F7F4F74
S1131EE080EE93E0DF91CF911F910F91FF900C94BE
S1131EF0E809C00FD11FE0913604F0913704D38371
S1131F00C2836091360470913704C017D10768F416
S1131F108091FC039091FD036E5F7F4FDF91CF9121
S1131F201F910F91FF900C94090A8091FE039091E8
S1131F30FF036E5F7F4F0E94090A8091D503909141
S1131F40D603C817D90720F4D093D603C093D5037A
S1131F50DF91CF911F910F91FF9008958091E90334
S1131F60882309F10FB6F8940F92E091EF03F091F2
S1131F70F003C681D781CE0102960E94410A809166
S1131F80DF0381508093DF038091E90381508093C4
S1131F90E9030F900FBE8F89988D0E94C509CE0169
S1131FA00E94C509DBCF80911204823010F00E9498
S1131FB0090B0E94A616D2CF5F926F927F928F92E6
S1131FC09F92AF92BF92CF92DF92EF92FF920F93C4
S1131FD01F93CF93DF933C016B015A014901502EAB
S1131FE0CA010E94B2098C01892B09F4E0C088E27D
S1131FF090E00E94B209EC01892BC9F0188F0F8B75
S1132000A50165EA70E0C8010E945C2521E0A21ADE
S1132010B1088F89988DA80EB91EC114D104C9F0D6
S1132020BE01675E7F4FF601C601089607C0C8016E
S11320300E94C509BCC0E817F90749F09F01419106
S1132040DB014D93BD01D9012C912111F4CF18A2CC
S113205001C0198E052D043008F003E00E8B09A38E
S11320601AA26E01B2E0CB0ED11CC6010E94E40993
S1132070CE010C960E94E409D987C88784E090E0D9
S1132080801B91099D878C87DB8BCA8B1BA21CA2AA
S11320901DA21EA21FA2A401B301C5010E94650ACC
S11320A099838883E114F10419F0F701D183C08383
S11320B00FB6F8940F928091DF038F5F8093DF0354
S11320C08091360490913704892BD1F5D09337044D
S11320D0C09336048091DF03813009F041C082E16E
S11320E094E00E94D6098BE194E00E94D60984E230
S11320F094E00E94D6098DE294E00E94D60989E01A
S113210094E00E94D60980E094E00E94D60983EF0F
S113211093E00E94D6098AEE93E00E94D60980EEED
S113212093E00E94D60989E094E09093FF038093A2
S1132130FE0380E094E09093FD038093FC0310C0C1
S11321408091DB0381110CC0E0913604F0913704D7
S113215096898E89891720F0D0933704C09336046A
S11321608091D7038F5F8093D7038E899091DC038E
S1132170981710F48093DC03F9E08F9FC0011124B9
S1132180B6018E5E9B4F0E94E8090F900FBE8091AE
S1132190DB03882351F0E0913604F09137049689EB
S11321A08E89981710F40E94090B81E001C08FEF0B
S11321B0DF91CF911F910F91FF90EF90DF90CF901F
S11321C0BF90AF909F908F907F906F905F90089595
S11321D0EF92FF920F9383EDE82E83E0F82E00E058
S11321E020E030E040EC50E061E572E08EEA9FE0F0
S11321F00E94DC0F8130B1F40E94EE14813091F41E
S1132200F8942FEF3FEF3093D6032093D5038093B8
S1132210DB031092DE031092DD030F91FF90EF9029
S11322200C94D10A0F91FF90EF9008958091D203FE
S11322308F5F8093D20308950FB6F8940F92809124
S1132240DD039091DE030F900FBE0895CF92DF92CD
S1132250EF92FF920F931F93CF93DF938091D2035A
S113226081118CC00091DD031091DE030F5F1F4FBD
S11322701093DE030093DD0301151105B9F4809179
S1132280FE039091FF032091FC033091FD033093F2
S1132290FF032093FE039093FD038093FC0380913E
S11322A0D8038F5F8093D8030E94370F8091D503A2
S11322B09091D603C0E00817190708F44FC0D9E07D
S11322C0E091FE03F091FF038081811103C08FEF41
S11322D09FEF11C0E091FE03F091FF030580F681AA
S11322E0E02DE680F780D70112968D919C9113978B
S11322F00817190728F49093D6038093D5032EC0AA
S11323006701B2E0CB0ED11CC6010E94410AF7015D
S113231084899589892B21F0C7010C960E94410A72
S1132320D70156968C919091DC03981710F4809302
S1132330DC03D89FC0011124B6018E5E9B4F0E941E
S1132340E809E0913604F0913704D70156969C9140
S11323508689981708F4B4CFC1E0B2CFE09136046F
S1132360F0913704E689B9E0EB9FF0011124EE5EA9
S1132370FB4F8081823040F0C1E006C08091DA03D7
S11323808F5F8093DA03C0E08091D9038111C1E0AB
S11323908C2FDF91CF911F910F91FF90EF90DF90E1
S11323A0CF900895EF92FF920F931F93CF93DF93F3
S11323B00FB6F8940F928091D20381508093D20388
S11323C08091D203882311F080E052C08091DF0312
S11323D08823D1F3C0E0D0E089E0F82EEE24E39422
S11323E08091F303882351F1E091F803F091F9030C
S11323F0C681D781CE010C960E94410A8E010E5FE0
S11324001F4FC8010E94410A8E899091DC039817DE
S113241010F48093DC03F89EC0011124B8018E5E91
S11324209B4F0E94E809E0913604F09137049E899D
S113243086899817A8F2E092D903D2CFCD2B11F058
S11324400E94370FC091DA03CC2351F0D1E00E94EF
S113245026118111D093D903C150C9F71092DA0320
S11324608091D903882309F4AFCF0E94090B81E03E
S11324700F900FBEDF91CF911F910F91FF90EF90BE
S113248008950F931F93CF93DF938C01EB010E9468
S113249016114091DD035091DE03F8012081318152
S11324A0C9018C0F9D1F4217530720F4821793070D
S11324B040F403C08217930730F021E0481759070E
S11324C018F020E001C021E0F801918380832223E9
S11324D029F060E0841B950B0E94520F0E94D211D8
S11324E0811102C00E94090BDF91CF911F910F91BE
S11324F00895CF93DF93EC01892B19F40E94090B03
S11325000AC00E94161160E0CE010E94520F0E9480
S1132510D211882399F3DF91CF9108958091D2034A
S1132520882321F081E08093D90308951092D90380
S1132530A0913604B0913704E0913604F091370449
S11325402D913C918789908D8217930760F060915B
S11325503604709137048091360490913704675E95
S11325607F4F0E94BC168091DC0369E0482F50E045
S1132570649F9001659F300D1124F901EE5EFB4FBD
S11325809081911102C08150F1CFA181B281129644
S11325900D90BC91A02DB283A1832B5E3B4FA2175B
S11325A0B30731F412962D913C9113973283218312
S11325B099E0949FF001959FF00D1124EE5EFB4F7E
S11325C00180F281E02D26813781309337042093F6
S11325D036048093DC030895CF93DF93EB0160917D
S11325E0360470913704645F7F4F0E94090A61E0EA
S11325F0CE01DF91CF910C94520F1F93CF93DF93B1
S1132600EB01142F6091360470913704645F7F4F9F
S11326100E94E809112311F0CFEFDFEF612FCE0103
S1132620DF91CF911F910C94520F0F931F93CF936F
S1132630DF93DC011596ED91FC911697C681D78145
S11326408E01045F1F4FC8010E94410A8091D2038A
S1132650811114C00A501109C8010E94410A8E89CF
S11326609091DC03981710F48093DC03B9E08B9FFE
S1132670C0011124B8018E5E9B4F03C0B80183EFE3
S113268093E00E94E809E0913604F09137049E89B2
S11326908689891720F481E08093D90301C080E002
S11326A0DF91CF911F910F9108952091D803FC01E0
S11326B020832091DD033091DE033283218308954A
S11326C0CF93DF930FB6F8940F924091DD035091AE
S11326D0DE03DB012D913C912F3FBFEF3B07D9F087
S11326E0EC01E981FA81A091D803B881BA1719F0F5
S11326F04E175F0790F44E1B5F0BFB014217530705
S113270038F4241B350B318320830E94551303C0F6
S11327101182108202C080E001C081E00F900FBEE0
S1132720DF91CF91089581E08093D903089580913A
S1132730DB03882331F08091D203882321F080E0E9
S1132740089581E0089582E008950F931F93CF9335
S1132750DF93FC01892B09F455C08689A0913604C6
S1132760B091370456969C91891708F041C024858E
S1132770358537FD0CC0A0913604B09137045696C8
S11327809C9124E030E0291B31093587248729E016
S1132790829FC00111248E5E9B4F228533852817AA
S11327A03907E9F48F01EF012296CE010E94410A14
S11327B0E0913604F09137048689F801868B909174
S11327C0DC03981710F48093DC03F9E08F9FC001B9
S11327D01124BE018E5E9B4F0E94E80907C0A091A0
S11327E03604B091370456968C91868B81E00BC0E9
S11327F0A0913604B091370481E021A156969C91B2
S1132800291708F080E0DF91CF911F910F9108956F
S11328100F931F93CF93DF93FC01892B11F480E076
S11328202CC082A1815082A3268991A12917B9F3D2
S11328308111F5CFEF018F010E5F1F4FC8010E9478
S1132840410A89A18E8B482F50E024E030E0241BFC
S1132850350B3D872C879091DC03981710F48093F7
S1132860DC0329E0249FC001259F900D1124B801A9
S11328708E5E9B4F0E94E80981E0DF91CF911F910A
S11328800F9108950F931F93CF93DF93FC01892B2E
S1132890D9F191A1961708F4962F86898917A1F189
S11328A022A1213089F5968B2485358537FD06C014
S11328B024E030E0291B31093587248729E0829FF1
S11328C0C00111248E5E9B4F22853385281739075A
S11328D0D9F4EF018F010E5F1F4FC8010E94410A16
S11328E08E899091DC03981710F48093DC0329E01F
S11328F0829FC0011124B8018E5E9B4FDF91CF915E
S11329001F910F910C94E809DF91CF911F910F91C2
S113291008958091360490913704892B39F0E09121
S11329203604F091370482A18F5F82A3809136042C
S11329309091370408950FB6F8940F9280913C0457
S113294090913D04892BE9F48BE494E00E94D6092C
S113295082E494E00E94D6098BE494E090934104CD
S11329608093400482E494E090933F0480933E0477
S113297040E065E08AE00E94B70C90933D048093A8
S11329803C040F900FBE0895FC017383628391870A
S113299080874617570778F0421B530B848595852B
S11329A048175907C8F4BF016E5F7F4F80913E04FA
S11329B090913F040DC04217530718F46217730730
S11329C058F4BF016E5F7F4F8091400490914104A1
S11329D00E94090A80E0089581E00895EF92FF9231
S11329E00F930E949B1480913C0490913D04892B89
S11329F081F08AE3E82E84E0F82E03E020E030E062
S1132A0045E550E066E572E08EE995E10E94DC0F51
S1132A1001C080E00F91FF90EF9008950F931F93F2
S1132A20CF93DF9300D000D01F92CDB7DEB7A09133
S1132A303C04B0913D04109729F1F90169835B834B
S1132A404A839D838C836630A4F40E949713E0919B
S1132A503C04F0913D0420E0823011F4A80102C04E
S1132A6040E050E0BE016F5F7F4FCF010E94DF0C5A
S1132A700AC020E0AF01BE016F5F7F4FCD010E940D
S1132A80750D01C080E00F900F900F900F900F9084
S1132A90DF91CF911F910F910895EF92FF920F93C1
S1132AA01F93CF93DF93E0914004F0914104808120
S1132AB0882389F10580F681E02DE080F180C681CC
S1132AC0D7818E010E5F1F4FC8010E94410AE88919
S1132AD0F989CE0109958A8982FFE5CF8C859D8588
S1132AE08E0D9F1DE816F90660F49B838A83D987AF
S1132AF0C887B80180914004909141040E94090A5A
S1132B00D2CF00E010E020E030E0A70160E0CE0189
S1132B100E940E15C8CF80913E0490913F0490937B
S1132B20410480934004F0933F04E0933E04DF911A
S1132B30CF911F910F91FF90EF900895CF93DF9362
S1132B4000D000D01F92CDB7DEB7E0914004F091E1
S1132B504104D080DD2031F00580F681E02DE08055
S1132B60F18002C0E12CF12C0E9416110E941C116C
S1132B708C0180913804909139040817190720F4C6
S1132B800E944D1581E001C080E010933904009348
S1132B903804811155C0DD20D9F10E151F0508F444
S1132BA03EC00E94D211E0914004F091410405809E
S1132BB0F681E02DC680D780C60102960E94410AA4
S1132BC0D60152968C91529782FF17C01C966D9134
S1132BD07C911D976E0D7F1D9701A801C6010E946F
S1132BE0C414882369F000E010E020E030E0A7017D
S1132BF060E0C6010E940E1503C08E7FF601828B31
S1132C00D6015096ED91FC915197C60109951EC0CD
S1132C10E0913E04F0913F04808141E0811140E065
S1132C20B701601B710B80913C0490913D040E949C
S1132C301B0F0E94D211811109C00E94090B06C00A
S1132C400E94D21103C0898187FF0EC040E050E08A
S1132C50BE016F5F7F4F80913C0490913D040E94C0
S1132C60C70D8111F0CF71CFEC80FD80F701828513
S1132C709385892B21F0C70102960E94410A0E9484
S1132C801C116C018091380490913904C816D9063E
S1132C9010F40E944D15D0923904C0923804E98191
S1132CA00E2E000CFF0BEA30F10580F6EC5CFF4FB2
S1132CB0D70152968C910C94FE238160F701828B8C
S1132CC02A813B8164857585620F731FA601C70144
S1132CD00E94C414882309F4B9CFD7015096ED910A
S1132CE0FC915197C7010995F701828982FFAECF04
S1132CF04A815B8184859585480F591F00E010E067
S1132D0020E030E060E0C7010E940E159FCF816093
S1132D10F701828B6A817B81758764876C0D7D1DC9
S1132D209601A601C7010E94C41490CF81FD04C07E
S1132D30C7010E94C5098ACF8E7FD70152968C9312
S1132D4085CF0E9424060E94E81008950E949A06E6
S1132D5085E59DE1892B11F00C94551D0895259A64
S1132D602D9A2FEF80E792E0215080409040E1F7C8
S1132D7000C000001D9AF5CF259A2D9A2FEF87EAFF
S1132D8091E6215080409040E1F700C000001D9A78
S1132D90F5CF0F931F93FC018FEF80838183828390
S1132DA0838384838AE085831682DF011796739672
S1132DB000E717E120E030E048ED56ED60E070E018
S1132DC00D931D932D933D9318964D935D936D93A1
S1132DD07C931B97AE17BF0799F71F910F91089526
S1132DE0FF920F931F93CF93DF93EC01F62E042FE2
S1132DF0122F0E94C916FB820C831883DF91CF9196
S1132E001F910F91FF9008950895CF93DF93EC01E4
S1132E108B818F3FE9F09C819F3FD1F0613049F075
S1132E2030F0623041F0633099F461E009C060E051
S1132E3007C061E001C060E00E94632261E003C05A
S1132E400E94632260E08C81DF91CF910C94632215
S1132E50DF91CF910895CF93DF93EC0189818F3F68
S1132E60E9F09A819F3FD1F0613049F030F062304F
S1132E7041F0633099F460E009C061E003C061E0AF
S1132E8005C060E00E94632261E003C00E946322E7
S1132E9060E08A81DF91CF910C946322DF91CF911E
S1132EA00895FC0120812F3F29F091E06927822FAA
S1132EB00C946322662319F0FC01668101C063E06F
S1132EC00C942B17CF93DF93EC0189818F3F19F07A
S1132ED061E00E9427228A818F3F19F061E00E94FD
S1132EE027228B818F3F19F061E00E9427228C8179
S1132EF08F3F19F061E00E94272288818F3F19F0EB
S1132F0061E00E94272260E0CE010E9451176E8189
S1132F10CE01DF91CF910C942B17DC01FB0130978C
S1132F2059F09B968C919B9780839C968C919C974F
S1132F3081839D968C91828308954F925F926F92C4
S1132F407F928F929F92AF92BF92DF92EF92FF9205
S1132F500F931F93CF93DF938C01095F1F4FEC01F5
S1132F607C0183E1E80EF11CDD24DA94F801D80138
S1132F708D909D90AD90BD908D01808D918DA28D91
S1132F80B38D9C01AD01281939094A095B09AFEFDA
S1132F90B0E00E940424F801408451846284738464
S1132FA0A3019201281939094A095B090E94DF2308
S1132FB057FF02C01BA609C02F3F3105410551052B
S1132FC019F014F0DBA601C02BA721960E151F05DE
S1132FD069F6DF91CF911F910F91FF90EF90DF90F1
S1132FE0BF90AF909F908F907F906F905F904F9025
S1132FF008950F931F93CF93DF938C01C62F6130F5
S113300049F018F06230D9F04CC01092540461E0D9
S11330100E945117E0915404F0E0E25AFD4F6081A0
S1133020C8010E940517F801658170E088EE93E0FD
S11330300E94A923CB010E949222C2E032C00E94C6
S11330400A23882371F1E091540481E08E0F809368
S11330505404F0E0E25AFD4FC081D0E00E940D23F9
S11330609B01AC01CC0FDD1FCC0FDD1FC00FD11FA6
S1133070F801A581B0E00E9404246F8F78A389A38E
S11330809AA380915404833058F00E941B2360E07B
S1133090C8010E945117C8010E949D17C0E001C0D9
S11330A0C1E08C2FDF91CF911F910F910895CF93A1
S11330B0DF93EC0160E00E94F9178EA7DF91CF91B6
S11330C00895CF93DF93EC016EA50E94F917982F12
S11330D08EA781E0911180E0DF91CF91089580E087
S11330E090E00895209197043091980428173907A7
S11330F0B9F49091550480915604981789F0E091A1
S11331005504F0E0E95AFB4F80812091550430E0EA
S11331102F5F3F4F2F7333272093550490E008957A
S11331208FEF9FEF08951F93CF93DF93DC015C969D
S11331308D919C915D97009739F421E030E01396CE
S11331403C932E9312973BC05196ED91FC9152976C
S113315050962C915097322F30951FB75E964C9114
S11331605E97742F727041FD6095F89440817723C7
S113317011F0422B01C043234083EC012197F1F766
S113318048E0508160FF02C0522B01C0532350839A
S1133190EC012197F1F76695415099F780817723E7
S11331A019F08323808302C0282B20831FBF5C96E1
S11331B08D919C915D970197F1F781E090E0DF910B
S11331C0CF911F9108950895209197043091980408
S11331D02817390771F49091550480915604981773
S11331E041F0E0915504F0E0E95AFB4F808190E012
S11331F008958FEF9FEF08952091970430919804DC
S11332002817390771F4809156042091550490E0F1
S1133210805C9F4F821B910960E470E00E94A923A7
S1133220089580E090E00895E0919704F091980467
S1133230E817F90769F4A389B4899C918589809575
S113324089238C93109298041092970481E0089536
S113325080E00895CF93DF93EC018A8D9B8D892BB9
S1133260F1F08091970490919804C817D907B9F0A8
S1133270009711F00E9414198E8D8E7F8E8F1092FC
S1133280560410925504D0939804C0939704EB8984
S1133290FC8990818D89892B808381E001C080E045
S11332A0DF91CF9108951F920F920FB60F921124C0
S11332B02F933F934F935F936F937F938F939F933A
S11332C0AF93BF93EF93FF93E0919704F091980429
S11332D0309709F451C0968DA685B785858591FFF1
S11332E004C09C91892329F447C09C91892309F047
S11332F043C0A389B4899C918589809589238C9343
S1133300868997890197F1F7608D718DA685B785B8
S1133310558538E020E0CB010197F1F7822F90E04A
S113332095958795282F4C91452309F020683150B5
S113333091F7868D81FD20958091560490E0019649
S11333408F73992730915504381749F0A09156048A
S1133350B0E0A95ABB4F2C938093560403C0868DCA
S11333608160868F828D938D0197F1F7A389B4894B
S11333709C918589892B8C93FF91EF91BF91AF919B
S11333809F918F917F916F915F914F913F912F9179
S11333900F900FBE0F901F90189525E632E0FC01A8
S11333A0318320830C9414191F93CF93DF93EC0182
S11333B0162F6E8D6695617081E06827812F0E94BB
S11333C0632261E0812F0E942722812F90E0FC017B
S11333D0EA53FF4FE491E88BFC01E652FF4FE4917E
S11333E0F0E0EE0FFF1FE850FF4F859194919A8B08
S11333F0898BDF91CF911F9108951F93CF93DF9312
S1133400EC01162F60E0812F0E9427228E8D81FD12
S113341004C061E0812F0E9463221C87812F90E009
S1133420FC01EA53FF4FE491ED87FC01E652FF4FA4
S1133430E491F0E0EE0FFF1FE251FF4F859194916C
S11334409F878E87DF91CF911F9108951F93CF930C
S1133450DF93EC01162F1B821A8288EE93E0A0E022
S1133460B0E08C839D83AE83BF8385E692E099832D
S113347088831F8A1E8A198E188E1B8E1A8E1D8EA3
S11334801C8E8E8D8E7F20FB81F98E8F642FCE0152
S11334900E94D419612FCE01DF91CF911F910C941A
S11334A0FD19CF93DF93EC019A01AB011B8E1A8EA9
S11334B0198E188E1F8A1E8A60E079E08DE390E0F1
S11334C00E94DF23F9012430310518F0C901039764
S11334D002C081E090E09D8F8C8F6C85663108F08E
S11334E069C0C901969587958431910510F0439779
S11334F002C081E090E09F8B8E8B369718F0C90153
S1133500059702C081E090E0998F888FC901880FE8
S1133510991F280F391F36952795369527952D30F5
S1133520310518F02C50310902C021E030E03B8F06
S11335302A8F90916800683050F021E06E3008F4D2
S113354020E081E001C0880F2A95EAF701C084E0F9
S1133550892B809368009C85983038F09E3040F029
S1133560963148F020E030E008C02DE630E005C098
S11335702BE630E002C02CE630E03C8B2B8B9830FD
S113358030F481E001C0880F9A95EAF70EC0292F24
S113359030E09E3018F42850310902C02E50310911
S11335A081E001C0880F2A95EAF78D8B8C8D9D8D63
S11335B00197F1F7CE01DF91CF910C942A1950585D
S11335C0BB27AA270E94F71A0C94711C0E94631C43
S11335D038F00E946A1C20F039F49F3F19F426F455
S11335E00C94601C0EF4E095E7FB0C945A1CE92F34
S11335F00E94821C58F3BA17620773078407950761
S113360020F079F4A6F50C94A41C0EF4E0950B2E8E
S1133610BA2FA02D0B01B90190010C01CA01A00120
S11336201124FF27591B99F0593F50F4503E68F17B
S11336301A16F040A22F232F342F4427585FF3CFBC
S1133640469537952795A795F0405395C9F77EF48D
S11336501F16BA0B620B730B840BBAF09150A1F0D6
S1133660FF0FBB1F661F771F881FC2F70EC0BA0F5C
S1133670621F731F841F48F4879577956795B795E4
S1133680F7959E3F08F0B0CF9395880F08F09927DF
S1133690EE0F9795879508950E94361C08F481E0F3
S11336A008950E94651B0C94711C0E946A1C58F0BA
S11336B00E94631C40F029F45F3F29F00C945A1CCB
S11336C051110C94A51C0C94601C0E94821C68F37C
S11336D09923B1F3552391F3951B550BBB27AA27C7
S11336E062177307840738F09F5F5F4F220F331F01
S11336F0441FAA1FA9F335D00E2E3AF0E0E832D0C9
S113370091505040E695001CCAF72BD0FE2F29D0CB
S1133710660F771F881FBB1F261737074807AB079D
S1133720B0E809F0BB0B802DBF01FF2793585F4F12
S11337303AF09E3F510578F00C945A1C0C94A51C49
S11337405F3FE4F3983ED4F3869577956795B795F4
S1133750F7959F5FC9F7880F911D9695879597F9FF
S11337600895E1E0660F771F881FBB1F6217730778
S11337708407BA0720F0621B730B840BBA0BEE1F8D
S113378088F7E09508950E94CA1B6894B1110C94BF
S1133790A51C08950E948A1C88F09F5798F0B92FA1
S11337A09927B751B0F0E1F0660F771F881F991F72
S11337B01AF0BA95C9F714C0B13091F00E94A41C54
S11337C0B1E008950C94A41C672F782F8827B85F64
S11337D039F0B93FCCF3869577956795B395D9F7CA
S11337E03EF490958095709561957F4F8F4F9F4FD4
S11337F00895E89409C097FB3EF4909580957095E0
S113380061957F4F8F4F9F4F9923A9F0F92F96E928
S1133810BB279395F695879577956795B795F1119D
S1133820F8CFFAF4BB0F11F460FF1BC06F5F7F4F3A
S11338308F4F9F4F16C0882311F096E911C077234C
S113384021F09EE8872F762F05C0662371F096E855
S1133850862F70E060E02AF09A95660F771F881F24
S1133860DAF7880F9695879597F90895990F0008C8
S1133870550FAA0BE0E8FEEF16161706E807F9073E
S1133880C0F012161306E407F50798F0621B730BD9
S1133890840B950B39F40A2661F0232B242B252B5A
S11338A021F408950A2609F4A140A6958FEF811DFD
S11338B0811D089597F99F6780E870E060E008959E
S11338C09FEF80EC089500240A9416161706180634
S11338D00906089500240A94121613061406050610
S11338E00895092E0394000C11F4882352F0BB0FA1
S11338F040F4BF2B11F460FF04C06F5F7F4F8F4F04
S11339009F4F089557FD9058440F551F59F05F3F3E
S113391071F04795880F97FB991F61F09F3F79F0ED
S113392087950895121613061406551FF2CF46956F
S1133930F1DF08C0161617061806991FF1CF8695F1
S11339407105610508940895E894BB2766277727D5
S1133950CB0197F908950E94BE1C0C94711C0E941F
S1133960631C38F00E946A1C20F0952311F00C941B
S11339705A1C0C94601C11240C94A51C0E94821CDB
S113398070F3959FC1F3950F50E0551F629FF001AE
S1133990729FBB27F00DB11D639FAA27F00DB11DC7
S11339A0AA1F649F6627B00DA11D661F829F222750
S11339B0B00DA11D621F739FB00DA11D621F839FD7
S11339C0A00D611D221F749F3327A00D611D231FAD
S11339D0849F600D211D822F762F6A2F11249F57FB
S11339E050409AF0F1F088234AF0EE0FFF1FBB1FFE
S11339F0661F771F881F91505040A9F79E3F5105BD
S1133A0080F00C945A1C0C94A51C5F3FE4F3983E80
S1133A10D4F3869577956795B795F795E7959F5F66
S1133A20C1F7FE2B880F911D9695879597F90895F8
S1133A30FC01918D228D892F90E0805C9F4F821B29
S1133A4091098F7399270895FC01918D828D9817A0
S1133A5031F0828DE80FF11D858D90E008958FEF90
S1133A609FEF0895FC01918D828D981761F0828DEE
S1133A70DF01A80FB11D5D968C91928D9F5F9F739E
S1133A80928F90E008958FEF9FEF0895FC01538D7E
S1133A90448D252F30E0842F90E0821B930B541724
S1133AA010F0CF9608950197089581EB9EE1892B3C
S1133AB049F080E090E0892B29F00E94B11E811129
S1133AC00C9400000895FC01848DDF01A80FB11D42
S1133AD0A35ABF4F2C91848D90E001968F73992740
S1133AE0848FA689B7892C93A089B1898C9183701E
S1133AF080648C93938D848D981306C00288F38917
S1133B00E02D80818F7D80830895EF92FF920F9343
S1133B101F93CF93DF93EC0181E0888F9B8D8C8D75
S1133B20981305C0E889F989808185FD26C0F62EA1
S1133B300B8D10E00F5F1F4F0F731127E02E8C8D3C
S1133B40E8120CC00FB607FCFACFE889F989808126
S1133B5085FFF5CFCE010E94631DF1CF8B8DFE0151
S1133B60E80FF11DE35AFF4FF0829FB7F8940B8FD3
S1133B70EA89FB89808180620AC09FB7F894EE8944
S1133B80FF896083E889F9898081837080648083F8
S1133B909FBF81E090E0DF91CF911F910F91FF9043
S1133BA0EF900895CF93DF93EC01888D8823C9F0BB
S1133BB0EA89FB89808185FD05C0A889B9898C9132
S1133BC086FD0FC00FB607FCF5CF808185FFF2CFCD
S1133BD0A889B9898C9185FFEDCFCE010E94631D20
S1133BE0E7CFDF91CF910895CF92DF92EF92FF92CA
S1133BF01F93CF93DF93EC016A017B01122FE889B5
S1133C00F98982E080834115514E61057105B1F057
S1133C1060E079E08DE390E0A70196010E94BD2366
S1133C20DA01C9010197A109B109B695A79597953C
S1133C3087959C01211580E13807A8F0E889F98966
S1133C40108260E874E88EE190E0A70196010E947A
S1133C50BD23DA01C9010197A109B109B695A79558
S1133C60979587959C01EC85FD853083EE85FF85CE
S1133C702083188EEC89FD891083EA89FB89808171
S1133C8080618083EA89FB89808188608083EA89F6
S1133C90FB89808180688083EA89FB8980818F7DAC
S1133CA08083DF91CF911F91FF90EF90DF90CF90B1
S1133CB008951F920F920FB60F9211242F938F9392
S1133CC09F93EF93FF93E091A904F091AA0480815C
S1133CD0E091AF04F091B00482FD12C09081809114
S1133CE0B2048F5F8F732091B304821751F0E09177
S1133CF0B204F0E0E756FB4F958F8093B20401C005
S1133D008081FF91EF919F918F912F910F900FBE22
S1133D100F901F9018951F920F920FB60F921124B7
S1133D202F933F934F935F936F937F938F939F93BF
S1133D30AF93BF93EF93FF9389E994E00E94631DCF
S1133D40FF91EF91BF91AF919F918F917F916F916F
S1133D505F914F913F912F910F900FBE0F901F9045
S1133D60189589E994E00E94181D21E0892B09F433
S1133D7020E0822F0895E9E9F4E01382128288EEAC
S1133D8093E0A0E0B0E084839583A683B78387E7BC
S1133D9092E09183808385EC90E09587848784EC1E
S1133DA090E09787868780EC90E0918B808B81EC04
S1133DB090E0938B828B82EC90E0958B848B86ECE5
S1133DC090E0978B868B118E128E138E148E08952D
S1133DD00E9447210E94A1160E942406C5E5DDE148
S1133DE00E949A062097E1F30E94551DF9CFCF92C5
S1133DF0DF92EF92FF920F931F93CF93DF936C01A7
S1133E007A018B01C0E0D0E0CE15DF0581F0D80146
S1133E106D918D01D601ED91FC910190F081E02D21
S1133E20C6010995892B11F02196EECF7E01C701B9
S1133E30DF91CF911F910F91FF90EF90DF90CF9082
S1133E400895EF92FF920F931F93CF93DF938C010A
S1133E507B01C0E0D0E0F701EC0FFD1F6491662305
S1133E6061F0D801ED91FC910190F081E02DC80141
S1133E700995892B11F02196EECFCE01DF91CF91D8
S1133E801F910F91FF90EF9008950C941B05DC0196
S1133E90ED91FC910190F081E02D099465E872E0C8
S1133EA00C941B050F931F93CF93DF93EC010E9497
S1133EB01B058C01CE010E944E1F800F911FDF91C4
S1133EC0CF911F910F9108958F929F92AF92BF92BD
S1133ED0EF92FF920F931F93CF93DF93CDB7DEB78B
S1133EE0A1970FB6F894DEBF0FBECDBF7C01FA01D7
S1133EF0CB0119A2223008F42AE08E010F5D1F4F76
S1133F00822E912CA12CB12CBF01A50194010E94F9
S1133F10BD23F901CA01015011096A3010F4605D32
S1133F2001C0695CD8016C93232B242B252B61F7EA
S1133F30B801C7010E941B05A1960FB6F894DEBF15
S1133F400FBECDBFDF91CF911F910F91FF90EF90E6
S1133F50BF90AF909F908F9008952115310541F443
S1133F60DC01ED91FC910190F081E02D642F099426
S1133F700C94641F9A01462F50E060E070E00C94AA
S1133F80AD1F0F931F93CF93DF93EC010E94BA1FD1
S1133F908C01CE010E944E1F800F911FDF91CF91A3
S1133FA01F910F910895CF92DF92EF92FF920F939A
S1133FB01F93CF93DF932115310581F4DC01ED913B
S1133FC0FC910190F081E02D642FDF91CF911F913E
S1133FD00F91FF90EF90DF90CF9009942A30310534
S1133FE001F577FF1DC06A017B01EC016DE20E94BF
S1133FF0471F8C0144275527BA014C195D096E09E6
S11340007F092AE0CE010E94641F800F911FDF9177
S1134010CF911F910F91FF90EF90DF90CF90089573
S11340202AE0DF91CF911F910F91FF90EF90DF90E5
S1134030CF900C94641F9A01AB01770F660B770B3A
S11340400C94D31F08958230E8F4E82FF0E0EE0FCB
S1134050FF1FE35CFE4F71836083813041F08091E8
S113406069008C7F482B40936900E89A08958091F9
S11340706900837F440F551F440F551F482B4093FD
S11340806900E99A08951F920F920FB60F921124B6
S11340902F933F934F935F936F937F938F939F934C
S11340A0AF93BF93EF93FF93E0913D01F0913E01F5
S11340B00995FF91EF91BF91AF919F918F917F915E
S11340C06F915F914F913F912F910F900FBE0F9081
S11340D01F9018951F920F920FB60F9211242F93D1
S11340E03F934F935F936F937F938F939F93AF937C
S11340F0BF93EF93FF93E0913F01F0914001099545
S1134100FF91EF91BF91AF919F918F917F916F91AB
S11341105F914F913F912F910F900FBE0F901F9081
S113412018951F920F920FB60F9211242F933F935D
S11341308F939F93AF93BF938091370590913805E8
S1134140A0913905B0913A053091360523E0230F4B
S11341502D3720F40196A11DB11D05C026E8230FBB
S11341600296A11DB11D20933605809337059093C7
S11341703805A0933905B0933A0580913B05909199
S11341803C05A0913D05B0913E050196A11DB11DD0
S113419080933B0590933C05A0933D05B0933E0569
S11341A0BF91AF919F918F913F912F910F900FBE2F
S11341B00F901F9018953FB7F89480913B0590910C
S11341C03C05A0913D05B0913E0526B5A89B05C0D0
S11341D02F3F19F00196A11DB11D3FBFBA2FA92F82
S11341E0982F8827820F911DA11DB11DBC01CD01FF
S11341F042E0660F771F881F991F4A95D1F70895EB
S11342008F929F92AF92BF92CF92DF92EF92FF92E2
S11342106B017C010E94DB204B015C01C114D104C1
S1134220E104F10401F10E94A8230E94DB20DC01D7
S1134230CB0188199909AA09BB09883E9340A105B5
S1134240B10560F321E0C21AD108E108F10888EE53
S1134250880E83E0981EA11CB11CC114D104E10492
S1134260F10419F7DBCFFF90EF90DF90CF90BF9070
S1134270AF909F908F9008958230910538F0880F09
S1134280991F880F991F05970197F1F7089578945E
S113429084B5826084BD84B5816084BD85B5826047
S11342A085BD85B5816085BDEEE6F0E080818160E5
S11342B08083E1E8F0E010828081826080838081E5
S11342C081608083E0E8F0E0808181608083E1EBBD
S11342D0F0E0808184608083E0EBF0E080818160A5
S11342E08083EAE7F0E0808184608083808182605B
S11342F08083808181608083808180688083109244
S1134300C10008958E3008F08E502091410190E450
S1134310299F900111248770822B80937C008091C7
S11343207A00806480937A0080917A0086FDFCCFC5
S1134330809178002091790090E0922B08951F934A
S1134340CF93DF93182FEB0161E00E94272220977F
S113435011F460E004C0CF3FD10539F461E0812F4E
S1134360DF91CF911F910C946322E12FF0E0EE5482
S1134370FF4FE491E330F9F048F4E130B9F0E23072
S1134380A1F584B5806284BDC8BD34C0E730E9F0CE
S1134390E83019F1E43049F580918000806280931F
S11343A08000D0938B00C0938A0024C084B58068B9
S11343B084BDC7BD1FC08091800080688093800049
S11343C0D0938900C093880015C08091B0008068A4
S11343D08093B000C093B3000DC08091B0008062A0
S11343E08093B000C093B40005C0C038D1050CF070
S11343F0B5CFAFCFDF91CF911F910895833081F076
S113440028F4813099F08230A1F008958730A9F022
S11344108830B9F08430D1F4809180008F7D03C05E
S1134420809180008F7780938000089584B58F7782
S113443002C084B58F7D84BD08958091B0008F77CC
S113444003C08091B0008F7D8093B0000895CF9316
S1134450DF9390E0FC01EA53FF4F2491FC01E65204
S1134460FF4F8491882361F190E0880F991FFC012C
S1134470EE5FFE4FC591D491FC01E850FF4FA5912A
S1134480B491611109C09FB7F89488812095822363
S11344908883EC912E230BC0623061F49FB7F894AB
S11344A08881322F309583238883EC912E2B2C9393
S11344B09FBF06C08FB7F894E8812E2B28838FBF47
S11344C0DF91CF9108951F93CF93DF93282F30E08E
S11344D0F901EE54FF4F8491F901EA53FF4FD4914F
S11344E0F901E652FF4FC491CC23C1F0162F81117C
S11344F00E94FE21EC2FF0E0EE0FFF1FE850FF4F6B
S1134500A591B4919FB7F894111104C08C91D095E2
S1134510D82302C0EC91DE2BDC939FBFDF91CF91B7
S11345201F910895009709F474C0109240051092E9
S11345303F0510924D0510924C05109248051092BB
S1134540490510924A0510924B051092430520919B
S113455080002093520520918100209351051092F0
S1134560810010928000109285001092840021E056
S113457026BB10926F002091B0002093500520912B
S1134580B10020934F051092B10022E02093B000B7
S11345909C0127703327232B51F443E0969587958C
S11345A04A95E1F72CE72093B30027E018C09C015B
S11345B023703327232B31F4969587959695879509
S11345C029EF05C080FD07C0969587952CE72093B9
S11345D0B30026E004C02CE72093B30025E0209329
S11345E04E0522E027BB1092B200909342058093BF
S11345F041059FB7F89423BD80914E058093B10087
S1134600209370008BE08150F1F787E08093810064
S11346109FBF08958091430508952FB7F894609142
S11346204405709145058091460590914705109287
S113463043052FBF0895E1EBF0E010821092700063
S1134640809150058093B00080914F058083E1E80C
S1134650F0E0108280915205809380008091510592
S1134660808308951F920F920FB60F9211240F9317
S11346701F932F933F934F935F936F937F938F93E6
S11346809F93AF93BF932091840030918500B09B9A
S11346900BC081E086BB80914C0590914D0501963D
S11346A090934D0580934C0580913F059091400572
S11346B0019640914105509142058417950798F160
S11346C01092400510923F0580914C0590914D0544
S11346D0A0E0B0E0DC0199278827820F931FA11D79
S11346E0B11D409148055091490560914A0570916A
S11346F04B058C019D01041B150B260B370B0093F6
S1134700440510934505209346053093470580934F
S1134710480590934905A0934A05B0934B0581E061
S11347208093430504C09093400580933F05BF9157
S1134730AF919F918F917F916F915F914F913F9135
S11347402F911F910F910F900FBE0F901F901895EE
S1134750089597FB072E16F4009407D077FD09D02F
S11347600E940F2407FC05D03EF4909581959F4F3D
S11347700895709561957F4F0895A1E21A2EAA1BA2
S1134780BB1BFD010DC0AA1FBB1FEE1FFF1FA217FD
S1134790B307E407F50720F0A21BB30BE40BF50BFA
S11347A0661F771F881F991F1A9469F76095709583
S11347B0809590959B01AC01BD01CF010895052E14
S11347C097FB1EF400940E94F62357FD07D00E9425
S11347D0BD2307FC03D04EF40C94F623509540956A
S11347E0309521953F4F4F4F5F4F08959095809599
S11347F0709561957F4F8F4F9F4F0895EE0FFF1F68
S11348000590F491E02D09940E942324A59F900D16
S1134810B49F900DA49F800D911D11240895AA1B8F
S1134820BB1B51E107C0AA1FBB1FA617B70710F097
S1134830A61BB70B881F991F5A95A9F780959095C9
S1134840BC01CD010895A29FB001B39FC001A39FF5
S1134850700D811D1124911DB29F700D811D1124B5
S1134860911D08950F931F93CF93DF938230910589
S113487010F482E090E0E0915505F091560520E0B7
S113488030E0A0E0B0E0309719F14081518102811D
S1134890138148175907C8F08417950769F41097CE
S11348A031F012960C93129713961C9327C0009321
S11348B055051093560522C02115310519F04217EC
S11348C0530718F49A01BD01EF01DF01F801DBCFB2
S11348D021153105F9F0281B390B2430310580F4FA
S11348E08A819B816115710521F0FB019383828389
S11348F004C09093560580935505FE01329644C03A
S1134900FE01E20FF31F8193919322503109398301
S113491028833AC02091530530915405232B41F448
S113492020910201309103013093540520935305E3
S113493020910001309101012115310541F42DB779
S11349403EB74091040150910501241B350BE091C1
S11349505305F0915405E217F307A0F42E1B3F0B07
S11349602817390778F0AC014E5F5F4F24173507DD
S113497048F04E0F5F1F50935405409353058193A5
S1134980919302C0E0E0F0E0CF01DF91CF911F915D
S11349900F910895CF93DF93009709F481C0FC0130
S11349A0329713821282A0915505B0915605109743
S11349B081F420813181820F931F2091530530911E
S11349C054052817390751F5F0935405E09353051E
S11349D067C0ED0120E030E0CE17DF0740F44A81E4
S11349E05B819E0141155105F1F0EA01F5CFD383B6
S11349F0C28340815181840F951FC817D90759F488
S1134A0088819981840F951F0296918380838A817E
S1134A109B81938382832115310529F4F0935605F4
S1134A20E09355053DC0E901FB83EA83499159911F
S1134A30C40FD51FEC17FD0761F480819181840FA9
S1134A40951F0296E90199838883828193819B83D0
S1134A508A83E0E0F0E012968D919C911397009781
S1134A6019F0FD01DC01F7CF8D919C9111979D0107
S1134A702E5F3F4F820F931F2091530530915405B1
S1134A802817390769F4309729F4109256051092C3
S1134A90550502C013821282B0935405A0935305A6
S1134AA0DF91CF910895FB01DC0102C001900D92CA
S1134AB041505040D8F70895DC0101C06D93415036
S1134AC05040E0F7089510E0CAE8D0E004C0FE01C9
S1134AD00E94FE232196CC38D107C9F7F894FFCF62
S1134AE0000057052000000000003C003F006B0060
S1134AF00000000023002400460053C40914000FE2
S1134B00000A0000000000FF000000FF000000FF9A
S1134B100000000000000026430000CA43222022B7
S1134B20200140003E005A004A004D007800470032
S1134B304A007B003D003E005B003C003C006500F9
S1134B4032003F005A00400043007200440041001C
S1134B50720034003C005A00340034005E003A0015
S1134B603500600030003600560031003000580037
S1134B7036002E00580032002C00560034002A0063
S1134B8052002F002B005200633A200072656164CA
S1134B905F696E3A200052474200436F6C6F725354
S1134BA0656E736F72005048616E6454656D706514
S1134BB072617475726500416374696F6E3A00695D
S1134BC06E7369646520616D6D6F6E696100696EF5
S1134BD073696465206E69747269746500696E73C3
S1134BE0696465206E69747261746500616D6D6FCE
S1134BF06E69613A002020206E6974726174653AAE
S1134C00002020206E6974726974653A00202020A7
S1134C1000696E736964652070680070683A0069A1
S1134C206E736964652074656D700074656D703AA7
S1134C300049444C4500546D7220537663000001D2
S1134C4002000000009318F71E6F18E318FC187296
S1134C5018E41800000000851DF71E461DD21D181B
S1134C601D321D241D0D0A006E616E00696E660002
S1074C706F766600F1
S9030000FC
