:100000000C948C000C94B4000C94B4000C944E1816
:100010000C944E180C944E180C94DD0A0C94BE21CE
:100020000C94B4000C94B4000C94B4000C94B40080
:100030000C94B4000C94B4000C94B4000C94B40070
:100040000C941D1F0C94B4000C94541D0C94861D2C
:100050000C94B4000C94B4000C94B4000C94B40050
:100060000C94B4000C94B4005815581558159715F5
:100070008215911558155815971582150A466F75F2
:100080006E64204D61746368696E6720436F6C6FA6
:100090007200005EBCE2613FDD83C29C7E20A3FD56
:1000A0001F41009D23BE46DB65F88C11AF32CA5755
:1000B000E9740000000800020100000304070000CA
:1000C000000000000000010204081020408001022E
:1000D000040810200102040810200404040404048D
:1000E00004040202020202020303030303030000EA
:1000F0000000230026002900000000002500280041
:100100002B0000000000240027002A003904D1043D
:100110009406B61D40049B0611241FBECFEFD8E005
:10012000DEBFCDBF12E0A0E0B1E0E8EFF7E402C02F
:1001300005900D92AC33B107D9F725E0ACE3B2E0FE
:1001400001C01D92A430B207E1F710E0CAE8D0E088
:1001500004C02197FE010E948A22C638D107C9F740
:100160000E94E31D0C94EF230C9400000F931F9347
:10017000CF93DF93CDB7DEB72A970FB6F894DEBFE3
:100180000FBECDBF8CE392E00E945D1686E0EEE3E9
:10019000F1E0DE01159601900D928A95E1F7198242
:1001A0001A821B821C828AE0FE013196A8E0B3E02D
:1001B00001900D928A95E1F786E0E4E4F1E0DE013A
:1001C000159601900D928A95E1F78AE0FE0131962D
:1001D000A2ECB2E001900D928A95E1F786E0EAE4A4
:1001E000F1E0DE01159601900D928A95E1F78AE023
:1001F000FE013196ACE7B2E001900D928A95E1F7ED
:1002000086E0E0E5F1E0DE01159601900D928A9519
:10021000E1F740E050E060E07FE349835A836B837D
:100220007C838AE0FE013196A2E1B3E001900D9259
:100230008A95E1F786E0EAE4F1E0DE0115960190A7
:100240000D928A95E1F78AE999E9A9E1BEE38983EC
:100250009A83AB83BC838AE0FE013196ACECB2E0BA
:1002600001900D928A95E1F786E0E6E5F1E0DE0186
:10027000159601900D928A95E1F749835A836B8315
:100280007C838AE0FE013196A6E8B2E001900D92EF
:100290008A95E1F786E0ECE5F1E0DE011596019044
:1002A0000D928A95E1F740E050E060E87FE34983F2
:1002B0005A836B837C838AE0FE013196ACE1B3E024
:1002C00001900D928A95E1F786E0E2E6F1E0DE0129
:1002D000159601900D928A95E1F78AE999E9A9E9C5
:1002E000BEE389839A83AB83BC838AE0FE013196A7
:1002F000A6EDB2E001900D928A95E1F786E0E8E67E
:10030000F1E0DE01159601900D928A95E1F780E00B
:1003100090E0A0E0B0E489839A83AB83BC838AE059
:10032000FE013196A0E9B2E001900D928A95E1F7C5
:1003300086E0EEE6F1E0DE01159601900D928A95D9
:10034000E1F700E010E020E430E409831A832B8316
:100350003C838AE0FE013196A6E2B3E001900D9263
:100360008A95E1F786E0E4E7F1E0DE011596019079
:100370000D928A95E1F749835A836B837C838AE0E7
:10038000FE013196A0EEB2E001900D928A95E1F760
:1003900086E0EAE7F1E0DE01159601900D928A957C
:1003A000E1F780E090E0A0EAB0E489839A83AB8330
:1003B000BC838AE0FE013196AAE9B2E001900D9279
:1003C0008A95E1F786E0E0E8F1E0DE01159601901C
:1003D0000D928A95E1F780E090E0A0ECB0E489838B
:1003E0009A83AB83BC838AE0FE013196A0E3B3E03D
:1003F00001900D928A95E1F786E0E6E8F1E0DE01F2
:10040000159601900D928A95E1F780E090E0A0ECBE
:10041000BFE389839A83AB83BC838AE0FE01319674
:10042000AAEEB2E001900D928A95E1F786E0E6E847
:10043000F1E0DE01159601900D928A95E1F740E01A
:1004400050E060E271E449835A836B837C838AE0E5
:10045000FE013196A4EAB2E001900D928A95E1F78F
:1004600086E0ECE8F1E0DE01159601900D928A95A8
:10047000E1F709831A832B833C838AE0FE013196DE
:10048000A4EFB2E001900D928A95E1F786E0E2E9EF
:10049000F1E0DE01159601900D928A95E1F780E07A
:1004A00090E0A0EAB1E489839A83AB83BC838AE0BD
:1004B000FE013196AEEAB2E001900D928A95E1F725
:1004C00086E0E8E9F1E0DE01159601900D928A954B
:1004D000E1F749835A836B837C838AE0FE0131967E
:1004E000AEEFB2E001900D928A95E1F786E0EEE979
:1004F000F1E0DE01159601900D928A95E1F780E01A
:1005000090E0A8E4B2E489839A83AB83BC838AE059
:10051000FE013196A8EBB2E001900D928A95E1F7C9
:100520002A960FB6F894DEBF0FBECDBFDF91CF91F4
:100530001F910F91089564EA71E086E494E00E94AF
:10054000401E60917302709174024AE050E086E4AC
:1005500094E00E94161F66EA71E086E494E00E942F
:10056000401E60917502709176024AE050E086E488
:1005700094E00E94161F66EA71E086E494E00E940F
:10058000401E60917702709178024AE050E086E464
:1005900094E00E94161F68EA71E086E494E00E94ED
:1005A000401E4AE050E060916D0286E494E00E94B3
:1005B000B51E66EA71E086E494E00E94401E4AE0BF
:1005C00050E060916E0286E494E00E94B51E66EAF7
:1005D00071E086E494E00E94401E4AE050E06091A1
:1005E0006C0286E494E00E94B51E20916D0230E01A
:1005F0008091730290917402AC0145505109241707
:10060000350774F105968217930754F120916E0215
:1006100030E08091750290917602AC01455051090D
:1006200024173507ECF0059682179307CCF020913C
:100630006C0230E08091770290917802AC014550D5
:1006400051092417350764F005968217930744F083
:100650006CE770E086E494E00E941C1E81E008953F
:1006600080E008950F931F93CF93DF9380916B02E7
:10067000813009F444C040F0823009F068C002ECD7
:1006800012E0C0E0D0E026C008E013E0C0E0D0E017
:100690008AE0F801AFE6B2E001900D928A95E1F7A9
:1006A0000E949B02882349F08AE08C9FF0018D9F75
:1006B000F00D1124E85FFC4F3AC02196065F1F4FF2
:1006C000C530D10529F73EC02196065F1F4FC730C0
:1006D000D105C1F18AE0F801AFE6B2E001900D92D8
:1006E0008A95E1F70E949B02882371F38AE08C9F30
:1006F000F0018D9FF00D1124EE53FD4F18C00CE753
:1007000012E0C0E0D0E08AE0F801AFE6B2E001908C
:100710000D928A95E1F70E949B02882369F08AE096
:100720008C9FF0018D9FF00D1124E458FD4F308116
:100730002181928183810AC02196065F1F4FC730B5
:10074000D10509F730E020E090E88FEBAC01632F92
:10075000722F852F942FDF91CF911F910F910895C4
:1007600080936B028CE392E00E9452178CE392E03C
:100770000E945C178823D1F369E772E08CE392E072
:100780000E94881680917A0280936E02809179028D
:1007900080936D0280917B0280936C0262EB71E02A
:1007A00086E494E00E944D1E4AE050E060916D02A4
:1007B00086E494E00E94BC1E4AE050E060916E0224
:1007C00086E494E00E94BC1E4AE050E060916C0216
:1007D00086E494E00E94BC1E0E9432030E94BE1A6E
:1007E0000895CF9380936B028CE392E00E9452179E
:1007F0008CE392E00E945C178823D1F369E772E0F2
:100800008CE392E00E94881680917A0280936E02B7
:100810008091790280936D0280917B0280936C02BB
:100820008AE0E0E1F1E0AFE6B2E001900D928A9556
:10083000E1F70E949B029AE0E6E0F1E0AFE6B2E069
:1008400001900D929A95E1F7811105C00E949B02DB
:10085000C82F882359F00E943203C1E020E030E025
:1008600040E85FEB0E94471A8111C0E08C2FCF91C6
:10087000089528E04DE06CE08CE392E00C94EB15D9
:100880008CE392E00C94FF15EF92FF920F931F936D
:10089000CF93DF93CDB7DEB764970FB6F894DEBF82
:1008A0000FBECDBF8AE393E00E94AB076AEF70E012
:1008B00080E090E00E948C1F41E0BE01635F7F4FAB
:1008C0008AE393E00E94DA0767E0CE010D960E946A
:1008D00061089C89891354C08AE393E00E949F06B3
:1008E000BE01635F7F4F8AE393E00E948C0741E083
:1008F00064E48AE393E00E943C0768EE73E080E0E2
:1009000090E00E948C1F8AE393E00E949F06BE0144
:10091000635F7F4F8AE393E00E948C0740E06EEBB9
:100920008AE393E00E943C078E010F5F1F4F7E0118
:100930008AE0E80EF11C8AE393E00E947007F80158
:1009400081938F01EE15FF05B1F769817A818D8161
:10095000807611F4687F07C0803211F46C7F03C089
:10096000803409F46E7F072E000C880B990B0E94CF
:10097000F61A20E030E040E85DE30E94A61B04C0C8
:1009800060E070E080E89FEB64960FB6F894DEBFFD
:100990000FBECDBFDF91CF911F910F91FF90EF90D0
:1009A000089566E08AE393E00C94B707CF93DF9352
:1009B00000D0CDB7DEB70E9417109A8389830E94BA
:1009C000790820E030E048EC52E40E94A61B0E9427
:1009D000BE1A6093750370937603809377039093A8
:1009E00078030E94440420E030E048EC52E40E9486
:1009F000A61B0E94BE1A9B0170937403609373033D
:100A000080911B0190911C01AC01425351092417A4
:100A1000350714F461E005C0C2968217930724F4E9
:100A200060E084E00E94EF2068E371E0CE0101966F
:100A30000E943C11C4CF6115710579F0FB01019052
:100A40000020E9F73197AF01461B570BDC01ED9110
:100A5000FC910280F381E02D099480E090E00895FC
:100A6000CF93DF9300D000D000D0CDB7DEB749835D
:100A70005A836B837C838D839E8369817A818FE027
:100A80000E942B206B817C8180E10E942B206D8154
:100A90007E8181E126960FB6F894DEBF0FBECDBFF2
:100AA000DF91CF910C942B200E941710C4E664E6CE
:100AB00070E080916B0390916C030E94540D813023
:100AC00009F0B0C040911D0150911E0160911F01BD
:100AD0007091200180912101909122010E943005A6
:100AE00080911A018E3461F18E3609F44FC0813441
:100AF00009F07FC080E00E94F1038111FBCF40919B
:100B00002F0150913001609131017091320180913B
:100B10003301909134010E94300568EE73E080E06B
:100B200090E00E948C1F80E00E94B003C69F90015D
:100B3000C79F300D1124309372032093710359C065
:100B400082E00E94F1038111FBCF4091230150917B
:100B500024016091250170912601809127019091D7
:100B600028010E94300568EE73E080E090E00E946A
:100B70008C1F82E00E94B003C69F9001C79F300D7A
:100B8000112430936E0320936D0333C081E00E94E3
:100B9000F1038111FBCF4091290150912A0160910D
:100BA0002B0170912C0180912D0190912E010E94BA
:100BB000300568EE73E080E090E00E948C1F81E0D9
:100BC0000E94B003C69F9001C79F300D112430933F
:100BD000700320936F034091790350917A036091E1
:100BE0007B0370917C0380917D0390917E030E9432
:100BF00030054091790350917A0360917B037091A5
:100C00007C0380917D0390917E030E94300520E05B
:100C100040E050E060E070E080916B0390916C03E5
:100C20000E94FD0B81E090E00E94741140CF61E0D2
:100C30008FE00E94B32061E080E10E94B32061E078
:100C400081E10E94B3204091790350917A03609131
:100C50007B0370917C0380917D0390917E030C94C3
:100C60003005EF92FF920F9340E052EC61E070E0AC
:100C700088E493E00E944C1961E08AE00E94B3206E
:100C800061E084E00E94B32061E084E00E94EF20F4
:100C900026E040E052EC61E070E086E494E00E94DF
:100CA000EF1C61E08AE00E94EF200E94B6000E94E3
:100CB000170680916B0390916C03892B91F443E0AC
:100CC00060E081E00E94D50B90936C0380936B03EE
:100CD000009739F020E040E050E060E070E00E94D2
:100CE000FD0B89E6E82E83E0F82E02E020E030E0FC
:100CF00040E850E066EB71E084E595E00E94D70E95
:100D000097E6E92E93E0F92E20E030E040E850E04D
:100D100062EC71E086ED94E00E94D70E0F91FF9097
:100D2000EF900C94E30F089520E043E062E088E444
:100D300093E00C94211988E493E00C94C818FF9276
:100D40000F931F93CF93DF93FC01F080C181D28179
:100D5000F89489810F2D00958023898378941DE76D
:100D6000115029F182E090E00E94C81F88818F21F4
:100D7000B9F3F8948A8180238A8389818F298983B2
:100D8000789480EE91E00E94C81FF894898108232E
:100D9000098386E490E00E94C81F8881F82211E050
:100DA00009F010E078948AE991E00E94C81F812F31
:100DB000DF91CF911F910F91FF9008951F93CF93D3
:100DC000DF93FC011081C181D281812F809560FF6A
:100DD00012C0F8949A8189238A838981812B89831F
:100DE0008AE090E00E94C81F8A81182B1A837894A9
:100DF00087E390E011C0F8949A8189238A838981DE
:100E0000812B898381E490E00E94C81F8A81182B7E
:100E10001A83789485E090E0DF91CF911F910C9434
:100E2000C81F0F931F93CF93DF93FC010081C181F3
:100E3000D281F8948981802B89838A81102F109523
:100E400081238A8383E090E00E94C81F8981182350
:100E500019838AE090E00E94C81FC881789485E3D6
:100E600090E00E94C81FC02381E009F480E0DF9178
:100E7000CF911F910F910895DF92EF92FF920F9300
:100E80001F93CF93DF93EC01D62EE42E08E010E001
:100E9000FF24F39461E08D2D8F2109F460E0CE01F1
:100EA0000E94DE06FF0C01501109A1F7E11010C0ED
:100EB000F894E981FA8191818881809589238183E1
:100EC000E981FA819281888180958923828378944F
:100ED000DF91CF911F910F91FF90EF90DF900895D8
:100EE000EF92FF920F931F93CF93DF937C0108E063
:100EF00010E0C0E0D1E0C7010E9411078111CD2BA5
:100F0000DD0F01501109B9F78C2FDF91CF911F919F
:100F10000F91FF90EF900895EF92FF920F931F9320
:100F2000CF93DF938C017B0140E065E50E943C0795
:100F3000E70188E0E80EF11C699140E0C8010E94D9
:100F40003C07CE15DF05C1F7DF91CF911F910F91BF
:100F5000FF90EF900895FC01138615861486DC013E
:100F60001B9633961E92AE17BF07E1F708951F93A5
:100F7000CF93DF93EC01162F60E0812F0E94B32006
:100F8000612F70E0FB01EA53FF4FE491E883FB011E
:100F9000E652FF4FE491F0E0EE0FFF1FE251FF4FEA
:100FA000859194919A838983CE01DF91CF911F918E
:100FB0000C94AB07BF92CF92DF92EF92FF920F9308
:100FC0001F93CF93DF93EC016B01142F8D8581115B
:100FD00005C0CE010E949F06811105C01B861D869B
:100FE0001C8680E064C040E0112311F060EF01C076
:100FF0006CEECE010E943C0701E0E12CB12C11E027
:10100000CE010E941107F82ECE010E94110791E037
:10101000F91203C08130B1F434C02E2D30E0F81243
:101020001BC08B85181738F4FE01E20FF31F838174
:10103000802341F402C0181729F0F12C193058F41C
:101040001C8709C0FE01EE0DF11D8381802B838377
:10105000FF24F39409C0B12EFE01E20FF31F938128
:10106000802F8095892383836F2DCE010E94DE0619
:101070001F5F000F11F4E39401E087E08E1508F084
:10108000BFCF113408F4AACFBB86B11002C081E0F3
:101090008D878B81882309F4A1CFDE011396F60199
:1010A0002B968D918193CA17DB07D9F781E0DF91E9
:1010B000CF911F910F91FF90EF90DF90CF90BF9055
:1010C0000895DC0180E0615098F02D91982F9227CF
:1010D000E92FEF70F0E0EE56FF4F249192959F704C
:1010E000E92FF0E0EE55FF4FE491822F8E27EBCFF2
:1010F00008958F929F92AF92BF92CF92DF92EF921C
:10110000FF92CF93DF938EE00E940E20EC0180903F
:10111000390190903A01A0903B01B0903C012091A0
:101120003501309136014091370150913801C501A8
:10113000B4010E94DA199B01AC0160E070E080E428
:1011400090E40E944C1A6B017C019B01AC01C5012B
:10115000B4010E94A61B9B01AC0160E070E080EE30
:1011600090E40E94DA194B015C01BE01DD0F880B8F
:10117000990B0E94F61AA70196010E94A61B9B01DB
:10118000AC01C501B4010E94DB19DF91CF91FF9042
:10119000EF90DF90CF90BF90AF909F908F90089589
:1011A000CF93DF93EC010E941110CE010E94BE226A
:1011B000EC010E94CD10209711F40E94AA15CE01D7
:1011C000DF91CF910895CF93DF93009751F0EC0119
:1011D0000E941110CE010E945623DF91CF910C94F2
:1011E000CD10DF91CF910895FC0103969283818306
:1011F0002FEF3FEF34832383968385839087878304
:1012000010820895FC01118610860895CF93DF9314
:101210009C01FB01DC011196CD91DC911297D383E7
:10122000C2838C819D81958384838C819D81DC0127
:1012300013967C936E9312977D836C8331872087FE
:10124000F90180818F5F8083DF91CF9108950F93A3
:101250001F93CF93DF938C01FB01808191818F3F9E
:101260002FEF920721F4E801AF81B8850EC0D801B5
:10127000139612962D913C911397E901488159815B
:101280008417950710F0D901F4CF12968D919C9197
:10129000139793838283EC01FD83EC83B583A4834E
:1012A0001396FC93EE93129711870087F8018081C3
:1012B0008F5F8083DF91CF911F910F910895CF931E
:1012C000DF93FC01A085B1858281938124813581E2
:1012D000EC013D832C83C481D5819B838A83119645
:1012E0008D919C911297E817F90721F41296DC93DF
:1012F000CE931197118610868C9181508C938C918E
:10130000DF91CF91089531E1FC013083319722E2E2
:1013100020833197A3E3A083319760833197708353
:1013200031971082319760E860833197108231974E
:1013300062E06083319763E06083319764E06083AB
:10134000319765E06083319766E06083319767E0AD
:101350006083319768E06083319769E060833197FB
:1013600060E1608331973083319732E13083319788
:1013700033E13083319734E13083319735E1308385
:10138000319736E13083319737E13083319738E157
:101390003083319739E13083319730E230833197B0
:1013A00031E2308331972083319723E220833197D4
:1013B000408331975083319726E22083319727E28B
:1013C0002083319728E22083319729E220833197C7
:1013D00020E32083319721E3208386970895A89501
:1013E00090EC88E10FB6F894A895809360000FBE4A
:1013F00090936000A091E303B091E403CD91CDBF41
:10140000DD91DEBFFF91EF91DF91CF91BF91AF9161
:101410009F918F917F916F915F914F913F912F910C
:101420001F910F91FF90EF90DF90CF90BF90AF9002
:101430009F908F907F906F905F904F903F902F90F4
:101440001F900F900FBE0F90089581E008950F92A6
:101450000FB6F8940F921F9211242F923F924F9241
:101460005F926F927F928F929F92AF92BF92CF9234
:10147000DF92EF92FF920F931F932F933F934F931F
:101480005F936F937F938F939F93AF93BF93CF930C
:10149000DF93EF93FF93A091E303B091E4030DB6C4
:1014A0000D920EB60D920E948911A091E303B091A6
:1014B000E403CD91CDBFDD91DEBFFF91EF91DF91D0
:1014C000CF91BF91AF919F918F917F916F915F91DC
:1014D0004F913F912F911F910F91FF90EF90DF90CF
:1014E000CF90BF90AF909F908F907F906F905F90C4
:1014F0004F903F902F901F900F900FBE0F90089528
:101500000F920FB6F8940F921F9211242F923F92D0
:101510004F925F926F927F928F929F92AF92BF9203
:10152000CF92DF92EF92FF920F931F932F933F93EF
:101530004F935F936F937F938F939F93AF93BF93DB
:10154000CF93DF93EF93FF93A091E303B091E40374
:101550000DB60D920EB60D9213BE0E942110811190
:101560000E948911A091E303B091E403CD91CDBF16
:10157000DD91DEBFFF91EF91DF91CF91BF91AF91F0
:101580009F918F917F916F915F914F913F912F919B
:101590001F910F91FF90EF90DF90CF90BF90AF9091
:1015A0009F908F907F906F905F904F903F902F9083
:1015B0001F900F900FBE0F9008950E94800A1895FB
:1015C0000FB6F8940F92FC01928D0F900FBE81E040
:1015D000911180E008950F931F93CF93DF93EC0157
:1015E000042F1A8D4C8D41110BC088819981892B54
:1015F000E9F58C819D810E9403131D821C8237C0F6
:1016000050E0011115C08A819B810E94DF232C8D3F
:101610008A819B81820F911D9B838A832C813D81CE
:101620008217930718F1888199819B838A831EC052
:101630008E819F810E94DF238C8D90E09195819512
:1016400091092E813F81280F391F3F832E834881C6
:1016500059812417350730F42C813D81820F931F67
:101660009F838E83023011F41111115080E01F5FAF
:101670001A8FDF91CF911F910F910895FC01CB013B
:10168000448D4423A1F050E026813781240F351F7B
:1016900037832683648175812617370720F02081E0
:1016A000318137832683668177810C94DF23089507
:1016B000EF92FF921F93CF93DF93EC010FB6F89454
:1016C0000F921E8D7C0181E1E80EF11C11165CF475
:1016D0008989882341F0C7010E94101281110E945C
:1016E0008E121150F3CF8FEF8E8F0F900FBE0FB66B
:1016F000F8940F921D8D7E0188E0E80EF11C111602
:101700005CF48885882341F0C7010E941012811182
:101710000E948E121150F3CF8FEF8D8F0F900FBE5E
:10172000DF91CF911F91FF90EF900895CF93DF93BA
:10173000EC010FB6F8940F92488159818B8D7C8D06
:101740009A01879F200D311D11243D832C831A8E11
:101750005B834A8390E00197789F9001799F300DD9
:101760001124CA01820F931F9F838E838FEF8D8F69
:101770008E8F61110CC08885882389F0CE01089670
:101780000E941012882359F00E94270A08C0CE0137
:1017900008960E94F408CE0141960E94F4080F902A
:1017A0000FBE81E0DF91CF9108950F931F93CF93E8
:1017B000DF93082F162F662321F0869FC001112486
:1017C00002C080E090E04F960E94D008EC010097A4
:1017D00071F0111103C09983888303C04F969983D8
:1017E00088830B8F1C8F61E0CE010E94960BCE0187
:1017F000DF91CF911F910F910895AF92BF92CF9239
:10180000DF92FF920F931F93CF93DF9300D000D00E
:101810001F92CDB7DEB78C016B015D834C83F22E36
:1018200080E0580198E0A90EB11C0FB6F8940F9211
:10183000F801228D938D291718F0F2E0FF1214C0E1
:101840004F2DB601C8010E94EB0AF8019189992336
:1018500021F0C80141960E94101281110E94270AAE
:101860000F900FBE81E050C02C813D81232B19F4D5
:101870000F900FBE48C0811104C0CE0101960E9496
:1018800050120F900FBE0E9411100FB6F8940F92D5
:10189000F801858D8F3F09F4158EF801868D8F3FF5
:1018A00009F4168E0F900FBEBE016C5F7F4FCE0104
:1018B00001960E945B12811121C00FB6F8940F921D
:1018C000F801928D838D0F900FBE981311C06C811B
:1018D0007D81C5010E94E711C8010E94580B0E943A
:1018E000CD10882311F081E0A0CF0E94270AFBCF02
:1018F000C8010E94580B0E94CD10F5CFC8010E946C
:10190000580B0E94CD1080E00F900F900F900F9019
:101910000F90DF91CF911F910F91FF90DF90CF90AB
:10192000BF90AF900895EF92FF921F93CF93DF93F4
:10193000EC019A8D8B8D981710F02230E1F47A012A
:101940001E8D422FCE010E94EB0A1F3F81F4898930
:10195000882379F0CE0141960E941012882349F025
:10196000E114F10431F081E0F701808305C01F5FCD
:101970001E8F81E001C080E0DF91CF911F91FF9029
:10198000EF900895AF92BF92CF92DF92FF920F93A4
:101990001F93CF93DF9300D000D01F92CDB7DEB757
:1019A0008C016B015D834C8380E0580191E1A90EAD
:1019B000B11C0FB6F8940F92F801F28CFF20A9F039
:1019C000B601C8010E943E0BFA94F801F28E8085A0
:1019D000882339F0C80108960E94101281110E94D4
:1019E000270A0F900FBE81E050C02C813D81232B30
:1019F00019F40F900FBE48C0811104C0CE010196AA
:101A00000E9450120F900FBE0E9411100FB6F89452
:101A10000F92F801858D8F3F09F4158EF801868DA0
:101A20008F3F09F4168E0F900FBEBE016C5F7F4F83
:101A3000CE0101960E945B1281111CC0C8010E9458
:101A4000E00A882389F06C817D81C5010E94E7113D
:101A5000C8010E94580B0E94CD10882311F081E02C
:101A6000A8CF0E94270AFBCFC8010E94580B0E94F2
:101A7000CD10F5CFC8010E94580B0E94CD10C801AF
:101A80000E94E00A882359F380E00F900F900F9096
:101A90000F900F90DF91CF911F910F91FF90DF90EA
:101AA000CF90BF90AF900895CF92DF92FF920F93A7
:101AB0001F93CF93DF9300D000D01F92CDB7DEB736
:101AC0008C017D836C83F12C90E0680181E1C80E6C
:101AD000D11C0FB6F8940F92D8015A968C915A9750
:101AE0008823E9F081505A968C935A978D919C9156
:101AF000892B29F40E948413F80195838483D801EB
:101B000018968C91882339F0C80108960E9410120B
:101B100081110E94270A0F900FBE81E07AC02C81AC
:101B20003D81232B09F472C0911104C0CE010196AE
:101B30000E9450120F900FBE0E9411100FB6F89421
:101B40000F92F801858D8F3F09F4158ED8015E96AE
:101B50008C915E978F3F11F45E961C920F900FBE92
:101B6000BE016C5F7F4FCE0101960E945B12811116
:101B70002BC0C8010E94E00A882301F1F80180818E
:101B80009181892B51F40FB6F8940F92848195813D
:101B90000E94A012F82E0F900FBE6C817D81C601AD
:101BA0000E94E711C8010E94580B0E94CD108823A3
:101BB00011F091E08ECF0E94270AFBCFC8010E944E
:101BC000580B0E94CD10F5CFC8010E94580B0E94FF
:101BD000CD10C8010E94E00A882359F3FF20C1F00C
:101BE0000FB6F8940F92F8018189882339F006889E
:101BF000F789E02D808164E0681B01C060E0D801B6
:101C000014968D919C9115970E943D130F900FBED5
:101C100080E00F900F900F900F900F90DF91CF9179
:101C20001F910F91FF90DF90CF900895CF93DF9396
:101C3000EC010FB6F8940F928D8D8F3F09F41D8E35
:101C40008E8D8F3F09F41E8E0F900FBE8A8D8111ED
:101C500004C0CE0141960E94F811CE01DF91CF91D0
:101C60000C94580BE091AB03F091AC03808181118F
:101C700003C08FEF9FEF0CC0E091AB03F091AC037A
:101C80000580F681E02D0680F781E02D8281938129
:101C900090938303809382030895FF920F931F9381
:101CA000CF93DF93EC01F62E00918A0310918B0302
:101CB0008091E3039091E40302960E945F09CF3F75
:101CC0008FEFD80789F4FF2079F06091E3037091DA
:101CD000E4036E5F7F4F8DE893E0DF91CF911F911A
:101CE0000F91FF900C940609C00FD11FE091E30300
:101CF000F091E403D383C2836091E3037091E40322
:101D0000C017D10768F48091A9039091AA036E5F70
:101D10007F4FDF91CF911F910F91FF900C94270976
:101D20008091AB039091AC036E5F7F4F0E942709B7
:101D30008091820390918303C817D90720F4D09330
:101D40008303C0938203DF91CF911F910F91FF9086
:101D5000089580919603882309F10FB6F8940F92A5
:101D6000E0919C03F0919D03C681D781CE0102963C
:101D70000E945F0980918C03815080938C03809135
:101D800096038150809396030F900FBE8F89988D94
:101D90000E94E308CE010E94E308DBCF8091BF03DD
:101DA000823010F00E94270A0E94A115D2CF5F92C4
:101DB0006F927F928F929F92AF92BF92CF92DF925B
:101DC000EF92FF920F931F93CF93DF933C016B0130
:101DD0005A014901502ECA010E94D0088C01892B5A
:101DE00009F4E0C088E290E00E94D008EC01892B61
:101DF000C9F0188F0F8BA50165EA70E0C8010E9439
:101E0000E82321E0A21AB1088F89988DA80EB91E87
:101E1000C114D104C9F0BE01675E7F4FF601C6014F
:101E2000089607C0C8010E94E308BCC0E817F9077C
:101E300049F09F014191DB014D93BD01D9012C91E6
:101E40002111F4CF18A201C0198E052D043008F01D
:101E500003E00E8B09A31AA26E01B2E0CB0ED11CD7
:101E6000C6010E940209CE010C960E940209D98780
:101E7000C88784E090E0801B91099D878C87DB8B6D
:101E8000CA8B1BA21CA21DA21EA21FA2A401B301E9
:101E9000C5010E94830999838883E114F10419F034
:101EA000F701D183C0830FB6F8940F9280918C0311
:101EB0008F5F80938C038091E3039091E403892BDF
:101EC000D1F5D093E403C093E30380918C03813078
:101ED00009F041C08FEB93E00E94F40888EC93E096
:101EE0000E94F40881ED93E00E94F4088AED93E0EB
:101EF0000E94F40886EB93E00E94F4088DEA93E0D8
:101F00000E94F40880EA93E00E94F40887E993E0D5
:101F10000E94F4088DE893E00E94F40886EB93E0B9
:101F20009093AC038093AB038DEA93E09093AA0364
:101F30008093A90310C08091880381110CC0E091A7
:101F4000E303F091E40396898E89891720F0D093FA
:101F5000E403C093E303809184038F5F8093840341
:101F60008E8990918903981710F480938903F9E082
:101F70008F9FC0011124B60181549C4F0E94060915
:101F80000F900FBE80918803882351F0E091E30306
:101F9000F091E40396898E89981710F40E94270A1D
:101FA00081E001C08FEFDF91CF911F910F91FF90E2
:101FB000EF90DF90CF90BF90AF909F908F907F90E9
:101FC0006F905F900895EF92FF920F9380E8E82E54
:101FD00083E0F82E00E020E030E040EC50E068EFD5
:101FE00071E089EA9EE00E94D70E8130B1F40E9430
:101FF000E913813091F4F8942FEF3FEF309383038E
:10200000209382038093880310928B0310928A039B
:102010000F91FF90EF900C94EF090F91FF90EF90CC
:10202000089580917F038F5F80937F0308950FB69B
:10203000F8940F9280918A0390918B030F900FBEBA
:102040000895CF92DF92EF92FF920F931F93CF9359
:10205000DF9380917F0381118CC000918A031091DE
:102060008B030F5F1F4F10938B0300938A0301159F
:102070001105B9F48091AB039091AC032091A903B1
:102080003091AA033093AC032093AB039093AA033F
:102090008093A903809185038F5F809385030E94BD
:1020A000320E8091820390918303C0E008171907D4
:1020B00008F44FC0D9E0E091AB03F091AC0380810C
:1020C000811103C08FEF9FEF11C0E091AB03F0913E
:1020D000AC030580F681E02DE680F780D7011296EB
:1020E0008D919C9113970817190728F490938303F7
:1020F000809382032EC06701B2E0CB0ED11CC601D3
:102100000E945F09F70184899589892B21F0C70115
:102110000C960E945F09D70156968C919091890385
:10212000981710F480938903D89FC0011124B60139
:1021300081549C4F0E940609E091E303F091E4036F
:10214000D70156969C918689981708F4B4CFC1E0C0
:10215000B2CFE091E303F091E403E689B9E0EB9FAD
:10216000F0011124E154FC4F8081823040F0C1E045
:1021700006C0809187038F5F80938703C0E08091C2
:1021800086038111C1E08C2FDF91CF911F910F91B8
:10219000FF90EF90DF90CF900895EF92FF920F9312
:1021A0001F93CF93DF930FB6F8940F9280917F0324
:1021B000815080937F0380917F03882311F080E01A
:1021C00052C080918C038823D1F3C0E0D0E089E035
:1021D000F82EEE24E3948091A003882351F1E0913E
:1021E000A503F091A603C681D781CE010C960E946B
:1021F0005F098E010E5F1F4FC8010E945F098E8923
:1022000090918903981710F480938903F89EC00178
:102210001124B80181549C4F0E940609E091E30308
:10222000F091E4039E8986899817A8F2E0928603CC
:10223000D2CFCD2B11F00E94320EC0918703CC2358
:1022400051F0D1E00E9421108111D0938603C1503A
:10225000C9F71092870380918603882309F4AFCFD2
:102260000E94270A81E00F900FBEDF91CF911F914E
:102270000F91FF90EF9008950F931F93CF93DF93EB
:102280008C01EB010E94111040918A0350918B0345
:10229000F80120813181C9018C0F9D1F421753071E
:1022A00020F48217930740F403C08217930730F09D
:1022B00021E04817590718F020E001C021E0F8019B
:1022C00091838083222329F060E0841B950B0E9478
:1022D0004D0E0E94CD10811102C00E94270ADF918D
:1022E000CF911F910F910895CF93DF93EC01892B2C
:1022F00019F40E94270A0AC00E94111060E0CE0162
:102300000E944D0E0E94CD10882399F3DF91CF914A
:10231000089580917F03882321F081E080938603D4
:10232000089510928603A091E303B091E403E09135
:10233000E303F091E4032D913C918789908D8217FE
:10234000930760F06091E3037091E4038091E303ED
:102350009091E403675E7F4F0E94B71580918903D7
:1023600069E0482F50E0649F9001659F300D112473
:10237000F901E154FC4F9081911102C08150F1CFDD
:10238000A181B28112960D90BC91A02DB283A18340
:102390002E533C4FA217B30731F412962D913C9166
:1023A00013973283218399E0949FF001959FF00D5C
:1023B0001124E154FC4F0180F281E02D2681378108
:1023C0003093E4032093E303809389030895CF932C
:1023D000DF93EB016091E3037091E403645F7F4F4F
:1023E0000E94270961E0CE01DF91CF910C944D0E40
:1023F0001F93CF93DF93EB01142F6091E303709150
:10240000E403645F7F4F0E940609112311F0CFEFB0
:10241000DFEF612FCE01DF91CF911F910C944D0E14
:102420000F931F93CF93DF93DC011596ED91FC91F1
:102430001697C681D7818E01045F1F4FC8010E9485
:102440005F0980917F03811114C00A501109C801EE
:102450000E945F098E8990918903981710F48093E8
:102460008903B9E08B9FC0011124B80181549C4FAE
:1024700003C0B80180EA93E00E940609E091E303FB
:10248000F091E4039E898689891720F481E0809386
:10249000860301C080E0DF91CF911F910F910895D5
:1024A00020918503FC01208320918A0330918B03C6
:1024B000328321830895CF93DF930FB6F8940F9260
:1024C00040918A0350918B03DB012D913C912F3F6A
:1024D000BFEF3B07D9F0EC01E981FA81A0918503B8
:1024E000B881BA1719F04E175F0790F44E1B5F0BB7
:1024F000FB014217530738F4241B350B318320832B
:102500000E94501203C01182108202C080E001C0FC
:1025100081E00F900FBEDF91CF91089581E080930D
:102520008603089580918803882331F080917F038A
:10253000882321F080E0089581E0089582E00895E5
:102540000F931F93CF93DF93FC01892B09F455C0A0
:102550008689A091E303B091E40356969C91891774
:1025600008F041C02485358537FD0CC0A091E303F8
:10257000B091E40356969C9124E030E0291B310988
:102580003587248729E0829FC001112481549C4F04
:102590002285338528173907E9F48F01EF01229648
:1025A000CE010E945F09E091E303F091E403868984
:1025B000F801868B90918903981710F48093890312
:1025C000F9E08F9FC0011124BE0181549C4F0E94ED
:1025D000060907C0A091E303B091E40356968C91DD
:1025E000868B81E00BC0A091E303B091E40381E00E
:1025F00021A156969C91291708F080E0DF91CF9198
:102600001F910F9108950F931F93CF93DF93FC01B8
:10261000892B11F480E02CC082A1815082A32689ED
:1026200091A12917B9F38111F5CFEF018F010E5F49
:102630001F4FC8010E945F0989A18E8B482F50E06F
:1026400024E030E0241B350B3D872C8790918903D3
:10265000981710F48093890329E0249FC001259FD7
:10266000900D1124B80181549C4F0E94060981E00D
:10267000DF91CF911F910F9108950F931F93CF93E7
:10268000DF93FC01892BD9F191A1961708F4962FBD
:1026900086898917A1F122A1213089F5968B24859D
:1026A000358537FD06C024E030E0291B3109358728
:1026B000248729E0829FC001112481549C4F2285E8
:1026C000338528173907D9F4EF018F010E5F1F4FAB
:1026D000C8010E945F098E8990918903981710F4B0
:1026E0008093890329E0829FC0011124B80181549D
:1026F0009C4FDF91CF911F910F910C940609DF91B0
:10270000CF911F910F9108958091E3039091E4037D
:10271000892B39F0E091E303F091E40382A18F5F0C
:1027200082A38091E3039091E40308950FB6F89497
:102730000F928091E9039091EA03892BE9F488EFE5
:1027400093E00E94F4088FEE93E00E94F40888EF73
:1027500093E09093EE038093ED038FEE93E09093DC
:10276000EC038093EB0340E065E08AE00E94D50B28
:102770009093EA038093E9030F900FBE0895FC0144
:1027800073836283918780874617570778F0421BCF
:10279000530B8485958548175907C8F4BF016E5FB0
:1027A0007F4F8091EB039091EC030DC042175307CC
:1027B00018F46217730758F4BF016E5F7F4F809162
:1027C000ED039091EE030E94270980E0089581E0D7
:1027D0000895EF92FF920F930E9496138091E90360
:1027E0009091EA03892B81F087EEE82E83E0F82EA2
:1027F00003E020E030E045E550E06DEF71E089E96D
:1028000094E10E94D70E01C080E00F91FF90EF90FD
:1028100008950F931F93CF93DF9300D000D01F92A2
:10282000CDB7DEB7A091E903B091EA03109729F183
:10283000F90169835B834A839D838C836630A4F4AA
:102840000E949212E091E903F091EA0320E08230C5
:1028500011F4A80102C040E050E0BE016F5F7F4F5D
:10286000CF010E94FD0B0AC020E0AF01BE016F5FE7
:102870007F4FCD010E94930C01C080E00F900F901C
:102880000F900F900F90DF91CF911F910F910895AE
:10289000EF92FF920F931F93CF93DF93E091ED039D
:1028A000F091EE038081882389F10580F681E02D87
:1028B000E080F180C681D7818E010E5F1F4FC80175
:1028C0000E945F09E889F989CE0109958A8982FF0A
:1028D000E5CF8C859D858E0D9F1DE816F90660F469
:1028E0009B838A83D987C887B8018091ED03909133
:1028F000EE030E942709D2CF00E010E020E030E094
:10290000A70160E0CE010E940914C8CF8091EB03BB
:102910009091EC039093EE038093ED03F093EC031E
:10292000E093EB03DF91CF911F910F91FF90EF9018
:102930000895CF93DF9300D000D01F92CDB7DEB7BC
:10294000E091ED03F091EE03D080DD2031F00580C1
:10295000F681E02DE080F18002C0E12CF12C0E9494
:1029600011100E9417108C018091E5039091E603ED
:102970000817190720F40E94481481E001C080E084
:102980001093E6030093E503811155C0DD20D9F1D2
:102990000E151F0508F43EC00E94CD10E091ED0316
:1029A000F091EE030580F681E02DC680D780C60148
:1029B00002960E945F09D60152968C91529782FF2F
:1029C00017C01C966D917C911D976E0D7F1D970110
:1029D000A801C6010E94BF13882369F000E010E03F
:1029E00020E030E0A70160E0C6010E94091403C0A6
:1029F0008E7FF601828BD6015096ED91FC91519716
:102A0000C60109951EC0E091EB03F091EC038081B3
:102A100041E0811140E0B701601B710B8091E90337
:102A20009091EA030E94160E0E94CD10811109C0F8
:102A30000E94270A06C00E94CD1003C0898187FF2B
:102A40000EC040E050E0BE016F5F7F4F8091E90310
:102A50009091EA030E94C20C8111F0CF71CFEC80FB
:102A6000FD80F70182859385892B21F0C7010296AD
:102A70000E945F090E9417106C018091E5039091FC
:102A8000E603C816D90610F40E944814D092E60353
:102A9000C092E503E9810E2E000CFF0BEA30F10530
:102AA00080F6EC5CFF4FD70152968C910C948A22F1
:102AB0008160F701828B2A813B8164857585620F75
:102AC000731FA601C7010E94BF13882309F4B9CF61
:102AD000D7015096ED91FC915197C7010995F701E7
:102AE000828982FFAECF4A815B8184859585480FBC
:102AF000591F00E010E020E030E060E0C7010E94D4
:102B000009149FCF8160F701828B6A817B81758771
:102B100064876C0D7D1D9601A601C7010E94BF133D
:102B200090CF81FD04C0C7010E94E3088ACF8E7F49
:102B3000D70152968C9385CF0E9431060E94E30FF5
:102B400008950E94930680E59CE1892B11F00C9476
:102B5000501C0895259A2D9A2FEF80E792E021507E
:102B600080409040E1F700C000001D9AF5CF259A03
:102B70002D9A2FEF87EA91E6215080409040E1F7AF
:102B800000C000001D9AF5CF0F931F93FC018FEF3B
:102B9000808381838283838384838AE08583168212
:102BA000DF011796739600E717E120E030E048ED6B
:102BB00056ED60E070E00D931D932D933D931896B4
:102BC0004D935D936D937C931B97AE17BF0799F759
:102BD0001F910F910895FF920F931F93CF93DF934F
:102BE000EC01F62E042F122F0E94C415FB820C83D9
:102BF0001883DF91CF911F910F91FF900895089551
:102C0000CF93DF93EC018B818F3FE9F09C819F3F55
:102C1000D1F0613049F030F0623041F0633099F426
:102C200061E009C060E007C061E001C060E00E94AF
:102C3000EF2061E003C00E94EF2060E08C81DF9113
:102C4000CF910C94EF20DF91CF910895CF93DF9334
:102C5000EC0189818F3FE9F09A819F3FD1F061308B
:102C600049F030F0623041F0633099F460E009C01F
:102C700061E003C061E005C060E00E94EF2061E018
:102C800003C00E94EF2060E08A81DF91CF910C9415
:102C9000EF20DF91CF910895FC0120812F3F29F093
:102CA00091E06927822F0C94EF20662319F0FC0134
:102CB000668101C063E00C942616CF93DF93EC018C
:102CC00089818F3F19F061E00E94B3208A818F3F94
:102CD00019F061E00E94B3208B818F3F19F061E011
:102CE0000E94B3208C818F3F19F061E00E94B320D5
:102CF00088818F3F19F061E00E94B32060E0CE012F
:102D00000E944C166E81CE01DF91CF910C94261655
:102D1000DC01FB01309759F09B968C919B97808347
:102D20009C968C919C9781839D968C91828308952B
:102D30004F925F926F927F928F929F92AF92BF92CB
:102D4000DF92EF92FF920F931F93CF93DF938C014B
:102D5000095F1F4FEC017C0183E1E80EF11CDD24CB
:102D6000DA94F801D8018D909D90AD90BD908D01C1
:102D7000808D918DA28DB38D9C01AD0128193909EB
:102D80004A095B09AFEFB0E00E949022F80140844D
:102D9000518462847384A3019201281939094A0974
:102DA0005B090E946B2257FF02C01BA609C02F3F80
:102DB00031054105510519F014F0DBA601C02BA720
:102DC00021960E151F0569F6DF91CF911F910F9186
:102DD000FF90EF90DF90BF90AF909F908F907F908B
:102DE0006F905F904F9008950F931F93CF93DF9351
:102DF0008C01C62F613049F018F06230D9F04CC018
:102E00001092010461E00E944C16E0910104F0E090
:102E1000EB5FFD4F6081C8010E940016F8016581DB
:102E200070E088EE93E00E943522CB010E941E21C3
:102E3000C2E032C00E949621882371F1E091010422
:102E400081E08E0F80930104F0E0EB5FFD4FC081C5
:102E5000D0E00E9499219B01AC01CC0FDD1FCC0F6B
:102E6000DD1FC00FD11FF801A581B0E00E949022A4
:102E70006F8F78A389A39AA380910104833058F0BF
:102E80000E94A72160E0C8010E944C16C8010E9460
:102E90009816C0E001C0C1E08C2FDF91CF911F9147
:102EA0000F910895CF93DF93EC0160E00E94F41638
:102EB0008EA7DF91CF910895CF93DF93EC016EA59C
:102EC0000E94F416982F8EA781E0911180E0DF9187
:102ED000CF91089580E090E00895209144043091CE
:102EE000450428173907B9F490910204809103042E
:102EF000981789F0E0910204F0E0EC5FFB4F8081CD
:102F00002091020430E02F5F3F4F2F73332720932F
:102F1000020490E008958FEF9FEF08951F93CF93E1
:102F2000DF93DC015C968D919C915D97009739F45D
:102F300021E030E013963C932E9312973BC05196BC
:102F4000ED91FC91529750962C915097322F3095DD
:102F50001FB75E964C915E97742F727041FD60951D
:102F6000F8944081772311F0422B01C04323408322
:102F7000EC012197F1F748E0508160FF02C0522B2D
:102F800001C053235083EC012197F1F7669541501E
:102F900099F78081772319F08323808302C0282B3F
:102FA00020831FBF5C968D919C915D970197F1F7EF
:102FB00081E090E0DF91CF911F91089508952091D5
:102FC0004404309145042817390771F490910204A4
:102FD00080910304981741F0E0910204F0E0EC5F67
:102FE000FB4F808190E008958FEF9FEF089520912F
:102FF0004404309145042817390771F48091030483
:103000002091020490E0805C9F4F821B910960E454
:1030100070E00E943522089580E090E00895E091EC
:103020004404F0914504E817F90769F4A389B489C9
:103030009C918589809589238C93109245041092E8
:10304000440481E0089580E00895CF93DF93EC017C
:103050008A8D9B8D892BF1F08091440490914504D9
:10306000C817D907B9F0009711F00E940F188E8D7C
:103070008E7F8E8F1092030410920204D093450429
:10308000C0934404EB89FC8990818D89892B8083CE
:1030900081E001C080E0DF91CF9108951F920F92EF
:1030A0000FB60F9211242F933F934F935F936F931B
:1030B0007F938F939F93AF93BF93EF93FF93E09191
:1030C0004404F0914504309709F451C0968DA685CB
:1030D000B785858591FF04C09C91892329F447C059
:1030E0009C91892309F043C0A389B4899C91858967
:1030F000809589238C93868997890197F1F7608D54
:10310000718DA685B785558538E020E0CB01019704
:10311000F1F7822F90E095958795282F4C914523C4
:1031200009F02068315091F7868D81FD20958091BE
:10313000030490E001968F739927309102043817A9
:1031400049F0A0910304B0E0AC5FBB4F2C93809397
:10315000030403C0868D8160868F828D938D0197D5
:10316000F1F7A389B4899C918589892B8C93FF9170
:10317000EF91BF91AF919F918F917F916F915F91EF
:103180004F913F912F910F900FBE0F901F90189568
:103190002CE032E0FC01318320830C940F181F9344
:1031A000CF93DF93EC01162F6E8D6695617081E0F1
:1031B0006827812F0E94EF2061E0812F0E94B320B9
:1031C000812F90E0FC01EA53FF4FE491E88BFC0172
:1031D000E652FF4FE491F0E0EE0FFF1FE850FF4F83
:1031E000859194919A8B898BDF91CF911F9108954E
:1031F0001F93CF93DF93EC01162F60E0812F0E9485
:10320000B3208E8D81FD04C061E0812F0E94EF20EC
:103210001C87812F90E0FC01EA53FF4FE491ED877A
:10322000FC01E652FF4FE491F0E0EE0FFF1FE25188
:10323000FF4F859194919F878E87DF91CF911F914A
:1032400008951F93CF93DF93EC01162F1B821A82F0
:1032500088EE93E0A0E0B0E08C839D83AE83BF83D3
:103260008CE092E0998388831F8A1E8A198E188EBB
:103270001B8E1A8E1D8E1C8E8E8D8E7F20FB81F9EB
:103280008E8F642FCE010E94CF18612FCE01DF9167
:10329000CF911F910C94F818CF93DF93EC019A0112
:1032A000AB011B8E1A8E198E188E1F8A1E8A60E043
:1032B00079E08DE390E00E946B22F9012430310522
:1032C00018F0C901039702C081E090E09D8F8C8FB8
:1032D0006C85663108F069C0C9019695879584317F
:1032E000910510F0439702C081E090E09F8B8E8B98
:1032F000369718F0C901059702C081E090E0998FD8
:10330000888FC901880F991F280F391F3695279577
:10331000369527952D30310518F02C50310902C013
:1033200021E030E03B8F2A8F90916800683050F0A8
:1033300021E06E3008F420E081E001C0880F2A957A
:10334000EAF701C084E0892B809368009C8598305F
:1033500038F09E3040F0963148F020E030E008C070
:103360002DE630E005C02BE630E002C02CE630E070
:103370003C8B2B8B983030F481E001C0880F9A95FC
:10338000EAF70EC0292F30E09E3018F4285031099A
:1033900002C02E50310981E001C0880F2A95EAF75A
:1033A0008D8B8C8D9D8D0197F1F7CE01DF91CF91A3
:1033B0000C9425185058BB27AA270E94F2190C9488
:1033C0006C1B0E945E1B38F00E94651B20F039F4D4
:1033D0009F3F19F426F40C945B1B0EF4E095E7FB79
:1033E0000C94551BE92F0E947D1B58F3BA176207F6
:1033F00073078407950720F079F4A6F50C949F1BBA
:103400000EF4E0950B2EBA2FA02D0B01B9019001FF
:103410000C01CA01A0011124FF27591B99F0593F43
:1034200050F4503E68F11A16F040A22F232F342F8B
:103430004427585FF3CF469537952795A795F040D9
:103440005395C9F77EF41F16BA0B620B730B840BEE
:10345000BAF09150A1F0FF0FBB1F661F771F881FA6
:10346000C2F70EC0BA0F621F731F841F48F48795FE
:1034700077956795B795F7959E3F08F0B0CF9395F0
:10348000880F08F09927EE0F9795879508950E9469
:10349000311B08F481E008950E94601A0C946C1BA3
:1034A0000E94651B58F00E945E1B40F029F45F3FAC
:1034B00029F00C94551B51110C94A01B0C945B1B10
:1034C0000E947D1B68F39923B1F3552391F3951B5B
:1034D000550BBB27AA2762177307840738F09F5F35
:1034E0005F4F220F331F441FAA1FA9F335D00E2EA2
:1034F0003AF0E0E832D091505040E695001CCAF70F
:103500002BD0FE2F29D0660F771F881FBB1F2617D1
:1035100037074807AB07B0E809F0BB0B802DBF01A8
:10352000FF2793585F4F3AF09E3F510578F00C9477
:10353000551B0C94A01B5F3FE4F3983ED4F3869593
:1035400077956795B795F7959F5FC9F7880F911D98
:103550009695879597F90895E1E0660F771F881F84
:10356000BB1F621773078407BA0720F0621B730B37
:10357000840BBA0BEE1F88F7E09508950E94C51AD8
:103580006894B1110C94A01B08950E94851B88F0CB
:103590009F5798F0B92F9927B751B0F0E1F0660F17
:1035A000771F881F991F1AF0BA95C9F714C0B13058
:1035B00091F00E949F1BB1E008950C949F1B672F10
:1035C000782F8827B85F39F0B93FCCF38695779587
:1035D0006795B395D9F73EF4909580957095619570
:1035E0007F4F8F4F9F4F0895E89409C097FB3EF49B
:1035F00090958095709561957F4F8F4F9F4F992340
:10360000A9F0F92F96E9BB279395F69587957795BD
:103610006795B795F111F8CFFAF4BB0F11F460FF7D
:103620001BC06F5F7F4F8F4F9F4F16C0882311F0D5
:1036300096E911C0772321F09EE8872F762F05C0E9
:10364000662371F096E8862F70E060E02AF09A9584
:10365000660F771F881FDAF7880F9695879597F979
:103660000895990F0008550FAA0BE0E8FEEF161613
:103670001706E807F907C0F012161306E407F50766
:1036800098F0621B730B840B950B39F40A2661F0DA
:10369000232B242B252B21F408950A2609F4A1407D
:1036A000A6958FEF811D811D089597F99F6780E88A
:1036B00070E060E008959FEF80EC089500240A9484
:1036C0001616170618060906089500240A941216FD
:1036D0001306140605060895092E0394000C11F430
:1036E000882352F0BB0F40F4BF2B11F460FF04C0DD
:1036F0006F5F7F4F8F4F9F4F089557FD9058440F36
:10370000551F59F05F3F71F04795880F97FB991F40
:1037100061F09F3F79F087950895121613061406FD
:10372000551FF2CF4695F1DF08C01616170618068A
:10373000991FF1CF86957105610508940895E89465
:10374000BB2766277727CB0197F908950E94B91BFD
:103750000C946C1B0E945E1B38F00E94651B20F0CD
:10376000952311F00C94551B0C945B1B11240C94A5
:10377000A01B0E947D1B70F3959FC1F3950F50E035
:10378000551F629FF001729FBB27F00DB11D639F13
:10379000AA27F00DB11DAA1F649F6627B00DA11DB9
:1037A000661F829F2227B00DA11D621F739FB00D5F
:1037B000A11D621F839FA00D611D221F749F3327CF
:1037C000A00D611D231F849F600D211D822F762F68
:1037D0006A2F11249F5750409AF0F1F088234AF045
:1037E000EE0FFF1FBB1F661F771F881F91505040B1
:1037F000A9F79E3F510580F00C94551B0C94A01B1B
:103800005F3FE4F3983ED4F3869577956795B79537
:10381000F795E7959F5FC1F7FE2B880F911D969551
:10382000879597F90895FC01918D228D892F90E05D
:10383000805C9F4F821B91098F7399270895FC012B
:10384000918D828D981731F0828DE80FF11D858D55
:1038500090E008958FEF9FEF0895FC01918D828D88
:10386000981761F0828DDF01A80FB11D5D968C91D4
:10387000928D9F5F9F73928F90E008958FEF9FEFDF
:103880000895FC01538D448D252F30E0842F90E066
:10389000821B930B541710F0CF960895019708954B
:1038A0008CEA9DE1892B49F080E090E0892B29F09A
:1038B0000E94AC1D81110C9400000895FC01848DC0
:1038C000DF01A80FB11DA35ABF4F2C91848D90E04A
:1038D00001968F739927848FA689B7892C93A08925
:1038E000B1898C91837080648C93938D848D9813AF
:1038F00006C00288F389E02D80818F7D8083089542
:10390000EF92FF920F931F93CF93DF93EC0181E02F
:10391000888F9B8D8C8D981305C0E889F9898081EB
:1039200085FD26C0F62E0B8D10E00F5F1F4F0F7325
:103930001127E02E8C8DE8120CC00FB607FCFACFD1
:10394000E889F989808185FFF5CFCE010E945E1C50
:10395000F1CF8B8DFE01E80FF11DE35AFF4FF0828E
:103960009FB7F8940B8FEA89FB89808180620AC037
:103970009FB7F894EE89FF896083E889F98980818F
:103980008370806480839FBF81E090E0DF91CF915E
:103990001F910F91FF90EF900895CF93DF93EC016B
:1039A000888D8823C9F0EA89FB89808185FD05C05F
:1039B000A889B9898C9186FD0FC00FB607FCF5CF99
:1039C000808185FFF2CFA889B9898C9185FFEDCFE1
:1039D000CE010E945E1CE7CFDF91CF910895CF9278
:1039E000DF92EF92FF921F93CF93DF93EC016A0176
:1039F0007B01122FE889F98982E080834115514EBD
:103A000061057105B1F060E079E08DE390E0A70118
:103A100096010E944922DA01C9010197A109B10961
:103A2000B695A795979587959C01211580E1380754
:103A3000A8F0E889F989108260E874E88EE190E0E6
:103A4000A70196010E944922DA01C9010197A10943
:103A5000B109B695A795979587959C01EC85FD854D
:103A60003083EE85FF852083188EEC89FD891083D5
:103A7000EA89FB89808180618083EA89FB89808172
:103A800088608083EA89FB89808180688083EA89F5
:103A9000FB8980818F7D8083DF91CF911F91FF9083
:103AA000EF90DF90CF9008951F920F920FB60F9274
:103AB00011242F938F939F93EF93FF93E0915604DC
:103AC000F09157048081E0915C04F0915D0482FDE7
:103AD00012C0908180915F048F5F8F73209160048A
:103AE000821751F0E0915F04F0E0EA5BFB4F958FA5
:103AF00080935F0401C08081FF91EF919F918F912E
:103B00002F910F900FBE0F901F9018951F920F923C
:103B10000FB60F9211242F933F934F935F936F93A0
:103B20007F938F939F93AF93BF93EF93FF9386E41D
:103B300094E00E945E1CFF91EF91BF91AF919F9125
:103B40008F917F916F915F914F913F912F910F9046
:103B50000FBE0F901F90189586E494E00E94131CEE
:103B600021E0892B09F420E0822F0895E6E4F4E0B7
:103B70001382128288EE93E0A0E0B0E08483958304
:103B8000A683B7838EE192E09183808385EC90E0F9
:103B90009587848784EC90E09787868780EC90E017
:103BA000918B808B81EC90E0938B828B82EC90E008
:103BB000958B848B86EC90E0978B868B118E128E82
:103BC000138E148E08950E94D31F0E949C150E948C
:103BD0003106C0E5DCE10E9493062097E1F30E94E4
:103BE000501CF9CFCF92DF92EF92FF920F931F9369
:103BF000CF93DF936C017A018B01C0E0D0E0CE154A
:103C0000DF0581F0D8016D918D01D601ED91FC9118
:103C10000190F081E02DC6010995892B11F02196C4
:103C2000EECF7E01C701DF91CF911F910F91FF90E1
:103C3000EF90DF90CF900895EF92FF920F931F9334
:103C4000CF93DF938C017B01C0E0D0E0F701EC0F54
:103C5000FD1F6491662361F0D801ED91FC91019004
:103C6000F081E02DC8010995892B11F02196EECF46
:103C7000CE01DF91CF911F910F91FF90EF900895AA
:103C80000C941B05DC01ED91FC910190F081E02D7D
:103C900009946CE272E00C941B050F931F93CF9371
:103CA000DF93EC010E941B058C01CE010E94491E8E
:103CB000800F911FDF91CF911F910F9108958F92E7
:103CC0009F92AF92BF92EF92FF920F931F93CF9369
:103CD000DF93CDB7DEB7A1970FB6F894DEBF0FBE66
:103CE000CDBF7C01FA01CB0119A2223008F42AE0F1
:103CF0008E010F5D1F4F822E912CA12CB12CBF0184
:103D0000A50194010E944922F901CA01015011093B
:103D10006A3010F4605D01C0695CD8016C93232B9C
:103D2000242B252B61F7B801C7010E941B05A19622
:103D30000FB6F894DEBF0FBECDBFDF91CF911F91BC
:103D40000F91FF90EF90BF90AF909F908F9008954C
:103D50002115310541F4DC01ED91FC910190F081D8
:103D6000E02D642F09940C945F1E9A01462F50E0B9
:103D700060E070E00C94A81E0F931F93CF93DF9325
:103D8000EC010E94B51E8C01CE010E94491E800FDD
:103D9000911FDF91CF911F910F910895CF92DF92E4
:103DA000EF92FF920F931F93CF93DF93211531056D
:103DB00081F4DC01ED91FC910190F081E02D642F04
:103DC000DF91CF911F910F91FF90EF90DF90CF90F7
:103DD00009942A30310501F577FF1DC06A017B0186
:103DE000EC016DE20E94421E8C0144275527BA0166
:103DF0004C195D096E097F092AE0CE010E945F1E01
:103E0000800F911FDF91CF911F910F91FF90EF9045
:103E1000DF90CF9008952AE0DF91CF911F910F910D
:103E2000FF90EF90DF90CF900C945F1E9A01AB0152
:103E3000770F660B770B0C94CE1E1F920F920FB666
:103E40000F9211242F933F938F939F93AF93BF9320
:103E50008091E4049091E504A091E604B091E70418
:103E60003091E30423E0230F2D3720F40196A11DA8
:103E7000B11D05C026E8230F0296A11DB11D209398
:103E8000E3048093E4049093E504A093E604B093E4
:103E9000E7048091E8049091E904A091EA04B091CC
:103EA000EB040196A11DB11D8093E8049093E904F1
:103EB000A093EA04B093EB04BF91AF919F918F91CF
:103EC0003F912F910F900FBE0F901F9018953FB705
:103ED000F8948091E8049091E904A091EA04B091EB
:103EE000EB0426B5A89B05C02F3F19F00196A11D34
:103EF000B11D3FBFBA2FA92F982F8827820F911D80
:103F0000A11DB11DBC01CD0142E0660F771F881FC6
:103F1000991F4A95D1F708958F929F92AF92BF92C1
:103F2000CF92DF92EF92FF926B017C010E94671F9C
:103F30004B015C01C114D104E104F10401F10E94C0
:103F400034220E94671FDC01CB0188199909AA0954
:103F5000BB09883E9340A105B10560F321E0C21A78
:103F6000D108E108F10888EE880E83E0981EA11CB4
:103F7000B11CC114D104E104F10419F7DBCFFF90A7
:103F8000EF90DF90CF90BF90AF909F908F9008956B
:103F90008230910538F0880F991F880F991F059777
:103FA0000197F1F70895789484B5826084BD84B553
:103FB000816084BD85B5826085BD85B5816085BD24
:103FC000EEE6F0E0808181608083E1E8F0E010823D
:103FD000808182608083808181608083E0E8F0E07E
:103FE000808181608083E1EBF0E080818460808368
:103FF000E0EBF0E0808181608083EAE7F0E080819F
:1040000084608083808182608083808181608083FE
:104010008081806880831092C10008958E3008F0FE
:104020008E5020913D0190E4299F900111248770CA
:10403000822B80937C0080917A00806480937A0048
:1040400080917A0086FDFCCF8091780020917900E4
:1040500090E0922B08951F93CF93DF93182FEB01DD
:1040600061E00E94B320209711F460E004C0CF3FCC
:10407000D10539F461E0812FDF91CF911F910C942C
:10408000EF20E12FF0E0EE54FF4FE491E330F9F040
:1040900048F4E130B9F0E230A1F584B5806284BD26
:1040A000C8BD34C0E730E9F0E83019F1E43049F533
:1040B00080918000806280938000D0938B00C093B9
:1040C0008A0024C084B5806884BDC7BD1FC08091AC
:1040D0008000806880938000D0938900C09388001E
:1040E00015C08091B00080688093B000C093B30089
:1040F0000DC08091B00080628093B000C093B40086
:1041000005C0C038D1050CF0B5CFAFCFDF91CF914E
:104110001F910895833081F028F4813099F0823026
:10412000A1F008958730A9F08830B9F08430D1F437
:10413000809180008F7D03C0809180008F77809375
:104140008000089584B58F7702C084B58F7D84BDCB
:1041500008958091B0008F7703C08091B0008F7D6B
:104160008093B0000895CF93DF9390E0FC01EA5371
:10417000FF4F2491FC01E652FF4F8491882361F1A7
:1041800090E0880F991FFC01EE5FFE4FC591D4911E
:10419000FC01E850FF4FA591B491611109C09FB790
:1041A000F8948881209582238883EC912E230BC07C
:1041B000623061F49FB7F8948881322F3095832361
:1041C0008883EC912E2B2C939FBF06C08FB7F89459
:1041D000E8812E2B28838FBFDF91CF9108951F9305
:1041E000CF93DF93282F30E0F901EE54FF4F8491F5
:1041F000F901EA53FF4FD491F901E652FF4FC49100
:10420000CC23C1F0162F81110E948A20EC2FF0E000
:10421000EE0FFF1FE850FF4FA591B4919FB7F894A0
:10422000111104C08C91D095D82302C0EC91DE2BE3
:10423000DC939FBFDF91CF911F910895009709F400
:1042400074C01092ED041092EC041092FA041092D3
:10425000F9041092F5041092F6041092F7041092EB
:10426000F8041092F004209180002093FF04209124
:1042700081002093FE041092810010928000109221
:1042800085001092840021E026BB10926F002091DF
:10429000B0002093FD042091B1002093FC04109203
:1042A000B10022E02093B0009C0127703327232B1C
:1042B00051F443E0969587954A95E1F72CE72093D2
:1042C000B30027E018C09C0123703327232B31F45F
:1042D000969587959695879529EF05C080FD07C02F
:1042E000969587952CE72093B30026E004C02CE731
:1042F0002093B30025E02093FB0422E027BB10921B
:10430000B2009093EF048093EE049FB7F89423BD1E
:104310008091FB048093B100209370008BE081506A
:10432000F1F787E0809381009FBF08958091F004AA
:1043300008952FB7F8946091F1047091F204809180
:10434000F3049091F4041092F0042FBF0895E1EB70
:10435000F0E01082109270008091FD048093B00014
:104360008091FC048083E1E8F0E010828091FF04FA
:10437000809380008091FE04808308951F920F92A5
:104380000FB60F9211240F931F932F933F934F93C8
:104390005F936F937F938F939F93AF93BF9320917E
:1043A000840030918500B09B0BC081E086BB80917A
:1043B000F9049091FA0401969093FA048093F90419
:1043C0008091EC049091ED0401964091EE0450919F
:1043D000EF048417950798F11092ED041092EC0405
:1043E0008091F9049091FA04A0E0B0E0DC019927F3
:1043F0008827820F931FA11DB11D4091F504509194
:10440000F6046091F7047091F8048C019D01041B7F
:10441000150B260B370B0093F1041093F204209335
:10442000F3043093F4048093F5049093F604A0937E
:10443000F704B093F80481E08093F00404C09093F3
:10444000ED048093EC04BF91AF919F918F917F9188
:104450006F915F914F913F912F911F910F910F900D
:104460000FBE0F901F901895089597FB072E16F416
:10447000009407D077FD09D00E949B2207FC05D04D
:104480003EF4909581959F4F0895709561957F4F6B
:104490000895A1E21A2EAA1BBB1BFD010DC0AA1F85
:1044A000BB1FEE1FFF1FA217B307E407F50720F09D
:1044B000A21BB30BE40BF50B661F771F881F991F18
:1044C0001A9469F760957095809590959B01AC0161
:1044D000BD01CF010895052E97FB1EF400940E94A4
:1044E000822257FD07D00E94492207FC03D04EF4D8
:1044F0000C94822250954095309521953F4F4F4F17
:104500005F4F089590958095709561957F4F8F4F7F
:104510009F4F0895EE0FFF1F0590F491E02D099431
:104520000E94AF22A59F900DB49F900DA49F800D77
:10453000911D11240895AA1BBB1B51E107C0AA1F9E
:10454000BB1FA617B70710F0A61BB70B881F991F34
:104550005A95A9F780959095BC01CD010895A29F29
:10456000B001B39FC001A39F700D811D1124911D47
:10457000B29F700D811D1124911D08950F931F93FB
:10458000CF93DF938230910510F482E090E0E091C8
:104590000205F091030520E030E0A0E0B0E03097A4
:1045A00019F1408151810281138148175907C8F0E0
:1045B0008417950769F4109731F012960C931297AF
:1045C00013961C9327C0009302051093030522C085
:1045D0002115310519F04217530718F49A01BD014E
:1045E000EF01DF01F801DBCF21153105F9F0281BC0
:1045F000390B2430310580F48A819B816115710566
:1046000021F0FB019383828304C090930305809380
:104610000205FE01329644C0FE01E20FF31F8193B2
:10462000919322503109398328833AC020910005A3
:1046300030910105232B41F42091020130910301B7
:104640003093010520930005209100013091010174
:104650002115310541F42DB73EB740910401509129
:104660000501241B350BE0910005F0910105E217CF
:10467000F307A0F42E1B3F0B2817390778F0AC0185
:104680004E5F5F4F2417350748F04E0F5F1F509362
:104690000105409300058193919302C0E0E0F0E0B2
:1046A000CF01DF91CF911F910F910895CF93DF93A9
:1046B000009709F481C0FC01329713821282A09105
:1046C0000205B0910305109781F420813181820F9A
:1046D000931F20910005309101052817390751F5E6
:1046E000F0930105E093000567C0ED0120E030E0A4
:1046F000CE17DF0740F44A815B819E0141155105C9
:10470000F1F0EA01F5CFD383C28340815181840F58
:10471000951FC817D90759F488819981840F951F6F
:104720000296918380838A819B8193838283211562
:10473000310529F4F0930305E09302053DC0E9013A
:10474000FB83EA8349915991C40FD51FEC17FD07EC
:1047500061F480819181840F951F0296E90199830C
:104760008883828193819B838A83E0E0F0E01296C4
:104770008D919C911397009719F0FD01DC01F7CF03
:104780008D919C9111979D012E5F3F4F820F931F3A
:1047900020910005309101052817390769F43097F9
:1047A00029F4109203051092020502C013821282AE
:1047B000B0930105A0930005DF91CF910895FB010F
:1047C000DC0102C001900D9241505040D8F708958D
:1047D000DC0101C06D9341505040E0F7089510E0B6
:1047E000CAE8D0E004C0FE010E948A222196CC389B
:0847F000D107C9F7F894FFCFCF
:1047F800000004052000000000003C003F006B00A2
:104808000000000023002400460041C409FF00FF07
:1048180000FF0000000000FF000000FF000000FF94
:104828000000000000000026430000CA43014000C9
:104838003E005A004A004D00780047004A007B00BD
:104848003D003E005B003C003C00650032003F003C
:104858005A004000430072004400410072003400D6
:104868003C005A00340034005E003A003500600015
:1048780030003600560031003000580036002E0057
:10488800580032002C00560034002A0052002F0035
:104898002B005200633A2000726561645F696E3ACA
:1048A800200052474200436F6C6F7253656E736FFE
:1048B80072005048616E6454656D706572617475FC
:1048C800726500616D6D6F6E69613A006E69747230
:1048D8006174653A006E6974726974653A0070684B
:1048E8003A0074656D703A0049444C4500546D7245
:1048F8002053766300000102000000008E17F21DAD
:104908006A17DE17F7176D17DF1700000000801C05
:10491800F21D411CCD1C131C2D1C1F1C0D0A006E02
:0C492800616E00696E66006F766600002C
:00000001FF
