:100000000C947C000C94A4000C94A4000C94901309
:100010000C9490130C9490130C94D5070C94271BFC
:100020000C94A4000C94A4000C94A4000C94A400C0
:100030000C94A4000C94A4000C94A4000C94A400B0
:100040000C94AE180C94A4000C94E5160C9417179D
:100050000C94A4000C94A4000C94A4000C94A40090
:100060000C94A4000C94A4009A109A109A10D91021
:10007000C410D3109A109A10D910C4100A466F7584
:100080006E64204D61746368696E6720436F6C6FA6
:1000900072000000000800020100000304070000D5
:1000A000000000000000010204081020408001024E
:1000B00004081020010204081020040404040404AD
:1000C000040402020202020203030303030300000A
:1000D0000000230026002900000000002500280061
:1000E0002B0000000000240027002A00290434040B
:1000F0008E0547173004950511241FBECFEFD8E0B9
:10010000DEBFCDBF12E0A0E0B1E0EAECFAE302C04E
:1001100005900D92A032B107D9F724E0A0E2B2E039
:1001200001C01D92A03EB207E1F710E0CAE7D0E09F
:1001300004C02197FE010E94F31BC637D107C9F7FF
:100140000E9474170C94581D0C9400000F931F9379
:10015000CF93DF93CDB7DEB72A970FB6F894DEBF03
:100160000FBECDBF80E292E00E949F1186E0E3E3E4
:10017000F1E0DE01159601900D928A95E1F7198262
:100180001A821B821C828AE0FE013196ACEEB2E03C
:1001900001900D928A95E1F786E0E9E3F1E0DE0156
:1001A000159601900D928A95E1F78AE0FE0131964D
:1001B000A6EAB2E001900D928A95E1F786E0EFE3BE
:1001C000F1E0DE01159601900D928A95E1F78AE043
:1001D000FE013196A0E6B2E001900D928A95E1F71A
:1001E00086E0E5E4F1E0DE01159601900D928A9536
:1001F000E1F740E050E060E07FE349835A836B839E
:100200007C838AE0FE013196A6EFB2E001900D9268
:100210008A95E1F786E0EFE3F1E0DE0115960190C3
:100220000D928A95E1F78AE999E9A9E1BEE389830C
:100230009A83AB83BC838AE0FE013196A0EBB2E0E7
:1002400001900D928A95E1F786E0EBE4F1E0DE01A2
:10025000159601900D928A95E1F749835A836B8335
:100260007C838AE0FE013196AAE6B2E001900D920D
:100270008A95E1F786E0E1E5F1E0DE01159601906F
:100280000D928A95E1F740E050E060E87FE3498312
:100290005A836B837C838AE0FE013196A0E0B3E051
:1002A00001900D928A95E1F786E0E7E5F1E0DE0145
:1002B000159601900D928A95E1F78AE999E9A9E9E5
:1002C000BEE389839A83AB83BC838AE0FE013196C7
:1002D000AAEBB2E001900D928A95E1F786E0EDE598
:1002E000F1E0DE01159601900D928A95E1F780E02C
:1002F00090E0A0E0B0E489839A83AB83BC838AE07A
:10030000FE013196A4E7B2E001900D928A95E1F7E3
:1003100086E0E3E6F1E0DE01159601900D928A9504
:10032000E1F700E010E020E430E409831A832B8336
:100330003C838AE0FE013196AAE0B3E001900D9281
:100340008A95E1F786E0E9E6F1E0DE011596019095
:100350000D928A95E1F749835A836B837C838AE007
:10036000FE013196A4ECB2E001900D928A95E1F77E
:1003700086E0EFE6F1E0DE01159601900D928A9598
:10038000E1F780E090E0A0EAB0E489839A83AB8350
:10039000BC838AE0FE013196AEE7B2E001900D9297
:1003A0008A95E1F786E0E5E7F1E0DE011596019038
:1003B0000D928A95E1F780E090E0A0ECB0E48983AB
:1003C0009A83AB83BC838AE0FE013196A4E1B3E05B
:1003D00001900D928A95E1F786E0EBE7F1E0DE010E
:1003E000159601900D928A95E1F780E090E0A0ECDF
:1003F000BFE389839A83AB83BC838AE0FE01319695
:10040000AEECB2E001900D928A95E1F786E0EBE761
:10041000F1E0DE01159601900D928A95E1F740E03A
:1004200050E060E271E449835A836B837C838AE005
:10043000FE013196A8E8B2E001900D928A95E1F7AD
:1004400086E0E1E8F1E0DE01159601900D928A95D3
:10045000E1F709831A832B833C838AE0FE013196FE
:10046000A8EDB2E001900D928A95E1F786E0E7E809
:10047000F1E0DE01159601900D928A95E1F780E09A
:1004800090E0A0EAB1E489839A83AB83BC838AE0DD
:10049000FE013196A2E9B2E001900D928A95E1F752
:1004A00086E0EDE8F1E0DE01159601900D928A9567
:1004B000E1F749835A836B837C838AE0FE0131969E
:1004C000A2EEB2E001900D928A95E1F786E0E3E9B1
:1004D000F1E0DE01159601900D928A95E1F780E03A
:1004E00090E0A8E4B2E489839A83AB83BC838AE07A
:1004F000FE013196ACE9B2E001900D928A95E1F7E8
:100500002A960FB6F894DEBF0FBECDBFDF91CF9114
:100510001F910F91089569E971E082E294E00E94D1
:10052000D11760915702709158024AE050E082E280
:1005300094E00E94A7186BE971E082E294E00E94C7
:10054000D1176091590270915A024AE050E082E25C
:1005500094E00E94A7186BE971E082E294E00E94A7
:10056000D11760915B0270915C024AE050E082E238
:1005700094E00E94A7186DE971E082E294E00E9485
:10058000D1174AE050E06091510282E294E00E946B
:1005900046186BE971E082E294E00E94D1174AE0CC
:1005A00050E06091520282E294E00E9446186BE9AA
:1005B00071E082E294E00E94D1174AE050E060913D
:1005C000500282E294E00E9446182091510230E0ED
:1005D0008091570290915802AC014550510924175F
:1005E000350774F105968217930754F12091520252
:1005F00030E08091590290915A02AC014550510966
:1006000024173507ECF0059682179307CCF020915C
:10061000500230E080915B0290915C02AC01455049
:1006200051092417350764F005968217930744F0A3
:100630006CE770E082E294E00E94AD1781E00895DB
:1006400080E008950F931F93CF93DF9380914F0223
:10065000813009F444C040F0823009F068C006EAF5
:1006600012E0C0E0D0E026C00CEE12E0C0E0D0E026
:100670008AE0F801A3E5B2E001900D928A95E1F7D6
:100680000E948B02882349F08AE08C9FF0018D9FA5
:10069000F00D1124E451FD4F3AC02196065F1F4F23
:1006A000C530D10529F73EC02196065F1F4FC730E0
:1006B000D105C1F18AE0F801A3E5B2E001900D9205
:1006C0008A95E1F70E948B02882371F38AE08C9F60
:1006D000F0018D9FF00D1124EA55FD4F18C000E682
:1006E00012E0C0E0D0E08AE0F801A3E5B2E00190BA
:1006F0000D928A95E1F70E948B02882369F08AE0C7
:100700008C9FF0018D9FF00D1124E05AFD4F308138
:100710002181928183810AC02196065F1F4FC730D5
:10072000D10509F730E020E090E88FEBAC01632FB2
:10073000722F852F942FDF91CF911F910F910895E4
:1007400080934F0280E292E00E94941280E292E055
:100750000E949E128823D1F36DE572E080E292E060
:100760000E94CA1180915E028093520280915D02C4
:100770008093510280915F028093500267EA71E09A
:1007800082E294E00E94DE174AE050E0609151025C
:1007900082E294E00E944D184AE050E060915202DB
:1007A00082E294E00E944D184AE050E060915002CD
:1007B00082E294E00E944D180E9422030E942115BB
:1007C0000895CF9380934F0280E292E00E949412AA
:1007D00080E292E00E949E128823D1F36DE572E0E0
:1007E00080E292E00E94CA1180915E0280935202E0
:1007F00080915D028093510280915F02809350024C
:100800008AE0E0E1F1E0A3E5B2E001900D928A9583
:10081000E1F70E948B029AE0E6E0F1E0A3E5B2E0A6
:1008200001900D929A95E1F7811105C00E948B020B
:10083000C82F882359F00E942203C1E020E030E055
:1008400040E85FEB0E941C158111C0E08C2FCF9116
:10085000089528E04DE06CE080E292E00C942D11C8
:1008600080E292E00C94411166E08EE193E00C94FA
:10087000A5056115710579F0FB0101900020E9F7EC
:100880003197AF01461B570BDC01ED91FC910280C3
:10089000F381E02D099480E090E00895CF93DF93F9
:1008A00000D000D000D0CDB7DEB749835A836B8328
:1008B0007C838D839E8369817A818FE00E94941965
:1008C0006B817C8180E10E9494196D817E8181E140
:1008D00026960FB6F894DEBF0FBECDBFDF91CF9145
:1008E0000C9494190E944D0CC4E640911B01509148
:1008F0001C0160911D0170911E0180911F0190915A
:1009000020010E944E0480911A018E3461F18E36CE
:1009100009F44FC0813409F07FC080E00E94E103F8
:100920008111FBCF40912D0150912E0160912F013B
:100930007091300180913101909132010E944E04FA
:1009400068EE73E080E090E00E941D1980E00E9454
:10095000A003C69F9001C79F300D1124309354030C
:100960002093530359C082E00E94E1038111FBCF21
:100970004091210150912201609123017091240145
:1009800080912501909126010E944E0468EE73E04B
:1009900080E090E00E941D1982E00E94A003C69FA3
:1009A0009001C79F300D11243093500320934F03C3
:1009B00033C081E00E94E1038111FBCF4091270108
:1009C000509128016091290170912A0180912B0199
:1009D00090912C010E944E0468EE73E080E090E05C
:1009E0000E941D1981E00E94A003C69F9001C79F2D
:1009F000300D11243093520320935103409155033D
:100A00005091560360915703709158038091590398
:100A100090915A030E944E04409155035091560301
:100A200060915703709158038091590390915A0334
:100A30000E944E0488EB9BE00E94720D56CF61E04D
:100A40008FE00E941C1A61E080E10E941C1A61E0A4
:100A500081E10E941C1A4091550350915603609108
:100A60005703709158038091590390915A030C9445
:100A70004E04EF92FF920F9340E052EC61E070E081
:100A80008CE293E00E948E1461E08AE00E941C1ABE
:100A900061E084E00E941C1A61E084E00E94581A20
:100AA00026E040E052EC61E070E082E294E00E94D7
:100AB000801661E08AE00E94581A0E94A6000E94F7
:100AC0001F0580914D0390914E03892B91F443E0D3
:100AD00060E081E00E94CD0890934E0380934D0327
:100AE000009739F020E040E050E060E070E00E94C4
:100AF000F5088BE4E82E83E0F82E02E020E030E0F9
:100B000040E850E06BEA71E082E794E00E940D0B50
:100B10000F91FF90EF900C94190C089520E043E0A2
:100B200062E08CE293E00C9463148CE293E00C940A
:100B30000A14FC01138615861486DC011B96339675
:100B40001E92AE17BF07E1F708951F93CF93DF936F
:100B5000EC01162F60E0812F0E941C1A612F70E0BB
:100B6000FB01EA55FF4FE491E883FB01E654FF4F98
:100B7000E491F0E0EE0FFF1FE253FF4F8591949157
:100B80009A838983CE01DF91CF911F910C949905AF
:100B9000CF93DF93EC010E94470CCE010E94271CEB
:100BA000EC010E94030D209711F40E94EC10CE017D
:100BB000DF91CF910895CF93DF93009751F0EC012F
:100BC0000E94470CCE010E94BF1CDF91CF910C9474
:100BD000030DDF91CF910895FC01039692838183E9
:100BE0002FEF3FEF3483238396838583908787831A
:100BF00010820895FC01118610860895CF93DF932B
:100C00009C01FB01DC011196CD91DC911297D383FD
:100C1000C2838C819D81958384838C819D81DC013D
:100C200013967C936E9312977D836C833187208714
:100C3000F90180818F5F8083DF91CF9108950F93B9
:100C40001F93CF93DF938C01FB01808191818F3FB4
:100C50002FEF920721F4E801AF81B8850EC0D801CB
:100C6000139612962D913C911397E9014881598171
:100C70008417950710F0D901F4CF12968D919C91AD
:100C8000139793838283EC01FD83EC83B583A48364
:100C90001396FC93EE93129711870087F8018081D9
:100CA0008F5F8083DF91CF911F910F910895CF9334
:100CB000DF93FC01A085B1858281938124813581F8
:100CC000EC013D832C83C481D5819B838A8311965B
:100CD0008D919C911297E817F90721F41296DC93F5
:100CE000CE931197118610868C9181508C938C91A4
:100CF000DF91CF91089531E1FC013083319722E2F9
:100D000020833197A3E3A083319760833197708369
:100D100031971082319760E8608331971082319764
:100D200062E06083319763E06083319764E06083C1
:100D3000319765E06083319766E06083319767E0C3
:100D40006083319768E06083319769E06083319711
:100D500060E1608331973083319732E1308331979E
:100D600033E13083319734E13083319735E130839B
:100D7000319736E13083319737E13083319738E16D
:100D80003083319739E13083319730E230833197C6
:100D900031E2308331972083319723E220833197EA
:100DA000408331975083319726E22083319727E2A1
:100DB0002083319728E22083319729E220833197DD
:100DC00020E32083319721E3208386970895A89517
:100DD00090EC88E10FB6F894A895809360000FBE60
:100DE00090936000A091BF03B091C003CD91CDBF9F
:100DF000DD91DEBFFF91EF91DF91CF91BF91AF9178
:100E00009F918F917F916F915F914F913F912F9122
:100E10001F910F91FF90EF90DF90CF90BF90AF9018
:100E20009F908F907F906F905F904F903F902F900A
:100E30001F900F900FBE0F90089581E008950F92BC
:100E40000FB6F8940F921F9211242F923F924F9257
:100E50005F926F927F928F929F92AF92BF92CF924A
:100E6000DF92EF92FF920F931F932F933F934F9335
:100E70005F936F937F938F939F93AF93BF93CF9322
:100E8000DF93EF93FF93A091BF03B091C0030DB622
:100E90000D920EB60D920E94870DA091BF03B091E6
:100EA000C003CD91CDBFDD91DEBFFF91EF91DF910A
:100EB000CF91BF91AF919F918F917F916F915F91F2
:100EC0004F913F912F911F910F91FF90EF90DF90E5
:100ED000CF90BF90AF909F908F907F906F905F90DA
:100EE0004F903F902F901F900F900FBE0F9008953E
:100EF0000F920FB6F8940F921F9211242F923F92E7
:100F00004F925F926F927F928F929F92AF92BF9219
:100F1000CF92DF92EF92FF920F931F932F933F9305
:100F20004F935F936F937F938F939F93AF93BF93F1
:100F3000CF93DF93EF93FF93A091BF03B091C003D2
:100F40000DB60D920EB60D9213BE0E94570C811174
:100F50000E94870DA091BF03B091C003CD91CDBF7A
:100F6000DD91DEBFFF91EF91DF91CF91BF91AF9106
:100F70009F918F917F916F915F914F913F912F91B1
:100F80001F910F91FF90EF90DF90CF90BF90AF90A7
:100F90009F908F907F906F905F904F903F902F9099
:100FA0001F900F900FBE0F9008950E94780718951C
:100FB0000FB6F8940F92FC01928D0F900FBE81E056
:100FC000911180E008950F931F93CF93DF93EC016D
:100FD000042F1A8D4C8D41110BC088819981892B6A
:100FE000E9F58C819D810E949E0E1D821C8237C076
:100FF00050E0011115C08A819B810E94481D2C8DF3
:101000008A819B81820F911D9B838A832C813D81E4
:101010008217930718F1888199819B838A831EC068
:101020008E819F810E94481D8C8D90E091958195C5
:1010300091092E813F81280F391F3F832E834881DC
:1010400059812417350730F42C813D81820F931F7D
:101050009F838E83023011F41111115080E01F5FC5
:101060001A8FDF91CF911F910F910895FC01CB0151
:10107000448D4423A1F050E026813781240F351F91
:1010800037832683648175812617370720F02081F6
:10109000318137832683668177810C94481D0895BA
:1010A000EF92FF921F93CF93DF93EC010FB6F8946A
:1010B0000F921E8D7C0181E1E80EF11C11165CF48B
:1010C0008989882341F0C7010E940E0E81110E9478
:1010D0008C0E1150F3CF8FEF8E8F0F900FBE0FB687
:1010E000F8940F921D8D7E0188E0E80EF11C111618
:1010F0005CF48885882341F0C7010E940E0E81119F
:101100000E948C0E1150F3CF8FEF8D8F0F900FBE7A
:10111000DF91CF911F91FF90EF900895CF93DF93D0
:10112000EC010FB6F8940F92488159818B8D7C8D1C
:101130009A01879F200D311D11243D832C831A8E27
:101140005B834A8390E00197789F9001799F300DEF
:101150001124CA01820F931F9F838E838FEF8D8F7F
:101160008E8F61110CC08885882389F0CE01089686
:101170000E940E0E882359F00E941F0708C0CE015E
:1011800008960E94EC05CE0141960E94EC050F9056
:101190000FBE81E0DF91CF9108950F931F93CF93FE
:1011A000DF93082F162F662321F0869FC00111249C
:1011B00002C080E090E04F960E94C805EC010097C5
:1011C00071F0111103C09983888303C04F969983EE
:1011D00088830B8F1C8F61E0CE010E948E08CE01A8
:1011E000DF91CF911F910F910895AF92BF92CF924F
:1011F000DF92FF920F931F93CF93DF9300D000D025
:101200001F92CDB7DEB78C016B015D834C83F22E4C
:1012100080E0580198E0A90EB11C0FB6F8940F9227
:10122000F801228D938D291718F0F2E0FF1214C0F7
:101230004F2DB601C8010E94E307F8019189992357
:1012400021F0C80141960E940E0E81110E941F07D5
:101250000F900FBE81E050C02C813D81232B19F4EB
:101260000F900FBE48C0811104C0CE0101960E94AC
:101270004E0E0F900FBE0E94470C0FB6F8940F92BF
:10128000F801858D8F3F09F4158EF801868D8F3F0B
:1012900009F4168E0F900FBEBE016C5F7F4FCE011A
:1012A00001960E94590E811121C00FB6F8940F9239
:1012B000F801928D838D0F900FBE981311C06C8131
:1012C0007D81C5010E94E50DC8010E9450080E9461
:1012D000030D882311F081E0A0CF0E941F07FBCFF0
:1012E000C8010E9450080E94030DF5CFC8010E945A
:1012F00050080E94030D80E00F900F900F900F9008
:101300000F90DF91CF911F910F91FF90DF90CF90C1
:10131000BF90AF900895EF92FF921F93CF93DF930A
:10132000EC019A8D8B8D981710F02230E1F47A0140
:101330001E8D422FCE010E94E3071F3F81F4898951
:10134000882379F0CE0141960E940E0E882349F041
:10135000E114F10431F081E0F701808305C01F5FE3
:101360001E8F81E001C080E0DF91CF911F91FF903F
:10137000EF900895AF92BF92CF92DF92FF920F93BA
:101380001F93CF93DF9300D000D01F92CDB7DEB76D
:101390008C016B015D834C8380E0580191E1A90EC3
:1013A000B11C0FB6F8940F92F801F28CFF20A9F04F
:1013B000B601C8010E943608FA94F801F28E8085C1
:1013C000882339F0C80108960E940E0E81110E94F0
:1013D0001F070F900FBE81E050C02C813D81232B51
:1013E00019F40F900FBE48C0811104C0CE010196C0
:1013F0000E944E0E0F900FBE0E94470C0FB6F8943D
:101400000F92F801858D8F3F09F4158EF801868DB6
:101410008F3F09F4168E0F900FBEBE016C5F7F4F99
:10142000CE0101960E94590E81111CC0C8010E9474
:10143000D807882389F06C817D81C5010E94E50D64
:10144000C8010E9450080E94030D882311F081E01A
:10145000A8CF0E941F07FBCFC8010E9450080E941E
:10146000030DF5CFC8010E9450080E94030DC8016A
:101470000E94D807882359F380E00F900F900F90B7
:101480000F900F90DF91CF911F910F91FF90DF9000
:10149000CF90BF90AF900895CF93DF93EC010FB63C
:1014A000F8940F928D8D8F3F09F41D8E8E8D8F3F96
:1014B00009F41E8E0F900FBE8A8D811104C0CE01DB
:1014C00041960E94F60DCE01DF91CF910C94500809
:1014D000E0918703F09188038081811103C08FEF31
:1014E0009FEF0CC0E0918703F09188030580F6819F
:1014F000E02D0680F781E02D8281938190935F0338
:1015000080935E030895FF920F931F93CF93DF9311
:10151000EC01F62E00916603109167038091BF03E2
:101520009091C00302960E945706CF3F8FEFD807D5
:1015300089F4FF2079F06091BF037091C0036E5F62
:101540007F4F89E693E0DF91CF911F910F91FF903C
:101550000C94FE05C00FD11FE091BF03F091C003B2
:10156000D383C2836091BF037091C003C017D107BA
:1015700068F480918503909186036E5F7F4FDF91C1
:10158000CF911F910F91FF900C941F0680918703BC
:10159000909188036E5F7F4F0E941F0680915E03CB
:1015A00090915F03C817D90720F4D0935F03C093CD
:1015B0005E03DF91CF911F910F91FF90089580916D
:1015C0007203882309F10FB6F8940F92E091780323
:1015D000F0917903C681D781CE0102960E94570609
:1015E00080916803815080936803809172038150D9
:1015F000809372030F900FBE8F89988D0E94DB0538
:10160000CE010E94DB05DBCF80919B03823010F07E
:101610000E941F070E94E310D2CF5F926F927F92C9
:101620008F929F92AF92BF92CF92DF92EF92FF92F2
:101630000F931F93CF93DF933C016B015A01490134
:10164000502ECA010E94C8058C01892B09F4E0C004
:1016500088E290E00E94C805EC01892BC9F0188F40
:101660000F8BA50165EA70E0C8010E94511D21E0C1
:10167000A21AB1088F89988DA80EB91EC114D10481
:10168000C9F0BE01675E7F4FF601C601089607C02C
:10169000C8010E94DB05BCC0E817F90749F09F01AB
:1016A0004191DB014D93BD01D9012C912111F4CF62
:1016B00018A201C0198E052D043008F003E00E8B2E
:1016C00009A31AA26E01B2E0CB0ED11CC6010E9482
:1016D000FA05CE010C960E94FA05D987C88784E0E6
:1016E00090E0801B91099D878C87DB8BCA8B1BA2A6
:1016F0001CA21DA21EA21FA2A401B301C5010E942B
:101700007B0699838883E114F10419F0F701D183F2
:10171000C0830FB6F8940F92809168038F5F809317
:1017200068038091BF039091C003892BD1F5D093BA
:10173000C003C093BF0380916803813009F041C0AA
:101740008BE993E00E94EC0584EA93E00E94EC05AB
:101750008DEA93E00E94EC0586EB93E00E94EC0595
:1017600082E993E00E94EC0589E893E00E94EC0591
:101770008CE793E00E94EC0583E793E00E94EC0580
:1017800089E693E00E94EC0582E993E09093880358
:101790008093870389E893E0909386038093850381
:1017A00010C08091640381110CC0E091BF03F091DF
:1017B000C00396898E89891720F0D093C003C09307
:1017C000BF03809160038F5F809360038E89909147
:1017D0006503981710F480936503F9E08F9FC001AB
:1017E0001124B60185569C4F0E94FE050F900FBE36
:1017F00080916403882351F0E091BF03F091C0030E
:1018000096898E89981710F40E941F0781E001C005
:101810008FEFDF91CF911F910F91FF90EF90DF90AD
:10182000CF90BF90AF909F908F907F906F905F9080
:101830000895EF92FF920F938CE5E82E83E0F82E47
:1018400000E020E030E040EC50E06CED71E08FED26
:101850009AE00E940D0B8130B1F40E942B0F813071
:1018600091F4F8942FEF3FEF30935F0320935E03E2
:101870008093640310926703109266030F91FF90A8
:10188000EF900C94E7060F91FF90EF9008958091F0
:101890005B038F5F80935B0308950FB6F8940F92FC
:1018A00080916603909167030F900FBE0895CF92C9
:1018B000DF92EF92FF920F931F93CF93DF9380916C
:1018C0005B0381118CC000916603109167030F5F69
:1018D0001F4F109367030093660301151105B9F4B8
:1018E000809187039091880320918503309186032E
:1018F0003093880320938703909386038093850316
:10190000809161038F5F809361030E94680A8091D8
:101910005E0390915F03C0E00817190708F44FC0F9
:10192000D9E0E0918703F09188038081811103C0A1
:101930008FEF9FEF11C0E0918703F091880305803E
:10194000F681E02DE680F780D70112968D919C916B
:1019500013970817190728F490935F0380935E0389
:101960002EC06701B2E0CB0ED11CC6010E94570603
:10197000F70184899589892B21F0C7010C960E9473
:101980005706D70156968C9190916503981710F4DD
:1019900080936503D89FC0011124B60185569C4FE2
:1019A0000E94FE05E091BF03F091C003D701569657
:1019B0009C918689981708F4B4CFC1E0B2CFE0912A
:1019C000BF03F091C003E689B9E0EB9FF001112459
:1019D000E556FC4F8081823040F0C1E006C0809126
:1019E00063038F5F80936303C0E080916203811182
:1019F000C1E08C2FDF91CF911F910F91FF90EF905D
:101A0000DF90CF900895EF92FF920F931F93CF93A3
:101A1000DF930FB6F8940F9280915B03815080930F
:101A20005B0380915B03882311F080E052C08091BA
:101A300068038823D1F3C0E0D0E089E0F82EEE24DB
:101A4000E39480917C03882351F1E0918103F0912C
:101A50008203C681D781CE010C960E9457068E0163
:101A60000E5F1F4FC8010E9457068E899091650333
:101A7000981710F480936503F89EC0011124B801F3
:101A800085569C4F0E94FE05E091BF03F091C00374
:101A90009E8986899817A8F2E0926203D2CFCD2B57
:101AA00011F00E94680AC0916303CC2351F0D1E089
:101AB0000E94570C8111D0936203C150C9F7109254
:101AC000630380916203882309F4AFCF0E941F074C
:101AD00081E00F900FBEDF91CF911F910F91FF908A
:101AE000EF900895CF93DF93EC01892B19F40E94B6
:101AF0001F070AC00E94470C60E0CE010E94830AC3
:101B00000E94030D882399F3DF91CF91089580916E
:101B10005B03882321F081E0809362030895109293
:101B20006203A091BF03B091C003E091BF03F091A5
:101B3000C0032D913C918789908D8217930760F0A7
:101B40006091BF037091C0038091BF039091C00367
:101B5000675E7F4F0E94F9108091650369E0482F0E
:101B600050E0649F9001659F300D1124F901E55606
:101B7000FC4F9081911102C08150F1CFA181B281BF
:101B800012960D90BC91A02DB283A18322563C4F9A
:101B9000A217B30731F412962D913C91139732831B
:101BA000218399E0949FF001959FF00D1124E55653
:101BB000FC4F0180F281E02D268137813093C003F4
:101BC0002093BF03809365030895CF93DF93EB01C8
:101BD0006091BF037091C003645F7F4F0E941F0636
:101BE00061E0CE01DF91CF910C94830A1F93CF93D4
:101BF000DF93EB01142F6091BF037091C003645F0A
:101C00007F4F0E94FE05112311F0CFEFDFEF612F10
:101C1000CE01DF91CF911F910C94830A0F931F93F4
:101C2000CF93DF93DC011596ED91FC911697C68159
:101C3000D7818E01045F1F4FC8010E945706809113
:101C40005B03811114C00A501109C8010E94570694
:101C50008E8990916503981710F480936503B9E01D
:101C60008B9FC0011124B80185569C4F03C0B80159
:101C70008CE793E00E94FE05E091BF03F091C00362
:101C80009E898689891720F481E08093620301C0D0
:101C900080E0DF91CF911F910F9108952091610312
:101CA000FC012083209166033091670332832183F6
:101CB0000895CF93DF930FB6F8940F924091660387
:101CC00050916703DB012D913C912F3FBFEF3B0704
:101CD000D9F0EC01E981FA81A0916103B881BA17CA
:101CE00019F04E175F0790F44E1B5F0BFB01421774
:101CF000530738F4241B350B318320830E944E0E8A
:101D000003C01182108202C080E001C081E00F9008
:101D10000FBEDF91CF91089581E080936203089513
:101D200080916403882331F080915B03882321F044
:101D300080E0089581E0089582E008950F931F9355
:101D4000CF93DF93FC01892B11F480E02CC082A19A
:101D5000815082A3268991A12917B9F38111F5CF6A
:101D6000EF018F010E5F1F4FC8010E94570689A126
:101D70008E8B482F50E024E030E0241B350B3D874C
:101D80002C8790916503981710F48093650329E0E0
:101D9000249FC001259F900D1124B80185569C4FAA
:101DA0000E94FE0581E0DF91CF911F910F91089570
:101DB0000FB6F8940F928091C5039091C603892BBA
:101DC000E9F484ED93E00E94EC058BEC93E00E9433
:101DD000EC0584ED93E09093CA038093C9038BECE8
:101DE00093E09093C8038093C70340E065E08AE0E6
:101DF0000E94CD089093C6038093C5030F900FBE39
:101E00000895FC0173836283918780874617570783
:101E100078F0421B530B8485958548175907C8F401
:101E2000BF016E5F7F4F8091C7039091C8030DC0C3
:101E30004217530718F46217730758F4BF016E5F17
:101E40007F4F8091C9039091CA030E941F0680E0D2
:101E5000089581E00895EF92FF920F930E94D80EAB
:101E60008091C5039091C603892B81F083ECE82E05
:101E700083E0F82E03E020E030E045E550E061EE3D
:101E800071E08BED9FE00E940D0B01C080E00F918F
:101E9000FF90EF9008950F931F93CF93DF9300D09F
:101EA00000D01F92CDB7DEB7A091C503B091C60395
:101EB000109729F1F90169835B834A839D838C83A1
:101EC0006630A4F40E94900EE091C503F091C60321
:101ED00020E0823011F4A80102C040E050E0BE01D1
:101EE0006F5F7F4FCF010E94F5080AC020E0AF016D
:101EF000BE016F5F7F4FCD010E948B0901C080E062
:101F00000F900F900F900F900F90DF91CF911F9136
:101F10000F910895EF92FF920F931F93CF93DF934A
:101F2000E091C903F091CA038081882389F105807B
:101F3000F681E02DE080F180C681D7818E010E5FB1
:101F40001F4FC8010E945706E889F989CE010995FB
:101F50008A8982FFE5CF8C859D858E0D9F1DE816B1
:101F6000F90660F49B838A83D987C887B80180917A
:101F7000C9039091CA030E941F06D2CF00E010E06F
:101F800020E030E0A70160E0CE010E944B0FC8CFF7
:101F90008091C7039091C8039093CA038093C903AB
:101FA000F093C803E093C703DF91CF911F910F9186
:101FB000FF90EF900895CF93DF9300D000D01F9251
:101FC000CDB7DEB7E091C903F091CA03D080DD2020
:101FD00031F00580F681E02DE080F18002C0E12C37
:101FE000F12C0E94470C0E944D0C8C018091C10382
:101FF0009091C2030817190720F40E948A0F81E00C
:1020000001C080E01093C2030093C103811155C049
:10201000DD20D9F10E151F0508F43EC00E94030D06
:10202000E091C903F091CA030580F681E02DC680D6
:10203000D780C60102960E945706D60152968C910F
:10204000529782FF17C01C966D917C911D976E0D63
:102050007F1D9701A801C6010E94010F882369F026
:1020600000E010E020E030E0A70160E0C6010E943F
:102070004B0F03C08E7FF601828BD6015096ED91F7
:10208000FC915197C60109951EC0E091C703F091DC
:10209000C803808141E0811140E0B701601B710BF2
:1020A0008091C5039091C6030E944C0A0E94030DC3
:1020B000811109C00E941F0706C00E94030D03C0C2
:1020C000898187FF0EC040E050E0BE016F5F7F4F07
:1020D0008091C5039091C6030E94BA098111F0CF87
:1020E00071CFEC80FD80F70182859385892B21F0EB
:1020F000C70102960E9457060E944D0C6C01809108
:10210000C1039091C203C816D90610F40E948A0F29
:10211000D092C203C092C103E9810E2E000CFF0BC6
:10212000EA30F10580F6EC5CFF4FD70152968C91B6
:102130000C94F31B8160F701828B2A813B816485BB
:102140007585620F731FA601C7010E94010F8823C6
:1021500009F4B9CFD7015096ED91FC915197C70181
:102160000995F701828982FFAECF4A815B81848520
:102170009585480F591F00E010E020E030E060E056
:10218000C7010E944B0F9FCF8160F701828B6A814C
:102190007B81758764876C0D7D1D9601A601C70143
:1021A0000E94010F90CF81FD04C0C7010E94DB0592
:1021B0008ACF8E7FD70152968C9385CF0E943905A6
:1021C0000E94190C08950E948D0581EE95E1892BDE
:1021D00011F00C94E1150895259A2D9A2FEF80E7C0
:1021E00092E0215080409040E1F700C000001D9A2D
:1021F000F5CF259A2D9A2FEF87EA91E6215080405E
:102200009040E1F700C000001D9AF5CF0F931F9397
:10221000FC018FEF808381838283838384838AE0C0
:1022200085831682DF011796739600E717E120E099
:1022300030E048ED56ED60E070E00D931D932D9376
:102240003D9318964D935D936D937C931B97AE17BA
:10225000BF0799F71F910F910895FF920F931F9356
:10226000CF93DF93EC01F62E042F122F0E9406115C
:10227000FB820C831883DF91CF911F910F91FF9008
:1022800008950895CF93DF93EC018B818F3FE9F0A0
:102290009C819F3FD1F0613049F030F0623041F0D5
:1022A000633099F461E009C060E007C061E001C0FB
:1022B00060E00E94581A61E003C00E94581A60E072
:1022C0008C81DF91CF910C94581ADF91CF910895B2
:1022D000CF93DF93EC0189818F3FE9F09A819F3F93
:1022E000D1F0613049F030F0623041F0633099F460
:1022F00060E009C061E003C061E005C060E00E94E9
:10230000581A61E003C00E94581A60E08A81DF9188
:10231000CF910C94581ADF91CF910895FC01208140
:102320002F3F29F091E06927822F0C94581A6623D9
:1023300019F0FC01668101C063E00C946811CF9331
:10234000DF93EC0189818F3F19F061E00E941C1A34
:102350008A818F3F19F061E00E941C1A8B818F3FA8
:1023600019F061E00E941C1A8C818F3F19F061E026
:102370000E941C1A88818F3F19F061E00E941C1A8C
:1023800060E0CE010E948E116E81CE01DF91CF916F
:102390000C946811DC01FB01309759F09B968C91ED
:1023A0009B9780839C968C919C9781839D968C9122
:1023B000828308954F925F926F927F928F929F9245
:1023C000AF92BF92DF92EF92FF920F931F93CF9342
:1023D000DF938C01095F1F4FEC017C0183E1E80E64
:1023E000F11CDD24DA94F801D8018D909D90AD9018
:1023F000BD908D01808D918DA28DB38D9C01AD011D
:10240000281939094A095B09AFEFB0E00E94F91BAE
:10241000F8014084518462847384A30192012819D5
:1024200039094A095B090E94D41B57FF02C01BA649
:1024300009C02F3F31054105510519F014F0DBA605
:1024400001C02BA721960E151F0569F6DF91CF91CC
:102450001F910F91FF90EF90DF90BF90AF909F90F2
:102460008F907F906F905F904F9008950F931F9380
:10247000CF93DF938C01C62F613049F018F06230A2
:10248000D9F04CC01092DD0361E00E948E11E09102
:10249000DD03F0E0E751FE4F6081C8010E94421168
:1024A000F801658170E088EE93E00E949E1BCB01ED
:1024B0000E94871AC2E032C00E94FF1A882371F17D
:1024C000E091DD0381E08E0F8093DD03F0E0E751C2
:1024D000FE4FC081D0E00E94021B9B01AC01CC0FDB
:1024E000DD1FCC0FDD1FC00FD11FF801A581B0E0AB
:1024F0000E94F91B6F8F78A389A39AA38091DD03B3
:10250000833058F00E94101B60E0C8010E948E11B9
:10251000C8010E94DA11C0E001C0C1E08C2FDF9138
:10252000CF911F910F910895CF93DF93EC0160E05D
:102530000E9436128EA7DF91CF910895CF93DF933B
:10254000EC016EA50E943612982F8EA781E09111A2
:1025500080E0DF91CF91089580E090E00895209190
:1025600020043091210428173907B9F49091DE0333
:102570008091DF03981789F0E091DE03F0E0E052EC
:10258000FC4F80812091DE0330E02F5F3F4F2F739F
:1025900033272093DE0390E008958FEF9FEF089597
:1025A0001F93CF93DF93DC015C968D919C915D9797
:1025B000009739F421E030E013963C932E93129764
:1025C0003BC05196ED91FC91529750962C915097AB
:1025D000322F30951FB75E964C915E97742F7270B4
:1025E00041FD6095F8944081772311F0422B01C0A2
:1025F00043234083EC012197F1F748E0508160FFCD
:1026000002C0522B01C053235083EC012197F1F7F4
:102610006695415099F78081772319F08323808351
:1026200002C0282B20831FBF5C968D919C915D97E3
:102630000197F1F781E090E0DF91CF911F9108952C
:10264000089520912004309121042817390771F44E
:102650009091DE038091DF03981741F0E091DE0353
:10266000F0E0E052FC4F808190E008958FEF9FEF03
:10267000089520912004309121042817390771F41E
:102680008091DF032091DE0390E0805C9F4F821BEE
:10269000910960E470E00E949E1B089580E090E044
:1026A0000895E0912004F0912104E817F90769F4F6
:1026B000A389B4899C918589809589238C931092F4
:1026C00021041092200481E0089580E00895CF93C2
:1026D000DF93EC018A8D9B8D892BF1F08091200492
:1026E00090912104C817D907B9F0009711F00E9402
:1026F00051138E8D8E7F8E8F1092DF031092DE032A
:10270000D0932104C0932004EB89FC8990818D89AA
:10271000892B808381E001C080E0DF91CF91089513
:102720001F920F920FB60F9211242F933F934F9346
:102730005F936F937F938F939F93AF93BF93EF9329
:10274000FF93E0912004F0912104309709F451C0E7
:10275000968DA685B785858591FF04C09C918923B8
:1027600029F447C09C91892309F043C0A389B48907
:102770009C918589809589238C9386899789019777
:10278000F1F7608D718DA685B785558538E020E01D
:10279000CB010197F1F7822F90E095958795282F2F
:1027A0004C91452309F02068315091F7868D81FDC9
:1027B00020958091DF0390E001968F7399273091E7
:1027C000DE03381749F0A091DF03B0E0A052BC4F00
:1027D0002C938093DF0303C0868D8160868F828D6A
:1027E000938D0197F1F7A389B4899C918589892BF1
:1027F0008C93FF91EF91BF91AF919F918F917F91BA
:102800006F915F914F913F912F910F900FBE0F905D
:102810001F90189520EF31E0FC01318320830C9448
:1028200051131F93CF93DF93EC01162F6E8D669596
:10283000617081E06827812F0E94581A61E0812F22
:102840000E941C1A812F90E0FC01EA55FF4FE49191
:10285000E88BFC01E654FF4FE491F0E0EE0FFF1F20
:10286000E852FF4F859194919A8B898BDF91CF919C
:102870001F9108951F93CF93DF93EC01162F60E013
:10288000812F0E941C1A8E8D81FD04C061E0812F72
:102890000E94581A1C87812F90E0FC01EA55FF4FD7
:1028A000E491ED87FC01E654FF4FE491F0E0EE0F78
:1028B000FF1FE253FF4F859194919F878E87DF9191
:1028C000CF911F9108951F93CF93DF93EC01162FA3
:1028D0001B821A8288EE93E0A0E0B0E08C839D8397
:1028E000AE83BF8380EF91E0998388831F8A1E8A1D
:1028F000198E188E1B8E1A8E1D8E1C8E8E8D8E7FBD
:1029000020FB81F98E8F642FCE010E941114612F5C
:10291000CE01DF91CF911F910C943A14CF93DF93A6
:10292000EC019A01AB011B8E1A8E198E188E1F8A2C
:102930001E8A60E079E08DE390E00E94D41BF901EB
:102940002430310518F0C901039702C081E090E0FE
:102950009D8F8C8F6C85663108F069C0C901969592
:1029600087958431910510F0439702C081E090E093
:102970009F8B8E8B369718F0C901059702C081E0B6
:1029800090E0998F888FC901880F991F280F391FF0
:1029900036952795369527952D30310518F02C5012
:1029A000310902C021E030E03B8F2A8F909168000E
:1029B000683050F021E06E3008F420E081E001C082
:1029C000880F2A95EAF701C084E0892B809368007C
:1029D0009C85983038F09E3040F0963148F020E0E9
:1029E00030E008C02DE630E005C02BE630E002C044
:1029F0002CE630E03C8B2B8B983030F481E001C02A
:102A0000880F9A95EAF70EC0292F30E09E3018F40F
:102A10002850310902C02E50310981E001C0880FD1
:102A20002A95EAF78D8B8C8D9D8D0197F1F7CE015C
:102A3000DF91CF910C9467130E94571508F481E041
:102A400008950E9428156894B1110C949E1508955C
:102A50000E94831588F09F5798F0B92F9927B75196
:102A6000B0F0E1F0660F771F881F991F1AF0BA9532
:102A7000C9F714C0B13091F00E949D15B1E00895DE
:102A80000C949D15672F782F8827B85F39F0B93FD0
:102A9000CCF3869577956795B395D9F73EF49095E5
:102AA0008095709561957F4F8F4F9F4F0895990F37
:102AB0000008550FAA0BE0E8FEEF16161706E80708
:102AC000F907C0F012161306E407F50798F0621B29
:102AD000730B840B950B39F40A2661F0232B242BFE
:102AE000252B21F408950A2609F4A140A6958FEF1D
:102AF000811D811D089557FD9058440F551F59F0B1
:102B00005F3F71F04795880F97FB991F61F09F3FDA
:102B100079F087950895121613061406551FF2CF03
:102B20004695F1DF08C0161617061806991FF1CF53
:102B300086957105610508940895E894BB2766277A
:102B40007727CB0197F90895FC01918D228D892F6C
:102B500090E0805C9F4F821B91098F7399270895A5
:102B6000FC01918D828D981731F0828DE80FF11D57
:102B7000858D90E008958FEF9FEF0895FC01918D72
:102B8000828D981761F0828DDF01A80FB11D5D96CF
:102B90008C91928D9F5F9F73928F90E008958FEF3D
:102BA0009FEF0895FC01538D448D252F30E0842F35
:102BB00090E0821B930B541710F0CF960895019765
:102BC00008958DE397E1892B49F080E090E0892B0F
:102BD00029F00E943D1781110C9400000895FC011A
:102BE000848DDF01A80FB11DA35ABF4F2C91848D96
:102BF00090E001968F739927848FA689B7892C93CB
:102C0000A089B1898C91837080648C93938D848D1D
:102C1000981306C00288F389E02D80818F7D808320
:102C20000895EF92FF920F931F93CF93DF93EC01E0
:102C300081E0888F9B8D8C8D981305C0E889F98978
:102C4000808185FD26C0F62E0B8D10E00F5F1F4F93
:102C50000F731127E02E8C8DE8120CC00FB607FC05
:102C6000FACFE889F989808185FFF5CFCE010E94EE
:102C7000EF15F1CF8B8DFE01E80FF11DE35AFF4FE9
:102C8000F0829FB7F8940B8FEA89FB89808180627C
:102C90000AC09FB7F894EE89FF896083E889F989B3
:102CA00080818370806480839FBF81E090E0DF91AA
:102CB000CF911F910F91FF90EF900895CF93DF93E5
:102CC000EC01888D8823C9F0EA89FB89808185FD24
:102CD00005C0A889B9898C9186FD0FC00FB607FC85
:102CE000F5CF808185FFF2CFA889B9898C9185FFC6
:102CF000EDCFCE010E94EF15E7CFDF91CF91089580
:102D0000CF92DF92EF92FF921F93CF93DF93EC016C
:102D10006A017B01122FE889F98982E080834115DD
:102D2000514E61057105B1F060E079E08DE390E00E
:102D3000A70196010E94B21BDA01C9010197A109FE
:102D4000B109B695A795979587959C01211580E1C6
:102D50003807A8F0E889F989108260E874E88EE104
:102D600090E0A70196010E94B21BDA01C901019708
:102D7000A109B109B695A795979587959C01EC8512
:102D8000FD853083EE85FF852083188EEC89FD89D3
:102D90001083EA89FB89808180618083EA89FB89CD
:102DA000808188608083EA89FB8980818068808354
:102DB000EA89FB8980818F7D8083DF91CF911F918C
:102DC000FF90EF90DF90CF9008951F920F920FB673
:102DD0000F9211242F938F939F93EF93FF93E09182
:102DE0003204F09133048081E0913804F091390489
:102DF00082FD12C0908180913B048F5F8F73209180
:102E00003C04821751F0E0913B04F0E0EE5DFB4F93
:102E1000958F80933B0401C08081FF91EF919F913A
:102E20008F912F910F900FBE0F901F9018951F92AA
:102E30000F920FB60F9211242F933F934F935F93EE
:102E40006F937F938F939F93AF93BF93EF93FF9372
:102E500082E294E00E94EF15FF91EF91BF91AF9154
:102E60009F918F917F916F915F914F913F912F91A2
:102E70000F900FBE0F901F90189582E294E00E9471
:102E8000A41521E0892B09F420E0822F0895E2E2C5
:102E9000F4E01382128288EE93E0A0E0B0E0848335
:102EA0009583A683B78382E092E09183808385EC4B
:102EB00090E09587848784EC90E09787868780EC04
:102EC00090E0918B808B81EC90E0938B828B82ECF5
:102ED00090E0958B848B86EC90E0978B868B118E9F
:102EE000128E138E148E08950E9459190E94DE10BE
:102EF0000E943905C1EED5E10E948D052097E1F3CE
:102F00000E94E115F9CFCF92DF92EF92FF920F93DB
:102F10001F93CF93DF936C017A018B01C0E0D0E067
:102F2000CE15DF0581F0D8016D918D01D601ED91AF
:102F3000FC910190F081E02DC6010995892B11F0DB
:102F40002196EECF7E01C701DF91CF911F910F91A6
:102F5000FF90EF90DF90CF900895EF92FF920F9344
:102F60001F93CF93DF938C017B01C0E0D0E0F7018A
:102F7000EC0FFD1F6491662361F0D801ED91FC9187
:102F80000190F081E02DC8010995892B11F021965F
:102F9000EECFCE01DF91CF911F910F91FF90EF9077
:102FA00008950C943904DC01ED91FC910190F081BD
:102FB000E02D099460E172E00C9439040F931F93A3
:102FC000CF93DF93EC010E9439048C01CE010E9463
:102FD000DA17800F911FDF91CF911F910F91089504
:102FE0008F929F92AF92BF92EF92FF920F931F9397
:102FF000CF93DF93CDB7DEB7A1970FB6F894DEBFBE
:103000000FBECDBF7C01FA01CB0119A2223008F41A
:103010002AE08E010F5D1F4F822E912CA12CB12C26
:10302000BF01A50194010E94B21BF901CA01015020
:1030300011096A3010F4605D01C0695CD8016C93BD
:10304000232B242B252B61F7B801C7010E943904DB
:10305000A1960FB6F894DEBF0FBECDBFDF91CF9122
:103060001F910F91FF90EF90BF90AF909F908F9026
:1030700008952115310541F4DC01ED91FC91019099
:10308000F081E02D642F09940C94F0179A01462FDB
:1030900050E060E070E00C9439180F931F93CF93C9
:1030A000DF93EC010E9446188C01CE010E94DA17D2
:1030B000800F911FDF91CF911F910F910895CF92B3
:1030C000DF92EF92FF920F931F93CF93DF9321151F
:1030D000310581F4DC01ED91FC910190F081E02D4E
:1030E000642FDF91CF911F910F91FF90EF90DF90B0
:1030F000CF9009942A30310501F577FF1DC06A0190
:103100007B01EC016DE20E94D3178C014427552707
:10311000BA014C195D096E097F092AE0CE010E94AF
:10312000F017800F911FDF91CF911F910F91FF90AA
:10313000EF90DF90CF9008952AE0DF91CF911F911B
:103140000F91FF90EF90DF90CF900C94F0179A01C1
:10315000AB01770F660B770B0C945F181F920F92E1
:103160000FB60F9211242F933F938F939F93AF939A
:10317000BF938091C0049091C104A091C204B0910A
:10318000C3043091BF0423E0230F2D3720F40196B0
:10319000A11DB11D05C026E8230F0296A11DB11D7A
:1031A0002093BF048093C0049093C104A093C204F1
:1031B000B093C3048091C4049091C504A091C60447
:1031C000B091C7040196A11DB11D8093C4049093D2
:1031D000C504A093C604B093C704BF91AF919F915B
:1031E0008F913F912F910F900FBE0F901F901895C8
:1031F0003FB7F8948091C4049091C504A091C6048F
:10320000B091C70426B5A89B05C02F3F19F00196C1
:10321000A11DB11D3FBFBA2FA92F982F8827820F5C
:10322000911DA11DB11DBC01CD0142E0660F771FAC
:10323000881F991F4A95D1F708958F929F92AF9258
:10324000BF92CF92DF92EF92FF926B017C010E94BE
:10325000F8184B015C01C114D104E104F10401F13F
:103260000E949D1B0E94F818DC01CB018819990966
:10327000AA09BB09883E9340A105B10560F321E08E
:10328000C21AD108E108F10888EE880E83E0981E82
:10329000A11CB11CC114D104E104F10419F7DBCF66
:1032A000FF90EF90DF90CF90BF90AF909F908F9066
:1032B0000895789484B5826084BD84B5816084BDAE
:1032C00085B5826085BD85B5816085BDEEE6F0E09F
:1032D000808181608083E1E8F0E0108280818260FB
:1032E0008083808181608083E0E8F0E0808181607C
:1032F0008083E1EBF0E0808184608083E0EBF0E0AC
:10330000808181608083EAE7F0E08081846080834F
:1033100080818260808380818160808380818068F9
:1033200080831092C10008951F93CF93DF93182FCD
:10333000EB0161E00E941C1A209711F460E004C0C8
:10334000CF3FD10539F461E0812FDF91CF911F91FB
:103350000C94581AE12FF0E0EE56FF4FE491E33061
:10336000F9F048F4E130B9F0E230A1F584B58062BB
:1033700084BDC8BD34C0E730E9F0E83019F1E4306D
:1033800049F580918000806280938000D0938B000B
:10339000C0938A0024C084B5806884BDC7BD1FC0A7
:1033A00080918000806880938000D0938900C093D2
:1033B000880015C08091B00080688093B000C093F1
:1033C000B3000DC08091B00080628093B000C093C4
:1033D000B40005C0C038D1050CF0B5CFAFCFDF9138
:1033E000CF911F910895833081F028F4813099F0B6
:1033F0008230A1F008958730A9F08830B9F0843088
:10340000D1F4809180008F7D03C0809180008F7700
:1034100080938000089584B58F7702C084B58F7D36
:1034200084BD08958091B0008F7703C08091B00073
:103430008F7D8093B0000895CF93DF9390E0FC01DF
:10344000EA55FF4F2491FC01E654FF4F84918823F5
:1034500061F190E0880F991FFC01EE51FF4FC5917B
:10346000D491FC01E852FF4FA591B491611109C0BC
:103470009FB7F8948881209582238883EC912E232E
:103480000BC0623061F49FB7F8948881322F309579
:1034900083238883EC912E2B2C939FBF06C08FB77C
:1034A000F894E8812E2B28838FBFDF91CF91089568
:1034B0001F93CF93DF93282F30E0F901EE56FF4F93
:1034C0008491F901EA55FF4FD491F901E654FF4F79
:1034D000C491CC23C1F0162F81110E94F319EC2F57
:1034E000F0E0EE0FFF1FE852FF4FA591B4919FB798
:1034F000F894111104C08C91D095D82302C0EC919E
:10350000DE2BDC939FBFDF91CF911F910895009731
:1035100009F474C01092C9041092C8041092D60421
:103520001092D5041092D1041092D2041092D304B8
:103530001092D4041092CC04209180002093DB04DC
:10354000209181002093DA04109281001092800073
:10355000109285001092840021E026BB10926F002B
:103560002091B0002093D9042091B1002093D80479
:103570001092B10022E02093B0009C012770332705
:10358000232B51F443E0969587954A95E1F72CE774
:103590002093B30027E018C09C0123703327232B0E
:1035A00031F4969587959695879529EF05C080FD0E
:1035B00007C0969587952CE72093B30026E004C0BA
:1035C0002CE72093B30025E02093D70422E027BB0B
:1035D0001092B2009093CB048093CA049FB7F894E2
:1035E00023BD8091D7048093B100209370008BE0BD
:1035F0008150F1F787E0809381009FBF089580910B
:10360000CC0408952FB7F8946091CD047091CE0446
:103610008091CF049091D0041092CC042FBF0895D4
:10362000E1EBF0E01082109270008091D904809359
:10363000B0008091D8048083E1E8F0E010828091AE
:10364000DB04809380008091DA04808308951F92C8
:103650000F920FB60F9211240F931F932F933F9346
:103660004F935F936F937F938F939F93AF93BF938A
:103670002091840030918500B09B0BC081E086BB17
:103680008091D5049091D60401969093D6048093AE
:10369000D5048091C8049091C90401964091CA0450
:1036A0005091CB048417950798F11092C904109299
:1036B000C8048091D5049091D604A0E0B0E0DC016C
:1036C00099278827820F931FA11DB11D4091D10416
:1036D0005091D2046091D3047091D4048C019D0167
:1036E000041B150B260B370B0093CD041093CE044F
:1036F0002093CF043093D0048093D1049093D204CC
:10370000A093D304B093D40481E08093CC0404C08C
:103710009093C9048093C804BF91AF919F918F91FA
:103720007F916F915F914F913F912F911F910F91D9
:103730000F900FBE0F901F901895089597FB072EBE
:1037400016F4009407D077FD09D00E94041C07FCF2
:1037500005D03EF4909581959F4F089570956195A1
:103760007F4F0895A1E21A2EAA1BBB1BFD010DC0BD
:10377000AA1FBB1FEE1FFF1FA217B307E407F50721
:1037800020F0A21BB30BE40BF50B661F771F881FFD
:10379000991F1A9469F760957095809590959B0193
:1037A000AC01BD01CF010895052E97FB1EF40094D6
:1037B0000E94EB1B57FD07D00E94B21B07FC03D0F1
:1037C0004EF40C94EB1B50954095309521953F4F4E
:1037D0004F4F5F4F089590958095709561957F4FFD
:1037E0008F4F9F4F0895EE0FFF1F0590F491E02D2E
:1037F00009940E94181CA59F900DB49F900DA49F42
:10380000800D911D11240895AA1BBB1B51E107C017
:10381000AA1FBB1FA617B70710F0A61BB70B881F60
:10382000991F5A95A9F780959095BC01CD010895EF
:10383000A29FB001B39FC001A39F700D811D1124F1
:10384000911DB29F700D811D1124911D08950F933C
:103850001F93CF93DF938230910510F482E090E0C4
:10386000E091DE04F091DF0420E030E0A0E0B0E081
:10387000309719F14081518102811381481759070E
:10388000C8F08417950769F4109731F012960C93DD
:10389000129713961C9327C00093DE041093DF0445
:1038A00022C02115310519F04217530718F49A0167
:1038B000BD01EF01DF01F801DBCF21153105F9F082
:1038C000281B390B2430310580F48A819B816115D6
:1038D000710521F0FB019383828304C09093DF0480
:1038E0008093DE04FE01329644C0FE01E20FF31F16
:1038F0008193919322503109398328833AC02091D2
:10390000DC043091DD04232B41F42091020130913D
:1039100003013093DD042093DC04209100013091F9
:1039200001012115310541F42DB73EB74091040145
:1039300050910501241B350BE091DC04F091DD046E
:10394000E217F307A0F42E1B3F0B2817390778F076
:10395000AC014E5F5F4F2417350748F04E0F5F1FD5
:103960005093DD044093DC048193919302C0E0E026
:10397000F0E0CF01DF91CF911F910F910895CF9388
:10398000DF93009709F481C0FC0132971382128201
:10399000A091DE04B091DF04109781F42081318181
:1039A000820F931F2091DC043091DD042817390722
:1039B00051F5F093DD04E093DC0467C0ED0120E0F5
:1039C00030E0CE17DF0740F44A815B819E0141154C
:1039D0005105F1F0EA01F5CFD383C28340815181D3
:1039E000840F951FC817D90759F488819981840FCE
:1039F000951F0296918380838A819B819383828322
:103A00002115310529F4F093DF04E093DE043DC075
:103A1000E901FB83EA8349915991C40FD51FEC1743
:103A2000FD0761F480819181840F951F0296E90161
:103A300099838883828193819B838A83E0E0F0E08D
:103A400012968D919C911397009719F0FD01DC015E
:103A5000F7CF8D919C9111979D012E5F3F4F820F63
:103A6000931F2091DC043091DD042817390769F495
:103A7000309729F41092DF041092DE0402C0138202
:103A80001282B093DD04A093DC04DF91CF910895FE
:103A9000FB01DC0102C001900D9241505040D8F76B
:103AA0000895DC0101C06D9341505040E0F7089546
:103AB00010E0CAE7D0E004C0FE010E94F31B21968B
:0A3AC000CC37D107C9F7F894FFCF07
:103ACA000000E0042000000000003C003F006B0002
:103ADA000000000023002400460041FF00FF00FF11
:103AEA000000000000FF000000FF000000FF0000CF
:103AFA0000000040003E005A004A004D007800478E
:103B0A00004A007B003D003E005B003C003C006533
:103B1A000032003F005A0040004300720044004156
:103B2A0000720034003C005A00340034005E003A4F
:103B3A000035006000300036005600310030005871
:103B4A000036002E00580032002C00560034002A9D
:103B5A000052002F002B005200633A200072656168
:103B6A00645F696E3A200052474200436F6C6F727D
:103B7A0053656E736F7200616D6D6F6E69613A00A5
:103B8A006E6974726174653A006E697472697465FB
:103B9A003A0070683A0074656D703A0049444C45C1
:103BAA0000546D7220537663000001020000000089
:103BBA00D0128317AC1220133913AF12211300004D
:103BCA00000011168317D2155E16A415BE15B0157E
:103BDA000D0A006E616E00696E66006F76660000FF
:00000001FF
